{"contracts/SupplyChain.sol":{"SupplyChain":{"abi":[{"anonymous":false,"inputs":[{"indexed":false,"internalType":"uint8","name":"version","type":"uint8"}],"name":"Initialized","type":"event"},{"anonymous":false,"inputs":[{"indexed":false,"internalType":"uint256","name":"uid","type":"uint256"}],"name":"Manufactured","type":"event"},{"anonymous":false,"inputs":[{"indexed":true,"internalType":"address","name":"_account","type":"address"}],"name":"ManufacturerAdded","type":"event"},{"anonymous":false,"inputs":[{"indexed":true,"internalType":"address","name":"previousOwner","type":"address"},{"indexed":true,"internalType":"address","name":"newOwner","type":"address"}],"name":"OwnershipTransferred","type":"event"},{"anonymous":false,"inputs":[{"indexed":false,"internalType":"uint256","name":"uid","type":"uint256"}],"name":"PurchasedByCustomer","type":"event"},{"anonymous":false,"inputs":[{"indexed":false,"internalType":"uint256","name":"uid","type":"uint256"}],"name":"PurchasedByThirdParty","type":"event"},{"anonymous":false,"inputs":[{"indexed":false,"internalType":"uint256","name":"uid","type":"uint256"}],"name":"ReceivedByCustomer","type":"event"},{"anonymous":false,"inputs":[{"indexed":false,"internalType":"uint256","name":"uid","type":"uint256"}],"name":"ReceivedByDeliveryHub","type":"event"},{"anonymous":false,"inputs":[{"indexed":false,"internalType":"uint256","name":"uid","type":"uint256"}],"name":"ReceivedByThirdParty","type":"event"},{"anonymous":false,"inputs":[{"indexed":false,"internalType":"uint256","name":"uid","type":"uint256"}],"name":"ShippedByDeliveryHub","type":"event"},{"anonymous":false,"inputs":[{"indexed":false,"internalType":"uint256","name":"uid","type":"uint256"}],"name":"ShippedByManufacturer","type":"event"},{"anonymous":false,"inputs":[{"indexed":false,"internalType":"uint256","name":"uid","type":"uint256"}],"name":"ShippedByThirdParty","type":"event"},{"inputs":[{"internalType":"address","name":"_account","type":"address"}],"name":"addCustomerRole","outputs":[],"stateMutability":"nonpayable","type":"function"},{"inputs":[{"internalType":"address","name":"_account","type":"address"}],"name":"addDeliveryHubRole","outputs":[],"stateMutability":"nonpayable","type":"function"},{"inputs":[{"internalType":"address","name":"_account","type":"address"}],"name":"addManufacturerRole","outputs":[],"stateMutability":"nonpayable","type":"function"},{"inputs":[{"internalType":"address","name":"_account","type":"address"}],"name":"addThirdPartyRole","outputs":[],"stateMutability":"nonpayable","type":"function"},{"inputs":[],"name":"fetchProductCount","outputs":[{"internalType":"uint256","name":"","type":"uint256"}],"stateMutability":"view","type":"function"},{"inputs":[{"internalType":"uint256","name":"_uid","type":"uint256"}],"name":"fetchProductHistoryLength","outputs":[{"internalType":"uint256","name":"","type":"uint256"}],"stateMutability":"view","type":"function"},{"inputs":[{"internalType":"uint256","name":"_uid","type":"uint256"},{"internalType":"string","name":"_type","type":"string"},{"internalType":"uint256","name":"i","type":"uint256"}],"name":"fetchProductPart1","outputs":[{"internalType":"uint256","name":"","type":"uint256"},{"internalType":"uint256","name":"","type":"uint256"},{"internalType":"address","name":"","type":"address"},{"internalType":"address","name":"","type":"address"},{"internalType":"string","name":"","type":"string"},{"internalType":"string","name":"","type":"string"},{"internalType":"string","name":"","type":"string"},{"internalType":"string","name":"","type":"string"}],"stateMutability":"view","type":"function"},{"inputs":[{"internalType":"uint256","name":"_uid","type":"uint256"},{"internalType":"string","name":"_type","type":"string"},{"internalType":"uint256","name":"i","type":"uint256"}],"name":"fetchProductPart2","outputs":[{"internalType":"uint256","name":"","type":"uint256"},{"internalType":"string","name":"","type":"string"},{"internalType":"uint256","name":"","type":"uint256"},{"internalType":"uint256","name":"","type":"uint256"},{"internalType":"string","name":"","type":"string"},{"internalType":"enum Structure.State","name":"","type":"uint8"},{"internalType":"address","name":"","type":"address"},{"internalType":"string","name":"","type":"string"}],"stateMutability":"view","type":"function"},{"inputs":[{"internalType":"uint256","name":"_uid","type":"uint256"},{"internalType":"string","name":"_type","type":"string"},{"internalType":"uint256","name":"i","type":"uint256"}],"name":"fetchProductPart3","outputs":[{"internalType":"string","name":"","type":"string"},{"internalType":"address","name":"","type":"address"},{"internalType":"string","name":"","type":"string"},{"internalType":"string","name":"","type":"string"},{"internalType":"address","name":"","type":"address"},{"internalType":"string","name":"","type":"string"}],"stateMutability":"view","type":"function"},{"inputs":[{"internalType":"uint256","name":"_uid","type":"uint256"}],"name":"fetchProductState","outputs":[{"internalType":"enum Structure.State","name":"","type":"uint8"}],"stateMutability":"view","type":"function"},{"inputs":[{"internalType":"address","name":"_account","type":"address"}],"name":"hasCustomerRole","outputs":[{"internalType":"bool","name":"","type":"bool"}],"stateMutability":"view","type":"function"},{"inputs":[{"internalType":"address","name":"_account","type":"address"}],"name":"hasDeliveryHubRole","outputs":[{"internalType":"bool","name":"","type":"bool"}],"stateMutability":"view","type":"function"},{"inputs":[{"internalType":"address","name":"_account","type":"address"}],"name":"hasManufacturerRole","outputs":[{"internalType":"bool","name":"","type":"bool"}],"stateMutability":"view","type":"function"},{"inputs":[{"internalType":"address","name":"_account","type":"address"}],"name":"hasThirdPartyRole","outputs":[{"internalType":"bool","name":"","type":"bool"}],"stateMutability":"view","type":"function"},{"inputs":[],"name":"initialize","outputs":[],"stateMutability":"nonpayable","type":"function"},{"inputs":[{"internalType":"string","name":"manufacturerName","type":"string"},{"internalType":"string","name":"manufacturerDetails","type":"string"},{"internalType":"string","name":"manufacturerLongitude","type":"string"},{"internalType":"string","name":"manufacturerLatitude","type":"string"},{"internalType":"string","name":"productName","type":"string"},{"internalType":"uint256","name":"productCode","type":"uint256"},{"internalType":"uint256","name":"productPrice","type":"uint256"},{"internalType":"string","name":"productCategory","type":"string"}],"name":"manufactureProduct","outputs":[],"stateMutability":"nonpayable","type":"function"},{"inputs":[],"name":"owner","outputs":[{"internalType":"address","name":"","type":"address"}],"stateMutability":"view","type":"function"},{"inputs":[{"internalType":"uint256","name":"_uid","type":"uint256"}],"name":"purchaseByCustomer","outputs":[],"stateMutability":"nonpayable","type":"function"},{"inputs":[{"internalType":"uint256","name":"_uid","type":"uint256"}],"name":"purchaseByThirdParty","outputs":[],"stateMutability":"nonpayable","type":"function"},{"inputs":[{"internalType":"uint256","name":"_uid","type":"uint256"}],"name":"receiveByCustomer","outputs":[],"stateMutability":"nonpayable","type":"function"},{"inputs":[{"internalType":"uint256","name":"_uid","type":"uint256"},{"internalType":"string","name":"deliveryHubLongitude","type":"string"},{"internalType":"string","name":"deliveryHubLatitude","type":"string"}],"name":"receiveByDeliveryHub","outputs":[],"stateMutability":"nonpayable","type":"function"},{"inputs":[{"internalType":"uint256","name":"_uid","type":"uint256"},{"internalType":"string","name":"thirdPartyLongitude","type":"string"},{"internalType":"string","name":"thirdPartyLatitude","type":"string"}],"name":"receiveByThirdParty","outputs":[],"stateMutability":"nonpayable","type":"function"},{"inputs":[],"name":"renounceOwnership","outputs":[],"stateMutability":"nonpayable","type":"function"},{"inputs":[{"internalType":"uint256","name":"_uid","type":"uint256"},{"internalType":"string","name":"tran","type":"string"}],"name":"setTransactionHash","outputs":[],"stateMutability":"nonpayable","type":"function"},{"inputs":[{"internalType":"string","name":"tran","type":"string"}],"name":"setTransactionHashOnManufacture","outputs":[],"stateMutability":"nonpayable","type":"function"},{"inputs":[{"internalType":"uint256","name":"_uid","type":"uint256"}],"name":"shipByDeliveryHub","outputs":[],"stateMutability":"nonpayable","type":"function"},{"inputs":[{"internalType":"uint256","name":"_uid","type":"uint256"}],"name":"shipByThirdParty","outputs":[],"stateMutability":"nonpayable","type":"function"},{"inputs":[{"internalType":"uint256","name":"_uid","type":"uint256"}],"name":"shipToThirdParty","outputs":[],"stateMutability":"nonpayable","type":"function"},{"inputs":[{"internalType":"address","name":"newOwner","type":"address"}],"name":"transferOwnership","outputs":[],"stateMutability":"nonpayable","type":"function"},{"inputs":[],"name":"uid","outputs":[{"internalType":"uint256","name":"","type":"uint256"}],"stateMutability":"view","type":"function"}],"evm":{"bytecode":{"linkReferences":{},"object":"608060405234801561001057600080fd5b5061635880620000216000396000f3fe608060405234801561001057600080fd5b50600436106101d95760003560e01c80638129fc1c11610104578063d44bebcc116100a2578063f16791b311610071578063f16791b31461055b578063f2fde38b14610579578063f4121b6714610595578063f514ce36146105b1576101d9565b8063d44bebcc146104c3578063e2f1fe14146104f3578063e55128ea14610523578063ee707c1e1461053f576101d9565b80638eee90ea116100de5780638eee90ea1461042657806398c9588914610442578063b843bdee14610477578063cd2885e014610493576101d9565b80638129fc1c146103e25780638290f859146103ec5780638da5cb5b14610408576101d9565b80636000ada11161017c578063715018a61161014b578063715018a6146103845780637217eb2e1461038e57806372df397e146103aa578063786ea161146103c6576101d9565b80636000ada1146102ca578063658db497146102fa5780636cf07e24146103315780636f1fe8d71461034d576101d9565b80633334529e116101b85780633334529e14610246578063405ba7ef14610262578063453dd4af146102925780635212e510146102ae576101d9565b80623375b7146101de578063024edf9a146101fa5780630a036e251461022a575b600080fd5b6101f860048036038101906101f391906157a2565b6105cf565b005b610214600480360381019061020f919061572c565b610e30565b6040516102219190615bae565b60405180910390f35b610244600480360381019061023f9190615900565b610ec2565b005b610260600480360381019061025b9190615989565b61140e565b005b61027c60048036038101906102779190615900565b611a63565b6040516102899190615cfc565b60405180910390f35b6102ac60048036038101906102a7919061572c565b611a86565b005b6102c860048036038101906102c3919061572c565b611b31565b005b6102e460048036038101906102df919061572c565b611bdc565b6040516102f19190615bae565b60405180910390f35b610314600480360381019061030f9190615a14565b611c6e565b604051610328989796959493929190615daa565b60405180910390f35b61034b60048036038101906103469190615900565b61205b565b005b61036760048036038101906103629190615a14565b61266d565b60405161037b989796959493929190615d17565b60405180910390f35b61038c6129c4565b005b6103a860048036038101906103a39190615900565b6129d8565b005b6103c460048036038101906103bf9190615900565b612f5c565b005b6103e060048036038101906103db919061592d565b613550565b005b6103ea6135cd565b005b6104066004803603810190610401919061572c565b61371b565b005b6104106137c6565b60405161041d9190615b93565b60405180910390f35b610440600480360381019061043b9190615989565b6137f0565b005b61045c60048036038101906104579190615a14565b613e2a565b60405161046e96959493929190615bff565b60405180910390f35b610491600480360381019061048c9190615900565b614204565b005b6104ad60048036038101906104a8919061572c565b61478b565b6040516104ba9190615bae565b60405180910390f35b6104dd60048036038101906104d8919061572c565b61481d565b6040516104ea9190615bae565b60405180910390f35b61050d60048036038101906105089190615900565b6148af565b60405161051a9190615bc9565b60405180910390f35b61053d60048036038101906105389190615759565b6148dc565b005b61055960048036038101906105549190615900565b61496e565b005b610563614f2a565b6040516105709190615cfc565b60405180910390f35b610593600480360381019061058e919061572c565b614f34565b005b6105af60048036038101906105aa919061572c565b614fb8565b005b6105b9615063565b6040516105c69190615cfc565b60405180910390f35b6105d833611bdc565b6105e157600080fd5b600060655490506105f06153d7565b606654816020018181525050818160000181815250508981608001516020018190525088816080015160400181905250878160800151606001819052508681608001516080018190525042816080015160a001818152505033816040019073ffffffffffffffffffffffffffffffffffffffff16908173ffffffffffffffffffffffffffffffffffffffff16815250503381608001516000019073ffffffffffffffffffffffffffffffffffffffff16908173ffffffffffffffffffffffffffffffffffffffff16815250506106c581615069565b6000816060019060088111156106de576106dd6160e9565b5b908160088111156106f2576106f16160e9565b5b815250506107038187878787615171565b8060676000848152602001908152602001600020600082015181600001556020820151816001015560408201518160020160006101000a81548173ffffffffffffffffffffffffffffffffffffffff021916908373ffffffffffffffffffffffffffffffffffffffff16021790555060608201518160020160146101000a81548160ff0219169083600881111561079d5761079c6160e9565b5b021790555060808201518160030160008201518160000160006101000a81548173ffffffffffffffffffffffffffffffffffffffff021916908373ffffffffffffffffffffffffffffffffffffffff160217905550602082015181600101908051906020019061080e929190615480565b50604082015181600201908051906020019061082b929190615480565b506060820151816003019080519060200190610848929190615480565b506080820151816004019080519060200190610865929190615480565b5060a08201518160050155505060a08201518160090160008201518160000160006101000a81548173ffffffffffffffffffffffffffffffffffffffff021916908373ffffffffffffffffffffffffffffffffffffffff16021790555060208201518160010190805190602001906108de929190615480565b5060408201518160020190805190602001906108fb929190615480565b50505060c082015181600c016000820151816000019080519060200190610923929190615480565b5060208201518160010155604082015181600201556060820151816003019080519060200190610954929190615480565b50505060e08201518160100160008201518160000160006101000a81548173ffffffffffffffffffffffffffffffffffffffff021916908373ffffffffffffffffffffffffffffffffffffffff16021790555060208201518160010190805190602001906109c3929190615480565b5060408201518160020190805190602001906109e0929190615480565b5050506101008201518160130160006101000a81548173ffffffffffffffffffffffffffffffffffffffff021916908373ffffffffffffffffffffffffffffffffffffffff160217905550610120820151816014019080519060200190610a48929190615480565b5090505060686000838152602001908152602001600020600001819080600181540180825580915050600190039060005260206000209060150201600090919091909150600082015181600001556020820151816001015560408201518160020160006101000a81548173ffffffffffffffffffffffffffffffffffffffff021916908373ffffffffffffffffffffffffffffffffffffffff16021790555060608201518160020160146101000a81548160ff02191690836008811115610b1257610b116160e9565b5b021790555060808201518160030160008201518160000160006101000a81548173ffffffffffffffffffffffffffffffffffffffff021916908373ffffffffffffffffffffffffffffffffffffffff1602179055506020820151816001019080519060200190610b83929190615480565b506040820151816002019080519060200190610ba0929190615480565b506060820151816003019080519060200190610bbd929190615480565b506080820151816004019080519060200190610bda929190615480565b5060a08201518160050155505060a08201518160090160008201518160000160006101000a81548173ffffffffffffffffffffffffffffffffffffffff021916908373ffffffffffffffffffffffffffffffffffffffff1602179055506020820151816001019080519060200190610c53929190615480565b506040820151816002019080519060200190610c70929190615480565b50505060c082015181600c016000820151816000019080519060200190610c98929190615480565b5060208201518160010155604082015181600201556060820151816003019080519060200190610cc9929190615480565b50505060e08201518160100160008201518160000160006101000a81548173ffffffffffffffffffffffffffffffffffffffff021916908373ffffffffffffffffffffffffffffffffffffffff1602179055506020820151816001019080519060200190610d38929190615480565b506040820151816002019080519060200190610d55929190615480565b5050506101008201518160130160006101000a81548173ffffffffffffffffffffffffffffffffffffffff021916908373ffffffffffffffffffffffffffffffffffffffff160217905550610120820151816014019080519060200190610dbd929190615480565b50505060666000815480929190610dd390616071565b91905055506001606554610de79190615eb6565b6065819055507fd29d8a68ca7c8c74be5579719d445aabfe230ed6e6a83aff475a663500eb760982604051610e1c9190615cfc565b60405180910390a150505050505050505050565b60008073ffffffffffffffffffffffffffffffffffffffff168273ffffffffffffffffffffffffffffffffffffffff161415610e6b57600080fd5b606960008373ffffffffffffffffffffffffffffffffffffffff1673ffffffffffffffffffffffffffffffffffffffff16815260200190815260200160002060000160039054906101000a900460ff169050919050565b6067600082815260200190815260200160002060030160000160009054906101000a900473ffffffffffffffffffffffffffffffffffffffff168073ffffffffffffffffffffffffffffffffffffffff163373ffffffffffffffffffffffffffffffffffffffff1614610f3457600080fd5b610f3d33611bdc565b610f4657600080fd5b60026067600084815260200190815260200160002060020160146101000a81548160ff02191690836008811115610f8057610f7f6160e9565b5b02179055506068600083815260200190815260200160002060000160676000848152602001908152602001600020908060018154018082558091505060019003906000526020600020906015020160009091909190915060008201548160000155600182015481600101556002820160009054906101000a900473ffffffffffffffffffffffffffffffffffffffff168160020160006101000a81548173ffffffffffffffffffffffffffffffffffffffff021916908373ffffffffffffffffffffffffffffffffffffffff1602179055506002820160149054906101000a900460ff168160020160146101000a81548160ff0219169083600881111561108a576110896160e9565b5b021790555060038201816003016000820160009054906101000a900473ffffffffffffffffffffffffffffffffffffffff168160000160006101000a81548173ffffffffffffffffffffffffffffffffffffffff021916908373ffffffffffffffffffffffffffffffffffffffff16021790555060018201816001019080546111129061600e565b61111d929190615506565b5060028201816002019080546111329061600e565b61113d929190615506565b5060038201816003019080546111529061600e565b61115d929190615506565b5060048201816004019080546111729061600e565b61117d929190615506565b5060058201548160050155505060098201816009016000820160009054906101000a900473ffffffffffffffffffffffffffffffffffffffff168160000160006101000a81548173ffffffffffffffffffffffffffffffffffffffff021916908373ffffffffffffffffffffffffffffffffffffffff160217905550600182018160010190805461120d9061600e565b611218929190615506565b50600282018160020190805461122d9061600e565b611238929190615506565b505050600c820181600c0160008201816000019080546112579061600e565b611262929190615506565b506001820154816001015560028201548160020155600382018160030190805461128b9061600e565b611296929190615506565b50505060108201816010016000820160009054906101000a900473ffffffffffffffffffffffffffffffffffffffff168160000160006101000a81548173ffffffffffffffffffffffffffffffffffffffff021916908373ffffffffffffffffffffffffffffffffffffffff160217905550600182018160010190805461131c9061600e565b611327929190615506565b50600282018160020190805461133c9061600e565b611347929190615506565b5050506013820160009054906101000a900473ffffffffffffffffffffffffffffffffffffffff168160130160006101000a81548173ffffffffffffffffffffffffffffffffffffffff021916908373ffffffffffffffffffffffffffffffffffffffff16021790555060148201816014019080546113c59061600e565b6113d0929190615506565b5050507f25727bef8a186dd95a062151451f2d651551b53124c18208d7653b1217ae31ba826040516114029190615cfc565b60405180910390a15050565b8260026008811115611423576114226160e9565b5b6067600083815260200190815260200160002060020160149054906101000a900460ff166008811115611459576114586160e9565b5b1461146357600080fd5b6067600085815260200190815260200160002060090160000160009054906101000a900473ffffffffffffffffffffffffffffffffffffffff168073ffffffffffffffffffffffffffffffffffffffff163373ffffffffffffffffffffffffffffffffffffffff16146114d557600080fd5b6114de3361478b565b6114e757600080fd5b336067600087815260200190815260200160002060020160006101000a81548173ffffffffffffffffffffffffffffffffffffffff021916908373ffffffffffffffffffffffffffffffffffffffff16021790555083606760008781526020019081526020016000206009016001019080519060200190611569929190615480565b5082606760008781526020019081526020016000206009016002019080519060200190611597929190615480565b5060036067600087815260200190815260200160002060020160146101000a81548160ff021916908360088111156115d2576115d16160e9565b5b02179055506068600086815260200190815260200160002060000160676000878152602001908152602001600020908060018154018082558091505060019003906000526020600020906015020160009091909190915060008201548160000155600182015481600101556002820160009054906101000a900473ffffffffffffffffffffffffffffffffffffffff168160020160006101000a81548173ffffffffffffffffffffffffffffffffffffffff021916908373ffffffffffffffffffffffffffffffffffffffff1602179055506002820160149054906101000a900460ff168160020160146101000a81548160ff021916908360088111156116dc576116db6160e9565b5b021790555060038201816003016000820160009054906101000a900473ffffffffffffffffffffffffffffffffffffffff168160000160006101000a81548173ffffffffffffffffffffffffffffffffffffffff021916908373ffffffffffffffffffffffffffffffffffffffff16021790555060018201816001019080546117649061600e565b61176f929190615506565b5060028201816002019080546117849061600e565b61178f929190615506565b5060038201816003019080546117a49061600e565b6117af929190615506565b5060048201816004019080546117c49061600e565b6117cf929190615506565b5060058201548160050155505060098201816009016000820160009054906101000a900473ffffffffffffffffffffffffffffffffffffffff168160000160006101000a81548173ffffffffffffffffffffffffffffffffffffffff021916908373ffffffffffffffffffffffffffffffffffffffff160217905550600182018160010190805461185f9061600e565b61186a929190615506565b50600282018160020190805461187f9061600e565b61188a929190615506565b505050600c820181600c0160008201816000019080546118a99061600e565b6118b4929190615506565b50600182015481600101556002820154816002015560038201816003019080546118dd9061600e565b6118e8929190615506565b50505060108201816010016000820160009054906101000a900473ffffffffffffffffffffffffffffffffffffffff168160000160006101000a81548173ffffffffffffffffffffffffffffffffffffffff021916908373ffffffffffffffffffffffffffffffffffffffff160217905550600182018160010190805461196e9061600e565b611979929190615506565b50600282018160020190805461198e9061600e565b611999929190615506565b5050506013820160009054906101000a900473ffffffffffffffffffffffffffffffffffffffff168160130160006101000a81548173ffffffffffffffffffffffffffffffffffffffff021916908373ffffffffffffffffffffffffffffffffffffffff1602179055506014820181601401908054611a179061600e565b611a22929190615506565b5050507fa22971300ba7d9ca2113cf57c3238cde86a32cfba0c31a13ad86a23bde3facf285604051611a549190615cfc565b60405180910390a15050505050565b600060686000838152602001908152602001600020600001805490509050919050565b600073ffffffffffffffffffffffffffffffffffffffff168173ffffffffffffffffffffffffffffffffffffffff161415611ac057600080fd5b611ac98161481d565b15611ad357600080fd5b6001606960008373ffffffffffffffffffffffffffffffffffffffff1673ffffffffffffffffffffffffffffffffffffffff16815260200190815260200160002060000160036101000a81548160ff02191690831515021790555050565b600073ffffffffffffffffffffffffffffffffffffffff168173ffffffffffffffffffffffffffffffffffffffff161415611b6b57600080fd5b611b748161478b565b15611b7e57600080fd5b6001606960008373ffffffffffffffffffffffffffffffffffffffff1673ffffffffffffffffffffffffffffffffffffffff16815260200190815260200160002060000160016101000a81548160ff02191690831515021790555050565b60008073ffffffffffffffffffffffffffffffffffffffff168273ffffffffffffffffffffffffffffffffffffffff161415611c1757600080fd5b606960008373ffffffffffffffffffffffffffffffffffffffff1673ffffffffffffffffffffffffffffffffffffffff16815260200190815260200160002060000160009054906101000a900460ff169050919050565b6000806000806060806060806000606760008d8152602001908152602001600020600001541415611c9e57600080fd5b6000606760008d815260200190815260200160002090506040518060400160405280600781526020017f70726f6475637400000000000000000000000000000000000000000000000000815250805190602001208b805190602001201415611d1657606760008d815260200190815260200160002090505b6040518060400160405280600781526020017f686973746f727900000000000000000000000000000000000000000000000000815250805190602001208b805190602001201415611d9a57606860008d81526020019081526020016000206000018a81548110611d8957611d88616147565b5b906000526020600020906015020190505b806000015481600101548260020160009054906101000a900473ffffffffffffffffffffffffffffffffffffffff168360030160000160009054906101000a900473ffffffffffffffffffffffffffffffffffffffff1684600301600101856003016002018660030160030187600301600401838054611e199061600e565b80601f0160208091040260200160405190810160405280929190818152602001828054611e459061600e565b8015611e925780601f10611e6757610100808354040283529160200191611e92565b820191906000526020600020905b815481529060010190602001808311611e7557829003601f168201915b50505050509350828054611ea59061600e565b80601f0160208091040260200160405190810160405280929190818152602001828054611ed19061600e565b8015611f1e5780601f10611ef357610100808354040283529160200191611f1e565b820191906000526020600020905b815481529060010190602001808311611f0157829003601f168201915b50505050509250818054611f319061600e565b80601f0160208091040260200160405190810160405280929190818152602001828054611f5d9061600e565b8015611faa5780601f10611f7f57610100808354040283529160200191611faa565b820191906000526020600020905b815481529060010190602001808311611f8d57829003601f168201915b50505050509150808054611fbd9061600e565b80601f0160208091040260200160405190810160405280929190818152602001828054611fe99061600e565b80156120365780601f1061200b57610100808354040283529160200191612036565b820191906000526020600020905b81548152906001019060200180831161201957829003601f168201915b5050505050905098509850985098509850985098509850509397509397509397509397565b80600660088111156120705761206f6160e9565b5b6067600083815260200190815260200160002060020160149054906101000a900460ff1660088111156120a6576120a56160e9565b5b146120b057600080fd5b6067600083815260200190815260200160002060020160009054906101000a900473ffffffffffffffffffffffffffffffffffffffff168073ffffffffffffffffffffffffffffffffffffffff163373ffffffffffffffffffffffffffffffffffffffff161461211f57600080fd5b6067600084815260200190815260200160002060100160000160009054906101000a900473ffffffffffffffffffffffffffffffffffffffff168073ffffffffffffffffffffffffffffffffffffffff163373ffffffffffffffffffffffffffffffffffffffff161461219157600080fd5b61219a3361481d565b6121a357600080fd5b60076067600086815260200190815260200160002060020160146101000a81548160ff021916908360088111156121dd576121dc6160e9565b5b02179055506068600085815260200190815260200160002060000160676000868152602001908152602001600020908060018154018082558091505060019003906000526020600020906015020160009091909190915060008201548160000155600182015481600101556002820160009054906101000a900473ffffffffffffffffffffffffffffffffffffffff168160020160006101000a81548173ffffffffffffffffffffffffffffffffffffffff021916908373ffffffffffffffffffffffffffffffffffffffff1602179055506002820160149054906101000a900460ff168160020160146101000a81548160ff021916908360088111156122e7576122e66160e9565b5b021790555060038201816003016000820160009054906101000a900473ffffffffffffffffffffffffffffffffffffffff168160000160006101000a81548173ffffffffffffffffffffffffffffffffffffffff021916908373ffffffffffffffffffffffffffffffffffffffff160217905550600182018160010190805461236f9061600e565b61237a929190615506565b50600282018160020190805461238f9061600e565b61239a929190615506565b5060038201816003019080546123af9061600e565b6123ba929190615506565b5060048201816004019080546123cf9061600e565b6123da929190615506565b5060058201548160050155505060098201816009016000820160009054906101000a900473ffffffffffffffffffffffffffffffffffffffff168160000160006101000a81548173ffffffffffffffffffffffffffffffffffffffff021916908373ffffffffffffffffffffffffffffffffffffffff160217905550600182018160010190805461246a9061600e565b612475929190615506565b50600282018160020190805461248a9061600e565b612495929190615506565b505050600c820181600c0160008201816000019080546124b49061600e565b6124bf929190615506565b50600182015481600101556002820154816002015560038201816003019080546124e89061600e565b6124f3929190615506565b50505060108201816010016000820160009054906101000a900473ffffffffffffffffffffffffffffffffffffffff168160000160006101000a81548173ffffffffffffffffffffffffffffffffffffffff021916908373ffffffffffffffffffffffffffffffffffffffff16021790555060018201816001019080546125799061600e565b612584929190615506565b5060028201816002019080546125999061600e565b6125a4929190615506565b5050506013820160009054906101000a900473ffffffffffffffffffffffffffffffffffffffff168160130160006101000a81548173ffffffffffffffffffffffffffffffffffffffff021916908373ffffffffffffffffffffffffffffffffffffffff16021790555060148201816014019080546126229061600e565b61262d929190615506565b5050507f9a96442e96ac96ba57e48273f290bf3bb9c6b0b2c86843cc4bf2353119918fdf8460405161265f9190615cfc565b60405180910390a150505050565b60006060600080606060008060606000606760008d815260200190815260200160002060000154141561269f57600080fd5b6000606760008d815260200190815260200160002090506040518060400160405280600781526020017f70726f6475637400000000000000000000000000000000000000000000000000815250805190602001208b80519060200120141561271757606760008d815260200190815260200160002090505b6040518060400160405280600781526020017f686973746f727900000000000000000000000000000000000000000000000000815250805190602001208b80519060200120141561279b57606860008d81526020019081526020016000206000018a8154811061278a57612789616147565b5b906000526020600020906015020190505b806003016005015481600c0160000182600c016001015483600c016002015484600c016003018560020160149054906101000a900460ff168660090160000160009054906101000a900473ffffffffffffffffffffffffffffffffffffffff168760090160010186805461280e9061600e565b80601f016020809104026020016040519081016040528092919081815260200182805461283a9061600e565b80156128875780601f1061285c57610100808354040283529160200191612887565b820191906000526020600020905b81548152906001019060200180831161286a57829003601f168201915b5050505050965083805461289a9061600e565b80601f01602080910402602001604051908101604052809291908181526020018280546128c69061600e565b80156129135780601f106128e857610100808354040283529160200191612913565b820191906000526020600020905b8154815290600101906020018083116128f657829003601f168201915b505050505093508080546129269061600e565b80601f01602080910402602001604051908101604052809291908181526020018280546129529061600e565b801561299f5780601f106129745761010080835404028352916020019161299f565b820191906000526020600020905b81548152906001019060200180831161298257829003601f168201915b5050505050905098509850985098509850985098509850509397509397509397509397565b6129cc6151ae565b6129d6600061522c565b565b80600360088111156129ed576129ec6160e9565b5b6067600083815260200190815260200160002060020160149054906101000a900460ff166008811115612a2357612a226160e9565b5b14612a2d57600080fd5b612a3633610e30565b612a3f57600080fd5b336067600084815260200190815260200160002060130160006101000a81548173ffffffffffffffffffffffffffffffffffffffff021916908373ffffffffffffffffffffffffffffffffffffffff16021790555060046067600084815260200190815260200160002060020160146101000a81548160ff02191690836008811115612ace57612acd6160e9565b5b02179055506068600083815260200190815260200160002060000160676000848152602001908152602001600020908060018154018082558091505060019003906000526020600020906015020160009091909190915060008201548160000155600182015481600101556002820160009054906101000a900473ffffffffffffffffffffffffffffffffffffffff168160020160006101000a81548173ffffffffffffffffffffffffffffffffffffffff021916908373ffffffffffffffffffffffffffffffffffffffff1602179055506002820160149054906101000a900460ff168160020160146101000a81548160ff02191690836008811115612bd857612bd76160e9565b5b021790555060038201816003016000820160009054906101000a900473ffffffffffffffffffffffffffffffffffffffff168160000160006101000a81548173ffffffffffffffffffffffffffffffffffffffff021916908373ffffffffffffffffffffffffffffffffffffffff1602179055506001820181600101908054612c609061600e565b612c6b929190615506565b506002820181600201908054612c809061600e565b612c8b929190615506565b506003820181600301908054612ca09061600e565b612cab929190615506565b506004820181600401908054612cc09061600e565b612ccb929190615506565b5060058201548160050155505060098201816009016000820160009054906101000a900473ffffffffffffffffffffffffffffffffffffffff168160000160006101000a81548173ffffffffffffffffffffffffffffffffffffffff021916908373ffffffffffffffffffffffffffffffffffffffff1602179055506001820181600101908054612d5b9061600e565b612d66929190615506565b506002820181600201908054612d7b9061600e565b612d86929190615506565b505050600c820181600c016000820181600001908054612da59061600e565b612db0929190615506565b5060018201548160010155600282015481600201556003820181600301908054612dd99061600e565b612de4929190615506565b50505060108201816010016000820160009054906101000a900473ffffffffffffffffffffffffffffffffffffffff168160000160006101000a81548173ffffffffffffffffffffffffffffffffffffffff021916908373ffffffffffffffffffffffffffffffffffffffff1602179055506001820181600101908054612e6a9061600e565b612e75929190615506565b506002820181600201908054612e8a9061600e565b612e95929190615506565b5050506013820160009054906101000a900473ffffffffffffffffffffffffffffffffffffffff168160130160006101000a81548173ffffffffffffffffffffffffffffffffffffffff021916908373ffffffffffffffffffffffffffffffffffffffff1602179055506014820181601401908054612f139061600e565b612f1e929190615506565b5050507ffd054e59d299873fab61a3c67d86d3a139b75dcd5cd82894d8983fc5e2669c8282604051612f509190615cfc565b60405180910390a15050565b8060076008811115612f7157612f706160e9565b5b6067600083815260200190815260200160002060020160149054906101000a900460ff166008811115612fa757612fa66160e9565b5b14612fb157600080fd5b6067600083815260200190815260200160002060130160009054906101000a900473ffffffffffffffffffffffffffffffffffffffff168073ffffffffffffffffffffffffffffffffffffffff163373ffffffffffffffffffffffffffffffffffffffff161461302057600080fd5b61302933610e30565b61303257600080fd5b336067600085815260200190815260200160002060020160006101000a81548173ffffffffffffffffffffffffffffffffffffffff021916908373ffffffffffffffffffffffffffffffffffffffff16021790555060086067600085815260200190815260200160002060020160146101000a81548160ff021916908360088111156130c1576130c06160e9565b5b02179055506068600084815260200190815260200160002060000160676000858152602001908152602001600020908060018154018082558091505060019003906000526020600020906015020160009091909190915060008201548160000155600182015481600101556002820160009054906101000a900473ffffffffffffffffffffffffffffffffffffffff168160020160006101000a81548173ffffffffffffffffffffffffffffffffffffffff021916908373ffffffffffffffffffffffffffffffffffffffff1602179055506002820160149054906101000a900460ff168160020160146101000a81548160ff021916908360088111156131cb576131ca6160e9565b5b021790555060038201816003016000820160009054906101000a900473ffffffffffffffffffffffffffffffffffffffff168160000160006101000a81548173ffffffffffffffffffffffffffffffffffffffff021916908373ffffffffffffffffffffffffffffffffffffffff16021790555060018201816001019080546132539061600e565b61325e929190615506565b5060028201816002019080546132739061600e565b61327e929190615506565b5060038201816003019080546132939061600e565b61329e929190615506565b5060048201816004019080546132b39061600e565b6132be929190615506565b5060058201548160050155505060098201816009016000820160009054906101000a900473ffffffffffffffffffffffffffffffffffffffff168160000160006101000a81548173ffffffffffffffffffffffffffffffffffffffff021916908373ffffffffffffffffffffffffffffffffffffffff160217905550600182018160010190805461334e9061600e565b613359929190615506565b50600282018160020190805461336e9061600e565b613379929190615506565b505050600c820181600c0160008201816000019080546133989061600e565b6133a3929190615506565b50600182015481600101556002820154816002015560038201816003019080546133cc9061600e565b6133d7929190615506565b50505060108201816010016000820160009054906101000a900473ffffffffffffffffffffffffffffffffffffffff168160000160006101000a81548173ffffffffffffffffffffffffffffffffffffffff021916908373ffffffffffffffffffffffffffffffffffffffff160217905550600182018160010190805461345d9061600e565b613468929190615506565b50600282018160020190805461347d9061600e565b613488929190615506565b5050506013820160009054906101000a900473ffffffffffffffffffffffffffffffffffffffff168160130160006101000a81548173ffffffffffffffffffffffffffffffffffffffff021916908373ffffffffffffffffffffffffffffffffffffffff16021790555060148201816014019080546135069061600e565b613511929190615506565b5050507f8a746d5b91a9a334d1abbeee7d031aac6d5c59ea6e982ac06aef4346cce5749e836040516135439190615cfc565b60405180910390a1505050565b6000606860008481526020019081526020016000206000016001606860008681526020019081526020016000206000018054905061358e9190615f0c565b8154811061359f5761359e616147565b5b90600052602060002090601502019050818160140190805190602001906135c7929190615480565b50505050565b60008060019054906101000a900460ff161590508080156135fe5750600160008054906101000a900460ff1660ff16105b8061362b575061360d306152f2565b15801561362a5750600160008054906101000a900460ff1660ff16145b5b61366a576040517f08c379a000000000000000000000000000000000000000000000000000000000815260040161366190615c9c565b60405180910390fd5b60016000806101000a81548160ff021916908360ff16021790555080156136a7576001600060016101000a81548160ff0219169083151502179055505b6136af615315565b6001606681905550600160658190555080156137185760008060016101000a81548160ff0219169083151502179055507f7f26b83ff96e1f2b6a682f133852f6798a09c465da95921460cefb3847402498600160405161370f9190615be4565b60405180910390a15b50565b600073ffffffffffffffffffffffffffffffffffffffff168173ffffffffffffffffffffffffffffffffffffffff16141561375557600080fd5b61375e81611bdc565b1561376857600080fd5b6001606960008373ffffffffffffffffffffffffffffffffffffffff1673ffffffffffffffffffffffffffffffffffffffff16815260200190815260200160002060000160006101000a81548160ff02191690831515021790555050565b6000603360009054906101000a900473ffffffffffffffffffffffffffffffffffffffff16905090565b8260056008811115613805576138046160e9565b5b6067600083815260200190815260200160002060020160149054906101000a900460ff16600881111561383b5761383a6160e9565b5b1461384557600080fd5b61384e3361481d565b61385757600080fd5b336067600086815260200190815260200160002060020160006101000a81548173ffffffffffffffffffffffffffffffffffffffff021916908373ffffffffffffffffffffffffffffffffffffffff160217905550336067600086815260200190815260200160002060100160000160006101000a81548173ffffffffffffffffffffffffffffffffffffffff021916908373ffffffffffffffffffffffffffffffffffffffff16021790555082606760008681526020019081526020016000206010016001019080519060200190613931929190615480565b508160676000868152602001908152602001600020601001600201908051906020019061395f929190615480565b5060066067600086815260200190815260200160002060020160146101000a81548160ff0219169083600881111561399a576139996160e9565b5b02179055506068600085815260200190815260200160002060000160676000868152602001908152602001600020908060018154018082558091505060019003906000526020600020906015020160009091909190915060008201548160000155600182015481600101556002820160009054906101000a900473ffffffffffffffffffffffffffffffffffffffff168160020160006101000a81548173ffffffffffffffffffffffffffffffffffffffff021916908373ffffffffffffffffffffffffffffffffffffffff1602179055506002820160149054906101000a900460ff168160020160146101000a81548160ff02191690836008811115613aa457613aa36160e9565b5b021790555060038201816003016000820160009054906101000a900473ffffffffffffffffffffffffffffffffffffffff168160000160006101000a81548173ffffffffffffffffffffffffffffffffffffffff021916908373ffffffffffffffffffffffffffffffffffffffff1602179055506001820181600101908054613b2c9061600e565b613b37929190615506565b506002820181600201908054613b4c9061600e565b613b57929190615506565b506003820181600301908054613b6c9061600e565b613b77929190615506565b506004820181600401908054613b8c9061600e565b613b97929190615506565b5060058201548160050155505060098201816009016000820160009054906101000a900473ffffffffffffffffffffffffffffffffffffffff168160000160006101000a81548173ffffffffffffffffffffffffffffffffffffffff021916908373ffffffffffffffffffffffffffffffffffffffff1602179055506001820181600101908054613c279061600e565b613c32929190615506565b506002820181600201908054613c479061600e565b613c52929190615506565b505050600c820181600c016000820181600001908054613c719061600e565b613c7c929190615506565b5060018201548160010155600282015481600201556003820181600301908054613ca59061600e565b613cb0929190615506565b50505060108201816010016000820160009054906101000a900473ffffffffffffffffffffffffffffffffffffffff168160000160006101000a81548173ffffffffffffffffffffffffffffffffffffffff021916908373ffffffffffffffffffffffffffffffffffffffff1602179055506001820181600101908054613d369061600e565b613d41929190615506565b506002820181600201908054613d569061600e565b613d61929190615506565b5050506013820160009054906101000a900473ffffffffffffffffffffffffffffffffffffffff168160130160006101000a81548173ffffffffffffffffffffffffffffffffffffffff021916908373ffffffffffffffffffffffffffffffffffffffff1602179055506014820181601401908054613ddf9061600e565b613dea929190615506565b5050507fb6589947d486bf61c31a4e6d2e81d4d2c93e7832fdda27f2492009b4755c29ed84604051613e1c9190615cfc565b60405180910390a150505050565b60606000606080600060606000606760008b8152602001908152602001600020600001541415613e5957600080fd5b6000606760008b815260200190815260200160002090506040518060400160405280600781526020017f70726f64756374000000000000000000000000000000000000000000000000008152508051906020012089805190602001201415613ed157606760008b815260200190815260200160002090505b6040518060400160405280600781526020017f686973746f7279000000000000000000000000000000000000000000000000008152508051906020012089805190602001201415613f5557606860008b81526020019081526020016000206000018881548110613f4457613f43616147565b5b906000526020600020906015020190505b806009016002018160100160000160009054906101000a900473ffffffffffffffffffffffffffffffffffffffff1682601001600101836010016002018460130160009054906101000a900473ffffffffffffffffffffffffffffffffffffffff1685601401858054613fc79061600e565b80601f0160208091040260200160405190810160405280929190818152602001828054613ff39061600e565b80156140405780601f1061401557610100808354040283529160200191614040565b820191906000526020600020905b81548152906001019060200180831161402357829003601f168201915b505050505095508380546140539061600e565b80601f016020809104026020016040519081016040528092919081815260200182805461407f9061600e565b80156140cc5780601f106140a1576101008083540402835291602001916140cc565b820191906000526020600020905b8154815290600101906020018083116140af57829003601f168201915b505050505093508280546140df9061600e565b80601f016020809104026020016040519081016040528092919081815260200182805461410b9061600e565b80156141585780601f1061412d57610100808354040283529160200191614158565b820191906000526020600020905b81548152906001019060200180831161413b57829003601f168201915b5050505050925080805461416b9061600e565b80601f01602080910402602001604051908101604052809291908181526020018280546141979061600e565b80156141e45780601f106141b9576101008083540402835291602001916141e4565b820191906000526020600020905b8154815290600101906020018083116141c757829003601f168201915b505050505090509650965096509650965096505093975093979195509350565b8060006008811115614219576142186160e9565b5b6067600083815260200190815260200160002060020160149054906101000a900460ff16600881111561424f5761424e6160e9565b5b1461425957600080fd5b6142623361478b565b61426b57600080fd5b336067600084815260200190815260200160002060090160000160006101000a81548173ffffffffffffffffffffffffffffffffffffffff021916908373ffffffffffffffffffffffffffffffffffffffff16021790555060016067600084815260200190815260200160002060020160146101000a81548160ff021916908360088111156142fd576142fc6160e9565b5b02179055506068600083815260200190815260200160002060000160676000848152602001908152602001600020908060018154018082558091505060019003906000526020600020906015020160009091909190915060008201548160000155600182015481600101556002820160009054906101000a900473ffffffffffffffffffffffffffffffffffffffff168160020160006101000a81548173ffffffffffffffffffffffffffffffffffffffff021916908373ffffffffffffffffffffffffffffffffffffffff1602179055506002820160149054906101000a900460ff168160020160146101000a81548160ff02191690836008811115614407576144066160e9565b5b021790555060038201816003016000820160009054906101000a900473ffffffffffffffffffffffffffffffffffffffff168160000160006101000a81548173ffffffffffffffffffffffffffffffffffffffff021916908373ffffffffffffffffffffffffffffffffffffffff160217905550600182018160010190805461448f9061600e565b61449a929190615506565b5060028201816002019080546144af9061600e565b6144ba929190615506565b5060038201816003019080546144cf9061600e565b6144da929190615506565b5060048201816004019080546144ef9061600e565b6144fa929190615506565b5060058201548160050155505060098201816009016000820160009054906101000a900473ffffffffffffffffffffffffffffffffffffffff168160000160006101000a81548173ffffffffffffffffffffffffffffffffffffffff021916908373ffffffffffffffffffffffffffffffffffffffff160217905550600182018160010190805461458a9061600e565b614595929190615506565b5060028201816002019080546145aa9061600e565b6145b5929190615506565b505050600c820181600c0160008201816000019080546145d49061600e565b6145df929190615506565b50600182015481600101556002820154816002015560038201816003019080546146089061600e565b614613929190615506565b50505060108201816010016000820160009054906101000a900473ffffffffffffffffffffffffffffffffffffffff168160000160006101000a81548173ffffffffffffffffffffffffffffffffffffffff021916908373ffffffffffffffffffffffffffffffffffffffff16021790555060018201816001019080546146999061600e565b6146a4929190615506565b5060028201816002019080546146b99061600e565b6146c4929190615506565b5050506013820160009054906101000a900473ffffffffffffffffffffffffffffffffffffffff168160130160006101000a81548173ffffffffffffffffffffffffffffffffffffffff021916908373ffffffffffffffffffffffffffffffffffffffff16021790555060148201816014019080546147429061600e565b61474d929190615506565b5050507f112c8adc962c1de46b0ae9499cd428dc90feb4c13a4df0c69d7e5e27ab34ae878260405161477f9190615cfc565b60405180910390a15050565b60008073ffffffffffffffffffffffffffffffffffffffff168273ffffffffffffffffffffffffffffffffffffffff1614156147c657600080fd5b606960008373ffffffffffffffffffffffffffffffffffffffff1673ffffffffffffffffffffffffffffffffffffffff16815260200190815260200160002060000160019054906101000a900460ff169050919050565b60008073ffffffffffffffffffffffffffffffffffffffff168273ffffffffffffffffffffffffffffffffffffffff16141561485857600080fd5b606960008373ffffffffffffffffffffffffffffffffffffffff1673ffffffffffffffffffffffffffffffffffffffff16815260200190815260200160002060000160029054906101000a900460ff169050919050565b60006067600083815260200190815260200160002060020160149054906101000a900460ff169050919050565b806068600060016065546148f09190615f0c565b815260200190815260200160002060000160016068600060016065546149169190615f0c565b8152602001908152602001600020600001805490506149359190615f0c565b8154811061494657614945616147565b5b9060005260206000209060150201601401908051906020019061496a929190615480565b5050565b6067600082815260200190815260200160002060020160009054906101000a900473ffffffffffffffffffffffffffffffffffffffff168073ffffffffffffffffffffffffffffffffffffffff163373ffffffffffffffffffffffffffffffffffffffff16146149dd57600080fd5b6067600083815260200190815260200160002060090160000160009054906101000a900473ffffffffffffffffffffffffffffffffffffffff168073ffffffffffffffffffffffffffffffffffffffff163373ffffffffffffffffffffffffffffffffffffffff1614614a4f57600080fd5b614a583361478b565b614a6157600080fd5b60056067600085815260200190815260200160002060020160146101000a81548160ff02191690836008811115614a9b57614a9a6160e9565b5b02179055506068600084815260200190815260200160002060000160676000858152602001908152602001600020908060018154018082558091505060019003906000526020600020906015020160009091909190915060008201548160000155600182015481600101556002820160009054906101000a900473ffffffffffffffffffffffffffffffffffffffff168160020160006101000a81548173ffffffffffffffffffffffffffffffffffffffff021916908373ffffffffffffffffffffffffffffffffffffffff1602179055506002820160149054906101000a900460ff168160020160146101000a81548160ff02191690836008811115614ba557614ba46160e9565b5b021790555060038201816003016000820160009054906101000a900473ffffffffffffffffffffffffffffffffffffffff168160000160006101000a81548173ffffffffffffffffffffffffffffffffffffffff021916908373ffffffffffffffffffffffffffffffffffffffff1602179055506001820181600101908054614c2d9061600e565b614c38929190615506565b506002820181600201908054614c4d9061600e565b614c58929190615506565b506003820181600301908054614c6d9061600e565b614c78929190615506565b506004820181600401908054614c8d9061600e565b614c98929190615506565b5060058201548160050155505060098201816009016000820160009054906101000a900473ffffffffffffffffffffffffffffffffffffffff168160000160006101000a81548173ffffffffffffffffffffffffffffffffffffffff021916908373ffffffffffffffffffffffffffffffffffffffff1602179055506001820181600101908054614d289061600e565b614d33929190615506565b506002820181600201908054614d489061600e565b614d53929190615506565b505050600c820181600c016000820181600001908054614d729061600e565b614d7d929190615506565b5060018201548160010155600282015481600201556003820181600301908054614da69061600e565b614db1929190615506565b50505060108201816010016000820160009054906101000a900473ffffffffffffffffffffffffffffffffffffffff168160000160006101000a81548173ffffffffffffffffffffffffffffffffffffffff021916908373ffffffffffffffffffffffffffffffffffffffff1602179055506001820181600101908054614e379061600e565b614e42929190615506565b506002820181600201908054614e579061600e565b614e62929190615506565b5050506013820160009054906101000a900473ffffffffffffffffffffffffffffffffffffffff168160130160006101000a81548173ffffffffffffffffffffffffffffffffffffffff021916908373ffffffffffffffffffffffffffffffffffffffff1602179055506014820181601401908054614ee09061600e565b614eeb929190615506565b5050507ff2452d569e5bc407d222a6bcad7d4bb8bac5fae64ce52fa183bd77e34e0cc14783604051614f1d9190615cfc565b60405180910390a1505050565b6000606554905090565b614f3c6151ae565b600073ffffffffffffffffffffffffffffffffffffffff168173ffffffffffffffffffffffffffffffffffffffff161415614fac576040517f08c379a0000000000000000000000000000000000000000000000000000000008152600401614fa390615c7c565b60405180910390fd5b614fb58161522c565b50565b600073ffffffffffffffffffffffffffffffffffffffff168173ffffffffffffffffffffffffffffffffffffffff161415614ff257600080fd5b614ffb8161481d565b1561500557600080fd5b6001606960008373ffffffffffffffffffffffffffffffffffffffff1673ffffffffffffffffffffffffffffffffffffffff16815260200190815260200160002060000160026101000a81548160ff02191690831515021790555050565b60655481565b6000606080606060006060806000878960a001516000019073ffffffffffffffffffffffffffffffffffffffff16908173ffffffffffffffffffffffffffffffffffffffff1681525050858960a0015160200181905250848960a0015160400181905250838960e001516000019073ffffffffffffffffffffffffffffffffffffffff16908173ffffffffffffffffffffffffffffffffffffffff1681525050828960e0015160200181905250818960e00151604001819052508089610100019073ffffffffffffffffffffffffffffffffffffffff16908173ffffffffffffffffffffffffffffffffffffffff168152505086896101200181905250505050505050505050565b838560c0015160000181905250828560c001516020018181525050818560c001516040018181525050808560c00151606001819052505050505050565b6151b661536e565b73ffffffffffffffffffffffffffffffffffffffff166151d46137c6565b73ffffffffffffffffffffffffffffffffffffffff161461522a576040517f08c379a000000000000000000000000000000000000000000000000000000000815260040161522190615cbc565b60405180910390fd5b565b6000603360009054906101000a900473ffffffffffffffffffffffffffffffffffffffff16905081603360006101000a81548173ffffffffffffffffffffffffffffffffffffffff021916908373ffffffffffffffffffffffffffffffffffffffff1602179055508173ffffffffffffffffffffffffffffffffffffffff168173ffffffffffffffffffffffffffffffffffffffff167f8be0079c531659141344cd1fd0a4f28419497f9722a3daafe3b4186f6b6457e060405160405180910390a35050565b6000808273ffffffffffffffffffffffffffffffffffffffff163b119050919050565b600060019054906101000a900460ff16615364576040517f08c379a000000000000000000000000000000000000000000000000000000000815260040161535b90615cdc565b60405180910390fd5b61536c615376565b565b600033905090565b600060019054906101000a900460ff166153c5576040517f08c379a00000000000000000000000000000000000000000000000000000000081526004016153bc90615cdc565b60405180910390fd5b6153d56153d061536e565b61522c565b565b6040518061014001604052806000815260200160008152602001600073ffffffffffffffffffffffffffffffffffffffff16815260200160006008811115615422576154216160e9565b5b815260200161542f615593565b815260200161543c6155df565b8152602001615449615616565b815260200161545661563e565b8152602001600073ffffffffffffffffffffffffffffffffffffffff168152602001606081525090565b82805461548c9061600e565b90600052602060002090601f0160209004810192826154ae57600085556154f5565b82601f106154c757805160ff19168380011785556154f5565b828001600101855582156154f5579182015b828111156154f45782518255916020019190600101906154d9565b5b5090506155029190615675565b5090565b8280546155129061600e565b90600052602060002090601f0160209004810192826155345760008555615582565b82601f106155455780548555615582565b8280016001018555821561558257600052602060002091601f016020900482015b82811115615581578254825591600101919060010190615566565b5b50905061558f9190615675565b5090565b6040518060c00160405280600073ffffffffffffffffffffffffffffffffffffffff16815260200160608152602001606081526020016060815260200160608152602001600081525090565b6040518060600160405280600073ffffffffffffffffffffffffffffffffffffffff16815260200160608152602001606081525090565b6040518060800160405280606081526020016000815260200160008152602001606081525090565b6040518060600160405280600073ffffffffffffffffffffffffffffffffffffffff16815260200160608152602001606081525090565b5b8082111561568e576000816000905550600101615676565b5090565b60006156a56156a084615e69565b615e44565b9050828152602081018484840111156156c1576156c06161aa565b5b6156cc848285615fcc565b509392505050565b6000813590506156e3816162f4565b92915050565b600082601f8301126156fe576156fd6161a5565b5b813561570e848260208601615692565b91505092915050565b6000813590506157268161630b565b92915050565b600060208284031215615742576157416161b4565b5b6000615750848285016156d4565b91505092915050565b60006020828403121561576f5761576e6161b4565b5b600082013567ffffffffffffffff81111561578d5761578c6161af565b5b615799848285016156e9565b91505092915050565b600080600080600080600080610100898b0312156157c3576157c26161b4565b5b600089013567ffffffffffffffff8111156157e1576157e06161af565b5b6157ed8b828c016156e9565b985050602089013567ffffffffffffffff81111561580e5761580d6161af565b5b61581a8b828c016156e9565b975050604089013567ffffffffffffffff81111561583b5761583a6161af565b5b6158478b828c016156e9565b965050606089013567ffffffffffffffff811115615868576158676161af565b5b6158748b828c016156e9565b955050608089013567ffffffffffffffff811115615895576158946161af565b5b6158a18b828c016156e9565b94505060a06158b28b828c01615717565b93505060c06158c38b828c01615717565b92505060e089013567ffffffffffffffff8111156158e4576158e36161af565b5b6158f08b828c016156e9565b9150509295985092959890939650565b600060208284031215615916576159156161b4565b5b600061592484828501615717565b91505092915050565b60008060408385031215615944576159436161b4565b5b600061595285828601615717565b925050602083013567ffffffffffffffff811115615973576159726161af565b5b61597f858286016156e9565b9150509250929050565b6000806000606084860312156159a2576159a16161b4565b5b60006159b086828701615717565b935050602084013567ffffffffffffffff8111156159d1576159d06161af565b5b6159dd868287016156e9565b925050604084013567ffffffffffffffff8111156159fe576159fd6161af565b5b615a0a868287016156e9565b9150509250925092565b600080600060608486031215615a2d57615a2c6161b4565b5b6000615a3b86828701615717565b935050602084013567ffffffffffffffff811115615a5c57615a5b6161af565b5b615a68868287016156e9565b9250506040615a7986828701615717565b9150509250925092565b615a8c81615f40565b82525050565b615a9b81615f52565b82525050565b615aaa81615fa8565b82525050565b615ab981615fba565b82525050565b6000615aca82615e9a565b615ad48185615ea5565b9350615ae4818560208601615fdb565b615aed816161b9565b840191505092915050565b6000615b05602683615ea5565b9150615b10826161ca565b604082019050919050565b6000615b28602e83615ea5565b9150615b3382616219565b604082019050919050565b6000615b4b602083615ea5565b9150615b5682616268565b602082019050919050565b6000615b6e602b83615ea5565b9150615b7982616291565b604082019050919050565b615b8d81615f91565b82525050565b6000602082019050615ba86000830184615a83565b92915050565b6000602082019050615bc36000830184615a92565b92915050565b6000602082019050615bde6000830184615aa1565b92915050565b6000602082019050615bf96000830184615ab0565b92915050565b600060c0820190508181036000830152615c198189615abf565b9050615c286020830188615a83565b8181036040830152615c3a8187615abf565b90508181036060830152615c4e8186615abf565b9050615c5d6080830185615a83565b81810360a0830152615c6f8184615abf565b9050979650505050505050565b60006020820190508181036000830152615c9581615af8565b9050919050565b60006020820190508181036000830152615cb581615b1b565b9050919050565b60006020820190508181036000830152615cd581615b3e565b9050919050565b60006020820190508181036000830152615cf581615b61565b9050919050565b6000602082019050615d116000830184615b84565b92915050565b600061010082019050615d2d600083018b615b84565b8181036020830152615d3f818a615abf565b9050615d4e6040830189615b84565b615d5b6060830188615b84565b8181036080830152615d6d8187615abf565b9050615d7c60a0830186615aa1565b615d8960c0830185615a83565b81810360e0830152615d9b8184615abf565b90509998505050505050505050565b600061010082019050615dc0600083018b615b84565b615dcd602083018a615b84565b615dda6040830189615a83565b615de76060830188615a83565b8181036080830152615df98187615abf565b905081810360a0830152615e0d8186615abf565b905081810360c0830152615e218185615abf565b905081810360e0830152615e358184615abf565b90509998505050505050505050565b6000615e4e615e5f565b9050615e5a8282616040565b919050565b6000604051905090565b600067ffffffffffffffff821115615e8457615e83616176565b5b615e8d826161b9565b9050602081019050919050565b600081519050919050565b600082825260208201905092915050565b6000615ec182615f91565b9150615ecc83615f91565b9250827fffffffffffffffffffffffffffffffffffffffffffffffffffffffffffffffff03821115615f0157615f006160ba565b5b828201905092915050565b6000615f1782615f91565b9150615f2283615f91565b925082821015615f3557615f346160ba565b5b828203905092915050565b6000615f4b82615f71565b9050919050565b60008115159050919050565b6000819050615f6c826162e0565b919050565b600073ffffffffffffffffffffffffffffffffffffffff82169050919050565b6000819050919050565b600060ff82169050919050565b6000615fb382615f5e565b9050919050565b6000615fc582615f9b565b9050919050565b82818337600083830152505050565b60005b83811015615ff9578082015181840152602081019050615fde565b83811115616008576000848401525b50505050565b6000600282049050600182168061602657607f821691505b6020821081141561603a57616039616118565b5b50919050565b616049826161b9565b810181811067ffffffffffffffff8211171561606857616067616176565b5b80604052505050565b600061607c82615f91565b91507fffffffffffffffffffffffffffffffffffffffffffffffffffffffffffffffff8214156160af576160ae6160ba565b5b600182019050919050565b7f4e487b7100000000000000000000000000000000000000000000000000000000600052601160045260246000fd5b7f4e487b7100000000000000000000000000000000000000000000000000000000600052602160045260246000fd5b7f4e487b7100000000000000000000000000000000000000000000000000000000600052602260045260246000fd5b7f4e487b7100000000000000000000000000000000000000000000000000000000600052603260045260246000fd5b7f4e487b7100000000000000000000000000000000000000000000000000000000600052604160045260246000fd5b600080fd5b600080fd5b600080fd5b600080fd5b6000601f19601f8301169050919050565b7f4f776e61626c653a206e6577206f776e657220697320746865207a65726f206160008201527f6464726573730000000000000000000000000000000000000000000000000000602082015250565b7f496e697469616c697a61626c653a20636f6e747261637420697320616c72656160008201527f647920696e697469616c697a6564000000000000000000000000000000000000602082015250565b7f4f776e61626c653a2063616c6c6572206973206e6f7420746865206f776e6572600082015250565b7f496e697469616c697a61626c653a20636f6e7472616374206973206e6f74206960008201527f6e697469616c697a696e67000000000000000000000000000000000000000000602082015250565b600981106162f1576162f06160e9565b5b50565b6162fd81615f40565b811461630857600080fd5b50565b61631481615f91565b811461631f57600080fd5b5056fea26469706673582212203085b596d49c0a4e72f7fcd2a35fa78a96e9b931e77f7a8ba998f7329123011464736f6c63430008070033","opcodes":"PUSH1 0x80 PUSH1 0x40 MSTORE CALLVALUE DUP1 ISZERO PUSH2 0x10 JUMPI PUSH1 0x0 DUP1 REVERT JUMPDEST POP PUSH2 0x6358 DUP1 PUSH3 0x21 PUSH1 0x0 CODECOPY PUSH1 0x0 RETURN INVALID PUSH1 0x80 PUSH1 0x40 MSTORE CALLVALUE DUP1 ISZERO PUSH2 0x10 JUMPI PUSH1 0x0 DUP1 REVERT JUMPDEST POP PUSH1 0x4 CALLDATASIZE LT PUSH2 0x1D9 JUMPI PUSH1 0x0 CALLDATALOAD PUSH1 0xE0 SHR DUP1 PUSH4 0x8129FC1C GT PUSH2 0x104 JUMPI DUP1 PUSH4 0xD44BEBCC GT PUSH2 0xA2 JUMPI DUP1 PUSH4 0xF16791B3 GT PUSH2 0x71 JUMPI DUP1 PUSH4 0xF16791B3 EQ PUSH2 0x55B JUMPI DUP1 PUSH4 0xF2FDE38B EQ PUSH2 0x579 JUMPI DUP1 PUSH4 0xF4121B67 EQ PUSH2 0x595 JUMPI DUP1 PUSH4 0xF514CE36 EQ PUSH2 0x5B1 JUMPI PUSH2 0x1D9 JUMP JUMPDEST DUP1 PUSH4 0xD44BEBCC EQ PUSH2 0x4C3 JUMPI DUP1 PUSH4 0xE2F1FE14 EQ PUSH2 0x4F3 JUMPI DUP1 PUSH4 0xE55128EA EQ PUSH2 0x523 JUMPI DUP1 PUSH4 0xEE707C1E EQ PUSH2 0x53F JUMPI PUSH2 0x1D9 JUMP JUMPDEST DUP1 PUSH4 0x8EEE90EA GT PUSH2 0xDE JUMPI DUP1 PUSH4 0x8EEE90EA EQ PUSH2 0x426 JUMPI DUP1 PUSH4 0x98C95889 EQ PUSH2 0x442 JUMPI DUP1 PUSH4 0xB843BDEE EQ PUSH2 0x477 JUMPI DUP1 PUSH4 0xCD2885E0 EQ PUSH2 0x493 JUMPI PUSH2 0x1D9 JUMP JUMPDEST DUP1 PUSH4 0x8129FC1C EQ PUSH2 0x3E2 JUMPI DUP1 PUSH4 0x8290F859 EQ PUSH2 0x3EC JUMPI DUP1 PUSH4 0x8DA5CB5B EQ PUSH2 0x408 JUMPI PUSH2 0x1D9 JUMP JUMPDEST DUP1 PUSH4 0x6000ADA1 GT PUSH2 0x17C JUMPI DUP1 PUSH4 0x715018A6 GT PUSH2 0x14B JUMPI DUP1 PUSH4 0x715018A6 EQ PUSH2 0x384 JUMPI DUP1 PUSH4 0x7217EB2E EQ PUSH2 0x38E JUMPI DUP1 PUSH4 0x72DF397E EQ PUSH2 0x3AA JUMPI DUP1 PUSH4 0x786EA161 EQ PUSH2 0x3C6 JUMPI PUSH2 0x1D9 JUMP JUMPDEST DUP1 PUSH4 0x6000ADA1 EQ PUSH2 0x2CA JUMPI DUP1 PUSH4 0x658DB497 EQ PUSH2 0x2FA JUMPI DUP1 PUSH4 0x6CF07E24 EQ PUSH2 0x331 JUMPI DUP1 PUSH4 0x6F1FE8D7 EQ PUSH2 0x34D JUMPI PUSH2 0x1D9 JUMP JUMPDEST DUP1 PUSH4 0x3334529E GT PUSH2 0x1B8 JUMPI DUP1 PUSH4 0x3334529E EQ PUSH2 0x246 JUMPI DUP1 PUSH4 0x405BA7EF EQ PUSH2 0x262 JUMPI DUP1 PUSH4 0x453DD4AF EQ PUSH2 0x292 JUMPI DUP1 PUSH4 0x5212E510 EQ PUSH2 0x2AE JUMPI PUSH2 0x1D9 JUMP JUMPDEST DUP1 PUSH3 0x3375B7 EQ PUSH2 0x1DE JUMPI DUP1 PUSH4 0x24EDF9A EQ PUSH2 0x1FA JUMPI DUP1 PUSH4 0xA036E25 EQ PUSH2 0x22A JUMPI JUMPDEST PUSH1 0x0 DUP1 REVERT JUMPDEST PUSH2 0x1F8 PUSH1 0x4 DUP1 CALLDATASIZE SUB DUP2 ADD SWAP1 PUSH2 0x1F3 SWAP2 SWAP1 PUSH2 0x57A2 JUMP JUMPDEST PUSH2 0x5CF JUMP JUMPDEST STOP JUMPDEST PUSH2 0x214 PUSH1 0x4 DUP1 CALLDATASIZE SUB DUP2 ADD SWAP1 PUSH2 0x20F SWAP2 SWAP1 PUSH2 0x572C JUMP JUMPDEST PUSH2 0xE30 JUMP JUMPDEST PUSH1 0x40 MLOAD PUSH2 0x221 SWAP2 SWAP1 PUSH2 0x5BAE JUMP JUMPDEST PUSH1 0x40 MLOAD DUP1 SWAP2 SUB SWAP1 RETURN JUMPDEST PUSH2 0x244 PUSH1 0x4 DUP1 CALLDATASIZE SUB DUP2 ADD SWAP1 PUSH2 0x23F SWAP2 SWAP1 PUSH2 0x5900 JUMP JUMPDEST PUSH2 0xEC2 JUMP JUMPDEST STOP JUMPDEST PUSH2 0x260 PUSH1 0x4 DUP1 CALLDATASIZE SUB DUP2 ADD SWAP1 PUSH2 0x25B SWAP2 SWAP1 PUSH2 0x5989 JUMP JUMPDEST PUSH2 0x140E JUMP JUMPDEST STOP JUMPDEST PUSH2 0x27C PUSH1 0x4 DUP1 CALLDATASIZE SUB DUP2 ADD SWAP1 PUSH2 0x277 SWAP2 SWAP1 PUSH2 0x5900 JUMP JUMPDEST PUSH2 0x1A63 JUMP JUMPDEST PUSH1 0x40 MLOAD PUSH2 0x289 SWAP2 SWAP1 PUSH2 0x5CFC JUMP JUMPDEST PUSH1 0x40 MLOAD DUP1 SWAP2 SUB SWAP1 RETURN JUMPDEST PUSH2 0x2AC PUSH1 0x4 DUP1 CALLDATASIZE SUB DUP2 ADD SWAP1 PUSH2 0x2A7 SWAP2 SWAP1 PUSH2 0x572C JUMP JUMPDEST PUSH2 0x1A86 JUMP JUMPDEST STOP JUMPDEST PUSH2 0x2C8 PUSH1 0x4 DUP1 CALLDATASIZE SUB DUP2 ADD SWAP1 PUSH2 0x2C3 SWAP2 SWAP1 PUSH2 0x572C JUMP JUMPDEST PUSH2 0x1B31 JUMP JUMPDEST STOP JUMPDEST PUSH2 0x2E4 PUSH1 0x4 DUP1 CALLDATASIZE SUB DUP2 ADD SWAP1 PUSH2 0x2DF SWAP2 SWAP1 PUSH2 0x572C JUMP JUMPDEST PUSH2 0x1BDC JUMP JUMPDEST PUSH1 0x40 MLOAD PUSH2 0x2F1 SWAP2 SWAP1 PUSH2 0x5BAE JUMP JUMPDEST PUSH1 0x40 MLOAD DUP1 SWAP2 SUB SWAP1 RETURN JUMPDEST PUSH2 0x314 PUSH1 0x4 DUP1 CALLDATASIZE SUB DUP2 ADD SWAP1 PUSH2 0x30F SWAP2 SWAP1 PUSH2 0x5A14 JUMP JUMPDEST PUSH2 0x1C6E JUMP JUMPDEST PUSH1 0x40 MLOAD PUSH2 0x328 SWAP9 SWAP8 SWAP7 SWAP6 SWAP5 SWAP4 SWAP3 SWAP2 SWAP1 PUSH2 0x5DAA JUMP JUMPDEST PUSH1 0x40 MLOAD DUP1 SWAP2 SUB SWAP1 RETURN JUMPDEST PUSH2 0x34B PUSH1 0x4 DUP1 CALLDATASIZE SUB DUP2 ADD SWAP1 PUSH2 0x346 SWAP2 SWAP1 PUSH2 0x5900 JUMP JUMPDEST PUSH2 0x205B JUMP JUMPDEST STOP JUMPDEST PUSH2 0x367 PUSH1 0x4 DUP1 CALLDATASIZE SUB DUP2 ADD SWAP1 PUSH2 0x362 SWAP2 SWAP1 PUSH2 0x5A14 JUMP JUMPDEST PUSH2 0x266D JUMP JUMPDEST PUSH1 0x40 MLOAD PUSH2 0x37B SWAP9 SWAP8 SWAP7 SWAP6 SWAP5 SWAP4 SWAP3 SWAP2 SWAP1 PUSH2 0x5D17 JUMP JUMPDEST PUSH1 0x40 MLOAD DUP1 SWAP2 SUB SWAP1 RETURN JUMPDEST PUSH2 0x38C PUSH2 0x29C4 JUMP JUMPDEST STOP JUMPDEST PUSH2 0x3A8 PUSH1 0x4 DUP1 CALLDATASIZE SUB DUP2 ADD SWAP1 PUSH2 0x3A3 SWAP2 SWAP1 PUSH2 0x5900 JUMP JUMPDEST PUSH2 0x29D8 JUMP JUMPDEST STOP JUMPDEST PUSH2 0x3C4 PUSH1 0x4 DUP1 CALLDATASIZE SUB DUP2 ADD SWAP1 PUSH2 0x3BF SWAP2 SWAP1 PUSH2 0x5900 JUMP JUMPDEST PUSH2 0x2F5C JUMP JUMPDEST STOP JUMPDEST PUSH2 0x3E0 PUSH1 0x4 DUP1 CALLDATASIZE SUB DUP2 ADD SWAP1 PUSH2 0x3DB SWAP2 SWAP1 PUSH2 0x592D JUMP JUMPDEST PUSH2 0x3550 JUMP JUMPDEST STOP JUMPDEST PUSH2 0x3EA PUSH2 0x35CD JUMP JUMPDEST STOP JUMPDEST PUSH2 0x406 PUSH1 0x4 DUP1 CALLDATASIZE SUB DUP2 ADD SWAP1 PUSH2 0x401 SWAP2 SWAP1 PUSH2 0x572C JUMP JUMPDEST PUSH2 0x371B JUMP JUMPDEST STOP JUMPDEST PUSH2 0x410 PUSH2 0x37C6 JUMP JUMPDEST PUSH1 0x40 MLOAD PUSH2 0x41D SWAP2 SWAP1 PUSH2 0x5B93 JUMP JUMPDEST PUSH1 0x40 MLOAD DUP1 SWAP2 SUB SWAP1 RETURN JUMPDEST PUSH2 0x440 PUSH1 0x4 DUP1 CALLDATASIZE SUB DUP2 ADD SWAP1 PUSH2 0x43B SWAP2 SWAP1 PUSH2 0x5989 JUMP JUMPDEST PUSH2 0x37F0 JUMP JUMPDEST STOP JUMPDEST PUSH2 0x45C PUSH1 0x4 DUP1 CALLDATASIZE SUB DUP2 ADD SWAP1 PUSH2 0x457 SWAP2 SWAP1 PUSH2 0x5A14 JUMP JUMPDEST PUSH2 0x3E2A JUMP JUMPDEST PUSH1 0x40 MLOAD PUSH2 0x46E SWAP7 SWAP6 SWAP5 SWAP4 SWAP3 SWAP2 SWAP1 PUSH2 0x5BFF JUMP JUMPDEST PUSH1 0x40 MLOAD DUP1 SWAP2 SUB SWAP1 RETURN JUMPDEST PUSH2 0x491 PUSH1 0x4 DUP1 CALLDATASIZE SUB DUP2 ADD SWAP1 PUSH2 0x48C SWAP2 SWAP1 PUSH2 0x5900 JUMP JUMPDEST PUSH2 0x4204 JUMP JUMPDEST STOP JUMPDEST PUSH2 0x4AD PUSH1 0x4 DUP1 CALLDATASIZE SUB DUP2 ADD SWAP1 PUSH2 0x4A8 SWAP2 SWAP1 PUSH2 0x572C JUMP JUMPDEST PUSH2 0x478B JUMP JUMPDEST PUSH1 0x40 MLOAD PUSH2 0x4BA SWAP2 SWAP1 PUSH2 0x5BAE JUMP JUMPDEST PUSH1 0x40 MLOAD DUP1 SWAP2 SUB SWAP1 RETURN JUMPDEST PUSH2 0x4DD PUSH1 0x4 DUP1 CALLDATASIZE SUB DUP2 ADD SWAP1 PUSH2 0x4D8 SWAP2 SWAP1 PUSH2 0x572C JUMP JUMPDEST PUSH2 0x481D JUMP JUMPDEST PUSH1 0x40 MLOAD PUSH2 0x4EA SWAP2 SWAP1 PUSH2 0x5BAE JUMP JUMPDEST PUSH1 0x40 MLOAD DUP1 SWAP2 SUB SWAP1 RETURN JUMPDEST PUSH2 0x50D PUSH1 0x4 DUP1 CALLDATASIZE SUB DUP2 ADD SWAP1 PUSH2 0x508 SWAP2 SWAP1 PUSH2 0x5900 JUMP JUMPDEST PUSH2 0x48AF JUMP JUMPDEST PUSH1 0x40 MLOAD PUSH2 0x51A SWAP2 SWAP1 PUSH2 0x5BC9 JUMP JUMPDEST PUSH1 0x40 MLOAD DUP1 SWAP2 SUB SWAP1 RETURN JUMPDEST PUSH2 0x53D PUSH1 0x4 DUP1 CALLDATASIZE SUB DUP2 ADD SWAP1 PUSH2 0x538 SWAP2 SWAP1 PUSH2 0x5759 JUMP JUMPDEST PUSH2 0x48DC JUMP JUMPDEST STOP JUMPDEST PUSH2 0x559 PUSH1 0x4 DUP1 CALLDATASIZE SUB DUP2 ADD SWAP1 PUSH2 0x554 SWAP2 SWAP1 PUSH2 0x5900 JUMP JUMPDEST PUSH2 0x496E JUMP JUMPDEST STOP JUMPDEST PUSH2 0x563 PUSH2 0x4F2A JUMP JUMPDEST PUSH1 0x40 MLOAD PUSH2 0x570 SWAP2 SWAP1 PUSH2 0x5CFC JUMP JUMPDEST PUSH1 0x40 MLOAD DUP1 SWAP2 SUB SWAP1 RETURN JUMPDEST PUSH2 0x593 PUSH1 0x4 DUP1 CALLDATASIZE SUB DUP2 ADD SWAP1 PUSH2 0x58E SWAP2 SWAP1 PUSH2 0x572C JUMP JUMPDEST PUSH2 0x4F34 JUMP JUMPDEST STOP JUMPDEST PUSH2 0x5AF PUSH1 0x4 DUP1 CALLDATASIZE SUB DUP2 ADD SWAP1 PUSH2 0x5AA SWAP2 SWAP1 PUSH2 0x572C JUMP JUMPDEST PUSH2 0x4FB8 JUMP JUMPDEST STOP JUMPDEST PUSH2 0x5B9 PUSH2 0x5063 JUMP JUMPDEST PUSH1 0x40 MLOAD PUSH2 0x5C6 SWAP2 SWAP1 PUSH2 0x5CFC JUMP JUMPDEST PUSH1 0x40 MLOAD DUP1 SWAP2 SUB SWAP1 RETURN JUMPDEST PUSH2 0x5D8 CALLER PUSH2 0x1BDC JUMP JUMPDEST PUSH2 0x5E1 JUMPI PUSH1 0x0 DUP1 REVERT JUMPDEST PUSH1 0x0 PUSH1 0x65 SLOAD SWAP1 POP PUSH2 0x5F0 PUSH2 0x53D7 JUMP JUMPDEST PUSH1 0x66 SLOAD DUP2 PUSH1 0x20 ADD DUP2 DUP2 MSTORE POP POP DUP2 DUP2 PUSH1 0x0 ADD DUP2 DUP2 MSTORE POP POP DUP10 DUP2 PUSH1 0x80 ADD MLOAD PUSH1 0x20 ADD DUP2 SWAP1 MSTORE POP DUP9 DUP2 PUSH1 0x80 ADD MLOAD PUSH1 0x40 ADD DUP2 SWAP1 MSTORE POP DUP8 DUP2 PUSH1 0x80 ADD MLOAD PUSH1 0x60 ADD DUP2 SWAP1 MSTORE POP DUP7 DUP2 PUSH1 0x80 ADD MLOAD PUSH1 0x80 ADD DUP2 SWAP1 MSTORE POP TIMESTAMP DUP2 PUSH1 0x80 ADD MLOAD PUSH1 0xA0 ADD DUP2 DUP2 MSTORE POP POP CALLER DUP2 PUSH1 0x40 ADD SWAP1 PUSH20 0xFFFFFFFFFFFFFFFFFFFFFFFFFFFFFFFFFFFFFFFF AND SWAP1 DUP2 PUSH20 0xFFFFFFFFFFFFFFFFFFFFFFFFFFFFFFFFFFFFFFFF AND DUP2 MSTORE POP POP CALLER DUP2 PUSH1 0x80 ADD MLOAD PUSH1 0x0 ADD SWAP1 PUSH20 0xFFFFFFFFFFFFFFFFFFFFFFFFFFFFFFFFFFFFFFFF AND SWAP1 DUP2 PUSH20 0xFFFFFFFFFFFFFFFFFFFFFFFFFFFFFFFFFFFFFFFF AND DUP2 MSTORE POP POP PUSH2 0x6C5 DUP2 PUSH2 0x5069 JUMP JUMPDEST PUSH1 0x0 DUP2 PUSH1 0x60 ADD SWAP1 PUSH1 0x8 DUP2 GT ISZERO PUSH2 0x6DE JUMPI PUSH2 0x6DD PUSH2 0x60E9 JUMP JUMPDEST JUMPDEST SWAP1 DUP2 PUSH1 0x8 DUP2 GT ISZERO PUSH2 0x6F2 JUMPI PUSH2 0x6F1 PUSH2 0x60E9 JUMP JUMPDEST JUMPDEST DUP2 MSTORE POP POP PUSH2 0x703 DUP2 DUP8 DUP8 DUP8 DUP8 PUSH2 0x5171 JUMP JUMPDEST DUP1 PUSH1 0x67 PUSH1 0x0 DUP5 DUP2 MSTORE PUSH1 0x20 ADD SWAP1 DUP2 MSTORE PUSH1 0x20 ADD PUSH1 0x0 KECCAK256 PUSH1 0x0 DUP3 ADD MLOAD DUP2 PUSH1 0x0 ADD SSTORE PUSH1 0x20 DUP3 ADD MLOAD DUP2 PUSH1 0x1 ADD SSTORE PUSH1 0x40 DUP3 ADD MLOAD DUP2 PUSH1 0x2 ADD PUSH1 0x0 PUSH2 0x100 EXP DUP2 SLOAD DUP2 PUSH20 0xFFFFFFFFFFFFFFFFFFFFFFFFFFFFFFFFFFFFFFFF MUL NOT AND SWAP1 DUP4 PUSH20 0xFFFFFFFFFFFFFFFFFFFFFFFFFFFFFFFFFFFFFFFF AND MUL OR SWAP1 SSTORE POP PUSH1 0x60 DUP3 ADD MLOAD DUP2 PUSH1 0x2 ADD PUSH1 0x14 PUSH2 0x100 EXP DUP2 SLOAD DUP2 PUSH1 0xFF MUL NOT AND SWAP1 DUP4 PUSH1 0x8 DUP2 GT ISZERO PUSH2 0x79D JUMPI PUSH2 0x79C PUSH2 0x60E9 JUMP JUMPDEST JUMPDEST MUL OR SWAP1 SSTORE POP PUSH1 0x80 DUP3 ADD MLOAD DUP2 PUSH1 0x3 ADD PUSH1 0x0 DUP3 ADD MLOAD DUP2 PUSH1 0x0 ADD PUSH1 0x0 PUSH2 0x100 EXP DUP2 SLOAD DUP2 PUSH20 0xFFFFFFFFFFFFFFFFFFFFFFFFFFFFFFFFFFFFFFFF MUL NOT AND SWAP1 DUP4 PUSH20 0xFFFFFFFFFFFFFFFFFFFFFFFFFFFFFFFFFFFFFFFF AND MUL OR SWAP1 SSTORE POP PUSH1 0x20 DUP3 ADD MLOAD DUP2 PUSH1 0x1 ADD SWAP1 DUP1 MLOAD SWAP1 PUSH1 0x20 ADD SWAP1 PUSH2 0x80E SWAP3 SWAP2 SWAP1 PUSH2 0x5480 JUMP JUMPDEST POP PUSH1 0x40 DUP3 ADD MLOAD DUP2 PUSH1 0x2 ADD SWAP1 DUP1 MLOAD SWAP1 PUSH1 0x20 ADD SWAP1 PUSH2 0x82B SWAP3 SWAP2 SWAP1 PUSH2 0x5480 JUMP JUMPDEST POP PUSH1 0x60 DUP3 ADD MLOAD DUP2 PUSH1 0x3 ADD SWAP1 DUP1 MLOAD SWAP1 PUSH1 0x20 ADD SWAP1 PUSH2 0x848 SWAP3 SWAP2 SWAP1 PUSH2 0x5480 JUMP JUMPDEST POP PUSH1 0x80 DUP3 ADD MLOAD DUP2 PUSH1 0x4 ADD SWAP1 DUP1 MLOAD SWAP1 PUSH1 0x20 ADD SWAP1 PUSH2 0x865 SWAP3 SWAP2 SWAP1 PUSH2 0x5480 JUMP JUMPDEST POP PUSH1 0xA0 DUP3 ADD MLOAD DUP2 PUSH1 0x5 ADD SSTORE POP POP PUSH1 0xA0 DUP3 ADD MLOAD DUP2 PUSH1 0x9 ADD PUSH1 0x0 DUP3 ADD MLOAD DUP2 PUSH1 0x0 ADD PUSH1 0x0 PUSH2 0x100 EXP DUP2 SLOAD DUP2 PUSH20 0xFFFFFFFFFFFFFFFFFFFFFFFFFFFFFFFFFFFFFFFF MUL NOT AND SWAP1 DUP4 PUSH20 0xFFFFFFFFFFFFFFFFFFFFFFFFFFFFFFFFFFFFFFFF AND MUL OR SWAP1 SSTORE POP PUSH1 0x20 DUP3 ADD MLOAD DUP2 PUSH1 0x1 ADD SWAP1 DUP1 MLOAD SWAP1 PUSH1 0x20 ADD SWAP1 PUSH2 0x8DE SWAP3 SWAP2 SWAP1 PUSH2 0x5480 JUMP JUMPDEST POP PUSH1 0x40 DUP3 ADD MLOAD DUP2 PUSH1 0x2 ADD SWAP1 DUP1 MLOAD SWAP1 PUSH1 0x20 ADD SWAP1 PUSH2 0x8FB SWAP3 SWAP2 SWAP1 PUSH2 0x5480 JUMP JUMPDEST POP POP POP PUSH1 0xC0 DUP3 ADD MLOAD DUP2 PUSH1 0xC ADD PUSH1 0x0 DUP3 ADD MLOAD DUP2 PUSH1 0x0 ADD SWAP1 DUP1 MLOAD SWAP1 PUSH1 0x20 ADD SWAP1 PUSH2 0x923 SWAP3 SWAP2 SWAP1 PUSH2 0x5480 JUMP JUMPDEST POP PUSH1 0x20 DUP3 ADD MLOAD DUP2 PUSH1 0x1 ADD SSTORE PUSH1 0x40 DUP3 ADD MLOAD DUP2 PUSH1 0x2 ADD SSTORE PUSH1 0x60 DUP3 ADD MLOAD DUP2 PUSH1 0x3 ADD SWAP1 DUP1 MLOAD SWAP1 PUSH1 0x20 ADD SWAP1 PUSH2 0x954 SWAP3 SWAP2 SWAP1 PUSH2 0x5480 JUMP JUMPDEST POP POP POP PUSH1 0xE0 DUP3 ADD MLOAD DUP2 PUSH1 0x10 ADD PUSH1 0x0 DUP3 ADD MLOAD DUP2 PUSH1 0x0 ADD PUSH1 0x0 PUSH2 0x100 EXP DUP2 SLOAD DUP2 PUSH20 0xFFFFFFFFFFFFFFFFFFFFFFFFFFFFFFFFFFFFFFFF MUL NOT AND SWAP1 DUP4 PUSH20 0xFFFFFFFFFFFFFFFFFFFFFFFFFFFFFFFFFFFFFFFF AND MUL OR SWAP1 SSTORE POP PUSH1 0x20 DUP3 ADD MLOAD DUP2 PUSH1 0x1 ADD SWAP1 DUP1 MLOAD SWAP1 PUSH1 0x20 ADD SWAP1 PUSH2 0x9C3 SWAP3 SWAP2 SWAP1 PUSH2 0x5480 JUMP JUMPDEST POP PUSH1 0x40 DUP3 ADD MLOAD DUP2 PUSH1 0x2 ADD SWAP1 DUP1 MLOAD SWAP1 PUSH1 0x20 ADD SWAP1 PUSH2 0x9E0 SWAP3 SWAP2 SWAP1 PUSH2 0x5480 JUMP JUMPDEST POP POP POP PUSH2 0x100 DUP3 ADD MLOAD DUP2 PUSH1 0x13 ADD PUSH1 0x0 PUSH2 0x100 EXP DUP2 SLOAD DUP2 PUSH20 0xFFFFFFFFFFFFFFFFFFFFFFFFFFFFFFFFFFFFFFFF MUL NOT AND SWAP1 DUP4 PUSH20 0xFFFFFFFFFFFFFFFFFFFFFFFFFFFFFFFFFFFFFFFF AND MUL OR SWAP1 SSTORE POP PUSH2 0x120 DUP3 ADD MLOAD DUP2 PUSH1 0x14 ADD SWAP1 DUP1 MLOAD SWAP1 PUSH1 0x20 ADD SWAP1 PUSH2 0xA48 SWAP3 SWAP2 SWAP1 PUSH2 0x5480 JUMP JUMPDEST POP SWAP1 POP POP PUSH1 0x68 PUSH1 0x0 DUP4 DUP2 MSTORE PUSH1 0x20 ADD SWAP1 DUP2 MSTORE PUSH1 0x20 ADD PUSH1 0x0 KECCAK256 PUSH1 0x0 ADD DUP2 SWAP1 DUP1 PUSH1 0x1 DUP2 SLOAD ADD DUP1 DUP3 SSTORE DUP1 SWAP2 POP POP PUSH1 0x1 SWAP1 SUB SWAP1 PUSH1 0x0 MSTORE PUSH1 0x20 PUSH1 0x0 KECCAK256 SWAP1 PUSH1 0x15 MUL ADD PUSH1 0x0 SWAP1 SWAP2 SWAP1 SWAP2 SWAP1 SWAP2 POP PUSH1 0x0 DUP3 ADD MLOAD DUP2 PUSH1 0x0 ADD SSTORE PUSH1 0x20 DUP3 ADD MLOAD DUP2 PUSH1 0x1 ADD SSTORE PUSH1 0x40 DUP3 ADD MLOAD DUP2 PUSH1 0x2 ADD PUSH1 0x0 PUSH2 0x100 EXP DUP2 SLOAD DUP2 PUSH20 0xFFFFFFFFFFFFFFFFFFFFFFFFFFFFFFFFFFFFFFFF MUL NOT AND SWAP1 DUP4 PUSH20 0xFFFFFFFFFFFFFFFFFFFFFFFFFFFFFFFFFFFFFFFF AND MUL OR SWAP1 SSTORE POP PUSH1 0x60 DUP3 ADD MLOAD DUP2 PUSH1 0x2 ADD PUSH1 0x14 PUSH2 0x100 EXP DUP2 SLOAD DUP2 PUSH1 0xFF MUL NOT AND SWAP1 DUP4 PUSH1 0x8 DUP2 GT ISZERO PUSH2 0xB12 JUMPI PUSH2 0xB11 PUSH2 0x60E9 JUMP JUMPDEST JUMPDEST MUL OR SWAP1 SSTORE POP PUSH1 0x80 DUP3 ADD MLOAD DUP2 PUSH1 0x3 ADD PUSH1 0x0 DUP3 ADD MLOAD DUP2 PUSH1 0x0 ADD PUSH1 0x0 PUSH2 0x100 EXP DUP2 SLOAD DUP2 PUSH20 0xFFFFFFFFFFFFFFFFFFFFFFFFFFFFFFFFFFFFFFFF MUL NOT AND SWAP1 DUP4 PUSH20 0xFFFFFFFFFFFFFFFFFFFFFFFFFFFFFFFFFFFFFFFF AND MUL OR SWAP1 SSTORE POP PUSH1 0x20 DUP3 ADD MLOAD DUP2 PUSH1 0x1 ADD SWAP1 DUP1 MLOAD SWAP1 PUSH1 0x20 ADD SWAP1 PUSH2 0xB83 SWAP3 SWAP2 SWAP1 PUSH2 0x5480 JUMP JUMPDEST POP PUSH1 0x40 DUP3 ADD MLOAD DUP2 PUSH1 0x2 ADD SWAP1 DUP1 MLOAD SWAP1 PUSH1 0x20 ADD SWAP1 PUSH2 0xBA0 SWAP3 SWAP2 SWAP1 PUSH2 0x5480 JUMP JUMPDEST POP PUSH1 0x60 DUP3 ADD MLOAD DUP2 PUSH1 0x3 ADD SWAP1 DUP1 MLOAD SWAP1 PUSH1 0x20 ADD SWAP1 PUSH2 0xBBD SWAP3 SWAP2 SWAP1 PUSH2 0x5480 JUMP JUMPDEST POP PUSH1 0x80 DUP3 ADD MLOAD DUP2 PUSH1 0x4 ADD SWAP1 DUP1 MLOAD SWAP1 PUSH1 0x20 ADD SWAP1 PUSH2 0xBDA SWAP3 SWAP2 SWAP1 PUSH2 0x5480 JUMP JUMPDEST POP PUSH1 0xA0 DUP3 ADD MLOAD DUP2 PUSH1 0x5 ADD SSTORE POP POP PUSH1 0xA0 DUP3 ADD MLOAD DUP2 PUSH1 0x9 ADD PUSH1 0x0 DUP3 ADD MLOAD DUP2 PUSH1 0x0 ADD PUSH1 0x0 PUSH2 0x100 EXP DUP2 SLOAD DUP2 PUSH20 0xFFFFFFFFFFFFFFFFFFFFFFFFFFFFFFFFFFFFFFFF MUL NOT AND SWAP1 DUP4 PUSH20 0xFFFFFFFFFFFFFFFFFFFFFFFFFFFFFFFFFFFFFFFF AND MUL OR SWAP1 SSTORE POP PUSH1 0x20 DUP3 ADD MLOAD DUP2 PUSH1 0x1 ADD SWAP1 DUP1 MLOAD SWAP1 PUSH1 0x20 ADD SWAP1 PUSH2 0xC53 SWAP3 SWAP2 SWAP1 PUSH2 0x5480 JUMP JUMPDEST POP PUSH1 0x40 DUP3 ADD MLOAD DUP2 PUSH1 0x2 ADD SWAP1 DUP1 MLOAD SWAP1 PUSH1 0x20 ADD SWAP1 PUSH2 0xC70 SWAP3 SWAP2 SWAP1 PUSH2 0x5480 JUMP JUMPDEST POP POP POP PUSH1 0xC0 DUP3 ADD MLOAD DUP2 PUSH1 0xC ADD PUSH1 0x0 DUP3 ADD MLOAD DUP2 PUSH1 0x0 ADD SWAP1 DUP1 MLOAD SWAP1 PUSH1 0x20 ADD SWAP1 PUSH2 0xC98 SWAP3 SWAP2 SWAP1 PUSH2 0x5480 JUMP JUMPDEST POP PUSH1 0x20 DUP3 ADD MLOAD DUP2 PUSH1 0x1 ADD SSTORE PUSH1 0x40 DUP3 ADD MLOAD DUP2 PUSH1 0x2 ADD SSTORE PUSH1 0x60 DUP3 ADD MLOAD DUP2 PUSH1 0x3 ADD SWAP1 DUP1 MLOAD SWAP1 PUSH1 0x20 ADD SWAP1 PUSH2 0xCC9 SWAP3 SWAP2 SWAP1 PUSH2 0x5480 JUMP JUMPDEST POP POP POP PUSH1 0xE0 DUP3 ADD MLOAD DUP2 PUSH1 0x10 ADD PUSH1 0x0 DUP3 ADD MLOAD DUP2 PUSH1 0x0 ADD PUSH1 0x0 PUSH2 0x100 EXP DUP2 SLOAD DUP2 PUSH20 0xFFFFFFFFFFFFFFFFFFFFFFFFFFFFFFFFFFFFFFFF MUL NOT AND SWAP1 DUP4 PUSH20 0xFFFFFFFFFFFFFFFFFFFFFFFFFFFFFFFFFFFFFFFF AND MUL OR SWAP1 SSTORE POP PUSH1 0x20 DUP3 ADD MLOAD DUP2 PUSH1 0x1 ADD SWAP1 DUP1 MLOAD SWAP1 PUSH1 0x20 ADD SWAP1 PUSH2 0xD38 SWAP3 SWAP2 SWAP1 PUSH2 0x5480 JUMP JUMPDEST POP PUSH1 0x40 DUP3 ADD MLOAD DUP2 PUSH1 0x2 ADD SWAP1 DUP1 MLOAD SWAP1 PUSH1 0x20 ADD SWAP1 PUSH2 0xD55 SWAP3 SWAP2 SWAP1 PUSH2 0x5480 JUMP JUMPDEST POP POP POP PUSH2 0x100 DUP3 ADD MLOAD DUP2 PUSH1 0x13 ADD PUSH1 0x0 PUSH2 0x100 EXP DUP2 SLOAD DUP2 PUSH20 0xFFFFFFFFFFFFFFFFFFFFFFFFFFFFFFFFFFFFFFFF MUL NOT AND SWAP1 DUP4 PUSH20 0xFFFFFFFFFFFFFFFFFFFFFFFFFFFFFFFFFFFFFFFF AND MUL OR SWAP1 SSTORE POP PUSH2 0x120 DUP3 ADD MLOAD DUP2 PUSH1 0x14 ADD SWAP1 DUP1 MLOAD SWAP1 PUSH1 0x20 ADD SWAP1 PUSH2 0xDBD SWAP3 SWAP2 SWAP1 PUSH2 0x5480 JUMP JUMPDEST POP POP POP PUSH1 0x66 PUSH1 0x0 DUP2 SLOAD DUP1 SWAP3 SWAP2 SWAP1 PUSH2 0xDD3 SWAP1 PUSH2 0x6071 JUMP JUMPDEST SWAP2 SWAP1 POP SSTORE POP PUSH1 0x1 PUSH1 0x65 SLOAD PUSH2 0xDE7 SWAP2 SWAP1 PUSH2 0x5EB6 JUMP JUMPDEST PUSH1 0x65 DUP2 SWAP1 SSTORE POP PUSH32 0xD29D8A68CA7C8C74BE5579719D445AABFE230ED6E6A83AFF475A663500EB7609 DUP3 PUSH1 0x40 MLOAD PUSH2 0xE1C SWAP2 SWAP1 PUSH2 0x5CFC JUMP JUMPDEST PUSH1 0x40 MLOAD DUP1 SWAP2 SUB SWAP1 LOG1 POP POP POP POP POP POP POP POP POP POP JUMP JUMPDEST PUSH1 0x0 DUP1 PUSH20 0xFFFFFFFFFFFFFFFFFFFFFFFFFFFFFFFFFFFFFFFF AND DUP3 PUSH20 0xFFFFFFFFFFFFFFFFFFFFFFFFFFFFFFFFFFFFFFFF AND EQ ISZERO PUSH2 0xE6B JUMPI PUSH1 0x0 DUP1 REVERT JUMPDEST PUSH1 0x69 PUSH1 0x0 DUP4 PUSH20 0xFFFFFFFFFFFFFFFFFFFFFFFFFFFFFFFFFFFFFFFF AND PUSH20 0xFFFFFFFFFFFFFFFFFFFFFFFFFFFFFFFFFFFFFFFF AND DUP2 MSTORE PUSH1 0x20 ADD SWAP1 DUP2 MSTORE PUSH1 0x20 ADD PUSH1 0x0 KECCAK256 PUSH1 0x0 ADD PUSH1 0x3 SWAP1 SLOAD SWAP1 PUSH2 0x100 EXP SWAP1 DIV PUSH1 0xFF AND SWAP1 POP SWAP2 SWAP1 POP JUMP JUMPDEST PUSH1 0x67 PUSH1 0x0 DUP3 DUP2 MSTORE PUSH1 0x20 ADD SWAP1 DUP2 MSTORE PUSH1 0x20 ADD PUSH1 0x0 KECCAK256 PUSH1 0x3 ADD PUSH1 0x0 ADD PUSH1 0x0 SWAP1 SLOAD SWAP1 PUSH2 0x100 EXP SWAP1 DIV PUSH20 0xFFFFFFFFFFFFFFFFFFFFFFFFFFFFFFFFFFFFFFFF AND DUP1 PUSH20 0xFFFFFFFFFFFFFFFFFFFFFFFFFFFFFFFFFFFFFFFF AND CALLER PUSH20 0xFFFFFFFFFFFFFFFFFFFFFFFFFFFFFFFFFFFFFFFF AND EQ PUSH2 0xF34 JUMPI PUSH1 0x0 DUP1 REVERT JUMPDEST PUSH2 0xF3D CALLER PUSH2 0x1BDC JUMP JUMPDEST PUSH2 0xF46 JUMPI PUSH1 0x0 DUP1 REVERT JUMPDEST PUSH1 0x2 PUSH1 0x67 PUSH1 0x0 DUP5 DUP2 MSTORE PUSH1 0x20 ADD SWAP1 DUP2 MSTORE PUSH1 0x20 ADD PUSH1 0x0 KECCAK256 PUSH1 0x2 ADD PUSH1 0x14 PUSH2 0x100 EXP DUP2 SLOAD DUP2 PUSH1 0xFF MUL NOT AND SWAP1 DUP4 PUSH1 0x8 DUP2 GT ISZERO PUSH2 0xF80 JUMPI PUSH2 0xF7F PUSH2 0x60E9 JUMP JUMPDEST JUMPDEST MUL OR SWAP1 SSTORE POP PUSH1 0x68 PUSH1 0x0 DUP4 DUP2 MSTORE PUSH1 0x20 ADD SWAP1 DUP2 MSTORE PUSH1 0x20 ADD PUSH1 0x0 KECCAK256 PUSH1 0x0 ADD PUSH1 0x67 PUSH1 0x0 DUP5 DUP2 MSTORE PUSH1 0x20 ADD SWAP1 DUP2 MSTORE PUSH1 0x20 ADD PUSH1 0x0 KECCAK256 SWAP1 DUP1 PUSH1 0x1 DUP2 SLOAD ADD DUP1 DUP3 SSTORE DUP1 SWAP2 POP POP PUSH1 0x1 SWAP1 SUB SWAP1 PUSH1 0x0 MSTORE PUSH1 0x20 PUSH1 0x0 KECCAK256 SWAP1 PUSH1 0x15 MUL ADD PUSH1 0x0 SWAP1 SWAP2 SWAP1 SWAP2 SWAP1 SWAP2 POP PUSH1 0x0 DUP3 ADD SLOAD DUP2 PUSH1 0x0 ADD SSTORE PUSH1 0x1 DUP3 ADD SLOAD DUP2 PUSH1 0x1 ADD SSTORE PUSH1 0x2 DUP3 ADD PUSH1 0x0 SWAP1 SLOAD SWAP1 PUSH2 0x100 EXP SWAP1 DIV PUSH20 0xFFFFFFFFFFFFFFFFFFFFFFFFFFFFFFFFFFFFFFFF AND DUP2 PUSH1 0x2 ADD PUSH1 0x0 PUSH2 0x100 EXP DUP2 SLOAD DUP2 PUSH20 0xFFFFFFFFFFFFFFFFFFFFFFFFFFFFFFFFFFFFFFFF MUL NOT AND SWAP1 DUP4 PUSH20 0xFFFFFFFFFFFFFFFFFFFFFFFFFFFFFFFFFFFFFFFF AND MUL OR SWAP1 SSTORE POP PUSH1 0x2 DUP3 ADD PUSH1 0x14 SWAP1 SLOAD SWAP1 PUSH2 0x100 EXP SWAP1 DIV PUSH1 0xFF AND DUP2 PUSH1 0x2 ADD PUSH1 0x14 PUSH2 0x100 EXP DUP2 SLOAD DUP2 PUSH1 0xFF MUL NOT AND SWAP1 DUP4 PUSH1 0x8 DUP2 GT ISZERO PUSH2 0x108A JUMPI PUSH2 0x1089 PUSH2 0x60E9 JUMP JUMPDEST JUMPDEST MUL OR SWAP1 SSTORE POP PUSH1 0x3 DUP3 ADD DUP2 PUSH1 0x3 ADD PUSH1 0x0 DUP3 ADD PUSH1 0x0 SWAP1 SLOAD SWAP1 PUSH2 0x100 EXP SWAP1 DIV PUSH20 0xFFFFFFFFFFFFFFFFFFFFFFFFFFFFFFFFFFFFFFFF AND DUP2 PUSH1 0x0 ADD PUSH1 0x0 PUSH2 0x100 EXP DUP2 SLOAD DUP2 PUSH20 0xFFFFFFFFFFFFFFFFFFFFFFFFFFFFFFFFFFFFFFFF MUL NOT AND SWAP1 DUP4 PUSH20 0xFFFFFFFFFFFFFFFFFFFFFFFFFFFFFFFFFFFFFFFF AND MUL OR SWAP1 SSTORE POP PUSH1 0x1 DUP3 ADD DUP2 PUSH1 0x1 ADD SWAP1 DUP1 SLOAD PUSH2 0x1112 SWAP1 PUSH2 0x600E JUMP JUMPDEST PUSH2 0x111D SWAP3 SWAP2 SWAP1 PUSH2 0x5506 JUMP JUMPDEST POP PUSH1 0x2 DUP3 ADD DUP2 PUSH1 0x2 ADD SWAP1 DUP1 SLOAD PUSH2 0x1132 SWAP1 PUSH2 0x600E JUMP JUMPDEST PUSH2 0x113D SWAP3 SWAP2 SWAP1 PUSH2 0x5506 JUMP JUMPDEST POP PUSH1 0x3 DUP3 ADD DUP2 PUSH1 0x3 ADD SWAP1 DUP1 SLOAD PUSH2 0x1152 SWAP1 PUSH2 0x600E JUMP JUMPDEST PUSH2 0x115D SWAP3 SWAP2 SWAP1 PUSH2 0x5506 JUMP JUMPDEST POP PUSH1 0x4 DUP3 ADD DUP2 PUSH1 0x4 ADD SWAP1 DUP1 SLOAD PUSH2 0x1172 SWAP1 PUSH2 0x600E JUMP JUMPDEST PUSH2 0x117D SWAP3 SWAP2 SWAP1 PUSH2 0x5506 JUMP JUMPDEST POP PUSH1 0x5 DUP3 ADD SLOAD DUP2 PUSH1 0x5 ADD SSTORE POP POP PUSH1 0x9 DUP3 ADD DUP2 PUSH1 0x9 ADD PUSH1 0x0 DUP3 ADD PUSH1 0x0 SWAP1 SLOAD SWAP1 PUSH2 0x100 EXP SWAP1 DIV PUSH20 0xFFFFFFFFFFFFFFFFFFFFFFFFFFFFFFFFFFFFFFFF AND DUP2 PUSH1 0x0 ADD PUSH1 0x0 PUSH2 0x100 EXP DUP2 SLOAD DUP2 PUSH20 0xFFFFFFFFFFFFFFFFFFFFFFFFFFFFFFFFFFFFFFFF MUL NOT AND SWAP1 DUP4 PUSH20 0xFFFFFFFFFFFFFFFFFFFFFFFFFFFFFFFFFFFFFFFF AND MUL OR SWAP1 SSTORE POP PUSH1 0x1 DUP3 ADD DUP2 PUSH1 0x1 ADD SWAP1 DUP1 SLOAD PUSH2 0x120D SWAP1 PUSH2 0x600E JUMP JUMPDEST PUSH2 0x1218 SWAP3 SWAP2 SWAP1 PUSH2 0x5506 JUMP JUMPDEST POP PUSH1 0x2 DUP3 ADD DUP2 PUSH1 0x2 ADD SWAP1 DUP1 SLOAD PUSH2 0x122D SWAP1 PUSH2 0x600E JUMP JUMPDEST PUSH2 0x1238 SWAP3 SWAP2 SWAP1 PUSH2 0x5506 JUMP JUMPDEST POP POP POP PUSH1 0xC DUP3 ADD DUP2 PUSH1 0xC ADD PUSH1 0x0 DUP3 ADD DUP2 PUSH1 0x0 ADD SWAP1 DUP1 SLOAD PUSH2 0x1257 SWAP1 PUSH2 0x600E JUMP JUMPDEST PUSH2 0x1262 SWAP3 SWAP2 SWAP1 PUSH2 0x5506 JUMP JUMPDEST POP PUSH1 0x1 DUP3 ADD SLOAD DUP2 PUSH1 0x1 ADD SSTORE PUSH1 0x2 DUP3 ADD SLOAD DUP2 PUSH1 0x2 ADD SSTORE PUSH1 0x3 DUP3 ADD DUP2 PUSH1 0x3 ADD SWAP1 DUP1 SLOAD PUSH2 0x128B SWAP1 PUSH2 0x600E JUMP JUMPDEST PUSH2 0x1296 SWAP3 SWAP2 SWAP1 PUSH2 0x5506 JUMP JUMPDEST POP POP POP PUSH1 0x10 DUP3 ADD DUP2 PUSH1 0x10 ADD PUSH1 0x0 DUP3 ADD PUSH1 0x0 SWAP1 SLOAD SWAP1 PUSH2 0x100 EXP SWAP1 DIV PUSH20 0xFFFFFFFFFFFFFFFFFFFFFFFFFFFFFFFFFFFFFFFF AND DUP2 PUSH1 0x0 ADD PUSH1 0x0 PUSH2 0x100 EXP DUP2 SLOAD DUP2 PUSH20 0xFFFFFFFFFFFFFFFFFFFFFFFFFFFFFFFFFFFFFFFF MUL NOT AND SWAP1 DUP4 PUSH20 0xFFFFFFFFFFFFFFFFFFFFFFFFFFFFFFFFFFFFFFFF AND MUL OR SWAP1 SSTORE POP PUSH1 0x1 DUP3 ADD DUP2 PUSH1 0x1 ADD SWAP1 DUP1 SLOAD PUSH2 0x131C SWAP1 PUSH2 0x600E JUMP JUMPDEST PUSH2 0x1327 SWAP3 SWAP2 SWAP1 PUSH2 0x5506 JUMP JUMPDEST POP PUSH1 0x2 DUP3 ADD DUP2 PUSH1 0x2 ADD SWAP1 DUP1 SLOAD PUSH2 0x133C SWAP1 PUSH2 0x600E JUMP JUMPDEST PUSH2 0x1347 SWAP3 SWAP2 SWAP1 PUSH2 0x5506 JUMP JUMPDEST POP POP POP PUSH1 0x13 DUP3 ADD PUSH1 0x0 SWAP1 SLOAD SWAP1 PUSH2 0x100 EXP SWAP1 DIV PUSH20 0xFFFFFFFFFFFFFFFFFFFFFFFFFFFFFFFFFFFFFFFF AND DUP2 PUSH1 0x13 ADD PUSH1 0x0 PUSH2 0x100 EXP DUP2 SLOAD DUP2 PUSH20 0xFFFFFFFFFFFFFFFFFFFFFFFFFFFFFFFFFFFFFFFF MUL NOT AND SWAP1 DUP4 PUSH20 0xFFFFFFFFFFFFFFFFFFFFFFFFFFFFFFFFFFFFFFFF AND MUL OR SWAP1 SSTORE POP PUSH1 0x14 DUP3 ADD DUP2 PUSH1 0x14 ADD SWAP1 DUP1 SLOAD PUSH2 0x13C5 SWAP1 PUSH2 0x600E JUMP JUMPDEST PUSH2 0x13D0 SWAP3 SWAP2 SWAP1 PUSH2 0x5506 JUMP JUMPDEST POP POP POP PUSH32 0x25727BEF8A186DD95A062151451F2D651551B53124C18208D7653B1217AE31BA DUP3 PUSH1 0x40 MLOAD PUSH2 0x1402 SWAP2 SWAP1 PUSH2 0x5CFC JUMP JUMPDEST PUSH1 0x40 MLOAD DUP1 SWAP2 SUB SWAP1 LOG1 POP POP JUMP JUMPDEST DUP3 PUSH1 0x2 PUSH1 0x8 DUP2 GT ISZERO PUSH2 0x1423 JUMPI PUSH2 0x1422 PUSH2 0x60E9 JUMP JUMPDEST JUMPDEST PUSH1 0x67 PUSH1 0x0 DUP4 DUP2 MSTORE PUSH1 0x20 ADD SWAP1 DUP2 MSTORE PUSH1 0x20 ADD PUSH1 0x0 KECCAK256 PUSH1 0x2 ADD PUSH1 0x14 SWAP1 SLOAD SWAP1 PUSH2 0x100 EXP SWAP1 DIV PUSH1 0xFF AND PUSH1 0x8 DUP2 GT ISZERO PUSH2 0x1459 JUMPI PUSH2 0x1458 PUSH2 0x60E9 JUMP JUMPDEST JUMPDEST EQ PUSH2 0x1463 JUMPI PUSH1 0x0 DUP1 REVERT JUMPDEST PUSH1 0x67 PUSH1 0x0 DUP6 DUP2 MSTORE PUSH1 0x20 ADD SWAP1 DUP2 MSTORE PUSH1 0x20 ADD PUSH1 0x0 KECCAK256 PUSH1 0x9 ADD PUSH1 0x0 ADD PUSH1 0x0 SWAP1 SLOAD SWAP1 PUSH2 0x100 EXP SWAP1 DIV PUSH20 0xFFFFFFFFFFFFFFFFFFFFFFFFFFFFFFFFFFFFFFFF AND DUP1 PUSH20 0xFFFFFFFFFFFFFFFFFFFFFFFFFFFFFFFFFFFFFFFF AND CALLER PUSH20 0xFFFFFFFFFFFFFFFFFFFFFFFFFFFFFFFFFFFFFFFF AND EQ PUSH2 0x14D5 JUMPI PUSH1 0x0 DUP1 REVERT JUMPDEST PUSH2 0x14DE CALLER PUSH2 0x478B JUMP JUMPDEST PUSH2 0x14E7 JUMPI PUSH1 0x0 DUP1 REVERT JUMPDEST CALLER PUSH1 0x67 PUSH1 0x0 DUP8 DUP2 MSTORE PUSH1 0x20 ADD SWAP1 DUP2 MSTORE PUSH1 0x20 ADD PUSH1 0x0 KECCAK256 PUSH1 0x2 ADD PUSH1 0x0 PUSH2 0x100 EXP DUP2 SLOAD DUP2 PUSH20 0xFFFFFFFFFFFFFFFFFFFFFFFFFFFFFFFFFFFFFFFF MUL NOT AND SWAP1 DUP4 PUSH20 0xFFFFFFFFFFFFFFFFFFFFFFFFFFFFFFFFFFFFFFFF AND MUL OR SWAP1 SSTORE POP DUP4 PUSH1 0x67 PUSH1 0x0 DUP8 DUP2 MSTORE PUSH1 0x20 ADD SWAP1 DUP2 MSTORE PUSH1 0x20 ADD PUSH1 0x0 KECCAK256 PUSH1 0x9 ADD PUSH1 0x1 ADD SWAP1 DUP1 MLOAD SWAP1 PUSH1 0x20 ADD SWAP1 PUSH2 0x1569 SWAP3 SWAP2 SWAP1 PUSH2 0x5480 JUMP JUMPDEST POP DUP3 PUSH1 0x67 PUSH1 0x0 DUP8 DUP2 MSTORE PUSH1 0x20 ADD SWAP1 DUP2 MSTORE PUSH1 0x20 ADD PUSH1 0x0 KECCAK256 PUSH1 0x9 ADD PUSH1 0x2 ADD SWAP1 DUP1 MLOAD SWAP1 PUSH1 0x20 ADD SWAP1 PUSH2 0x1597 SWAP3 SWAP2 SWAP1 PUSH2 0x5480 JUMP JUMPDEST POP PUSH1 0x3 PUSH1 0x67 PUSH1 0x0 DUP8 DUP2 MSTORE PUSH1 0x20 ADD SWAP1 DUP2 MSTORE PUSH1 0x20 ADD PUSH1 0x0 KECCAK256 PUSH1 0x2 ADD PUSH1 0x14 PUSH2 0x100 EXP DUP2 SLOAD DUP2 PUSH1 0xFF MUL NOT AND SWAP1 DUP4 PUSH1 0x8 DUP2 GT ISZERO PUSH2 0x15D2 JUMPI PUSH2 0x15D1 PUSH2 0x60E9 JUMP JUMPDEST JUMPDEST MUL OR SWAP1 SSTORE POP PUSH1 0x68 PUSH1 0x0 DUP7 DUP2 MSTORE PUSH1 0x20 ADD SWAP1 DUP2 MSTORE PUSH1 0x20 ADD PUSH1 0x0 KECCAK256 PUSH1 0x0 ADD PUSH1 0x67 PUSH1 0x0 DUP8 DUP2 MSTORE PUSH1 0x20 ADD SWAP1 DUP2 MSTORE PUSH1 0x20 ADD PUSH1 0x0 KECCAK256 SWAP1 DUP1 PUSH1 0x1 DUP2 SLOAD ADD DUP1 DUP3 SSTORE DUP1 SWAP2 POP POP PUSH1 0x1 SWAP1 SUB SWAP1 PUSH1 0x0 MSTORE PUSH1 0x20 PUSH1 0x0 KECCAK256 SWAP1 PUSH1 0x15 MUL ADD PUSH1 0x0 SWAP1 SWAP2 SWAP1 SWAP2 SWAP1 SWAP2 POP PUSH1 0x0 DUP3 ADD SLOAD DUP2 PUSH1 0x0 ADD SSTORE PUSH1 0x1 DUP3 ADD SLOAD DUP2 PUSH1 0x1 ADD SSTORE PUSH1 0x2 DUP3 ADD PUSH1 0x0 SWAP1 SLOAD SWAP1 PUSH2 0x100 EXP SWAP1 DIV PUSH20 0xFFFFFFFFFFFFFFFFFFFFFFFFFFFFFFFFFFFFFFFF AND DUP2 PUSH1 0x2 ADD PUSH1 0x0 PUSH2 0x100 EXP DUP2 SLOAD DUP2 PUSH20 0xFFFFFFFFFFFFFFFFFFFFFFFFFFFFFFFFFFFFFFFF MUL NOT AND SWAP1 DUP4 PUSH20 0xFFFFFFFFFFFFFFFFFFFFFFFFFFFFFFFFFFFFFFFF AND MUL OR SWAP1 SSTORE POP PUSH1 0x2 DUP3 ADD PUSH1 0x14 SWAP1 SLOAD SWAP1 PUSH2 0x100 EXP SWAP1 DIV PUSH1 0xFF AND DUP2 PUSH1 0x2 ADD PUSH1 0x14 PUSH2 0x100 EXP DUP2 SLOAD DUP2 PUSH1 0xFF MUL NOT AND SWAP1 DUP4 PUSH1 0x8 DUP2 GT ISZERO PUSH2 0x16DC JUMPI PUSH2 0x16DB PUSH2 0x60E9 JUMP JUMPDEST JUMPDEST MUL OR SWAP1 SSTORE POP PUSH1 0x3 DUP3 ADD DUP2 PUSH1 0x3 ADD PUSH1 0x0 DUP3 ADD PUSH1 0x0 SWAP1 SLOAD SWAP1 PUSH2 0x100 EXP SWAP1 DIV PUSH20 0xFFFFFFFFFFFFFFFFFFFFFFFFFFFFFFFFFFFFFFFF AND DUP2 PUSH1 0x0 ADD PUSH1 0x0 PUSH2 0x100 EXP DUP2 SLOAD DUP2 PUSH20 0xFFFFFFFFFFFFFFFFFFFFFFFFFFFFFFFFFFFFFFFF MUL NOT AND SWAP1 DUP4 PUSH20 0xFFFFFFFFFFFFFFFFFFFFFFFFFFFFFFFFFFFFFFFF AND MUL OR SWAP1 SSTORE POP PUSH1 0x1 DUP3 ADD DUP2 PUSH1 0x1 ADD SWAP1 DUP1 SLOAD PUSH2 0x1764 SWAP1 PUSH2 0x600E JUMP JUMPDEST PUSH2 0x176F SWAP3 SWAP2 SWAP1 PUSH2 0x5506 JUMP JUMPDEST POP PUSH1 0x2 DUP3 ADD DUP2 PUSH1 0x2 ADD SWAP1 DUP1 SLOAD PUSH2 0x1784 SWAP1 PUSH2 0x600E JUMP JUMPDEST PUSH2 0x178F SWAP3 SWAP2 SWAP1 PUSH2 0x5506 JUMP JUMPDEST POP PUSH1 0x3 DUP3 ADD DUP2 PUSH1 0x3 ADD SWAP1 DUP1 SLOAD PUSH2 0x17A4 SWAP1 PUSH2 0x600E JUMP JUMPDEST PUSH2 0x17AF SWAP3 SWAP2 SWAP1 PUSH2 0x5506 JUMP JUMPDEST POP PUSH1 0x4 DUP3 ADD DUP2 PUSH1 0x4 ADD SWAP1 DUP1 SLOAD PUSH2 0x17C4 SWAP1 PUSH2 0x600E JUMP JUMPDEST PUSH2 0x17CF SWAP3 SWAP2 SWAP1 PUSH2 0x5506 JUMP JUMPDEST POP PUSH1 0x5 DUP3 ADD SLOAD DUP2 PUSH1 0x5 ADD SSTORE POP POP PUSH1 0x9 DUP3 ADD DUP2 PUSH1 0x9 ADD PUSH1 0x0 DUP3 ADD PUSH1 0x0 SWAP1 SLOAD SWAP1 PUSH2 0x100 EXP SWAP1 DIV PUSH20 0xFFFFFFFFFFFFFFFFFFFFFFFFFFFFFFFFFFFFFFFF AND DUP2 PUSH1 0x0 ADD PUSH1 0x0 PUSH2 0x100 EXP DUP2 SLOAD DUP2 PUSH20 0xFFFFFFFFFFFFFFFFFFFFFFFFFFFFFFFFFFFFFFFF MUL NOT AND SWAP1 DUP4 PUSH20 0xFFFFFFFFFFFFFFFFFFFFFFFFFFFFFFFFFFFFFFFF AND MUL OR SWAP1 SSTORE POP PUSH1 0x1 DUP3 ADD DUP2 PUSH1 0x1 ADD SWAP1 DUP1 SLOAD PUSH2 0x185F SWAP1 PUSH2 0x600E JUMP JUMPDEST PUSH2 0x186A SWAP3 SWAP2 SWAP1 PUSH2 0x5506 JUMP JUMPDEST POP PUSH1 0x2 DUP3 ADD DUP2 PUSH1 0x2 ADD SWAP1 DUP1 SLOAD PUSH2 0x187F SWAP1 PUSH2 0x600E JUMP JUMPDEST PUSH2 0x188A SWAP3 SWAP2 SWAP1 PUSH2 0x5506 JUMP JUMPDEST POP POP POP PUSH1 0xC DUP3 ADD DUP2 PUSH1 0xC ADD PUSH1 0x0 DUP3 ADD DUP2 PUSH1 0x0 ADD SWAP1 DUP1 SLOAD PUSH2 0x18A9 SWAP1 PUSH2 0x600E JUMP JUMPDEST PUSH2 0x18B4 SWAP3 SWAP2 SWAP1 PUSH2 0x5506 JUMP JUMPDEST POP PUSH1 0x1 DUP3 ADD SLOAD DUP2 PUSH1 0x1 ADD SSTORE PUSH1 0x2 DUP3 ADD SLOAD DUP2 PUSH1 0x2 ADD SSTORE PUSH1 0x3 DUP3 ADD DUP2 PUSH1 0x3 ADD SWAP1 DUP1 SLOAD PUSH2 0x18DD SWAP1 PUSH2 0x600E JUMP JUMPDEST PUSH2 0x18E8 SWAP3 SWAP2 SWAP1 PUSH2 0x5506 JUMP JUMPDEST POP POP POP PUSH1 0x10 DUP3 ADD DUP2 PUSH1 0x10 ADD PUSH1 0x0 DUP3 ADD PUSH1 0x0 SWAP1 SLOAD SWAP1 PUSH2 0x100 EXP SWAP1 DIV PUSH20 0xFFFFFFFFFFFFFFFFFFFFFFFFFFFFFFFFFFFFFFFF AND DUP2 PUSH1 0x0 ADD PUSH1 0x0 PUSH2 0x100 EXP DUP2 SLOAD DUP2 PUSH20 0xFFFFFFFFFFFFFFFFFFFFFFFFFFFFFFFFFFFFFFFF MUL NOT AND SWAP1 DUP4 PUSH20 0xFFFFFFFFFFFFFFFFFFFFFFFFFFFFFFFFFFFFFFFF AND MUL OR SWAP1 SSTORE POP PUSH1 0x1 DUP3 ADD DUP2 PUSH1 0x1 ADD SWAP1 DUP1 SLOAD PUSH2 0x196E SWAP1 PUSH2 0x600E JUMP JUMPDEST PUSH2 0x1979 SWAP3 SWAP2 SWAP1 PUSH2 0x5506 JUMP JUMPDEST POP PUSH1 0x2 DUP3 ADD DUP2 PUSH1 0x2 ADD SWAP1 DUP1 SLOAD PUSH2 0x198E SWAP1 PUSH2 0x600E JUMP JUMPDEST PUSH2 0x1999 SWAP3 SWAP2 SWAP1 PUSH2 0x5506 JUMP JUMPDEST POP POP POP PUSH1 0x13 DUP3 ADD PUSH1 0x0 SWAP1 SLOAD SWAP1 PUSH2 0x100 EXP SWAP1 DIV PUSH20 0xFFFFFFFFFFFFFFFFFFFFFFFFFFFFFFFFFFFFFFFF AND DUP2 PUSH1 0x13 ADD PUSH1 0x0 PUSH2 0x100 EXP DUP2 SLOAD DUP2 PUSH20 0xFFFFFFFFFFFFFFFFFFFFFFFFFFFFFFFFFFFFFFFF MUL NOT AND SWAP1 DUP4 PUSH20 0xFFFFFFFFFFFFFFFFFFFFFFFFFFFFFFFFFFFFFFFF AND MUL OR SWAP1 SSTORE POP PUSH1 0x14 DUP3 ADD DUP2 PUSH1 0x14 ADD SWAP1 DUP1 SLOAD PUSH2 0x1A17 SWAP1 PUSH2 0x600E JUMP JUMPDEST PUSH2 0x1A22 SWAP3 SWAP2 SWAP1 PUSH2 0x5506 JUMP JUMPDEST POP POP POP PUSH32 0xA22971300BA7D9CA2113CF57C3238CDE86A32CFBA0C31A13AD86A23BDE3FACF2 DUP6 PUSH1 0x40 MLOAD PUSH2 0x1A54 SWAP2 SWAP1 PUSH2 0x5CFC JUMP JUMPDEST PUSH1 0x40 MLOAD DUP1 SWAP2 SUB SWAP1 LOG1 POP POP POP POP POP JUMP JUMPDEST PUSH1 0x0 PUSH1 0x68 PUSH1 0x0 DUP4 DUP2 MSTORE PUSH1 0x20 ADD SWAP1 DUP2 MSTORE PUSH1 0x20 ADD PUSH1 0x0 KECCAK256 PUSH1 0x0 ADD DUP1 SLOAD SWAP1 POP SWAP1 POP SWAP2 SWAP1 POP JUMP JUMPDEST PUSH1 0x0 PUSH20 0xFFFFFFFFFFFFFFFFFFFFFFFFFFFFFFFFFFFFFFFF AND DUP2 PUSH20 0xFFFFFFFFFFFFFFFFFFFFFFFFFFFFFFFFFFFFFFFF AND EQ ISZERO PUSH2 0x1AC0 JUMPI PUSH1 0x0 DUP1 REVERT JUMPDEST PUSH2 0x1AC9 DUP2 PUSH2 0x481D JUMP JUMPDEST ISZERO PUSH2 0x1AD3 JUMPI PUSH1 0x0 DUP1 REVERT JUMPDEST PUSH1 0x1 PUSH1 0x69 PUSH1 0x0 DUP4 PUSH20 0xFFFFFFFFFFFFFFFFFFFFFFFFFFFFFFFFFFFFFFFF AND PUSH20 0xFFFFFFFFFFFFFFFFFFFFFFFFFFFFFFFFFFFFFFFF AND DUP2 MSTORE PUSH1 0x20 ADD SWAP1 DUP2 MSTORE PUSH1 0x20 ADD PUSH1 0x0 KECCAK256 PUSH1 0x0 ADD PUSH1 0x3 PUSH2 0x100 EXP DUP2 SLOAD DUP2 PUSH1 0xFF MUL NOT AND SWAP1 DUP4 ISZERO ISZERO MUL OR SWAP1 SSTORE POP POP JUMP JUMPDEST PUSH1 0x0 PUSH20 0xFFFFFFFFFFFFFFFFFFFFFFFFFFFFFFFFFFFFFFFF AND DUP2 PUSH20 0xFFFFFFFFFFFFFFFFFFFFFFFFFFFFFFFFFFFFFFFF AND EQ ISZERO PUSH2 0x1B6B JUMPI PUSH1 0x0 DUP1 REVERT JUMPDEST PUSH2 0x1B74 DUP2 PUSH2 0x478B JUMP JUMPDEST ISZERO PUSH2 0x1B7E JUMPI PUSH1 0x0 DUP1 REVERT JUMPDEST PUSH1 0x1 PUSH1 0x69 PUSH1 0x0 DUP4 PUSH20 0xFFFFFFFFFFFFFFFFFFFFFFFFFFFFFFFFFFFFFFFF AND PUSH20 0xFFFFFFFFFFFFFFFFFFFFFFFFFFFFFFFFFFFFFFFF AND DUP2 MSTORE PUSH1 0x20 ADD SWAP1 DUP2 MSTORE PUSH1 0x20 ADD PUSH1 0x0 KECCAK256 PUSH1 0x0 ADD PUSH1 0x1 PUSH2 0x100 EXP DUP2 SLOAD DUP2 PUSH1 0xFF MUL NOT AND SWAP1 DUP4 ISZERO ISZERO MUL OR SWAP1 SSTORE POP POP JUMP JUMPDEST PUSH1 0x0 DUP1 PUSH20 0xFFFFFFFFFFFFFFFFFFFFFFFFFFFFFFFFFFFFFFFF AND DUP3 PUSH20 0xFFFFFFFFFFFFFFFFFFFFFFFFFFFFFFFFFFFFFFFF AND EQ ISZERO PUSH2 0x1C17 JUMPI PUSH1 0x0 DUP1 REVERT JUMPDEST PUSH1 0x69 PUSH1 0x0 DUP4 PUSH20 0xFFFFFFFFFFFFFFFFFFFFFFFFFFFFFFFFFFFFFFFF AND PUSH20 0xFFFFFFFFFFFFFFFFFFFFFFFFFFFFFFFFFFFFFFFF AND DUP2 MSTORE PUSH1 0x20 ADD SWAP1 DUP2 MSTORE PUSH1 0x20 ADD PUSH1 0x0 KECCAK256 PUSH1 0x0 ADD PUSH1 0x0 SWAP1 SLOAD SWAP1 PUSH2 0x100 EXP SWAP1 DIV PUSH1 0xFF AND SWAP1 POP SWAP2 SWAP1 POP JUMP JUMPDEST PUSH1 0x0 DUP1 PUSH1 0x0 DUP1 PUSH1 0x60 DUP1 PUSH1 0x60 DUP1 PUSH1 0x0 PUSH1 0x67 PUSH1 0x0 DUP14 DUP2 MSTORE PUSH1 0x20 ADD SWAP1 DUP2 MSTORE PUSH1 0x20 ADD PUSH1 0x0 KECCAK256 PUSH1 0x0 ADD SLOAD EQ ISZERO PUSH2 0x1C9E JUMPI PUSH1 0x0 DUP1 REVERT JUMPDEST PUSH1 0x0 PUSH1 0x67 PUSH1 0x0 DUP14 DUP2 MSTORE PUSH1 0x20 ADD SWAP1 DUP2 MSTORE PUSH1 0x20 ADD PUSH1 0x0 KECCAK256 SWAP1 POP PUSH1 0x40 MLOAD DUP1 PUSH1 0x40 ADD PUSH1 0x40 MSTORE DUP1 PUSH1 0x7 DUP2 MSTORE PUSH1 0x20 ADD PUSH32 0x70726F6475637400000000000000000000000000000000000000000000000000 DUP2 MSTORE POP DUP1 MLOAD SWAP1 PUSH1 0x20 ADD KECCAK256 DUP12 DUP1 MLOAD SWAP1 PUSH1 0x20 ADD KECCAK256 EQ ISZERO PUSH2 0x1D16 JUMPI PUSH1 0x67 PUSH1 0x0 DUP14 DUP2 MSTORE PUSH1 0x20 ADD SWAP1 DUP2 MSTORE PUSH1 0x20 ADD PUSH1 0x0 KECCAK256 SWAP1 POP JUMPDEST PUSH1 0x40 MLOAD DUP1 PUSH1 0x40 ADD PUSH1 0x40 MSTORE DUP1 PUSH1 0x7 DUP2 MSTORE PUSH1 0x20 ADD PUSH32 0x686973746F727900000000000000000000000000000000000000000000000000 DUP2 MSTORE POP DUP1 MLOAD SWAP1 PUSH1 0x20 ADD KECCAK256 DUP12 DUP1 MLOAD SWAP1 PUSH1 0x20 ADD KECCAK256 EQ ISZERO PUSH2 0x1D9A JUMPI PUSH1 0x68 PUSH1 0x0 DUP14 DUP2 MSTORE PUSH1 0x20 ADD SWAP1 DUP2 MSTORE PUSH1 0x20 ADD PUSH1 0x0 KECCAK256 PUSH1 0x0 ADD DUP11 DUP2 SLOAD DUP2 LT PUSH2 0x1D89 JUMPI PUSH2 0x1D88 PUSH2 0x6147 JUMP JUMPDEST JUMPDEST SWAP1 PUSH1 0x0 MSTORE PUSH1 0x20 PUSH1 0x0 KECCAK256 SWAP1 PUSH1 0x15 MUL ADD SWAP1 POP JUMPDEST DUP1 PUSH1 0x0 ADD SLOAD DUP2 PUSH1 0x1 ADD SLOAD DUP3 PUSH1 0x2 ADD PUSH1 0x0 SWAP1 SLOAD SWAP1 PUSH2 0x100 EXP SWAP1 DIV PUSH20 0xFFFFFFFFFFFFFFFFFFFFFFFFFFFFFFFFFFFFFFFF AND DUP4 PUSH1 0x3 ADD PUSH1 0x0 ADD PUSH1 0x0 SWAP1 SLOAD SWAP1 PUSH2 0x100 EXP SWAP1 DIV PUSH20 0xFFFFFFFFFFFFFFFFFFFFFFFFFFFFFFFFFFFFFFFF AND DUP5 PUSH1 0x3 ADD PUSH1 0x1 ADD DUP6 PUSH1 0x3 ADD PUSH1 0x2 ADD DUP7 PUSH1 0x3 ADD PUSH1 0x3 ADD DUP8 PUSH1 0x3 ADD PUSH1 0x4 ADD DUP4 DUP1 SLOAD PUSH2 0x1E19 SWAP1 PUSH2 0x600E JUMP JUMPDEST DUP1 PUSH1 0x1F ADD PUSH1 0x20 DUP1 SWAP2 DIV MUL PUSH1 0x20 ADD PUSH1 0x40 MLOAD SWAP1 DUP2 ADD PUSH1 0x40 MSTORE DUP1 SWAP3 SWAP2 SWAP1 DUP2 DUP2 MSTORE PUSH1 0x20 ADD DUP3 DUP1 SLOAD PUSH2 0x1E45 SWAP1 PUSH2 0x600E JUMP JUMPDEST DUP1 ISZERO PUSH2 0x1E92 JUMPI DUP1 PUSH1 0x1F LT PUSH2 0x1E67 JUMPI PUSH2 0x100 DUP1 DUP4 SLOAD DIV MUL DUP4 MSTORE SWAP2 PUSH1 0x20 ADD SWAP2 PUSH2 0x1E92 JUMP JUMPDEST DUP3 ADD SWAP2 SWAP1 PUSH1 0x0 MSTORE PUSH1 0x20 PUSH1 0x0 KECCAK256 SWAP1 JUMPDEST DUP2 SLOAD DUP2 MSTORE SWAP1 PUSH1 0x1 ADD SWAP1 PUSH1 0x20 ADD DUP1 DUP4 GT PUSH2 0x1E75 JUMPI DUP3 SWAP1 SUB PUSH1 0x1F AND DUP3 ADD SWAP2 JUMPDEST POP POP POP POP POP SWAP4 POP DUP3 DUP1 SLOAD PUSH2 0x1EA5 SWAP1 PUSH2 0x600E JUMP JUMPDEST DUP1 PUSH1 0x1F ADD PUSH1 0x20 DUP1 SWAP2 DIV MUL PUSH1 0x20 ADD PUSH1 0x40 MLOAD SWAP1 DUP2 ADD PUSH1 0x40 MSTORE DUP1 SWAP3 SWAP2 SWAP1 DUP2 DUP2 MSTORE PUSH1 0x20 ADD DUP3 DUP1 SLOAD PUSH2 0x1ED1 SWAP1 PUSH2 0x600E JUMP JUMPDEST DUP1 ISZERO PUSH2 0x1F1E JUMPI DUP1 PUSH1 0x1F LT PUSH2 0x1EF3 JUMPI PUSH2 0x100 DUP1 DUP4 SLOAD DIV MUL DUP4 MSTORE SWAP2 PUSH1 0x20 ADD SWAP2 PUSH2 0x1F1E JUMP JUMPDEST DUP3 ADD SWAP2 SWAP1 PUSH1 0x0 MSTORE PUSH1 0x20 PUSH1 0x0 KECCAK256 SWAP1 JUMPDEST DUP2 SLOAD DUP2 MSTORE SWAP1 PUSH1 0x1 ADD SWAP1 PUSH1 0x20 ADD DUP1 DUP4 GT PUSH2 0x1F01 JUMPI DUP3 SWAP1 SUB PUSH1 0x1F AND DUP3 ADD SWAP2 JUMPDEST POP POP POP POP POP SWAP3 POP DUP2 DUP1 SLOAD PUSH2 0x1F31 SWAP1 PUSH2 0x600E JUMP JUMPDEST DUP1 PUSH1 0x1F ADD PUSH1 0x20 DUP1 SWAP2 DIV MUL PUSH1 0x20 ADD PUSH1 0x40 MLOAD SWAP1 DUP2 ADD PUSH1 0x40 MSTORE DUP1 SWAP3 SWAP2 SWAP1 DUP2 DUP2 MSTORE PUSH1 0x20 ADD DUP3 DUP1 SLOAD PUSH2 0x1F5D SWAP1 PUSH2 0x600E JUMP JUMPDEST DUP1 ISZERO PUSH2 0x1FAA JUMPI DUP1 PUSH1 0x1F LT PUSH2 0x1F7F JUMPI PUSH2 0x100 DUP1 DUP4 SLOAD DIV MUL DUP4 MSTORE SWAP2 PUSH1 0x20 ADD SWAP2 PUSH2 0x1FAA JUMP JUMPDEST DUP3 ADD SWAP2 SWAP1 PUSH1 0x0 MSTORE PUSH1 0x20 PUSH1 0x0 KECCAK256 SWAP1 JUMPDEST DUP2 SLOAD DUP2 MSTORE SWAP1 PUSH1 0x1 ADD SWAP1 PUSH1 0x20 ADD DUP1 DUP4 GT PUSH2 0x1F8D JUMPI DUP3 SWAP1 SUB PUSH1 0x1F AND DUP3 ADD SWAP2 JUMPDEST POP POP POP POP POP SWAP2 POP DUP1 DUP1 SLOAD PUSH2 0x1FBD SWAP1 PUSH2 0x600E JUMP JUMPDEST DUP1 PUSH1 0x1F ADD PUSH1 0x20 DUP1 SWAP2 DIV MUL PUSH1 0x20 ADD PUSH1 0x40 MLOAD SWAP1 DUP2 ADD PUSH1 0x40 MSTORE DUP1 SWAP3 SWAP2 SWAP1 DUP2 DUP2 MSTORE PUSH1 0x20 ADD DUP3 DUP1 SLOAD PUSH2 0x1FE9 SWAP1 PUSH2 0x600E JUMP JUMPDEST DUP1 ISZERO PUSH2 0x2036 JUMPI DUP1 PUSH1 0x1F LT PUSH2 0x200B JUMPI PUSH2 0x100 DUP1 DUP4 SLOAD DIV MUL DUP4 MSTORE SWAP2 PUSH1 0x20 ADD SWAP2 PUSH2 0x2036 JUMP JUMPDEST DUP3 ADD SWAP2 SWAP1 PUSH1 0x0 MSTORE PUSH1 0x20 PUSH1 0x0 KECCAK256 SWAP1 JUMPDEST DUP2 SLOAD DUP2 MSTORE SWAP1 PUSH1 0x1 ADD SWAP1 PUSH1 0x20 ADD DUP1 DUP4 GT PUSH2 0x2019 JUMPI DUP3 SWAP1 SUB PUSH1 0x1F AND DUP3 ADD SWAP2 JUMPDEST POP POP POP POP POP SWAP1 POP SWAP9 POP SWAP9 POP SWAP9 POP SWAP9 POP SWAP9 POP SWAP9 POP SWAP9 POP SWAP9 POP POP SWAP4 SWAP8 POP SWAP4 SWAP8 POP SWAP4 SWAP8 POP SWAP4 SWAP8 JUMP JUMPDEST DUP1 PUSH1 0x6 PUSH1 0x8 DUP2 GT ISZERO PUSH2 0x2070 JUMPI PUSH2 0x206F PUSH2 0x60E9 JUMP JUMPDEST JUMPDEST PUSH1 0x67 PUSH1 0x0 DUP4 DUP2 MSTORE PUSH1 0x20 ADD SWAP1 DUP2 MSTORE PUSH1 0x20 ADD PUSH1 0x0 KECCAK256 PUSH1 0x2 ADD PUSH1 0x14 SWAP1 SLOAD SWAP1 PUSH2 0x100 EXP SWAP1 DIV PUSH1 0xFF AND PUSH1 0x8 DUP2 GT ISZERO PUSH2 0x20A6 JUMPI PUSH2 0x20A5 PUSH2 0x60E9 JUMP JUMPDEST JUMPDEST EQ PUSH2 0x20B0 JUMPI PUSH1 0x0 DUP1 REVERT JUMPDEST PUSH1 0x67 PUSH1 0x0 DUP4 DUP2 MSTORE PUSH1 0x20 ADD SWAP1 DUP2 MSTORE PUSH1 0x20 ADD PUSH1 0x0 KECCAK256 PUSH1 0x2 ADD PUSH1 0x0 SWAP1 SLOAD SWAP1 PUSH2 0x100 EXP SWAP1 DIV PUSH20 0xFFFFFFFFFFFFFFFFFFFFFFFFFFFFFFFFFFFFFFFF AND DUP1 PUSH20 0xFFFFFFFFFFFFFFFFFFFFFFFFFFFFFFFFFFFFFFFF AND CALLER PUSH20 0xFFFFFFFFFFFFFFFFFFFFFFFFFFFFFFFFFFFFFFFF AND EQ PUSH2 0x211F JUMPI PUSH1 0x0 DUP1 REVERT JUMPDEST PUSH1 0x67 PUSH1 0x0 DUP5 DUP2 MSTORE PUSH1 0x20 ADD SWAP1 DUP2 MSTORE PUSH1 0x20 ADD PUSH1 0x0 KECCAK256 PUSH1 0x10 ADD PUSH1 0x0 ADD PUSH1 0x0 SWAP1 SLOAD SWAP1 PUSH2 0x100 EXP SWAP1 DIV PUSH20 0xFFFFFFFFFFFFFFFFFFFFFFFFFFFFFFFFFFFFFFFF AND DUP1 PUSH20 0xFFFFFFFFFFFFFFFFFFFFFFFFFFFFFFFFFFFFFFFF AND CALLER PUSH20 0xFFFFFFFFFFFFFFFFFFFFFFFFFFFFFFFFFFFFFFFF AND EQ PUSH2 0x2191 JUMPI PUSH1 0x0 DUP1 REVERT JUMPDEST PUSH2 0x219A CALLER PUSH2 0x481D JUMP JUMPDEST PUSH2 0x21A3 JUMPI PUSH1 0x0 DUP1 REVERT JUMPDEST PUSH1 0x7 PUSH1 0x67 PUSH1 0x0 DUP7 DUP2 MSTORE PUSH1 0x20 ADD SWAP1 DUP2 MSTORE PUSH1 0x20 ADD PUSH1 0x0 KECCAK256 PUSH1 0x2 ADD PUSH1 0x14 PUSH2 0x100 EXP DUP2 SLOAD DUP2 PUSH1 0xFF MUL NOT AND SWAP1 DUP4 PUSH1 0x8 DUP2 GT ISZERO PUSH2 0x21DD JUMPI PUSH2 0x21DC PUSH2 0x60E9 JUMP JUMPDEST JUMPDEST MUL OR SWAP1 SSTORE POP PUSH1 0x68 PUSH1 0x0 DUP6 DUP2 MSTORE PUSH1 0x20 ADD SWAP1 DUP2 MSTORE PUSH1 0x20 ADD PUSH1 0x0 KECCAK256 PUSH1 0x0 ADD PUSH1 0x67 PUSH1 0x0 DUP7 DUP2 MSTORE PUSH1 0x20 ADD SWAP1 DUP2 MSTORE PUSH1 0x20 ADD PUSH1 0x0 KECCAK256 SWAP1 DUP1 PUSH1 0x1 DUP2 SLOAD ADD DUP1 DUP3 SSTORE DUP1 SWAP2 POP POP PUSH1 0x1 SWAP1 SUB SWAP1 PUSH1 0x0 MSTORE PUSH1 0x20 PUSH1 0x0 KECCAK256 SWAP1 PUSH1 0x15 MUL ADD PUSH1 0x0 SWAP1 SWAP2 SWAP1 SWAP2 SWAP1 SWAP2 POP PUSH1 0x0 DUP3 ADD SLOAD DUP2 PUSH1 0x0 ADD SSTORE PUSH1 0x1 DUP3 ADD SLOAD DUP2 PUSH1 0x1 ADD SSTORE PUSH1 0x2 DUP3 ADD PUSH1 0x0 SWAP1 SLOAD SWAP1 PUSH2 0x100 EXP SWAP1 DIV PUSH20 0xFFFFFFFFFFFFFFFFFFFFFFFFFFFFFFFFFFFFFFFF AND DUP2 PUSH1 0x2 ADD PUSH1 0x0 PUSH2 0x100 EXP DUP2 SLOAD DUP2 PUSH20 0xFFFFFFFFFFFFFFFFFFFFFFFFFFFFFFFFFFFFFFFF MUL NOT AND SWAP1 DUP4 PUSH20 0xFFFFFFFFFFFFFFFFFFFFFFFFFFFFFFFFFFFFFFFF AND MUL OR SWAP1 SSTORE POP PUSH1 0x2 DUP3 ADD PUSH1 0x14 SWAP1 SLOAD SWAP1 PUSH2 0x100 EXP SWAP1 DIV PUSH1 0xFF AND DUP2 PUSH1 0x2 ADD PUSH1 0x14 PUSH2 0x100 EXP DUP2 SLOAD DUP2 PUSH1 0xFF MUL NOT AND SWAP1 DUP4 PUSH1 0x8 DUP2 GT ISZERO PUSH2 0x22E7 JUMPI PUSH2 0x22E6 PUSH2 0x60E9 JUMP JUMPDEST JUMPDEST MUL OR SWAP1 SSTORE POP PUSH1 0x3 DUP3 ADD DUP2 PUSH1 0x3 ADD PUSH1 0x0 DUP3 ADD PUSH1 0x0 SWAP1 SLOAD SWAP1 PUSH2 0x100 EXP SWAP1 DIV PUSH20 0xFFFFFFFFFFFFFFFFFFFFFFFFFFFFFFFFFFFFFFFF AND DUP2 PUSH1 0x0 ADD PUSH1 0x0 PUSH2 0x100 EXP DUP2 SLOAD DUP2 PUSH20 0xFFFFFFFFFFFFFFFFFFFFFFFFFFFFFFFFFFFFFFFF MUL NOT AND SWAP1 DUP4 PUSH20 0xFFFFFFFFFFFFFFFFFFFFFFFFFFFFFFFFFFFFFFFF AND MUL OR SWAP1 SSTORE POP PUSH1 0x1 DUP3 ADD DUP2 PUSH1 0x1 ADD SWAP1 DUP1 SLOAD PUSH2 0x236F SWAP1 PUSH2 0x600E JUMP JUMPDEST PUSH2 0x237A SWAP3 SWAP2 SWAP1 PUSH2 0x5506 JUMP JUMPDEST POP PUSH1 0x2 DUP3 ADD DUP2 PUSH1 0x2 ADD SWAP1 DUP1 SLOAD PUSH2 0x238F SWAP1 PUSH2 0x600E JUMP JUMPDEST PUSH2 0x239A SWAP3 SWAP2 SWAP1 PUSH2 0x5506 JUMP JUMPDEST POP PUSH1 0x3 DUP3 ADD DUP2 PUSH1 0x3 ADD SWAP1 DUP1 SLOAD PUSH2 0x23AF SWAP1 PUSH2 0x600E JUMP JUMPDEST PUSH2 0x23BA SWAP3 SWAP2 SWAP1 PUSH2 0x5506 JUMP JUMPDEST POP PUSH1 0x4 DUP3 ADD DUP2 PUSH1 0x4 ADD SWAP1 DUP1 SLOAD PUSH2 0x23CF SWAP1 PUSH2 0x600E JUMP JUMPDEST PUSH2 0x23DA SWAP3 SWAP2 SWAP1 PUSH2 0x5506 JUMP JUMPDEST POP PUSH1 0x5 DUP3 ADD SLOAD DUP2 PUSH1 0x5 ADD SSTORE POP POP PUSH1 0x9 DUP3 ADD DUP2 PUSH1 0x9 ADD PUSH1 0x0 DUP3 ADD PUSH1 0x0 SWAP1 SLOAD SWAP1 PUSH2 0x100 EXP SWAP1 DIV PUSH20 0xFFFFFFFFFFFFFFFFFFFFFFFFFFFFFFFFFFFFFFFF AND DUP2 PUSH1 0x0 ADD PUSH1 0x0 PUSH2 0x100 EXP DUP2 SLOAD DUP2 PUSH20 0xFFFFFFFFFFFFFFFFFFFFFFFFFFFFFFFFFFFFFFFF MUL NOT AND SWAP1 DUP4 PUSH20 0xFFFFFFFFFFFFFFFFFFFFFFFFFFFFFFFFFFFFFFFF AND MUL OR SWAP1 SSTORE POP PUSH1 0x1 DUP3 ADD DUP2 PUSH1 0x1 ADD SWAP1 DUP1 SLOAD PUSH2 0x246A SWAP1 PUSH2 0x600E JUMP JUMPDEST PUSH2 0x2475 SWAP3 SWAP2 SWAP1 PUSH2 0x5506 JUMP JUMPDEST POP PUSH1 0x2 DUP3 ADD DUP2 PUSH1 0x2 ADD SWAP1 DUP1 SLOAD PUSH2 0x248A SWAP1 PUSH2 0x600E JUMP JUMPDEST PUSH2 0x2495 SWAP3 SWAP2 SWAP1 PUSH2 0x5506 JUMP JUMPDEST POP POP POP PUSH1 0xC DUP3 ADD DUP2 PUSH1 0xC ADD PUSH1 0x0 DUP3 ADD DUP2 PUSH1 0x0 ADD SWAP1 DUP1 SLOAD PUSH2 0x24B4 SWAP1 PUSH2 0x600E JUMP JUMPDEST PUSH2 0x24BF SWAP3 SWAP2 SWAP1 PUSH2 0x5506 JUMP JUMPDEST POP PUSH1 0x1 DUP3 ADD SLOAD DUP2 PUSH1 0x1 ADD SSTORE PUSH1 0x2 DUP3 ADD SLOAD DUP2 PUSH1 0x2 ADD SSTORE PUSH1 0x3 DUP3 ADD DUP2 PUSH1 0x3 ADD SWAP1 DUP1 SLOAD PUSH2 0x24E8 SWAP1 PUSH2 0x600E JUMP JUMPDEST PUSH2 0x24F3 SWAP3 SWAP2 SWAP1 PUSH2 0x5506 JUMP JUMPDEST POP POP POP PUSH1 0x10 DUP3 ADD DUP2 PUSH1 0x10 ADD PUSH1 0x0 DUP3 ADD PUSH1 0x0 SWAP1 SLOAD SWAP1 PUSH2 0x100 EXP SWAP1 DIV PUSH20 0xFFFFFFFFFFFFFFFFFFFFFFFFFFFFFFFFFFFFFFFF AND DUP2 PUSH1 0x0 ADD PUSH1 0x0 PUSH2 0x100 EXP DUP2 SLOAD DUP2 PUSH20 0xFFFFFFFFFFFFFFFFFFFFFFFFFFFFFFFFFFFFFFFF MUL NOT AND SWAP1 DUP4 PUSH20 0xFFFFFFFFFFFFFFFFFFFFFFFFFFFFFFFFFFFFFFFF AND MUL OR SWAP1 SSTORE POP PUSH1 0x1 DUP3 ADD DUP2 PUSH1 0x1 ADD SWAP1 DUP1 SLOAD PUSH2 0x2579 SWAP1 PUSH2 0x600E JUMP JUMPDEST PUSH2 0x2584 SWAP3 SWAP2 SWAP1 PUSH2 0x5506 JUMP JUMPDEST POP PUSH1 0x2 DUP3 ADD DUP2 PUSH1 0x2 ADD SWAP1 DUP1 SLOAD PUSH2 0x2599 SWAP1 PUSH2 0x600E JUMP JUMPDEST PUSH2 0x25A4 SWAP3 SWAP2 SWAP1 PUSH2 0x5506 JUMP JUMPDEST POP POP POP PUSH1 0x13 DUP3 ADD PUSH1 0x0 SWAP1 SLOAD SWAP1 PUSH2 0x100 EXP SWAP1 DIV PUSH20 0xFFFFFFFFFFFFFFFFFFFFFFFFFFFFFFFFFFFFFFFF AND DUP2 PUSH1 0x13 ADD PUSH1 0x0 PUSH2 0x100 EXP DUP2 SLOAD DUP2 PUSH20 0xFFFFFFFFFFFFFFFFFFFFFFFFFFFFFFFFFFFFFFFF MUL NOT AND SWAP1 DUP4 PUSH20 0xFFFFFFFFFFFFFFFFFFFFFFFFFFFFFFFFFFFFFFFF AND MUL OR SWAP1 SSTORE POP PUSH1 0x14 DUP3 ADD DUP2 PUSH1 0x14 ADD SWAP1 DUP1 SLOAD PUSH2 0x2622 SWAP1 PUSH2 0x600E JUMP JUMPDEST PUSH2 0x262D SWAP3 SWAP2 SWAP1 PUSH2 0x5506 JUMP JUMPDEST POP POP POP PUSH32 0x9A96442E96AC96BA57E48273F290BF3BB9C6B0B2C86843CC4BF2353119918FDF DUP5 PUSH1 0x40 MLOAD PUSH2 0x265F SWAP2 SWAP1 PUSH2 0x5CFC JUMP JUMPDEST PUSH1 0x40 MLOAD DUP1 SWAP2 SUB SWAP1 LOG1 POP POP POP POP JUMP JUMPDEST PUSH1 0x0 PUSH1 0x60 PUSH1 0x0 DUP1 PUSH1 0x60 PUSH1 0x0 DUP1 PUSH1 0x60 PUSH1 0x0 PUSH1 0x67 PUSH1 0x0 DUP14 DUP2 MSTORE PUSH1 0x20 ADD SWAP1 DUP2 MSTORE PUSH1 0x20 ADD PUSH1 0x0 KECCAK256 PUSH1 0x0 ADD SLOAD EQ ISZERO PUSH2 0x269F JUMPI PUSH1 0x0 DUP1 REVERT JUMPDEST PUSH1 0x0 PUSH1 0x67 PUSH1 0x0 DUP14 DUP2 MSTORE PUSH1 0x20 ADD SWAP1 DUP2 MSTORE PUSH1 0x20 ADD PUSH1 0x0 KECCAK256 SWAP1 POP PUSH1 0x40 MLOAD DUP1 PUSH1 0x40 ADD PUSH1 0x40 MSTORE DUP1 PUSH1 0x7 DUP2 MSTORE PUSH1 0x20 ADD PUSH32 0x70726F6475637400000000000000000000000000000000000000000000000000 DUP2 MSTORE POP DUP1 MLOAD SWAP1 PUSH1 0x20 ADD KECCAK256 DUP12 DUP1 MLOAD SWAP1 PUSH1 0x20 ADD KECCAK256 EQ ISZERO PUSH2 0x2717 JUMPI PUSH1 0x67 PUSH1 0x0 DUP14 DUP2 MSTORE PUSH1 0x20 ADD SWAP1 DUP2 MSTORE PUSH1 0x20 ADD PUSH1 0x0 KECCAK256 SWAP1 POP JUMPDEST PUSH1 0x40 MLOAD DUP1 PUSH1 0x40 ADD PUSH1 0x40 MSTORE DUP1 PUSH1 0x7 DUP2 MSTORE PUSH1 0x20 ADD PUSH32 0x686973746F727900000000000000000000000000000000000000000000000000 DUP2 MSTORE POP DUP1 MLOAD SWAP1 PUSH1 0x20 ADD KECCAK256 DUP12 DUP1 MLOAD SWAP1 PUSH1 0x20 ADD KECCAK256 EQ ISZERO PUSH2 0x279B JUMPI PUSH1 0x68 PUSH1 0x0 DUP14 DUP2 MSTORE PUSH1 0x20 ADD SWAP1 DUP2 MSTORE PUSH1 0x20 ADD PUSH1 0x0 KECCAK256 PUSH1 0x0 ADD DUP11 DUP2 SLOAD DUP2 LT PUSH2 0x278A JUMPI PUSH2 0x2789 PUSH2 0x6147 JUMP JUMPDEST JUMPDEST SWAP1 PUSH1 0x0 MSTORE PUSH1 0x20 PUSH1 0x0 KECCAK256 SWAP1 PUSH1 0x15 MUL ADD SWAP1 POP JUMPDEST DUP1 PUSH1 0x3 ADD PUSH1 0x5 ADD SLOAD DUP2 PUSH1 0xC ADD PUSH1 0x0 ADD DUP3 PUSH1 0xC ADD PUSH1 0x1 ADD SLOAD DUP4 PUSH1 0xC ADD PUSH1 0x2 ADD SLOAD DUP5 PUSH1 0xC ADD PUSH1 0x3 ADD DUP6 PUSH1 0x2 ADD PUSH1 0x14 SWAP1 SLOAD SWAP1 PUSH2 0x100 EXP SWAP1 DIV PUSH1 0xFF AND DUP7 PUSH1 0x9 ADD PUSH1 0x0 ADD PUSH1 0x0 SWAP1 SLOAD SWAP1 PUSH2 0x100 EXP SWAP1 DIV PUSH20 0xFFFFFFFFFFFFFFFFFFFFFFFFFFFFFFFFFFFFFFFF AND DUP8 PUSH1 0x9 ADD PUSH1 0x1 ADD DUP7 DUP1 SLOAD PUSH2 0x280E SWAP1 PUSH2 0x600E JUMP JUMPDEST DUP1 PUSH1 0x1F ADD PUSH1 0x20 DUP1 SWAP2 DIV MUL PUSH1 0x20 ADD PUSH1 0x40 MLOAD SWAP1 DUP2 ADD PUSH1 0x40 MSTORE DUP1 SWAP3 SWAP2 SWAP1 DUP2 DUP2 MSTORE PUSH1 0x20 ADD DUP3 DUP1 SLOAD PUSH2 0x283A SWAP1 PUSH2 0x600E JUMP JUMPDEST DUP1 ISZERO PUSH2 0x2887 JUMPI DUP1 PUSH1 0x1F LT PUSH2 0x285C JUMPI PUSH2 0x100 DUP1 DUP4 SLOAD DIV MUL DUP4 MSTORE SWAP2 PUSH1 0x20 ADD SWAP2 PUSH2 0x2887 JUMP JUMPDEST DUP3 ADD SWAP2 SWAP1 PUSH1 0x0 MSTORE PUSH1 0x20 PUSH1 0x0 KECCAK256 SWAP1 JUMPDEST DUP2 SLOAD DUP2 MSTORE SWAP1 PUSH1 0x1 ADD SWAP1 PUSH1 0x20 ADD DUP1 DUP4 GT PUSH2 0x286A JUMPI DUP3 SWAP1 SUB PUSH1 0x1F AND DUP3 ADD SWAP2 JUMPDEST POP POP POP POP POP SWAP7 POP DUP4 DUP1 SLOAD PUSH2 0x289A SWAP1 PUSH2 0x600E JUMP JUMPDEST DUP1 PUSH1 0x1F ADD PUSH1 0x20 DUP1 SWAP2 DIV MUL PUSH1 0x20 ADD PUSH1 0x40 MLOAD SWAP1 DUP2 ADD PUSH1 0x40 MSTORE DUP1 SWAP3 SWAP2 SWAP1 DUP2 DUP2 MSTORE PUSH1 0x20 ADD DUP3 DUP1 SLOAD PUSH2 0x28C6 SWAP1 PUSH2 0x600E JUMP JUMPDEST DUP1 ISZERO PUSH2 0x2913 JUMPI DUP1 PUSH1 0x1F LT PUSH2 0x28E8 JUMPI PUSH2 0x100 DUP1 DUP4 SLOAD DIV MUL DUP4 MSTORE SWAP2 PUSH1 0x20 ADD SWAP2 PUSH2 0x2913 JUMP JUMPDEST DUP3 ADD SWAP2 SWAP1 PUSH1 0x0 MSTORE PUSH1 0x20 PUSH1 0x0 KECCAK256 SWAP1 JUMPDEST DUP2 SLOAD DUP2 MSTORE SWAP1 PUSH1 0x1 ADD SWAP1 PUSH1 0x20 ADD DUP1 DUP4 GT PUSH2 0x28F6 JUMPI DUP3 SWAP1 SUB PUSH1 0x1F AND DUP3 ADD SWAP2 JUMPDEST POP POP POP POP POP SWAP4 POP DUP1 DUP1 SLOAD PUSH2 0x2926 SWAP1 PUSH2 0x600E JUMP JUMPDEST DUP1 PUSH1 0x1F ADD PUSH1 0x20 DUP1 SWAP2 DIV MUL PUSH1 0x20 ADD PUSH1 0x40 MLOAD SWAP1 DUP2 ADD PUSH1 0x40 MSTORE DUP1 SWAP3 SWAP2 SWAP1 DUP2 DUP2 MSTORE PUSH1 0x20 ADD DUP3 DUP1 SLOAD PUSH2 0x2952 SWAP1 PUSH2 0x600E JUMP JUMPDEST DUP1 ISZERO PUSH2 0x299F JUMPI DUP1 PUSH1 0x1F LT PUSH2 0x2974 JUMPI PUSH2 0x100 DUP1 DUP4 SLOAD DIV MUL DUP4 MSTORE SWAP2 PUSH1 0x20 ADD SWAP2 PUSH2 0x299F JUMP JUMPDEST DUP3 ADD SWAP2 SWAP1 PUSH1 0x0 MSTORE PUSH1 0x20 PUSH1 0x0 KECCAK256 SWAP1 JUMPDEST DUP2 SLOAD DUP2 MSTORE SWAP1 PUSH1 0x1 ADD SWAP1 PUSH1 0x20 ADD DUP1 DUP4 GT PUSH2 0x2982 JUMPI DUP3 SWAP1 SUB PUSH1 0x1F AND DUP3 ADD SWAP2 JUMPDEST POP POP POP POP POP SWAP1 POP SWAP9 POP SWAP9 POP SWAP9 POP SWAP9 POP SWAP9 POP SWAP9 POP SWAP9 POP SWAP9 POP POP SWAP4 SWAP8 POP SWAP4 SWAP8 POP SWAP4 SWAP8 POP SWAP4 SWAP8 JUMP JUMPDEST PUSH2 0x29CC PUSH2 0x51AE JUMP JUMPDEST PUSH2 0x29D6 PUSH1 0x0 PUSH2 0x522C JUMP JUMPDEST JUMP JUMPDEST DUP1 PUSH1 0x3 PUSH1 0x8 DUP2 GT ISZERO PUSH2 0x29ED JUMPI PUSH2 0x29EC PUSH2 0x60E9 JUMP JUMPDEST JUMPDEST PUSH1 0x67 PUSH1 0x0 DUP4 DUP2 MSTORE PUSH1 0x20 ADD SWAP1 DUP2 MSTORE PUSH1 0x20 ADD PUSH1 0x0 KECCAK256 PUSH1 0x2 ADD PUSH1 0x14 SWAP1 SLOAD SWAP1 PUSH2 0x100 EXP SWAP1 DIV PUSH1 0xFF AND PUSH1 0x8 DUP2 GT ISZERO PUSH2 0x2A23 JUMPI PUSH2 0x2A22 PUSH2 0x60E9 JUMP JUMPDEST JUMPDEST EQ PUSH2 0x2A2D JUMPI PUSH1 0x0 DUP1 REVERT JUMPDEST PUSH2 0x2A36 CALLER PUSH2 0xE30 JUMP JUMPDEST PUSH2 0x2A3F JUMPI PUSH1 0x0 DUP1 REVERT JUMPDEST CALLER PUSH1 0x67 PUSH1 0x0 DUP5 DUP2 MSTORE PUSH1 0x20 ADD SWAP1 DUP2 MSTORE PUSH1 0x20 ADD PUSH1 0x0 KECCAK256 PUSH1 0x13 ADD PUSH1 0x0 PUSH2 0x100 EXP DUP2 SLOAD DUP2 PUSH20 0xFFFFFFFFFFFFFFFFFFFFFFFFFFFFFFFFFFFFFFFF MUL NOT AND SWAP1 DUP4 PUSH20 0xFFFFFFFFFFFFFFFFFFFFFFFFFFFFFFFFFFFFFFFF AND MUL OR SWAP1 SSTORE POP PUSH1 0x4 PUSH1 0x67 PUSH1 0x0 DUP5 DUP2 MSTORE PUSH1 0x20 ADD SWAP1 DUP2 MSTORE PUSH1 0x20 ADD PUSH1 0x0 KECCAK256 PUSH1 0x2 ADD PUSH1 0x14 PUSH2 0x100 EXP DUP2 SLOAD DUP2 PUSH1 0xFF MUL NOT AND SWAP1 DUP4 PUSH1 0x8 DUP2 GT ISZERO PUSH2 0x2ACE JUMPI PUSH2 0x2ACD PUSH2 0x60E9 JUMP JUMPDEST JUMPDEST MUL OR SWAP1 SSTORE POP PUSH1 0x68 PUSH1 0x0 DUP4 DUP2 MSTORE PUSH1 0x20 ADD SWAP1 DUP2 MSTORE PUSH1 0x20 ADD PUSH1 0x0 KECCAK256 PUSH1 0x0 ADD PUSH1 0x67 PUSH1 0x0 DUP5 DUP2 MSTORE PUSH1 0x20 ADD SWAP1 DUP2 MSTORE PUSH1 0x20 ADD PUSH1 0x0 KECCAK256 SWAP1 DUP1 PUSH1 0x1 DUP2 SLOAD ADD DUP1 DUP3 SSTORE DUP1 SWAP2 POP POP PUSH1 0x1 SWAP1 SUB SWAP1 PUSH1 0x0 MSTORE PUSH1 0x20 PUSH1 0x0 KECCAK256 SWAP1 PUSH1 0x15 MUL ADD PUSH1 0x0 SWAP1 SWAP2 SWAP1 SWAP2 SWAP1 SWAP2 POP PUSH1 0x0 DUP3 ADD SLOAD DUP2 PUSH1 0x0 ADD SSTORE PUSH1 0x1 DUP3 ADD SLOAD DUP2 PUSH1 0x1 ADD SSTORE PUSH1 0x2 DUP3 ADD PUSH1 0x0 SWAP1 SLOAD SWAP1 PUSH2 0x100 EXP SWAP1 DIV PUSH20 0xFFFFFFFFFFFFFFFFFFFFFFFFFFFFFFFFFFFFFFFF AND DUP2 PUSH1 0x2 ADD PUSH1 0x0 PUSH2 0x100 EXP DUP2 SLOAD DUP2 PUSH20 0xFFFFFFFFFFFFFFFFFFFFFFFFFFFFFFFFFFFFFFFF MUL NOT AND SWAP1 DUP4 PUSH20 0xFFFFFFFFFFFFFFFFFFFFFFFFFFFFFFFFFFFFFFFF AND MUL OR SWAP1 SSTORE POP PUSH1 0x2 DUP3 ADD PUSH1 0x14 SWAP1 SLOAD SWAP1 PUSH2 0x100 EXP SWAP1 DIV PUSH1 0xFF AND DUP2 PUSH1 0x2 ADD PUSH1 0x14 PUSH2 0x100 EXP DUP2 SLOAD DUP2 PUSH1 0xFF MUL NOT AND SWAP1 DUP4 PUSH1 0x8 DUP2 GT ISZERO PUSH2 0x2BD8 JUMPI PUSH2 0x2BD7 PUSH2 0x60E9 JUMP JUMPDEST JUMPDEST MUL OR SWAP1 SSTORE POP PUSH1 0x3 DUP3 ADD DUP2 PUSH1 0x3 ADD PUSH1 0x0 DUP3 ADD PUSH1 0x0 SWAP1 SLOAD SWAP1 PUSH2 0x100 EXP SWAP1 DIV PUSH20 0xFFFFFFFFFFFFFFFFFFFFFFFFFFFFFFFFFFFFFFFF AND DUP2 PUSH1 0x0 ADD PUSH1 0x0 PUSH2 0x100 EXP DUP2 SLOAD DUP2 PUSH20 0xFFFFFFFFFFFFFFFFFFFFFFFFFFFFFFFFFFFFFFFF MUL NOT AND SWAP1 DUP4 PUSH20 0xFFFFFFFFFFFFFFFFFFFFFFFFFFFFFFFFFFFFFFFF AND MUL OR SWAP1 SSTORE POP PUSH1 0x1 DUP3 ADD DUP2 PUSH1 0x1 ADD SWAP1 DUP1 SLOAD PUSH2 0x2C60 SWAP1 PUSH2 0x600E JUMP JUMPDEST PUSH2 0x2C6B SWAP3 SWAP2 SWAP1 PUSH2 0x5506 JUMP JUMPDEST POP PUSH1 0x2 DUP3 ADD DUP2 PUSH1 0x2 ADD SWAP1 DUP1 SLOAD PUSH2 0x2C80 SWAP1 PUSH2 0x600E JUMP JUMPDEST PUSH2 0x2C8B SWAP3 SWAP2 SWAP1 PUSH2 0x5506 JUMP JUMPDEST POP PUSH1 0x3 DUP3 ADD DUP2 PUSH1 0x3 ADD SWAP1 DUP1 SLOAD PUSH2 0x2CA0 SWAP1 PUSH2 0x600E JUMP JUMPDEST PUSH2 0x2CAB SWAP3 SWAP2 SWAP1 PUSH2 0x5506 JUMP JUMPDEST POP PUSH1 0x4 DUP3 ADD DUP2 PUSH1 0x4 ADD SWAP1 DUP1 SLOAD PUSH2 0x2CC0 SWAP1 PUSH2 0x600E JUMP JUMPDEST PUSH2 0x2CCB SWAP3 SWAP2 SWAP1 PUSH2 0x5506 JUMP JUMPDEST POP PUSH1 0x5 DUP3 ADD SLOAD DUP2 PUSH1 0x5 ADD SSTORE POP POP PUSH1 0x9 DUP3 ADD DUP2 PUSH1 0x9 ADD PUSH1 0x0 DUP3 ADD PUSH1 0x0 SWAP1 SLOAD SWAP1 PUSH2 0x100 EXP SWAP1 DIV PUSH20 0xFFFFFFFFFFFFFFFFFFFFFFFFFFFFFFFFFFFFFFFF AND DUP2 PUSH1 0x0 ADD PUSH1 0x0 PUSH2 0x100 EXP DUP2 SLOAD DUP2 PUSH20 0xFFFFFFFFFFFFFFFFFFFFFFFFFFFFFFFFFFFFFFFF MUL NOT AND SWAP1 DUP4 PUSH20 0xFFFFFFFFFFFFFFFFFFFFFFFFFFFFFFFFFFFFFFFF AND MUL OR SWAP1 SSTORE POP PUSH1 0x1 DUP3 ADD DUP2 PUSH1 0x1 ADD SWAP1 DUP1 SLOAD PUSH2 0x2D5B SWAP1 PUSH2 0x600E JUMP JUMPDEST PUSH2 0x2D66 SWAP3 SWAP2 SWAP1 PUSH2 0x5506 JUMP JUMPDEST POP PUSH1 0x2 DUP3 ADD DUP2 PUSH1 0x2 ADD SWAP1 DUP1 SLOAD PUSH2 0x2D7B SWAP1 PUSH2 0x600E JUMP JUMPDEST PUSH2 0x2D86 SWAP3 SWAP2 SWAP1 PUSH2 0x5506 JUMP JUMPDEST POP POP POP PUSH1 0xC DUP3 ADD DUP2 PUSH1 0xC ADD PUSH1 0x0 DUP3 ADD DUP2 PUSH1 0x0 ADD SWAP1 DUP1 SLOAD PUSH2 0x2DA5 SWAP1 PUSH2 0x600E JUMP JUMPDEST PUSH2 0x2DB0 SWAP3 SWAP2 SWAP1 PUSH2 0x5506 JUMP JUMPDEST POP PUSH1 0x1 DUP3 ADD SLOAD DUP2 PUSH1 0x1 ADD SSTORE PUSH1 0x2 DUP3 ADD SLOAD DUP2 PUSH1 0x2 ADD SSTORE PUSH1 0x3 DUP3 ADD DUP2 PUSH1 0x3 ADD SWAP1 DUP1 SLOAD PUSH2 0x2DD9 SWAP1 PUSH2 0x600E JUMP JUMPDEST PUSH2 0x2DE4 SWAP3 SWAP2 SWAP1 PUSH2 0x5506 JUMP JUMPDEST POP POP POP PUSH1 0x10 DUP3 ADD DUP2 PUSH1 0x10 ADD PUSH1 0x0 DUP3 ADD PUSH1 0x0 SWAP1 SLOAD SWAP1 PUSH2 0x100 EXP SWAP1 DIV PUSH20 0xFFFFFFFFFFFFFFFFFFFFFFFFFFFFFFFFFFFFFFFF AND DUP2 PUSH1 0x0 ADD PUSH1 0x0 PUSH2 0x100 EXP DUP2 SLOAD DUP2 PUSH20 0xFFFFFFFFFFFFFFFFFFFFFFFFFFFFFFFFFFFFFFFF MUL NOT AND SWAP1 DUP4 PUSH20 0xFFFFFFFFFFFFFFFFFFFFFFFFFFFFFFFFFFFFFFFF AND MUL OR SWAP1 SSTORE POP PUSH1 0x1 DUP3 ADD DUP2 PUSH1 0x1 ADD SWAP1 DUP1 SLOAD PUSH2 0x2E6A SWAP1 PUSH2 0x600E JUMP JUMPDEST PUSH2 0x2E75 SWAP3 SWAP2 SWAP1 PUSH2 0x5506 JUMP JUMPDEST POP PUSH1 0x2 DUP3 ADD DUP2 PUSH1 0x2 ADD SWAP1 DUP1 SLOAD PUSH2 0x2E8A SWAP1 PUSH2 0x600E JUMP JUMPDEST PUSH2 0x2E95 SWAP3 SWAP2 SWAP1 PUSH2 0x5506 JUMP JUMPDEST POP POP POP PUSH1 0x13 DUP3 ADD PUSH1 0x0 SWAP1 SLOAD SWAP1 PUSH2 0x100 EXP SWAP1 DIV PUSH20 0xFFFFFFFFFFFFFFFFFFFFFFFFFFFFFFFFFFFFFFFF AND DUP2 PUSH1 0x13 ADD PUSH1 0x0 PUSH2 0x100 EXP DUP2 SLOAD DUP2 PUSH20 0xFFFFFFFFFFFFFFFFFFFFFFFFFFFFFFFFFFFFFFFF MUL NOT AND SWAP1 DUP4 PUSH20 0xFFFFFFFFFFFFFFFFFFFFFFFFFFFFFFFFFFFFFFFF AND MUL OR SWAP1 SSTORE POP PUSH1 0x14 DUP3 ADD DUP2 PUSH1 0x14 ADD SWAP1 DUP1 SLOAD PUSH2 0x2F13 SWAP1 PUSH2 0x600E JUMP JUMPDEST PUSH2 0x2F1E SWAP3 SWAP2 SWAP1 PUSH2 0x5506 JUMP JUMPDEST POP POP POP PUSH32 0xFD054E59D299873FAB61A3C67D86D3A139B75DCD5CD82894D8983FC5E2669C82 DUP3 PUSH1 0x40 MLOAD PUSH2 0x2F50 SWAP2 SWAP1 PUSH2 0x5CFC JUMP JUMPDEST PUSH1 0x40 MLOAD DUP1 SWAP2 SUB SWAP1 LOG1 POP POP JUMP JUMPDEST DUP1 PUSH1 0x7 PUSH1 0x8 DUP2 GT ISZERO PUSH2 0x2F71 JUMPI PUSH2 0x2F70 PUSH2 0x60E9 JUMP JUMPDEST JUMPDEST PUSH1 0x67 PUSH1 0x0 DUP4 DUP2 MSTORE PUSH1 0x20 ADD SWAP1 DUP2 MSTORE PUSH1 0x20 ADD PUSH1 0x0 KECCAK256 PUSH1 0x2 ADD PUSH1 0x14 SWAP1 SLOAD SWAP1 PUSH2 0x100 EXP SWAP1 DIV PUSH1 0xFF AND PUSH1 0x8 DUP2 GT ISZERO PUSH2 0x2FA7 JUMPI PUSH2 0x2FA6 PUSH2 0x60E9 JUMP JUMPDEST JUMPDEST EQ PUSH2 0x2FB1 JUMPI PUSH1 0x0 DUP1 REVERT JUMPDEST PUSH1 0x67 PUSH1 0x0 DUP4 DUP2 MSTORE PUSH1 0x20 ADD SWAP1 DUP2 MSTORE PUSH1 0x20 ADD PUSH1 0x0 KECCAK256 PUSH1 0x13 ADD PUSH1 0x0 SWAP1 SLOAD SWAP1 PUSH2 0x100 EXP SWAP1 DIV PUSH20 0xFFFFFFFFFFFFFFFFFFFFFFFFFFFFFFFFFFFFFFFF AND DUP1 PUSH20 0xFFFFFFFFFFFFFFFFFFFFFFFFFFFFFFFFFFFFFFFF AND CALLER PUSH20 0xFFFFFFFFFFFFFFFFFFFFFFFFFFFFFFFFFFFFFFFF AND EQ PUSH2 0x3020 JUMPI PUSH1 0x0 DUP1 REVERT JUMPDEST PUSH2 0x3029 CALLER PUSH2 0xE30 JUMP JUMPDEST PUSH2 0x3032 JUMPI PUSH1 0x0 DUP1 REVERT JUMPDEST CALLER PUSH1 0x67 PUSH1 0x0 DUP6 DUP2 MSTORE PUSH1 0x20 ADD SWAP1 DUP2 MSTORE PUSH1 0x20 ADD PUSH1 0x0 KECCAK256 PUSH1 0x2 ADD PUSH1 0x0 PUSH2 0x100 EXP DUP2 SLOAD DUP2 PUSH20 0xFFFFFFFFFFFFFFFFFFFFFFFFFFFFFFFFFFFFFFFF MUL NOT AND SWAP1 DUP4 PUSH20 0xFFFFFFFFFFFFFFFFFFFFFFFFFFFFFFFFFFFFFFFF AND MUL OR SWAP1 SSTORE POP PUSH1 0x8 PUSH1 0x67 PUSH1 0x0 DUP6 DUP2 MSTORE PUSH1 0x20 ADD SWAP1 DUP2 MSTORE PUSH1 0x20 ADD PUSH1 0x0 KECCAK256 PUSH1 0x2 ADD PUSH1 0x14 PUSH2 0x100 EXP DUP2 SLOAD DUP2 PUSH1 0xFF MUL NOT AND SWAP1 DUP4 PUSH1 0x8 DUP2 GT ISZERO PUSH2 0x30C1 JUMPI PUSH2 0x30C0 PUSH2 0x60E9 JUMP JUMPDEST JUMPDEST MUL OR SWAP1 SSTORE POP PUSH1 0x68 PUSH1 0x0 DUP5 DUP2 MSTORE PUSH1 0x20 ADD SWAP1 DUP2 MSTORE PUSH1 0x20 ADD PUSH1 0x0 KECCAK256 PUSH1 0x0 ADD PUSH1 0x67 PUSH1 0x0 DUP6 DUP2 MSTORE PUSH1 0x20 ADD SWAP1 DUP2 MSTORE PUSH1 0x20 ADD PUSH1 0x0 KECCAK256 SWAP1 DUP1 PUSH1 0x1 DUP2 SLOAD ADD DUP1 DUP3 SSTORE DUP1 SWAP2 POP POP PUSH1 0x1 SWAP1 SUB SWAP1 PUSH1 0x0 MSTORE PUSH1 0x20 PUSH1 0x0 KECCAK256 SWAP1 PUSH1 0x15 MUL ADD PUSH1 0x0 SWAP1 SWAP2 SWAP1 SWAP2 SWAP1 SWAP2 POP PUSH1 0x0 DUP3 ADD SLOAD DUP2 PUSH1 0x0 ADD SSTORE PUSH1 0x1 DUP3 ADD SLOAD DUP2 PUSH1 0x1 ADD SSTORE PUSH1 0x2 DUP3 ADD PUSH1 0x0 SWAP1 SLOAD SWAP1 PUSH2 0x100 EXP SWAP1 DIV PUSH20 0xFFFFFFFFFFFFFFFFFFFFFFFFFFFFFFFFFFFFFFFF AND DUP2 PUSH1 0x2 ADD PUSH1 0x0 PUSH2 0x100 EXP DUP2 SLOAD DUP2 PUSH20 0xFFFFFFFFFFFFFFFFFFFFFFFFFFFFFFFFFFFFFFFF MUL NOT AND SWAP1 DUP4 PUSH20 0xFFFFFFFFFFFFFFFFFFFFFFFFFFFFFFFFFFFFFFFF AND MUL OR SWAP1 SSTORE POP PUSH1 0x2 DUP3 ADD PUSH1 0x14 SWAP1 SLOAD SWAP1 PUSH2 0x100 EXP SWAP1 DIV PUSH1 0xFF AND DUP2 PUSH1 0x2 ADD PUSH1 0x14 PUSH2 0x100 EXP DUP2 SLOAD DUP2 PUSH1 0xFF MUL NOT AND SWAP1 DUP4 PUSH1 0x8 DUP2 GT ISZERO PUSH2 0x31CB JUMPI PUSH2 0x31CA PUSH2 0x60E9 JUMP JUMPDEST JUMPDEST MUL OR SWAP1 SSTORE POP PUSH1 0x3 DUP3 ADD DUP2 PUSH1 0x3 ADD PUSH1 0x0 DUP3 ADD PUSH1 0x0 SWAP1 SLOAD SWAP1 PUSH2 0x100 EXP SWAP1 DIV PUSH20 0xFFFFFFFFFFFFFFFFFFFFFFFFFFFFFFFFFFFFFFFF AND DUP2 PUSH1 0x0 ADD PUSH1 0x0 PUSH2 0x100 EXP DUP2 SLOAD DUP2 PUSH20 0xFFFFFFFFFFFFFFFFFFFFFFFFFFFFFFFFFFFFFFFF MUL NOT AND SWAP1 DUP4 PUSH20 0xFFFFFFFFFFFFFFFFFFFFFFFFFFFFFFFFFFFFFFFF AND MUL OR SWAP1 SSTORE POP PUSH1 0x1 DUP3 ADD DUP2 PUSH1 0x1 ADD SWAP1 DUP1 SLOAD PUSH2 0x3253 SWAP1 PUSH2 0x600E JUMP JUMPDEST PUSH2 0x325E SWAP3 SWAP2 SWAP1 PUSH2 0x5506 JUMP JUMPDEST POP PUSH1 0x2 DUP3 ADD DUP2 PUSH1 0x2 ADD SWAP1 DUP1 SLOAD PUSH2 0x3273 SWAP1 PUSH2 0x600E JUMP JUMPDEST PUSH2 0x327E SWAP3 SWAP2 SWAP1 PUSH2 0x5506 JUMP JUMPDEST POP PUSH1 0x3 DUP3 ADD DUP2 PUSH1 0x3 ADD SWAP1 DUP1 SLOAD PUSH2 0x3293 SWAP1 PUSH2 0x600E JUMP JUMPDEST PUSH2 0x329E SWAP3 SWAP2 SWAP1 PUSH2 0x5506 JUMP JUMPDEST POP PUSH1 0x4 DUP3 ADD DUP2 PUSH1 0x4 ADD SWAP1 DUP1 SLOAD PUSH2 0x32B3 SWAP1 PUSH2 0x600E JUMP JUMPDEST PUSH2 0x32BE SWAP3 SWAP2 SWAP1 PUSH2 0x5506 JUMP JUMPDEST POP PUSH1 0x5 DUP3 ADD SLOAD DUP2 PUSH1 0x5 ADD SSTORE POP POP PUSH1 0x9 DUP3 ADD DUP2 PUSH1 0x9 ADD PUSH1 0x0 DUP3 ADD PUSH1 0x0 SWAP1 SLOAD SWAP1 PUSH2 0x100 EXP SWAP1 DIV PUSH20 0xFFFFFFFFFFFFFFFFFFFFFFFFFFFFFFFFFFFFFFFF AND DUP2 PUSH1 0x0 ADD PUSH1 0x0 PUSH2 0x100 EXP DUP2 SLOAD DUP2 PUSH20 0xFFFFFFFFFFFFFFFFFFFFFFFFFFFFFFFFFFFFFFFF MUL NOT AND SWAP1 DUP4 PUSH20 0xFFFFFFFFFFFFFFFFFFFFFFFFFFFFFFFFFFFFFFFF AND MUL OR SWAP1 SSTORE POP PUSH1 0x1 DUP3 ADD DUP2 PUSH1 0x1 ADD SWAP1 DUP1 SLOAD PUSH2 0x334E SWAP1 PUSH2 0x600E JUMP JUMPDEST PUSH2 0x3359 SWAP3 SWAP2 SWAP1 PUSH2 0x5506 JUMP JUMPDEST POP PUSH1 0x2 DUP3 ADD DUP2 PUSH1 0x2 ADD SWAP1 DUP1 SLOAD PUSH2 0x336E SWAP1 PUSH2 0x600E JUMP JUMPDEST PUSH2 0x3379 SWAP3 SWAP2 SWAP1 PUSH2 0x5506 JUMP JUMPDEST POP POP POP PUSH1 0xC DUP3 ADD DUP2 PUSH1 0xC ADD PUSH1 0x0 DUP3 ADD DUP2 PUSH1 0x0 ADD SWAP1 DUP1 SLOAD PUSH2 0x3398 SWAP1 PUSH2 0x600E JUMP JUMPDEST PUSH2 0x33A3 SWAP3 SWAP2 SWAP1 PUSH2 0x5506 JUMP JUMPDEST POP PUSH1 0x1 DUP3 ADD SLOAD DUP2 PUSH1 0x1 ADD SSTORE PUSH1 0x2 DUP3 ADD SLOAD DUP2 PUSH1 0x2 ADD SSTORE PUSH1 0x3 DUP3 ADD DUP2 PUSH1 0x3 ADD SWAP1 DUP1 SLOAD PUSH2 0x33CC SWAP1 PUSH2 0x600E JUMP JUMPDEST PUSH2 0x33D7 SWAP3 SWAP2 SWAP1 PUSH2 0x5506 JUMP JUMPDEST POP POP POP PUSH1 0x10 DUP3 ADD DUP2 PUSH1 0x10 ADD PUSH1 0x0 DUP3 ADD PUSH1 0x0 SWAP1 SLOAD SWAP1 PUSH2 0x100 EXP SWAP1 DIV PUSH20 0xFFFFFFFFFFFFFFFFFFFFFFFFFFFFFFFFFFFFFFFF AND DUP2 PUSH1 0x0 ADD PUSH1 0x0 PUSH2 0x100 EXP DUP2 SLOAD DUP2 PUSH20 0xFFFFFFFFFFFFFFFFFFFFFFFFFFFFFFFFFFFFFFFF MUL NOT AND SWAP1 DUP4 PUSH20 0xFFFFFFFFFFFFFFFFFFFFFFFFFFFFFFFFFFFFFFFF AND MUL OR SWAP1 SSTORE POP PUSH1 0x1 DUP3 ADD DUP2 PUSH1 0x1 ADD SWAP1 DUP1 SLOAD PUSH2 0x345D SWAP1 PUSH2 0x600E JUMP JUMPDEST PUSH2 0x3468 SWAP3 SWAP2 SWAP1 PUSH2 0x5506 JUMP JUMPDEST POP PUSH1 0x2 DUP3 ADD DUP2 PUSH1 0x2 ADD SWAP1 DUP1 SLOAD PUSH2 0x347D SWAP1 PUSH2 0x600E JUMP JUMPDEST PUSH2 0x3488 SWAP3 SWAP2 SWAP1 PUSH2 0x5506 JUMP JUMPDEST POP POP POP PUSH1 0x13 DUP3 ADD PUSH1 0x0 SWAP1 SLOAD SWAP1 PUSH2 0x100 EXP SWAP1 DIV PUSH20 0xFFFFFFFFFFFFFFFFFFFFFFFFFFFFFFFFFFFFFFFF AND DUP2 PUSH1 0x13 ADD PUSH1 0x0 PUSH2 0x100 EXP DUP2 SLOAD DUP2 PUSH20 0xFFFFFFFFFFFFFFFFFFFFFFFFFFFFFFFFFFFFFFFF MUL NOT AND SWAP1 DUP4 PUSH20 0xFFFFFFFFFFFFFFFFFFFFFFFFFFFFFFFFFFFFFFFF AND MUL OR SWAP1 SSTORE POP PUSH1 0x14 DUP3 ADD DUP2 PUSH1 0x14 ADD SWAP1 DUP1 SLOAD PUSH2 0x3506 SWAP1 PUSH2 0x600E JUMP JUMPDEST PUSH2 0x3511 SWAP3 SWAP2 SWAP1 PUSH2 0x5506 JUMP JUMPDEST POP POP POP PUSH32 0x8A746D5B91A9A334D1ABBEEE7D031AAC6D5C59EA6E982AC06AEF4346CCE5749E DUP4 PUSH1 0x40 MLOAD PUSH2 0x3543 SWAP2 SWAP1 PUSH2 0x5CFC JUMP JUMPDEST PUSH1 0x40 MLOAD DUP1 SWAP2 SUB SWAP1 LOG1 POP POP POP JUMP JUMPDEST PUSH1 0x0 PUSH1 0x68 PUSH1 0x0 DUP5 DUP2 MSTORE PUSH1 0x20 ADD SWAP1 DUP2 MSTORE PUSH1 0x20 ADD PUSH1 0x0 KECCAK256 PUSH1 0x0 ADD PUSH1 0x1 PUSH1 0x68 PUSH1 0x0 DUP7 DUP2 MSTORE PUSH1 0x20 ADD SWAP1 DUP2 MSTORE PUSH1 0x20 ADD PUSH1 0x0 KECCAK256 PUSH1 0x0 ADD DUP1 SLOAD SWAP1 POP PUSH2 0x358E SWAP2 SWAP1 PUSH2 0x5F0C JUMP JUMPDEST DUP2 SLOAD DUP2 LT PUSH2 0x359F JUMPI PUSH2 0x359E PUSH2 0x6147 JUMP JUMPDEST JUMPDEST SWAP1 PUSH1 0x0 MSTORE PUSH1 0x20 PUSH1 0x0 KECCAK256 SWAP1 PUSH1 0x15 MUL ADD SWAP1 POP DUP2 DUP2 PUSH1 0x14 ADD SWAP1 DUP1 MLOAD SWAP1 PUSH1 0x20 ADD SWAP1 PUSH2 0x35C7 SWAP3 SWAP2 SWAP1 PUSH2 0x5480 JUMP JUMPDEST POP POP POP POP JUMP JUMPDEST PUSH1 0x0 DUP1 PUSH1 0x1 SWAP1 SLOAD SWAP1 PUSH2 0x100 EXP SWAP1 DIV PUSH1 0xFF AND ISZERO SWAP1 POP DUP1 DUP1 ISZERO PUSH2 0x35FE JUMPI POP PUSH1 0x1 PUSH1 0x0 DUP1 SLOAD SWAP1 PUSH2 0x100 EXP SWAP1 DIV PUSH1 0xFF AND PUSH1 0xFF AND LT JUMPDEST DUP1 PUSH2 0x362B JUMPI POP PUSH2 0x360D ADDRESS PUSH2 0x52F2 JUMP JUMPDEST ISZERO DUP1 ISZERO PUSH2 0x362A JUMPI POP PUSH1 0x1 PUSH1 0x0 DUP1 SLOAD SWAP1 PUSH2 0x100 EXP SWAP1 DIV PUSH1 0xFF AND PUSH1 0xFF AND EQ JUMPDEST JUMPDEST PUSH2 0x366A JUMPI PUSH1 0x40 MLOAD PUSH32 0x8C379A000000000000000000000000000000000000000000000000000000000 DUP2 MSTORE PUSH1 0x4 ADD PUSH2 0x3661 SWAP1 PUSH2 0x5C9C JUMP JUMPDEST PUSH1 0x40 MLOAD DUP1 SWAP2 SUB SWAP1 REVERT JUMPDEST PUSH1 0x1 PUSH1 0x0 DUP1 PUSH2 0x100 EXP DUP2 SLOAD DUP2 PUSH1 0xFF MUL NOT AND SWAP1 DUP4 PUSH1 0xFF AND MUL OR SWAP1 SSTORE POP DUP1 ISZERO PUSH2 0x36A7 JUMPI PUSH1 0x1 PUSH1 0x0 PUSH1 0x1 PUSH2 0x100 EXP DUP2 SLOAD DUP2 PUSH1 0xFF MUL NOT AND SWAP1 DUP4 ISZERO ISZERO MUL OR SWAP1 SSTORE POP JUMPDEST PUSH2 0x36AF PUSH2 0x5315 JUMP JUMPDEST PUSH1 0x1 PUSH1 0x66 DUP2 SWAP1 SSTORE POP PUSH1 0x1 PUSH1 0x65 DUP2 SWAP1 SSTORE POP DUP1 ISZERO PUSH2 0x3718 JUMPI PUSH1 0x0 DUP1 PUSH1 0x1 PUSH2 0x100 EXP DUP2 SLOAD DUP2 PUSH1 0xFF MUL NOT AND SWAP1 DUP4 ISZERO ISZERO MUL OR SWAP1 SSTORE POP PUSH32 0x7F26B83FF96E1F2B6A682F133852F6798A09C465DA95921460CEFB3847402498 PUSH1 0x1 PUSH1 0x40 MLOAD PUSH2 0x370F SWAP2 SWAP1 PUSH2 0x5BE4 JUMP JUMPDEST PUSH1 0x40 MLOAD DUP1 SWAP2 SUB SWAP1 LOG1 JUMPDEST POP JUMP JUMPDEST PUSH1 0x0 PUSH20 0xFFFFFFFFFFFFFFFFFFFFFFFFFFFFFFFFFFFFFFFF AND DUP2 PUSH20 0xFFFFFFFFFFFFFFFFFFFFFFFFFFFFFFFFFFFFFFFF AND EQ ISZERO PUSH2 0x3755 JUMPI PUSH1 0x0 DUP1 REVERT JUMPDEST PUSH2 0x375E DUP2 PUSH2 0x1BDC JUMP JUMPDEST ISZERO PUSH2 0x3768 JUMPI PUSH1 0x0 DUP1 REVERT JUMPDEST PUSH1 0x1 PUSH1 0x69 PUSH1 0x0 DUP4 PUSH20 0xFFFFFFFFFFFFFFFFFFFFFFFFFFFFFFFFFFFFFFFF AND PUSH20 0xFFFFFFFFFFFFFFFFFFFFFFFFFFFFFFFFFFFFFFFF AND DUP2 MSTORE PUSH1 0x20 ADD SWAP1 DUP2 MSTORE PUSH1 0x20 ADD PUSH1 0x0 KECCAK256 PUSH1 0x0 ADD PUSH1 0x0 PUSH2 0x100 EXP DUP2 SLOAD DUP2 PUSH1 0xFF MUL NOT AND SWAP1 DUP4 ISZERO ISZERO MUL OR SWAP1 SSTORE POP POP JUMP JUMPDEST PUSH1 0x0 PUSH1 0x33 PUSH1 0x0 SWAP1 SLOAD SWAP1 PUSH2 0x100 EXP SWAP1 DIV PUSH20 0xFFFFFFFFFFFFFFFFFFFFFFFFFFFFFFFFFFFFFFFF AND SWAP1 POP SWAP1 JUMP JUMPDEST DUP3 PUSH1 0x5 PUSH1 0x8 DUP2 GT ISZERO PUSH2 0x3805 JUMPI PUSH2 0x3804 PUSH2 0x60E9 JUMP JUMPDEST JUMPDEST PUSH1 0x67 PUSH1 0x0 DUP4 DUP2 MSTORE PUSH1 0x20 ADD SWAP1 DUP2 MSTORE PUSH1 0x20 ADD PUSH1 0x0 KECCAK256 PUSH1 0x2 ADD PUSH1 0x14 SWAP1 SLOAD SWAP1 PUSH2 0x100 EXP SWAP1 DIV PUSH1 0xFF AND PUSH1 0x8 DUP2 GT ISZERO PUSH2 0x383B JUMPI PUSH2 0x383A PUSH2 0x60E9 JUMP JUMPDEST JUMPDEST EQ PUSH2 0x3845 JUMPI PUSH1 0x0 DUP1 REVERT JUMPDEST PUSH2 0x384E CALLER PUSH2 0x481D JUMP JUMPDEST PUSH2 0x3857 JUMPI PUSH1 0x0 DUP1 REVERT JUMPDEST CALLER PUSH1 0x67 PUSH1 0x0 DUP7 DUP2 MSTORE PUSH1 0x20 ADD SWAP1 DUP2 MSTORE PUSH1 0x20 ADD PUSH1 0x0 KECCAK256 PUSH1 0x2 ADD PUSH1 0x0 PUSH2 0x100 EXP DUP2 SLOAD DUP2 PUSH20 0xFFFFFFFFFFFFFFFFFFFFFFFFFFFFFFFFFFFFFFFF MUL NOT AND SWAP1 DUP4 PUSH20 0xFFFFFFFFFFFFFFFFFFFFFFFFFFFFFFFFFFFFFFFF AND MUL OR SWAP1 SSTORE POP CALLER PUSH1 0x67 PUSH1 0x0 DUP7 DUP2 MSTORE PUSH1 0x20 ADD SWAP1 DUP2 MSTORE PUSH1 0x20 ADD PUSH1 0x0 KECCAK256 PUSH1 0x10 ADD PUSH1 0x0 ADD PUSH1 0x0 PUSH2 0x100 EXP DUP2 SLOAD DUP2 PUSH20 0xFFFFFFFFFFFFFFFFFFFFFFFFFFFFFFFFFFFFFFFF MUL NOT AND SWAP1 DUP4 PUSH20 0xFFFFFFFFFFFFFFFFFFFFFFFFFFFFFFFFFFFFFFFF AND MUL OR SWAP1 SSTORE POP DUP3 PUSH1 0x67 PUSH1 0x0 DUP7 DUP2 MSTORE PUSH1 0x20 ADD SWAP1 DUP2 MSTORE PUSH1 0x20 ADD PUSH1 0x0 KECCAK256 PUSH1 0x10 ADD PUSH1 0x1 ADD SWAP1 DUP1 MLOAD SWAP1 PUSH1 0x20 ADD SWAP1 PUSH2 0x3931 SWAP3 SWAP2 SWAP1 PUSH2 0x5480 JUMP JUMPDEST POP DUP2 PUSH1 0x67 PUSH1 0x0 DUP7 DUP2 MSTORE PUSH1 0x20 ADD SWAP1 DUP2 MSTORE PUSH1 0x20 ADD PUSH1 0x0 KECCAK256 PUSH1 0x10 ADD PUSH1 0x2 ADD SWAP1 DUP1 MLOAD SWAP1 PUSH1 0x20 ADD SWAP1 PUSH2 0x395F SWAP3 SWAP2 SWAP1 PUSH2 0x5480 JUMP JUMPDEST POP PUSH1 0x6 PUSH1 0x67 PUSH1 0x0 DUP7 DUP2 MSTORE PUSH1 0x20 ADD SWAP1 DUP2 MSTORE PUSH1 0x20 ADD PUSH1 0x0 KECCAK256 PUSH1 0x2 ADD PUSH1 0x14 PUSH2 0x100 EXP DUP2 SLOAD DUP2 PUSH1 0xFF MUL NOT AND SWAP1 DUP4 PUSH1 0x8 DUP2 GT ISZERO PUSH2 0x399A JUMPI PUSH2 0x3999 PUSH2 0x60E9 JUMP JUMPDEST JUMPDEST MUL OR SWAP1 SSTORE POP PUSH1 0x68 PUSH1 0x0 DUP6 DUP2 MSTORE PUSH1 0x20 ADD SWAP1 DUP2 MSTORE PUSH1 0x20 ADD PUSH1 0x0 KECCAK256 PUSH1 0x0 ADD PUSH1 0x67 PUSH1 0x0 DUP7 DUP2 MSTORE PUSH1 0x20 ADD SWAP1 DUP2 MSTORE PUSH1 0x20 ADD PUSH1 0x0 KECCAK256 SWAP1 DUP1 PUSH1 0x1 DUP2 SLOAD ADD DUP1 DUP3 SSTORE DUP1 SWAP2 POP POP PUSH1 0x1 SWAP1 SUB SWAP1 PUSH1 0x0 MSTORE PUSH1 0x20 PUSH1 0x0 KECCAK256 SWAP1 PUSH1 0x15 MUL ADD PUSH1 0x0 SWAP1 SWAP2 SWAP1 SWAP2 SWAP1 SWAP2 POP PUSH1 0x0 DUP3 ADD SLOAD DUP2 PUSH1 0x0 ADD SSTORE PUSH1 0x1 DUP3 ADD SLOAD DUP2 PUSH1 0x1 ADD SSTORE PUSH1 0x2 DUP3 ADD PUSH1 0x0 SWAP1 SLOAD SWAP1 PUSH2 0x100 EXP SWAP1 DIV PUSH20 0xFFFFFFFFFFFFFFFFFFFFFFFFFFFFFFFFFFFFFFFF AND DUP2 PUSH1 0x2 ADD PUSH1 0x0 PUSH2 0x100 EXP DUP2 SLOAD DUP2 PUSH20 0xFFFFFFFFFFFFFFFFFFFFFFFFFFFFFFFFFFFFFFFF MUL NOT AND SWAP1 DUP4 PUSH20 0xFFFFFFFFFFFFFFFFFFFFFFFFFFFFFFFFFFFFFFFF AND MUL OR SWAP1 SSTORE POP PUSH1 0x2 DUP3 ADD PUSH1 0x14 SWAP1 SLOAD SWAP1 PUSH2 0x100 EXP SWAP1 DIV PUSH1 0xFF AND DUP2 PUSH1 0x2 ADD PUSH1 0x14 PUSH2 0x100 EXP DUP2 SLOAD DUP2 PUSH1 0xFF MUL NOT AND SWAP1 DUP4 PUSH1 0x8 DUP2 GT ISZERO PUSH2 0x3AA4 JUMPI PUSH2 0x3AA3 PUSH2 0x60E9 JUMP JUMPDEST JUMPDEST MUL OR SWAP1 SSTORE POP PUSH1 0x3 DUP3 ADD DUP2 PUSH1 0x3 ADD PUSH1 0x0 DUP3 ADD PUSH1 0x0 SWAP1 SLOAD SWAP1 PUSH2 0x100 EXP SWAP1 DIV PUSH20 0xFFFFFFFFFFFFFFFFFFFFFFFFFFFFFFFFFFFFFFFF AND DUP2 PUSH1 0x0 ADD PUSH1 0x0 PUSH2 0x100 EXP DUP2 SLOAD DUP2 PUSH20 0xFFFFFFFFFFFFFFFFFFFFFFFFFFFFFFFFFFFFFFFF MUL NOT AND SWAP1 DUP4 PUSH20 0xFFFFFFFFFFFFFFFFFFFFFFFFFFFFFFFFFFFFFFFF AND MUL OR SWAP1 SSTORE POP PUSH1 0x1 DUP3 ADD DUP2 PUSH1 0x1 ADD SWAP1 DUP1 SLOAD PUSH2 0x3B2C SWAP1 PUSH2 0x600E JUMP JUMPDEST PUSH2 0x3B37 SWAP3 SWAP2 SWAP1 PUSH2 0x5506 JUMP JUMPDEST POP PUSH1 0x2 DUP3 ADD DUP2 PUSH1 0x2 ADD SWAP1 DUP1 SLOAD PUSH2 0x3B4C SWAP1 PUSH2 0x600E JUMP JUMPDEST PUSH2 0x3B57 SWAP3 SWAP2 SWAP1 PUSH2 0x5506 JUMP JUMPDEST POP PUSH1 0x3 DUP3 ADD DUP2 PUSH1 0x3 ADD SWAP1 DUP1 SLOAD PUSH2 0x3B6C SWAP1 PUSH2 0x600E JUMP JUMPDEST PUSH2 0x3B77 SWAP3 SWAP2 SWAP1 PUSH2 0x5506 JUMP JUMPDEST POP PUSH1 0x4 DUP3 ADD DUP2 PUSH1 0x4 ADD SWAP1 DUP1 SLOAD PUSH2 0x3B8C SWAP1 PUSH2 0x600E JUMP JUMPDEST PUSH2 0x3B97 SWAP3 SWAP2 SWAP1 PUSH2 0x5506 JUMP JUMPDEST POP PUSH1 0x5 DUP3 ADD SLOAD DUP2 PUSH1 0x5 ADD SSTORE POP POP PUSH1 0x9 DUP3 ADD DUP2 PUSH1 0x9 ADD PUSH1 0x0 DUP3 ADD PUSH1 0x0 SWAP1 SLOAD SWAP1 PUSH2 0x100 EXP SWAP1 DIV PUSH20 0xFFFFFFFFFFFFFFFFFFFFFFFFFFFFFFFFFFFFFFFF AND DUP2 PUSH1 0x0 ADD PUSH1 0x0 PUSH2 0x100 EXP DUP2 SLOAD DUP2 PUSH20 0xFFFFFFFFFFFFFFFFFFFFFFFFFFFFFFFFFFFFFFFF MUL NOT AND SWAP1 DUP4 PUSH20 0xFFFFFFFFFFFFFFFFFFFFFFFFFFFFFFFFFFFFFFFF AND MUL OR SWAP1 SSTORE POP PUSH1 0x1 DUP3 ADD DUP2 PUSH1 0x1 ADD SWAP1 DUP1 SLOAD PUSH2 0x3C27 SWAP1 PUSH2 0x600E JUMP JUMPDEST PUSH2 0x3C32 SWAP3 SWAP2 SWAP1 PUSH2 0x5506 JUMP JUMPDEST POP PUSH1 0x2 DUP3 ADD DUP2 PUSH1 0x2 ADD SWAP1 DUP1 SLOAD PUSH2 0x3C47 SWAP1 PUSH2 0x600E JUMP JUMPDEST PUSH2 0x3C52 SWAP3 SWAP2 SWAP1 PUSH2 0x5506 JUMP JUMPDEST POP POP POP PUSH1 0xC DUP3 ADD DUP2 PUSH1 0xC ADD PUSH1 0x0 DUP3 ADD DUP2 PUSH1 0x0 ADD SWAP1 DUP1 SLOAD PUSH2 0x3C71 SWAP1 PUSH2 0x600E JUMP JUMPDEST PUSH2 0x3C7C SWAP3 SWAP2 SWAP1 PUSH2 0x5506 JUMP JUMPDEST POP PUSH1 0x1 DUP3 ADD SLOAD DUP2 PUSH1 0x1 ADD SSTORE PUSH1 0x2 DUP3 ADD SLOAD DUP2 PUSH1 0x2 ADD SSTORE PUSH1 0x3 DUP3 ADD DUP2 PUSH1 0x3 ADD SWAP1 DUP1 SLOAD PUSH2 0x3CA5 SWAP1 PUSH2 0x600E JUMP JUMPDEST PUSH2 0x3CB0 SWAP3 SWAP2 SWAP1 PUSH2 0x5506 JUMP JUMPDEST POP POP POP PUSH1 0x10 DUP3 ADD DUP2 PUSH1 0x10 ADD PUSH1 0x0 DUP3 ADD PUSH1 0x0 SWAP1 SLOAD SWAP1 PUSH2 0x100 EXP SWAP1 DIV PUSH20 0xFFFFFFFFFFFFFFFFFFFFFFFFFFFFFFFFFFFFFFFF AND DUP2 PUSH1 0x0 ADD PUSH1 0x0 PUSH2 0x100 EXP DUP2 SLOAD DUP2 PUSH20 0xFFFFFFFFFFFFFFFFFFFFFFFFFFFFFFFFFFFFFFFF MUL NOT AND SWAP1 DUP4 PUSH20 0xFFFFFFFFFFFFFFFFFFFFFFFFFFFFFFFFFFFFFFFF AND MUL OR SWAP1 SSTORE POP PUSH1 0x1 DUP3 ADD DUP2 PUSH1 0x1 ADD SWAP1 DUP1 SLOAD PUSH2 0x3D36 SWAP1 PUSH2 0x600E JUMP JUMPDEST PUSH2 0x3D41 SWAP3 SWAP2 SWAP1 PUSH2 0x5506 JUMP JUMPDEST POP PUSH1 0x2 DUP3 ADD DUP2 PUSH1 0x2 ADD SWAP1 DUP1 SLOAD PUSH2 0x3D56 SWAP1 PUSH2 0x600E JUMP JUMPDEST PUSH2 0x3D61 SWAP3 SWAP2 SWAP1 PUSH2 0x5506 JUMP JUMPDEST POP POP POP PUSH1 0x13 DUP3 ADD PUSH1 0x0 SWAP1 SLOAD SWAP1 PUSH2 0x100 EXP SWAP1 DIV PUSH20 0xFFFFFFFFFFFFFFFFFFFFFFFFFFFFFFFFFFFFFFFF AND DUP2 PUSH1 0x13 ADD PUSH1 0x0 PUSH2 0x100 EXP DUP2 SLOAD DUP2 PUSH20 0xFFFFFFFFFFFFFFFFFFFFFFFFFFFFFFFFFFFFFFFF MUL NOT AND SWAP1 DUP4 PUSH20 0xFFFFFFFFFFFFFFFFFFFFFFFFFFFFFFFFFFFFFFFF AND MUL OR SWAP1 SSTORE POP PUSH1 0x14 DUP3 ADD DUP2 PUSH1 0x14 ADD SWAP1 DUP1 SLOAD PUSH2 0x3DDF SWAP1 PUSH2 0x600E JUMP JUMPDEST PUSH2 0x3DEA SWAP3 SWAP2 SWAP1 PUSH2 0x5506 JUMP JUMPDEST POP POP POP PUSH32 0xB6589947D486BF61C31A4E6D2E81D4D2C93E7832FDDA27F2492009B4755C29ED DUP5 PUSH1 0x40 MLOAD PUSH2 0x3E1C SWAP2 SWAP1 PUSH2 0x5CFC JUMP JUMPDEST PUSH1 0x40 MLOAD DUP1 SWAP2 SUB SWAP1 LOG1 POP POP POP POP JUMP JUMPDEST PUSH1 0x60 PUSH1 0x0 PUSH1 0x60 DUP1 PUSH1 0x0 PUSH1 0x60 PUSH1 0x0 PUSH1 0x67 PUSH1 0x0 DUP12 DUP2 MSTORE PUSH1 0x20 ADD SWAP1 DUP2 MSTORE PUSH1 0x20 ADD PUSH1 0x0 KECCAK256 PUSH1 0x0 ADD SLOAD EQ ISZERO PUSH2 0x3E59 JUMPI PUSH1 0x0 DUP1 REVERT JUMPDEST PUSH1 0x0 PUSH1 0x67 PUSH1 0x0 DUP12 DUP2 MSTORE PUSH1 0x20 ADD SWAP1 DUP2 MSTORE PUSH1 0x20 ADD PUSH1 0x0 KECCAK256 SWAP1 POP PUSH1 0x40 MLOAD DUP1 PUSH1 0x40 ADD PUSH1 0x40 MSTORE DUP1 PUSH1 0x7 DUP2 MSTORE PUSH1 0x20 ADD PUSH32 0x70726F6475637400000000000000000000000000000000000000000000000000 DUP2 MSTORE POP DUP1 MLOAD SWAP1 PUSH1 0x20 ADD KECCAK256 DUP10 DUP1 MLOAD SWAP1 PUSH1 0x20 ADD KECCAK256 EQ ISZERO PUSH2 0x3ED1 JUMPI PUSH1 0x67 PUSH1 0x0 DUP12 DUP2 MSTORE PUSH1 0x20 ADD SWAP1 DUP2 MSTORE PUSH1 0x20 ADD PUSH1 0x0 KECCAK256 SWAP1 POP JUMPDEST PUSH1 0x40 MLOAD DUP1 PUSH1 0x40 ADD PUSH1 0x40 MSTORE DUP1 PUSH1 0x7 DUP2 MSTORE PUSH1 0x20 ADD PUSH32 0x686973746F727900000000000000000000000000000000000000000000000000 DUP2 MSTORE POP DUP1 MLOAD SWAP1 PUSH1 0x20 ADD KECCAK256 DUP10 DUP1 MLOAD SWAP1 PUSH1 0x20 ADD KECCAK256 EQ ISZERO PUSH2 0x3F55 JUMPI PUSH1 0x68 PUSH1 0x0 DUP12 DUP2 MSTORE PUSH1 0x20 ADD SWAP1 DUP2 MSTORE PUSH1 0x20 ADD PUSH1 0x0 KECCAK256 PUSH1 0x0 ADD DUP9 DUP2 SLOAD DUP2 LT PUSH2 0x3F44 JUMPI PUSH2 0x3F43 PUSH2 0x6147 JUMP JUMPDEST JUMPDEST SWAP1 PUSH1 0x0 MSTORE PUSH1 0x20 PUSH1 0x0 KECCAK256 SWAP1 PUSH1 0x15 MUL ADD SWAP1 POP JUMPDEST DUP1 PUSH1 0x9 ADD PUSH1 0x2 ADD DUP2 PUSH1 0x10 ADD PUSH1 0x0 ADD PUSH1 0x0 SWAP1 SLOAD SWAP1 PUSH2 0x100 EXP SWAP1 DIV PUSH20 0xFFFFFFFFFFFFFFFFFFFFFFFFFFFFFFFFFFFFFFFF AND DUP3 PUSH1 0x10 ADD PUSH1 0x1 ADD DUP4 PUSH1 0x10 ADD PUSH1 0x2 ADD DUP5 PUSH1 0x13 ADD PUSH1 0x0 SWAP1 SLOAD SWAP1 PUSH2 0x100 EXP SWAP1 DIV PUSH20 0xFFFFFFFFFFFFFFFFFFFFFFFFFFFFFFFFFFFFFFFF AND DUP6 PUSH1 0x14 ADD DUP6 DUP1 SLOAD PUSH2 0x3FC7 SWAP1 PUSH2 0x600E JUMP JUMPDEST DUP1 PUSH1 0x1F ADD PUSH1 0x20 DUP1 SWAP2 DIV MUL PUSH1 0x20 ADD PUSH1 0x40 MLOAD SWAP1 DUP2 ADD PUSH1 0x40 MSTORE DUP1 SWAP3 SWAP2 SWAP1 DUP2 DUP2 MSTORE PUSH1 0x20 ADD DUP3 DUP1 SLOAD PUSH2 0x3FF3 SWAP1 PUSH2 0x600E JUMP JUMPDEST DUP1 ISZERO PUSH2 0x4040 JUMPI DUP1 PUSH1 0x1F LT PUSH2 0x4015 JUMPI PUSH2 0x100 DUP1 DUP4 SLOAD DIV MUL DUP4 MSTORE SWAP2 PUSH1 0x20 ADD SWAP2 PUSH2 0x4040 JUMP JUMPDEST DUP3 ADD SWAP2 SWAP1 PUSH1 0x0 MSTORE PUSH1 0x20 PUSH1 0x0 KECCAK256 SWAP1 JUMPDEST DUP2 SLOAD DUP2 MSTORE SWAP1 PUSH1 0x1 ADD SWAP1 PUSH1 0x20 ADD DUP1 DUP4 GT PUSH2 0x4023 JUMPI DUP3 SWAP1 SUB PUSH1 0x1F AND DUP3 ADD SWAP2 JUMPDEST POP POP POP POP POP SWAP6 POP DUP4 DUP1 SLOAD PUSH2 0x4053 SWAP1 PUSH2 0x600E JUMP JUMPDEST DUP1 PUSH1 0x1F ADD PUSH1 0x20 DUP1 SWAP2 DIV MUL PUSH1 0x20 ADD PUSH1 0x40 MLOAD SWAP1 DUP2 ADD PUSH1 0x40 MSTORE DUP1 SWAP3 SWAP2 SWAP1 DUP2 DUP2 MSTORE PUSH1 0x20 ADD DUP3 DUP1 SLOAD PUSH2 0x407F SWAP1 PUSH2 0x600E JUMP JUMPDEST DUP1 ISZERO PUSH2 0x40CC JUMPI DUP1 PUSH1 0x1F LT PUSH2 0x40A1 JUMPI PUSH2 0x100 DUP1 DUP4 SLOAD DIV MUL DUP4 MSTORE SWAP2 PUSH1 0x20 ADD SWAP2 PUSH2 0x40CC JUMP JUMPDEST DUP3 ADD SWAP2 SWAP1 PUSH1 0x0 MSTORE PUSH1 0x20 PUSH1 0x0 KECCAK256 SWAP1 JUMPDEST DUP2 SLOAD DUP2 MSTORE SWAP1 PUSH1 0x1 ADD SWAP1 PUSH1 0x20 ADD DUP1 DUP4 GT PUSH2 0x40AF JUMPI DUP3 SWAP1 SUB PUSH1 0x1F AND DUP3 ADD SWAP2 JUMPDEST POP POP POP POP POP SWAP4 POP DUP3 DUP1 SLOAD PUSH2 0x40DF SWAP1 PUSH2 0x600E JUMP JUMPDEST DUP1 PUSH1 0x1F ADD PUSH1 0x20 DUP1 SWAP2 DIV MUL PUSH1 0x20 ADD PUSH1 0x40 MLOAD SWAP1 DUP2 ADD PUSH1 0x40 MSTORE DUP1 SWAP3 SWAP2 SWAP1 DUP2 DUP2 MSTORE PUSH1 0x20 ADD DUP3 DUP1 SLOAD PUSH2 0x410B SWAP1 PUSH2 0x600E JUMP JUMPDEST DUP1 ISZERO PUSH2 0x4158 JUMPI DUP1 PUSH1 0x1F LT PUSH2 0x412D JUMPI PUSH2 0x100 DUP1 DUP4 SLOAD DIV MUL DUP4 MSTORE SWAP2 PUSH1 0x20 ADD SWAP2 PUSH2 0x4158 JUMP JUMPDEST DUP3 ADD SWAP2 SWAP1 PUSH1 0x0 MSTORE PUSH1 0x20 PUSH1 0x0 KECCAK256 SWAP1 JUMPDEST DUP2 SLOAD DUP2 MSTORE SWAP1 PUSH1 0x1 ADD SWAP1 PUSH1 0x20 ADD DUP1 DUP4 GT PUSH2 0x413B JUMPI DUP3 SWAP1 SUB PUSH1 0x1F AND DUP3 ADD SWAP2 JUMPDEST POP POP POP POP POP SWAP3 POP DUP1 DUP1 SLOAD PUSH2 0x416B SWAP1 PUSH2 0x600E JUMP JUMPDEST DUP1 PUSH1 0x1F ADD PUSH1 0x20 DUP1 SWAP2 DIV MUL PUSH1 0x20 ADD PUSH1 0x40 MLOAD SWAP1 DUP2 ADD PUSH1 0x40 MSTORE DUP1 SWAP3 SWAP2 SWAP1 DUP2 DUP2 MSTORE PUSH1 0x20 ADD DUP3 DUP1 SLOAD PUSH2 0x4197 SWAP1 PUSH2 0x600E JUMP JUMPDEST DUP1 ISZERO PUSH2 0x41E4 JUMPI DUP1 PUSH1 0x1F LT PUSH2 0x41B9 JUMPI PUSH2 0x100 DUP1 DUP4 SLOAD DIV MUL DUP4 MSTORE SWAP2 PUSH1 0x20 ADD SWAP2 PUSH2 0x41E4 JUMP JUMPDEST DUP3 ADD SWAP2 SWAP1 PUSH1 0x0 MSTORE PUSH1 0x20 PUSH1 0x0 KECCAK256 SWAP1 JUMPDEST DUP2 SLOAD DUP2 MSTORE SWAP1 PUSH1 0x1 ADD SWAP1 PUSH1 0x20 ADD DUP1 DUP4 GT PUSH2 0x41C7 JUMPI DUP3 SWAP1 SUB PUSH1 0x1F AND DUP3 ADD SWAP2 JUMPDEST POP POP POP POP POP SWAP1 POP SWAP7 POP SWAP7 POP SWAP7 POP SWAP7 POP SWAP7 POP SWAP7 POP POP SWAP4 SWAP8 POP SWAP4 SWAP8 SWAP2 SWAP6 POP SWAP4 POP JUMP JUMPDEST DUP1 PUSH1 0x0 PUSH1 0x8 DUP2 GT ISZERO PUSH2 0x4219 JUMPI PUSH2 0x4218 PUSH2 0x60E9 JUMP JUMPDEST JUMPDEST PUSH1 0x67 PUSH1 0x0 DUP4 DUP2 MSTORE PUSH1 0x20 ADD SWAP1 DUP2 MSTORE PUSH1 0x20 ADD PUSH1 0x0 KECCAK256 PUSH1 0x2 ADD PUSH1 0x14 SWAP1 SLOAD SWAP1 PUSH2 0x100 EXP SWAP1 DIV PUSH1 0xFF AND PUSH1 0x8 DUP2 GT ISZERO PUSH2 0x424F JUMPI PUSH2 0x424E PUSH2 0x60E9 JUMP JUMPDEST JUMPDEST EQ PUSH2 0x4259 JUMPI PUSH1 0x0 DUP1 REVERT JUMPDEST PUSH2 0x4262 CALLER PUSH2 0x478B JUMP JUMPDEST PUSH2 0x426B JUMPI PUSH1 0x0 DUP1 REVERT JUMPDEST CALLER PUSH1 0x67 PUSH1 0x0 DUP5 DUP2 MSTORE PUSH1 0x20 ADD SWAP1 DUP2 MSTORE PUSH1 0x20 ADD PUSH1 0x0 KECCAK256 PUSH1 0x9 ADD PUSH1 0x0 ADD PUSH1 0x0 PUSH2 0x100 EXP DUP2 SLOAD DUP2 PUSH20 0xFFFFFFFFFFFFFFFFFFFFFFFFFFFFFFFFFFFFFFFF MUL NOT AND SWAP1 DUP4 PUSH20 0xFFFFFFFFFFFFFFFFFFFFFFFFFFFFFFFFFFFFFFFF AND MUL OR SWAP1 SSTORE POP PUSH1 0x1 PUSH1 0x67 PUSH1 0x0 DUP5 DUP2 MSTORE PUSH1 0x20 ADD SWAP1 DUP2 MSTORE PUSH1 0x20 ADD PUSH1 0x0 KECCAK256 PUSH1 0x2 ADD PUSH1 0x14 PUSH2 0x100 EXP DUP2 SLOAD DUP2 PUSH1 0xFF MUL NOT AND SWAP1 DUP4 PUSH1 0x8 DUP2 GT ISZERO PUSH2 0x42FD JUMPI PUSH2 0x42FC PUSH2 0x60E9 JUMP JUMPDEST JUMPDEST MUL OR SWAP1 SSTORE POP PUSH1 0x68 PUSH1 0x0 DUP4 DUP2 MSTORE PUSH1 0x20 ADD SWAP1 DUP2 MSTORE PUSH1 0x20 ADD PUSH1 0x0 KECCAK256 PUSH1 0x0 ADD PUSH1 0x67 PUSH1 0x0 DUP5 DUP2 MSTORE PUSH1 0x20 ADD SWAP1 DUP2 MSTORE PUSH1 0x20 ADD PUSH1 0x0 KECCAK256 SWAP1 DUP1 PUSH1 0x1 DUP2 SLOAD ADD DUP1 DUP3 SSTORE DUP1 SWAP2 POP POP PUSH1 0x1 SWAP1 SUB SWAP1 PUSH1 0x0 MSTORE PUSH1 0x20 PUSH1 0x0 KECCAK256 SWAP1 PUSH1 0x15 MUL ADD PUSH1 0x0 SWAP1 SWAP2 SWAP1 SWAP2 SWAP1 SWAP2 POP PUSH1 0x0 DUP3 ADD SLOAD DUP2 PUSH1 0x0 ADD SSTORE PUSH1 0x1 DUP3 ADD SLOAD DUP2 PUSH1 0x1 ADD SSTORE PUSH1 0x2 DUP3 ADD PUSH1 0x0 SWAP1 SLOAD SWAP1 PUSH2 0x100 EXP SWAP1 DIV PUSH20 0xFFFFFFFFFFFFFFFFFFFFFFFFFFFFFFFFFFFFFFFF AND DUP2 PUSH1 0x2 ADD PUSH1 0x0 PUSH2 0x100 EXP DUP2 SLOAD DUP2 PUSH20 0xFFFFFFFFFFFFFFFFFFFFFFFFFFFFFFFFFFFFFFFF MUL NOT AND SWAP1 DUP4 PUSH20 0xFFFFFFFFFFFFFFFFFFFFFFFFFFFFFFFFFFFFFFFF AND MUL OR SWAP1 SSTORE POP PUSH1 0x2 DUP3 ADD PUSH1 0x14 SWAP1 SLOAD SWAP1 PUSH2 0x100 EXP SWAP1 DIV PUSH1 0xFF AND DUP2 PUSH1 0x2 ADD PUSH1 0x14 PUSH2 0x100 EXP DUP2 SLOAD DUP2 PUSH1 0xFF MUL NOT AND SWAP1 DUP4 PUSH1 0x8 DUP2 GT ISZERO PUSH2 0x4407 JUMPI PUSH2 0x4406 PUSH2 0x60E9 JUMP JUMPDEST JUMPDEST MUL OR SWAP1 SSTORE POP PUSH1 0x3 DUP3 ADD DUP2 PUSH1 0x3 ADD PUSH1 0x0 DUP3 ADD PUSH1 0x0 SWAP1 SLOAD SWAP1 PUSH2 0x100 EXP SWAP1 DIV PUSH20 0xFFFFFFFFFFFFFFFFFFFFFFFFFFFFFFFFFFFFFFFF AND DUP2 PUSH1 0x0 ADD PUSH1 0x0 PUSH2 0x100 EXP DUP2 SLOAD DUP2 PUSH20 0xFFFFFFFFFFFFFFFFFFFFFFFFFFFFFFFFFFFFFFFF MUL NOT AND SWAP1 DUP4 PUSH20 0xFFFFFFFFFFFFFFFFFFFFFFFFFFFFFFFFFFFFFFFF AND MUL OR SWAP1 SSTORE POP PUSH1 0x1 DUP3 ADD DUP2 PUSH1 0x1 ADD SWAP1 DUP1 SLOAD PUSH2 0x448F SWAP1 PUSH2 0x600E JUMP JUMPDEST PUSH2 0x449A SWAP3 SWAP2 SWAP1 PUSH2 0x5506 JUMP JUMPDEST POP PUSH1 0x2 DUP3 ADD DUP2 PUSH1 0x2 ADD SWAP1 DUP1 SLOAD PUSH2 0x44AF SWAP1 PUSH2 0x600E JUMP JUMPDEST PUSH2 0x44BA SWAP3 SWAP2 SWAP1 PUSH2 0x5506 JUMP JUMPDEST POP PUSH1 0x3 DUP3 ADD DUP2 PUSH1 0x3 ADD SWAP1 DUP1 SLOAD PUSH2 0x44CF SWAP1 PUSH2 0x600E JUMP JUMPDEST PUSH2 0x44DA SWAP3 SWAP2 SWAP1 PUSH2 0x5506 JUMP JUMPDEST POP PUSH1 0x4 DUP3 ADD DUP2 PUSH1 0x4 ADD SWAP1 DUP1 SLOAD PUSH2 0x44EF SWAP1 PUSH2 0x600E JUMP JUMPDEST PUSH2 0x44FA SWAP3 SWAP2 SWAP1 PUSH2 0x5506 JUMP JUMPDEST POP PUSH1 0x5 DUP3 ADD SLOAD DUP2 PUSH1 0x5 ADD SSTORE POP POP PUSH1 0x9 DUP3 ADD DUP2 PUSH1 0x9 ADD PUSH1 0x0 DUP3 ADD PUSH1 0x0 SWAP1 SLOAD SWAP1 PUSH2 0x100 EXP SWAP1 DIV PUSH20 0xFFFFFFFFFFFFFFFFFFFFFFFFFFFFFFFFFFFFFFFF AND DUP2 PUSH1 0x0 ADD PUSH1 0x0 PUSH2 0x100 EXP DUP2 SLOAD DUP2 PUSH20 0xFFFFFFFFFFFFFFFFFFFFFFFFFFFFFFFFFFFFFFFF MUL NOT AND SWAP1 DUP4 PUSH20 0xFFFFFFFFFFFFFFFFFFFFFFFFFFFFFFFFFFFFFFFF AND MUL OR SWAP1 SSTORE POP PUSH1 0x1 DUP3 ADD DUP2 PUSH1 0x1 ADD SWAP1 DUP1 SLOAD PUSH2 0x458A SWAP1 PUSH2 0x600E JUMP JUMPDEST PUSH2 0x4595 SWAP3 SWAP2 SWAP1 PUSH2 0x5506 JUMP JUMPDEST POP PUSH1 0x2 DUP3 ADD DUP2 PUSH1 0x2 ADD SWAP1 DUP1 SLOAD PUSH2 0x45AA SWAP1 PUSH2 0x600E JUMP JUMPDEST PUSH2 0x45B5 SWAP3 SWAP2 SWAP1 PUSH2 0x5506 JUMP JUMPDEST POP POP POP PUSH1 0xC DUP3 ADD DUP2 PUSH1 0xC ADD PUSH1 0x0 DUP3 ADD DUP2 PUSH1 0x0 ADD SWAP1 DUP1 SLOAD PUSH2 0x45D4 SWAP1 PUSH2 0x600E JUMP JUMPDEST PUSH2 0x45DF SWAP3 SWAP2 SWAP1 PUSH2 0x5506 JUMP JUMPDEST POP PUSH1 0x1 DUP3 ADD SLOAD DUP2 PUSH1 0x1 ADD SSTORE PUSH1 0x2 DUP3 ADD SLOAD DUP2 PUSH1 0x2 ADD SSTORE PUSH1 0x3 DUP3 ADD DUP2 PUSH1 0x3 ADD SWAP1 DUP1 SLOAD PUSH2 0x4608 SWAP1 PUSH2 0x600E JUMP JUMPDEST PUSH2 0x4613 SWAP3 SWAP2 SWAP1 PUSH2 0x5506 JUMP JUMPDEST POP POP POP PUSH1 0x10 DUP3 ADD DUP2 PUSH1 0x10 ADD PUSH1 0x0 DUP3 ADD PUSH1 0x0 SWAP1 SLOAD SWAP1 PUSH2 0x100 EXP SWAP1 DIV PUSH20 0xFFFFFFFFFFFFFFFFFFFFFFFFFFFFFFFFFFFFFFFF AND DUP2 PUSH1 0x0 ADD PUSH1 0x0 PUSH2 0x100 EXP DUP2 SLOAD DUP2 PUSH20 0xFFFFFFFFFFFFFFFFFFFFFFFFFFFFFFFFFFFFFFFF MUL NOT AND SWAP1 DUP4 PUSH20 0xFFFFFFFFFFFFFFFFFFFFFFFFFFFFFFFFFFFFFFFF AND MUL OR SWAP1 SSTORE POP PUSH1 0x1 DUP3 ADD DUP2 PUSH1 0x1 ADD SWAP1 DUP1 SLOAD PUSH2 0x4699 SWAP1 PUSH2 0x600E JUMP JUMPDEST PUSH2 0x46A4 SWAP3 SWAP2 SWAP1 PUSH2 0x5506 JUMP JUMPDEST POP PUSH1 0x2 DUP3 ADD DUP2 PUSH1 0x2 ADD SWAP1 DUP1 SLOAD PUSH2 0x46B9 SWAP1 PUSH2 0x600E JUMP JUMPDEST PUSH2 0x46C4 SWAP3 SWAP2 SWAP1 PUSH2 0x5506 JUMP JUMPDEST POP POP POP PUSH1 0x13 DUP3 ADD PUSH1 0x0 SWAP1 SLOAD SWAP1 PUSH2 0x100 EXP SWAP1 DIV PUSH20 0xFFFFFFFFFFFFFFFFFFFFFFFFFFFFFFFFFFFFFFFF AND DUP2 PUSH1 0x13 ADD PUSH1 0x0 PUSH2 0x100 EXP DUP2 SLOAD DUP2 PUSH20 0xFFFFFFFFFFFFFFFFFFFFFFFFFFFFFFFFFFFFFFFF MUL NOT AND SWAP1 DUP4 PUSH20 0xFFFFFFFFFFFFFFFFFFFFFFFFFFFFFFFFFFFFFFFF AND MUL OR SWAP1 SSTORE POP PUSH1 0x14 DUP3 ADD DUP2 PUSH1 0x14 ADD SWAP1 DUP1 SLOAD PUSH2 0x4742 SWAP1 PUSH2 0x600E JUMP JUMPDEST PUSH2 0x474D SWAP3 SWAP2 SWAP1 PUSH2 0x5506 JUMP JUMPDEST POP POP POP PUSH32 0x112C8ADC962C1DE46B0AE9499CD428DC90FEB4C13A4DF0C69D7E5E27AB34AE87 DUP3 PUSH1 0x40 MLOAD PUSH2 0x477F SWAP2 SWAP1 PUSH2 0x5CFC JUMP JUMPDEST PUSH1 0x40 MLOAD DUP1 SWAP2 SUB SWAP1 LOG1 POP POP JUMP JUMPDEST PUSH1 0x0 DUP1 PUSH20 0xFFFFFFFFFFFFFFFFFFFFFFFFFFFFFFFFFFFFFFFF AND DUP3 PUSH20 0xFFFFFFFFFFFFFFFFFFFFFFFFFFFFFFFFFFFFFFFF AND EQ ISZERO PUSH2 0x47C6 JUMPI PUSH1 0x0 DUP1 REVERT JUMPDEST PUSH1 0x69 PUSH1 0x0 DUP4 PUSH20 0xFFFFFFFFFFFFFFFFFFFFFFFFFFFFFFFFFFFFFFFF AND PUSH20 0xFFFFFFFFFFFFFFFFFFFFFFFFFFFFFFFFFFFFFFFF AND DUP2 MSTORE PUSH1 0x20 ADD SWAP1 DUP2 MSTORE PUSH1 0x20 ADD PUSH1 0x0 KECCAK256 PUSH1 0x0 ADD PUSH1 0x1 SWAP1 SLOAD SWAP1 PUSH2 0x100 EXP SWAP1 DIV PUSH1 0xFF AND SWAP1 POP SWAP2 SWAP1 POP JUMP JUMPDEST PUSH1 0x0 DUP1 PUSH20 0xFFFFFFFFFFFFFFFFFFFFFFFFFFFFFFFFFFFFFFFF AND DUP3 PUSH20 0xFFFFFFFFFFFFFFFFFFFFFFFFFFFFFFFFFFFFFFFF AND EQ ISZERO PUSH2 0x4858 JUMPI PUSH1 0x0 DUP1 REVERT JUMPDEST PUSH1 0x69 PUSH1 0x0 DUP4 PUSH20 0xFFFFFFFFFFFFFFFFFFFFFFFFFFFFFFFFFFFFFFFF AND PUSH20 0xFFFFFFFFFFFFFFFFFFFFFFFFFFFFFFFFFFFFFFFF AND DUP2 MSTORE PUSH1 0x20 ADD SWAP1 DUP2 MSTORE PUSH1 0x20 ADD PUSH1 0x0 KECCAK256 PUSH1 0x0 ADD PUSH1 0x2 SWAP1 SLOAD SWAP1 PUSH2 0x100 EXP SWAP1 DIV PUSH1 0xFF AND SWAP1 POP SWAP2 SWAP1 POP JUMP JUMPDEST PUSH1 0x0 PUSH1 0x67 PUSH1 0x0 DUP4 DUP2 MSTORE PUSH1 0x20 ADD SWAP1 DUP2 MSTORE PUSH1 0x20 ADD PUSH1 0x0 KECCAK256 PUSH1 0x2 ADD PUSH1 0x14 SWAP1 SLOAD SWAP1 PUSH2 0x100 EXP SWAP1 DIV PUSH1 0xFF AND SWAP1 POP SWAP2 SWAP1 POP JUMP JUMPDEST DUP1 PUSH1 0x68 PUSH1 0x0 PUSH1 0x1 PUSH1 0x65 SLOAD PUSH2 0x48F0 SWAP2 SWAP1 PUSH2 0x5F0C JUMP JUMPDEST DUP2 MSTORE PUSH1 0x20 ADD SWAP1 DUP2 MSTORE PUSH1 0x20 ADD PUSH1 0x0 KECCAK256 PUSH1 0x0 ADD PUSH1 0x1 PUSH1 0x68 PUSH1 0x0 PUSH1 0x1 PUSH1 0x65 SLOAD PUSH2 0x4916 SWAP2 SWAP1 PUSH2 0x5F0C JUMP JUMPDEST DUP2 MSTORE PUSH1 0x20 ADD SWAP1 DUP2 MSTORE PUSH1 0x20 ADD PUSH1 0x0 KECCAK256 PUSH1 0x0 ADD DUP1 SLOAD SWAP1 POP PUSH2 0x4935 SWAP2 SWAP1 PUSH2 0x5F0C JUMP JUMPDEST DUP2 SLOAD DUP2 LT PUSH2 0x4946 JUMPI PUSH2 0x4945 PUSH2 0x6147 JUMP JUMPDEST JUMPDEST SWAP1 PUSH1 0x0 MSTORE PUSH1 0x20 PUSH1 0x0 KECCAK256 SWAP1 PUSH1 0x15 MUL ADD PUSH1 0x14 ADD SWAP1 DUP1 MLOAD SWAP1 PUSH1 0x20 ADD SWAP1 PUSH2 0x496A SWAP3 SWAP2 SWAP1 PUSH2 0x5480 JUMP JUMPDEST POP POP JUMP JUMPDEST PUSH1 0x67 PUSH1 0x0 DUP3 DUP2 MSTORE PUSH1 0x20 ADD SWAP1 DUP2 MSTORE PUSH1 0x20 ADD PUSH1 0x0 KECCAK256 PUSH1 0x2 ADD PUSH1 0x0 SWAP1 SLOAD SWAP1 PUSH2 0x100 EXP SWAP1 DIV PUSH20 0xFFFFFFFFFFFFFFFFFFFFFFFFFFFFFFFFFFFFFFFF AND DUP1 PUSH20 0xFFFFFFFFFFFFFFFFFFFFFFFFFFFFFFFFFFFFFFFF AND CALLER PUSH20 0xFFFFFFFFFFFFFFFFFFFFFFFFFFFFFFFFFFFFFFFF AND EQ PUSH2 0x49DD JUMPI PUSH1 0x0 DUP1 REVERT JUMPDEST PUSH1 0x67 PUSH1 0x0 DUP4 DUP2 MSTORE PUSH1 0x20 ADD SWAP1 DUP2 MSTORE PUSH1 0x20 ADD PUSH1 0x0 KECCAK256 PUSH1 0x9 ADD PUSH1 0x0 ADD PUSH1 0x0 SWAP1 SLOAD SWAP1 PUSH2 0x100 EXP SWAP1 DIV PUSH20 0xFFFFFFFFFFFFFFFFFFFFFFFFFFFFFFFFFFFFFFFF AND DUP1 PUSH20 0xFFFFFFFFFFFFFFFFFFFFFFFFFFFFFFFFFFFFFFFF AND CALLER PUSH20 0xFFFFFFFFFFFFFFFFFFFFFFFFFFFFFFFFFFFFFFFF AND EQ PUSH2 0x4A4F JUMPI PUSH1 0x0 DUP1 REVERT JUMPDEST PUSH2 0x4A58 CALLER PUSH2 0x478B JUMP JUMPDEST PUSH2 0x4A61 JUMPI PUSH1 0x0 DUP1 REVERT JUMPDEST PUSH1 0x5 PUSH1 0x67 PUSH1 0x0 DUP6 DUP2 MSTORE PUSH1 0x20 ADD SWAP1 DUP2 MSTORE PUSH1 0x20 ADD PUSH1 0x0 KECCAK256 PUSH1 0x2 ADD PUSH1 0x14 PUSH2 0x100 EXP DUP2 SLOAD DUP2 PUSH1 0xFF MUL NOT AND SWAP1 DUP4 PUSH1 0x8 DUP2 GT ISZERO PUSH2 0x4A9B JUMPI PUSH2 0x4A9A PUSH2 0x60E9 JUMP JUMPDEST JUMPDEST MUL OR SWAP1 SSTORE POP PUSH1 0x68 PUSH1 0x0 DUP5 DUP2 MSTORE PUSH1 0x20 ADD SWAP1 DUP2 MSTORE PUSH1 0x20 ADD PUSH1 0x0 KECCAK256 PUSH1 0x0 ADD PUSH1 0x67 PUSH1 0x0 DUP6 DUP2 MSTORE PUSH1 0x20 ADD SWAP1 DUP2 MSTORE PUSH1 0x20 ADD PUSH1 0x0 KECCAK256 SWAP1 DUP1 PUSH1 0x1 DUP2 SLOAD ADD DUP1 DUP3 SSTORE DUP1 SWAP2 POP POP PUSH1 0x1 SWAP1 SUB SWAP1 PUSH1 0x0 MSTORE PUSH1 0x20 PUSH1 0x0 KECCAK256 SWAP1 PUSH1 0x15 MUL ADD PUSH1 0x0 SWAP1 SWAP2 SWAP1 SWAP2 SWAP1 SWAP2 POP PUSH1 0x0 DUP3 ADD SLOAD DUP2 PUSH1 0x0 ADD SSTORE PUSH1 0x1 DUP3 ADD SLOAD DUP2 PUSH1 0x1 ADD SSTORE PUSH1 0x2 DUP3 ADD PUSH1 0x0 SWAP1 SLOAD SWAP1 PUSH2 0x100 EXP SWAP1 DIV PUSH20 0xFFFFFFFFFFFFFFFFFFFFFFFFFFFFFFFFFFFFFFFF AND DUP2 PUSH1 0x2 ADD PUSH1 0x0 PUSH2 0x100 EXP DUP2 SLOAD DUP2 PUSH20 0xFFFFFFFFFFFFFFFFFFFFFFFFFFFFFFFFFFFFFFFF MUL NOT AND SWAP1 DUP4 PUSH20 0xFFFFFFFFFFFFFFFFFFFFFFFFFFFFFFFFFFFFFFFF AND MUL OR SWAP1 SSTORE POP PUSH1 0x2 DUP3 ADD PUSH1 0x14 SWAP1 SLOAD SWAP1 PUSH2 0x100 EXP SWAP1 DIV PUSH1 0xFF AND DUP2 PUSH1 0x2 ADD PUSH1 0x14 PUSH2 0x100 EXP DUP2 SLOAD DUP2 PUSH1 0xFF MUL NOT AND SWAP1 DUP4 PUSH1 0x8 DUP2 GT ISZERO PUSH2 0x4BA5 JUMPI PUSH2 0x4BA4 PUSH2 0x60E9 JUMP JUMPDEST JUMPDEST MUL OR SWAP1 SSTORE POP PUSH1 0x3 DUP3 ADD DUP2 PUSH1 0x3 ADD PUSH1 0x0 DUP3 ADD PUSH1 0x0 SWAP1 SLOAD SWAP1 PUSH2 0x100 EXP SWAP1 DIV PUSH20 0xFFFFFFFFFFFFFFFFFFFFFFFFFFFFFFFFFFFFFFFF AND DUP2 PUSH1 0x0 ADD PUSH1 0x0 PUSH2 0x100 EXP DUP2 SLOAD DUP2 PUSH20 0xFFFFFFFFFFFFFFFFFFFFFFFFFFFFFFFFFFFFFFFF MUL NOT AND SWAP1 DUP4 PUSH20 0xFFFFFFFFFFFFFFFFFFFFFFFFFFFFFFFFFFFFFFFF AND MUL OR SWAP1 SSTORE POP PUSH1 0x1 DUP3 ADD DUP2 PUSH1 0x1 ADD SWAP1 DUP1 SLOAD PUSH2 0x4C2D SWAP1 PUSH2 0x600E JUMP JUMPDEST PUSH2 0x4C38 SWAP3 SWAP2 SWAP1 PUSH2 0x5506 JUMP JUMPDEST POP PUSH1 0x2 DUP3 ADD DUP2 PUSH1 0x2 ADD SWAP1 DUP1 SLOAD PUSH2 0x4C4D SWAP1 PUSH2 0x600E JUMP JUMPDEST PUSH2 0x4C58 SWAP3 SWAP2 SWAP1 PUSH2 0x5506 JUMP JUMPDEST POP PUSH1 0x3 DUP3 ADD DUP2 PUSH1 0x3 ADD SWAP1 DUP1 SLOAD PUSH2 0x4C6D SWAP1 PUSH2 0x600E JUMP JUMPDEST PUSH2 0x4C78 SWAP3 SWAP2 SWAP1 PUSH2 0x5506 JUMP JUMPDEST POP PUSH1 0x4 DUP3 ADD DUP2 PUSH1 0x4 ADD SWAP1 DUP1 SLOAD PUSH2 0x4C8D SWAP1 PUSH2 0x600E JUMP JUMPDEST PUSH2 0x4C98 SWAP3 SWAP2 SWAP1 PUSH2 0x5506 JUMP JUMPDEST POP PUSH1 0x5 DUP3 ADD SLOAD DUP2 PUSH1 0x5 ADD SSTORE POP POP PUSH1 0x9 DUP3 ADD DUP2 PUSH1 0x9 ADD PUSH1 0x0 DUP3 ADD PUSH1 0x0 SWAP1 SLOAD SWAP1 PUSH2 0x100 EXP SWAP1 DIV PUSH20 0xFFFFFFFFFFFFFFFFFFFFFFFFFFFFFFFFFFFFFFFF AND DUP2 PUSH1 0x0 ADD PUSH1 0x0 PUSH2 0x100 EXP DUP2 SLOAD DUP2 PUSH20 0xFFFFFFFFFFFFFFFFFFFFFFFFFFFFFFFFFFFFFFFF MUL NOT AND SWAP1 DUP4 PUSH20 0xFFFFFFFFFFFFFFFFFFFFFFFFFFFFFFFFFFFFFFFF AND MUL OR SWAP1 SSTORE POP PUSH1 0x1 DUP3 ADD DUP2 PUSH1 0x1 ADD SWAP1 DUP1 SLOAD PUSH2 0x4D28 SWAP1 PUSH2 0x600E JUMP JUMPDEST PUSH2 0x4D33 SWAP3 SWAP2 SWAP1 PUSH2 0x5506 JUMP JUMPDEST POP PUSH1 0x2 DUP3 ADD DUP2 PUSH1 0x2 ADD SWAP1 DUP1 SLOAD PUSH2 0x4D48 SWAP1 PUSH2 0x600E JUMP JUMPDEST PUSH2 0x4D53 SWAP3 SWAP2 SWAP1 PUSH2 0x5506 JUMP JUMPDEST POP POP POP PUSH1 0xC DUP3 ADD DUP2 PUSH1 0xC ADD PUSH1 0x0 DUP3 ADD DUP2 PUSH1 0x0 ADD SWAP1 DUP1 SLOAD PUSH2 0x4D72 SWAP1 PUSH2 0x600E JUMP JUMPDEST PUSH2 0x4D7D SWAP3 SWAP2 SWAP1 PUSH2 0x5506 JUMP JUMPDEST POP PUSH1 0x1 DUP3 ADD SLOAD DUP2 PUSH1 0x1 ADD SSTORE PUSH1 0x2 DUP3 ADD SLOAD DUP2 PUSH1 0x2 ADD SSTORE PUSH1 0x3 DUP3 ADD DUP2 PUSH1 0x3 ADD SWAP1 DUP1 SLOAD PUSH2 0x4DA6 SWAP1 PUSH2 0x600E JUMP JUMPDEST PUSH2 0x4DB1 SWAP3 SWAP2 SWAP1 PUSH2 0x5506 JUMP JUMPDEST POP POP POP PUSH1 0x10 DUP3 ADD DUP2 PUSH1 0x10 ADD PUSH1 0x0 DUP3 ADD PUSH1 0x0 SWAP1 SLOAD SWAP1 PUSH2 0x100 EXP SWAP1 DIV PUSH20 0xFFFFFFFFFFFFFFFFFFFFFFFFFFFFFFFFFFFFFFFF AND DUP2 PUSH1 0x0 ADD PUSH1 0x0 PUSH2 0x100 EXP DUP2 SLOAD DUP2 PUSH20 0xFFFFFFFFFFFFFFFFFFFFFFFFFFFFFFFFFFFFFFFF MUL NOT AND SWAP1 DUP4 PUSH20 0xFFFFFFFFFFFFFFFFFFFFFFFFFFFFFFFFFFFFFFFF AND MUL OR SWAP1 SSTORE POP PUSH1 0x1 DUP3 ADD DUP2 PUSH1 0x1 ADD SWAP1 DUP1 SLOAD PUSH2 0x4E37 SWAP1 PUSH2 0x600E JUMP JUMPDEST PUSH2 0x4E42 SWAP3 SWAP2 SWAP1 PUSH2 0x5506 JUMP JUMPDEST POP PUSH1 0x2 DUP3 ADD DUP2 PUSH1 0x2 ADD SWAP1 DUP1 SLOAD PUSH2 0x4E57 SWAP1 PUSH2 0x600E JUMP JUMPDEST PUSH2 0x4E62 SWAP3 SWAP2 SWAP1 PUSH2 0x5506 JUMP JUMPDEST POP POP POP PUSH1 0x13 DUP3 ADD PUSH1 0x0 SWAP1 SLOAD SWAP1 PUSH2 0x100 EXP SWAP1 DIV PUSH20 0xFFFFFFFFFFFFFFFFFFFFFFFFFFFFFFFFFFFFFFFF AND DUP2 PUSH1 0x13 ADD PUSH1 0x0 PUSH2 0x100 EXP DUP2 SLOAD DUP2 PUSH20 0xFFFFFFFFFFFFFFFFFFFFFFFFFFFFFFFFFFFFFFFF MUL NOT AND SWAP1 DUP4 PUSH20 0xFFFFFFFFFFFFFFFFFFFFFFFFFFFFFFFFFFFFFFFF AND MUL OR SWAP1 SSTORE POP PUSH1 0x14 DUP3 ADD DUP2 PUSH1 0x14 ADD SWAP1 DUP1 SLOAD PUSH2 0x4EE0 SWAP1 PUSH2 0x600E JUMP JUMPDEST PUSH2 0x4EEB SWAP3 SWAP2 SWAP1 PUSH2 0x5506 JUMP JUMPDEST POP POP POP PUSH32 0xF2452D569E5BC407D222A6BCAD7D4BB8BAC5FAE64CE52FA183BD77E34E0CC147 DUP4 PUSH1 0x40 MLOAD PUSH2 0x4F1D SWAP2 SWAP1 PUSH2 0x5CFC JUMP JUMPDEST PUSH1 0x40 MLOAD DUP1 SWAP2 SUB SWAP1 LOG1 POP POP POP JUMP JUMPDEST PUSH1 0x0 PUSH1 0x65 SLOAD SWAP1 POP SWAP1 JUMP JUMPDEST PUSH2 0x4F3C PUSH2 0x51AE JUMP JUMPDEST PUSH1 0x0 PUSH20 0xFFFFFFFFFFFFFFFFFFFFFFFFFFFFFFFFFFFFFFFF AND DUP2 PUSH20 0xFFFFFFFFFFFFFFFFFFFFFFFFFFFFFFFFFFFFFFFF AND EQ ISZERO PUSH2 0x4FAC JUMPI PUSH1 0x40 MLOAD PUSH32 0x8C379A000000000000000000000000000000000000000000000000000000000 DUP2 MSTORE PUSH1 0x4 ADD PUSH2 0x4FA3 SWAP1 PUSH2 0x5C7C JUMP JUMPDEST PUSH1 0x40 MLOAD DUP1 SWAP2 SUB SWAP1 REVERT JUMPDEST PUSH2 0x4FB5 DUP2 PUSH2 0x522C JUMP JUMPDEST POP JUMP JUMPDEST PUSH1 0x0 PUSH20 0xFFFFFFFFFFFFFFFFFFFFFFFFFFFFFFFFFFFFFFFF AND DUP2 PUSH20 0xFFFFFFFFFFFFFFFFFFFFFFFFFFFFFFFFFFFFFFFF AND EQ ISZERO PUSH2 0x4FF2 JUMPI PUSH1 0x0 DUP1 REVERT JUMPDEST PUSH2 0x4FFB DUP2 PUSH2 0x481D JUMP JUMPDEST ISZERO PUSH2 0x5005 JUMPI PUSH1 0x0 DUP1 REVERT JUMPDEST PUSH1 0x1 PUSH1 0x69 PUSH1 0x0 DUP4 PUSH20 0xFFFFFFFFFFFFFFFFFFFFFFFFFFFFFFFFFFFFFFFF AND PUSH20 0xFFFFFFFFFFFFFFFFFFFFFFFFFFFFFFFFFFFFFFFF AND DUP2 MSTORE PUSH1 0x20 ADD SWAP1 DUP2 MSTORE PUSH1 0x20 ADD PUSH1 0x0 KECCAK256 PUSH1 0x0 ADD PUSH1 0x2 PUSH2 0x100 EXP DUP2 SLOAD DUP2 PUSH1 0xFF MUL NOT AND SWAP1 DUP4 ISZERO ISZERO MUL OR SWAP1 SSTORE POP POP JUMP JUMPDEST PUSH1 0x65 SLOAD DUP2 JUMP JUMPDEST PUSH1 0x0 PUSH1 0x60 DUP1 PUSH1 0x60 PUSH1 0x0 PUSH1 0x60 DUP1 PUSH1 0x0 DUP8 DUP10 PUSH1 0xA0 ADD MLOAD PUSH1 0x0 ADD SWAP1 PUSH20 0xFFFFFFFFFFFFFFFFFFFFFFFFFFFFFFFFFFFFFFFF AND SWAP1 DUP2 PUSH20 0xFFFFFFFFFFFFFFFFFFFFFFFFFFFFFFFFFFFFFFFF AND DUP2 MSTORE POP POP DUP6 DUP10 PUSH1 0xA0 ADD MLOAD PUSH1 0x20 ADD DUP2 SWAP1 MSTORE POP DUP5 DUP10 PUSH1 0xA0 ADD MLOAD PUSH1 0x40 ADD DUP2 SWAP1 MSTORE POP DUP4 DUP10 PUSH1 0xE0 ADD MLOAD PUSH1 0x0 ADD SWAP1 PUSH20 0xFFFFFFFFFFFFFFFFFFFFFFFFFFFFFFFFFFFFFFFF AND SWAP1 DUP2 PUSH20 0xFFFFFFFFFFFFFFFFFFFFFFFFFFFFFFFFFFFFFFFF AND DUP2 MSTORE POP POP DUP3 DUP10 PUSH1 0xE0 ADD MLOAD PUSH1 0x20 ADD DUP2 SWAP1 MSTORE POP DUP2 DUP10 PUSH1 0xE0 ADD MLOAD PUSH1 0x40 ADD DUP2 SWAP1 MSTORE POP DUP1 DUP10 PUSH2 0x100 ADD SWAP1 PUSH20 0xFFFFFFFFFFFFFFFFFFFFFFFFFFFFFFFFFFFFFFFF AND SWAP1 DUP2 PUSH20 0xFFFFFFFFFFFFFFFFFFFFFFFFFFFFFFFFFFFFFFFF AND DUP2 MSTORE POP POP DUP7 DUP10 PUSH2 0x120 ADD DUP2 SWAP1 MSTORE POP POP POP POP POP POP POP POP POP POP JUMP JUMPDEST DUP4 DUP6 PUSH1 0xC0 ADD MLOAD PUSH1 0x0 ADD DUP2 SWAP1 MSTORE POP DUP3 DUP6 PUSH1 0xC0 ADD MLOAD PUSH1 0x20 ADD DUP2 DUP2 MSTORE POP POP DUP2 DUP6 PUSH1 0xC0 ADD MLOAD PUSH1 0x40 ADD DUP2 DUP2 MSTORE POP POP DUP1 DUP6 PUSH1 0xC0 ADD MLOAD PUSH1 0x60 ADD DUP2 SWAP1 MSTORE POP POP POP POP POP POP JUMP JUMPDEST PUSH2 0x51B6 PUSH2 0x536E JUMP JUMPDEST PUSH20 0xFFFFFFFFFFFFFFFFFFFFFFFFFFFFFFFFFFFFFFFF AND PUSH2 0x51D4 PUSH2 0x37C6 JUMP JUMPDEST PUSH20 0xFFFFFFFFFFFFFFFFFFFFFFFFFFFFFFFFFFFFFFFF AND EQ PUSH2 0x522A JUMPI PUSH1 0x40 MLOAD PUSH32 0x8C379A000000000000000000000000000000000000000000000000000000000 DUP2 MSTORE PUSH1 0x4 ADD PUSH2 0x5221 SWAP1 PUSH2 0x5CBC JUMP JUMPDEST PUSH1 0x40 MLOAD DUP1 SWAP2 SUB SWAP1 REVERT JUMPDEST JUMP JUMPDEST PUSH1 0x0 PUSH1 0x33 PUSH1 0x0 SWAP1 SLOAD SWAP1 PUSH2 0x100 EXP SWAP1 DIV PUSH20 0xFFFFFFFFFFFFFFFFFFFFFFFFFFFFFFFFFFFFFFFF AND SWAP1 POP DUP2 PUSH1 0x33 PUSH1 0x0 PUSH2 0x100 EXP DUP2 SLOAD DUP2 PUSH20 0xFFFFFFFFFFFFFFFFFFFFFFFFFFFFFFFFFFFFFFFF MUL NOT AND SWAP1 DUP4 PUSH20 0xFFFFFFFFFFFFFFFFFFFFFFFFFFFFFFFFFFFFFFFF AND MUL OR SWAP1 SSTORE POP DUP2 PUSH20 0xFFFFFFFFFFFFFFFFFFFFFFFFFFFFFFFFFFFFFFFF AND DUP2 PUSH20 0xFFFFFFFFFFFFFFFFFFFFFFFFFFFFFFFFFFFFFFFF AND PUSH32 0x8BE0079C531659141344CD1FD0A4F28419497F9722A3DAAFE3B4186F6B6457E0 PUSH1 0x40 MLOAD PUSH1 0x40 MLOAD DUP1 SWAP2 SUB SWAP1 LOG3 POP POP JUMP JUMPDEST PUSH1 0x0 DUP1 DUP3 PUSH20 0xFFFFFFFFFFFFFFFFFFFFFFFFFFFFFFFFFFFFFFFF AND EXTCODESIZE GT SWAP1 POP SWAP2 SWAP1 POP JUMP JUMPDEST PUSH1 0x0 PUSH1 0x1 SWAP1 SLOAD SWAP1 PUSH2 0x100 EXP SWAP1 DIV PUSH1 0xFF AND PUSH2 0x5364 JUMPI PUSH1 0x40 MLOAD PUSH32 0x8C379A000000000000000000000000000000000000000000000000000000000 DUP2 MSTORE PUSH1 0x4 ADD PUSH2 0x535B SWAP1 PUSH2 0x5CDC JUMP JUMPDEST PUSH1 0x40 MLOAD DUP1 SWAP2 SUB SWAP1 REVERT JUMPDEST PUSH2 0x536C PUSH2 0x5376 JUMP JUMPDEST JUMP JUMPDEST PUSH1 0x0 CALLER SWAP1 POP SWAP1 JUMP JUMPDEST PUSH1 0x0 PUSH1 0x1 SWAP1 SLOAD SWAP1 PUSH2 0x100 EXP SWAP1 DIV PUSH1 0xFF AND PUSH2 0x53C5 JUMPI PUSH1 0x40 MLOAD PUSH32 0x8C379A000000000000000000000000000000000000000000000000000000000 DUP2 MSTORE PUSH1 0x4 ADD PUSH2 0x53BC SWAP1 PUSH2 0x5CDC JUMP JUMPDEST PUSH1 0x40 MLOAD DUP1 SWAP2 SUB SWAP1 REVERT JUMPDEST PUSH2 0x53D5 PUSH2 0x53D0 PUSH2 0x536E JUMP JUMPDEST PUSH2 0x522C JUMP JUMPDEST JUMP JUMPDEST PUSH1 0x40 MLOAD DUP1 PUSH2 0x140 ADD PUSH1 0x40 MSTORE DUP1 PUSH1 0x0 DUP2 MSTORE PUSH1 0x20 ADD PUSH1 0x0 DUP2 MSTORE PUSH1 0x20 ADD PUSH1 0x0 PUSH20 0xFFFFFFFFFFFFFFFFFFFFFFFFFFFFFFFFFFFFFFFF AND DUP2 MSTORE PUSH1 0x20 ADD PUSH1 0x0 PUSH1 0x8 DUP2 GT ISZERO PUSH2 0x5422 JUMPI PUSH2 0x5421 PUSH2 0x60E9 JUMP JUMPDEST JUMPDEST DUP2 MSTORE PUSH1 0x20 ADD PUSH2 0x542F PUSH2 0x5593 JUMP JUMPDEST DUP2 MSTORE PUSH1 0x20 ADD PUSH2 0x543C PUSH2 0x55DF JUMP JUMPDEST DUP2 MSTORE PUSH1 0x20 ADD PUSH2 0x5449 PUSH2 0x5616 JUMP JUMPDEST DUP2 MSTORE PUSH1 0x20 ADD PUSH2 0x5456 PUSH2 0x563E JUMP JUMPDEST DUP2 MSTORE PUSH1 0x20 ADD PUSH1 0x0 PUSH20 0xFFFFFFFFFFFFFFFFFFFFFFFFFFFFFFFFFFFFFFFF AND DUP2 MSTORE PUSH1 0x20 ADD PUSH1 0x60 DUP2 MSTORE POP SWAP1 JUMP JUMPDEST DUP3 DUP1 SLOAD PUSH2 0x548C SWAP1 PUSH2 0x600E JUMP JUMPDEST SWAP1 PUSH1 0x0 MSTORE PUSH1 0x20 PUSH1 0x0 KECCAK256 SWAP1 PUSH1 0x1F ADD PUSH1 0x20 SWAP1 DIV DUP2 ADD SWAP3 DUP3 PUSH2 0x54AE JUMPI PUSH1 0x0 DUP6 SSTORE PUSH2 0x54F5 JUMP JUMPDEST DUP3 PUSH1 0x1F LT PUSH2 0x54C7 JUMPI DUP1 MLOAD PUSH1 0xFF NOT AND DUP4 DUP1 ADD OR DUP6 SSTORE PUSH2 0x54F5 JUMP JUMPDEST DUP3 DUP1 ADD PUSH1 0x1 ADD DUP6 SSTORE DUP3 ISZERO PUSH2 0x54F5 JUMPI SWAP2 DUP3 ADD JUMPDEST DUP3 DUP2 GT ISZERO PUSH2 0x54F4 JUMPI DUP3 MLOAD DUP3 SSTORE SWAP2 PUSH1 0x20 ADD SWAP2 SWAP1 PUSH1 0x1 ADD SWAP1 PUSH2 0x54D9 JUMP JUMPDEST JUMPDEST POP SWAP1 POP PUSH2 0x5502 SWAP2 SWAP1 PUSH2 0x5675 JUMP JUMPDEST POP SWAP1 JUMP JUMPDEST DUP3 DUP1 SLOAD PUSH2 0x5512 SWAP1 PUSH2 0x600E JUMP JUMPDEST SWAP1 PUSH1 0x0 MSTORE PUSH1 0x20 PUSH1 0x0 KECCAK256 SWAP1 PUSH1 0x1F ADD PUSH1 0x20 SWAP1 DIV DUP2 ADD SWAP3 DUP3 PUSH2 0x5534 JUMPI PUSH1 0x0 DUP6 SSTORE PUSH2 0x5582 JUMP JUMPDEST DUP3 PUSH1 0x1F LT PUSH2 0x5545 JUMPI DUP1 SLOAD DUP6 SSTORE PUSH2 0x5582 JUMP JUMPDEST DUP3 DUP1 ADD PUSH1 0x1 ADD DUP6 SSTORE DUP3 ISZERO PUSH2 0x5582 JUMPI PUSH1 0x0 MSTORE PUSH1 0x20 PUSH1 0x0 KECCAK256 SWAP2 PUSH1 0x1F ADD PUSH1 0x20 SWAP1 DIV DUP3 ADD JUMPDEST DUP3 DUP2 GT ISZERO PUSH2 0x5581 JUMPI DUP3 SLOAD DUP3 SSTORE SWAP2 PUSH1 0x1 ADD SWAP2 SWAP1 PUSH1 0x1 ADD SWAP1 PUSH2 0x5566 JUMP JUMPDEST JUMPDEST POP SWAP1 POP PUSH2 0x558F SWAP2 SWAP1 PUSH2 0x5675 JUMP JUMPDEST POP SWAP1 JUMP JUMPDEST PUSH1 0x40 MLOAD DUP1 PUSH1 0xC0 ADD PUSH1 0x40 MSTORE DUP1 PUSH1 0x0 PUSH20 0xFFFFFFFFFFFFFFFFFFFFFFFFFFFFFFFFFFFFFFFF AND DUP2 MSTORE PUSH1 0x20 ADD PUSH1 0x60 DUP2 MSTORE PUSH1 0x20 ADD PUSH1 0x60 DUP2 MSTORE PUSH1 0x20 ADD PUSH1 0x60 DUP2 MSTORE PUSH1 0x20 ADD PUSH1 0x60 DUP2 MSTORE PUSH1 0x20 ADD PUSH1 0x0 DUP2 MSTORE POP SWAP1 JUMP JUMPDEST PUSH1 0x40 MLOAD DUP1 PUSH1 0x60 ADD PUSH1 0x40 MSTORE DUP1 PUSH1 0x0 PUSH20 0xFFFFFFFFFFFFFFFFFFFFFFFFFFFFFFFFFFFFFFFF AND DUP2 MSTORE PUSH1 0x20 ADD PUSH1 0x60 DUP2 MSTORE PUSH1 0x20 ADD PUSH1 0x60 DUP2 MSTORE POP SWAP1 JUMP JUMPDEST PUSH1 0x40 MLOAD DUP1 PUSH1 0x80 ADD PUSH1 0x40 MSTORE DUP1 PUSH1 0x60 DUP2 MSTORE PUSH1 0x20 ADD PUSH1 0x0 DUP2 MSTORE PUSH1 0x20 ADD PUSH1 0x0 DUP2 MSTORE PUSH1 0x20 ADD PUSH1 0x60 DUP2 MSTORE POP SWAP1 JUMP JUMPDEST PUSH1 0x40 MLOAD DUP1 PUSH1 0x60 ADD PUSH1 0x40 MSTORE DUP1 PUSH1 0x0 PUSH20 0xFFFFFFFFFFFFFFFFFFFFFFFFFFFFFFFFFFFFFFFF AND DUP2 MSTORE PUSH1 0x20 ADD PUSH1 0x60 DUP2 MSTORE PUSH1 0x20 ADD PUSH1 0x60 DUP2 MSTORE POP SWAP1 JUMP JUMPDEST JUMPDEST DUP1 DUP3 GT ISZERO PUSH2 0x568E JUMPI PUSH1 0x0 DUP2 PUSH1 0x0 SWAP1 SSTORE POP PUSH1 0x1 ADD PUSH2 0x5676 JUMP JUMPDEST POP SWAP1 JUMP JUMPDEST PUSH1 0x0 PUSH2 0x56A5 PUSH2 0x56A0 DUP5 PUSH2 0x5E69 JUMP JUMPDEST PUSH2 0x5E44 JUMP JUMPDEST SWAP1 POP DUP3 DUP2 MSTORE PUSH1 0x20 DUP2 ADD DUP5 DUP5 DUP5 ADD GT ISZERO PUSH2 0x56C1 JUMPI PUSH2 0x56C0 PUSH2 0x61AA JUMP JUMPDEST JUMPDEST PUSH2 0x56CC DUP5 DUP3 DUP6 PUSH2 0x5FCC JUMP JUMPDEST POP SWAP4 SWAP3 POP POP POP JUMP JUMPDEST PUSH1 0x0 DUP2 CALLDATALOAD SWAP1 POP PUSH2 0x56E3 DUP2 PUSH2 0x62F4 JUMP JUMPDEST SWAP3 SWAP2 POP POP JUMP JUMPDEST PUSH1 0x0 DUP3 PUSH1 0x1F DUP4 ADD SLT PUSH2 0x56FE JUMPI PUSH2 0x56FD PUSH2 0x61A5 JUMP JUMPDEST JUMPDEST DUP2 CALLDATALOAD PUSH2 0x570E DUP5 DUP3 PUSH1 0x20 DUP7 ADD PUSH2 0x5692 JUMP JUMPDEST SWAP2 POP POP SWAP3 SWAP2 POP POP JUMP JUMPDEST PUSH1 0x0 DUP2 CALLDATALOAD SWAP1 POP PUSH2 0x5726 DUP2 PUSH2 0x630B JUMP JUMPDEST SWAP3 SWAP2 POP POP JUMP JUMPDEST PUSH1 0x0 PUSH1 0x20 DUP3 DUP5 SUB SLT ISZERO PUSH2 0x5742 JUMPI PUSH2 0x5741 PUSH2 0x61B4 JUMP JUMPDEST JUMPDEST PUSH1 0x0 PUSH2 0x5750 DUP5 DUP3 DUP6 ADD PUSH2 0x56D4 JUMP JUMPDEST SWAP2 POP POP SWAP3 SWAP2 POP POP JUMP JUMPDEST PUSH1 0x0 PUSH1 0x20 DUP3 DUP5 SUB SLT ISZERO PUSH2 0x576F JUMPI PUSH2 0x576E PUSH2 0x61B4 JUMP JUMPDEST JUMPDEST PUSH1 0x0 DUP3 ADD CALLDATALOAD PUSH8 0xFFFFFFFFFFFFFFFF DUP2 GT ISZERO PUSH2 0x578D JUMPI PUSH2 0x578C PUSH2 0x61AF JUMP JUMPDEST JUMPDEST PUSH2 0x5799 DUP5 DUP3 DUP6 ADD PUSH2 0x56E9 JUMP JUMPDEST SWAP2 POP POP SWAP3 SWAP2 POP POP JUMP JUMPDEST PUSH1 0x0 DUP1 PUSH1 0x0 DUP1 PUSH1 0x0 DUP1 PUSH1 0x0 DUP1 PUSH2 0x100 DUP10 DUP12 SUB SLT ISZERO PUSH2 0x57C3 JUMPI PUSH2 0x57C2 PUSH2 0x61B4 JUMP JUMPDEST JUMPDEST PUSH1 0x0 DUP10 ADD CALLDATALOAD PUSH8 0xFFFFFFFFFFFFFFFF DUP2 GT ISZERO PUSH2 0x57E1 JUMPI PUSH2 0x57E0 PUSH2 0x61AF JUMP JUMPDEST JUMPDEST PUSH2 0x57ED DUP12 DUP3 DUP13 ADD PUSH2 0x56E9 JUMP JUMPDEST SWAP9 POP POP PUSH1 0x20 DUP10 ADD CALLDATALOAD PUSH8 0xFFFFFFFFFFFFFFFF DUP2 GT ISZERO PUSH2 0x580E JUMPI PUSH2 0x580D PUSH2 0x61AF JUMP JUMPDEST JUMPDEST PUSH2 0x581A DUP12 DUP3 DUP13 ADD PUSH2 0x56E9 JUMP JUMPDEST SWAP8 POP POP PUSH1 0x40 DUP10 ADD CALLDATALOAD PUSH8 0xFFFFFFFFFFFFFFFF DUP2 GT ISZERO PUSH2 0x583B JUMPI PUSH2 0x583A PUSH2 0x61AF JUMP JUMPDEST JUMPDEST PUSH2 0x5847 DUP12 DUP3 DUP13 ADD PUSH2 0x56E9 JUMP JUMPDEST SWAP7 POP POP PUSH1 0x60 DUP10 ADD CALLDATALOAD PUSH8 0xFFFFFFFFFFFFFFFF DUP2 GT ISZERO PUSH2 0x5868 JUMPI PUSH2 0x5867 PUSH2 0x61AF JUMP JUMPDEST JUMPDEST PUSH2 0x5874 DUP12 DUP3 DUP13 ADD PUSH2 0x56E9 JUMP JUMPDEST SWAP6 POP POP PUSH1 0x80 DUP10 ADD CALLDATALOAD PUSH8 0xFFFFFFFFFFFFFFFF DUP2 GT ISZERO PUSH2 0x5895 JUMPI PUSH2 0x5894 PUSH2 0x61AF JUMP JUMPDEST JUMPDEST PUSH2 0x58A1 DUP12 DUP3 DUP13 ADD PUSH2 0x56E9 JUMP JUMPDEST SWAP5 POP POP PUSH1 0xA0 PUSH2 0x58B2 DUP12 DUP3 DUP13 ADD PUSH2 0x5717 JUMP JUMPDEST SWAP4 POP POP PUSH1 0xC0 PUSH2 0x58C3 DUP12 DUP3 DUP13 ADD PUSH2 0x5717 JUMP JUMPDEST SWAP3 POP POP PUSH1 0xE0 DUP10 ADD CALLDATALOAD PUSH8 0xFFFFFFFFFFFFFFFF DUP2 GT ISZERO PUSH2 0x58E4 JUMPI PUSH2 0x58E3 PUSH2 0x61AF JUMP JUMPDEST JUMPDEST PUSH2 0x58F0 DUP12 DUP3 DUP13 ADD PUSH2 0x56E9 JUMP JUMPDEST SWAP2 POP POP SWAP3 SWAP6 SWAP9 POP SWAP3 SWAP6 SWAP9 SWAP1 SWAP4 SWAP7 POP JUMP JUMPDEST PUSH1 0x0 PUSH1 0x20 DUP3 DUP5 SUB SLT ISZERO PUSH2 0x5916 JUMPI PUSH2 0x5915 PUSH2 0x61B4 JUMP JUMPDEST JUMPDEST PUSH1 0x0 PUSH2 0x5924 DUP5 DUP3 DUP6 ADD PUSH2 0x5717 JUMP JUMPDEST SWAP2 POP POP SWAP3 SWAP2 POP POP JUMP JUMPDEST PUSH1 0x0 DUP1 PUSH1 0x40 DUP4 DUP6 SUB SLT ISZERO PUSH2 0x5944 JUMPI PUSH2 0x5943 PUSH2 0x61B4 JUMP JUMPDEST JUMPDEST PUSH1 0x0 PUSH2 0x5952 DUP6 DUP3 DUP7 ADD PUSH2 0x5717 JUMP JUMPDEST SWAP3 POP POP PUSH1 0x20 DUP4 ADD CALLDATALOAD PUSH8 0xFFFFFFFFFFFFFFFF DUP2 GT ISZERO PUSH2 0x5973 JUMPI PUSH2 0x5972 PUSH2 0x61AF JUMP JUMPDEST JUMPDEST PUSH2 0x597F DUP6 DUP3 DUP7 ADD PUSH2 0x56E9 JUMP JUMPDEST SWAP2 POP POP SWAP3 POP SWAP3 SWAP1 POP JUMP JUMPDEST PUSH1 0x0 DUP1 PUSH1 0x0 PUSH1 0x60 DUP5 DUP7 SUB SLT ISZERO PUSH2 0x59A2 JUMPI PUSH2 0x59A1 PUSH2 0x61B4 JUMP JUMPDEST JUMPDEST PUSH1 0x0 PUSH2 0x59B0 DUP7 DUP3 DUP8 ADD PUSH2 0x5717 JUMP JUMPDEST SWAP4 POP POP PUSH1 0x20 DUP5 ADD CALLDATALOAD PUSH8 0xFFFFFFFFFFFFFFFF DUP2 GT ISZERO PUSH2 0x59D1 JUMPI PUSH2 0x59D0 PUSH2 0x61AF JUMP JUMPDEST JUMPDEST PUSH2 0x59DD DUP7 DUP3 DUP8 ADD PUSH2 0x56E9 JUMP JUMPDEST SWAP3 POP POP PUSH1 0x40 DUP5 ADD CALLDATALOAD PUSH8 0xFFFFFFFFFFFFFFFF DUP2 GT ISZERO PUSH2 0x59FE JUMPI PUSH2 0x59FD PUSH2 0x61AF JUMP JUMPDEST JUMPDEST PUSH2 0x5A0A DUP7 DUP3 DUP8 ADD PUSH2 0x56E9 JUMP JUMPDEST SWAP2 POP POP SWAP3 POP SWAP3 POP SWAP3 JUMP JUMPDEST PUSH1 0x0 DUP1 PUSH1 0x0 PUSH1 0x60 DUP5 DUP7 SUB SLT ISZERO PUSH2 0x5A2D JUMPI PUSH2 0x5A2C PUSH2 0x61B4 JUMP JUMPDEST JUMPDEST PUSH1 0x0 PUSH2 0x5A3B DUP7 DUP3 DUP8 ADD PUSH2 0x5717 JUMP JUMPDEST SWAP4 POP POP PUSH1 0x20 DUP5 ADD CALLDATALOAD PUSH8 0xFFFFFFFFFFFFFFFF DUP2 GT ISZERO PUSH2 0x5A5C JUMPI PUSH2 0x5A5B PUSH2 0x61AF JUMP JUMPDEST JUMPDEST PUSH2 0x5A68 DUP7 DUP3 DUP8 ADD PUSH2 0x56E9 JUMP JUMPDEST SWAP3 POP POP PUSH1 0x40 PUSH2 0x5A79 DUP7 DUP3 DUP8 ADD PUSH2 0x5717 JUMP JUMPDEST SWAP2 POP POP SWAP3 POP SWAP3 POP SWAP3 JUMP JUMPDEST PUSH2 0x5A8C DUP2 PUSH2 0x5F40 JUMP JUMPDEST DUP3 MSTORE POP POP JUMP JUMPDEST PUSH2 0x5A9B DUP2 PUSH2 0x5F52 JUMP JUMPDEST DUP3 MSTORE POP POP JUMP JUMPDEST PUSH2 0x5AAA DUP2 PUSH2 0x5FA8 JUMP JUMPDEST DUP3 MSTORE POP POP JUMP JUMPDEST PUSH2 0x5AB9 DUP2 PUSH2 0x5FBA JUMP JUMPDEST DUP3 MSTORE POP POP JUMP JUMPDEST PUSH1 0x0 PUSH2 0x5ACA DUP3 PUSH2 0x5E9A JUMP JUMPDEST PUSH2 0x5AD4 DUP2 DUP6 PUSH2 0x5EA5 JUMP JUMPDEST SWAP4 POP PUSH2 0x5AE4 DUP2 DUP6 PUSH1 0x20 DUP7 ADD PUSH2 0x5FDB JUMP JUMPDEST PUSH2 0x5AED DUP2 PUSH2 0x61B9 JUMP JUMPDEST DUP5 ADD SWAP2 POP POP SWAP3 SWAP2 POP POP JUMP JUMPDEST PUSH1 0x0 PUSH2 0x5B05 PUSH1 0x26 DUP4 PUSH2 0x5EA5 JUMP JUMPDEST SWAP2 POP PUSH2 0x5B10 DUP3 PUSH2 0x61CA JUMP JUMPDEST PUSH1 0x40 DUP3 ADD SWAP1 POP SWAP2 SWAP1 POP JUMP JUMPDEST PUSH1 0x0 PUSH2 0x5B28 PUSH1 0x2E DUP4 PUSH2 0x5EA5 JUMP JUMPDEST SWAP2 POP PUSH2 0x5B33 DUP3 PUSH2 0x6219 JUMP JUMPDEST PUSH1 0x40 DUP3 ADD SWAP1 POP SWAP2 SWAP1 POP JUMP JUMPDEST PUSH1 0x0 PUSH2 0x5B4B PUSH1 0x20 DUP4 PUSH2 0x5EA5 JUMP JUMPDEST SWAP2 POP PUSH2 0x5B56 DUP3 PUSH2 0x6268 JUMP JUMPDEST PUSH1 0x20 DUP3 ADD SWAP1 POP SWAP2 SWAP1 POP JUMP JUMPDEST PUSH1 0x0 PUSH2 0x5B6E PUSH1 0x2B DUP4 PUSH2 0x5EA5 JUMP JUMPDEST SWAP2 POP PUSH2 0x5B79 DUP3 PUSH2 0x6291 JUMP JUMPDEST PUSH1 0x40 DUP3 ADD SWAP1 POP SWAP2 SWAP1 POP JUMP JUMPDEST PUSH2 0x5B8D DUP2 PUSH2 0x5F91 JUMP JUMPDEST DUP3 MSTORE POP POP JUMP JUMPDEST PUSH1 0x0 PUSH1 0x20 DUP3 ADD SWAP1 POP PUSH2 0x5BA8 PUSH1 0x0 DUP4 ADD DUP5 PUSH2 0x5A83 JUMP JUMPDEST SWAP3 SWAP2 POP POP JUMP JUMPDEST PUSH1 0x0 PUSH1 0x20 DUP3 ADD SWAP1 POP PUSH2 0x5BC3 PUSH1 0x0 DUP4 ADD DUP5 PUSH2 0x5A92 JUMP JUMPDEST SWAP3 SWAP2 POP POP JUMP JUMPDEST PUSH1 0x0 PUSH1 0x20 DUP3 ADD SWAP1 POP PUSH2 0x5BDE PUSH1 0x0 DUP4 ADD DUP5 PUSH2 0x5AA1 JUMP JUMPDEST SWAP3 SWAP2 POP POP JUMP JUMPDEST PUSH1 0x0 PUSH1 0x20 DUP3 ADD SWAP1 POP PUSH2 0x5BF9 PUSH1 0x0 DUP4 ADD DUP5 PUSH2 0x5AB0 JUMP JUMPDEST SWAP3 SWAP2 POP POP JUMP JUMPDEST PUSH1 0x0 PUSH1 0xC0 DUP3 ADD SWAP1 POP DUP2 DUP2 SUB PUSH1 0x0 DUP4 ADD MSTORE PUSH2 0x5C19 DUP2 DUP10 PUSH2 0x5ABF JUMP JUMPDEST SWAP1 POP PUSH2 0x5C28 PUSH1 0x20 DUP4 ADD DUP9 PUSH2 0x5A83 JUMP JUMPDEST DUP2 DUP2 SUB PUSH1 0x40 DUP4 ADD MSTORE PUSH2 0x5C3A DUP2 DUP8 PUSH2 0x5ABF JUMP JUMPDEST SWAP1 POP DUP2 DUP2 SUB PUSH1 0x60 DUP4 ADD MSTORE PUSH2 0x5C4E DUP2 DUP7 PUSH2 0x5ABF JUMP JUMPDEST SWAP1 POP PUSH2 0x5C5D PUSH1 0x80 DUP4 ADD DUP6 PUSH2 0x5A83 JUMP JUMPDEST DUP2 DUP2 SUB PUSH1 0xA0 DUP4 ADD MSTORE PUSH2 0x5C6F DUP2 DUP5 PUSH2 0x5ABF JUMP JUMPDEST SWAP1 POP SWAP8 SWAP7 POP POP POP POP POP POP POP JUMP JUMPDEST PUSH1 0x0 PUSH1 0x20 DUP3 ADD SWAP1 POP DUP2 DUP2 SUB PUSH1 0x0 DUP4 ADD MSTORE PUSH2 0x5C95 DUP2 PUSH2 0x5AF8 JUMP JUMPDEST SWAP1 POP SWAP2 SWAP1 POP JUMP JUMPDEST PUSH1 0x0 PUSH1 0x20 DUP3 ADD SWAP1 POP DUP2 DUP2 SUB PUSH1 0x0 DUP4 ADD MSTORE PUSH2 0x5CB5 DUP2 PUSH2 0x5B1B JUMP JUMPDEST SWAP1 POP SWAP2 SWAP1 POP JUMP JUMPDEST PUSH1 0x0 PUSH1 0x20 DUP3 ADD SWAP1 POP DUP2 DUP2 SUB PUSH1 0x0 DUP4 ADD MSTORE PUSH2 0x5CD5 DUP2 PUSH2 0x5B3E JUMP JUMPDEST SWAP1 POP SWAP2 SWAP1 POP JUMP JUMPDEST PUSH1 0x0 PUSH1 0x20 DUP3 ADD SWAP1 POP DUP2 DUP2 SUB PUSH1 0x0 DUP4 ADD MSTORE PUSH2 0x5CF5 DUP2 PUSH2 0x5B61 JUMP JUMPDEST SWAP1 POP SWAP2 SWAP1 POP JUMP JUMPDEST PUSH1 0x0 PUSH1 0x20 DUP3 ADD SWAP1 POP PUSH2 0x5D11 PUSH1 0x0 DUP4 ADD DUP5 PUSH2 0x5B84 JUMP JUMPDEST SWAP3 SWAP2 POP POP JUMP JUMPDEST PUSH1 0x0 PUSH2 0x100 DUP3 ADD SWAP1 POP PUSH2 0x5D2D PUSH1 0x0 DUP4 ADD DUP12 PUSH2 0x5B84 JUMP JUMPDEST DUP2 DUP2 SUB PUSH1 0x20 DUP4 ADD MSTORE PUSH2 0x5D3F DUP2 DUP11 PUSH2 0x5ABF JUMP JUMPDEST SWAP1 POP PUSH2 0x5D4E PUSH1 0x40 DUP4 ADD DUP10 PUSH2 0x5B84 JUMP JUMPDEST PUSH2 0x5D5B PUSH1 0x60 DUP4 ADD DUP9 PUSH2 0x5B84 JUMP JUMPDEST DUP2 DUP2 SUB PUSH1 0x80 DUP4 ADD MSTORE PUSH2 0x5D6D DUP2 DUP8 PUSH2 0x5ABF JUMP JUMPDEST SWAP1 POP PUSH2 0x5D7C PUSH1 0xA0 DUP4 ADD DUP7 PUSH2 0x5AA1 JUMP JUMPDEST PUSH2 0x5D89 PUSH1 0xC0 DUP4 ADD DUP6 PUSH2 0x5A83 JUMP JUMPDEST DUP2 DUP2 SUB PUSH1 0xE0 DUP4 ADD MSTORE PUSH2 0x5D9B DUP2 DUP5 PUSH2 0x5ABF JUMP JUMPDEST SWAP1 POP SWAP10 SWAP9 POP POP POP POP POP POP POP POP POP JUMP JUMPDEST PUSH1 0x0 PUSH2 0x100 DUP3 ADD SWAP1 POP PUSH2 0x5DC0 PUSH1 0x0 DUP4 ADD DUP12 PUSH2 0x5B84 JUMP JUMPDEST PUSH2 0x5DCD PUSH1 0x20 DUP4 ADD DUP11 PUSH2 0x5B84 JUMP JUMPDEST PUSH2 0x5DDA PUSH1 0x40 DUP4 ADD DUP10 PUSH2 0x5A83 JUMP JUMPDEST PUSH2 0x5DE7 PUSH1 0x60 DUP4 ADD DUP9 PUSH2 0x5A83 JUMP JUMPDEST DUP2 DUP2 SUB PUSH1 0x80 DUP4 ADD MSTORE PUSH2 0x5DF9 DUP2 DUP8 PUSH2 0x5ABF JUMP JUMPDEST SWAP1 POP DUP2 DUP2 SUB PUSH1 0xA0 DUP4 ADD MSTORE PUSH2 0x5E0D DUP2 DUP7 PUSH2 0x5ABF JUMP JUMPDEST SWAP1 POP DUP2 DUP2 SUB PUSH1 0xC0 DUP4 ADD MSTORE PUSH2 0x5E21 DUP2 DUP6 PUSH2 0x5ABF JUMP JUMPDEST SWAP1 POP DUP2 DUP2 SUB PUSH1 0xE0 DUP4 ADD MSTORE PUSH2 0x5E35 DUP2 DUP5 PUSH2 0x5ABF JUMP JUMPDEST SWAP1 POP SWAP10 SWAP9 POP POP POP POP POP POP POP POP POP JUMP JUMPDEST PUSH1 0x0 PUSH2 0x5E4E PUSH2 0x5E5F JUMP JUMPDEST SWAP1 POP PUSH2 0x5E5A DUP3 DUP3 PUSH2 0x6040 JUMP JUMPDEST SWAP2 SWAP1 POP JUMP JUMPDEST PUSH1 0x0 PUSH1 0x40 MLOAD SWAP1 POP SWAP1 JUMP JUMPDEST PUSH1 0x0 PUSH8 0xFFFFFFFFFFFFFFFF DUP3 GT ISZERO PUSH2 0x5E84 JUMPI PUSH2 0x5E83 PUSH2 0x6176 JUMP JUMPDEST JUMPDEST PUSH2 0x5E8D DUP3 PUSH2 0x61B9 JUMP JUMPDEST SWAP1 POP PUSH1 0x20 DUP2 ADD SWAP1 POP SWAP2 SWAP1 POP JUMP JUMPDEST PUSH1 0x0 DUP2 MLOAD SWAP1 POP SWAP2 SWAP1 POP JUMP JUMPDEST PUSH1 0x0 DUP3 DUP3 MSTORE PUSH1 0x20 DUP3 ADD SWAP1 POP SWAP3 SWAP2 POP POP JUMP JUMPDEST PUSH1 0x0 PUSH2 0x5EC1 DUP3 PUSH2 0x5F91 JUMP JUMPDEST SWAP2 POP PUSH2 0x5ECC DUP4 PUSH2 0x5F91 JUMP JUMPDEST SWAP3 POP DUP3 PUSH32 0xFFFFFFFFFFFFFFFFFFFFFFFFFFFFFFFFFFFFFFFFFFFFFFFFFFFFFFFFFFFFFFFF SUB DUP3 GT ISZERO PUSH2 0x5F01 JUMPI PUSH2 0x5F00 PUSH2 0x60BA JUMP JUMPDEST JUMPDEST DUP3 DUP3 ADD SWAP1 POP SWAP3 SWAP2 POP POP JUMP JUMPDEST PUSH1 0x0 PUSH2 0x5F17 DUP3 PUSH2 0x5F91 JUMP JUMPDEST SWAP2 POP PUSH2 0x5F22 DUP4 PUSH2 0x5F91 JUMP JUMPDEST SWAP3 POP DUP3 DUP3 LT ISZERO PUSH2 0x5F35 JUMPI PUSH2 0x5F34 PUSH2 0x60BA JUMP JUMPDEST JUMPDEST DUP3 DUP3 SUB SWAP1 POP SWAP3 SWAP2 POP POP JUMP JUMPDEST PUSH1 0x0 PUSH2 0x5F4B DUP3 PUSH2 0x5F71 JUMP JUMPDEST SWAP1 POP SWAP2 SWAP1 POP JUMP JUMPDEST PUSH1 0x0 DUP2 ISZERO ISZERO SWAP1 POP SWAP2 SWAP1 POP JUMP JUMPDEST PUSH1 0x0 DUP2 SWAP1 POP PUSH2 0x5F6C DUP3 PUSH2 0x62E0 JUMP JUMPDEST SWAP2 SWAP1 POP JUMP JUMPDEST PUSH1 0x0 PUSH20 0xFFFFFFFFFFFFFFFFFFFFFFFFFFFFFFFFFFFFFFFF DUP3 AND SWAP1 POP SWAP2 SWAP1 POP JUMP JUMPDEST PUSH1 0x0 DUP2 SWAP1 POP SWAP2 SWAP1 POP JUMP JUMPDEST PUSH1 0x0 PUSH1 0xFF DUP3 AND SWAP1 POP SWAP2 SWAP1 POP JUMP JUMPDEST PUSH1 0x0 PUSH2 0x5FB3 DUP3 PUSH2 0x5F5E JUMP JUMPDEST SWAP1 POP SWAP2 SWAP1 POP JUMP JUMPDEST PUSH1 0x0 PUSH2 0x5FC5 DUP3 PUSH2 0x5F9B JUMP JUMPDEST SWAP1 POP SWAP2 SWAP1 POP JUMP JUMPDEST DUP3 DUP2 DUP4 CALLDATACOPY PUSH1 0x0 DUP4 DUP4 ADD MSTORE POP POP POP JUMP JUMPDEST PUSH1 0x0 JUMPDEST DUP4 DUP2 LT ISZERO PUSH2 0x5FF9 JUMPI DUP1 DUP3 ADD MLOAD DUP2 DUP5 ADD MSTORE PUSH1 0x20 DUP2 ADD SWAP1 POP PUSH2 0x5FDE JUMP JUMPDEST DUP4 DUP2 GT ISZERO PUSH2 0x6008 JUMPI PUSH1 0x0 DUP5 DUP5 ADD MSTORE JUMPDEST POP POP POP POP JUMP JUMPDEST PUSH1 0x0 PUSH1 0x2 DUP3 DIV SWAP1 POP PUSH1 0x1 DUP3 AND DUP1 PUSH2 0x6026 JUMPI PUSH1 0x7F DUP3 AND SWAP2 POP JUMPDEST PUSH1 0x20 DUP3 LT DUP2 EQ ISZERO PUSH2 0x603A JUMPI PUSH2 0x6039 PUSH2 0x6118 JUMP JUMPDEST JUMPDEST POP SWAP2 SWAP1 POP JUMP JUMPDEST PUSH2 0x6049 DUP3 PUSH2 0x61B9 JUMP JUMPDEST DUP2 ADD DUP2 DUP2 LT PUSH8 0xFFFFFFFFFFFFFFFF DUP3 GT OR ISZERO PUSH2 0x6068 JUMPI PUSH2 0x6067 PUSH2 0x6176 JUMP JUMPDEST JUMPDEST DUP1 PUSH1 0x40 MSTORE POP POP POP JUMP JUMPDEST PUSH1 0x0 PUSH2 0x607C DUP3 PUSH2 0x5F91 JUMP JUMPDEST SWAP2 POP PUSH32 0xFFFFFFFFFFFFFFFFFFFFFFFFFFFFFFFFFFFFFFFFFFFFFFFFFFFFFFFFFFFFFFFF DUP3 EQ ISZERO PUSH2 0x60AF JUMPI PUSH2 0x60AE PUSH2 0x60BA JUMP JUMPDEST JUMPDEST PUSH1 0x1 DUP3 ADD SWAP1 POP SWAP2 SWAP1 POP JUMP JUMPDEST PUSH32 0x4E487B7100000000000000000000000000000000000000000000000000000000 PUSH1 0x0 MSTORE PUSH1 0x11 PUSH1 0x4 MSTORE PUSH1 0x24 PUSH1 0x0 REVERT JUMPDEST PUSH32 0x4E487B7100000000000000000000000000000000000000000000000000000000 PUSH1 0x0 MSTORE PUSH1 0x21 PUSH1 0x4 MSTORE PUSH1 0x24 PUSH1 0x0 REVERT JUMPDEST PUSH32 0x4E487B7100000000000000000000000000000000000000000000000000000000 PUSH1 0x0 MSTORE PUSH1 0x22 PUSH1 0x4 MSTORE PUSH1 0x24 PUSH1 0x0 REVERT JUMPDEST PUSH32 0x4E487B7100000000000000000000000000000000000000000000000000000000 PUSH1 0x0 MSTORE PUSH1 0x32 PUSH1 0x4 MSTORE PUSH1 0x24 PUSH1 0x0 REVERT JUMPDEST PUSH32 0x4E487B7100000000000000000000000000000000000000000000000000000000 PUSH1 0x0 MSTORE PUSH1 0x41 PUSH1 0x4 MSTORE PUSH1 0x24 PUSH1 0x0 REVERT JUMPDEST PUSH1 0x0 DUP1 REVERT JUMPDEST PUSH1 0x0 DUP1 REVERT JUMPDEST PUSH1 0x0 DUP1 REVERT JUMPDEST PUSH1 0x0 DUP1 REVERT JUMPDEST PUSH1 0x0 PUSH1 0x1F NOT PUSH1 0x1F DUP4 ADD AND SWAP1 POP SWAP2 SWAP1 POP JUMP JUMPDEST PUSH32 0x4F776E61626C653A206E6577206F776E657220697320746865207A65726F2061 PUSH1 0x0 DUP3 ADD MSTORE PUSH32 0x6464726573730000000000000000000000000000000000000000000000000000 PUSH1 0x20 DUP3 ADD MSTORE POP JUMP JUMPDEST PUSH32 0x496E697469616C697A61626C653A20636F6E747261637420697320616C726561 PUSH1 0x0 DUP3 ADD MSTORE PUSH32 0x647920696E697469616C697A6564000000000000000000000000000000000000 PUSH1 0x20 DUP3 ADD MSTORE POP JUMP JUMPDEST PUSH32 0x4F776E61626C653A2063616C6C6572206973206E6F7420746865206F776E6572 PUSH1 0x0 DUP3 ADD MSTORE POP JUMP JUMPDEST PUSH32 0x496E697469616C697A61626C653A20636F6E7472616374206973206E6F742069 PUSH1 0x0 DUP3 ADD MSTORE PUSH32 0x6E697469616C697A696E67000000000000000000000000000000000000000000 PUSH1 0x20 DUP3 ADD MSTORE POP JUMP JUMPDEST PUSH1 0x9 DUP2 LT PUSH2 0x62F1 JUMPI PUSH2 0x62F0 PUSH2 0x60E9 JUMP JUMPDEST JUMPDEST POP JUMP JUMPDEST PUSH2 0x62FD DUP2 PUSH2 0x5F40 JUMP JUMPDEST DUP2 EQ PUSH2 0x6308 JUMPI PUSH1 0x0 DUP1 REVERT JUMPDEST POP JUMP JUMPDEST PUSH2 0x6314 DUP2 PUSH2 0x5F91 JUMP JUMPDEST DUP2 EQ PUSH2 0x631F JUMPI PUSH1 0x0 DUP1 REVERT JUMPDEST POP JUMP INVALID LOG2 PUSH5 0x6970667358 0x22 SLT KECCAK256 ADDRESS DUP6 0xB5 SWAP7 0xD4 SWAP13 EXP 0x4E PUSH19 0xF7FCD2A35FA78A96E9B931E77F7A8BA998F732 SWAP2 0x23 ADD EQ PUSH5 0x736F6C6343 STOP ADDMOD SMOD STOP CALLER "},"methodIdentifiers":{"addCustomerRole(address)":"453dd4af","addDeliveryHubRole(address)":"f4121b67","addManufacturerRole(address)":"8290f859","addThirdPartyRole(address)":"5212e510","fetchProductCount()":"f16791b3","fetchProductHistoryLength(uint256)":"405ba7ef","fetchProductPart1(uint256,string,uint256)":"658db497","fetchProductPart2(uint256,string,uint256)":"6f1fe8d7","fetchProductPart3(uint256,string,uint256)":"98c95889","fetchProductState(uint256)":"e2f1fe14","hasCustomerRole(address)":"024edf9a","hasDeliveryHubRole(address)":"d44bebcc","hasManufacturerRole(address)":"6000ada1","hasThirdPartyRole(address)":"cd2885e0","initialize()":"8129fc1c","manufactureProduct(string,string,string,string,string,uint256,uint256,string)":"003375b7","owner()":"8da5cb5b","purchaseByCustomer(uint256)":"7217eb2e","purchaseByThirdParty(uint256)":"b843bdee","receiveByCustomer(uint256)":"72df397e","receiveByDeliveryHub(uint256,string,string)":"8eee90ea","receiveByThirdParty(uint256,string,string)":"3334529e","renounceOwnership()":"715018a6","setTransactionHash(uint256,string)":"786ea161","setTransactionHashOnManufacture(string)":"e55128ea","shipByDeliveryHub(uint256)":"6cf07e24","shipByThirdParty(uint256)":"ee707c1e","shipToThirdParty(uint256)":"0a036e25","transferOwnership(address)":"f2fde38b","uid()":"f514ce36"}},"storageLayout":{"storage":[{"astId":138,"contract":"contracts/SupplyChain.sol:SupplyChain","label":"_initialized","offset":0,"slot":"0","type":"t_uint8"},{"astId":141,"contract":"contracts/SupplyChain.sol:SupplyChain","label":"_initializing","offset":1,"slot":"0","type":"t_bool"},{"astId":1340,"contract":"contracts/SupplyChain.sol:SupplyChain","label":"__gap","offset":0,"slot":"1","type":"t_array(t_uint256)50_storage"},{"astId":10,"contract":"contracts/SupplyChain.sol:SupplyChain","label":"_owner","offset":0,"slot":"51","type":"t_address"},{"astId":130,"contract":"contracts/SupplyChain.sol:SupplyChain","label":"__gap","offset":0,"slot":"52","type":"t_array(t_uint256)49_storage"},{"astId":1449,"contract":"contracts/SupplyChain.sol:SupplyChain","label":"uid","offset":0,"slot":"101","type":"t_uint256"},{"astId":1451,"contract":"contracts/SupplyChain.sol:SupplyChain","label":"sku","offset":0,"slot":"102","type":"t_uint256"},{"astId":1456,"contract":"contracts/SupplyChain.sol:SupplyChain","label":"products","offset":0,"slot":"103","type":"t_mapping(t_uint256,t_struct(Product)1415_storage)"},{"astId":1461,"contract":"contracts/SupplyChain.sol:SupplyChain","label":"productHistory","offset":0,"slot":"104","type":"t_mapping(t_uint256,t_struct(ProductHistory)1420_storage)"},{"astId":1466,"contract":"contracts/SupplyChain.sol:SupplyChain","label":"roles","offset":0,"slot":"105","type":"t_mapping(t_address,t_struct(Roles)1429_storage)"}],"types":{"t_address":{"encoding":"inplace","label":"address","numberOfBytes":"20"},"t_array(t_struct(Product)1415_storage)dyn_storage":{"base":"t_struct(Product)1415_storage","encoding":"dynamic_array","label":"struct Structure.Product[]","numberOfBytes":"32"},"t_array(t_uint256)49_storage":{"base":"t_uint256","encoding":"inplace","label":"uint256[49]","numberOfBytes":"1568"},"t_array(t_uint256)50_storage":{"base":"t_uint256","encoding":"inplace","label":"uint256[50]","numberOfBytes":"1600"},"t_bool":{"encoding":"inplace","label":"bool","numberOfBytes":"1"},"t_enum(State)1353":{"encoding":"inplace","label":"enum Structure.State","numberOfBytes":"1"},"t_mapping(t_address,t_struct(Roles)1429_storage)":{"encoding":"mapping","key":"t_address","label":"mapping(address => struct Structure.Roles)","numberOfBytes":"32","value":"t_struct(Roles)1429_storage"},"t_mapping(t_uint256,t_struct(Product)1415_storage)":{"encoding":"mapping","key":"t_uint256","label":"mapping(uint256 => struct Structure.Product)","numberOfBytes":"32","value":"t_struct(Product)1415_storage"},"t_mapping(t_uint256,t_struct(ProductHistory)1420_storage)":{"encoding":"mapping","key":"t_uint256","label":"mapping(uint256 => struct Structure.ProductHistory)","numberOfBytes":"32","value":"t_struct(ProductHistory)1420_storage"},"t_string_storage":{"encoding":"bytes","label":"string","numberOfBytes":"32"},"t_struct(DeliveryHubDetails)1389_storage":{"encoding":"inplace","label":"struct Structure.DeliveryHubDetails","members":[{"astId":1384,"contract":"contracts/SupplyChain.sol:SupplyChain","label":"deliveryHub","offset":0,"slot":"0","type":"t_address"},{"astId":1386,"contract":"contracts/SupplyChain.sol:SupplyChain","label":"deliveryHubLongitude","offset":0,"slot":"1","type":"t_string_storage"},{"astId":1388,"contract":"contracts/SupplyChain.sol:SupplyChain","label":"deliveryHubLatitude","offset":0,"slot":"2","type":"t_string_storage"}],"numberOfBytes":"96"},"t_struct(ManufactureDetails)1366_storage":{"encoding":"inplace","label":"struct Structure.ManufactureDetails","members":[{"astId":1355,"contract":"contracts/SupplyChain.sol:SupplyChain","label":"manufacturer","offset":0,"slot":"0","type":"t_address"},{"astId":1357,"contract":"contracts/SupplyChain.sol:SupplyChain","label":"manufacturerName","offset":0,"slot":"1","type":"t_string_storage"},{"astId":1359,"contract":"contracts/SupplyChain.sol:SupplyChain","label":"manufacturerDetails","offset":0,"slot":"2","type":"t_string_storage"},{"astId":1361,"contract":"contracts/SupplyChain.sol:SupplyChain","label":"manufacturerLongitude","offset":0,"slot":"3","type":"t_string_storage"},{"astId":1363,"contract":"contracts/SupplyChain.sol:SupplyChain","label":"manufacturerLatitude","offset":0,"slot":"4","type":"t_string_storage"},{"astId":1365,"contract":"contracts/SupplyChain.sol:SupplyChain","label":"manufacturedDate","offset":0,"slot":"5","type":"t_uint256"}],"numberOfBytes":"192"},"t_struct(Product)1415_storage":{"encoding":"inplace","label":"struct Structure.Product","members":[{"astId":1391,"contract":"contracts/SupplyChain.sol:SupplyChain","label":"uid","offset":0,"slot":"0","type":"t_uint256"},{"astId":1393,"contract":"contracts/SupplyChain.sol:SupplyChain","label":"sku","offset":0,"slot":"1","type":"t_uint256"},{"astId":1395,"contract":"contracts/SupplyChain.sol:SupplyChain","label":"owner","offset":0,"slot":"2","type":"t_address"},{"astId":1398,"contract":"contracts/SupplyChain.sol:SupplyChain","label":"productState","offset":20,"slot":"2","type":"t_enum(State)1353"},{"astId":1401,"contract":"contracts/SupplyChain.sol:SupplyChain","label":"manufacturer","offset":0,"slot":"3","type":"t_struct(ManufactureDetails)1366_storage"},{"astId":1404,"contract":"contracts/SupplyChain.sol:SupplyChain","label":"thirdparty","offset":0,"slot":"9","type":"t_struct(ThirdPartyDetails)1382_storage"},{"astId":1407,"contract":"contracts/SupplyChain.sol:SupplyChain","label":"productdet","offset":0,"slot":"12","type":"t_struct(ProductDetails)1375_storage"},{"astId":1410,"contract":"contracts/SupplyChain.sol:SupplyChain","label":"deliveryhub","offset":0,"slot":"16","type":"t_struct(DeliveryHubDetails)1389_storage"},{"astId":1412,"contract":"contracts/SupplyChain.sol:SupplyChain","label":"customer","offset":0,"slot":"19","type":"t_address"},{"astId":1414,"contract":"contracts/SupplyChain.sol:SupplyChain","label":"transaction","offset":0,"slot":"20","type":"t_string_storage"}],"numberOfBytes":"672"},"t_struct(ProductDetails)1375_storage":{"encoding":"inplace","label":"struct Structure.ProductDetails","members":[{"astId":1368,"contract":"contracts/SupplyChain.sol:SupplyChain","label":"productName","offset":0,"slot":"0","type":"t_string_storage"},{"astId":1370,"contract":"contracts/SupplyChain.sol:SupplyChain","label":"productCode","offset":0,"slot":"1","type":"t_uint256"},{"astId":1372,"contract":"contracts/SupplyChain.sol:SupplyChain","label":"productPrice","offset":0,"slot":"2","type":"t_uint256"},{"astId":1374,"contract":"contracts/SupplyChain.sol:SupplyChain","label":"productCategory","offset":0,"slot":"3","type":"t_string_storage"}],"numberOfBytes":"128"},"t_struct(ProductHistory)1420_storage":{"encoding":"inplace","label":"struct Structure.ProductHistory","members":[{"astId":1419,"contract":"contracts/SupplyChain.sol:SupplyChain","label":"history","offset":0,"slot":"0","type":"t_array(t_struct(Product)1415_storage)dyn_storage"}],"numberOfBytes":"32"},"t_struct(Roles)1429_storage":{"encoding":"inplace","label":"struct Structure.Roles","members":[{"astId":1422,"contract":"contracts/SupplyChain.sol:SupplyChain","label":"Manufacturer","offset":0,"slot":"0","type":"t_bool"},{"astId":1424,"contract":"contracts/SupplyChain.sol:SupplyChain","label":"ThirdParty","offset":1,"slot":"0","type":"t_bool"},{"astId":1426,"contract":"contracts/SupplyChain.sol:SupplyChain","label":"DeliveryHub","offset":2,"slot":"0","type":"t_bool"},{"astId":1428,"contract":"contracts/SupplyChain.sol:SupplyChain","label":"Customer","offset":3,"slot":"0","type":"t_bool"}],"numberOfBytes":"32"},"t_struct(ThirdPartyDetails)1382_storage":{"encoding":"inplace","label":"struct Structure.ThirdPartyDetails","members":[{"astId":1377,"contract":"contracts/SupplyChain.sol:SupplyChain","label":"thirdParty","offset":0,"slot":"0","type":"t_address"},{"astId":1379,"contract":"contracts/SupplyChain.sol:SupplyChain","label":"thirdPartyLongitude","offset":0,"slot":"1","type":"t_string_storage"},{"astId":1381,"contract":"contracts/SupplyChain.sol:SupplyChain","label":"thirdPartyLatitude","offset":0,"slot":"2","type":"t_string_storage"}],"numberOfBytes":"96"},"t_uint256":{"encoding":"inplace","label":"uint256","numberOfBytes":"32"},"t_uint8":{"encoding":"inplace","label":"uint8","numberOfBytes":"1"}}}}}}