{"contracts/SupplyChain.sol":{"SupplyChain":{"abi":[{"anonymous":false,"inputs":[{"indexed":false,"internalType":"uint8","name":"version","type":"uint8"}],"name":"Initialized","type":"event"},{"anonymous":false,"inputs":[{"indexed":false,"internalType":"uint256","name":"uid","type":"uint256"}],"name":"Manufactured","type":"event"},{"anonymous":false,"inputs":[{"indexed":true,"internalType":"address","name":"_account","type":"address"}],"name":"ManufacturerAdded","type":"event"},{"anonymous":false,"inputs":[{"indexed":true,"internalType":"address","name":"previousOwner","type":"address"},{"indexed":true,"internalType":"address","name":"newOwner","type":"address"}],"name":"OwnershipTransferred","type":"event"},{"anonymous":false,"inputs":[{"indexed":false,"internalType":"uint256","name":"uid","type":"uint256"}],"name":"PurchasedByCustomer","type":"event"},{"anonymous":false,"inputs":[{"indexed":false,"internalType":"uint256","name":"uid","type":"uint256"}],"name":"PurchasedByThirdParty","type":"event"},{"anonymous":false,"inputs":[{"indexed":false,"internalType":"uint256","name":"uid","type":"uint256"}],"name":"ReceivedByCustomer","type":"event"},{"anonymous":false,"inputs":[{"indexed":false,"internalType":"uint256","name":"uid","type":"uint256"}],"name":"ReceivedByDeliveryHub","type":"event"},{"anonymous":false,"inputs":[{"indexed":false,"internalType":"uint256","name":"uid","type":"uint256"}],"name":"ReceivedByThirdParty","type":"event"},{"anonymous":false,"inputs":[{"indexed":false,"internalType":"uint256","name":"uid","type":"uint256"}],"name":"ShippedByDeliveryHub","type":"event"},{"anonymous":false,"inputs":[{"indexed":false,"internalType":"uint256","name":"uid","type":"uint256"}],"name":"ShippedByManufacturer","type":"event"},{"anonymous":false,"inputs":[{"indexed":false,"internalType":"uint256","name":"uid","type":"uint256"}],"name":"ShippedByThirdParty","type":"event"},{"inputs":[{"internalType":"address","name":"_account","type":"address"}],"name":"addCustomerRole","outputs":[],"stateMutability":"nonpayable","type":"function"},{"inputs":[{"internalType":"address","name":"_account","type":"address"}],"name":"addDeliveryHubRole","outputs":[],"stateMutability":"nonpayable","type":"function"},{"inputs":[{"internalType":"address","name":"_account","type":"address"}],"name":"addManufacturerRole","outputs":[],"stateMutability":"nonpayable","type":"function"},{"inputs":[{"internalType":"address","name":"_account","type":"address"}],"name":"addThirdPartyRole","outputs":[],"stateMutability":"nonpayable","type":"function"},{"inputs":[{"internalType":"address","name":"_account","type":"address"}],"name":"hasCustomerRole","outputs":[{"internalType":"bool","name":"","type":"bool"}],"stateMutability":"view","type":"function"},{"inputs":[{"internalType":"address","name":"_account","type":"address"}],"name":"hasDeliveryHubRole","outputs":[{"internalType":"bool","name":"","type":"bool"}],"stateMutability":"view","type":"function"},{"inputs":[{"internalType":"address","name":"_account","type":"address"}],"name":"hasManufacturerRole","outputs":[{"internalType":"bool","name":"","type":"bool"}],"stateMutability":"view","type":"function"},{"inputs":[{"internalType":"address","name":"_account","type":"address"}],"name":"hasThirdPartyRole","outputs":[{"internalType":"bool","name":"","type":"bool"}],"stateMutability":"view","type":"function"},{"inputs":[],"name":"initialize","outputs":[],"stateMutability":"nonpayable","type":"function"},{"inputs":[],"name":"owner","outputs":[{"internalType":"address","name":"","type":"address"}],"stateMutability":"view","type":"function"},{"inputs":[],"name":"renounceOwnership","outputs":[],"stateMutability":"nonpayable","type":"function"},{"inputs":[{"internalType":"address","name":"newOwner","type":"address"}],"name":"transferOwnership","outputs":[],"stateMutability":"nonpayable","type":"function"},{"inputs":[],"name":"uid","outputs":[{"internalType":"uint256","name":"","type":"uint256"}],"stateMutability":"view","type":"function"}],"evm":{"bytecode":{"linkReferences":{},"object":"608060405234801561001057600080fd5b50610f79806100206000396000f3fe608060405234801561001057600080fd5b50600436106100cf5760003560e01c80638290f8591161008c578063d44bebcc11610066578063d44bebcc146101ea578063f2fde38b1461021a578063f4121b6714610236578063f514ce3614610252576100cf565b80638290f859146101805780638da5cb5b1461019c578063cd2885e0146101ba576100cf565b8063024edf9a146100d4578063453dd4af146101045780635212e510146101205780636000ada11461013c578063715018a61461016c5780638129fc1c14610176575b600080fd5b6100ee60048036038101906100e99190610bb8565b610270565b6040516100fb9190610cc8565b60405180910390f35b61011e60048036038101906101199190610bb8565b610302565b005b61013a60048036038101906101359190610bb8565b6103ad565b005b61015660048036038101906101519190610bb8565b610458565b6040516101639190610cc8565b60405180910390f35b6101746104ea565b005b61017e6104fe565b005b61019a60048036038101906101959190610bb8565b61064c565b005b6101a46106f7565b6040516101b19190610cad565b60405180910390f35b6101d460048036038101906101cf9190610bb8565b610721565b6040516101e19190610cc8565b60405180910390f35b61020460048036038101906101ff9190610bb8565b6107b3565b6040516102119190610cc8565b60405180910390f35b610234600480360381019061022f9190610bb8565b610845565b005b610250600480360381019061024b9190610bb8565b6108c9565b005b61025a610974565b6040516102679190610d7e565b60405180910390f35b60008073ffffffffffffffffffffffffffffffffffffffff168273ffffffffffffffffffffffffffffffffffffffff1614156102ab57600080fd5b606960008373ffffffffffffffffffffffffffffffffffffffff1673ffffffffffffffffffffffffffffffffffffffff16815260200190815260200160002060000160039054906101000a900460ff169050919050565b600073ffffffffffffffffffffffffffffffffffffffff168173ffffffffffffffffffffffffffffffffffffffff16141561033c57600080fd5b610345816107b3565b1561034f57600080fd5b6001606960008373ffffffffffffffffffffffffffffffffffffffff1673ffffffffffffffffffffffffffffffffffffffff16815260200190815260200160002060000160036101000a81548160ff02191690831515021790555050565b600073ffffffffffffffffffffffffffffffffffffffff168173ffffffffffffffffffffffffffffffffffffffff1614156103e757600080fd5b6103f081610721565b156103fa57600080fd5b6001606960008373ffffffffffffffffffffffffffffffffffffffff1673ffffffffffffffffffffffffffffffffffffffff16815260200190815260200160002060000160016101000a81548160ff02191690831515021790555050565b60008073ffffffffffffffffffffffffffffffffffffffff168273ffffffffffffffffffffffffffffffffffffffff16141561049357600080fd5b606960008373ffffffffffffffffffffffffffffffffffffffff1673ffffffffffffffffffffffffffffffffffffffff16815260200190815260200160002060000160009054906101000a900460ff169050919050565b6104f261097a565b6104fc60006109f8565b565b60008060019054906101000a900460ff1615905080801561052f5750600160008054906101000a900460ff1660ff16105b8061055c575061053e30610abe565b15801561055b5750600160008054906101000a900460ff1660ff16145b5b61059b576040517f08c379a000000000000000000000000000000000000000000000000000000000815260040161059290610d1e565b60405180910390fd5b60016000806101000a81548160ff021916908360ff16021790555080156105d8576001600060016101000a81548160ff0219169083151502179055505b6105e0610ae1565b6001606681905550600160658190555080156106495760008060016101000a81548160ff0219169083151502179055507f7f26b83ff96e1f2b6a682f133852f6798a09c465da95921460cefb384740249860016040516106409190610ce3565b60405180910390a15b50565b600073ffffffffffffffffffffffffffffffffffffffff168173ffffffffffffffffffffffffffffffffffffffff16141561068657600080fd5b61068f81610458565b1561069957600080fd5b6001606960008373ffffffffffffffffffffffffffffffffffffffff1673ffffffffffffffffffffffffffffffffffffffff16815260200190815260200160002060000160006101000a81548160ff02191690831515021790555050565b6000603360009054906101000a900473ffffffffffffffffffffffffffffffffffffffff16905090565b60008073ffffffffffffffffffffffffffffffffffffffff168273ffffffffffffffffffffffffffffffffffffffff16141561075c57600080fd5b606960008373ffffffffffffffffffffffffffffffffffffffff1673ffffffffffffffffffffffffffffffffffffffff16815260200190815260200160002060000160019054906101000a900460ff169050919050565b60008073ffffffffffffffffffffffffffffffffffffffff168273ffffffffffffffffffffffffffffffffffffffff1614156107ee57600080fd5b606960008373ffffffffffffffffffffffffffffffffffffffff1673ffffffffffffffffffffffffffffffffffffffff16815260200190815260200160002060000160029054906101000a900460ff169050919050565b61084d61097a565b600073ffffffffffffffffffffffffffffffffffffffff168173ffffffffffffffffffffffffffffffffffffffff1614156108bd576040517f08c379a00000000000000000000000000000000000000000000000000000000081526004016108b490610cfe565b60405180910390fd5b6108c6816109f8565b50565b600073ffffffffffffffffffffffffffffffffffffffff168173ffffffffffffffffffffffffffffffffffffffff16141561090357600080fd5b61090c816107b3565b1561091657600080fd5b6001606960008373ffffffffffffffffffffffffffffffffffffffff1673ffffffffffffffffffffffffffffffffffffffff16815260200190815260200160002060000160026101000a81548160ff02191690831515021790555050565b60655481565b610982610b3a565b73ffffffffffffffffffffffffffffffffffffffff166109a06106f7565b73ffffffffffffffffffffffffffffffffffffffff16146109f6576040517f08c379a00000000000000000000000000000000000000000000000000000000081526004016109ed90610d3e565b60405180910390fd5b565b6000603360009054906101000a900473ffffffffffffffffffffffffffffffffffffffff16905081603360006101000a81548173ffffffffffffffffffffffffffffffffffffffff021916908373ffffffffffffffffffffffffffffffffffffffff1602179055508173ffffffffffffffffffffffffffffffffffffffff168173ffffffffffffffffffffffffffffffffffffffff167f8be0079c531659141344cd1fd0a4f28419497f9722a3daafe3b4186f6b6457e060405160405180910390a35050565b6000808273ffffffffffffffffffffffffffffffffffffffff163b119050919050565b600060019054906101000a900460ff16610b30576040517f08c379a0000000000000000000000000000000000000000000000000000000008152600401610b2790610d5e565b60405180910390fd5b610b38610b42565b565b600033905090565b600060019054906101000a900460ff16610b91576040517f08c379a0000000000000000000000000000000000000000000000000000000008152600401610b8890610d5e565b60405180910390fd5b610ba1610b9c610b3a565b6109f8565b565b600081359050610bb281610f2c565b92915050565b600060208284031215610bce57610bcd610e11565b5b6000610bdc84828501610ba3565b91505092915050565b610bee81610daa565b82525050565b610bfd81610dbc565b82525050565b610c0c81610dff565b82525050565b6000610c1f602683610d99565b9150610c2a82610e16565b604082019050919050565b6000610c42602e83610d99565b9150610c4d82610e65565b604082019050919050565b6000610c65602083610d99565b9150610c7082610eb4565b602082019050919050565b6000610c88602b83610d99565b9150610c9382610edd565b604082019050919050565b610ca781610de8565b82525050565b6000602082019050610cc26000830184610be5565b92915050565b6000602082019050610cdd6000830184610bf4565b92915050565b6000602082019050610cf86000830184610c03565b92915050565b60006020820190508181036000830152610d1781610c12565b9050919050565b60006020820190508181036000830152610d3781610c35565b9050919050565b60006020820190508181036000830152610d5781610c58565b9050919050565b60006020820190508181036000830152610d7781610c7b565b9050919050565b6000602082019050610d936000830184610c9e565b92915050565b600082825260208201905092915050565b6000610db582610dc8565b9050919050565b60008115159050919050565b600073ffffffffffffffffffffffffffffffffffffffff82169050919050565b6000819050919050565b600060ff82169050919050565b6000610e0a82610df2565b9050919050565b600080fd5b7f4f776e61626c653a206e6577206f776e657220697320746865207a65726f206160008201527f6464726573730000000000000000000000000000000000000000000000000000602082015250565b7f496e697469616c697a61626c653a20636f6e747261637420697320616c72656160008201527f647920696e697469616c697a6564000000000000000000000000000000000000602082015250565b7f4f776e61626c653a2063616c6c6572206973206e6f7420746865206f776e6572600082015250565b7f496e697469616c697a61626c653a20636f6e7472616374206973206e6f74206960008201527f6e697469616c697a696e67000000000000000000000000000000000000000000602082015250565b610f3581610daa565b8114610f4057600080fd5b5056fea2646970667358221220779b659f507cb6a5f78daa0fdd9bcfae59be1f60ac5f91976b73a9cc6a04a8bd64736f6c63430008070033","opcodes":"PUSH1 0x80 PUSH1 0x40 MSTORE CALLVALUE DUP1 ISZERO PUSH2 0x10 JUMPI PUSH1 0x0 DUP1 REVERT JUMPDEST POP PUSH2 0xF79 DUP1 PUSH2 0x20 PUSH1 0x0 CODECOPY PUSH1 0x0 RETURN INVALID PUSH1 0x80 PUSH1 0x40 MSTORE CALLVALUE DUP1 ISZERO PUSH2 0x10 JUMPI PUSH1 0x0 DUP1 REVERT JUMPDEST POP PUSH1 0x4 CALLDATASIZE LT PUSH2 0xCF JUMPI PUSH1 0x0 CALLDATALOAD PUSH1 0xE0 SHR DUP1 PUSH4 0x8290F859 GT PUSH2 0x8C JUMPI DUP1 PUSH4 0xD44BEBCC GT PUSH2 0x66 JUMPI DUP1 PUSH4 0xD44BEBCC EQ PUSH2 0x1EA JUMPI DUP1 PUSH4 0xF2FDE38B EQ PUSH2 0x21A JUMPI DUP1 PUSH4 0xF4121B67 EQ PUSH2 0x236 JUMPI DUP1 PUSH4 0xF514CE36 EQ PUSH2 0x252 JUMPI PUSH2 0xCF JUMP JUMPDEST DUP1 PUSH4 0x8290F859 EQ PUSH2 0x180 JUMPI DUP1 PUSH4 0x8DA5CB5B EQ PUSH2 0x19C JUMPI DUP1 PUSH4 0xCD2885E0 EQ PUSH2 0x1BA JUMPI PUSH2 0xCF JUMP JUMPDEST DUP1 PUSH4 0x24EDF9A EQ PUSH2 0xD4 JUMPI DUP1 PUSH4 0x453DD4AF EQ PUSH2 0x104 JUMPI DUP1 PUSH4 0x5212E510 EQ PUSH2 0x120 JUMPI DUP1 PUSH4 0x6000ADA1 EQ PUSH2 0x13C JUMPI DUP1 PUSH4 0x715018A6 EQ PUSH2 0x16C JUMPI DUP1 PUSH4 0x8129FC1C EQ PUSH2 0x176 JUMPI JUMPDEST PUSH1 0x0 DUP1 REVERT JUMPDEST PUSH2 0xEE PUSH1 0x4 DUP1 CALLDATASIZE SUB DUP2 ADD SWAP1 PUSH2 0xE9 SWAP2 SWAP1 PUSH2 0xBB8 JUMP JUMPDEST PUSH2 0x270 JUMP JUMPDEST PUSH1 0x40 MLOAD PUSH2 0xFB SWAP2 SWAP1 PUSH2 0xCC8 JUMP JUMPDEST PUSH1 0x40 MLOAD DUP1 SWAP2 SUB SWAP1 RETURN JUMPDEST PUSH2 0x11E PUSH1 0x4 DUP1 CALLDATASIZE SUB DUP2 ADD SWAP1 PUSH2 0x119 SWAP2 SWAP1 PUSH2 0xBB8 JUMP JUMPDEST PUSH2 0x302 JUMP JUMPDEST STOP JUMPDEST PUSH2 0x13A PUSH1 0x4 DUP1 CALLDATASIZE SUB DUP2 ADD SWAP1 PUSH2 0x135 SWAP2 SWAP1 PUSH2 0xBB8 JUMP JUMPDEST PUSH2 0x3AD JUMP JUMPDEST STOP JUMPDEST PUSH2 0x156 PUSH1 0x4 DUP1 CALLDATASIZE SUB DUP2 ADD SWAP1 PUSH2 0x151 SWAP2 SWAP1 PUSH2 0xBB8 JUMP JUMPDEST PUSH2 0x458 JUMP JUMPDEST PUSH1 0x40 MLOAD PUSH2 0x163 SWAP2 SWAP1 PUSH2 0xCC8 JUMP JUMPDEST PUSH1 0x40 MLOAD DUP1 SWAP2 SUB SWAP1 RETURN JUMPDEST PUSH2 0x174 PUSH2 0x4EA JUMP JUMPDEST STOP JUMPDEST PUSH2 0x17E PUSH2 0x4FE JUMP JUMPDEST STOP JUMPDEST PUSH2 0x19A PUSH1 0x4 DUP1 CALLDATASIZE SUB DUP2 ADD SWAP1 PUSH2 0x195 SWAP2 SWAP1 PUSH2 0xBB8 JUMP JUMPDEST PUSH2 0x64C JUMP JUMPDEST STOP JUMPDEST PUSH2 0x1A4 PUSH2 0x6F7 JUMP JUMPDEST PUSH1 0x40 MLOAD PUSH2 0x1B1 SWAP2 SWAP1 PUSH2 0xCAD JUMP JUMPDEST PUSH1 0x40 MLOAD DUP1 SWAP2 SUB SWAP1 RETURN JUMPDEST PUSH2 0x1D4 PUSH1 0x4 DUP1 CALLDATASIZE SUB DUP2 ADD SWAP1 PUSH2 0x1CF SWAP2 SWAP1 PUSH2 0xBB8 JUMP JUMPDEST PUSH2 0x721 JUMP JUMPDEST PUSH1 0x40 MLOAD PUSH2 0x1E1 SWAP2 SWAP1 PUSH2 0xCC8 JUMP JUMPDEST PUSH1 0x40 MLOAD DUP1 SWAP2 SUB SWAP1 RETURN JUMPDEST PUSH2 0x204 PUSH1 0x4 DUP1 CALLDATASIZE SUB DUP2 ADD SWAP1 PUSH2 0x1FF SWAP2 SWAP1 PUSH2 0xBB8 JUMP JUMPDEST PUSH2 0x7B3 JUMP JUMPDEST PUSH1 0x40 MLOAD PUSH2 0x211 SWAP2 SWAP1 PUSH2 0xCC8 JUMP JUMPDEST PUSH1 0x40 MLOAD DUP1 SWAP2 SUB SWAP1 RETURN JUMPDEST PUSH2 0x234 PUSH1 0x4 DUP1 CALLDATASIZE SUB DUP2 ADD SWAP1 PUSH2 0x22F SWAP2 SWAP1 PUSH2 0xBB8 JUMP JUMPDEST PUSH2 0x845 JUMP JUMPDEST STOP JUMPDEST PUSH2 0x250 PUSH1 0x4 DUP1 CALLDATASIZE SUB DUP2 ADD SWAP1 PUSH2 0x24B SWAP2 SWAP1 PUSH2 0xBB8 JUMP JUMPDEST PUSH2 0x8C9 JUMP JUMPDEST STOP JUMPDEST PUSH2 0x25A PUSH2 0x974 JUMP JUMPDEST PUSH1 0x40 MLOAD PUSH2 0x267 SWAP2 SWAP1 PUSH2 0xD7E JUMP JUMPDEST PUSH1 0x40 MLOAD DUP1 SWAP2 SUB SWAP1 RETURN JUMPDEST PUSH1 0x0 DUP1 PUSH20 0xFFFFFFFFFFFFFFFFFFFFFFFFFFFFFFFFFFFFFFFF AND DUP3 PUSH20 0xFFFFFFFFFFFFFFFFFFFFFFFFFFFFFFFFFFFFFFFF AND EQ ISZERO PUSH2 0x2AB JUMPI PUSH1 0x0 DUP1 REVERT JUMPDEST PUSH1 0x69 PUSH1 0x0 DUP4 PUSH20 0xFFFFFFFFFFFFFFFFFFFFFFFFFFFFFFFFFFFFFFFF AND PUSH20 0xFFFFFFFFFFFFFFFFFFFFFFFFFFFFFFFFFFFFFFFF AND DUP2 MSTORE PUSH1 0x20 ADD SWAP1 DUP2 MSTORE PUSH1 0x20 ADD PUSH1 0x0 KECCAK256 PUSH1 0x0 ADD PUSH1 0x3 SWAP1 SLOAD SWAP1 PUSH2 0x100 EXP SWAP1 DIV PUSH1 0xFF AND SWAP1 POP SWAP2 SWAP1 POP JUMP JUMPDEST PUSH1 0x0 PUSH20 0xFFFFFFFFFFFFFFFFFFFFFFFFFFFFFFFFFFFFFFFF AND DUP2 PUSH20 0xFFFFFFFFFFFFFFFFFFFFFFFFFFFFFFFFFFFFFFFF AND EQ ISZERO PUSH2 0x33C JUMPI PUSH1 0x0 DUP1 REVERT JUMPDEST PUSH2 0x345 DUP2 PUSH2 0x7B3 JUMP JUMPDEST ISZERO PUSH2 0x34F JUMPI PUSH1 0x0 DUP1 REVERT JUMPDEST PUSH1 0x1 PUSH1 0x69 PUSH1 0x0 DUP4 PUSH20 0xFFFFFFFFFFFFFFFFFFFFFFFFFFFFFFFFFFFFFFFF AND PUSH20 0xFFFFFFFFFFFFFFFFFFFFFFFFFFFFFFFFFFFFFFFF AND DUP2 MSTORE PUSH1 0x20 ADD SWAP1 DUP2 MSTORE PUSH1 0x20 ADD PUSH1 0x0 KECCAK256 PUSH1 0x0 ADD PUSH1 0x3 PUSH2 0x100 EXP DUP2 SLOAD DUP2 PUSH1 0xFF MUL NOT AND SWAP1 DUP4 ISZERO ISZERO MUL OR SWAP1 SSTORE POP POP JUMP JUMPDEST PUSH1 0x0 PUSH20 0xFFFFFFFFFFFFFFFFFFFFFFFFFFFFFFFFFFFFFFFF AND DUP2 PUSH20 0xFFFFFFFFFFFFFFFFFFFFFFFFFFFFFFFFFFFFFFFF AND EQ ISZERO PUSH2 0x3E7 JUMPI PUSH1 0x0 DUP1 REVERT JUMPDEST PUSH2 0x3F0 DUP2 PUSH2 0x721 JUMP JUMPDEST ISZERO PUSH2 0x3FA JUMPI PUSH1 0x0 DUP1 REVERT JUMPDEST PUSH1 0x1 PUSH1 0x69 PUSH1 0x0 DUP4 PUSH20 0xFFFFFFFFFFFFFFFFFFFFFFFFFFFFFFFFFFFFFFFF AND PUSH20 0xFFFFFFFFFFFFFFFFFFFFFFFFFFFFFFFFFFFFFFFF AND DUP2 MSTORE PUSH1 0x20 ADD SWAP1 DUP2 MSTORE PUSH1 0x20 ADD PUSH1 0x0 KECCAK256 PUSH1 0x0 ADD PUSH1 0x1 PUSH2 0x100 EXP DUP2 SLOAD DUP2 PUSH1 0xFF MUL NOT AND SWAP1 DUP4 ISZERO ISZERO MUL OR SWAP1 SSTORE POP POP JUMP JUMPDEST PUSH1 0x0 DUP1 PUSH20 0xFFFFFFFFFFFFFFFFFFFFFFFFFFFFFFFFFFFFFFFF AND DUP3 PUSH20 0xFFFFFFFFFFFFFFFFFFFFFFFFFFFFFFFFFFFFFFFF AND EQ ISZERO PUSH2 0x493 JUMPI PUSH1 0x0 DUP1 REVERT JUMPDEST PUSH1 0x69 PUSH1 0x0 DUP4 PUSH20 0xFFFFFFFFFFFFFFFFFFFFFFFFFFFFFFFFFFFFFFFF AND PUSH20 0xFFFFFFFFFFFFFFFFFFFFFFFFFFFFFFFFFFFFFFFF AND DUP2 MSTORE PUSH1 0x20 ADD SWAP1 DUP2 MSTORE PUSH1 0x20 ADD PUSH1 0x0 KECCAK256 PUSH1 0x0 ADD PUSH1 0x0 SWAP1 SLOAD SWAP1 PUSH2 0x100 EXP SWAP1 DIV PUSH1 0xFF AND SWAP1 POP SWAP2 SWAP1 POP JUMP JUMPDEST PUSH2 0x4F2 PUSH2 0x97A JUMP JUMPDEST PUSH2 0x4FC PUSH1 0x0 PUSH2 0x9F8 JUMP JUMPDEST JUMP JUMPDEST PUSH1 0x0 DUP1 PUSH1 0x1 SWAP1 SLOAD SWAP1 PUSH2 0x100 EXP SWAP1 DIV PUSH1 0xFF AND ISZERO SWAP1 POP DUP1 DUP1 ISZERO PUSH2 0x52F JUMPI POP PUSH1 0x1 PUSH1 0x0 DUP1 SLOAD SWAP1 PUSH2 0x100 EXP SWAP1 DIV PUSH1 0xFF AND PUSH1 0xFF AND LT JUMPDEST DUP1 PUSH2 0x55C JUMPI POP PUSH2 0x53E ADDRESS PUSH2 0xABE JUMP JUMPDEST ISZERO DUP1 ISZERO PUSH2 0x55B JUMPI POP PUSH1 0x1 PUSH1 0x0 DUP1 SLOAD SWAP1 PUSH2 0x100 EXP SWAP1 DIV PUSH1 0xFF AND PUSH1 0xFF AND EQ JUMPDEST JUMPDEST PUSH2 0x59B JUMPI PUSH1 0x40 MLOAD PUSH32 0x8C379A000000000000000000000000000000000000000000000000000000000 DUP2 MSTORE PUSH1 0x4 ADD PUSH2 0x592 SWAP1 PUSH2 0xD1E JUMP JUMPDEST PUSH1 0x40 MLOAD DUP1 SWAP2 SUB SWAP1 REVERT JUMPDEST PUSH1 0x1 PUSH1 0x0 DUP1 PUSH2 0x100 EXP DUP2 SLOAD DUP2 PUSH1 0xFF MUL NOT AND SWAP1 DUP4 PUSH1 0xFF AND MUL OR SWAP1 SSTORE POP DUP1 ISZERO PUSH2 0x5D8 JUMPI PUSH1 0x1 PUSH1 0x0 PUSH1 0x1 PUSH2 0x100 EXP DUP2 SLOAD DUP2 PUSH1 0xFF MUL NOT AND SWAP1 DUP4 ISZERO ISZERO MUL OR SWAP1 SSTORE POP JUMPDEST PUSH2 0x5E0 PUSH2 0xAE1 JUMP JUMPDEST PUSH1 0x1 PUSH1 0x66 DUP2 SWAP1 SSTORE POP PUSH1 0x1 PUSH1 0x65 DUP2 SWAP1 SSTORE POP DUP1 ISZERO PUSH2 0x649 JUMPI PUSH1 0x0 DUP1 PUSH1 0x1 PUSH2 0x100 EXP DUP2 SLOAD DUP2 PUSH1 0xFF MUL NOT AND SWAP1 DUP4 ISZERO ISZERO MUL OR SWAP1 SSTORE POP PUSH32 0x7F26B83FF96E1F2B6A682F133852F6798A09C465DA95921460CEFB3847402498 PUSH1 0x1 PUSH1 0x40 MLOAD PUSH2 0x640 SWAP2 SWAP1 PUSH2 0xCE3 JUMP JUMPDEST PUSH1 0x40 MLOAD DUP1 SWAP2 SUB SWAP1 LOG1 JUMPDEST POP JUMP JUMPDEST PUSH1 0x0 PUSH20 0xFFFFFFFFFFFFFFFFFFFFFFFFFFFFFFFFFFFFFFFF AND DUP2 PUSH20 0xFFFFFFFFFFFFFFFFFFFFFFFFFFFFFFFFFFFFFFFF AND EQ ISZERO PUSH2 0x686 JUMPI PUSH1 0x0 DUP1 REVERT JUMPDEST PUSH2 0x68F DUP2 PUSH2 0x458 JUMP JUMPDEST ISZERO PUSH2 0x699 JUMPI PUSH1 0x0 DUP1 REVERT JUMPDEST PUSH1 0x1 PUSH1 0x69 PUSH1 0x0 DUP4 PUSH20 0xFFFFFFFFFFFFFFFFFFFFFFFFFFFFFFFFFFFFFFFF AND PUSH20 0xFFFFFFFFFFFFFFFFFFFFFFFFFFFFFFFFFFFFFFFF AND DUP2 MSTORE PUSH1 0x20 ADD SWAP1 DUP2 MSTORE PUSH1 0x20 ADD PUSH1 0x0 KECCAK256 PUSH1 0x0 ADD PUSH1 0x0 PUSH2 0x100 EXP DUP2 SLOAD DUP2 PUSH1 0xFF MUL NOT AND SWAP1 DUP4 ISZERO ISZERO MUL OR SWAP1 SSTORE POP POP JUMP JUMPDEST PUSH1 0x0 PUSH1 0x33 PUSH1 0x0 SWAP1 SLOAD SWAP1 PUSH2 0x100 EXP SWAP1 DIV PUSH20 0xFFFFFFFFFFFFFFFFFFFFFFFFFFFFFFFFFFFFFFFF AND SWAP1 POP SWAP1 JUMP JUMPDEST PUSH1 0x0 DUP1 PUSH20 0xFFFFFFFFFFFFFFFFFFFFFFFFFFFFFFFFFFFFFFFF AND DUP3 PUSH20 0xFFFFFFFFFFFFFFFFFFFFFFFFFFFFFFFFFFFFFFFF AND EQ ISZERO PUSH2 0x75C JUMPI PUSH1 0x0 DUP1 REVERT JUMPDEST PUSH1 0x69 PUSH1 0x0 DUP4 PUSH20 0xFFFFFFFFFFFFFFFFFFFFFFFFFFFFFFFFFFFFFFFF AND PUSH20 0xFFFFFFFFFFFFFFFFFFFFFFFFFFFFFFFFFFFFFFFF AND DUP2 MSTORE PUSH1 0x20 ADD SWAP1 DUP2 MSTORE PUSH1 0x20 ADD PUSH1 0x0 KECCAK256 PUSH1 0x0 ADD PUSH1 0x1 SWAP1 SLOAD SWAP1 PUSH2 0x100 EXP SWAP1 DIV PUSH1 0xFF AND SWAP1 POP SWAP2 SWAP1 POP JUMP JUMPDEST PUSH1 0x0 DUP1 PUSH20 0xFFFFFFFFFFFFFFFFFFFFFFFFFFFFFFFFFFFFFFFF AND DUP3 PUSH20 0xFFFFFFFFFFFFFFFFFFFFFFFFFFFFFFFFFFFFFFFF AND EQ ISZERO PUSH2 0x7EE JUMPI PUSH1 0x0 DUP1 REVERT JUMPDEST PUSH1 0x69 PUSH1 0x0 DUP4 PUSH20 0xFFFFFFFFFFFFFFFFFFFFFFFFFFFFFFFFFFFFFFFF AND PUSH20 0xFFFFFFFFFFFFFFFFFFFFFFFFFFFFFFFFFFFFFFFF AND DUP2 MSTORE PUSH1 0x20 ADD SWAP1 DUP2 MSTORE PUSH1 0x20 ADD PUSH1 0x0 KECCAK256 PUSH1 0x0 ADD PUSH1 0x2 SWAP1 SLOAD SWAP1 PUSH2 0x100 EXP SWAP1 DIV PUSH1 0xFF AND SWAP1 POP SWAP2 SWAP1 POP JUMP JUMPDEST PUSH2 0x84D PUSH2 0x97A JUMP JUMPDEST PUSH1 0x0 PUSH20 0xFFFFFFFFFFFFFFFFFFFFFFFFFFFFFFFFFFFFFFFF AND DUP2 PUSH20 0xFFFFFFFFFFFFFFFFFFFFFFFFFFFFFFFFFFFFFFFF AND EQ ISZERO PUSH2 0x8BD JUMPI PUSH1 0x40 MLOAD PUSH32 0x8C379A000000000000000000000000000000000000000000000000000000000 DUP2 MSTORE PUSH1 0x4 ADD PUSH2 0x8B4 SWAP1 PUSH2 0xCFE JUMP JUMPDEST PUSH1 0x40 MLOAD DUP1 SWAP2 SUB SWAP1 REVERT JUMPDEST PUSH2 0x8C6 DUP2 PUSH2 0x9F8 JUMP JUMPDEST POP JUMP JUMPDEST PUSH1 0x0 PUSH20 0xFFFFFFFFFFFFFFFFFFFFFFFFFFFFFFFFFFFFFFFF AND DUP2 PUSH20 0xFFFFFFFFFFFFFFFFFFFFFFFFFFFFFFFFFFFFFFFF AND EQ ISZERO PUSH2 0x903 JUMPI PUSH1 0x0 DUP1 REVERT JUMPDEST PUSH2 0x90C DUP2 PUSH2 0x7B3 JUMP JUMPDEST ISZERO PUSH2 0x916 JUMPI PUSH1 0x0 DUP1 REVERT JUMPDEST PUSH1 0x1 PUSH1 0x69 PUSH1 0x0 DUP4 PUSH20 0xFFFFFFFFFFFFFFFFFFFFFFFFFFFFFFFFFFFFFFFF AND PUSH20 0xFFFFFFFFFFFFFFFFFFFFFFFFFFFFFFFFFFFFFFFF AND DUP2 MSTORE PUSH1 0x20 ADD SWAP1 DUP2 MSTORE PUSH1 0x20 ADD PUSH1 0x0 KECCAK256 PUSH1 0x0 ADD PUSH1 0x2 PUSH2 0x100 EXP DUP2 SLOAD DUP2 PUSH1 0xFF MUL NOT AND SWAP1 DUP4 ISZERO ISZERO MUL OR SWAP1 SSTORE POP POP JUMP JUMPDEST PUSH1 0x65 SLOAD DUP2 JUMP JUMPDEST PUSH2 0x982 PUSH2 0xB3A JUMP JUMPDEST PUSH20 0xFFFFFFFFFFFFFFFFFFFFFFFFFFFFFFFFFFFFFFFF AND PUSH2 0x9A0 PUSH2 0x6F7 JUMP JUMPDEST PUSH20 0xFFFFFFFFFFFFFFFFFFFFFFFFFFFFFFFFFFFFFFFF AND EQ PUSH2 0x9F6 JUMPI PUSH1 0x40 MLOAD PUSH32 0x8C379A000000000000000000000000000000000000000000000000000000000 DUP2 MSTORE PUSH1 0x4 ADD PUSH2 0x9ED SWAP1 PUSH2 0xD3E JUMP JUMPDEST PUSH1 0x40 MLOAD DUP1 SWAP2 SUB SWAP1 REVERT JUMPDEST JUMP JUMPDEST PUSH1 0x0 PUSH1 0x33 PUSH1 0x0 SWAP1 SLOAD SWAP1 PUSH2 0x100 EXP SWAP1 DIV PUSH20 0xFFFFFFFFFFFFFFFFFFFFFFFFFFFFFFFFFFFFFFFF AND SWAP1 POP DUP2 PUSH1 0x33 PUSH1 0x0 PUSH2 0x100 EXP DUP2 SLOAD DUP2 PUSH20 0xFFFFFFFFFFFFFFFFFFFFFFFFFFFFFFFFFFFFFFFF MUL NOT AND SWAP1 DUP4 PUSH20 0xFFFFFFFFFFFFFFFFFFFFFFFFFFFFFFFFFFFFFFFF AND MUL OR SWAP1 SSTORE POP DUP2 PUSH20 0xFFFFFFFFFFFFFFFFFFFFFFFFFFFFFFFFFFFFFFFF AND DUP2 PUSH20 0xFFFFFFFFFFFFFFFFFFFFFFFFFFFFFFFFFFFFFFFF AND PUSH32 0x8BE0079C531659141344CD1FD0A4F28419497F9722A3DAAFE3B4186F6B6457E0 PUSH1 0x40 MLOAD PUSH1 0x40 MLOAD DUP1 SWAP2 SUB SWAP1 LOG3 POP POP JUMP JUMPDEST PUSH1 0x0 DUP1 DUP3 PUSH20 0xFFFFFFFFFFFFFFFFFFFFFFFFFFFFFFFFFFFFFFFF AND EXTCODESIZE GT SWAP1 POP SWAP2 SWAP1 POP JUMP JUMPDEST PUSH1 0x0 PUSH1 0x1 SWAP1 SLOAD SWAP1 PUSH2 0x100 EXP SWAP1 DIV PUSH1 0xFF AND PUSH2 0xB30 JUMPI PUSH1 0x40 MLOAD PUSH32 0x8C379A000000000000000000000000000000000000000000000000000000000 DUP2 MSTORE PUSH1 0x4 ADD PUSH2 0xB27 SWAP1 PUSH2 0xD5E JUMP JUMPDEST PUSH1 0x40 MLOAD DUP1 SWAP2 SUB SWAP1 REVERT JUMPDEST PUSH2 0xB38 PUSH2 0xB42 JUMP JUMPDEST JUMP JUMPDEST PUSH1 0x0 CALLER SWAP1 POP SWAP1 JUMP JUMPDEST PUSH1 0x0 PUSH1 0x1 SWAP1 SLOAD SWAP1 PUSH2 0x100 EXP SWAP1 DIV PUSH1 0xFF AND PUSH2 0xB91 JUMPI PUSH1 0x40 MLOAD PUSH32 0x8C379A000000000000000000000000000000000000000000000000000000000 DUP2 MSTORE PUSH1 0x4 ADD PUSH2 0xB88 SWAP1 PUSH2 0xD5E JUMP JUMPDEST PUSH1 0x40 MLOAD DUP1 SWAP2 SUB SWAP1 REVERT JUMPDEST PUSH2 0xBA1 PUSH2 0xB9C PUSH2 0xB3A JUMP JUMPDEST PUSH2 0x9F8 JUMP JUMPDEST JUMP JUMPDEST PUSH1 0x0 DUP2 CALLDATALOAD SWAP1 POP PUSH2 0xBB2 DUP2 PUSH2 0xF2C JUMP JUMPDEST SWAP3 SWAP2 POP POP JUMP JUMPDEST PUSH1 0x0 PUSH1 0x20 DUP3 DUP5 SUB SLT ISZERO PUSH2 0xBCE JUMPI PUSH2 0xBCD PUSH2 0xE11 JUMP JUMPDEST JUMPDEST PUSH1 0x0 PUSH2 0xBDC DUP5 DUP3 DUP6 ADD PUSH2 0xBA3 JUMP JUMPDEST SWAP2 POP POP SWAP3 SWAP2 POP POP JUMP JUMPDEST PUSH2 0xBEE DUP2 PUSH2 0xDAA JUMP JUMPDEST DUP3 MSTORE POP POP JUMP JUMPDEST PUSH2 0xBFD DUP2 PUSH2 0xDBC JUMP JUMPDEST DUP3 MSTORE POP POP JUMP JUMPDEST PUSH2 0xC0C DUP2 PUSH2 0xDFF JUMP JUMPDEST DUP3 MSTORE POP POP JUMP JUMPDEST PUSH1 0x0 PUSH2 0xC1F PUSH1 0x26 DUP4 PUSH2 0xD99 JUMP JUMPDEST SWAP2 POP PUSH2 0xC2A DUP3 PUSH2 0xE16 JUMP JUMPDEST PUSH1 0x40 DUP3 ADD SWAP1 POP SWAP2 SWAP1 POP JUMP JUMPDEST PUSH1 0x0 PUSH2 0xC42 PUSH1 0x2E DUP4 PUSH2 0xD99 JUMP JUMPDEST SWAP2 POP PUSH2 0xC4D DUP3 PUSH2 0xE65 JUMP JUMPDEST PUSH1 0x40 DUP3 ADD SWAP1 POP SWAP2 SWAP1 POP JUMP JUMPDEST PUSH1 0x0 PUSH2 0xC65 PUSH1 0x20 DUP4 PUSH2 0xD99 JUMP JUMPDEST SWAP2 POP PUSH2 0xC70 DUP3 PUSH2 0xEB4 JUMP JUMPDEST PUSH1 0x20 DUP3 ADD SWAP1 POP SWAP2 SWAP1 POP JUMP JUMPDEST PUSH1 0x0 PUSH2 0xC88 PUSH1 0x2B DUP4 PUSH2 0xD99 JUMP JUMPDEST SWAP2 POP PUSH2 0xC93 DUP3 PUSH2 0xEDD JUMP JUMPDEST PUSH1 0x40 DUP3 ADD SWAP1 POP SWAP2 SWAP1 POP JUMP JUMPDEST PUSH2 0xCA7 DUP2 PUSH2 0xDE8 JUMP JUMPDEST DUP3 MSTORE POP POP JUMP JUMPDEST PUSH1 0x0 PUSH1 0x20 DUP3 ADD SWAP1 POP PUSH2 0xCC2 PUSH1 0x0 DUP4 ADD DUP5 PUSH2 0xBE5 JUMP JUMPDEST SWAP3 SWAP2 POP POP JUMP JUMPDEST PUSH1 0x0 PUSH1 0x20 DUP3 ADD SWAP1 POP PUSH2 0xCDD PUSH1 0x0 DUP4 ADD DUP5 PUSH2 0xBF4 JUMP JUMPDEST SWAP3 SWAP2 POP POP JUMP JUMPDEST PUSH1 0x0 PUSH1 0x20 DUP3 ADD SWAP1 POP PUSH2 0xCF8 PUSH1 0x0 DUP4 ADD DUP5 PUSH2 0xC03 JUMP JUMPDEST SWAP3 SWAP2 POP POP JUMP JUMPDEST PUSH1 0x0 PUSH1 0x20 DUP3 ADD SWAP1 POP DUP2 DUP2 SUB PUSH1 0x0 DUP4 ADD MSTORE PUSH2 0xD17 DUP2 PUSH2 0xC12 JUMP JUMPDEST SWAP1 POP SWAP2 SWAP1 POP JUMP JUMPDEST PUSH1 0x0 PUSH1 0x20 DUP3 ADD SWAP1 POP DUP2 DUP2 SUB PUSH1 0x0 DUP4 ADD MSTORE PUSH2 0xD37 DUP2 PUSH2 0xC35 JUMP JUMPDEST SWAP1 POP SWAP2 SWAP1 POP JUMP JUMPDEST PUSH1 0x0 PUSH1 0x20 DUP3 ADD SWAP1 POP DUP2 DUP2 SUB PUSH1 0x0 DUP4 ADD MSTORE PUSH2 0xD57 DUP2 PUSH2 0xC58 JUMP JUMPDEST SWAP1 POP SWAP2 SWAP1 POP JUMP JUMPDEST PUSH1 0x0 PUSH1 0x20 DUP3 ADD SWAP1 POP DUP2 DUP2 SUB PUSH1 0x0 DUP4 ADD MSTORE PUSH2 0xD77 DUP2 PUSH2 0xC7B JUMP JUMPDEST SWAP1 POP SWAP2 SWAP1 POP JUMP JUMPDEST PUSH1 0x0 PUSH1 0x20 DUP3 ADD SWAP1 POP PUSH2 0xD93 PUSH1 0x0 DUP4 ADD DUP5 PUSH2 0xC9E JUMP JUMPDEST SWAP3 SWAP2 POP POP JUMP JUMPDEST PUSH1 0x0 DUP3 DUP3 MSTORE PUSH1 0x20 DUP3 ADD SWAP1 POP SWAP3 SWAP2 POP POP JUMP JUMPDEST PUSH1 0x0 PUSH2 0xDB5 DUP3 PUSH2 0xDC8 JUMP JUMPDEST SWAP1 POP SWAP2 SWAP1 POP JUMP JUMPDEST PUSH1 0x0 DUP2 ISZERO ISZERO SWAP1 POP SWAP2 SWAP1 POP JUMP JUMPDEST PUSH1 0x0 PUSH20 0xFFFFFFFFFFFFFFFFFFFFFFFFFFFFFFFFFFFFFFFF DUP3 AND SWAP1 POP SWAP2 SWAP1 POP JUMP JUMPDEST PUSH1 0x0 DUP2 SWAP1 POP SWAP2 SWAP1 POP JUMP JUMPDEST PUSH1 0x0 PUSH1 0xFF DUP3 AND SWAP1 POP SWAP2 SWAP1 POP JUMP JUMPDEST PUSH1 0x0 PUSH2 0xE0A DUP3 PUSH2 0xDF2 JUMP JUMPDEST SWAP1 POP SWAP2 SWAP1 POP JUMP JUMPDEST PUSH1 0x0 DUP1 REVERT JUMPDEST PUSH32 0x4F776E61626C653A206E6577206F776E657220697320746865207A65726F2061 PUSH1 0x0 DUP3 ADD MSTORE PUSH32 0x6464726573730000000000000000000000000000000000000000000000000000 PUSH1 0x20 DUP3 ADD MSTORE POP JUMP JUMPDEST PUSH32 0x496E697469616C697A61626C653A20636F6E747261637420697320616C726561 PUSH1 0x0 DUP3 ADD MSTORE PUSH32 0x647920696E697469616C697A6564000000000000000000000000000000000000 PUSH1 0x20 DUP3 ADD MSTORE POP JUMP JUMPDEST PUSH32 0x4F776E61626C653A2063616C6C6572206973206E6F7420746865206F776E6572 PUSH1 0x0 DUP3 ADD MSTORE POP JUMP JUMPDEST PUSH32 0x496E697469616C697A61626C653A20636F6E7472616374206973206E6F742069 PUSH1 0x0 DUP3 ADD MSTORE PUSH32 0x6E697469616C697A696E67000000000000000000000000000000000000000000 PUSH1 0x20 DUP3 ADD MSTORE POP JUMP JUMPDEST PUSH2 0xF35 DUP2 PUSH2 0xDAA JUMP JUMPDEST DUP2 EQ PUSH2 0xF40 JUMPI PUSH1 0x0 DUP1 REVERT JUMPDEST POP JUMP INVALID LOG2 PUSH5 0x6970667358 0x22 SLT KECCAK256 PUSH24 0x9B659F507CB6A5F78DAA0FDD9BCFAE59BE1F60AC5F91976B PUSH20 0xA9CC6A04A8BD64736F6C63430008070033000000 "},"methodIdentifiers":{"addCustomerRole(address)":"453dd4af","addDeliveryHubRole(address)":"f4121b67","addManufacturerRole(address)":"8290f859","addThirdPartyRole(address)":"5212e510","hasCustomerRole(address)":"024edf9a","hasDeliveryHubRole(address)":"d44bebcc","hasManufacturerRole(address)":"6000ada1","hasThirdPartyRole(address)":"cd2885e0","initialize()":"8129fc1c","owner()":"8da5cb5b","renounceOwnership()":"715018a6","transferOwnership(address)":"f2fde38b","uid()":"f514ce36"}},"storageLayout":{"storage":[{"astId":138,"contract":"contracts/SupplyChain.sol:SupplyChain","label":"_initialized","offset":0,"slot":"0","type":"t_uint8"},{"astId":141,"contract":"contracts/SupplyChain.sol:SupplyChain","label":"_initializing","offset":1,"slot":"0","type":"t_bool"},{"astId":1340,"contract":"contracts/SupplyChain.sol:SupplyChain","label":"__gap","offset":0,"slot":"1","type":"t_array(t_uint256)50_storage"},{"astId":10,"contract":"contracts/SupplyChain.sol:SupplyChain","label":"_owner","offset":0,"slot":"51","type":"t_address"},{"astId":130,"contract":"contracts/SupplyChain.sol:SupplyChain","label":"__gap","offset":0,"slot":"52","type":"t_array(t_uint256)49_storage"},{"astId":1449,"contract":"contracts/SupplyChain.sol:SupplyChain","label":"uid","offset":0,"slot":"101","type":"t_uint256"},{"astId":1451,"contract":"contracts/SupplyChain.sol:SupplyChain","label":"sku","offset":0,"slot":"102","type":"t_uint256"},{"astId":1456,"contract":"contracts/SupplyChain.sol:SupplyChain","label":"products","offset":0,"slot":"103","type":"t_mapping(t_uint256,t_struct(Product)1415_storage)"},{"astId":1461,"contract":"contracts/SupplyChain.sol:SupplyChain","label":"productHistory","offset":0,"slot":"104","type":"t_mapping(t_uint256,t_struct(ProductHistory)1420_storage)"},{"astId":1466,"contract":"contracts/SupplyChain.sol:SupplyChain","label":"roles","offset":0,"slot":"105","type":"t_mapping(t_address,t_struct(Roles)1429_storage)"}],"types":{"t_address":{"encoding":"inplace","label":"address","numberOfBytes":"20"},"t_array(t_struct(Product)1415_storage)dyn_storage":{"base":"t_struct(Product)1415_storage","encoding":"dynamic_array","label":"struct Structure.Product[]","numberOfBytes":"32"},"t_array(t_uint256)49_storage":{"base":"t_uint256","encoding":"inplace","label":"uint256[49]","numberOfBytes":"1568"},"t_array(t_uint256)50_storage":{"base":"t_uint256","encoding":"inplace","label":"uint256[50]","numberOfBytes":"1600"},"t_bool":{"encoding":"inplace","label":"bool","numberOfBytes":"1"},"t_enum(State)1353":{"encoding":"inplace","label":"enum Structure.State","numberOfBytes":"1"},"t_mapping(t_address,t_struct(Roles)1429_storage)":{"encoding":"mapping","key":"t_address","label":"mapping(address => struct Structure.Roles)","numberOfBytes":"32","value":"t_struct(Roles)1429_storage"},"t_mapping(t_uint256,t_struct(Product)1415_storage)":{"encoding":"mapping","key":"t_uint256","label":"mapping(uint256 => struct Structure.Product)","numberOfBytes":"32","value":"t_struct(Product)1415_storage"},"t_mapping(t_uint256,t_struct(ProductHistory)1420_storage)":{"encoding":"mapping","key":"t_uint256","label":"mapping(uint256 => struct Structure.ProductHistory)","numberOfBytes":"32","value":"t_struct(ProductHistory)1420_storage"},"t_string_storage":{"encoding":"bytes","label":"string","numberOfBytes":"32"},"t_struct(DeliveryHubDetails)1389_storage":{"encoding":"inplace","label":"struct Structure.DeliveryHubDetails","members":[{"astId":1384,"contract":"contracts/SupplyChain.sol:SupplyChain","label":"deliveryHub","offset":0,"slot":"0","type":"t_address"},{"astId":1386,"contract":"contracts/SupplyChain.sol:SupplyChain","label":"deliveryHubLongitude","offset":0,"slot":"1","type":"t_string_storage"},{"astId":1388,"contract":"contracts/SupplyChain.sol:SupplyChain","label":"deliveryHubLatitude","offset":0,"slot":"2","type":"t_string_storage"}],"numberOfBytes":"96"},"t_struct(ManufactureDetails)1366_storage":{"encoding":"inplace","label":"struct Structure.ManufactureDetails","members":[{"astId":1355,"contract":"contracts/SupplyChain.sol:SupplyChain","label":"manufacturer","offset":0,"slot":"0","type":"t_address"},{"astId":1357,"contract":"contracts/SupplyChain.sol:SupplyChain","label":"manufacturerName","offset":0,"slot":"1","type":"t_string_storage"},{"astId":1359,"contract":"contracts/SupplyChain.sol:SupplyChain","label":"manufacturerDetails","offset":0,"slot":"2","type":"t_string_storage"},{"astId":1361,"contract":"contracts/SupplyChain.sol:SupplyChain","label":"manufacturerLongitude","offset":0,"slot":"3","type":"t_string_storage"},{"astId":1363,"contract":"contracts/SupplyChain.sol:SupplyChain","label":"manufacturerLatitude","offset":0,"slot":"4","type":"t_string_storage"},{"astId":1365,"contract":"contracts/SupplyChain.sol:SupplyChain","label":"manufacturedDate","offset":0,"slot":"5","type":"t_uint256"}],"numberOfBytes":"192"},"t_struct(Product)1415_storage":{"encoding":"inplace","label":"struct Structure.Product","members":[{"astId":1391,"contract":"contracts/SupplyChain.sol:SupplyChain","label":"uid","offset":0,"slot":"0","type":"t_uint256"},{"astId":1393,"contract":"contracts/SupplyChain.sol:SupplyChain","label":"sku","offset":0,"slot":"1","type":"t_uint256"},{"astId":1395,"contract":"contracts/SupplyChain.sol:SupplyChain","label":"owner","offset":0,"slot":"2","type":"t_address"},{"astId":1398,"contract":"contracts/SupplyChain.sol:SupplyChain","label":"productState","offset":20,"slot":"2","type":"t_enum(State)1353"},{"astId":1401,"contract":"contracts/SupplyChain.sol:SupplyChain","label":"manufacturer","offset":0,"slot":"3","type":"t_struct(ManufactureDetails)1366_storage"},{"astId":1404,"contract":"contracts/SupplyChain.sol:SupplyChain","label":"thirdparty","offset":0,"slot":"9","type":"t_struct(ThirdPartyDetails)1382_storage"},{"astId":1407,"contract":"contracts/SupplyChain.sol:SupplyChain","label":"productdet","offset":0,"slot":"12","type":"t_struct(ProductDetails)1375_storage"},{"astId":1410,"contract":"contracts/SupplyChain.sol:SupplyChain","label":"deliveryhub","offset":0,"slot":"16","type":"t_struct(DeliveryHubDetails)1389_storage"},{"astId":1412,"contract":"contracts/SupplyChain.sol:SupplyChain","label":"customer","offset":0,"slot":"19","type":"t_address"},{"astId":1414,"contract":"contracts/SupplyChain.sol:SupplyChain","label":"transaction","offset":0,"slot":"20","type":"t_string_storage"}],"numberOfBytes":"672"},"t_struct(ProductDetails)1375_storage":{"encoding":"inplace","label":"struct Structure.ProductDetails","members":[{"astId":1368,"contract":"contracts/SupplyChain.sol:SupplyChain","label":"productName","offset":0,"slot":"0","type":"t_string_storage"},{"astId":1370,"contract":"contracts/SupplyChain.sol:SupplyChain","label":"productCode","offset":0,"slot":"1","type":"t_uint256"},{"astId":1372,"contract":"contracts/SupplyChain.sol:SupplyChain","label":"productPrice","offset":0,"slot":"2","type":"t_uint256"},{"astId":1374,"contract":"contracts/SupplyChain.sol:SupplyChain","label":"productCategory","offset":0,"slot":"3","type":"t_string_storage"}],"numberOfBytes":"128"},"t_struct(ProductHistory)1420_storage":{"encoding":"inplace","label":"struct Structure.ProductHistory","members":[{"astId":1419,"contract":"contracts/SupplyChain.sol:SupplyChain","label":"history","offset":0,"slot":"0","type":"t_array(t_struct(Product)1415_storage)dyn_storage"}],"numberOfBytes":"32"},"t_struct(Roles)1429_storage":{"encoding":"inplace","label":"struct Structure.Roles","members":[{"astId":1422,"contract":"contracts/SupplyChain.sol:SupplyChain","label":"Manufacturer","offset":0,"slot":"0","type":"t_bool"},{"astId":1424,"contract":"contracts/SupplyChain.sol:SupplyChain","label":"ThirdParty","offset":1,"slot":"0","type":"t_bool"},{"astId":1426,"contract":"contracts/SupplyChain.sol:SupplyChain","label":"DeliveryHub","offset":2,"slot":"0","type":"t_bool"},{"astId":1428,"contract":"contracts/SupplyChain.sol:SupplyChain","label":"Customer","offset":3,"slot":"0","type":"t_bool"}],"numberOfBytes":"32"},"t_struct(ThirdPartyDetails)1382_storage":{"encoding":"inplace","label":"struct Structure.ThirdPartyDetails","members":[{"astId":1377,"contract":"contracts/SupplyChain.sol:SupplyChain","label":"thirdParty","offset":0,"slot":"0","type":"t_address"},{"astId":1379,"contract":"contracts/SupplyChain.sol:SupplyChain","label":"thirdPartyLongitude","offset":0,"slot":"1","type":"t_string_storage"},{"astId":1381,"contract":"contracts/SupplyChain.sol:SupplyChain","label":"thirdPartyLatitude","offset":0,"slot":"2","type":"t_string_storage"}],"numberOfBytes":"96"},"t_uint256":{"encoding":"inplace","label":"uint256","numberOfBytes":"32"},"t_uint8":{"encoding":"inplace","label":"uint8","numberOfBytes":"1"}}}}}}