{"contracts/SupplyChain.sol":{"SupplyChain":{"abi":[{"inputs":[],"stateMutability":"payable","type":"constructor"},{"anonymous":false,"inputs":[{"indexed":false,"internalType":"uint256","name":"uid","type":"uint256"}],"name":"Manufactured","type":"event"},{"anonymous":false,"inputs":[{"indexed":true,"internalType":"address","name":"_account","type":"address"}],"name":"ManufacturerAdded","type":"event"},{"anonymous":false,"inputs":[{"indexed":false,"internalType":"uint256","name":"uid","type":"uint256"}],"name":"PurchasedByCustomer","type":"event"},{"anonymous":false,"inputs":[{"indexed":false,"internalType":"uint256","name":"uid","type":"uint256"}],"name":"PurchasedByThirdParty","type":"event"},{"anonymous":false,"inputs":[{"indexed":false,"internalType":"uint256","name":"uid","type":"uint256"}],"name":"ReceivedByCustomer","type":"event"},{"anonymous":false,"inputs":[{"indexed":false,"internalType":"uint256","name":"uid","type":"uint256"}],"name":"ReceivedByDeliveryHub","type":"event"},{"anonymous":false,"inputs":[{"indexed":false,"internalType":"uint256","name":"uid","type":"uint256"}],"name":"ReceivedByThirdParty","type":"event"},{"anonymous":false,"inputs":[{"indexed":false,"internalType":"uint256","name":"uid","type":"uint256"}],"name":"ShippedByDeliveryHub","type":"event"},{"anonymous":false,"inputs":[{"indexed":false,"internalType":"uint256","name":"uid","type":"uint256"}],"name":"ShippedByManufacturer","type":"event"},{"anonymous":false,"inputs":[{"indexed":false,"internalType":"uint256","name":"uid","type":"uint256"}],"name":"ShippedByThirdParty","type":"event"},{"inputs":[{"internalType":"address","name":"_account","type":"address"}],"name":"addCustomerRole","outputs":[],"stateMutability":"nonpayable","type":"function"},{"inputs":[{"internalType":"address","name":"_account","type":"address"}],"name":"addDeliveryHubRole","outputs":[],"stateMutability":"nonpayable","type":"function"},{"inputs":[{"internalType":"address","name":"_account","type":"address"}],"name":"addManufacturerRole","outputs":[],"stateMutability":"nonpayable","type":"function"},{"inputs":[{"internalType":"address","name":"_account","type":"address"}],"name":"addThirdPartyRole","outputs":[],"stateMutability":"nonpayable","type":"function"},{"inputs":[],"name":"fetchProductCount","outputs":[{"internalType":"uint256","name":"","type":"uint256"}],"stateMutability":"view","type":"function"},{"inputs":[{"internalType":"uint256","name":"_uid","type":"uint256"}],"name":"fetchProductHistoryLength","outputs":[{"internalType":"uint256","name":"","type":"uint256"}],"stateMutability":"view","type":"function"},{"inputs":[{"internalType":"uint256","name":"_uid","type":"uint256"},{"internalType":"string","name":"_type","type":"string"},{"internalType":"uint256","name":"i","type":"uint256"}],"name":"fetchProductPart1","outputs":[{"internalType":"uint256","name":"","type":"uint256"},{"internalType":"uint256","name":"","type":"uint256"},{"internalType":"address","name":"","type":"address"},{"internalType":"address","name":"","type":"address"},{"internalType":"string","name":"","type":"string"},{"internalType":"string","name":"","type":"string"},{"internalType":"string","name":"","type":"string"},{"internalType":"string","name":"","type":"string"}],"stateMutability":"view","type":"function"},{"inputs":[{"internalType":"uint256","name":"_uid","type":"uint256"},{"internalType":"string","name":"_type","type":"string"},{"internalType":"uint256","name":"i","type":"uint256"}],"name":"fetchProductPart2","outputs":[{"internalType":"uint256","name":"","type":"uint256"},{"internalType":"string","name":"","type":"string"},{"internalType":"uint256","name":"","type":"uint256"},{"internalType":"uint256","name":"","type":"uint256"},{"internalType":"string","name":"","type":"string"},{"internalType":"enum Structure.State","name":"","type":"uint8"},{"internalType":"address","name":"","type":"address"},{"internalType":"string","name":"","type":"string"}],"stateMutability":"view","type":"function"},{"inputs":[{"internalType":"uint256","name":"_uid","type":"uint256"},{"internalType":"string","name":"_type","type":"string"},{"internalType":"uint256","name":"i","type":"uint256"}],"name":"fetchProductPart3","outputs":[{"internalType":"string","name":"","type":"string"},{"internalType":"address","name":"","type":"address"},{"internalType":"string","name":"","type":"string"},{"internalType":"string","name":"","type":"string"},{"internalType":"address","name":"","type":"address"},{"internalType":"string","name":"","type":"string"}],"stateMutability":"view","type":"function"},{"inputs":[{"internalType":"uint256","name":"_uid","type":"uint256"}],"name":"fetchProductState","outputs":[{"internalType":"enum Structure.State","name":"","type":"uint8"}],"stateMutability":"view","type":"function"},{"inputs":[{"internalType":"address","name":"_account","type":"address"}],"name":"hasCustomerRole","outputs":[{"internalType":"bool","name":"","type":"bool"}],"stateMutability":"view","type":"function"},{"inputs":[{"internalType":"address","name":"_account","type":"address"}],"name":"hasDeliveryHubRole","outputs":[{"internalType":"bool","name":"","type":"bool"}],"stateMutability":"view","type":"function"},{"inputs":[{"internalType":"address","name":"_account","type":"address"}],"name":"hasManufacturerRole","outputs":[{"internalType":"bool","name":"","type":"bool"}],"stateMutability":"view","type":"function"},{"inputs":[{"internalType":"address","name":"_account","type":"address"}],"name":"hasThirdPartyRole","outputs":[{"internalType":"bool","name":"","type":"bool"}],"stateMutability":"view","type":"function"},{"inputs":[{"internalType":"string","name":"manufacturerName","type":"string"},{"internalType":"string","name":"manufacturerDetails","type":"string"},{"internalType":"string","name":"manufacturerLongitude","type":"string"},{"internalType":"string","name":"manufacturerLatitude","type":"string"},{"internalType":"string","name":"productName","type":"string"},{"internalType":"uint256","name":"productCode","type":"uint256"},{"internalType":"uint256","name":"productPrice","type":"uint256"},{"internalType":"string","name":"productCategory","type":"string"}],"name":"manufactureProduct","outputs":[],"stateMutability":"nonpayable","type":"function"},{"inputs":[{"internalType":"uint256","name":"_uid","type":"uint256"}],"name":"purchaseByCustomer","outputs":[],"stateMutability":"nonpayable","type":"function"},{"inputs":[{"internalType":"uint256","name":"_uid","type":"uint256"}],"name":"purchaseByThirdParty","outputs":[],"stateMutability":"nonpayable","type":"function"},{"inputs":[{"internalType":"uint256","name":"_uid","type":"uint256"}],"name":"receiveByCustomer","outputs":[],"stateMutability":"nonpayable","type":"function"},{"inputs":[{"internalType":"uint256","name":"_uid","type":"uint256"},{"internalType":"string","name":"deliveryHubLongitude","type":"string"},{"internalType":"string","name":"deliveryHubLatitude","type":"string"}],"name":"receiveByDeliveryHub","outputs":[],"stateMutability":"nonpayable","type":"function"},{"inputs":[{"internalType":"uint256","name":"_uid","type":"uint256"},{"internalType":"string","name":"thirdPartyLongitude","type":"string"},{"internalType":"string","name":"thirdPartyLatitude","type":"string"}],"name":"receiveByThirdParty","outputs":[],"stateMutability":"nonpayable","type":"function"},{"inputs":[{"internalType":"uint256","name":"_uid","type":"uint256"},{"internalType":"string","name":"tran","type":"string"}],"name":"setTransactionHash","outputs":[],"stateMutability":"nonpayable","type":"function"},{"inputs":[{"internalType":"string","name":"tran","type":"string"}],"name":"setTransactionHashOnManufacture","outputs":[],"stateMutability":"nonpayable","type":"function"},{"inputs":[{"internalType":"uint256","name":"_uid","type":"uint256"}],"name":"shipByDeliveryHub","outputs":[],"stateMutability":"nonpayable","type":"function"},{"inputs":[{"internalType":"uint256","name":"_uid","type":"uint256"}],"name":"shipByThirdParty","outputs":[],"stateMutability":"nonpayable","type":"function"},{"inputs":[{"internalType":"uint256","name":"_uid","type":"uint256"}],"name":"shipToThirdParty","outputs":[],"stateMutability":"nonpayable","type":"function"},{"inputs":[],"name":"uid","outputs":[{"internalType":"uint256","name":"","type":"uint256"}],"stateMutability":"view","type":"function"}],"evm":{"bytecode":{"linkReferences":{},"object":"608060405233600260006101000a81548173ffffffffffffffffffffffffffffffffffffffff021916908373ffffffffffffffffffffffffffffffffffffffff160217905550600180819055506001600081905550615bfc806100636000396000f3fe608060405234801561001057600080fd5b506004361061018d5760003560e01c8063786ea161116100de578063d44bebcc11610097578063ee707c1e11610071578063ee707c1e146104c1578063f16791b3146104dd578063f4121b67146104fb578063f514ce36146105175761018d565b8063d44bebcc14610445578063e2f1fe1414610475578063e55128ea146104a55761018d565b8063786ea161146103705780638290f8591461038c5780638eee90ea146103a857806398c95889146103c4578063b843bdee146103f9578063cd2885e0146104155761018d565b80635212e5101161014b5780636cf07e24116101255780636cf07e24146102e55780636f1fe8d7146103015780637217eb2e1461033857806372df397e146103545761018d565b80635212e510146102625780636000ada11461027e578063658db497146102ae5761018d565b80623375b714610192578063024edf9a146101ae5780630a036e25146101de5780633334529e146101fa578063405ba7ef14610216578063453dd4af14610246575b600080fd5b6101ac60048036038101906101a791906152cc565b610535565b005b6101c860048036038101906101c39190615256565b610d95565b6040516101d59190615622565b60405180910390f35b6101f860048036038101906101f3919061542a565b610e27565b005b610214600480360381019061020f91906154b3565b611373565b005b610230600480360381019061022b919061542a565b6119c7565b60405161023d91906156d5565b60405180910390f35b610260600480360381019061025b9190615256565b6119ea565b005b61027c60048036038101906102779190615256565b611a95565b005b61029860048036038101906102939190615256565b611b40565b6040516102a59190615622565b60405180910390f35b6102c860048036038101906102c3919061553e565b611bd2565b6040516102dc989796959493929190615783565b60405180910390f35b6102ff60048036038101906102fa919061542a565b611fbf565b005b61031b6004803603810190610316919061553e565b6125d1565b60405161032f9897969594939291906156f0565b60405180910390f35b610352600480360381019061034d919061542a565b612928565b005b61036e6004803603810190610369919061542a565b612eac565b005b61038a60048036038101906103859190615457565b6134a0565b005b6103a660048036038101906103a19190615256565b61351d565b005b6103c260048036038101906103bd91906154b3565b6135c8565b005b6103de60048036038101906103d9919061553e565b613c02565b6040516103f096959493929190615658565b60405180910390f35b610413600480360381019061040e919061542a565b613fdc565b005b61042f600480360381019061042a9190615256565b614563565b60405161043c9190615622565b60405180910390f35b61045f600480360381019061045a9190615256565b6145f5565b60405161046c9190615622565b60405180910390f35b61048f600480360381019061048a919061542a565b614687565b60405161049c919061563d565b60405180910390f35b6104bf60048036038101906104ba9190615283565b6146b4565b005b6104db60048036038101906104d6919061542a565b614746565b005b6104e5614d02565b6040516104f291906156d5565b60405180910390f35b61051560048036038101906105109190615256565b614d0b565b005b61051f614db6565b60405161052c91906156d5565b60405180910390f35b61053e33611b40565b61054757600080fd5b600080549050610555614f01565b600154816020018181525050818160000181815250508981608001516020018190525088816080015160400181905250878160800151606001819052508681608001516080018190525042816080015160a001818152505033816040019073ffffffffffffffffffffffffffffffffffffffff16908173ffffffffffffffffffffffffffffffffffffffff16815250503381608001516000019073ffffffffffffffffffffffffffffffffffffffff16908173ffffffffffffffffffffffffffffffffffffffff168152505061062a81614dbc565b60008160600190600881111561064357610642615aa3565b5b9081600881111561065757610656615aa3565b5b815250506106688187878787614ec4565b8060036000848152602001908152602001600020600082015181600001556020820151816001015560408201518160020160006101000a81548173ffffffffffffffffffffffffffffffffffffffff021916908373ffffffffffffffffffffffffffffffffffffffff16021790555060608201518160020160146101000a81548160ff0219169083600881111561070257610701615aa3565b5b021790555060808201518160030160008201518160000160006101000a81548173ffffffffffffffffffffffffffffffffffffffff021916908373ffffffffffffffffffffffffffffffffffffffff1602179055506020820151816001019080519060200190610773929190614faa565b506040820151816002019080519060200190610790929190614faa565b5060608201518160030190805190602001906107ad929190614faa565b5060808201518160040190805190602001906107ca929190614faa565b5060a08201518160050155505060a08201518160090160008201518160000160006101000a81548173ffffffffffffffffffffffffffffffffffffffff021916908373ffffffffffffffffffffffffffffffffffffffff1602179055506020820151816001019080519060200190610843929190614faa565b506040820151816002019080519060200190610860929190614faa565b50505060c082015181600c016000820151816000019080519060200190610888929190614faa565b50602082015181600101556040820151816002015560608201518160030190805190602001906108b9929190614faa565b50505060e08201518160100160008201518160000160006101000a81548173ffffffffffffffffffffffffffffffffffffffff021916908373ffffffffffffffffffffffffffffffffffffffff1602179055506020820151816001019080519060200190610928929190614faa565b506040820151816002019080519060200190610945929190614faa565b5050506101008201518160130160006101000a81548173ffffffffffffffffffffffffffffffffffffffff021916908373ffffffffffffffffffffffffffffffffffffffff1602179055506101208201518160140190805190602001906109ad929190614faa565b5090505060046000838152602001908152602001600020600001819080600181540180825580915050600190039060005260206000209060150201600090919091909150600082015181600001556020820151816001015560408201518160020160006101000a81548173ffffffffffffffffffffffffffffffffffffffff021916908373ffffffffffffffffffffffffffffffffffffffff16021790555060608201518160020160146101000a81548160ff02191690836008811115610a7757610a76615aa3565b5b021790555060808201518160030160008201518160000160006101000a81548173ffffffffffffffffffffffffffffffffffffffff021916908373ffffffffffffffffffffffffffffffffffffffff1602179055506020820151816001019080519060200190610ae8929190614faa565b506040820151816002019080519060200190610b05929190614faa565b506060820151816003019080519060200190610b22929190614faa565b506080820151816004019080519060200190610b3f929190614faa565b5060a08201518160050155505060a08201518160090160008201518160000160006101000a81548173ffffffffffffffffffffffffffffffffffffffff021916908373ffffffffffffffffffffffffffffffffffffffff1602179055506020820151816001019080519060200190610bb8929190614faa565b506040820151816002019080519060200190610bd5929190614faa565b50505060c082015181600c016000820151816000019080519060200190610bfd929190614faa565b5060208201518160010155604082015181600201556060820151816003019080519060200190610c2e929190614faa565b50505060e08201518160100160008201518160000160006101000a81548173ffffffffffffffffffffffffffffffffffffffff021916908373ffffffffffffffffffffffffffffffffffffffff1602179055506020820151816001019080519060200190610c9d929190614faa565b506040820151816002019080519060200190610cba929190614faa565b5050506101008201518160130160006101000a81548173ffffffffffffffffffffffffffffffffffffffff021916908373ffffffffffffffffffffffffffffffffffffffff160217905550610120820151816014019080519060200190610d22929190614faa565b50505060016000815480929190610d3890615a2b565b91905055506001600054610d4c919061588f565b6000819055507fd29d8a68ca7c8c74be5579719d445aabfe230ed6e6a83aff475a663500eb760982604051610d8191906156d5565b60405180910390a150505050505050505050565b60008073ffffffffffffffffffffffffffffffffffffffff168273ffffffffffffffffffffffffffffffffffffffff161415610dd057600080fd5b600560008373ffffffffffffffffffffffffffffffffffffffff1673ffffffffffffffffffffffffffffffffffffffff16815260200190815260200160002060000160039054906101000a900460ff169050919050565b6003600082815260200190815260200160002060030160000160009054906101000a900473ffffffffffffffffffffffffffffffffffffffff168073ffffffffffffffffffffffffffffffffffffffff163373ffffffffffffffffffffffffffffffffffffffff1614610e9957600080fd5b610ea233611b40565b610eab57600080fd5b60026003600084815260200190815260200160002060020160146101000a81548160ff02191690836008811115610ee557610ee4615aa3565b5b02179055506004600083815260200190815260200160002060000160036000848152602001908152602001600020908060018154018082558091505060019003906000526020600020906015020160009091909190915060008201548160000155600182015481600101556002820160009054906101000a900473ffffffffffffffffffffffffffffffffffffffff168160020160006101000a81548173ffffffffffffffffffffffffffffffffffffffff021916908373ffffffffffffffffffffffffffffffffffffffff1602179055506002820160149054906101000a900460ff168160020160146101000a81548160ff02191690836008811115610fef57610fee615aa3565b5b021790555060038201816003016000820160009054906101000a900473ffffffffffffffffffffffffffffffffffffffff168160000160006101000a81548173ffffffffffffffffffffffffffffffffffffffff021916908373ffffffffffffffffffffffffffffffffffffffff1602179055506001820181600101908054611077906159c8565b611082929190615030565b506002820181600201908054611097906159c8565b6110a2929190615030565b5060038201816003019080546110b7906159c8565b6110c2929190615030565b5060048201816004019080546110d7906159c8565b6110e2929190615030565b5060058201548160050155505060098201816009016000820160009054906101000a900473ffffffffffffffffffffffffffffffffffffffff168160000160006101000a81548173ffffffffffffffffffffffffffffffffffffffff021916908373ffffffffffffffffffffffffffffffffffffffff1602179055506001820181600101908054611172906159c8565b61117d929190615030565b506002820181600201908054611192906159c8565b61119d929190615030565b505050600c820181600c0160008201816000019080546111bc906159c8565b6111c7929190615030565b50600182015481600101556002820154816002015560038201816003019080546111f0906159c8565b6111fb929190615030565b50505060108201816010016000820160009054906101000a900473ffffffffffffffffffffffffffffffffffffffff168160000160006101000a81548173ffffffffffffffffffffffffffffffffffffffff021916908373ffffffffffffffffffffffffffffffffffffffff1602179055506001820181600101908054611281906159c8565b61128c929190615030565b5060028201816002019080546112a1906159c8565b6112ac929190615030565b5050506013820160009054906101000a900473ffffffffffffffffffffffffffffffffffffffff168160130160006101000a81548173ffffffffffffffffffffffffffffffffffffffff021916908373ffffffffffffffffffffffffffffffffffffffff160217905550601482018160140190805461132a906159c8565b611335929190615030565b5050507f25727bef8a186dd95a062151451f2d651551b53124c18208d7653b1217ae31ba8260405161136791906156d5565b60405180910390a15050565b826002600881111561138857611387615aa3565b5b6003600083815260200190815260200160002060020160149054906101000a900460ff1660088111156113be576113bd615aa3565b5b146113c857600080fd5b6003600085815260200190815260200160002060090160000160009054906101000a900473ffffffffffffffffffffffffffffffffffffffff168073ffffffffffffffffffffffffffffffffffffffff163373ffffffffffffffffffffffffffffffffffffffff161461143a57600080fd5b61144333614563565b61144c57600080fd5b336003600087815260200190815260200160002060020160006101000a81548173ffffffffffffffffffffffffffffffffffffffff021916908373ffffffffffffffffffffffffffffffffffffffff160217905550836003600087815260200190815260200160002060090160010190805190602001906114ce929190614faa565b50826003600087815260200190815260200160002060090160020190805190602001906114fc929190614faa565b50600380600087815260200190815260200160002060020160146101000a81548160ff0219169083600881111561153657611535615aa3565b5b02179055506004600086815260200190815260200160002060000160036000878152602001908152602001600020908060018154018082558091505060019003906000526020600020906015020160009091909190915060008201548160000155600182015481600101556002820160009054906101000a900473ffffffffffffffffffffffffffffffffffffffff168160020160006101000a81548173ffffffffffffffffffffffffffffffffffffffff021916908373ffffffffffffffffffffffffffffffffffffffff1602179055506002820160149054906101000a900460ff168160020160146101000a81548160ff021916908360088111156116405761163f615aa3565b5b021790555060038201816003016000820160009054906101000a900473ffffffffffffffffffffffffffffffffffffffff168160000160006101000a81548173ffffffffffffffffffffffffffffffffffffffff021916908373ffffffffffffffffffffffffffffffffffffffff16021790555060018201816001019080546116c8906159c8565b6116d3929190615030565b5060028201816002019080546116e8906159c8565b6116f3929190615030565b506003820181600301908054611708906159c8565b611713929190615030565b506004820181600401908054611728906159c8565b611733929190615030565b5060058201548160050155505060098201816009016000820160009054906101000a900473ffffffffffffffffffffffffffffffffffffffff168160000160006101000a81548173ffffffffffffffffffffffffffffffffffffffff021916908373ffffffffffffffffffffffffffffffffffffffff16021790555060018201816001019080546117c3906159c8565b6117ce929190615030565b5060028201816002019080546117e3906159c8565b6117ee929190615030565b505050600c820181600c01600082018160000190805461180d906159c8565b611818929190615030565b5060018201548160010155600282015481600201556003820181600301908054611841906159c8565b61184c929190615030565b50505060108201816010016000820160009054906101000a900473ffffffffffffffffffffffffffffffffffffffff168160000160006101000a81548173ffffffffffffffffffffffffffffffffffffffff021916908373ffffffffffffffffffffffffffffffffffffffff16021790555060018201816001019080546118d2906159c8565b6118dd929190615030565b5060028201816002019080546118f2906159c8565b6118fd929190615030565b5050506013820160009054906101000a900473ffffffffffffffffffffffffffffffffffffffff168160130160006101000a81548173ffffffffffffffffffffffffffffffffffffffff021916908373ffffffffffffffffffffffffffffffffffffffff160217905550601482018160140190805461197b906159c8565b611986929190615030565b5050507fa22971300ba7d9ca2113cf57c3238cde86a32cfba0c31a13ad86a23bde3facf2856040516119b891906156d5565b60405180910390a15050505050565b600060046000838152602001908152602001600020600001805490509050919050565b600073ffffffffffffffffffffffffffffffffffffffff168173ffffffffffffffffffffffffffffffffffffffff161415611a2457600080fd5b611a2d816145f5565b15611a3757600080fd5b6001600560008373ffffffffffffffffffffffffffffffffffffffff1673ffffffffffffffffffffffffffffffffffffffff16815260200190815260200160002060000160036101000a81548160ff02191690831515021790555050565b600073ffffffffffffffffffffffffffffffffffffffff168173ffffffffffffffffffffffffffffffffffffffff161415611acf57600080fd5b611ad881614563565b15611ae257600080fd5b6001600560008373ffffffffffffffffffffffffffffffffffffffff1673ffffffffffffffffffffffffffffffffffffffff16815260200190815260200160002060000160016101000a81548160ff02191690831515021790555050565b60008073ffffffffffffffffffffffffffffffffffffffff168273ffffffffffffffffffffffffffffffffffffffff161415611b7b57600080fd5b600560008373ffffffffffffffffffffffffffffffffffffffff1673ffffffffffffffffffffffffffffffffffffffff16815260200190815260200160002060000160009054906101000a900460ff169050919050565b6000806000806060806060806000600360008d8152602001908152602001600020600001541415611c0257600080fd5b6000600360008d815260200190815260200160002090506040518060400160405280600781526020017f70726f6475637400000000000000000000000000000000000000000000000000815250805190602001208b805190602001201415611c7a57600360008d815260200190815260200160002090505b6040518060400160405280600781526020017f686973746f727900000000000000000000000000000000000000000000000000815250805190602001208b805190602001201415611cfe57600460008d81526020019081526020016000206000018a81548110611ced57611cec615b01565b5b906000526020600020906015020190505b806000015481600101548260020160009054906101000a900473ffffffffffffffffffffffffffffffffffffffff168360030160000160009054906101000a900473ffffffffffffffffffffffffffffffffffffffff1684600301600101856003016002018660030160030187600301600401838054611d7d906159c8565b80601f0160208091040260200160405190810160405280929190818152602001828054611da9906159c8565b8015611df65780601f10611dcb57610100808354040283529160200191611df6565b820191906000526020600020905b815481529060010190602001808311611dd957829003601f168201915b50505050509350828054611e09906159c8565b80601f0160208091040260200160405190810160405280929190818152602001828054611e35906159c8565b8015611e825780601f10611e5757610100808354040283529160200191611e82565b820191906000526020600020905b815481529060010190602001808311611e6557829003601f168201915b50505050509250818054611e95906159c8565b80601f0160208091040260200160405190810160405280929190818152602001828054611ec1906159c8565b8015611f0e5780601f10611ee357610100808354040283529160200191611f0e565b820191906000526020600020905b815481529060010190602001808311611ef157829003601f168201915b50505050509150808054611f21906159c8565b80601f0160208091040260200160405190810160405280929190818152602001828054611f4d906159c8565b8015611f9a5780601f10611f6f57610100808354040283529160200191611f9a565b820191906000526020600020905b815481529060010190602001808311611f7d57829003601f168201915b5050505050905098509850985098509850985098509850509397509397509397509397565b8060066008811115611fd457611fd3615aa3565b5b6003600083815260200190815260200160002060020160149054906101000a900460ff16600881111561200a57612009615aa3565b5b1461201457600080fd5b6003600083815260200190815260200160002060020160009054906101000a900473ffffffffffffffffffffffffffffffffffffffff168073ffffffffffffffffffffffffffffffffffffffff163373ffffffffffffffffffffffffffffffffffffffff161461208357600080fd5b6003600084815260200190815260200160002060100160000160009054906101000a900473ffffffffffffffffffffffffffffffffffffffff168073ffffffffffffffffffffffffffffffffffffffff163373ffffffffffffffffffffffffffffffffffffffff16146120f557600080fd5b6120fe336145f5565b61210757600080fd5b60076003600086815260200190815260200160002060020160146101000a81548160ff0219169083600881111561214157612140615aa3565b5b02179055506004600085815260200190815260200160002060000160036000868152602001908152602001600020908060018154018082558091505060019003906000526020600020906015020160009091909190915060008201548160000155600182015481600101556002820160009054906101000a900473ffffffffffffffffffffffffffffffffffffffff168160020160006101000a81548173ffffffffffffffffffffffffffffffffffffffff021916908373ffffffffffffffffffffffffffffffffffffffff1602179055506002820160149054906101000a900460ff168160020160146101000a81548160ff0219169083600881111561224b5761224a615aa3565b5b021790555060038201816003016000820160009054906101000a900473ffffffffffffffffffffffffffffffffffffffff168160000160006101000a81548173ffffffffffffffffffffffffffffffffffffffff021916908373ffffffffffffffffffffffffffffffffffffffff16021790555060018201816001019080546122d3906159c8565b6122de929190615030565b5060028201816002019080546122f3906159c8565b6122fe929190615030565b506003820181600301908054612313906159c8565b61231e929190615030565b506004820181600401908054612333906159c8565b61233e929190615030565b5060058201548160050155505060098201816009016000820160009054906101000a900473ffffffffffffffffffffffffffffffffffffffff168160000160006101000a81548173ffffffffffffffffffffffffffffffffffffffff021916908373ffffffffffffffffffffffffffffffffffffffff16021790555060018201816001019080546123ce906159c8565b6123d9929190615030565b5060028201816002019080546123ee906159c8565b6123f9929190615030565b505050600c820181600c016000820181600001908054612418906159c8565b612423929190615030565b506001820154816001015560028201548160020155600382018160030190805461244c906159c8565b612457929190615030565b50505060108201816010016000820160009054906101000a900473ffffffffffffffffffffffffffffffffffffffff168160000160006101000a81548173ffffffffffffffffffffffffffffffffffffffff021916908373ffffffffffffffffffffffffffffffffffffffff16021790555060018201816001019080546124dd906159c8565b6124e8929190615030565b5060028201816002019080546124fd906159c8565b612508929190615030565b5050506013820160009054906101000a900473ffffffffffffffffffffffffffffffffffffffff168160130160006101000a81548173ffffffffffffffffffffffffffffffffffffffff021916908373ffffffffffffffffffffffffffffffffffffffff1602179055506014820181601401908054612586906159c8565b612591929190615030565b5050507f9a96442e96ac96ba57e48273f290bf3bb9c6b0b2c86843cc4bf2353119918fdf846040516125c391906156d5565b60405180910390a150505050565b60006060600080606060008060606000600360008d815260200190815260200160002060000154141561260357600080fd5b6000600360008d815260200190815260200160002090506040518060400160405280600781526020017f70726f6475637400000000000000000000000000000000000000000000000000815250805190602001208b80519060200120141561267b57600360008d815260200190815260200160002090505b6040518060400160405280600781526020017f686973746f727900000000000000000000000000000000000000000000000000815250805190602001208b8051906020012014156126ff57600460008d81526020019081526020016000206000018a815481106126ee576126ed615b01565b5b906000526020600020906015020190505b806003016005015481600c0160000182600c016001015483600c016002015484600c016003018560020160149054906101000a900460ff168660090160000160009054906101000a900473ffffffffffffffffffffffffffffffffffffffff1687600901600101868054612772906159c8565b80601f016020809104026020016040519081016040528092919081815260200182805461279e906159c8565b80156127eb5780601f106127c0576101008083540402835291602001916127eb565b820191906000526020600020905b8154815290600101906020018083116127ce57829003601f168201915b505050505096508380546127fe906159c8565b80601f016020809104026020016040519081016040528092919081815260200182805461282a906159c8565b80156128775780601f1061284c57610100808354040283529160200191612877565b820191906000526020600020905b81548152906001019060200180831161285a57829003601f168201915b5050505050935080805461288a906159c8565b80601f01602080910402602001604051908101604052809291908181526020018280546128b6906159c8565b80156129035780601f106128d857610100808354040283529160200191612903565b820191906000526020600020905b8154815290600101906020018083116128e657829003601f168201915b5050505050905098509850985098509850985098509850509397509397509397509397565b806003600881111561293d5761293c615aa3565b5b6003600083815260200190815260200160002060020160149054906101000a900460ff16600881111561297357612972615aa3565b5b1461297d57600080fd5b61298633610d95565b61298f57600080fd5b336003600084815260200190815260200160002060130160006101000a81548173ffffffffffffffffffffffffffffffffffffffff021916908373ffffffffffffffffffffffffffffffffffffffff16021790555060046003600084815260200190815260200160002060020160146101000a81548160ff02191690836008811115612a1e57612a1d615aa3565b5b02179055506004600083815260200190815260200160002060000160036000848152602001908152602001600020908060018154018082558091505060019003906000526020600020906015020160009091909190915060008201548160000155600182015481600101556002820160009054906101000a900473ffffffffffffffffffffffffffffffffffffffff168160020160006101000a81548173ffffffffffffffffffffffffffffffffffffffff021916908373ffffffffffffffffffffffffffffffffffffffff1602179055506002820160149054906101000a900460ff168160020160146101000a81548160ff02191690836008811115612b2857612b27615aa3565b5b021790555060038201816003016000820160009054906101000a900473ffffffffffffffffffffffffffffffffffffffff168160000160006101000a81548173ffffffffffffffffffffffffffffffffffffffff021916908373ffffffffffffffffffffffffffffffffffffffff1602179055506001820181600101908054612bb0906159c8565b612bbb929190615030565b506002820181600201908054612bd0906159c8565b612bdb929190615030565b506003820181600301908054612bf0906159c8565b612bfb929190615030565b506004820181600401908054612c10906159c8565b612c1b929190615030565b5060058201548160050155505060098201816009016000820160009054906101000a900473ffffffffffffffffffffffffffffffffffffffff168160000160006101000a81548173ffffffffffffffffffffffffffffffffffffffff021916908373ffffffffffffffffffffffffffffffffffffffff1602179055506001820181600101908054612cab906159c8565b612cb6929190615030565b506002820181600201908054612ccb906159c8565b612cd6929190615030565b505050600c820181600c016000820181600001908054612cf5906159c8565b612d00929190615030565b5060018201548160010155600282015481600201556003820181600301908054612d29906159c8565b612d34929190615030565b50505060108201816010016000820160009054906101000a900473ffffffffffffffffffffffffffffffffffffffff168160000160006101000a81548173ffffffffffffffffffffffffffffffffffffffff021916908373ffffffffffffffffffffffffffffffffffffffff1602179055506001820181600101908054612dba906159c8565b612dc5929190615030565b506002820181600201908054612dda906159c8565b612de5929190615030565b5050506013820160009054906101000a900473ffffffffffffffffffffffffffffffffffffffff168160130160006101000a81548173ffffffffffffffffffffffffffffffffffffffff021916908373ffffffffffffffffffffffffffffffffffffffff1602179055506014820181601401908054612e63906159c8565b612e6e929190615030565b5050507ffd054e59d299873fab61a3c67d86d3a139b75dcd5cd82894d8983fc5e2669c8282604051612ea091906156d5565b60405180910390a15050565b8060076008811115612ec157612ec0615aa3565b5b6003600083815260200190815260200160002060020160149054906101000a900460ff166008811115612ef757612ef6615aa3565b5b14612f0157600080fd5b6003600083815260200190815260200160002060130160009054906101000a900473ffffffffffffffffffffffffffffffffffffffff168073ffffffffffffffffffffffffffffffffffffffff163373ffffffffffffffffffffffffffffffffffffffff1614612f7057600080fd5b612f7933610d95565b612f8257600080fd5b336003600085815260200190815260200160002060020160006101000a81548173ffffffffffffffffffffffffffffffffffffffff021916908373ffffffffffffffffffffffffffffffffffffffff16021790555060086003600085815260200190815260200160002060020160146101000a81548160ff0219169083600881111561301157613010615aa3565b5b02179055506004600084815260200190815260200160002060000160036000858152602001908152602001600020908060018154018082558091505060019003906000526020600020906015020160009091909190915060008201548160000155600182015481600101556002820160009054906101000a900473ffffffffffffffffffffffffffffffffffffffff168160020160006101000a81548173ffffffffffffffffffffffffffffffffffffffff021916908373ffffffffffffffffffffffffffffffffffffffff1602179055506002820160149054906101000a900460ff168160020160146101000a81548160ff0219169083600881111561311b5761311a615aa3565b5b021790555060038201816003016000820160009054906101000a900473ffffffffffffffffffffffffffffffffffffffff168160000160006101000a81548173ffffffffffffffffffffffffffffffffffffffff021916908373ffffffffffffffffffffffffffffffffffffffff16021790555060018201816001019080546131a3906159c8565b6131ae929190615030565b5060028201816002019080546131c3906159c8565b6131ce929190615030565b5060038201816003019080546131e3906159c8565b6131ee929190615030565b506004820181600401908054613203906159c8565b61320e929190615030565b5060058201548160050155505060098201816009016000820160009054906101000a900473ffffffffffffffffffffffffffffffffffffffff168160000160006101000a81548173ffffffffffffffffffffffffffffffffffffffff021916908373ffffffffffffffffffffffffffffffffffffffff160217905550600182018160010190805461329e906159c8565b6132a9929190615030565b5060028201816002019080546132be906159c8565b6132c9929190615030565b505050600c820181600c0160008201816000019080546132e8906159c8565b6132f3929190615030565b506001820154816001015560028201548160020155600382018160030190805461331c906159c8565b613327929190615030565b50505060108201816010016000820160009054906101000a900473ffffffffffffffffffffffffffffffffffffffff168160000160006101000a81548173ffffffffffffffffffffffffffffffffffffffff021916908373ffffffffffffffffffffffffffffffffffffffff16021790555060018201816001019080546133ad906159c8565b6133b8929190615030565b5060028201816002019080546133cd906159c8565b6133d8929190615030565b5050506013820160009054906101000a900473ffffffffffffffffffffffffffffffffffffffff168160130160006101000a81548173ffffffffffffffffffffffffffffffffffffffff021916908373ffffffffffffffffffffffffffffffffffffffff1602179055506014820181601401908054613456906159c8565b613461929190615030565b5050507f8a746d5b91a9a334d1abbeee7d031aac6d5c59ea6e982ac06aef4346cce5749e8360405161349391906156d5565b60405180910390a1505050565b600060046000848152602001908152602001600020600001600160046000868152602001908152602001600020600001805490506134de91906158e5565b815481106134ef576134ee615b01565b5b9060005260206000209060150201905081816014019080519060200190613517929190614faa565b50505050565b600073ffffffffffffffffffffffffffffffffffffffff168173ffffffffffffffffffffffffffffffffffffffff16141561355757600080fd5b61356081611b40565b1561356a57600080fd5b6001600560008373ffffffffffffffffffffffffffffffffffffffff1673ffffffffffffffffffffffffffffffffffffffff16815260200190815260200160002060000160006101000a81548160ff02191690831515021790555050565b82600560088111156135dd576135dc615aa3565b5b6003600083815260200190815260200160002060020160149054906101000a900460ff16600881111561361357613612615aa3565b5b1461361d57600080fd5b613626336145f5565b61362f57600080fd5b336003600086815260200190815260200160002060020160006101000a81548173ffffffffffffffffffffffffffffffffffffffff021916908373ffffffffffffffffffffffffffffffffffffffff160217905550336003600086815260200190815260200160002060100160000160006101000a81548173ffffffffffffffffffffffffffffffffffffffff021916908373ffffffffffffffffffffffffffffffffffffffff16021790555082600360008681526020019081526020016000206010016001019080519060200190613709929190614faa565b5081600360008681526020019081526020016000206010016002019080519060200190613737929190614faa565b5060066003600086815260200190815260200160002060020160146101000a81548160ff0219169083600881111561377257613771615aa3565b5b02179055506004600085815260200190815260200160002060000160036000868152602001908152602001600020908060018154018082558091505060019003906000526020600020906015020160009091909190915060008201548160000155600182015481600101556002820160009054906101000a900473ffffffffffffffffffffffffffffffffffffffff168160020160006101000a81548173ffffffffffffffffffffffffffffffffffffffff021916908373ffffffffffffffffffffffffffffffffffffffff1602179055506002820160149054906101000a900460ff168160020160146101000a81548160ff0219169083600881111561387c5761387b615aa3565b5b021790555060038201816003016000820160009054906101000a900473ffffffffffffffffffffffffffffffffffffffff168160000160006101000a81548173ffffffffffffffffffffffffffffffffffffffff021916908373ffffffffffffffffffffffffffffffffffffffff1602179055506001820181600101908054613904906159c8565b61390f929190615030565b506002820181600201908054613924906159c8565b61392f929190615030565b506003820181600301908054613944906159c8565b61394f929190615030565b506004820181600401908054613964906159c8565b61396f929190615030565b5060058201548160050155505060098201816009016000820160009054906101000a900473ffffffffffffffffffffffffffffffffffffffff168160000160006101000a81548173ffffffffffffffffffffffffffffffffffffffff021916908373ffffffffffffffffffffffffffffffffffffffff16021790555060018201816001019080546139ff906159c8565b613a0a929190615030565b506002820181600201908054613a1f906159c8565b613a2a929190615030565b505050600c820181600c016000820181600001908054613a49906159c8565b613a54929190615030565b5060018201548160010155600282015481600201556003820181600301908054613a7d906159c8565b613a88929190615030565b50505060108201816010016000820160009054906101000a900473ffffffffffffffffffffffffffffffffffffffff168160000160006101000a81548173ffffffffffffffffffffffffffffffffffffffff021916908373ffffffffffffffffffffffffffffffffffffffff1602179055506001820181600101908054613b0e906159c8565b613b19929190615030565b506002820181600201908054613b2e906159c8565b613b39929190615030565b5050506013820160009054906101000a900473ffffffffffffffffffffffffffffffffffffffff168160130160006101000a81548173ffffffffffffffffffffffffffffffffffffffff021916908373ffffffffffffffffffffffffffffffffffffffff1602179055506014820181601401908054613bb7906159c8565b613bc2929190615030565b5050507fb6589947d486bf61c31a4e6d2e81d4d2c93e7832fdda27f2492009b4755c29ed84604051613bf491906156d5565b60405180910390a150505050565b60606000606080600060606000600360008b8152602001908152602001600020600001541415613c3157600080fd5b6000600360008b815260200190815260200160002090506040518060400160405280600781526020017f70726f64756374000000000000000000000000000000000000000000000000008152508051906020012089805190602001201415613ca957600360008b815260200190815260200160002090505b6040518060400160405280600781526020017f686973746f7279000000000000000000000000000000000000000000000000008152508051906020012089805190602001201415613d2d57600460008b81526020019081526020016000206000018881548110613d1c57613d1b615b01565b5b906000526020600020906015020190505b806009016002018160100160000160009054906101000a900473ffffffffffffffffffffffffffffffffffffffff1682601001600101836010016002018460130160009054906101000a900473ffffffffffffffffffffffffffffffffffffffff1685601401858054613d9f906159c8565b80601f0160208091040260200160405190810160405280929190818152602001828054613dcb906159c8565b8015613e185780601f10613ded57610100808354040283529160200191613e18565b820191906000526020600020905b815481529060010190602001808311613dfb57829003601f168201915b50505050509550838054613e2b906159c8565b80601f0160208091040260200160405190810160405280929190818152602001828054613e57906159c8565b8015613ea45780601f10613e7957610100808354040283529160200191613ea4565b820191906000526020600020905b815481529060010190602001808311613e8757829003601f168201915b50505050509350828054613eb7906159c8565b80601f0160208091040260200160405190810160405280929190818152602001828054613ee3906159c8565b8015613f305780601f10613f0557610100808354040283529160200191613f30565b820191906000526020600020905b815481529060010190602001808311613f1357829003601f168201915b50505050509250808054613f43906159c8565b80601f0160208091040260200160405190810160405280929190818152602001828054613f6f906159c8565b8015613fbc5780601f10613f9157610100808354040283529160200191613fbc565b820191906000526020600020905b815481529060010190602001808311613f9f57829003601f168201915b505050505090509650965096509650965096505093975093979195509350565b8060006008811115613ff157613ff0615aa3565b5b6003600083815260200190815260200160002060020160149054906101000a900460ff16600881111561402757614026615aa3565b5b1461403157600080fd5b61403a33614563565b61404357600080fd5b336003600084815260200190815260200160002060090160000160006101000a81548173ffffffffffffffffffffffffffffffffffffffff021916908373ffffffffffffffffffffffffffffffffffffffff16021790555060016003600084815260200190815260200160002060020160146101000a81548160ff021916908360088111156140d5576140d4615aa3565b5b02179055506004600083815260200190815260200160002060000160036000848152602001908152602001600020908060018154018082558091505060019003906000526020600020906015020160009091909190915060008201548160000155600182015481600101556002820160009054906101000a900473ffffffffffffffffffffffffffffffffffffffff168160020160006101000a81548173ffffffffffffffffffffffffffffffffffffffff021916908373ffffffffffffffffffffffffffffffffffffffff1602179055506002820160149054906101000a900460ff168160020160146101000a81548160ff021916908360088111156141df576141de615aa3565b5b021790555060038201816003016000820160009054906101000a900473ffffffffffffffffffffffffffffffffffffffff168160000160006101000a81548173ffffffffffffffffffffffffffffffffffffffff021916908373ffffffffffffffffffffffffffffffffffffffff1602179055506001820181600101908054614267906159c8565b614272929190615030565b506002820181600201908054614287906159c8565b614292929190615030565b5060038201816003019080546142a7906159c8565b6142b2929190615030565b5060048201816004019080546142c7906159c8565b6142d2929190615030565b5060058201548160050155505060098201816009016000820160009054906101000a900473ffffffffffffffffffffffffffffffffffffffff168160000160006101000a81548173ffffffffffffffffffffffffffffffffffffffff021916908373ffffffffffffffffffffffffffffffffffffffff1602179055506001820181600101908054614362906159c8565b61436d929190615030565b506002820181600201908054614382906159c8565b61438d929190615030565b505050600c820181600c0160008201816000019080546143ac906159c8565b6143b7929190615030565b50600182015481600101556002820154816002015560038201816003019080546143e0906159c8565b6143eb929190615030565b50505060108201816010016000820160009054906101000a900473ffffffffffffffffffffffffffffffffffffffff168160000160006101000a81548173ffffffffffffffffffffffffffffffffffffffff021916908373ffffffffffffffffffffffffffffffffffffffff1602179055506001820181600101908054614471906159c8565b61447c929190615030565b506002820181600201908054614491906159c8565b61449c929190615030565b5050506013820160009054906101000a900473ffffffffffffffffffffffffffffffffffffffff168160130160006101000a81548173ffffffffffffffffffffffffffffffffffffffff021916908373ffffffffffffffffffffffffffffffffffffffff160217905550601482018160140190805461451a906159c8565b614525929190615030565b5050507f112c8adc962c1de46b0ae9499cd428dc90feb4c13a4df0c69d7e5e27ab34ae878260405161455791906156d5565b60405180910390a15050565b60008073ffffffffffffffffffffffffffffffffffffffff168273ffffffffffffffffffffffffffffffffffffffff16141561459e57600080fd5b600560008373ffffffffffffffffffffffffffffffffffffffff1673ffffffffffffffffffffffffffffffffffffffff16815260200190815260200160002060000160019054906101000a900460ff169050919050565b60008073ffffffffffffffffffffffffffffffffffffffff168273ffffffffffffffffffffffffffffffffffffffff16141561463057600080fd5b600560008373ffffffffffffffffffffffffffffffffffffffff1673ffffffffffffffffffffffffffffffffffffffff16815260200190815260200160002060000160029054906101000a900460ff169050919050565b60006003600083815260200190815260200160002060020160149054906101000a900460ff169050919050565b806004600060016000546146c891906158e5565b815260200190815260200160002060000160016004600060016000546146ee91906158e5565b81526020019081526020016000206000018054905061470d91906158e5565b8154811061471e5761471d615b01565b5b90600052602060002090601502016014019080519060200190614742929190614faa565b5050565b6003600082815260200190815260200160002060020160009054906101000a900473ffffffffffffffffffffffffffffffffffffffff168073ffffffffffffffffffffffffffffffffffffffff163373ffffffffffffffffffffffffffffffffffffffff16146147b557600080fd5b6003600083815260200190815260200160002060090160000160009054906101000a900473ffffffffffffffffffffffffffffffffffffffff168073ffffffffffffffffffffffffffffffffffffffff163373ffffffffffffffffffffffffffffffffffffffff161461482757600080fd5b61483033614563565b61483957600080fd5b60056003600085815260200190815260200160002060020160146101000a81548160ff0219169083600881111561487357614872615aa3565b5b02179055506004600084815260200190815260200160002060000160036000858152602001908152602001600020908060018154018082558091505060019003906000526020600020906015020160009091909190915060008201548160000155600182015481600101556002820160009054906101000a900473ffffffffffffffffffffffffffffffffffffffff168160020160006101000a81548173ffffffffffffffffffffffffffffffffffffffff021916908373ffffffffffffffffffffffffffffffffffffffff1602179055506002820160149054906101000a900460ff168160020160146101000a81548160ff0219169083600881111561497d5761497c615aa3565b5b021790555060038201816003016000820160009054906101000a900473ffffffffffffffffffffffffffffffffffffffff168160000160006101000a81548173ffffffffffffffffffffffffffffffffffffffff021916908373ffffffffffffffffffffffffffffffffffffffff1602179055506001820181600101908054614a05906159c8565b614a10929190615030565b506002820181600201908054614a25906159c8565b614a30929190615030565b506003820181600301908054614a45906159c8565b614a50929190615030565b506004820181600401908054614a65906159c8565b614a70929190615030565b5060058201548160050155505060098201816009016000820160009054906101000a900473ffffffffffffffffffffffffffffffffffffffff168160000160006101000a81548173ffffffffffffffffffffffffffffffffffffffff021916908373ffffffffffffffffffffffffffffffffffffffff1602179055506001820181600101908054614b00906159c8565b614b0b929190615030565b506002820181600201908054614b20906159c8565b614b2b929190615030565b505050600c820181600c016000820181600001908054614b4a906159c8565b614b55929190615030565b5060018201548160010155600282015481600201556003820181600301908054614b7e906159c8565b614b89929190615030565b50505060108201816010016000820160009054906101000a900473ffffffffffffffffffffffffffffffffffffffff168160000160006101000a81548173ffffffffffffffffffffffffffffffffffffffff021916908373ffffffffffffffffffffffffffffffffffffffff1602179055506001820181600101908054614c0f906159c8565b614c1a929190615030565b506002820181600201908054614c2f906159c8565b614c3a929190615030565b5050506013820160009054906101000a900473ffffffffffffffffffffffffffffffffffffffff168160130160006101000a81548173ffffffffffffffffffffffffffffffffffffffff021916908373ffffffffffffffffffffffffffffffffffffffff1602179055506014820181601401908054614cb8906159c8565b614cc3929190615030565b5050507ff2452d569e5bc407d222a6bcad7d4bb8bac5fae64ce52fa183bd77e34e0cc14783604051614cf591906156d5565b60405180910390a1505050565b60008054905090565b600073ffffffffffffffffffffffffffffffffffffffff168173ffffffffffffffffffffffffffffffffffffffff161415614d4557600080fd5b614d4e816145f5565b15614d5857600080fd5b6001600560008373ffffffffffffffffffffffffffffffffffffffff1673ffffffffffffffffffffffffffffffffffffffff16815260200190815260200160002060000160026101000a81548160ff02191690831515021790555050565b60005481565b6000606080606060006060806000878960a001516000019073ffffffffffffffffffffffffffffffffffffffff16908173ffffffffffffffffffffffffffffffffffffffff1681525050858960a0015160200181905250848960a0015160400181905250838960e001516000019073ffffffffffffffffffffffffffffffffffffffff16908173ffffffffffffffffffffffffffffffffffffffff1681525050828960e0015160200181905250818960e00151604001819052508089610100019073ffffffffffffffffffffffffffffffffffffffff16908173ffffffffffffffffffffffffffffffffffffffff168152505086896101200181905250505050505050505050565b838560c0015160000181905250828560c001516020018181525050818560c001516040018181525050808560c00151606001819052505050505050565b6040518061014001604052806000815260200160008152602001600073ffffffffffffffffffffffffffffffffffffffff16815260200160006008811115614f4c57614f4b615aa3565b5b8152602001614f596150bd565b8152602001614f66615109565b8152602001614f73615140565b8152602001614f80615168565b8152602001600073ffffffffffffffffffffffffffffffffffffffff168152602001606081525090565b828054614fb6906159c8565b90600052602060002090601f016020900481019282614fd8576000855561501f565b82601f10614ff157805160ff191683800117855561501f565b8280016001018555821561501f579182015b8281111561501e578251825591602001919060010190615003565b5b50905061502c919061519f565b5090565b82805461503c906159c8565b90600052602060002090601f01602090048101928261505e57600085556150ac565b82601f1061506f57805485556150ac565b828001600101855582156150ac57600052602060002091601f016020900482015b828111156150ab578254825591600101919060010190615090565b5b5090506150b9919061519f565b5090565b6040518060c00160405280600073ffffffffffffffffffffffffffffffffffffffff16815260200160608152602001606081526020016060815260200160608152602001600081525090565b6040518060600160405280600073ffffffffffffffffffffffffffffffffffffffff16815260200160608152602001606081525090565b6040518060800160405280606081526020016000815260200160008152602001606081525090565b6040518060600160405280600073ffffffffffffffffffffffffffffffffffffffff16815260200160608152602001606081525090565b5b808211156151b85760008160009055506001016151a0565b5090565b60006151cf6151ca84615842565b61581d565b9050828152602081018484840111156151eb576151ea615b64565b5b6151f6848285615986565b509392505050565b60008135905061520d81615b98565b92915050565b600082601f83011261522857615227615b5f565b5b81356152388482602086016151bc565b91505092915050565b60008135905061525081615baf565b92915050565b60006020828403121561526c5761526b615b6e565b5b600061527a848285016151fe565b91505092915050565b60006020828403121561529957615298615b6e565b5b600082013567ffffffffffffffff8111156152b7576152b6615b69565b5b6152c384828501615213565b91505092915050565b600080600080600080600080610100898b0312156152ed576152ec615b6e565b5b600089013567ffffffffffffffff81111561530b5761530a615b69565b5b6153178b828c01615213565b985050602089013567ffffffffffffffff81111561533857615337615b69565b5b6153448b828c01615213565b975050604089013567ffffffffffffffff81111561536557615364615b69565b5b6153718b828c01615213565b965050606089013567ffffffffffffffff81111561539257615391615b69565b5b61539e8b828c01615213565b955050608089013567ffffffffffffffff8111156153bf576153be615b69565b5b6153cb8b828c01615213565b94505060a06153dc8b828c01615241565b93505060c06153ed8b828c01615241565b92505060e089013567ffffffffffffffff81111561540e5761540d615b69565b5b61541a8b828c01615213565b9150509295985092959890939650565b6000602082840312156154405761543f615b6e565b5b600061544e84828501615241565b91505092915050565b6000806040838503121561546e5761546d615b6e565b5b600061547c85828601615241565b925050602083013567ffffffffffffffff81111561549d5761549c615b69565b5b6154a985828601615213565b9150509250929050565b6000806000606084860312156154cc576154cb615b6e565b5b60006154da86828701615241565b935050602084013567ffffffffffffffff8111156154fb576154fa615b69565b5b61550786828701615213565b925050604084013567ffffffffffffffff81111561552857615527615b69565b5b61553486828701615213565b9150509250925092565b60008060006060848603121561555757615556615b6e565b5b600061556586828701615241565b935050602084013567ffffffffffffffff81111561558657615585615b69565b5b61559286828701615213565b92505060406155a386828701615241565b9150509250925092565b6155b681615919565b82525050565b6155c58161592b565b82525050565b6155d481615974565b82525050565b60006155e582615873565b6155ef818561587e565b93506155ff818560208601615995565b61560881615b73565b840191505092915050565b61561c8161596a565b82525050565b600060208201905061563760008301846155bc565b92915050565b600060208201905061565260008301846155cb565b92915050565b600060c082019050818103600083015261567281896155da565b905061568160208301886155ad565b818103604083015261569381876155da565b905081810360608301526156a781866155da565b90506156b660808301856155ad565b81810360a08301526156c881846155da565b9050979650505050505050565b60006020820190506156ea6000830184615613565b92915050565b600061010082019050615706600083018b615613565b8181036020830152615718818a6155da565b90506157276040830189615613565b6157346060830188615613565b818103608083015261574681876155da565b905061575560a08301866155cb565b61576260c08301856155ad565b81810360e083015261577481846155da565b90509998505050505050505050565b600061010082019050615799600083018b615613565b6157a6602083018a615613565b6157b360408301896155ad565b6157c060608301886155ad565b81810360808301526157d281876155da565b905081810360a08301526157e681866155da565b905081810360c08301526157fa81856155da565b905081810360e083015261580e81846155da565b90509998505050505050505050565b6000615827615838565b905061583382826159fa565b919050565b6000604051905090565b600067ffffffffffffffff82111561585d5761585c615b30565b5b61586682615b73565b9050602081019050919050565b600081519050919050565b600082825260208201905092915050565b600061589a8261596a565b91506158a58361596a565b9250827fffffffffffffffffffffffffffffffffffffffffffffffffffffffffffffffff038211156158da576158d9615a74565b5b828201905092915050565b60006158f08261596a565b91506158fb8361596a565b92508282101561590e5761590d615a74565b5b828203905092915050565b60006159248261594a565b9050919050565b60008115159050919050565b600081905061594582615b84565b919050565b600073ffffffffffffffffffffffffffffffffffffffff82169050919050565b6000819050919050565b600061597f82615937565b9050919050565b82818337600083830152505050565b60005b838110156159b3578082015181840152602081019050615998565b838111156159c2576000848401525b50505050565b600060028204905060018216806159e057607f821691505b602082108114156159f4576159f3615ad2565b5b50919050565b615a0382615b73565b810181811067ffffffffffffffff82111715615a2257615a21615b30565b5b80604052505050565b6000615a368261596a565b91507fffffffffffffffffffffffffffffffffffffffffffffffffffffffffffffffff821415615a6957615a68615a74565b5b600182019050919050565b7f4e487b7100000000000000000000000000000000000000000000000000000000600052601160045260246000fd5b7f4e487b7100000000000000000000000000000000000000000000000000000000600052602160045260246000fd5b7f4e487b7100000000000000000000000000000000000000000000000000000000600052602260045260246000fd5b7f4e487b7100000000000000000000000000000000000000000000000000000000600052603260045260246000fd5b7f4e487b7100000000000000000000000000000000000000000000000000000000600052604160045260246000fd5b600080fd5b600080fd5b600080fd5b600080fd5b6000601f19601f8301169050919050565b60098110615b9557615b94615aa3565b5b50565b615ba181615919565b8114615bac57600080fd5b50565b615bb88161596a565b8114615bc357600080fd5b5056fea2646970667358221220ced1fd2cf8d9048741b093f2f40c8aed1ea5411f7b11b6ddf62c1079aca8335664736f6c63430008070033","opcodes":"PUSH1 0x80 PUSH1 0x40 MSTORE CALLER PUSH1 0x2 PUSH1 0x0 PUSH2 0x100 EXP DUP2 SLOAD DUP2 PUSH20 0xFFFFFFFFFFFFFFFFFFFFFFFFFFFFFFFFFFFFFFFF MUL NOT AND SWAP1 DUP4 PUSH20 0xFFFFFFFFFFFFFFFFFFFFFFFFFFFFFFFFFFFFFFFF AND MUL OR SWAP1 SSTORE POP PUSH1 0x1 DUP1 DUP2 SWAP1 SSTORE POP PUSH1 0x1 PUSH1 0x0 DUP2 SWAP1 SSTORE POP PUSH2 0x5BFC DUP1 PUSH2 0x63 PUSH1 0x0 CODECOPY PUSH1 0x0 RETURN INVALID PUSH1 0x80 PUSH1 0x40 MSTORE CALLVALUE DUP1 ISZERO PUSH2 0x10 JUMPI PUSH1 0x0 DUP1 REVERT JUMPDEST POP PUSH1 0x4 CALLDATASIZE LT PUSH2 0x18D JUMPI PUSH1 0x0 CALLDATALOAD PUSH1 0xE0 SHR DUP1 PUSH4 0x786EA161 GT PUSH2 0xDE JUMPI DUP1 PUSH4 0xD44BEBCC GT PUSH2 0x97 JUMPI DUP1 PUSH4 0xEE707C1E GT PUSH2 0x71 JUMPI DUP1 PUSH4 0xEE707C1E EQ PUSH2 0x4C1 JUMPI DUP1 PUSH4 0xF16791B3 EQ PUSH2 0x4DD JUMPI DUP1 PUSH4 0xF4121B67 EQ PUSH2 0x4FB JUMPI DUP1 PUSH4 0xF514CE36 EQ PUSH2 0x517 JUMPI PUSH2 0x18D JUMP JUMPDEST DUP1 PUSH4 0xD44BEBCC EQ PUSH2 0x445 JUMPI DUP1 PUSH4 0xE2F1FE14 EQ PUSH2 0x475 JUMPI DUP1 PUSH4 0xE55128EA EQ PUSH2 0x4A5 JUMPI PUSH2 0x18D JUMP JUMPDEST DUP1 PUSH4 0x786EA161 EQ PUSH2 0x370 JUMPI DUP1 PUSH4 0x8290F859 EQ PUSH2 0x38C JUMPI DUP1 PUSH4 0x8EEE90EA EQ PUSH2 0x3A8 JUMPI DUP1 PUSH4 0x98C95889 EQ PUSH2 0x3C4 JUMPI DUP1 PUSH4 0xB843BDEE EQ PUSH2 0x3F9 JUMPI DUP1 PUSH4 0xCD2885E0 EQ PUSH2 0x415 JUMPI PUSH2 0x18D JUMP JUMPDEST DUP1 PUSH4 0x5212E510 GT PUSH2 0x14B JUMPI DUP1 PUSH4 0x6CF07E24 GT PUSH2 0x125 JUMPI DUP1 PUSH4 0x6CF07E24 EQ PUSH2 0x2E5 JUMPI DUP1 PUSH4 0x6F1FE8D7 EQ PUSH2 0x301 JUMPI DUP1 PUSH4 0x7217EB2E EQ PUSH2 0x338 JUMPI DUP1 PUSH4 0x72DF397E EQ PUSH2 0x354 JUMPI PUSH2 0x18D JUMP JUMPDEST DUP1 PUSH4 0x5212E510 EQ PUSH2 0x262 JUMPI DUP1 PUSH4 0x6000ADA1 EQ PUSH2 0x27E JUMPI DUP1 PUSH4 0x658DB497 EQ PUSH2 0x2AE JUMPI PUSH2 0x18D JUMP JUMPDEST DUP1 PUSH3 0x3375B7 EQ PUSH2 0x192 JUMPI DUP1 PUSH4 0x24EDF9A EQ PUSH2 0x1AE JUMPI DUP1 PUSH4 0xA036E25 EQ PUSH2 0x1DE JUMPI DUP1 PUSH4 0x3334529E EQ PUSH2 0x1FA JUMPI DUP1 PUSH4 0x405BA7EF EQ PUSH2 0x216 JUMPI DUP1 PUSH4 0x453DD4AF EQ PUSH2 0x246 JUMPI JUMPDEST PUSH1 0x0 DUP1 REVERT JUMPDEST PUSH2 0x1AC PUSH1 0x4 DUP1 CALLDATASIZE SUB DUP2 ADD SWAP1 PUSH2 0x1A7 SWAP2 SWAP1 PUSH2 0x52CC JUMP JUMPDEST PUSH2 0x535 JUMP JUMPDEST STOP JUMPDEST PUSH2 0x1C8 PUSH1 0x4 DUP1 CALLDATASIZE SUB DUP2 ADD SWAP1 PUSH2 0x1C3 SWAP2 SWAP1 PUSH2 0x5256 JUMP JUMPDEST PUSH2 0xD95 JUMP JUMPDEST PUSH1 0x40 MLOAD PUSH2 0x1D5 SWAP2 SWAP1 PUSH2 0x5622 JUMP JUMPDEST PUSH1 0x40 MLOAD DUP1 SWAP2 SUB SWAP1 RETURN JUMPDEST PUSH2 0x1F8 PUSH1 0x4 DUP1 CALLDATASIZE SUB DUP2 ADD SWAP1 PUSH2 0x1F3 SWAP2 SWAP1 PUSH2 0x542A JUMP JUMPDEST PUSH2 0xE27 JUMP JUMPDEST STOP JUMPDEST PUSH2 0x214 PUSH1 0x4 DUP1 CALLDATASIZE SUB DUP2 ADD SWAP1 PUSH2 0x20F SWAP2 SWAP1 PUSH2 0x54B3 JUMP JUMPDEST PUSH2 0x1373 JUMP JUMPDEST STOP JUMPDEST PUSH2 0x230 PUSH1 0x4 DUP1 CALLDATASIZE SUB DUP2 ADD SWAP1 PUSH2 0x22B SWAP2 SWAP1 PUSH2 0x542A JUMP JUMPDEST PUSH2 0x19C7 JUMP JUMPDEST PUSH1 0x40 MLOAD PUSH2 0x23D SWAP2 SWAP1 PUSH2 0x56D5 JUMP JUMPDEST PUSH1 0x40 MLOAD DUP1 SWAP2 SUB SWAP1 RETURN JUMPDEST PUSH2 0x260 PUSH1 0x4 DUP1 CALLDATASIZE SUB DUP2 ADD SWAP1 PUSH2 0x25B SWAP2 SWAP1 PUSH2 0x5256 JUMP JUMPDEST PUSH2 0x19EA JUMP JUMPDEST STOP JUMPDEST PUSH2 0x27C PUSH1 0x4 DUP1 CALLDATASIZE SUB DUP2 ADD SWAP1 PUSH2 0x277 SWAP2 SWAP1 PUSH2 0x5256 JUMP JUMPDEST PUSH2 0x1A95 JUMP JUMPDEST STOP JUMPDEST PUSH2 0x298 PUSH1 0x4 DUP1 CALLDATASIZE SUB DUP2 ADD SWAP1 PUSH2 0x293 SWAP2 SWAP1 PUSH2 0x5256 JUMP JUMPDEST PUSH2 0x1B40 JUMP JUMPDEST PUSH1 0x40 MLOAD PUSH2 0x2A5 SWAP2 SWAP1 PUSH2 0x5622 JUMP JUMPDEST PUSH1 0x40 MLOAD DUP1 SWAP2 SUB SWAP1 RETURN JUMPDEST PUSH2 0x2C8 PUSH1 0x4 DUP1 CALLDATASIZE SUB DUP2 ADD SWAP1 PUSH2 0x2C3 SWAP2 SWAP1 PUSH2 0x553E JUMP JUMPDEST PUSH2 0x1BD2 JUMP JUMPDEST PUSH1 0x40 MLOAD PUSH2 0x2DC SWAP9 SWAP8 SWAP7 SWAP6 SWAP5 SWAP4 SWAP3 SWAP2 SWAP1 PUSH2 0x5783 JUMP JUMPDEST PUSH1 0x40 MLOAD DUP1 SWAP2 SUB SWAP1 RETURN JUMPDEST PUSH2 0x2FF PUSH1 0x4 DUP1 CALLDATASIZE SUB DUP2 ADD SWAP1 PUSH2 0x2FA SWAP2 SWAP1 PUSH2 0x542A JUMP JUMPDEST PUSH2 0x1FBF JUMP JUMPDEST STOP JUMPDEST PUSH2 0x31B PUSH1 0x4 DUP1 CALLDATASIZE SUB DUP2 ADD SWAP1 PUSH2 0x316 SWAP2 SWAP1 PUSH2 0x553E JUMP JUMPDEST PUSH2 0x25D1 JUMP JUMPDEST PUSH1 0x40 MLOAD PUSH2 0x32F SWAP9 SWAP8 SWAP7 SWAP6 SWAP5 SWAP4 SWAP3 SWAP2 SWAP1 PUSH2 0x56F0 JUMP JUMPDEST PUSH1 0x40 MLOAD DUP1 SWAP2 SUB SWAP1 RETURN JUMPDEST PUSH2 0x352 PUSH1 0x4 DUP1 CALLDATASIZE SUB DUP2 ADD SWAP1 PUSH2 0x34D SWAP2 SWAP1 PUSH2 0x542A JUMP JUMPDEST PUSH2 0x2928 JUMP JUMPDEST STOP JUMPDEST PUSH2 0x36E PUSH1 0x4 DUP1 CALLDATASIZE SUB DUP2 ADD SWAP1 PUSH2 0x369 SWAP2 SWAP1 PUSH2 0x542A JUMP JUMPDEST PUSH2 0x2EAC JUMP JUMPDEST STOP JUMPDEST PUSH2 0x38A PUSH1 0x4 DUP1 CALLDATASIZE SUB DUP2 ADD SWAP1 PUSH2 0x385 SWAP2 SWAP1 PUSH2 0x5457 JUMP JUMPDEST PUSH2 0x34A0 JUMP JUMPDEST STOP JUMPDEST PUSH2 0x3A6 PUSH1 0x4 DUP1 CALLDATASIZE SUB DUP2 ADD SWAP1 PUSH2 0x3A1 SWAP2 SWAP1 PUSH2 0x5256 JUMP JUMPDEST PUSH2 0x351D JUMP JUMPDEST STOP JUMPDEST PUSH2 0x3C2 PUSH1 0x4 DUP1 CALLDATASIZE SUB DUP2 ADD SWAP1 PUSH2 0x3BD SWAP2 SWAP1 PUSH2 0x54B3 JUMP JUMPDEST PUSH2 0x35C8 JUMP JUMPDEST STOP JUMPDEST PUSH2 0x3DE PUSH1 0x4 DUP1 CALLDATASIZE SUB DUP2 ADD SWAP1 PUSH2 0x3D9 SWAP2 SWAP1 PUSH2 0x553E JUMP JUMPDEST PUSH2 0x3C02 JUMP JUMPDEST PUSH1 0x40 MLOAD PUSH2 0x3F0 SWAP7 SWAP6 SWAP5 SWAP4 SWAP3 SWAP2 SWAP1 PUSH2 0x5658 JUMP JUMPDEST PUSH1 0x40 MLOAD DUP1 SWAP2 SUB SWAP1 RETURN JUMPDEST PUSH2 0x413 PUSH1 0x4 DUP1 CALLDATASIZE SUB DUP2 ADD SWAP1 PUSH2 0x40E SWAP2 SWAP1 PUSH2 0x542A JUMP JUMPDEST PUSH2 0x3FDC JUMP JUMPDEST STOP JUMPDEST PUSH2 0x42F PUSH1 0x4 DUP1 CALLDATASIZE SUB DUP2 ADD SWAP1 PUSH2 0x42A SWAP2 SWAP1 PUSH2 0x5256 JUMP JUMPDEST PUSH2 0x4563 JUMP JUMPDEST PUSH1 0x40 MLOAD PUSH2 0x43C SWAP2 SWAP1 PUSH2 0x5622 JUMP JUMPDEST PUSH1 0x40 MLOAD DUP1 SWAP2 SUB SWAP1 RETURN JUMPDEST PUSH2 0x45F PUSH1 0x4 DUP1 CALLDATASIZE SUB DUP2 ADD SWAP1 PUSH2 0x45A SWAP2 SWAP1 PUSH2 0x5256 JUMP JUMPDEST PUSH2 0x45F5 JUMP JUMPDEST PUSH1 0x40 MLOAD PUSH2 0x46C SWAP2 SWAP1 PUSH2 0x5622 JUMP JUMPDEST PUSH1 0x40 MLOAD DUP1 SWAP2 SUB SWAP1 RETURN JUMPDEST PUSH2 0x48F PUSH1 0x4 DUP1 CALLDATASIZE SUB DUP2 ADD SWAP1 PUSH2 0x48A SWAP2 SWAP1 PUSH2 0x542A JUMP JUMPDEST PUSH2 0x4687 JUMP JUMPDEST PUSH1 0x40 MLOAD PUSH2 0x49C SWAP2 SWAP1 PUSH2 0x563D JUMP JUMPDEST PUSH1 0x40 MLOAD DUP1 SWAP2 SUB SWAP1 RETURN JUMPDEST PUSH2 0x4BF PUSH1 0x4 DUP1 CALLDATASIZE SUB DUP2 ADD SWAP1 PUSH2 0x4BA SWAP2 SWAP1 PUSH2 0x5283 JUMP JUMPDEST PUSH2 0x46B4 JUMP JUMPDEST STOP JUMPDEST PUSH2 0x4DB PUSH1 0x4 DUP1 CALLDATASIZE SUB DUP2 ADD SWAP1 PUSH2 0x4D6 SWAP2 SWAP1 PUSH2 0x542A JUMP JUMPDEST PUSH2 0x4746 JUMP JUMPDEST STOP JUMPDEST PUSH2 0x4E5 PUSH2 0x4D02 JUMP JUMPDEST PUSH1 0x40 MLOAD PUSH2 0x4F2 SWAP2 SWAP1 PUSH2 0x56D5 JUMP JUMPDEST PUSH1 0x40 MLOAD DUP1 SWAP2 SUB SWAP1 RETURN JUMPDEST PUSH2 0x515 PUSH1 0x4 DUP1 CALLDATASIZE SUB DUP2 ADD SWAP1 PUSH2 0x510 SWAP2 SWAP1 PUSH2 0x5256 JUMP JUMPDEST PUSH2 0x4D0B JUMP JUMPDEST STOP JUMPDEST PUSH2 0x51F PUSH2 0x4DB6 JUMP JUMPDEST PUSH1 0x40 MLOAD PUSH2 0x52C SWAP2 SWAP1 PUSH2 0x56D5 JUMP JUMPDEST PUSH1 0x40 MLOAD DUP1 SWAP2 SUB SWAP1 RETURN JUMPDEST PUSH2 0x53E CALLER PUSH2 0x1B40 JUMP JUMPDEST PUSH2 0x547 JUMPI PUSH1 0x0 DUP1 REVERT JUMPDEST PUSH1 0x0 DUP1 SLOAD SWAP1 POP PUSH2 0x555 PUSH2 0x4F01 JUMP JUMPDEST PUSH1 0x1 SLOAD DUP2 PUSH1 0x20 ADD DUP2 DUP2 MSTORE POP POP DUP2 DUP2 PUSH1 0x0 ADD DUP2 DUP2 MSTORE POP POP DUP10 DUP2 PUSH1 0x80 ADD MLOAD PUSH1 0x20 ADD DUP2 SWAP1 MSTORE POP DUP9 DUP2 PUSH1 0x80 ADD MLOAD PUSH1 0x40 ADD DUP2 SWAP1 MSTORE POP DUP8 DUP2 PUSH1 0x80 ADD MLOAD PUSH1 0x60 ADD DUP2 SWAP1 MSTORE POP DUP7 DUP2 PUSH1 0x80 ADD MLOAD PUSH1 0x80 ADD DUP2 SWAP1 MSTORE POP TIMESTAMP DUP2 PUSH1 0x80 ADD MLOAD PUSH1 0xA0 ADD DUP2 DUP2 MSTORE POP POP CALLER DUP2 PUSH1 0x40 ADD SWAP1 PUSH20 0xFFFFFFFFFFFFFFFFFFFFFFFFFFFFFFFFFFFFFFFF AND SWAP1 DUP2 PUSH20 0xFFFFFFFFFFFFFFFFFFFFFFFFFFFFFFFFFFFFFFFF AND DUP2 MSTORE POP POP CALLER DUP2 PUSH1 0x80 ADD MLOAD PUSH1 0x0 ADD SWAP1 PUSH20 0xFFFFFFFFFFFFFFFFFFFFFFFFFFFFFFFFFFFFFFFF AND SWAP1 DUP2 PUSH20 0xFFFFFFFFFFFFFFFFFFFFFFFFFFFFFFFFFFFFFFFF AND DUP2 MSTORE POP POP PUSH2 0x62A DUP2 PUSH2 0x4DBC JUMP JUMPDEST PUSH1 0x0 DUP2 PUSH1 0x60 ADD SWAP1 PUSH1 0x8 DUP2 GT ISZERO PUSH2 0x643 JUMPI PUSH2 0x642 PUSH2 0x5AA3 JUMP JUMPDEST JUMPDEST SWAP1 DUP2 PUSH1 0x8 DUP2 GT ISZERO PUSH2 0x657 JUMPI PUSH2 0x656 PUSH2 0x5AA3 JUMP JUMPDEST JUMPDEST DUP2 MSTORE POP POP PUSH2 0x668 DUP2 DUP8 DUP8 DUP8 DUP8 PUSH2 0x4EC4 JUMP JUMPDEST DUP1 PUSH1 0x3 PUSH1 0x0 DUP5 DUP2 MSTORE PUSH1 0x20 ADD SWAP1 DUP2 MSTORE PUSH1 0x20 ADD PUSH1 0x0 KECCAK256 PUSH1 0x0 DUP3 ADD MLOAD DUP2 PUSH1 0x0 ADD SSTORE PUSH1 0x20 DUP3 ADD MLOAD DUP2 PUSH1 0x1 ADD SSTORE PUSH1 0x40 DUP3 ADD MLOAD DUP2 PUSH1 0x2 ADD PUSH1 0x0 PUSH2 0x100 EXP DUP2 SLOAD DUP2 PUSH20 0xFFFFFFFFFFFFFFFFFFFFFFFFFFFFFFFFFFFFFFFF MUL NOT AND SWAP1 DUP4 PUSH20 0xFFFFFFFFFFFFFFFFFFFFFFFFFFFFFFFFFFFFFFFF AND MUL OR SWAP1 SSTORE POP PUSH1 0x60 DUP3 ADD MLOAD DUP2 PUSH1 0x2 ADD PUSH1 0x14 PUSH2 0x100 EXP DUP2 SLOAD DUP2 PUSH1 0xFF MUL NOT AND SWAP1 DUP4 PUSH1 0x8 DUP2 GT ISZERO PUSH2 0x702 JUMPI PUSH2 0x701 PUSH2 0x5AA3 JUMP JUMPDEST JUMPDEST MUL OR SWAP1 SSTORE POP PUSH1 0x80 DUP3 ADD MLOAD DUP2 PUSH1 0x3 ADD PUSH1 0x0 DUP3 ADD MLOAD DUP2 PUSH1 0x0 ADD PUSH1 0x0 PUSH2 0x100 EXP DUP2 SLOAD DUP2 PUSH20 0xFFFFFFFFFFFFFFFFFFFFFFFFFFFFFFFFFFFFFFFF MUL NOT AND SWAP1 DUP4 PUSH20 0xFFFFFFFFFFFFFFFFFFFFFFFFFFFFFFFFFFFFFFFF AND MUL OR SWAP1 SSTORE POP PUSH1 0x20 DUP3 ADD MLOAD DUP2 PUSH1 0x1 ADD SWAP1 DUP1 MLOAD SWAP1 PUSH1 0x20 ADD SWAP1 PUSH2 0x773 SWAP3 SWAP2 SWAP1 PUSH2 0x4FAA JUMP JUMPDEST POP PUSH1 0x40 DUP3 ADD MLOAD DUP2 PUSH1 0x2 ADD SWAP1 DUP1 MLOAD SWAP1 PUSH1 0x20 ADD SWAP1 PUSH2 0x790 SWAP3 SWAP2 SWAP1 PUSH2 0x4FAA JUMP JUMPDEST POP PUSH1 0x60 DUP3 ADD MLOAD DUP2 PUSH1 0x3 ADD SWAP1 DUP1 MLOAD SWAP1 PUSH1 0x20 ADD SWAP1 PUSH2 0x7AD SWAP3 SWAP2 SWAP1 PUSH2 0x4FAA JUMP JUMPDEST POP PUSH1 0x80 DUP3 ADD MLOAD DUP2 PUSH1 0x4 ADD SWAP1 DUP1 MLOAD SWAP1 PUSH1 0x20 ADD SWAP1 PUSH2 0x7CA SWAP3 SWAP2 SWAP1 PUSH2 0x4FAA JUMP JUMPDEST POP PUSH1 0xA0 DUP3 ADD MLOAD DUP2 PUSH1 0x5 ADD SSTORE POP POP PUSH1 0xA0 DUP3 ADD MLOAD DUP2 PUSH1 0x9 ADD PUSH1 0x0 DUP3 ADD MLOAD DUP2 PUSH1 0x0 ADD PUSH1 0x0 PUSH2 0x100 EXP DUP2 SLOAD DUP2 PUSH20 0xFFFFFFFFFFFFFFFFFFFFFFFFFFFFFFFFFFFFFFFF MUL NOT AND SWAP1 DUP4 PUSH20 0xFFFFFFFFFFFFFFFFFFFFFFFFFFFFFFFFFFFFFFFF AND MUL OR SWAP1 SSTORE POP PUSH1 0x20 DUP3 ADD MLOAD DUP2 PUSH1 0x1 ADD SWAP1 DUP1 MLOAD SWAP1 PUSH1 0x20 ADD SWAP1 PUSH2 0x843 SWAP3 SWAP2 SWAP1 PUSH2 0x4FAA JUMP JUMPDEST POP PUSH1 0x40 DUP3 ADD MLOAD DUP2 PUSH1 0x2 ADD SWAP1 DUP1 MLOAD SWAP1 PUSH1 0x20 ADD SWAP1 PUSH2 0x860 SWAP3 SWAP2 SWAP1 PUSH2 0x4FAA JUMP JUMPDEST POP POP POP PUSH1 0xC0 DUP3 ADD MLOAD DUP2 PUSH1 0xC ADD PUSH1 0x0 DUP3 ADD MLOAD DUP2 PUSH1 0x0 ADD SWAP1 DUP1 MLOAD SWAP1 PUSH1 0x20 ADD SWAP1 PUSH2 0x888 SWAP3 SWAP2 SWAP1 PUSH2 0x4FAA JUMP JUMPDEST POP PUSH1 0x20 DUP3 ADD MLOAD DUP2 PUSH1 0x1 ADD SSTORE PUSH1 0x40 DUP3 ADD MLOAD DUP2 PUSH1 0x2 ADD SSTORE PUSH1 0x60 DUP3 ADD MLOAD DUP2 PUSH1 0x3 ADD SWAP1 DUP1 MLOAD SWAP1 PUSH1 0x20 ADD SWAP1 PUSH2 0x8B9 SWAP3 SWAP2 SWAP1 PUSH2 0x4FAA JUMP JUMPDEST POP POP POP PUSH1 0xE0 DUP3 ADD MLOAD DUP2 PUSH1 0x10 ADD PUSH1 0x0 DUP3 ADD MLOAD DUP2 PUSH1 0x0 ADD PUSH1 0x0 PUSH2 0x100 EXP DUP2 SLOAD DUP2 PUSH20 0xFFFFFFFFFFFFFFFFFFFFFFFFFFFFFFFFFFFFFFFF MUL NOT AND SWAP1 DUP4 PUSH20 0xFFFFFFFFFFFFFFFFFFFFFFFFFFFFFFFFFFFFFFFF AND MUL OR SWAP1 SSTORE POP PUSH1 0x20 DUP3 ADD MLOAD DUP2 PUSH1 0x1 ADD SWAP1 DUP1 MLOAD SWAP1 PUSH1 0x20 ADD SWAP1 PUSH2 0x928 SWAP3 SWAP2 SWAP1 PUSH2 0x4FAA JUMP JUMPDEST POP PUSH1 0x40 DUP3 ADD MLOAD DUP2 PUSH1 0x2 ADD SWAP1 DUP1 MLOAD SWAP1 PUSH1 0x20 ADD SWAP1 PUSH2 0x945 SWAP3 SWAP2 SWAP1 PUSH2 0x4FAA JUMP JUMPDEST POP POP POP PUSH2 0x100 DUP3 ADD MLOAD DUP2 PUSH1 0x13 ADD PUSH1 0x0 PUSH2 0x100 EXP DUP2 SLOAD DUP2 PUSH20 0xFFFFFFFFFFFFFFFFFFFFFFFFFFFFFFFFFFFFFFFF MUL NOT AND SWAP1 DUP4 PUSH20 0xFFFFFFFFFFFFFFFFFFFFFFFFFFFFFFFFFFFFFFFF AND MUL OR SWAP1 SSTORE POP PUSH2 0x120 DUP3 ADD MLOAD DUP2 PUSH1 0x14 ADD SWAP1 DUP1 MLOAD SWAP1 PUSH1 0x20 ADD SWAP1 PUSH2 0x9AD SWAP3 SWAP2 SWAP1 PUSH2 0x4FAA JUMP JUMPDEST POP SWAP1 POP POP PUSH1 0x4 PUSH1 0x0 DUP4 DUP2 MSTORE PUSH1 0x20 ADD SWAP1 DUP2 MSTORE PUSH1 0x20 ADD PUSH1 0x0 KECCAK256 PUSH1 0x0 ADD DUP2 SWAP1 DUP1 PUSH1 0x1 DUP2 SLOAD ADD DUP1 DUP3 SSTORE DUP1 SWAP2 POP POP PUSH1 0x1 SWAP1 SUB SWAP1 PUSH1 0x0 MSTORE PUSH1 0x20 PUSH1 0x0 KECCAK256 SWAP1 PUSH1 0x15 MUL ADD PUSH1 0x0 SWAP1 SWAP2 SWAP1 SWAP2 SWAP1 SWAP2 POP PUSH1 0x0 DUP3 ADD MLOAD DUP2 PUSH1 0x0 ADD SSTORE PUSH1 0x20 DUP3 ADD MLOAD DUP2 PUSH1 0x1 ADD SSTORE PUSH1 0x40 DUP3 ADD MLOAD DUP2 PUSH1 0x2 ADD PUSH1 0x0 PUSH2 0x100 EXP DUP2 SLOAD DUP2 PUSH20 0xFFFFFFFFFFFFFFFFFFFFFFFFFFFFFFFFFFFFFFFF MUL NOT AND SWAP1 DUP4 PUSH20 0xFFFFFFFFFFFFFFFFFFFFFFFFFFFFFFFFFFFFFFFF AND MUL OR SWAP1 SSTORE POP PUSH1 0x60 DUP3 ADD MLOAD DUP2 PUSH1 0x2 ADD PUSH1 0x14 PUSH2 0x100 EXP DUP2 SLOAD DUP2 PUSH1 0xFF MUL NOT AND SWAP1 DUP4 PUSH1 0x8 DUP2 GT ISZERO PUSH2 0xA77 JUMPI PUSH2 0xA76 PUSH2 0x5AA3 JUMP JUMPDEST JUMPDEST MUL OR SWAP1 SSTORE POP PUSH1 0x80 DUP3 ADD MLOAD DUP2 PUSH1 0x3 ADD PUSH1 0x0 DUP3 ADD MLOAD DUP2 PUSH1 0x0 ADD PUSH1 0x0 PUSH2 0x100 EXP DUP2 SLOAD DUP2 PUSH20 0xFFFFFFFFFFFFFFFFFFFFFFFFFFFFFFFFFFFFFFFF MUL NOT AND SWAP1 DUP4 PUSH20 0xFFFFFFFFFFFFFFFFFFFFFFFFFFFFFFFFFFFFFFFF AND MUL OR SWAP1 SSTORE POP PUSH1 0x20 DUP3 ADD MLOAD DUP2 PUSH1 0x1 ADD SWAP1 DUP1 MLOAD SWAP1 PUSH1 0x20 ADD SWAP1 PUSH2 0xAE8 SWAP3 SWAP2 SWAP1 PUSH2 0x4FAA JUMP JUMPDEST POP PUSH1 0x40 DUP3 ADD MLOAD DUP2 PUSH1 0x2 ADD SWAP1 DUP1 MLOAD SWAP1 PUSH1 0x20 ADD SWAP1 PUSH2 0xB05 SWAP3 SWAP2 SWAP1 PUSH2 0x4FAA JUMP JUMPDEST POP PUSH1 0x60 DUP3 ADD MLOAD DUP2 PUSH1 0x3 ADD SWAP1 DUP1 MLOAD SWAP1 PUSH1 0x20 ADD SWAP1 PUSH2 0xB22 SWAP3 SWAP2 SWAP1 PUSH2 0x4FAA JUMP JUMPDEST POP PUSH1 0x80 DUP3 ADD MLOAD DUP2 PUSH1 0x4 ADD SWAP1 DUP1 MLOAD SWAP1 PUSH1 0x20 ADD SWAP1 PUSH2 0xB3F SWAP3 SWAP2 SWAP1 PUSH2 0x4FAA JUMP JUMPDEST POP PUSH1 0xA0 DUP3 ADD MLOAD DUP2 PUSH1 0x5 ADD SSTORE POP POP PUSH1 0xA0 DUP3 ADD MLOAD DUP2 PUSH1 0x9 ADD PUSH1 0x0 DUP3 ADD MLOAD DUP2 PUSH1 0x0 ADD PUSH1 0x0 PUSH2 0x100 EXP DUP2 SLOAD DUP2 PUSH20 0xFFFFFFFFFFFFFFFFFFFFFFFFFFFFFFFFFFFFFFFF MUL NOT AND SWAP1 DUP4 PUSH20 0xFFFFFFFFFFFFFFFFFFFFFFFFFFFFFFFFFFFFFFFF AND MUL OR SWAP1 SSTORE POP PUSH1 0x20 DUP3 ADD MLOAD DUP2 PUSH1 0x1 ADD SWAP1 DUP1 MLOAD SWAP1 PUSH1 0x20 ADD SWAP1 PUSH2 0xBB8 SWAP3 SWAP2 SWAP1 PUSH2 0x4FAA JUMP JUMPDEST POP PUSH1 0x40 DUP3 ADD MLOAD DUP2 PUSH1 0x2 ADD SWAP1 DUP1 MLOAD SWAP1 PUSH1 0x20 ADD SWAP1 PUSH2 0xBD5 SWAP3 SWAP2 SWAP1 PUSH2 0x4FAA JUMP JUMPDEST POP POP POP PUSH1 0xC0 DUP3 ADD MLOAD DUP2 PUSH1 0xC ADD PUSH1 0x0 DUP3 ADD MLOAD DUP2 PUSH1 0x0 ADD SWAP1 DUP1 MLOAD SWAP1 PUSH1 0x20 ADD SWAP1 PUSH2 0xBFD SWAP3 SWAP2 SWAP1 PUSH2 0x4FAA JUMP JUMPDEST POP PUSH1 0x20 DUP3 ADD MLOAD DUP2 PUSH1 0x1 ADD SSTORE PUSH1 0x40 DUP3 ADD MLOAD DUP2 PUSH1 0x2 ADD SSTORE PUSH1 0x60 DUP3 ADD MLOAD DUP2 PUSH1 0x3 ADD SWAP1 DUP1 MLOAD SWAP1 PUSH1 0x20 ADD SWAP1 PUSH2 0xC2E SWAP3 SWAP2 SWAP1 PUSH2 0x4FAA JUMP JUMPDEST POP POP POP PUSH1 0xE0 DUP3 ADD MLOAD DUP2 PUSH1 0x10 ADD PUSH1 0x0 DUP3 ADD MLOAD DUP2 PUSH1 0x0 ADD PUSH1 0x0 PUSH2 0x100 EXP DUP2 SLOAD DUP2 PUSH20 0xFFFFFFFFFFFFFFFFFFFFFFFFFFFFFFFFFFFFFFFF MUL NOT AND SWAP1 DUP4 PUSH20 0xFFFFFFFFFFFFFFFFFFFFFFFFFFFFFFFFFFFFFFFF AND MUL OR SWAP1 SSTORE POP PUSH1 0x20 DUP3 ADD MLOAD DUP2 PUSH1 0x1 ADD SWAP1 DUP1 MLOAD SWAP1 PUSH1 0x20 ADD SWAP1 PUSH2 0xC9D SWAP3 SWAP2 SWAP1 PUSH2 0x4FAA JUMP JUMPDEST POP PUSH1 0x40 DUP3 ADD MLOAD DUP2 PUSH1 0x2 ADD SWAP1 DUP1 MLOAD SWAP1 PUSH1 0x20 ADD SWAP1 PUSH2 0xCBA SWAP3 SWAP2 SWAP1 PUSH2 0x4FAA JUMP JUMPDEST POP POP POP PUSH2 0x100 DUP3 ADD MLOAD DUP2 PUSH1 0x13 ADD PUSH1 0x0 PUSH2 0x100 EXP DUP2 SLOAD DUP2 PUSH20 0xFFFFFFFFFFFFFFFFFFFFFFFFFFFFFFFFFFFFFFFF MUL NOT AND SWAP1 DUP4 PUSH20 0xFFFFFFFFFFFFFFFFFFFFFFFFFFFFFFFFFFFFFFFF AND MUL OR SWAP1 SSTORE POP PUSH2 0x120 DUP3 ADD MLOAD DUP2 PUSH1 0x14 ADD SWAP1 DUP1 MLOAD SWAP1 PUSH1 0x20 ADD SWAP1 PUSH2 0xD22 SWAP3 SWAP2 SWAP1 PUSH2 0x4FAA JUMP JUMPDEST POP POP POP PUSH1 0x1 PUSH1 0x0 DUP2 SLOAD DUP1 SWAP3 SWAP2 SWAP1 PUSH2 0xD38 SWAP1 PUSH2 0x5A2B JUMP JUMPDEST SWAP2 SWAP1 POP SSTORE POP PUSH1 0x1 PUSH1 0x0 SLOAD PUSH2 0xD4C SWAP2 SWAP1 PUSH2 0x588F JUMP JUMPDEST PUSH1 0x0 DUP2 SWAP1 SSTORE POP PUSH32 0xD29D8A68CA7C8C74BE5579719D445AABFE230ED6E6A83AFF475A663500EB7609 DUP3 PUSH1 0x40 MLOAD PUSH2 0xD81 SWAP2 SWAP1 PUSH2 0x56D5 JUMP JUMPDEST PUSH1 0x40 MLOAD DUP1 SWAP2 SUB SWAP1 LOG1 POP POP POP POP POP POP POP POP POP POP JUMP JUMPDEST PUSH1 0x0 DUP1 PUSH20 0xFFFFFFFFFFFFFFFFFFFFFFFFFFFFFFFFFFFFFFFF AND DUP3 PUSH20 0xFFFFFFFFFFFFFFFFFFFFFFFFFFFFFFFFFFFFFFFF AND EQ ISZERO PUSH2 0xDD0 JUMPI PUSH1 0x0 DUP1 REVERT JUMPDEST PUSH1 0x5 PUSH1 0x0 DUP4 PUSH20 0xFFFFFFFFFFFFFFFFFFFFFFFFFFFFFFFFFFFFFFFF AND PUSH20 0xFFFFFFFFFFFFFFFFFFFFFFFFFFFFFFFFFFFFFFFF AND DUP2 MSTORE PUSH1 0x20 ADD SWAP1 DUP2 MSTORE PUSH1 0x20 ADD PUSH1 0x0 KECCAK256 PUSH1 0x0 ADD PUSH1 0x3 SWAP1 SLOAD SWAP1 PUSH2 0x100 EXP SWAP1 DIV PUSH1 0xFF AND SWAP1 POP SWAP2 SWAP1 POP JUMP JUMPDEST PUSH1 0x3 PUSH1 0x0 DUP3 DUP2 MSTORE PUSH1 0x20 ADD SWAP1 DUP2 MSTORE PUSH1 0x20 ADD PUSH1 0x0 KECCAK256 PUSH1 0x3 ADD PUSH1 0x0 ADD PUSH1 0x0 SWAP1 SLOAD SWAP1 PUSH2 0x100 EXP SWAP1 DIV PUSH20 0xFFFFFFFFFFFFFFFFFFFFFFFFFFFFFFFFFFFFFFFF AND DUP1 PUSH20 0xFFFFFFFFFFFFFFFFFFFFFFFFFFFFFFFFFFFFFFFF AND CALLER PUSH20 0xFFFFFFFFFFFFFFFFFFFFFFFFFFFFFFFFFFFFFFFF AND EQ PUSH2 0xE99 JUMPI PUSH1 0x0 DUP1 REVERT JUMPDEST PUSH2 0xEA2 CALLER PUSH2 0x1B40 JUMP JUMPDEST PUSH2 0xEAB JUMPI PUSH1 0x0 DUP1 REVERT JUMPDEST PUSH1 0x2 PUSH1 0x3 PUSH1 0x0 DUP5 DUP2 MSTORE PUSH1 0x20 ADD SWAP1 DUP2 MSTORE PUSH1 0x20 ADD PUSH1 0x0 KECCAK256 PUSH1 0x2 ADD PUSH1 0x14 PUSH2 0x100 EXP DUP2 SLOAD DUP2 PUSH1 0xFF MUL NOT AND SWAP1 DUP4 PUSH1 0x8 DUP2 GT ISZERO PUSH2 0xEE5 JUMPI PUSH2 0xEE4 PUSH2 0x5AA3 JUMP JUMPDEST JUMPDEST MUL OR SWAP1 SSTORE POP PUSH1 0x4 PUSH1 0x0 DUP4 DUP2 MSTORE PUSH1 0x20 ADD SWAP1 DUP2 MSTORE PUSH1 0x20 ADD PUSH1 0x0 KECCAK256 PUSH1 0x0 ADD PUSH1 0x3 PUSH1 0x0 DUP5 DUP2 MSTORE PUSH1 0x20 ADD SWAP1 DUP2 MSTORE PUSH1 0x20 ADD PUSH1 0x0 KECCAK256 SWAP1 DUP1 PUSH1 0x1 DUP2 SLOAD ADD DUP1 DUP3 SSTORE DUP1 SWAP2 POP POP PUSH1 0x1 SWAP1 SUB SWAP1 PUSH1 0x0 MSTORE PUSH1 0x20 PUSH1 0x0 KECCAK256 SWAP1 PUSH1 0x15 MUL ADD PUSH1 0x0 SWAP1 SWAP2 SWAP1 SWAP2 SWAP1 SWAP2 POP PUSH1 0x0 DUP3 ADD SLOAD DUP2 PUSH1 0x0 ADD SSTORE PUSH1 0x1 DUP3 ADD SLOAD DUP2 PUSH1 0x1 ADD SSTORE PUSH1 0x2 DUP3 ADD PUSH1 0x0 SWAP1 SLOAD SWAP1 PUSH2 0x100 EXP SWAP1 DIV PUSH20 0xFFFFFFFFFFFFFFFFFFFFFFFFFFFFFFFFFFFFFFFF AND DUP2 PUSH1 0x2 ADD PUSH1 0x0 PUSH2 0x100 EXP DUP2 SLOAD DUP2 PUSH20 0xFFFFFFFFFFFFFFFFFFFFFFFFFFFFFFFFFFFFFFFF MUL NOT AND SWAP1 DUP4 PUSH20 0xFFFFFFFFFFFFFFFFFFFFFFFFFFFFFFFFFFFFFFFF AND MUL OR SWAP1 SSTORE POP PUSH1 0x2 DUP3 ADD PUSH1 0x14 SWAP1 SLOAD SWAP1 PUSH2 0x100 EXP SWAP1 DIV PUSH1 0xFF AND DUP2 PUSH1 0x2 ADD PUSH1 0x14 PUSH2 0x100 EXP DUP2 SLOAD DUP2 PUSH1 0xFF MUL NOT AND SWAP1 DUP4 PUSH1 0x8 DUP2 GT ISZERO PUSH2 0xFEF JUMPI PUSH2 0xFEE PUSH2 0x5AA3 JUMP JUMPDEST JUMPDEST MUL OR SWAP1 SSTORE POP PUSH1 0x3 DUP3 ADD DUP2 PUSH1 0x3 ADD PUSH1 0x0 DUP3 ADD PUSH1 0x0 SWAP1 SLOAD SWAP1 PUSH2 0x100 EXP SWAP1 DIV PUSH20 0xFFFFFFFFFFFFFFFFFFFFFFFFFFFFFFFFFFFFFFFF AND DUP2 PUSH1 0x0 ADD PUSH1 0x0 PUSH2 0x100 EXP DUP2 SLOAD DUP2 PUSH20 0xFFFFFFFFFFFFFFFFFFFFFFFFFFFFFFFFFFFFFFFF MUL NOT AND SWAP1 DUP4 PUSH20 0xFFFFFFFFFFFFFFFFFFFFFFFFFFFFFFFFFFFFFFFF AND MUL OR SWAP1 SSTORE POP PUSH1 0x1 DUP3 ADD DUP2 PUSH1 0x1 ADD SWAP1 DUP1 SLOAD PUSH2 0x1077 SWAP1 PUSH2 0x59C8 JUMP JUMPDEST PUSH2 0x1082 SWAP3 SWAP2 SWAP1 PUSH2 0x5030 JUMP JUMPDEST POP PUSH1 0x2 DUP3 ADD DUP2 PUSH1 0x2 ADD SWAP1 DUP1 SLOAD PUSH2 0x1097 SWAP1 PUSH2 0x59C8 JUMP JUMPDEST PUSH2 0x10A2 SWAP3 SWAP2 SWAP1 PUSH2 0x5030 JUMP JUMPDEST POP PUSH1 0x3 DUP3 ADD DUP2 PUSH1 0x3 ADD SWAP1 DUP1 SLOAD PUSH2 0x10B7 SWAP1 PUSH2 0x59C8 JUMP JUMPDEST PUSH2 0x10C2 SWAP3 SWAP2 SWAP1 PUSH2 0x5030 JUMP JUMPDEST POP PUSH1 0x4 DUP3 ADD DUP2 PUSH1 0x4 ADD SWAP1 DUP1 SLOAD PUSH2 0x10D7 SWAP1 PUSH2 0x59C8 JUMP JUMPDEST PUSH2 0x10E2 SWAP3 SWAP2 SWAP1 PUSH2 0x5030 JUMP JUMPDEST POP PUSH1 0x5 DUP3 ADD SLOAD DUP2 PUSH1 0x5 ADD SSTORE POP POP PUSH1 0x9 DUP3 ADD DUP2 PUSH1 0x9 ADD PUSH1 0x0 DUP3 ADD PUSH1 0x0 SWAP1 SLOAD SWAP1 PUSH2 0x100 EXP SWAP1 DIV PUSH20 0xFFFFFFFFFFFFFFFFFFFFFFFFFFFFFFFFFFFFFFFF AND DUP2 PUSH1 0x0 ADD PUSH1 0x0 PUSH2 0x100 EXP DUP2 SLOAD DUP2 PUSH20 0xFFFFFFFFFFFFFFFFFFFFFFFFFFFFFFFFFFFFFFFF MUL NOT AND SWAP1 DUP4 PUSH20 0xFFFFFFFFFFFFFFFFFFFFFFFFFFFFFFFFFFFFFFFF AND MUL OR SWAP1 SSTORE POP PUSH1 0x1 DUP3 ADD DUP2 PUSH1 0x1 ADD SWAP1 DUP1 SLOAD PUSH2 0x1172 SWAP1 PUSH2 0x59C8 JUMP JUMPDEST PUSH2 0x117D SWAP3 SWAP2 SWAP1 PUSH2 0x5030 JUMP JUMPDEST POP PUSH1 0x2 DUP3 ADD DUP2 PUSH1 0x2 ADD SWAP1 DUP1 SLOAD PUSH2 0x1192 SWAP1 PUSH2 0x59C8 JUMP JUMPDEST PUSH2 0x119D SWAP3 SWAP2 SWAP1 PUSH2 0x5030 JUMP JUMPDEST POP POP POP PUSH1 0xC DUP3 ADD DUP2 PUSH1 0xC ADD PUSH1 0x0 DUP3 ADD DUP2 PUSH1 0x0 ADD SWAP1 DUP1 SLOAD PUSH2 0x11BC SWAP1 PUSH2 0x59C8 JUMP JUMPDEST PUSH2 0x11C7 SWAP3 SWAP2 SWAP1 PUSH2 0x5030 JUMP JUMPDEST POP PUSH1 0x1 DUP3 ADD SLOAD DUP2 PUSH1 0x1 ADD SSTORE PUSH1 0x2 DUP3 ADD SLOAD DUP2 PUSH1 0x2 ADD SSTORE PUSH1 0x3 DUP3 ADD DUP2 PUSH1 0x3 ADD SWAP1 DUP1 SLOAD PUSH2 0x11F0 SWAP1 PUSH2 0x59C8 JUMP JUMPDEST PUSH2 0x11FB SWAP3 SWAP2 SWAP1 PUSH2 0x5030 JUMP JUMPDEST POP POP POP PUSH1 0x10 DUP3 ADD DUP2 PUSH1 0x10 ADD PUSH1 0x0 DUP3 ADD PUSH1 0x0 SWAP1 SLOAD SWAP1 PUSH2 0x100 EXP SWAP1 DIV PUSH20 0xFFFFFFFFFFFFFFFFFFFFFFFFFFFFFFFFFFFFFFFF AND DUP2 PUSH1 0x0 ADD PUSH1 0x0 PUSH2 0x100 EXP DUP2 SLOAD DUP2 PUSH20 0xFFFFFFFFFFFFFFFFFFFFFFFFFFFFFFFFFFFFFFFF MUL NOT AND SWAP1 DUP4 PUSH20 0xFFFFFFFFFFFFFFFFFFFFFFFFFFFFFFFFFFFFFFFF AND MUL OR SWAP1 SSTORE POP PUSH1 0x1 DUP3 ADD DUP2 PUSH1 0x1 ADD SWAP1 DUP1 SLOAD PUSH2 0x1281 SWAP1 PUSH2 0x59C8 JUMP JUMPDEST PUSH2 0x128C SWAP3 SWAP2 SWAP1 PUSH2 0x5030 JUMP JUMPDEST POP PUSH1 0x2 DUP3 ADD DUP2 PUSH1 0x2 ADD SWAP1 DUP1 SLOAD PUSH2 0x12A1 SWAP1 PUSH2 0x59C8 JUMP JUMPDEST PUSH2 0x12AC SWAP3 SWAP2 SWAP1 PUSH2 0x5030 JUMP JUMPDEST POP POP POP PUSH1 0x13 DUP3 ADD PUSH1 0x0 SWAP1 SLOAD SWAP1 PUSH2 0x100 EXP SWAP1 DIV PUSH20 0xFFFFFFFFFFFFFFFFFFFFFFFFFFFFFFFFFFFFFFFF AND DUP2 PUSH1 0x13 ADD PUSH1 0x0 PUSH2 0x100 EXP DUP2 SLOAD DUP2 PUSH20 0xFFFFFFFFFFFFFFFFFFFFFFFFFFFFFFFFFFFFFFFF MUL NOT AND SWAP1 DUP4 PUSH20 0xFFFFFFFFFFFFFFFFFFFFFFFFFFFFFFFFFFFFFFFF AND MUL OR SWAP1 SSTORE POP PUSH1 0x14 DUP3 ADD DUP2 PUSH1 0x14 ADD SWAP1 DUP1 SLOAD PUSH2 0x132A SWAP1 PUSH2 0x59C8 JUMP JUMPDEST PUSH2 0x1335 SWAP3 SWAP2 SWAP1 PUSH2 0x5030 JUMP JUMPDEST POP POP POP PUSH32 0x25727BEF8A186DD95A062151451F2D651551B53124C18208D7653B1217AE31BA DUP3 PUSH1 0x40 MLOAD PUSH2 0x1367 SWAP2 SWAP1 PUSH2 0x56D5 JUMP JUMPDEST PUSH1 0x40 MLOAD DUP1 SWAP2 SUB SWAP1 LOG1 POP POP JUMP JUMPDEST DUP3 PUSH1 0x2 PUSH1 0x8 DUP2 GT ISZERO PUSH2 0x1388 JUMPI PUSH2 0x1387 PUSH2 0x5AA3 JUMP JUMPDEST JUMPDEST PUSH1 0x3 PUSH1 0x0 DUP4 DUP2 MSTORE PUSH1 0x20 ADD SWAP1 DUP2 MSTORE PUSH1 0x20 ADD PUSH1 0x0 KECCAK256 PUSH1 0x2 ADD PUSH1 0x14 SWAP1 SLOAD SWAP1 PUSH2 0x100 EXP SWAP1 DIV PUSH1 0xFF AND PUSH1 0x8 DUP2 GT ISZERO PUSH2 0x13BE JUMPI PUSH2 0x13BD PUSH2 0x5AA3 JUMP JUMPDEST JUMPDEST EQ PUSH2 0x13C8 JUMPI PUSH1 0x0 DUP1 REVERT JUMPDEST PUSH1 0x3 PUSH1 0x0 DUP6 DUP2 MSTORE PUSH1 0x20 ADD SWAP1 DUP2 MSTORE PUSH1 0x20 ADD PUSH1 0x0 KECCAK256 PUSH1 0x9 ADD PUSH1 0x0 ADD PUSH1 0x0 SWAP1 SLOAD SWAP1 PUSH2 0x100 EXP SWAP1 DIV PUSH20 0xFFFFFFFFFFFFFFFFFFFFFFFFFFFFFFFFFFFFFFFF AND DUP1 PUSH20 0xFFFFFFFFFFFFFFFFFFFFFFFFFFFFFFFFFFFFFFFF AND CALLER PUSH20 0xFFFFFFFFFFFFFFFFFFFFFFFFFFFFFFFFFFFFFFFF AND EQ PUSH2 0x143A JUMPI PUSH1 0x0 DUP1 REVERT JUMPDEST PUSH2 0x1443 CALLER PUSH2 0x4563 JUMP JUMPDEST PUSH2 0x144C JUMPI PUSH1 0x0 DUP1 REVERT JUMPDEST CALLER PUSH1 0x3 PUSH1 0x0 DUP8 DUP2 MSTORE PUSH1 0x20 ADD SWAP1 DUP2 MSTORE PUSH1 0x20 ADD PUSH1 0x0 KECCAK256 PUSH1 0x2 ADD PUSH1 0x0 PUSH2 0x100 EXP DUP2 SLOAD DUP2 PUSH20 0xFFFFFFFFFFFFFFFFFFFFFFFFFFFFFFFFFFFFFFFF MUL NOT AND SWAP1 DUP4 PUSH20 0xFFFFFFFFFFFFFFFFFFFFFFFFFFFFFFFFFFFFFFFF AND MUL OR SWAP1 SSTORE POP DUP4 PUSH1 0x3 PUSH1 0x0 DUP8 DUP2 MSTORE PUSH1 0x20 ADD SWAP1 DUP2 MSTORE PUSH1 0x20 ADD PUSH1 0x0 KECCAK256 PUSH1 0x9 ADD PUSH1 0x1 ADD SWAP1 DUP1 MLOAD SWAP1 PUSH1 0x20 ADD SWAP1 PUSH2 0x14CE SWAP3 SWAP2 SWAP1 PUSH2 0x4FAA JUMP JUMPDEST POP DUP3 PUSH1 0x3 PUSH1 0x0 DUP8 DUP2 MSTORE PUSH1 0x20 ADD SWAP1 DUP2 MSTORE PUSH1 0x20 ADD PUSH1 0x0 KECCAK256 PUSH1 0x9 ADD PUSH1 0x2 ADD SWAP1 DUP1 MLOAD SWAP1 PUSH1 0x20 ADD SWAP1 PUSH2 0x14FC SWAP3 SWAP2 SWAP1 PUSH2 0x4FAA JUMP JUMPDEST POP PUSH1 0x3 DUP1 PUSH1 0x0 DUP8 DUP2 MSTORE PUSH1 0x20 ADD SWAP1 DUP2 MSTORE PUSH1 0x20 ADD PUSH1 0x0 KECCAK256 PUSH1 0x2 ADD PUSH1 0x14 PUSH2 0x100 EXP DUP2 SLOAD DUP2 PUSH1 0xFF MUL NOT AND SWAP1 DUP4 PUSH1 0x8 DUP2 GT ISZERO PUSH2 0x1536 JUMPI PUSH2 0x1535 PUSH2 0x5AA3 JUMP JUMPDEST JUMPDEST MUL OR SWAP1 SSTORE POP PUSH1 0x4 PUSH1 0x0 DUP7 DUP2 MSTORE PUSH1 0x20 ADD SWAP1 DUP2 MSTORE PUSH1 0x20 ADD PUSH1 0x0 KECCAK256 PUSH1 0x0 ADD PUSH1 0x3 PUSH1 0x0 DUP8 DUP2 MSTORE PUSH1 0x20 ADD SWAP1 DUP2 MSTORE PUSH1 0x20 ADD PUSH1 0x0 KECCAK256 SWAP1 DUP1 PUSH1 0x1 DUP2 SLOAD ADD DUP1 DUP3 SSTORE DUP1 SWAP2 POP POP PUSH1 0x1 SWAP1 SUB SWAP1 PUSH1 0x0 MSTORE PUSH1 0x20 PUSH1 0x0 KECCAK256 SWAP1 PUSH1 0x15 MUL ADD PUSH1 0x0 SWAP1 SWAP2 SWAP1 SWAP2 SWAP1 SWAP2 POP PUSH1 0x0 DUP3 ADD SLOAD DUP2 PUSH1 0x0 ADD SSTORE PUSH1 0x1 DUP3 ADD SLOAD DUP2 PUSH1 0x1 ADD SSTORE PUSH1 0x2 DUP3 ADD PUSH1 0x0 SWAP1 SLOAD SWAP1 PUSH2 0x100 EXP SWAP1 DIV PUSH20 0xFFFFFFFFFFFFFFFFFFFFFFFFFFFFFFFFFFFFFFFF AND DUP2 PUSH1 0x2 ADD PUSH1 0x0 PUSH2 0x100 EXP DUP2 SLOAD DUP2 PUSH20 0xFFFFFFFFFFFFFFFFFFFFFFFFFFFFFFFFFFFFFFFF MUL NOT AND SWAP1 DUP4 PUSH20 0xFFFFFFFFFFFFFFFFFFFFFFFFFFFFFFFFFFFFFFFF AND MUL OR SWAP1 SSTORE POP PUSH1 0x2 DUP3 ADD PUSH1 0x14 SWAP1 SLOAD SWAP1 PUSH2 0x100 EXP SWAP1 DIV PUSH1 0xFF AND DUP2 PUSH1 0x2 ADD PUSH1 0x14 PUSH2 0x100 EXP DUP2 SLOAD DUP2 PUSH1 0xFF MUL NOT AND SWAP1 DUP4 PUSH1 0x8 DUP2 GT ISZERO PUSH2 0x1640 JUMPI PUSH2 0x163F PUSH2 0x5AA3 JUMP JUMPDEST JUMPDEST MUL OR SWAP1 SSTORE POP PUSH1 0x3 DUP3 ADD DUP2 PUSH1 0x3 ADD PUSH1 0x0 DUP3 ADD PUSH1 0x0 SWAP1 SLOAD SWAP1 PUSH2 0x100 EXP SWAP1 DIV PUSH20 0xFFFFFFFFFFFFFFFFFFFFFFFFFFFFFFFFFFFFFFFF AND DUP2 PUSH1 0x0 ADD PUSH1 0x0 PUSH2 0x100 EXP DUP2 SLOAD DUP2 PUSH20 0xFFFFFFFFFFFFFFFFFFFFFFFFFFFFFFFFFFFFFFFF MUL NOT AND SWAP1 DUP4 PUSH20 0xFFFFFFFFFFFFFFFFFFFFFFFFFFFFFFFFFFFFFFFF AND MUL OR SWAP1 SSTORE POP PUSH1 0x1 DUP3 ADD DUP2 PUSH1 0x1 ADD SWAP1 DUP1 SLOAD PUSH2 0x16C8 SWAP1 PUSH2 0x59C8 JUMP JUMPDEST PUSH2 0x16D3 SWAP3 SWAP2 SWAP1 PUSH2 0x5030 JUMP JUMPDEST POP PUSH1 0x2 DUP3 ADD DUP2 PUSH1 0x2 ADD SWAP1 DUP1 SLOAD PUSH2 0x16E8 SWAP1 PUSH2 0x59C8 JUMP JUMPDEST PUSH2 0x16F3 SWAP3 SWAP2 SWAP1 PUSH2 0x5030 JUMP JUMPDEST POP PUSH1 0x3 DUP3 ADD DUP2 PUSH1 0x3 ADD SWAP1 DUP1 SLOAD PUSH2 0x1708 SWAP1 PUSH2 0x59C8 JUMP JUMPDEST PUSH2 0x1713 SWAP3 SWAP2 SWAP1 PUSH2 0x5030 JUMP JUMPDEST POP PUSH1 0x4 DUP3 ADD DUP2 PUSH1 0x4 ADD SWAP1 DUP1 SLOAD PUSH2 0x1728 SWAP1 PUSH2 0x59C8 JUMP JUMPDEST PUSH2 0x1733 SWAP3 SWAP2 SWAP1 PUSH2 0x5030 JUMP JUMPDEST POP PUSH1 0x5 DUP3 ADD SLOAD DUP2 PUSH1 0x5 ADD SSTORE POP POP PUSH1 0x9 DUP3 ADD DUP2 PUSH1 0x9 ADD PUSH1 0x0 DUP3 ADD PUSH1 0x0 SWAP1 SLOAD SWAP1 PUSH2 0x100 EXP SWAP1 DIV PUSH20 0xFFFFFFFFFFFFFFFFFFFFFFFFFFFFFFFFFFFFFFFF AND DUP2 PUSH1 0x0 ADD PUSH1 0x0 PUSH2 0x100 EXP DUP2 SLOAD DUP2 PUSH20 0xFFFFFFFFFFFFFFFFFFFFFFFFFFFFFFFFFFFFFFFF MUL NOT AND SWAP1 DUP4 PUSH20 0xFFFFFFFFFFFFFFFFFFFFFFFFFFFFFFFFFFFFFFFF AND MUL OR SWAP1 SSTORE POP PUSH1 0x1 DUP3 ADD DUP2 PUSH1 0x1 ADD SWAP1 DUP1 SLOAD PUSH2 0x17C3 SWAP1 PUSH2 0x59C8 JUMP JUMPDEST PUSH2 0x17CE SWAP3 SWAP2 SWAP1 PUSH2 0x5030 JUMP JUMPDEST POP PUSH1 0x2 DUP3 ADD DUP2 PUSH1 0x2 ADD SWAP1 DUP1 SLOAD PUSH2 0x17E3 SWAP1 PUSH2 0x59C8 JUMP JUMPDEST PUSH2 0x17EE SWAP3 SWAP2 SWAP1 PUSH2 0x5030 JUMP JUMPDEST POP POP POP PUSH1 0xC DUP3 ADD DUP2 PUSH1 0xC ADD PUSH1 0x0 DUP3 ADD DUP2 PUSH1 0x0 ADD SWAP1 DUP1 SLOAD PUSH2 0x180D SWAP1 PUSH2 0x59C8 JUMP JUMPDEST PUSH2 0x1818 SWAP3 SWAP2 SWAP1 PUSH2 0x5030 JUMP JUMPDEST POP PUSH1 0x1 DUP3 ADD SLOAD DUP2 PUSH1 0x1 ADD SSTORE PUSH1 0x2 DUP3 ADD SLOAD DUP2 PUSH1 0x2 ADD SSTORE PUSH1 0x3 DUP3 ADD DUP2 PUSH1 0x3 ADD SWAP1 DUP1 SLOAD PUSH2 0x1841 SWAP1 PUSH2 0x59C8 JUMP JUMPDEST PUSH2 0x184C SWAP3 SWAP2 SWAP1 PUSH2 0x5030 JUMP JUMPDEST POP POP POP PUSH1 0x10 DUP3 ADD DUP2 PUSH1 0x10 ADD PUSH1 0x0 DUP3 ADD PUSH1 0x0 SWAP1 SLOAD SWAP1 PUSH2 0x100 EXP SWAP1 DIV PUSH20 0xFFFFFFFFFFFFFFFFFFFFFFFFFFFFFFFFFFFFFFFF AND DUP2 PUSH1 0x0 ADD PUSH1 0x0 PUSH2 0x100 EXP DUP2 SLOAD DUP2 PUSH20 0xFFFFFFFFFFFFFFFFFFFFFFFFFFFFFFFFFFFFFFFF MUL NOT AND SWAP1 DUP4 PUSH20 0xFFFFFFFFFFFFFFFFFFFFFFFFFFFFFFFFFFFFFFFF AND MUL OR SWAP1 SSTORE POP PUSH1 0x1 DUP3 ADD DUP2 PUSH1 0x1 ADD SWAP1 DUP1 SLOAD PUSH2 0x18D2 SWAP1 PUSH2 0x59C8 JUMP JUMPDEST PUSH2 0x18DD SWAP3 SWAP2 SWAP1 PUSH2 0x5030 JUMP JUMPDEST POP PUSH1 0x2 DUP3 ADD DUP2 PUSH1 0x2 ADD SWAP1 DUP1 SLOAD PUSH2 0x18F2 SWAP1 PUSH2 0x59C8 JUMP JUMPDEST PUSH2 0x18FD SWAP3 SWAP2 SWAP1 PUSH2 0x5030 JUMP JUMPDEST POP POP POP PUSH1 0x13 DUP3 ADD PUSH1 0x0 SWAP1 SLOAD SWAP1 PUSH2 0x100 EXP SWAP1 DIV PUSH20 0xFFFFFFFFFFFFFFFFFFFFFFFFFFFFFFFFFFFFFFFF AND DUP2 PUSH1 0x13 ADD PUSH1 0x0 PUSH2 0x100 EXP DUP2 SLOAD DUP2 PUSH20 0xFFFFFFFFFFFFFFFFFFFFFFFFFFFFFFFFFFFFFFFF MUL NOT AND SWAP1 DUP4 PUSH20 0xFFFFFFFFFFFFFFFFFFFFFFFFFFFFFFFFFFFFFFFF AND MUL OR SWAP1 SSTORE POP PUSH1 0x14 DUP3 ADD DUP2 PUSH1 0x14 ADD SWAP1 DUP1 SLOAD PUSH2 0x197B SWAP1 PUSH2 0x59C8 JUMP JUMPDEST PUSH2 0x1986 SWAP3 SWAP2 SWAP1 PUSH2 0x5030 JUMP JUMPDEST POP POP POP PUSH32 0xA22971300BA7D9CA2113CF57C3238CDE86A32CFBA0C31A13AD86A23BDE3FACF2 DUP6 PUSH1 0x40 MLOAD PUSH2 0x19B8 SWAP2 SWAP1 PUSH2 0x56D5 JUMP JUMPDEST PUSH1 0x40 MLOAD DUP1 SWAP2 SUB SWAP1 LOG1 POP POP POP POP POP JUMP JUMPDEST PUSH1 0x0 PUSH1 0x4 PUSH1 0x0 DUP4 DUP2 MSTORE PUSH1 0x20 ADD SWAP1 DUP2 MSTORE PUSH1 0x20 ADD PUSH1 0x0 KECCAK256 PUSH1 0x0 ADD DUP1 SLOAD SWAP1 POP SWAP1 POP SWAP2 SWAP1 POP JUMP JUMPDEST PUSH1 0x0 PUSH20 0xFFFFFFFFFFFFFFFFFFFFFFFFFFFFFFFFFFFFFFFF AND DUP2 PUSH20 0xFFFFFFFFFFFFFFFFFFFFFFFFFFFFFFFFFFFFFFFF AND EQ ISZERO PUSH2 0x1A24 JUMPI PUSH1 0x0 DUP1 REVERT JUMPDEST PUSH2 0x1A2D DUP2 PUSH2 0x45F5 JUMP JUMPDEST ISZERO PUSH2 0x1A37 JUMPI PUSH1 0x0 DUP1 REVERT JUMPDEST PUSH1 0x1 PUSH1 0x5 PUSH1 0x0 DUP4 PUSH20 0xFFFFFFFFFFFFFFFFFFFFFFFFFFFFFFFFFFFFFFFF AND PUSH20 0xFFFFFFFFFFFFFFFFFFFFFFFFFFFFFFFFFFFFFFFF AND DUP2 MSTORE PUSH1 0x20 ADD SWAP1 DUP2 MSTORE PUSH1 0x20 ADD PUSH1 0x0 KECCAK256 PUSH1 0x0 ADD PUSH1 0x3 PUSH2 0x100 EXP DUP2 SLOAD DUP2 PUSH1 0xFF MUL NOT AND SWAP1 DUP4 ISZERO ISZERO MUL OR SWAP1 SSTORE POP POP JUMP JUMPDEST PUSH1 0x0 PUSH20 0xFFFFFFFFFFFFFFFFFFFFFFFFFFFFFFFFFFFFFFFF AND DUP2 PUSH20 0xFFFFFFFFFFFFFFFFFFFFFFFFFFFFFFFFFFFFFFFF AND EQ ISZERO PUSH2 0x1ACF JUMPI PUSH1 0x0 DUP1 REVERT JUMPDEST PUSH2 0x1AD8 DUP2 PUSH2 0x4563 JUMP JUMPDEST ISZERO PUSH2 0x1AE2 JUMPI PUSH1 0x0 DUP1 REVERT JUMPDEST PUSH1 0x1 PUSH1 0x5 PUSH1 0x0 DUP4 PUSH20 0xFFFFFFFFFFFFFFFFFFFFFFFFFFFFFFFFFFFFFFFF AND PUSH20 0xFFFFFFFFFFFFFFFFFFFFFFFFFFFFFFFFFFFFFFFF AND DUP2 MSTORE PUSH1 0x20 ADD SWAP1 DUP2 MSTORE PUSH1 0x20 ADD PUSH1 0x0 KECCAK256 PUSH1 0x0 ADD PUSH1 0x1 PUSH2 0x100 EXP DUP2 SLOAD DUP2 PUSH1 0xFF MUL NOT AND SWAP1 DUP4 ISZERO ISZERO MUL OR SWAP1 SSTORE POP POP JUMP JUMPDEST PUSH1 0x0 DUP1 PUSH20 0xFFFFFFFFFFFFFFFFFFFFFFFFFFFFFFFFFFFFFFFF AND DUP3 PUSH20 0xFFFFFFFFFFFFFFFFFFFFFFFFFFFFFFFFFFFFFFFF AND EQ ISZERO PUSH2 0x1B7B JUMPI PUSH1 0x0 DUP1 REVERT JUMPDEST PUSH1 0x5 PUSH1 0x0 DUP4 PUSH20 0xFFFFFFFFFFFFFFFFFFFFFFFFFFFFFFFFFFFFFFFF AND PUSH20 0xFFFFFFFFFFFFFFFFFFFFFFFFFFFFFFFFFFFFFFFF AND DUP2 MSTORE PUSH1 0x20 ADD SWAP1 DUP2 MSTORE PUSH1 0x20 ADD PUSH1 0x0 KECCAK256 PUSH1 0x0 ADD PUSH1 0x0 SWAP1 SLOAD SWAP1 PUSH2 0x100 EXP SWAP1 DIV PUSH1 0xFF AND SWAP1 POP SWAP2 SWAP1 POP JUMP JUMPDEST PUSH1 0x0 DUP1 PUSH1 0x0 DUP1 PUSH1 0x60 DUP1 PUSH1 0x60 DUP1 PUSH1 0x0 PUSH1 0x3 PUSH1 0x0 DUP14 DUP2 MSTORE PUSH1 0x20 ADD SWAP1 DUP2 MSTORE PUSH1 0x20 ADD PUSH1 0x0 KECCAK256 PUSH1 0x0 ADD SLOAD EQ ISZERO PUSH2 0x1C02 JUMPI PUSH1 0x0 DUP1 REVERT JUMPDEST PUSH1 0x0 PUSH1 0x3 PUSH1 0x0 DUP14 DUP2 MSTORE PUSH1 0x20 ADD SWAP1 DUP2 MSTORE PUSH1 0x20 ADD PUSH1 0x0 KECCAK256 SWAP1 POP PUSH1 0x40 MLOAD DUP1 PUSH1 0x40 ADD PUSH1 0x40 MSTORE DUP1 PUSH1 0x7 DUP2 MSTORE PUSH1 0x20 ADD PUSH32 0x70726F6475637400000000000000000000000000000000000000000000000000 DUP2 MSTORE POP DUP1 MLOAD SWAP1 PUSH1 0x20 ADD KECCAK256 DUP12 DUP1 MLOAD SWAP1 PUSH1 0x20 ADD KECCAK256 EQ ISZERO PUSH2 0x1C7A JUMPI PUSH1 0x3 PUSH1 0x0 DUP14 DUP2 MSTORE PUSH1 0x20 ADD SWAP1 DUP2 MSTORE PUSH1 0x20 ADD PUSH1 0x0 KECCAK256 SWAP1 POP JUMPDEST PUSH1 0x40 MLOAD DUP1 PUSH1 0x40 ADD PUSH1 0x40 MSTORE DUP1 PUSH1 0x7 DUP2 MSTORE PUSH1 0x20 ADD PUSH32 0x686973746F727900000000000000000000000000000000000000000000000000 DUP2 MSTORE POP DUP1 MLOAD SWAP1 PUSH1 0x20 ADD KECCAK256 DUP12 DUP1 MLOAD SWAP1 PUSH1 0x20 ADD KECCAK256 EQ ISZERO PUSH2 0x1CFE JUMPI PUSH1 0x4 PUSH1 0x0 DUP14 DUP2 MSTORE PUSH1 0x20 ADD SWAP1 DUP2 MSTORE PUSH1 0x20 ADD PUSH1 0x0 KECCAK256 PUSH1 0x0 ADD DUP11 DUP2 SLOAD DUP2 LT PUSH2 0x1CED JUMPI PUSH2 0x1CEC PUSH2 0x5B01 JUMP JUMPDEST JUMPDEST SWAP1 PUSH1 0x0 MSTORE PUSH1 0x20 PUSH1 0x0 KECCAK256 SWAP1 PUSH1 0x15 MUL ADD SWAP1 POP JUMPDEST DUP1 PUSH1 0x0 ADD SLOAD DUP2 PUSH1 0x1 ADD SLOAD DUP3 PUSH1 0x2 ADD PUSH1 0x0 SWAP1 SLOAD SWAP1 PUSH2 0x100 EXP SWAP1 DIV PUSH20 0xFFFFFFFFFFFFFFFFFFFFFFFFFFFFFFFFFFFFFFFF AND DUP4 PUSH1 0x3 ADD PUSH1 0x0 ADD PUSH1 0x0 SWAP1 SLOAD SWAP1 PUSH2 0x100 EXP SWAP1 DIV PUSH20 0xFFFFFFFFFFFFFFFFFFFFFFFFFFFFFFFFFFFFFFFF AND DUP5 PUSH1 0x3 ADD PUSH1 0x1 ADD DUP6 PUSH1 0x3 ADD PUSH1 0x2 ADD DUP7 PUSH1 0x3 ADD PUSH1 0x3 ADD DUP8 PUSH1 0x3 ADD PUSH1 0x4 ADD DUP4 DUP1 SLOAD PUSH2 0x1D7D SWAP1 PUSH2 0x59C8 JUMP JUMPDEST DUP1 PUSH1 0x1F ADD PUSH1 0x20 DUP1 SWAP2 DIV MUL PUSH1 0x20 ADD PUSH1 0x40 MLOAD SWAP1 DUP2 ADD PUSH1 0x40 MSTORE DUP1 SWAP3 SWAP2 SWAP1 DUP2 DUP2 MSTORE PUSH1 0x20 ADD DUP3 DUP1 SLOAD PUSH2 0x1DA9 SWAP1 PUSH2 0x59C8 JUMP JUMPDEST DUP1 ISZERO PUSH2 0x1DF6 JUMPI DUP1 PUSH1 0x1F LT PUSH2 0x1DCB JUMPI PUSH2 0x100 DUP1 DUP4 SLOAD DIV MUL DUP4 MSTORE SWAP2 PUSH1 0x20 ADD SWAP2 PUSH2 0x1DF6 JUMP JUMPDEST DUP3 ADD SWAP2 SWAP1 PUSH1 0x0 MSTORE PUSH1 0x20 PUSH1 0x0 KECCAK256 SWAP1 JUMPDEST DUP2 SLOAD DUP2 MSTORE SWAP1 PUSH1 0x1 ADD SWAP1 PUSH1 0x20 ADD DUP1 DUP4 GT PUSH2 0x1DD9 JUMPI DUP3 SWAP1 SUB PUSH1 0x1F AND DUP3 ADD SWAP2 JUMPDEST POP POP POP POP POP SWAP4 POP DUP3 DUP1 SLOAD PUSH2 0x1E09 SWAP1 PUSH2 0x59C8 JUMP JUMPDEST DUP1 PUSH1 0x1F ADD PUSH1 0x20 DUP1 SWAP2 DIV MUL PUSH1 0x20 ADD PUSH1 0x40 MLOAD SWAP1 DUP2 ADD PUSH1 0x40 MSTORE DUP1 SWAP3 SWAP2 SWAP1 DUP2 DUP2 MSTORE PUSH1 0x20 ADD DUP3 DUP1 SLOAD PUSH2 0x1E35 SWAP1 PUSH2 0x59C8 JUMP JUMPDEST DUP1 ISZERO PUSH2 0x1E82 JUMPI DUP1 PUSH1 0x1F LT PUSH2 0x1E57 JUMPI PUSH2 0x100 DUP1 DUP4 SLOAD DIV MUL DUP4 MSTORE SWAP2 PUSH1 0x20 ADD SWAP2 PUSH2 0x1E82 JUMP JUMPDEST DUP3 ADD SWAP2 SWAP1 PUSH1 0x0 MSTORE PUSH1 0x20 PUSH1 0x0 KECCAK256 SWAP1 JUMPDEST DUP2 SLOAD DUP2 MSTORE SWAP1 PUSH1 0x1 ADD SWAP1 PUSH1 0x20 ADD DUP1 DUP4 GT PUSH2 0x1E65 JUMPI DUP3 SWAP1 SUB PUSH1 0x1F AND DUP3 ADD SWAP2 JUMPDEST POP POP POP POP POP SWAP3 POP DUP2 DUP1 SLOAD PUSH2 0x1E95 SWAP1 PUSH2 0x59C8 JUMP JUMPDEST DUP1 PUSH1 0x1F ADD PUSH1 0x20 DUP1 SWAP2 DIV MUL PUSH1 0x20 ADD PUSH1 0x40 MLOAD SWAP1 DUP2 ADD PUSH1 0x40 MSTORE DUP1 SWAP3 SWAP2 SWAP1 DUP2 DUP2 MSTORE PUSH1 0x20 ADD DUP3 DUP1 SLOAD PUSH2 0x1EC1 SWAP1 PUSH2 0x59C8 JUMP JUMPDEST DUP1 ISZERO PUSH2 0x1F0E JUMPI DUP1 PUSH1 0x1F LT PUSH2 0x1EE3 JUMPI PUSH2 0x100 DUP1 DUP4 SLOAD DIV MUL DUP4 MSTORE SWAP2 PUSH1 0x20 ADD SWAP2 PUSH2 0x1F0E JUMP JUMPDEST DUP3 ADD SWAP2 SWAP1 PUSH1 0x0 MSTORE PUSH1 0x20 PUSH1 0x0 KECCAK256 SWAP1 JUMPDEST DUP2 SLOAD DUP2 MSTORE SWAP1 PUSH1 0x1 ADD SWAP1 PUSH1 0x20 ADD DUP1 DUP4 GT PUSH2 0x1EF1 JUMPI DUP3 SWAP1 SUB PUSH1 0x1F AND DUP3 ADD SWAP2 JUMPDEST POP POP POP POP POP SWAP2 POP DUP1 DUP1 SLOAD PUSH2 0x1F21 SWAP1 PUSH2 0x59C8 JUMP JUMPDEST DUP1 PUSH1 0x1F ADD PUSH1 0x20 DUP1 SWAP2 DIV MUL PUSH1 0x20 ADD PUSH1 0x40 MLOAD SWAP1 DUP2 ADD PUSH1 0x40 MSTORE DUP1 SWAP3 SWAP2 SWAP1 DUP2 DUP2 MSTORE PUSH1 0x20 ADD DUP3 DUP1 SLOAD PUSH2 0x1F4D SWAP1 PUSH2 0x59C8 JUMP JUMPDEST DUP1 ISZERO PUSH2 0x1F9A JUMPI DUP1 PUSH1 0x1F LT PUSH2 0x1F6F JUMPI PUSH2 0x100 DUP1 DUP4 SLOAD DIV MUL DUP4 MSTORE SWAP2 PUSH1 0x20 ADD SWAP2 PUSH2 0x1F9A JUMP JUMPDEST DUP3 ADD SWAP2 SWAP1 PUSH1 0x0 MSTORE PUSH1 0x20 PUSH1 0x0 KECCAK256 SWAP1 JUMPDEST DUP2 SLOAD DUP2 MSTORE SWAP1 PUSH1 0x1 ADD SWAP1 PUSH1 0x20 ADD DUP1 DUP4 GT PUSH2 0x1F7D JUMPI DUP3 SWAP1 SUB PUSH1 0x1F AND DUP3 ADD SWAP2 JUMPDEST POP POP POP POP POP SWAP1 POP SWAP9 POP SWAP9 POP SWAP9 POP SWAP9 POP SWAP9 POP SWAP9 POP SWAP9 POP SWAP9 POP POP SWAP4 SWAP8 POP SWAP4 SWAP8 POP SWAP4 SWAP8 POP SWAP4 SWAP8 JUMP JUMPDEST DUP1 PUSH1 0x6 PUSH1 0x8 DUP2 GT ISZERO PUSH2 0x1FD4 JUMPI PUSH2 0x1FD3 PUSH2 0x5AA3 JUMP JUMPDEST JUMPDEST PUSH1 0x3 PUSH1 0x0 DUP4 DUP2 MSTORE PUSH1 0x20 ADD SWAP1 DUP2 MSTORE PUSH1 0x20 ADD PUSH1 0x0 KECCAK256 PUSH1 0x2 ADD PUSH1 0x14 SWAP1 SLOAD SWAP1 PUSH2 0x100 EXP SWAP1 DIV PUSH1 0xFF AND PUSH1 0x8 DUP2 GT ISZERO PUSH2 0x200A JUMPI PUSH2 0x2009 PUSH2 0x5AA3 JUMP JUMPDEST JUMPDEST EQ PUSH2 0x2014 JUMPI PUSH1 0x0 DUP1 REVERT JUMPDEST PUSH1 0x3 PUSH1 0x0 DUP4 DUP2 MSTORE PUSH1 0x20 ADD SWAP1 DUP2 MSTORE PUSH1 0x20 ADD PUSH1 0x0 KECCAK256 PUSH1 0x2 ADD PUSH1 0x0 SWAP1 SLOAD SWAP1 PUSH2 0x100 EXP SWAP1 DIV PUSH20 0xFFFFFFFFFFFFFFFFFFFFFFFFFFFFFFFFFFFFFFFF AND DUP1 PUSH20 0xFFFFFFFFFFFFFFFFFFFFFFFFFFFFFFFFFFFFFFFF AND CALLER PUSH20 0xFFFFFFFFFFFFFFFFFFFFFFFFFFFFFFFFFFFFFFFF AND EQ PUSH2 0x2083 JUMPI PUSH1 0x0 DUP1 REVERT JUMPDEST PUSH1 0x3 PUSH1 0x0 DUP5 DUP2 MSTORE PUSH1 0x20 ADD SWAP1 DUP2 MSTORE PUSH1 0x20 ADD PUSH1 0x0 KECCAK256 PUSH1 0x10 ADD PUSH1 0x0 ADD PUSH1 0x0 SWAP1 SLOAD SWAP1 PUSH2 0x100 EXP SWAP1 DIV PUSH20 0xFFFFFFFFFFFFFFFFFFFFFFFFFFFFFFFFFFFFFFFF AND DUP1 PUSH20 0xFFFFFFFFFFFFFFFFFFFFFFFFFFFFFFFFFFFFFFFF AND CALLER PUSH20 0xFFFFFFFFFFFFFFFFFFFFFFFFFFFFFFFFFFFFFFFF AND EQ PUSH2 0x20F5 JUMPI PUSH1 0x0 DUP1 REVERT JUMPDEST PUSH2 0x20FE CALLER PUSH2 0x45F5 JUMP JUMPDEST PUSH2 0x2107 JUMPI PUSH1 0x0 DUP1 REVERT JUMPDEST PUSH1 0x7 PUSH1 0x3 PUSH1 0x0 DUP7 DUP2 MSTORE PUSH1 0x20 ADD SWAP1 DUP2 MSTORE PUSH1 0x20 ADD PUSH1 0x0 KECCAK256 PUSH1 0x2 ADD PUSH1 0x14 PUSH2 0x100 EXP DUP2 SLOAD DUP2 PUSH1 0xFF MUL NOT AND SWAP1 DUP4 PUSH1 0x8 DUP2 GT ISZERO PUSH2 0x2141 JUMPI PUSH2 0x2140 PUSH2 0x5AA3 JUMP JUMPDEST JUMPDEST MUL OR SWAP1 SSTORE POP PUSH1 0x4 PUSH1 0x0 DUP6 DUP2 MSTORE PUSH1 0x20 ADD SWAP1 DUP2 MSTORE PUSH1 0x20 ADD PUSH1 0x0 KECCAK256 PUSH1 0x0 ADD PUSH1 0x3 PUSH1 0x0 DUP7 DUP2 MSTORE PUSH1 0x20 ADD SWAP1 DUP2 MSTORE PUSH1 0x20 ADD PUSH1 0x0 KECCAK256 SWAP1 DUP1 PUSH1 0x1 DUP2 SLOAD ADD DUP1 DUP3 SSTORE DUP1 SWAP2 POP POP PUSH1 0x1 SWAP1 SUB SWAP1 PUSH1 0x0 MSTORE PUSH1 0x20 PUSH1 0x0 KECCAK256 SWAP1 PUSH1 0x15 MUL ADD PUSH1 0x0 SWAP1 SWAP2 SWAP1 SWAP2 SWAP1 SWAP2 POP PUSH1 0x0 DUP3 ADD SLOAD DUP2 PUSH1 0x0 ADD SSTORE PUSH1 0x1 DUP3 ADD SLOAD DUP2 PUSH1 0x1 ADD SSTORE PUSH1 0x2 DUP3 ADD PUSH1 0x0 SWAP1 SLOAD SWAP1 PUSH2 0x100 EXP SWAP1 DIV PUSH20 0xFFFFFFFFFFFFFFFFFFFFFFFFFFFFFFFFFFFFFFFF AND DUP2 PUSH1 0x2 ADD PUSH1 0x0 PUSH2 0x100 EXP DUP2 SLOAD DUP2 PUSH20 0xFFFFFFFFFFFFFFFFFFFFFFFFFFFFFFFFFFFFFFFF MUL NOT AND SWAP1 DUP4 PUSH20 0xFFFFFFFFFFFFFFFFFFFFFFFFFFFFFFFFFFFFFFFF AND MUL OR SWAP1 SSTORE POP PUSH1 0x2 DUP3 ADD PUSH1 0x14 SWAP1 SLOAD SWAP1 PUSH2 0x100 EXP SWAP1 DIV PUSH1 0xFF AND DUP2 PUSH1 0x2 ADD PUSH1 0x14 PUSH2 0x100 EXP DUP2 SLOAD DUP2 PUSH1 0xFF MUL NOT AND SWAP1 DUP4 PUSH1 0x8 DUP2 GT ISZERO PUSH2 0x224B JUMPI PUSH2 0x224A PUSH2 0x5AA3 JUMP JUMPDEST JUMPDEST MUL OR SWAP1 SSTORE POP PUSH1 0x3 DUP3 ADD DUP2 PUSH1 0x3 ADD PUSH1 0x0 DUP3 ADD PUSH1 0x0 SWAP1 SLOAD SWAP1 PUSH2 0x100 EXP SWAP1 DIV PUSH20 0xFFFFFFFFFFFFFFFFFFFFFFFFFFFFFFFFFFFFFFFF AND DUP2 PUSH1 0x0 ADD PUSH1 0x0 PUSH2 0x100 EXP DUP2 SLOAD DUP2 PUSH20 0xFFFFFFFFFFFFFFFFFFFFFFFFFFFFFFFFFFFFFFFF MUL NOT AND SWAP1 DUP4 PUSH20 0xFFFFFFFFFFFFFFFFFFFFFFFFFFFFFFFFFFFFFFFF AND MUL OR SWAP1 SSTORE POP PUSH1 0x1 DUP3 ADD DUP2 PUSH1 0x1 ADD SWAP1 DUP1 SLOAD PUSH2 0x22D3 SWAP1 PUSH2 0x59C8 JUMP JUMPDEST PUSH2 0x22DE SWAP3 SWAP2 SWAP1 PUSH2 0x5030 JUMP JUMPDEST POP PUSH1 0x2 DUP3 ADD DUP2 PUSH1 0x2 ADD SWAP1 DUP1 SLOAD PUSH2 0x22F3 SWAP1 PUSH2 0x59C8 JUMP JUMPDEST PUSH2 0x22FE SWAP3 SWAP2 SWAP1 PUSH2 0x5030 JUMP JUMPDEST POP PUSH1 0x3 DUP3 ADD DUP2 PUSH1 0x3 ADD SWAP1 DUP1 SLOAD PUSH2 0x2313 SWAP1 PUSH2 0x59C8 JUMP JUMPDEST PUSH2 0x231E SWAP3 SWAP2 SWAP1 PUSH2 0x5030 JUMP JUMPDEST POP PUSH1 0x4 DUP3 ADD DUP2 PUSH1 0x4 ADD SWAP1 DUP1 SLOAD PUSH2 0x2333 SWAP1 PUSH2 0x59C8 JUMP JUMPDEST PUSH2 0x233E SWAP3 SWAP2 SWAP1 PUSH2 0x5030 JUMP JUMPDEST POP PUSH1 0x5 DUP3 ADD SLOAD DUP2 PUSH1 0x5 ADD SSTORE POP POP PUSH1 0x9 DUP3 ADD DUP2 PUSH1 0x9 ADD PUSH1 0x0 DUP3 ADD PUSH1 0x0 SWAP1 SLOAD SWAP1 PUSH2 0x100 EXP SWAP1 DIV PUSH20 0xFFFFFFFFFFFFFFFFFFFFFFFFFFFFFFFFFFFFFFFF AND DUP2 PUSH1 0x0 ADD PUSH1 0x0 PUSH2 0x100 EXP DUP2 SLOAD DUP2 PUSH20 0xFFFFFFFFFFFFFFFFFFFFFFFFFFFFFFFFFFFFFFFF MUL NOT AND SWAP1 DUP4 PUSH20 0xFFFFFFFFFFFFFFFFFFFFFFFFFFFFFFFFFFFFFFFF AND MUL OR SWAP1 SSTORE POP PUSH1 0x1 DUP3 ADD DUP2 PUSH1 0x1 ADD SWAP1 DUP1 SLOAD PUSH2 0x23CE SWAP1 PUSH2 0x59C8 JUMP JUMPDEST PUSH2 0x23D9 SWAP3 SWAP2 SWAP1 PUSH2 0x5030 JUMP JUMPDEST POP PUSH1 0x2 DUP3 ADD DUP2 PUSH1 0x2 ADD SWAP1 DUP1 SLOAD PUSH2 0x23EE SWAP1 PUSH2 0x59C8 JUMP JUMPDEST PUSH2 0x23F9 SWAP3 SWAP2 SWAP1 PUSH2 0x5030 JUMP JUMPDEST POP POP POP PUSH1 0xC DUP3 ADD DUP2 PUSH1 0xC ADD PUSH1 0x0 DUP3 ADD DUP2 PUSH1 0x0 ADD SWAP1 DUP1 SLOAD PUSH2 0x2418 SWAP1 PUSH2 0x59C8 JUMP JUMPDEST PUSH2 0x2423 SWAP3 SWAP2 SWAP1 PUSH2 0x5030 JUMP JUMPDEST POP PUSH1 0x1 DUP3 ADD SLOAD DUP2 PUSH1 0x1 ADD SSTORE PUSH1 0x2 DUP3 ADD SLOAD DUP2 PUSH1 0x2 ADD SSTORE PUSH1 0x3 DUP3 ADD DUP2 PUSH1 0x3 ADD SWAP1 DUP1 SLOAD PUSH2 0x244C SWAP1 PUSH2 0x59C8 JUMP JUMPDEST PUSH2 0x2457 SWAP3 SWAP2 SWAP1 PUSH2 0x5030 JUMP JUMPDEST POP POP POP PUSH1 0x10 DUP3 ADD DUP2 PUSH1 0x10 ADD PUSH1 0x0 DUP3 ADD PUSH1 0x0 SWAP1 SLOAD SWAP1 PUSH2 0x100 EXP SWAP1 DIV PUSH20 0xFFFFFFFFFFFFFFFFFFFFFFFFFFFFFFFFFFFFFFFF AND DUP2 PUSH1 0x0 ADD PUSH1 0x0 PUSH2 0x100 EXP DUP2 SLOAD DUP2 PUSH20 0xFFFFFFFFFFFFFFFFFFFFFFFFFFFFFFFFFFFFFFFF MUL NOT AND SWAP1 DUP4 PUSH20 0xFFFFFFFFFFFFFFFFFFFFFFFFFFFFFFFFFFFFFFFF AND MUL OR SWAP1 SSTORE POP PUSH1 0x1 DUP3 ADD DUP2 PUSH1 0x1 ADD SWAP1 DUP1 SLOAD PUSH2 0x24DD SWAP1 PUSH2 0x59C8 JUMP JUMPDEST PUSH2 0x24E8 SWAP3 SWAP2 SWAP1 PUSH2 0x5030 JUMP JUMPDEST POP PUSH1 0x2 DUP3 ADD DUP2 PUSH1 0x2 ADD SWAP1 DUP1 SLOAD PUSH2 0x24FD SWAP1 PUSH2 0x59C8 JUMP JUMPDEST PUSH2 0x2508 SWAP3 SWAP2 SWAP1 PUSH2 0x5030 JUMP JUMPDEST POP POP POP PUSH1 0x13 DUP3 ADD PUSH1 0x0 SWAP1 SLOAD SWAP1 PUSH2 0x100 EXP SWAP1 DIV PUSH20 0xFFFFFFFFFFFFFFFFFFFFFFFFFFFFFFFFFFFFFFFF AND DUP2 PUSH1 0x13 ADD PUSH1 0x0 PUSH2 0x100 EXP DUP2 SLOAD DUP2 PUSH20 0xFFFFFFFFFFFFFFFFFFFFFFFFFFFFFFFFFFFFFFFF MUL NOT AND SWAP1 DUP4 PUSH20 0xFFFFFFFFFFFFFFFFFFFFFFFFFFFFFFFFFFFFFFFF AND MUL OR SWAP1 SSTORE POP PUSH1 0x14 DUP3 ADD DUP2 PUSH1 0x14 ADD SWAP1 DUP1 SLOAD PUSH2 0x2586 SWAP1 PUSH2 0x59C8 JUMP JUMPDEST PUSH2 0x2591 SWAP3 SWAP2 SWAP1 PUSH2 0x5030 JUMP JUMPDEST POP POP POP PUSH32 0x9A96442E96AC96BA57E48273F290BF3BB9C6B0B2C86843CC4BF2353119918FDF DUP5 PUSH1 0x40 MLOAD PUSH2 0x25C3 SWAP2 SWAP1 PUSH2 0x56D5 JUMP JUMPDEST PUSH1 0x40 MLOAD DUP1 SWAP2 SUB SWAP1 LOG1 POP POP POP POP JUMP JUMPDEST PUSH1 0x0 PUSH1 0x60 PUSH1 0x0 DUP1 PUSH1 0x60 PUSH1 0x0 DUP1 PUSH1 0x60 PUSH1 0x0 PUSH1 0x3 PUSH1 0x0 DUP14 DUP2 MSTORE PUSH1 0x20 ADD SWAP1 DUP2 MSTORE PUSH1 0x20 ADD PUSH1 0x0 KECCAK256 PUSH1 0x0 ADD SLOAD EQ ISZERO PUSH2 0x2603 JUMPI PUSH1 0x0 DUP1 REVERT JUMPDEST PUSH1 0x0 PUSH1 0x3 PUSH1 0x0 DUP14 DUP2 MSTORE PUSH1 0x20 ADD SWAP1 DUP2 MSTORE PUSH1 0x20 ADD PUSH1 0x0 KECCAK256 SWAP1 POP PUSH1 0x40 MLOAD DUP1 PUSH1 0x40 ADD PUSH1 0x40 MSTORE DUP1 PUSH1 0x7 DUP2 MSTORE PUSH1 0x20 ADD PUSH32 0x70726F6475637400000000000000000000000000000000000000000000000000 DUP2 MSTORE POP DUP1 MLOAD SWAP1 PUSH1 0x20 ADD KECCAK256 DUP12 DUP1 MLOAD SWAP1 PUSH1 0x20 ADD KECCAK256 EQ ISZERO PUSH2 0x267B JUMPI PUSH1 0x3 PUSH1 0x0 DUP14 DUP2 MSTORE PUSH1 0x20 ADD SWAP1 DUP2 MSTORE PUSH1 0x20 ADD PUSH1 0x0 KECCAK256 SWAP1 POP JUMPDEST PUSH1 0x40 MLOAD DUP1 PUSH1 0x40 ADD PUSH1 0x40 MSTORE DUP1 PUSH1 0x7 DUP2 MSTORE PUSH1 0x20 ADD PUSH32 0x686973746F727900000000000000000000000000000000000000000000000000 DUP2 MSTORE POP DUP1 MLOAD SWAP1 PUSH1 0x20 ADD KECCAK256 DUP12 DUP1 MLOAD SWAP1 PUSH1 0x20 ADD KECCAK256 EQ ISZERO PUSH2 0x26FF JUMPI PUSH1 0x4 PUSH1 0x0 DUP14 DUP2 MSTORE PUSH1 0x20 ADD SWAP1 DUP2 MSTORE PUSH1 0x20 ADD PUSH1 0x0 KECCAK256 PUSH1 0x0 ADD DUP11 DUP2 SLOAD DUP2 LT PUSH2 0x26EE JUMPI PUSH2 0x26ED PUSH2 0x5B01 JUMP JUMPDEST JUMPDEST SWAP1 PUSH1 0x0 MSTORE PUSH1 0x20 PUSH1 0x0 KECCAK256 SWAP1 PUSH1 0x15 MUL ADD SWAP1 POP JUMPDEST DUP1 PUSH1 0x3 ADD PUSH1 0x5 ADD SLOAD DUP2 PUSH1 0xC ADD PUSH1 0x0 ADD DUP3 PUSH1 0xC ADD PUSH1 0x1 ADD SLOAD DUP4 PUSH1 0xC ADD PUSH1 0x2 ADD SLOAD DUP5 PUSH1 0xC ADD PUSH1 0x3 ADD DUP6 PUSH1 0x2 ADD PUSH1 0x14 SWAP1 SLOAD SWAP1 PUSH2 0x100 EXP SWAP1 DIV PUSH1 0xFF AND DUP7 PUSH1 0x9 ADD PUSH1 0x0 ADD PUSH1 0x0 SWAP1 SLOAD SWAP1 PUSH2 0x100 EXP SWAP1 DIV PUSH20 0xFFFFFFFFFFFFFFFFFFFFFFFFFFFFFFFFFFFFFFFF AND DUP8 PUSH1 0x9 ADD PUSH1 0x1 ADD DUP7 DUP1 SLOAD PUSH2 0x2772 SWAP1 PUSH2 0x59C8 JUMP JUMPDEST DUP1 PUSH1 0x1F ADD PUSH1 0x20 DUP1 SWAP2 DIV MUL PUSH1 0x20 ADD PUSH1 0x40 MLOAD SWAP1 DUP2 ADD PUSH1 0x40 MSTORE DUP1 SWAP3 SWAP2 SWAP1 DUP2 DUP2 MSTORE PUSH1 0x20 ADD DUP3 DUP1 SLOAD PUSH2 0x279E SWAP1 PUSH2 0x59C8 JUMP JUMPDEST DUP1 ISZERO PUSH2 0x27EB JUMPI DUP1 PUSH1 0x1F LT PUSH2 0x27C0 JUMPI PUSH2 0x100 DUP1 DUP4 SLOAD DIV MUL DUP4 MSTORE SWAP2 PUSH1 0x20 ADD SWAP2 PUSH2 0x27EB JUMP JUMPDEST DUP3 ADD SWAP2 SWAP1 PUSH1 0x0 MSTORE PUSH1 0x20 PUSH1 0x0 KECCAK256 SWAP1 JUMPDEST DUP2 SLOAD DUP2 MSTORE SWAP1 PUSH1 0x1 ADD SWAP1 PUSH1 0x20 ADD DUP1 DUP4 GT PUSH2 0x27CE JUMPI DUP3 SWAP1 SUB PUSH1 0x1F AND DUP3 ADD SWAP2 JUMPDEST POP POP POP POP POP SWAP7 POP DUP4 DUP1 SLOAD PUSH2 0x27FE SWAP1 PUSH2 0x59C8 JUMP JUMPDEST DUP1 PUSH1 0x1F ADD PUSH1 0x20 DUP1 SWAP2 DIV MUL PUSH1 0x20 ADD PUSH1 0x40 MLOAD SWAP1 DUP2 ADD PUSH1 0x40 MSTORE DUP1 SWAP3 SWAP2 SWAP1 DUP2 DUP2 MSTORE PUSH1 0x20 ADD DUP3 DUP1 SLOAD PUSH2 0x282A SWAP1 PUSH2 0x59C8 JUMP JUMPDEST DUP1 ISZERO PUSH2 0x2877 JUMPI DUP1 PUSH1 0x1F LT PUSH2 0x284C JUMPI PUSH2 0x100 DUP1 DUP4 SLOAD DIV MUL DUP4 MSTORE SWAP2 PUSH1 0x20 ADD SWAP2 PUSH2 0x2877 JUMP JUMPDEST DUP3 ADD SWAP2 SWAP1 PUSH1 0x0 MSTORE PUSH1 0x20 PUSH1 0x0 KECCAK256 SWAP1 JUMPDEST DUP2 SLOAD DUP2 MSTORE SWAP1 PUSH1 0x1 ADD SWAP1 PUSH1 0x20 ADD DUP1 DUP4 GT PUSH2 0x285A JUMPI DUP3 SWAP1 SUB PUSH1 0x1F AND DUP3 ADD SWAP2 JUMPDEST POP POP POP POP POP SWAP4 POP DUP1 DUP1 SLOAD PUSH2 0x288A SWAP1 PUSH2 0x59C8 JUMP JUMPDEST DUP1 PUSH1 0x1F ADD PUSH1 0x20 DUP1 SWAP2 DIV MUL PUSH1 0x20 ADD PUSH1 0x40 MLOAD SWAP1 DUP2 ADD PUSH1 0x40 MSTORE DUP1 SWAP3 SWAP2 SWAP1 DUP2 DUP2 MSTORE PUSH1 0x20 ADD DUP3 DUP1 SLOAD PUSH2 0x28B6 SWAP1 PUSH2 0x59C8 JUMP JUMPDEST DUP1 ISZERO PUSH2 0x2903 JUMPI DUP1 PUSH1 0x1F LT PUSH2 0x28D8 JUMPI PUSH2 0x100 DUP1 DUP4 SLOAD DIV MUL DUP4 MSTORE SWAP2 PUSH1 0x20 ADD SWAP2 PUSH2 0x2903 JUMP JUMPDEST DUP3 ADD SWAP2 SWAP1 PUSH1 0x0 MSTORE PUSH1 0x20 PUSH1 0x0 KECCAK256 SWAP1 JUMPDEST DUP2 SLOAD DUP2 MSTORE SWAP1 PUSH1 0x1 ADD SWAP1 PUSH1 0x20 ADD DUP1 DUP4 GT PUSH2 0x28E6 JUMPI DUP3 SWAP1 SUB PUSH1 0x1F AND DUP3 ADD SWAP2 JUMPDEST POP POP POP POP POP SWAP1 POP SWAP9 POP SWAP9 POP SWAP9 POP SWAP9 POP SWAP9 POP SWAP9 POP SWAP9 POP SWAP9 POP POP SWAP4 SWAP8 POP SWAP4 SWAP8 POP SWAP4 SWAP8 POP SWAP4 SWAP8 JUMP JUMPDEST DUP1 PUSH1 0x3 PUSH1 0x8 DUP2 GT ISZERO PUSH2 0x293D JUMPI PUSH2 0x293C PUSH2 0x5AA3 JUMP JUMPDEST JUMPDEST PUSH1 0x3 PUSH1 0x0 DUP4 DUP2 MSTORE PUSH1 0x20 ADD SWAP1 DUP2 MSTORE PUSH1 0x20 ADD PUSH1 0x0 KECCAK256 PUSH1 0x2 ADD PUSH1 0x14 SWAP1 SLOAD SWAP1 PUSH2 0x100 EXP SWAP1 DIV PUSH1 0xFF AND PUSH1 0x8 DUP2 GT ISZERO PUSH2 0x2973 JUMPI PUSH2 0x2972 PUSH2 0x5AA3 JUMP JUMPDEST JUMPDEST EQ PUSH2 0x297D JUMPI PUSH1 0x0 DUP1 REVERT JUMPDEST PUSH2 0x2986 CALLER PUSH2 0xD95 JUMP JUMPDEST PUSH2 0x298F JUMPI PUSH1 0x0 DUP1 REVERT JUMPDEST CALLER PUSH1 0x3 PUSH1 0x0 DUP5 DUP2 MSTORE PUSH1 0x20 ADD SWAP1 DUP2 MSTORE PUSH1 0x20 ADD PUSH1 0x0 KECCAK256 PUSH1 0x13 ADD PUSH1 0x0 PUSH2 0x100 EXP DUP2 SLOAD DUP2 PUSH20 0xFFFFFFFFFFFFFFFFFFFFFFFFFFFFFFFFFFFFFFFF MUL NOT AND SWAP1 DUP4 PUSH20 0xFFFFFFFFFFFFFFFFFFFFFFFFFFFFFFFFFFFFFFFF AND MUL OR SWAP1 SSTORE POP PUSH1 0x4 PUSH1 0x3 PUSH1 0x0 DUP5 DUP2 MSTORE PUSH1 0x20 ADD SWAP1 DUP2 MSTORE PUSH1 0x20 ADD PUSH1 0x0 KECCAK256 PUSH1 0x2 ADD PUSH1 0x14 PUSH2 0x100 EXP DUP2 SLOAD DUP2 PUSH1 0xFF MUL NOT AND SWAP1 DUP4 PUSH1 0x8 DUP2 GT ISZERO PUSH2 0x2A1E JUMPI PUSH2 0x2A1D PUSH2 0x5AA3 JUMP JUMPDEST JUMPDEST MUL OR SWAP1 SSTORE POP PUSH1 0x4 PUSH1 0x0 DUP4 DUP2 MSTORE PUSH1 0x20 ADD SWAP1 DUP2 MSTORE PUSH1 0x20 ADD PUSH1 0x0 KECCAK256 PUSH1 0x0 ADD PUSH1 0x3 PUSH1 0x0 DUP5 DUP2 MSTORE PUSH1 0x20 ADD SWAP1 DUP2 MSTORE PUSH1 0x20 ADD PUSH1 0x0 KECCAK256 SWAP1 DUP1 PUSH1 0x1 DUP2 SLOAD ADD DUP1 DUP3 SSTORE DUP1 SWAP2 POP POP PUSH1 0x1 SWAP1 SUB SWAP1 PUSH1 0x0 MSTORE PUSH1 0x20 PUSH1 0x0 KECCAK256 SWAP1 PUSH1 0x15 MUL ADD PUSH1 0x0 SWAP1 SWAP2 SWAP1 SWAP2 SWAP1 SWAP2 POP PUSH1 0x0 DUP3 ADD SLOAD DUP2 PUSH1 0x0 ADD SSTORE PUSH1 0x1 DUP3 ADD SLOAD DUP2 PUSH1 0x1 ADD SSTORE PUSH1 0x2 DUP3 ADD PUSH1 0x0 SWAP1 SLOAD SWAP1 PUSH2 0x100 EXP SWAP1 DIV PUSH20 0xFFFFFFFFFFFFFFFFFFFFFFFFFFFFFFFFFFFFFFFF AND DUP2 PUSH1 0x2 ADD PUSH1 0x0 PUSH2 0x100 EXP DUP2 SLOAD DUP2 PUSH20 0xFFFFFFFFFFFFFFFFFFFFFFFFFFFFFFFFFFFFFFFF MUL NOT AND SWAP1 DUP4 PUSH20 0xFFFFFFFFFFFFFFFFFFFFFFFFFFFFFFFFFFFFFFFF AND MUL OR SWAP1 SSTORE POP PUSH1 0x2 DUP3 ADD PUSH1 0x14 SWAP1 SLOAD SWAP1 PUSH2 0x100 EXP SWAP1 DIV PUSH1 0xFF AND DUP2 PUSH1 0x2 ADD PUSH1 0x14 PUSH2 0x100 EXP DUP2 SLOAD DUP2 PUSH1 0xFF MUL NOT AND SWAP1 DUP4 PUSH1 0x8 DUP2 GT ISZERO PUSH2 0x2B28 JUMPI PUSH2 0x2B27 PUSH2 0x5AA3 JUMP JUMPDEST JUMPDEST MUL OR SWAP1 SSTORE POP PUSH1 0x3 DUP3 ADD DUP2 PUSH1 0x3 ADD PUSH1 0x0 DUP3 ADD PUSH1 0x0 SWAP1 SLOAD SWAP1 PUSH2 0x100 EXP SWAP1 DIV PUSH20 0xFFFFFFFFFFFFFFFFFFFFFFFFFFFFFFFFFFFFFFFF AND DUP2 PUSH1 0x0 ADD PUSH1 0x0 PUSH2 0x100 EXP DUP2 SLOAD DUP2 PUSH20 0xFFFFFFFFFFFFFFFFFFFFFFFFFFFFFFFFFFFFFFFF MUL NOT AND SWAP1 DUP4 PUSH20 0xFFFFFFFFFFFFFFFFFFFFFFFFFFFFFFFFFFFFFFFF AND MUL OR SWAP1 SSTORE POP PUSH1 0x1 DUP3 ADD DUP2 PUSH1 0x1 ADD SWAP1 DUP1 SLOAD PUSH2 0x2BB0 SWAP1 PUSH2 0x59C8 JUMP JUMPDEST PUSH2 0x2BBB SWAP3 SWAP2 SWAP1 PUSH2 0x5030 JUMP JUMPDEST POP PUSH1 0x2 DUP3 ADD DUP2 PUSH1 0x2 ADD SWAP1 DUP1 SLOAD PUSH2 0x2BD0 SWAP1 PUSH2 0x59C8 JUMP JUMPDEST PUSH2 0x2BDB SWAP3 SWAP2 SWAP1 PUSH2 0x5030 JUMP JUMPDEST POP PUSH1 0x3 DUP3 ADD DUP2 PUSH1 0x3 ADD SWAP1 DUP1 SLOAD PUSH2 0x2BF0 SWAP1 PUSH2 0x59C8 JUMP JUMPDEST PUSH2 0x2BFB SWAP3 SWAP2 SWAP1 PUSH2 0x5030 JUMP JUMPDEST POP PUSH1 0x4 DUP3 ADD DUP2 PUSH1 0x4 ADD SWAP1 DUP1 SLOAD PUSH2 0x2C10 SWAP1 PUSH2 0x59C8 JUMP JUMPDEST PUSH2 0x2C1B SWAP3 SWAP2 SWAP1 PUSH2 0x5030 JUMP JUMPDEST POP PUSH1 0x5 DUP3 ADD SLOAD DUP2 PUSH1 0x5 ADD SSTORE POP POP PUSH1 0x9 DUP3 ADD DUP2 PUSH1 0x9 ADD PUSH1 0x0 DUP3 ADD PUSH1 0x0 SWAP1 SLOAD SWAP1 PUSH2 0x100 EXP SWAP1 DIV PUSH20 0xFFFFFFFFFFFFFFFFFFFFFFFFFFFFFFFFFFFFFFFF AND DUP2 PUSH1 0x0 ADD PUSH1 0x0 PUSH2 0x100 EXP DUP2 SLOAD DUP2 PUSH20 0xFFFFFFFFFFFFFFFFFFFFFFFFFFFFFFFFFFFFFFFF MUL NOT AND SWAP1 DUP4 PUSH20 0xFFFFFFFFFFFFFFFFFFFFFFFFFFFFFFFFFFFFFFFF AND MUL OR SWAP1 SSTORE POP PUSH1 0x1 DUP3 ADD DUP2 PUSH1 0x1 ADD SWAP1 DUP1 SLOAD PUSH2 0x2CAB SWAP1 PUSH2 0x59C8 JUMP JUMPDEST PUSH2 0x2CB6 SWAP3 SWAP2 SWAP1 PUSH2 0x5030 JUMP JUMPDEST POP PUSH1 0x2 DUP3 ADD DUP2 PUSH1 0x2 ADD SWAP1 DUP1 SLOAD PUSH2 0x2CCB SWAP1 PUSH2 0x59C8 JUMP JUMPDEST PUSH2 0x2CD6 SWAP3 SWAP2 SWAP1 PUSH2 0x5030 JUMP JUMPDEST POP POP POP PUSH1 0xC DUP3 ADD DUP2 PUSH1 0xC ADD PUSH1 0x0 DUP3 ADD DUP2 PUSH1 0x0 ADD SWAP1 DUP1 SLOAD PUSH2 0x2CF5 SWAP1 PUSH2 0x59C8 JUMP JUMPDEST PUSH2 0x2D00 SWAP3 SWAP2 SWAP1 PUSH2 0x5030 JUMP JUMPDEST POP PUSH1 0x1 DUP3 ADD SLOAD DUP2 PUSH1 0x1 ADD SSTORE PUSH1 0x2 DUP3 ADD SLOAD DUP2 PUSH1 0x2 ADD SSTORE PUSH1 0x3 DUP3 ADD DUP2 PUSH1 0x3 ADD SWAP1 DUP1 SLOAD PUSH2 0x2D29 SWAP1 PUSH2 0x59C8 JUMP JUMPDEST PUSH2 0x2D34 SWAP3 SWAP2 SWAP1 PUSH2 0x5030 JUMP JUMPDEST POP POP POP PUSH1 0x10 DUP3 ADD DUP2 PUSH1 0x10 ADD PUSH1 0x0 DUP3 ADD PUSH1 0x0 SWAP1 SLOAD SWAP1 PUSH2 0x100 EXP SWAP1 DIV PUSH20 0xFFFFFFFFFFFFFFFFFFFFFFFFFFFFFFFFFFFFFFFF AND DUP2 PUSH1 0x0 ADD PUSH1 0x0 PUSH2 0x100 EXP DUP2 SLOAD DUP2 PUSH20 0xFFFFFFFFFFFFFFFFFFFFFFFFFFFFFFFFFFFFFFFF MUL NOT AND SWAP1 DUP4 PUSH20 0xFFFFFFFFFFFFFFFFFFFFFFFFFFFFFFFFFFFFFFFF AND MUL OR SWAP1 SSTORE POP PUSH1 0x1 DUP3 ADD DUP2 PUSH1 0x1 ADD SWAP1 DUP1 SLOAD PUSH2 0x2DBA SWAP1 PUSH2 0x59C8 JUMP JUMPDEST PUSH2 0x2DC5 SWAP3 SWAP2 SWAP1 PUSH2 0x5030 JUMP JUMPDEST POP PUSH1 0x2 DUP3 ADD DUP2 PUSH1 0x2 ADD SWAP1 DUP1 SLOAD PUSH2 0x2DDA SWAP1 PUSH2 0x59C8 JUMP JUMPDEST PUSH2 0x2DE5 SWAP3 SWAP2 SWAP1 PUSH2 0x5030 JUMP JUMPDEST POP POP POP PUSH1 0x13 DUP3 ADD PUSH1 0x0 SWAP1 SLOAD SWAP1 PUSH2 0x100 EXP SWAP1 DIV PUSH20 0xFFFFFFFFFFFFFFFFFFFFFFFFFFFFFFFFFFFFFFFF AND DUP2 PUSH1 0x13 ADD PUSH1 0x0 PUSH2 0x100 EXP DUP2 SLOAD DUP2 PUSH20 0xFFFFFFFFFFFFFFFFFFFFFFFFFFFFFFFFFFFFFFFF MUL NOT AND SWAP1 DUP4 PUSH20 0xFFFFFFFFFFFFFFFFFFFFFFFFFFFFFFFFFFFFFFFF AND MUL OR SWAP1 SSTORE POP PUSH1 0x14 DUP3 ADD DUP2 PUSH1 0x14 ADD SWAP1 DUP1 SLOAD PUSH2 0x2E63 SWAP1 PUSH2 0x59C8 JUMP JUMPDEST PUSH2 0x2E6E SWAP3 SWAP2 SWAP1 PUSH2 0x5030 JUMP JUMPDEST POP POP POP PUSH32 0xFD054E59D299873FAB61A3C67D86D3A139B75DCD5CD82894D8983FC5E2669C82 DUP3 PUSH1 0x40 MLOAD PUSH2 0x2EA0 SWAP2 SWAP1 PUSH2 0x56D5 JUMP JUMPDEST PUSH1 0x40 MLOAD DUP1 SWAP2 SUB SWAP1 LOG1 POP POP JUMP JUMPDEST DUP1 PUSH1 0x7 PUSH1 0x8 DUP2 GT ISZERO PUSH2 0x2EC1 JUMPI PUSH2 0x2EC0 PUSH2 0x5AA3 JUMP JUMPDEST JUMPDEST PUSH1 0x3 PUSH1 0x0 DUP4 DUP2 MSTORE PUSH1 0x20 ADD SWAP1 DUP2 MSTORE PUSH1 0x20 ADD PUSH1 0x0 KECCAK256 PUSH1 0x2 ADD PUSH1 0x14 SWAP1 SLOAD SWAP1 PUSH2 0x100 EXP SWAP1 DIV PUSH1 0xFF AND PUSH1 0x8 DUP2 GT ISZERO PUSH2 0x2EF7 JUMPI PUSH2 0x2EF6 PUSH2 0x5AA3 JUMP JUMPDEST JUMPDEST EQ PUSH2 0x2F01 JUMPI PUSH1 0x0 DUP1 REVERT JUMPDEST PUSH1 0x3 PUSH1 0x0 DUP4 DUP2 MSTORE PUSH1 0x20 ADD SWAP1 DUP2 MSTORE PUSH1 0x20 ADD PUSH1 0x0 KECCAK256 PUSH1 0x13 ADD PUSH1 0x0 SWAP1 SLOAD SWAP1 PUSH2 0x100 EXP SWAP1 DIV PUSH20 0xFFFFFFFFFFFFFFFFFFFFFFFFFFFFFFFFFFFFFFFF AND DUP1 PUSH20 0xFFFFFFFFFFFFFFFFFFFFFFFFFFFFFFFFFFFFFFFF AND CALLER PUSH20 0xFFFFFFFFFFFFFFFFFFFFFFFFFFFFFFFFFFFFFFFF AND EQ PUSH2 0x2F70 JUMPI PUSH1 0x0 DUP1 REVERT JUMPDEST PUSH2 0x2F79 CALLER PUSH2 0xD95 JUMP JUMPDEST PUSH2 0x2F82 JUMPI PUSH1 0x0 DUP1 REVERT JUMPDEST CALLER PUSH1 0x3 PUSH1 0x0 DUP6 DUP2 MSTORE PUSH1 0x20 ADD SWAP1 DUP2 MSTORE PUSH1 0x20 ADD PUSH1 0x0 KECCAK256 PUSH1 0x2 ADD PUSH1 0x0 PUSH2 0x100 EXP DUP2 SLOAD DUP2 PUSH20 0xFFFFFFFFFFFFFFFFFFFFFFFFFFFFFFFFFFFFFFFF MUL NOT AND SWAP1 DUP4 PUSH20 0xFFFFFFFFFFFFFFFFFFFFFFFFFFFFFFFFFFFFFFFF AND MUL OR SWAP1 SSTORE POP PUSH1 0x8 PUSH1 0x3 PUSH1 0x0 DUP6 DUP2 MSTORE PUSH1 0x20 ADD SWAP1 DUP2 MSTORE PUSH1 0x20 ADD PUSH1 0x0 KECCAK256 PUSH1 0x2 ADD PUSH1 0x14 PUSH2 0x100 EXP DUP2 SLOAD DUP2 PUSH1 0xFF MUL NOT AND SWAP1 DUP4 PUSH1 0x8 DUP2 GT ISZERO PUSH2 0x3011 JUMPI PUSH2 0x3010 PUSH2 0x5AA3 JUMP JUMPDEST JUMPDEST MUL OR SWAP1 SSTORE POP PUSH1 0x4 PUSH1 0x0 DUP5 DUP2 MSTORE PUSH1 0x20 ADD SWAP1 DUP2 MSTORE PUSH1 0x20 ADD PUSH1 0x0 KECCAK256 PUSH1 0x0 ADD PUSH1 0x3 PUSH1 0x0 DUP6 DUP2 MSTORE PUSH1 0x20 ADD SWAP1 DUP2 MSTORE PUSH1 0x20 ADD PUSH1 0x0 KECCAK256 SWAP1 DUP1 PUSH1 0x1 DUP2 SLOAD ADD DUP1 DUP3 SSTORE DUP1 SWAP2 POP POP PUSH1 0x1 SWAP1 SUB SWAP1 PUSH1 0x0 MSTORE PUSH1 0x20 PUSH1 0x0 KECCAK256 SWAP1 PUSH1 0x15 MUL ADD PUSH1 0x0 SWAP1 SWAP2 SWAP1 SWAP2 SWAP1 SWAP2 POP PUSH1 0x0 DUP3 ADD SLOAD DUP2 PUSH1 0x0 ADD SSTORE PUSH1 0x1 DUP3 ADD SLOAD DUP2 PUSH1 0x1 ADD SSTORE PUSH1 0x2 DUP3 ADD PUSH1 0x0 SWAP1 SLOAD SWAP1 PUSH2 0x100 EXP SWAP1 DIV PUSH20 0xFFFFFFFFFFFFFFFFFFFFFFFFFFFFFFFFFFFFFFFF AND DUP2 PUSH1 0x2 ADD PUSH1 0x0 PUSH2 0x100 EXP DUP2 SLOAD DUP2 PUSH20 0xFFFFFFFFFFFFFFFFFFFFFFFFFFFFFFFFFFFFFFFF MUL NOT AND SWAP1 DUP4 PUSH20 0xFFFFFFFFFFFFFFFFFFFFFFFFFFFFFFFFFFFFFFFF AND MUL OR SWAP1 SSTORE POP PUSH1 0x2 DUP3 ADD PUSH1 0x14 SWAP1 SLOAD SWAP1 PUSH2 0x100 EXP SWAP1 DIV PUSH1 0xFF AND DUP2 PUSH1 0x2 ADD PUSH1 0x14 PUSH2 0x100 EXP DUP2 SLOAD DUP2 PUSH1 0xFF MUL NOT AND SWAP1 DUP4 PUSH1 0x8 DUP2 GT ISZERO PUSH2 0x311B JUMPI PUSH2 0x311A PUSH2 0x5AA3 JUMP JUMPDEST JUMPDEST MUL OR SWAP1 SSTORE POP PUSH1 0x3 DUP3 ADD DUP2 PUSH1 0x3 ADD PUSH1 0x0 DUP3 ADD PUSH1 0x0 SWAP1 SLOAD SWAP1 PUSH2 0x100 EXP SWAP1 DIV PUSH20 0xFFFFFFFFFFFFFFFFFFFFFFFFFFFFFFFFFFFFFFFF AND DUP2 PUSH1 0x0 ADD PUSH1 0x0 PUSH2 0x100 EXP DUP2 SLOAD DUP2 PUSH20 0xFFFFFFFFFFFFFFFFFFFFFFFFFFFFFFFFFFFFFFFF MUL NOT AND SWAP1 DUP4 PUSH20 0xFFFFFFFFFFFFFFFFFFFFFFFFFFFFFFFFFFFFFFFF AND MUL OR SWAP1 SSTORE POP PUSH1 0x1 DUP3 ADD DUP2 PUSH1 0x1 ADD SWAP1 DUP1 SLOAD PUSH2 0x31A3 SWAP1 PUSH2 0x59C8 JUMP JUMPDEST PUSH2 0x31AE SWAP3 SWAP2 SWAP1 PUSH2 0x5030 JUMP JUMPDEST POP PUSH1 0x2 DUP3 ADD DUP2 PUSH1 0x2 ADD SWAP1 DUP1 SLOAD PUSH2 0x31C3 SWAP1 PUSH2 0x59C8 JUMP JUMPDEST PUSH2 0x31CE SWAP3 SWAP2 SWAP1 PUSH2 0x5030 JUMP JUMPDEST POP PUSH1 0x3 DUP3 ADD DUP2 PUSH1 0x3 ADD SWAP1 DUP1 SLOAD PUSH2 0x31E3 SWAP1 PUSH2 0x59C8 JUMP JUMPDEST PUSH2 0x31EE SWAP3 SWAP2 SWAP1 PUSH2 0x5030 JUMP JUMPDEST POP PUSH1 0x4 DUP3 ADD DUP2 PUSH1 0x4 ADD SWAP1 DUP1 SLOAD PUSH2 0x3203 SWAP1 PUSH2 0x59C8 JUMP JUMPDEST PUSH2 0x320E SWAP3 SWAP2 SWAP1 PUSH2 0x5030 JUMP JUMPDEST POP PUSH1 0x5 DUP3 ADD SLOAD DUP2 PUSH1 0x5 ADD SSTORE POP POP PUSH1 0x9 DUP3 ADD DUP2 PUSH1 0x9 ADD PUSH1 0x0 DUP3 ADD PUSH1 0x0 SWAP1 SLOAD SWAP1 PUSH2 0x100 EXP SWAP1 DIV PUSH20 0xFFFFFFFFFFFFFFFFFFFFFFFFFFFFFFFFFFFFFFFF AND DUP2 PUSH1 0x0 ADD PUSH1 0x0 PUSH2 0x100 EXP DUP2 SLOAD DUP2 PUSH20 0xFFFFFFFFFFFFFFFFFFFFFFFFFFFFFFFFFFFFFFFF MUL NOT AND SWAP1 DUP4 PUSH20 0xFFFFFFFFFFFFFFFFFFFFFFFFFFFFFFFFFFFFFFFF AND MUL OR SWAP1 SSTORE POP PUSH1 0x1 DUP3 ADD DUP2 PUSH1 0x1 ADD SWAP1 DUP1 SLOAD PUSH2 0x329E SWAP1 PUSH2 0x59C8 JUMP JUMPDEST PUSH2 0x32A9 SWAP3 SWAP2 SWAP1 PUSH2 0x5030 JUMP JUMPDEST POP PUSH1 0x2 DUP3 ADD DUP2 PUSH1 0x2 ADD SWAP1 DUP1 SLOAD PUSH2 0x32BE SWAP1 PUSH2 0x59C8 JUMP JUMPDEST PUSH2 0x32C9 SWAP3 SWAP2 SWAP1 PUSH2 0x5030 JUMP JUMPDEST POP POP POP PUSH1 0xC DUP3 ADD DUP2 PUSH1 0xC ADD PUSH1 0x0 DUP3 ADD DUP2 PUSH1 0x0 ADD SWAP1 DUP1 SLOAD PUSH2 0x32E8 SWAP1 PUSH2 0x59C8 JUMP JUMPDEST PUSH2 0x32F3 SWAP3 SWAP2 SWAP1 PUSH2 0x5030 JUMP JUMPDEST POP PUSH1 0x1 DUP3 ADD SLOAD DUP2 PUSH1 0x1 ADD SSTORE PUSH1 0x2 DUP3 ADD SLOAD DUP2 PUSH1 0x2 ADD SSTORE PUSH1 0x3 DUP3 ADD DUP2 PUSH1 0x3 ADD SWAP1 DUP1 SLOAD PUSH2 0x331C SWAP1 PUSH2 0x59C8 JUMP JUMPDEST PUSH2 0x3327 SWAP3 SWAP2 SWAP1 PUSH2 0x5030 JUMP JUMPDEST POP POP POP PUSH1 0x10 DUP3 ADD DUP2 PUSH1 0x10 ADD PUSH1 0x0 DUP3 ADD PUSH1 0x0 SWAP1 SLOAD SWAP1 PUSH2 0x100 EXP SWAP1 DIV PUSH20 0xFFFFFFFFFFFFFFFFFFFFFFFFFFFFFFFFFFFFFFFF AND DUP2 PUSH1 0x0 ADD PUSH1 0x0 PUSH2 0x100 EXP DUP2 SLOAD DUP2 PUSH20 0xFFFFFFFFFFFFFFFFFFFFFFFFFFFFFFFFFFFFFFFF MUL NOT AND SWAP1 DUP4 PUSH20 0xFFFFFFFFFFFFFFFFFFFFFFFFFFFFFFFFFFFFFFFF AND MUL OR SWAP1 SSTORE POP PUSH1 0x1 DUP3 ADD DUP2 PUSH1 0x1 ADD SWAP1 DUP1 SLOAD PUSH2 0x33AD SWAP1 PUSH2 0x59C8 JUMP JUMPDEST PUSH2 0x33B8 SWAP3 SWAP2 SWAP1 PUSH2 0x5030 JUMP JUMPDEST POP PUSH1 0x2 DUP3 ADD DUP2 PUSH1 0x2 ADD SWAP1 DUP1 SLOAD PUSH2 0x33CD SWAP1 PUSH2 0x59C8 JUMP JUMPDEST PUSH2 0x33D8 SWAP3 SWAP2 SWAP1 PUSH2 0x5030 JUMP JUMPDEST POP POP POP PUSH1 0x13 DUP3 ADD PUSH1 0x0 SWAP1 SLOAD SWAP1 PUSH2 0x100 EXP SWAP1 DIV PUSH20 0xFFFFFFFFFFFFFFFFFFFFFFFFFFFFFFFFFFFFFFFF AND DUP2 PUSH1 0x13 ADD PUSH1 0x0 PUSH2 0x100 EXP DUP2 SLOAD DUP2 PUSH20 0xFFFFFFFFFFFFFFFFFFFFFFFFFFFFFFFFFFFFFFFF MUL NOT AND SWAP1 DUP4 PUSH20 0xFFFFFFFFFFFFFFFFFFFFFFFFFFFFFFFFFFFFFFFF AND MUL OR SWAP1 SSTORE POP PUSH1 0x14 DUP3 ADD DUP2 PUSH1 0x14 ADD SWAP1 DUP1 SLOAD PUSH2 0x3456 SWAP1 PUSH2 0x59C8 JUMP JUMPDEST PUSH2 0x3461 SWAP3 SWAP2 SWAP1 PUSH2 0x5030 JUMP JUMPDEST POP POP POP PUSH32 0x8A746D5B91A9A334D1ABBEEE7D031AAC6D5C59EA6E982AC06AEF4346CCE5749E DUP4 PUSH1 0x40 MLOAD PUSH2 0x3493 SWAP2 SWAP1 PUSH2 0x56D5 JUMP JUMPDEST PUSH1 0x40 MLOAD DUP1 SWAP2 SUB SWAP1 LOG1 POP POP POP JUMP JUMPDEST PUSH1 0x0 PUSH1 0x4 PUSH1 0x0 DUP5 DUP2 MSTORE PUSH1 0x20 ADD SWAP1 DUP2 MSTORE PUSH1 0x20 ADD PUSH1 0x0 KECCAK256 PUSH1 0x0 ADD PUSH1 0x1 PUSH1 0x4 PUSH1 0x0 DUP7 DUP2 MSTORE PUSH1 0x20 ADD SWAP1 DUP2 MSTORE PUSH1 0x20 ADD PUSH1 0x0 KECCAK256 PUSH1 0x0 ADD DUP1 SLOAD SWAP1 POP PUSH2 0x34DE SWAP2 SWAP1 PUSH2 0x58E5 JUMP JUMPDEST DUP2 SLOAD DUP2 LT PUSH2 0x34EF JUMPI PUSH2 0x34EE PUSH2 0x5B01 JUMP JUMPDEST JUMPDEST SWAP1 PUSH1 0x0 MSTORE PUSH1 0x20 PUSH1 0x0 KECCAK256 SWAP1 PUSH1 0x15 MUL ADD SWAP1 POP DUP2 DUP2 PUSH1 0x14 ADD SWAP1 DUP1 MLOAD SWAP1 PUSH1 0x20 ADD SWAP1 PUSH2 0x3517 SWAP3 SWAP2 SWAP1 PUSH2 0x4FAA JUMP JUMPDEST POP POP POP POP JUMP JUMPDEST PUSH1 0x0 PUSH20 0xFFFFFFFFFFFFFFFFFFFFFFFFFFFFFFFFFFFFFFFF AND DUP2 PUSH20 0xFFFFFFFFFFFFFFFFFFFFFFFFFFFFFFFFFFFFFFFF AND EQ ISZERO PUSH2 0x3557 JUMPI PUSH1 0x0 DUP1 REVERT JUMPDEST PUSH2 0x3560 DUP2 PUSH2 0x1B40 JUMP JUMPDEST ISZERO PUSH2 0x356A JUMPI PUSH1 0x0 DUP1 REVERT JUMPDEST PUSH1 0x1 PUSH1 0x5 PUSH1 0x0 DUP4 PUSH20 0xFFFFFFFFFFFFFFFFFFFFFFFFFFFFFFFFFFFFFFFF AND PUSH20 0xFFFFFFFFFFFFFFFFFFFFFFFFFFFFFFFFFFFFFFFF AND DUP2 MSTORE PUSH1 0x20 ADD SWAP1 DUP2 MSTORE PUSH1 0x20 ADD PUSH1 0x0 KECCAK256 PUSH1 0x0 ADD PUSH1 0x0 PUSH2 0x100 EXP DUP2 SLOAD DUP2 PUSH1 0xFF MUL NOT AND SWAP1 DUP4 ISZERO ISZERO MUL OR SWAP1 SSTORE POP POP JUMP JUMPDEST DUP3 PUSH1 0x5 PUSH1 0x8 DUP2 GT ISZERO PUSH2 0x35DD JUMPI PUSH2 0x35DC PUSH2 0x5AA3 JUMP JUMPDEST JUMPDEST PUSH1 0x3 PUSH1 0x0 DUP4 DUP2 MSTORE PUSH1 0x20 ADD SWAP1 DUP2 MSTORE PUSH1 0x20 ADD PUSH1 0x0 KECCAK256 PUSH1 0x2 ADD PUSH1 0x14 SWAP1 SLOAD SWAP1 PUSH2 0x100 EXP SWAP1 DIV PUSH1 0xFF AND PUSH1 0x8 DUP2 GT ISZERO PUSH2 0x3613 JUMPI PUSH2 0x3612 PUSH2 0x5AA3 JUMP JUMPDEST JUMPDEST EQ PUSH2 0x361D JUMPI PUSH1 0x0 DUP1 REVERT JUMPDEST PUSH2 0x3626 CALLER PUSH2 0x45F5 JUMP JUMPDEST PUSH2 0x362F JUMPI PUSH1 0x0 DUP1 REVERT JUMPDEST CALLER PUSH1 0x3 PUSH1 0x0 DUP7 DUP2 MSTORE PUSH1 0x20 ADD SWAP1 DUP2 MSTORE PUSH1 0x20 ADD PUSH1 0x0 KECCAK256 PUSH1 0x2 ADD PUSH1 0x0 PUSH2 0x100 EXP DUP2 SLOAD DUP2 PUSH20 0xFFFFFFFFFFFFFFFFFFFFFFFFFFFFFFFFFFFFFFFF MUL NOT AND SWAP1 DUP4 PUSH20 0xFFFFFFFFFFFFFFFFFFFFFFFFFFFFFFFFFFFFFFFF AND MUL OR SWAP1 SSTORE POP CALLER PUSH1 0x3 PUSH1 0x0 DUP7 DUP2 MSTORE PUSH1 0x20 ADD SWAP1 DUP2 MSTORE PUSH1 0x20 ADD PUSH1 0x0 KECCAK256 PUSH1 0x10 ADD PUSH1 0x0 ADD PUSH1 0x0 PUSH2 0x100 EXP DUP2 SLOAD DUP2 PUSH20 0xFFFFFFFFFFFFFFFFFFFFFFFFFFFFFFFFFFFFFFFF MUL NOT AND SWAP1 DUP4 PUSH20 0xFFFFFFFFFFFFFFFFFFFFFFFFFFFFFFFFFFFFFFFF AND MUL OR SWAP1 SSTORE POP DUP3 PUSH1 0x3 PUSH1 0x0 DUP7 DUP2 MSTORE PUSH1 0x20 ADD SWAP1 DUP2 MSTORE PUSH1 0x20 ADD PUSH1 0x0 KECCAK256 PUSH1 0x10 ADD PUSH1 0x1 ADD SWAP1 DUP1 MLOAD SWAP1 PUSH1 0x20 ADD SWAP1 PUSH2 0x3709 SWAP3 SWAP2 SWAP1 PUSH2 0x4FAA JUMP JUMPDEST POP DUP2 PUSH1 0x3 PUSH1 0x0 DUP7 DUP2 MSTORE PUSH1 0x20 ADD SWAP1 DUP2 MSTORE PUSH1 0x20 ADD PUSH1 0x0 KECCAK256 PUSH1 0x10 ADD PUSH1 0x2 ADD SWAP1 DUP1 MLOAD SWAP1 PUSH1 0x20 ADD SWAP1 PUSH2 0x3737 SWAP3 SWAP2 SWAP1 PUSH2 0x4FAA JUMP JUMPDEST POP PUSH1 0x6 PUSH1 0x3 PUSH1 0x0 DUP7 DUP2 MSTORE PUSH1 0x20 ADD SWAP1 DUP2 MSTORE PUSH1 0x20 ADD PUSH1 0x0 KECCAK256 PUSH1 0x2 ADD PUSH1 0x14 PUSH2 0x100 EXP DUP2 SLOAD DUP2 PUSH1 0xFF MUL NOT AND SWAP1 DUP4 PUSH1 0x8 DUP2 GT ISZERO PUSH2 0x3772 JUMPI PUSH2 0x3771 PUSH2 0x5AA3 JUMP JUMPDEST JUMPDEST MUL OR SWAP1 SSTORE POP PUSH1 0x4 PUSH1 0x0 DUP6 DUP2 MSTORE PUSH1 0x20 ADD SWAP1 DUP2 MSTORE PUSH1 0x20 ADD PUSH1 0x0 KECCAK256 PUSH1 0x0 ADD PUSH1 0x3 PUSH1 0x0 DUP7 DUP2 MSTORE PUSH1 0x20 ADD SWAP1 DUP2 MSTORE PUSH1 0x20 ADD PUSH1 0x0 KECCAK256 SWAP1 DUP1 PUSH1 0x1 DUP2 SLOAD ADD DUP1 DUP3 SSTORE DUP1 SWAP2 POP POP PUSH1 0x1 SWAP1 SUB SWAP1 PUSH1 0x0 MSTORE PUSH1 0x20 PUSH1 0x0 KECCAK256 SWAP1 PUSH1 0x15 MUL ADD PUSH1 0x0 SWAP1 SWAP2 SWAP1 SWAP2 SWAP1 SWAP2 POP PUSH1 0x0 DUP3 ADD SLOAD DUP2 PUSH1 0x0 ADD SSTORE PUSH1 0x1 DUP3 ADD SLOAD DUP2 PUSH1 0x1 ADD SSTORE PUSH1 0x2 DUP3 ADD PUSH1 0x0 SWAP1 SLOAD SWAP1 PUSH2 0x100 EXP SWAP1 DIV PUSH20 0xFFFFFFFFFFFFFFFFFFFFFFFFFFFFFFFFFFFFFFFF AND DUP2 PUSH1 0x2 ADD PUSH1 0x0 PUSH2 0x100 EXP DUP2 SLOAD DUP2 PUSH20 0xFFFFFFFFFFFFFFFFFFFFFFFFFFFFFFFFFFFFFFFF MUL NOT AND SWAP1 DUP4 PUSH20 0xFFFFFFFFFFFFFFFFFFFFFFFFFFFFFFFFFFFFFFFF AND MUL OR SWAP1 SSTORE POP PUSH1 0x2 DUP3 ADD PUSH1 0x14 SWAP1 SLOAD SWAP1 PUSH2 0x100 EXP SWAP1 DIV PUSH1 0xFF AND DUP2 PUSH1 0x2 ADD PUSH1 0x14 PUSH2 0x100 EXP DUP2 SLOAD DUP2 PUSH1 0xFF MUL NOT AND SWAP1 DUP4 PUSH1 0x8 DUP2 GT ISZERO PUSH2 0x387C JUMPI PUSH2 0x387B PUSH2 0x5AA3 JUMP JUMPDEST JUMPDEST MUL OR SWAP1 SSTORE POP PUSH1 0x3 DUP3 ADD DUP2 PUSH1 0x3 ADD PUSH1 0x0 DUP3 ADD PUSH1 0x0 SWAP1 SLOAD SWAP1 PUSH2 0x100 EXP SWAP1 DIV PUSH20 0xFFFFFFFFFFFFFFFFFFFFFFFFFFFFFFFFFFFFFFFF AND DUP2 PUSH1 0x0 ADD PUSH1 0x0 PUSH2 0x100 EXP DUP2 SLOAD DUP2 PUSH20 0xFFFFFFFFFFFFFFFFFFFFFFFFFFFFFFFFFFFFFFFF MUL NOT AND SWAP1 DUP4 PUSH20 0xFFFFFFFFFFFFFFFFFFFFFFFFFFFFFFFFFFFFFFFF AND MUL OR SWAP1 SSTORE POP PUSH1 0x1 DUP3 ADD DUP2 PUSH1 0x1 ADD SWAP1 DUP1 SLOAD PUSH2 0x3904 SWAP1 PUSH2 0x59C8 JUMP JUMPDEST PUSH2 0x390F SWAP3 SWAP2 SWAP1 PUSH2 0x5030 JUMP JUMPDEST POP PUSH1 0x2 DUP3 ADD DUP2 PUSH1 0x2 ADD SWAP1 DUP1 SLOAD PUSH2 0x3924 SWAP1 PUSH2 0x59C8 JUMP JUMPDEST PUSH2 0x392F SWAP3 SWAP2 SWAP1 PUSH2 0x5030 JUMP JUMPDEST POP PUSH1 0x3 DUP3 ADD DUP2 PUSH1 0x3 ADD SWAP1 DUP1 SLOAD PUSH2 0x3944 SWAP1 PUSH2 0x59C8 JUMP JUMPDEST PUSH2 0x394F SWAP3 SWAP2 SWAP1 PUSH2 0x5030 JUMP JUMPDEST POP PUSH1 0x4 DUP3 ADD DUP2 PUSH1 0x4 ADD SWAP1 DUP1 SLOAD PUSH2 0x3964 SWAP1 PUSH2 0x59C8 JUMP JUMPDEST PUSH2 0x396F SWAP3 SWAP2 SWAP1 PUSH2 0x5030 JUMP JUMPDEST POP PUSH1 0x5 DUP3 ADD SLOAD DUP2 PUSH1 0x5 ADD SSTORE POP POP PUSH1 0x9 DUP3 ADD DUP2 PUSH1 0x9 ADD PUSH1 0x0 DUP3 ADD PUSH1 0x0 SWAP1 SLOAD SWAP1 PUSH2 0x100 EXP SWAP1 DIV PUSH20 0xFFFFFFFFFFFFFFFFFFFFFFFFFFFFFFFFFFFFFFFF AND DUP2 PUSH1 0x0 ADD PUSH1 0x0 PUSH2 0x100 EXP DUP2 SLOAD DUP2 PUSH20 0xFFFFFFFFFFFFFFFFFFFFFFFFFFFFFFFFFFFFFFFF MUL NOT AND SWAP1 DUP4 PUSH20 0xFFFFFFFFFFFFFFFFFFFFFFFFFFFFFFFFFFFFFFFF AND MUL OR SWAP1 SSTORE POP PUSH1 0x1 DUP3 ADD DUP2 PUSH1 0x1 ADD SWAP1 DUP1 SLOAD PUSH2 0x39FF SWAP1 PUSH2 0x59C8 JUMP JUMPDEST PUSH2 0x3A0A SWAP3 SWAP2 SWAP1 PUSH2 0x5030 JUMP JUMPDEST POP PUSH1 0x2 DUP3 ADD DUP2 PUSH1 0x2 ADD SWAP1 DUP1 SLOAD PUSH2 0x3A1F SWAP1 PUSH2 0x59C8 JUMP JUMPDEST PUSH2 0x3A2A SWAP3 SWAP2 SWAP1 PUSH2 0x5030 JUMP JUMPDEST POP POP POP PUSH1 0xC DUP3 ADD DUP2 PUSH1 0xC ADD PUSH1 0x0 DUP3 ADD DUP2 PUSH1 0x0 ADD SWAP1 DUP1 SLOAD PUSH2 0x3A49 SWAP1 PUSH2 0x59C8 JUMP JUMPDEST PUSH2 0x3A54 SWAP3 SWAP2 SWAP1 PUSH2 0x5030 JUMP JUMPDEST POP PUSH1 0x1 DUP3 ADD SLOAD DUP2 PUSH1 0x1 ADD SSTORE PUSH1 0x2 DUP3 ADD SLOAD DUP2 PUSH1 0x2 ADD SSTORE PUSH1 0x3 DUP3 ADD DUP2 PUSH1 0x3 ADD SWAP1 DUP1 SLOAD PUSH2 0x3A7D SWAP1 PUSH2 0x59C8 JUMP JUMPDEST PUSH2 0x3A88 SWAP3 SWAP2 SWAP1 PUSH2 0x5030 JUMP JUMPDEST POP POP POP PUSH1 0x10 DUP3 ADD DUP2 PUSH1 0x10 ADD PUSH1 0x0 DUP3 ADD PUSH1 0x0 SWAP1 SLOAD SWAP1 PUSH2 0x100 EXP SWAP1 DIV PUSH20 0xFFFFFFFFFFFFFFFFFFFFFFFFFFFFFFFFFFFFFFFF AND DUP2 PUSH1 0x0 ADD PUSH1 0x0 PUSH2 0x100 EXP DUP2 SLOAD DUP2 PUSH20 0xFFFFFFFFFFFFFFFFFFFFFFFFFFFFFFFFFFFFFFFF MUL NOT AND SWAP1 DUP4 PUSH20 0xFFFFFFFFFFFFFFFFFFFFFFFFFFFFFFFFFFFFFFFF AND MUL OR SWAP1 SSTORE POP PUSH1 0x1 DUP3 ADD DUP2 PUSH1 0x1 ADD SWAP1 DUP1 SLOAD PUSH2 0x3B0E SWAP1 PUSH2 0x59C8 JUMP JUMPDEST PUSH2 0x3B19 SWAP3 SWAP2 SWAP1 PUSH2 0x5030 JUMP JUMPDEST POP PUSH1 0x2 DUP3 ADD DUP2 PUSH1 0x2 ADD SWAP1 DUP1 SLOAD PUSH2 0x3B2E SWAP1 PUSH2 0x59C8 JUMP JUMPDEST PUSH2 0x3B39 SWAP3 SWAP2 SWAP1 PUSH2 0x5030 JUMP JUMPDEST POP POP POP PUSH1 0x13 DUP3 ADD PUSH1 0x0 SWAP1 SLOAD SWAP1 PUSH2 0x100 EXP SWAP1 DIV PUSH20 0xFFFFFFFFFFFFFFFFFFFFFFFFFFFFFFFFFFFFFFFF AND DUP2 PUSH1 0x13 ADD PUSH1 0x0 PUSH2 0x100 EXP DUP2 SLOAD DUP2 PUSH20 0xFFFFFFFFFFFFFFFFFFFFFFFFFFFFFFFFFFFFFFFF MUL NOT AND SWAP1 DUP4 PUSH20 0xFFFFFFFFFFFFFFFFFFFFFFFFFFFFFFFFFFFFFFFF AND MUL OR SWAP1 SSTORE POP PUSH1 0x14 DUP3 ADD DUP2 PUSH1 0x14 ADD SWAP1 DUP1 SLOAD PUSH2 0x3BB7 SWAP1 PUSH2 0x59C8 JUMP JUMPDEST PUSH2 0x3BC2 SWAP3 SWAP2 SWAP1 PUSH2 0x5030 JUMP JUMPDEST POP POP POP PUSH32 0xB6589947D486BF61C31A4E6D2E81D4D2C93E7832FDDA27F2492009B4755C29ED DUP5 PUSH1 0x40 MLOAD PUSH2 0x3BF4 SWAP2 SWAP1 PUSH2 0x56D5 JUMP JUMPDEST PUSH1 0x40 MLOAD DUP1 SWAP2 SUB SWAP1 LOG1 POP POP POP POP JUMP JUMPDEST PUSH1 0x60 PUSH1 0x0 PUSH1 0x60 DUP1 PUSH1 0x0 PUSH1 0x60 PUSH1 0x0 PUSH1 0x3 PUSH1 0x0 DUP12 DUP2 MSTORE PUSH1 0x20 ADD SWAP1 DUP2 MSTORE PUSH1 0x20 ADD PUSH1 0x0 KECCAK256 PUSH1 0x0 ADD SLOAD EQ ISZERO PUSH2 0x3C31 JUMPI PUSH1 0x0 DUP1 REVERT JUMPDEST PUSH1 0x0 PUSH1 0x3 PUSH1 0x0 DUP12 DUP2 MSTORE PUSH1 0x20 ADD SWAP1 DUP2 MSTORE PUSH1 0x20 ADD PUSH1 0x0 KECCAK256 SWAP1 POP PUSH1 0x40 MLOAD DUP1 PUSH1 0x40 ADD PUSH1 0x40 MSTORE DUP1 PUSH1 0x7 DUP2 MSTORE PUSH1 0x20 ADD PUSH32 0x70726F6475637400000000000000000000000000000000000000000000000000 DUP2 MSTORE POP DUP1 MLOAD SWAP1 PUSH1 0x20 ADD KECCAK256 DUP10 DUP1 MLOAD SWAP1 PUSH1 0x20 ADD KECCAK256 EQ ISZERO PUSH2 0x3CA9 JUMPI PUSH1 0x3 PUSH1 0x0 DUP12 DUP2 MSTORE PUSH1 0x20 ADD SWAP1 DUP2 MSTORE PUSH1 0x20 ADD PUSH1 0x0 KECCAK256 SWAP1 POP JUMPDEST PUSH1 0x40 MLOAD DUP1 PUSH1 0x40 ADD PUSH1 0x40 MSTORE DUP1 PUSH1 0x7 DUP2 MSTORE PUSH1 0x20 ADD PUSH32 0x686973746F727900000000000000000000000000000000000000000000000000 DUP2 MSTORE POP DUP1 MLOAD SWAP1 PUSH1 0x20 ADD KECCAK256 DUP10 DUP1 MLOAD SWAP1 PUSH1 0x20 ADD KECCAK256 EQ ISZERO PUSH2 0x3D2D JUMPI PUSH1 0x4 PUSH1 0x0 DUP12 DUP2 MSTORE PUSH1 0x20 ADD SWAP1 DUP2 MSTORE PUSH1 0x20 ADD PUSH1 0x0 KECCAK256 PUSH1 0x0 ADD DUP9 DUP2 SLOAD DUP2 LT PUSH2 0x3D1C JUMPI PUSH2 0x3D1B PUSH2 0x5B01 JUMP JUMPDEST JUMPDEST SWAP1 PUSH1 0x0 MSTORE PUSH1 0x20 PUSH1 0x0 KECCAK256 SWAP1 PUSH1 0x15 MUL ADD SWAP1 POP JUMPDEST DUP1 PUSH1 0x9 ADD PUSH1 0x2 ADD DUP2 PUSH1 0x10 ADD PUSH1 0x0 ADD PUSH1 0x0 SWAP1 SLOAD SWAP1 PUSH2 0x100 EXP SWAP1 DIV PUSH20 0xFFFFFFFFFFFFFFFFFFFFFFFFFFFFFFFFFFFFFFFF AND DUP3 PUSH1 0x10 ADD PUSH1 0x1 ADD DUP4 PUSH1 0x10 ADD PUSH1 0x2 ADD DUP5 PUSH1 0x13 ADD PUSH1 0x0 SWAP1 SLOAD SWAP1 PUSH2 0x100 EXP SWAP1 DIV PUSH20 0xFFFFFFFFFFFFFFFFFFFFFFFFFFFFFFFFFFFFFFFF AND DUP6 PUSH1 0x14 ADD DUP6 DUP1 SLOAD PUSH2 0x3D9F SWAP1 PUSH2 0x59C8 JUMP JUMPDEST DUP1 PUSH1 0x1F ADD PUSH1 0x20 DUP1 SWAP2 DIV MUL PUSH1 0x20 ADD PUSH1 0x40 MLOAD SWAP1 DUP2 ADD PUSH1 0x40 MSTORE DUP1 SWAP3 SWAP2 SWAP1 DUP2 DUP2 MSTORE PUSH1 0x20 ADD DUP3 DUP1 SLOAD PUSH2 0x3DCB SWAP1 PUSH2 0x59C8 JUMP JUMPDEST DUP1 ISZERO PUSH2 0x3E18 JUMPI DUP1 PUSH1 0x1F LT PUSH2 0x3DED JUMPI PUSH2 0x100 DUP1 DUP4 SLOAD DIV MUL DUP4 MSTORE SWAP2 PUSH1 0x20 ADD SWAP2 PUSH2 0x3E18 JUMP JUMPDEST DUP3 ADD SWAP2 SWAP1 PUSH1 0x0 MSTORE PUSH1 0x20 PUSH1 0x0 KECCAK256 SWAP1 JUMPDEST DUP2 SLOAD DUP2 MSTORE SWAP1 PUSH1 0x1 ADD SWAP1 PUSH1 0x20 ADD DUP1 DUP4 GT PUSH2 0x3DFB JUMPI DUP3 SWAP1 SUB PUSH1 0x1F AND DUP3 ADD SWAP2 JUMPDEST POP POP POP POP POP SWAP6 POP DUP4 DUP1 SLOAD PUSH2 0x3E2B SWAP1 PUSH2 0x59C8 JUMP JUMPDEST DUP1 PUSH1 0x1F ADD PUSH1 0x20 DUP1 SWAP2 DIV MUL PUSH1 0x20 ADD PUSH1 0x40 MLOAD SWAP1 DUP2 ADD PUSH1 0x40 MSTORE DUP1 SWAP3 SWAP2 SWAP1 DUP2 DUP2 MSTORE PUSH1 0x20 ADD DUP3 DUP1 SLOAD PUSH2 0x3E57 SWAP1 PUSH2 0x59C8 JUMP JUMPDEST DUP1 ISZERO PUSH2 0x3EA4 JUMPI DUP1 PUSH1 0x1F LT PUSH2 0x3E79 JUMPI PUSH2 0x100 DUP1 DUP4 SLOAD DIV MUL DUP4 MSTORE SWAP2 PUSH1 0x20 ADD SWAP2 PUSH2 0x3EA4 JUMP JUMPDEST DUP3 ADD SWAP2 SWAP1 PUSH1 0x0 MSTORE PUSH1 0x20 PUSH1 0x0 KECCAK256 SWAP1 JUMPDEST DUP2 SLOAD DUP2 MSTORE SWAP1 PUSH1 0x1 ADD SWAP1 PUSH1 0x20 ADD DUP1 DUP4 GT PUSH2 0x3E87 JUMPI DUP3 SWAP1 SUB PUSH1 0x1F AND DUP3 ADD SWAP2 JUMPDEST POP POP POP POP POP SWAP4 POP DUP3 DUP1 SLOAD PUSH2 0x3EB7 SWAP1 PUSH2 0x59C8 JUMP JUMPDEST DUP1 PUSH1 0x1F ADD PUSH1 0x20 DUP1 SWAP2 DIV MUL PUSH1 0x20 ADD PUSH1 0x40 MLOAD SWAP1 DUP2 ADD PUSH1 0x40 MSTORE DUP1 SWAP3 SWAP2 SWAP1 DUP2 DUP2 MSTORE PUSH1 0x20 ADD DUP3 DUP1 SLOAD PUSH2 0x3EE3 SWAP1 PUSH2 0x59C8 JUMP JUMPDEST DUP1 ISZERO PUSH2 0x3F30 JUMPI DUP1 PUSH1 0x1F LT PUSH2 0x3F05 JUMPI PUSH2 0x100 DUP1 DUP4 SLOAD DIV MUL DUP4 MSTORE SWAP2 PUSH1 0x20 ADD SWAP2 PUSH2 0x3F30 JUMP JUMPDEST DUP3 ADD SWAP2 SWAP1 PUSH1 0x0 MSTORE PUSH1 0x20 PUSH1 0x0 KECCAK256 SWAP1 JUMPDEST DUP2 SLOAD DUP2 MSTORE SWAP1 PUSH1 0x1 ADD SWAP1 PUSH1 0x20 ADD DUP1 DUP4 GT PUSH2 0x3F13 JUMPI DUP3 SWAP1 SUB PUSH1 0x1F AND DUP3 ADD SWAP2 JUMPDEST POP POP POP POP POP SWAP3 POP DUP1 DUP1 SLOAD PUSH2 0x3F43 SWAP1 PUSH2 0x59C8 JUMP JUMPDEST DUP1 PUSH1 0x1F ADD PUSH1 0x20 DUP1 SWAP2 DIV MUL PUSH1 0x20 ADD PUSH1 0x40 MLOAD SWAP1 DUP2 ADD PUSH1 0x40 MSTORE DUP1 SWAP3 SWAP2 SWAP1 DUP2 DUP2 MSTORE PUSH1 0x20 ADD DUP3 DUP1 SLOAD PUSH2 0x3F6F SWAP1 PUSH2 0x59C8 JUMP JUMPDEST DUP1 ISZERO PUSH2 0x3FBC JUMPI DUP1 PUSH1 0x1F LT PUSH2 0x3F91 JUMPI PUSH2 0x100 DUP1 DUP4 SLOAD DIV MUL DUP4 MSTORE SWAP2 PUSH1 0x20 ADD SWAP2 PUSH2 0x3FBC JUMP JUMPDEST DUP3 ADD SWAP2 SWAP1 PUSH1 0x0 MSTORE PUSH1 0x20 PUSH1 0x0 KECCAK256 SWAP1 JUMPDEST DUP2 SLOAD DUP2 MSTORE SWAP1 PUSH1 0x1 ADD SWAP1 PUSH1 0x20 ADD DUP1 DUP4 GT PUSH2 0x3F9F JUMPI DUP3 SWAP1 SUB PUSH1 0x1F AND DUP3 ADD SWAP2 JUMPDEST POP POP POP POP POP SWAP1 POP SWAP7 POP SWAP7 POP SWAP7 POP SWAP7 POP SWAP7 POP SWAP7 POP POP SWAP4 SWAP8 POP SWAP4 SWAP8 SWAP2 SWAP6 POP SWAP4 POP JUMP JUMPDEST DUP1 PUSH1 0x0 PUSH1 0x8 DUP2 GT ISZERO PUSH2 0x3FF1 JUMPI PUSH2 0x3FF0 PUSH2 0x5AA3 JUMP JUMPDEST JUMPDEST PUSH1 0x3 PUSH1 0x0 DUP4 DUP2 MSTORE PUSH1 0x20 ADD SWAP1 DUP2 MSTORE PUSH1 0x20 ADD PUSH1 0x0 KECCAK256 PUSH1 0x2 ADD PUSH1 0x14 SWAP1 SLOAD SWAP1 PUSH2 0x100 EXP SWAP1 DIV PUSH1 0xFF AND PUSH1 0x8 DUP2 GT ISZERO PUSH2 0x4027 JUMPI PUSH2 0x4026 PUSH2 0x5AA3 JUMP JUMPDEST JUMPDEST EQ PUSH2 0x4031 JUMPI PUSH1 0x0 DUP1 REVERT JUMPDEST PUSH2 0x403A CALLER PUSH2 0x4563 JUMP JUMPDEST PUSH2 0x4043 JUMPI PUSH1 0x0 DUP1 REVERT JUMPDEST CALLER PUSH1 0x3 PUSH1 0x0 DUP5 DUP2 MSTORE PUSH1 0x20 ADD SWAP1 DUP2 MSTORE PUSH1 0x20 ADD PUSH1 0x0 KECCAK256 PUSH1 0x9 ADD PUSH1 0x0 ADD PUSH1 0x0 PUSH2 0x100 EXP DUP2 SLOAD DUP2 PUSH20 0xFFFFFFFFFFFFFFFFFFFFFFFFFFFFFFFFFFFFFFFF MUL NOT AND SWAP1 DUP4 PUSH20 0xFFFFFFFFFFFFFFFFFFFFFFFFFFFFFFFFFFFFFFFF AND MUL OR SWAP1 SSTORE POP PUSH1 0x1 PUSH1 0x3 PUSH1 0x0 DUP5 DUP2 MSTORE PUSH1 0x20 ADD SWAP1 DUP2 MSTORE PUSH1 0x20 ADD PUSH1 0x0 KECCAK256 PUSH1 0x2 ADD PUSH1 0x14 PUSH2 0x100 EXP DUP2 SLOAD DUP2 PUSH1 0xFF MUL NOT AND SWAP1 DUP4 PUSH1 0x8 DUP2 GT ISZERO PUSH2 0x40D5 JUMPI PUSH2 0x40D4 PUSH2 0x5AA3 JUMP JUMPDEST JUMPDEST MUL OR SWAP1 SSTORE POP PUSH1 0x4 PUSH1 0x0 DUP4 DUP2 MSTORE PUSH1 0x20 ADD SWAP1 DUP2 MSTORE PUSH1 0x20 ADD PUSH1 0x0 KECCAK256 PUSH1 0x0 ADD PUSH1 0x3 PUSH1 0x0 DUP5 DUP2 MSTORE PUSH1 0x20 ADD SWAP1 DUP2 MSTORE PUSH1 0x20 ADD PUSH1 0x0 KECCAK256 SWAP1 DUP1 PUSH1 0x1 DUP2 SLOAD ADD DUP1 DUP3 SSTORE DUP1 SWAP2 POP POP PUSH1 0x1 SWAP1 SUB SWAP1 PUSH1 0x0 MSTORE PUSH1 0x20 PUSH1 0x0 KECCAK256 SWAP1 PUSH1 0x15 MUL ADD PUSH1 0x0 SWAP1 SWAP2 SWAP1 SWAP2 SWAP1 SWAP2 POP PUSH1 0x0 DUP3 ADD SLOAD DUP2 PUSH1 0x0 ADD SSTORE PUSH1 0x1 DUP3 ADD SLOAD DUP2 PUSH1 0x1 ADD SSTORE PUSH1 0x2 DUP3 ADD PUSH1 0x0 SWAP1 SLOAD SWAP1 PUSH2 0x100 EXP SWAP1 DIV PUSH20 0xFFFFFFFFFFFFFFFFFFFFFFFFFFFFFFFFFFFFFFFF AND DUP2 PUSH1 0x2 ADD PUSH1 0x0 PUSH2 0x100 EXP DUP2 SLOAD DUP2 PUSH20 0xFFFFFFFFFFFFFFFFFFFFFFFFFFFFFFFFFFFFFFFF MUL NOT AND SWAP1 DUP4 PUSH20 0xFFFFFFFFFFFFFFFFFFFFFFFFFFFFFFFFFFFFFFFF AND MUL OR SWAP1 SSTORE POP PUSH1 0x2 DUP3 ADD PUSH1 0x14 SWAP1 SLOAD SWAP1 PUSH2 0x100 EXP SWAP1 DIV PUSH1 0xFF AND DUP2 PUSH1 0x2 ADD PUSH1 0x14 PUSH2 0x100 EXP DUP2 SLOAD DUP2 PUSH1 0xFF MUL NOT AND SWAP1 DUP4 PUSH1 0x8 DUP2 GT ISZERO PUSH2 0x41DF JUMPI PUSH2 0x41DE PUSH2 0x5AA3 JUMP JUMPDEST JUMPDEST MUL OR SWAP1 SSTORE POP PUSH1 0x3 DUP3 ADD DUP2 PUSH1 0x3 ADD PUSH1 0x0 DUP3 ADD PUSH1 0x0 SWAP1 SLOAD SWAP1 PUSH2 0x100 EXP SWAP1 DIV PUSH20 0xFFFFFFFFFFFFFFFFFFFFFFFFFFFFFFFFFFFFFFFF AND DUP2 PUSH1 0x0 ADD PUSH1 0x0 PUSH2 0x100 EXP DUP2 SLOAD DUP2 PUSH20 0xFFFFFFFFFFFFFFFFFFFFFFFFFFFFFFFFFFFFFFFF MUL NOT AND SWAP1 DUP4 PUSH20 0xFFFFFFFFFFFFFFFFFFFFFFFFFFFFFFFFFFFFFFFF AND MUL OR SWAP1 SSTORE POP PUSH1 0x1 DUP3 ADD DUP2 PUSH1 0x1 ADD SWAP1 DUP1 SLOAD PUSH2 0x4267 SWAP1 PUSH2 0x59C8 JUMP JUMPDEST PUSH2 0x4272 SWAP3 SWAP2 SWAP1 PUSH2 0x5030 JUMP JUMPDEST POP PUSH1 0x2 DUP3 ADD DUP2 PUSH1 0x2 ADD SWAP1 DUP1 SLOAD PUSH2 0x4287 SWAP1 PUSH2 0x59C8 JUMP JUMPDEST PUSH2 0x4292 SWAP3 SWAP2 SWAP1 PUSH2 0x5030 JUMP JUMPDEST POP PUSH1 0x3 DUP3 ADD DUP2 PUSH1 0x3 ADD SWAP1 DUP1 SLOAD PUSH2 0x42A7 SWAP1 PUSH2 0x59C8 JUMP JUMPDEST PUSH2 0x42B2 SWAP3 SWAP2 SWAP1 PUSH2 0x5030 JUMP JUMPDEST POP PUSH1 0x4 DUP3 ADD DUP2 PUSH1 0x4 ADD SWAP1 DUP1 SLOAD PUSH2 0x42C7 SWAP1 PUSH2 0x59C8 JUMP JUMPDEST PUSH2 0x42D2 SWAP3 SWAP2 SWAP1 PUSH2 0x5030 JUMP JUMPDEST POP PUSH1 0x5 DUP3 ADD SLOAD DUP2 PUSH1 0x5 ADD SSTORE POP POP PUSH1 0x9 DUP3 ADD DUP2 PUSH1 0x9 ADD PUSH1 0x0 DUP3 ADD PUSH1 0x0 SWAP1 SLOAD SWAP1 PUSH2 0x100 EXP SWAP1 DIV PUSH20 0xFFFFFFFFFFFFFFFFFFFFFFFFFFFFFFFFFFFFFFFF AND DUP2 PUSH1 0x0 ADD PUSH1 0x0 PUSH2 0x100 EXP DUP2 SLOAD DUP2 PUSH20 0xFFFFFFFFFFFFFFFFFFFFFFFFFFFFFFFFFFFFFFFF MUL NOT AND SWAP1 DUP4 PUSH20 0xFFFFFFFFFFFFFFFFFFFFFFFFFFFFFFFFFFFFFFFF AND MUL OR SWAP1 SSTORE POP PUSH1 0x1 DUP3 ADD DUP2 PUSH1 0x1 ADD SWAP1 DUP1 SLOAD PUSH2 0x4362 SWAP1 PUSH2 0x59C8 JUMP JUMPDEST PUSH2 0x436D SWAP3 SWAP2 SWAP1 PUSH2 0x5030 JUMP JUMPDEST POP PUSH1 0x2 DUP3 ADD DUP2 PUSH1 0x2 ADD SWAP1 DUP1 SLOAD PUSH2 0x4382 SWAP1 PUSH2 0x59C8 JUMP JUMPDEST PUSH2 0x438D SWAP3 SWAP2 SWAP1 PUSH2 0x5030 JUMP JUMPDEST POP POP POP PUSH1 0xC DUP3 ADD DUP2 PUSH1 0xC ADD PUSH1 0x0 DUP3 ADD DUP2 PUSH1 0x0 ADD SWAP1 DUP1 SLOAD PUSH2 0x43AC SWAP1 PUSH2 0x59C8 JUMP JUMPDEST PUSH2 0x43B7 SWAP3 SWAP2 SWAP1 PUSH2 0x5030 JUMP JUMPDEST POP PUSH1 0x1 DUP3 ADD SLOAD DUP2 PUSH1 0x1 ADD SSTORE PUSH1 0x2 DUP3 ADD SLOAD DUP2 PUSH1 0x2 ADD SSTORE PUSH1 0x3 DUP3 ADD DUP2 PUSH1 0x3 ADD SWAP1 DUP1 SLOAD PUSH2 0x43E0 SWAP1 PUSH2 0x59C8 JUMP JUMPDEST PUSH2 0x43EB SWAP3 SWAP2 SWAP1 PUSH2 0x5030 JUMP JUMPDEST POP POP POP PUSH1 0x10 DUP3 ADD DUP2 PUSH1 0x10 ADD PUSH1 0x0 DUP3 ADD PUSH1 0x0 SWAP1 SLOAD SWAP1 PUSH2 0x100 EXP SWAP1 DIV PUSH20 0xFFFFFFFFFFFFFFFFFFFFFFFFFFFFFFFFFFFFFFFF AND DUP2 PUSH1 0x0 ADD PUSH1 0x0 PUSH2 0x100 EXP DUP2 SLOAD DUP2 PUSH20 0xFFFFFFFFFFFFFFFFFFFFFFFFFFFFFFFFFFFFFFFF MUL NOT AND SWAP1 DUP4 PUSH20 0xFFFFFFFFFFFFFFFFFFFFFFFFFFFFFFFFFFFFFFFF AND MUL OR SWAP1 SSTORE POP PUSH1 0x1 DUP3 ADD DUP2 PUSH1 0x1 ADD SWAP1 DUP1 SLOAD PUSH2 0x4471 SWAP1 PUSH2 0x59C8 JUMP JUMPDEST PUSH2 0x447C SWAP3 SWAP2 SWAP1 PUSH2 0x5030 JUMP JUMPDEST POP PUSH1 0x2 DUP3 ADD DUP2 PUSH1 0x2 ADD SWAP1 DUP1 SLOAD PUSH2 0x4491 SWAP1 PUSH2 0x59C8 JUMP JUMPDEST PUSH2 0x449C SWAP3 SWAP2 SWAP1 PUSH2 0x5030 JUMP JUMPDEST POP POP POP PUSH1 0x13 DUP3 ADD PUSH1 0x0 SWAP1 SLOAD SWAP1 PUSH2 0x100 EXP SWAP1 DIV PUSH20 0xFFFFFFFFFFFFFFFFFFFFFFFFFFFFFFFFFFFFFFFF AND DUP2 PUSH1 0x13 ADD PUSH1 0x0 PUSH2 0x100 EXP DUP2 SLOAD DUP2 PUSH20 0xFFFFFFFFFFFFFFFFFFFFFFFFFFFFFFFFFFFFFFFF MUL NOT AND SWAP1 DUP4 PUSH20 0xFFFFFFFFFFFFFFFFFFFFFFFFFFFFFFFFFFFFFFFF AND MUL OR SWAP1 SSTORE POP PUSH1 0x14 DUP3 ADD DUP2 PUSH1 0x14 ADD SWAP1 DUP1 SLOAD PUSH2 0x451A SWAP1 PUSH2 0x59C8 JUMP JUMPDEST PUSH2 0x4525 SWAP3 SWAP2 SWAP1 PUSH2 0x5030 JUMP JUMPDEST POP POP POP PUSH32 0x112C8ADC962C1DE46B0AE9499CD428DC90FEB4C13A4DF0C69D7E5E27AB34AE87 DUP3 PUSH1 0x40 MLOAD PUSH2 0x4557 SWAP2 SWAP1 PUSH2 0x56D5 JUMP JUMPDEST PUSH1 0x40 MLOAD DUP1 SWAP2 SUB SWAP1 LOG1 POP POP JUMP JUMPDEST PUSH1 0x0 DUP1 PUSH20 0xFFFFFFFFFFFFFFFFFFFFFFFFFFFFFFFFFFFFFFFF AND DUP3 PUSH20 0xFFFFFFFFFFFFFFFFFFFFFFFFFFFFFFFFFFFFFFFF AND EQ ISZERO PUSH2 0x459E JUMPI PUSH1 0x0 DUP1 REVERT JUMPDEST PUSH1 0x5 PUSH1 0x0 DUP4 PUSH20 0xFFFFFFFFFFFFFFFFFFFFFFFFFFFFFFFFFFFFFFFF AND PUSH20 0xFFFFFFFFFFFFFFFFFFFFFFFFFFFFFFFFFFFFFFFF AND DUP2 MSTORE PUSH1 0x20 ADD SWAP1 DUP2 MSTORE PUSH1 0x20 ADD PUSH1 0x0 KECCAK256 PUSH1 0x0 ADD PUSH1 0x1 SWAP1 SLOAD SWAP1 PUSH2 0x100 EXP SWAP1 DIV PUSH1 0xFF AND SWAP1 POP SWAP2 SWAP1 POP JUMP JUMPDEST PUSH1 0x0 DUP1 PUSH20 0xFFFFFFFFFFFFFFFFFFFFFFFFFFFFFFFFFFFFFFFF AND DUP3 PUSH20 0xFFFFFFFFFFFFFFFFFFFFFFFFFFFFFFFFFFFFFFFF AND EQ ISZERO PUSH2 0x4630 JUMPI PUSH1 0x0 DUP1 REVERT JUMPDEST PUSH1 0x5 PUSH1 0x0 DUP4 PUSH20 0xFFFFFFFFFFFFFFFFFFFFFFFFFFFFFFFFFFFFFFFF AND PUSH20 0xFFFFFFFFFFFFFFFFFFFFFFFFFFFFFFFFFFFFFFFF AND DUP2 MSTORE PUSH1 0x20 ADD SWAP1 DUP2 MSTORE PUSH1 0x20 ADD PUSH1 0x0 KECCAK256 PUSH1 0x0 ADD PUSH1 0x2 SWAP1 SLOAD SWAP1 PUSH2 0x100 EXP SWAP1 DIV PUSH1 0xFF AND SWAP1 POP SWAP2 SWAP1 POP JUMP JUMPDEST PUSH1 0x0 PUSH1 0x3 PUSH1 0x0 DUP4 DUP2 MSTORE PUSH1 0x20 ADD SWAP1 DUP2 MSTORE PUSH1 0x20 ADD PUSH1 0x0 KECCAK256 PUSH1 0x2 ADD PUSH1 0x14 SWAP1 SLOAD SWAP1 PUSH2 0x100 EXP SWAP1 DIV PUSH1 0xFF AND SWAP1 POP SWAP2 SWAP1 POP JUMP JUMPDEST DUP1 PUSH1 0x4 PUSH1 0x0 PUSH1 0x1 PUSH1 0x0 SLOAD PUSH2 0x46C8 SWAP2 SWAP1 PUSH2 0x58E5 JUMP JUMPDEST DUP2 MSTORE PUSH1 0x20 ADD SWAP1 DUP2 MSTORE PUSH1 0x20 ADD PUSH1 0x0 KECCAK256 PUSH1 0x0 ADD PUSH1 0x1 PUSH1 0x4 PUSH1 0x0 PUSH1 0x1 PUSH1 0x0 SLOAD PUSH2 0x46EE SWAP2 SWAP1 PUSH2 0x58E5 JUMP JUMPDEST DUP2 MSTORE PUSH1 0x20 ADD SWAP1 DUP2 MSTORE PUSH1 0x20 ADD PUSH1 0x0 KECCAK256 PUSH1 0x0 ADD DUP1 SLOAD SWAP1 POP PUSH2 0x470D SWAP2 SWAP1 PUSH2 0x58E5 JUMP JUMPDEST DUP2 SLOAD DUP2 LT PUSH2 0x471E JUMPI PUSH2 0x471D PUSH2 0x5B01 JUMP JUMPDEST JUMPDEST SWAP1 PUSH1 0x0 MSTORE PUSH1 0x20 PUSH1 0x0 KECCAK256 SWAP1 PUSH1 0x15 MUL ADD PUSH1 0x14 ADD SWAP1 DUP1 MLOAD SWAP1 PUSH1 0x20 ADD SWAP1 PUSH2 0x4742 SWAP3 SWAP2 SWAP1 PUSH2 0x4FAA JUMP JUMPDEST POP POP JUMP JUMPDEST PUSH1 0x3 PUSH1 0x0 DUP3 DUP2 MSTORE PUSH1 0x20 ADD SWAP1 DUP2 MSTORE PUSH1 0x20 ADD PUSH1 0x0 KECCAK256 PUSH1 0x2 ADD PUSH1 0x0 SWAP1 SLOAD SWAP1 PUSH2 0x100 EXP SWAP1 DIV PUSH20 0xFFFFFFFFFFFFFFFFFFFFFFFFFFFFFFFFFFFFFFFF AND DUP1 PUSH20 0xFFFFFFFFFFFFFFFFFFFFFFFFFFFFFFFFFFFFFFFF AND CALLER PUSH20 0xFFFFFFFFFFFFFFFFFFFFFFFFFFFFFFFFFFFFFFFF AND EQ PUSH2 0x47B5 JUMPI PUSH1 0x0 DUP1 REVERT JUMPDEST PUSH1 0x3 PUSH1 0x0 DUP4 DUP2 MSTORE PUSH1 0x20 ADD SWAP1 DUP2 MSTORE PUSH1 0x20 ADD PUSH1 0x0 KECCAK256 PUSH1 0x9 ADD PUSH1 0x0 ADD PUSH1 0x0 SWAP1 SLOAD SWAP1 PUSH2 0x100 EXP SWAP1 DIV PUSH20 0xFFFFFFFFFFFFFFFFFFFFFFFFFFFFFFFFFFFFFFFF AND DUP1 PUSH20 0xFFFFFFFFFFFFFFFFFFFFFFFFFFFFFFFFFFFFFFFF AND CALLER PUSH20 0xFFFFFFFFFFFFFFFFFFFFFFFFFFFFFFFFFFFFFFFF AND EQ PUSH2 0x4827 JUMPI PUSH1 0x0 DUP1 REVERT JUMPDEST PUSH2 0x4830 CALLER PUSH2 0x4563 JUMP JUMPDEST PUSH2 0x4839 JUMPI PUSH1 0x0 DUP1 REVERT JUMPDEST PUSH1 0x5 PUSH1 0x3 PUSH1 0x0 DUP6 DUP2 MSTORE PUSH1 0x20 ADD SWAP1 DUP2 MSTORE PUSH1 0x20 ADD PUSH1 0x0 KECCAK256 PUSH1 0x2 ADD PUSH1 0x14 PUSH2 0x100 EXP DUP2 SLOAD DUP2 PUSH1 0xFF MUL NOT AND SWAP1 DUP4 PUSH1 0x8 DUP2 GT ISZERO PUSH2 0x4873 JUMPI PUSH2 0x4872 PUSH2 0x5AA3 JUMP JUMPDEST JUMPDEST MUL OR SWAP1 SSTORE POP PUSH1 0x4 PUSH1 0x0 DUP5 DUP2 MSTORE PUSH1 0x20 ADD SWAP1 DUP2 MSTORE PUSH1 0x20 ADD PUSH1 0x0 KECCAK256 PUSH1 0x0 ADD PUSH1 0x3 PUSH1 0x0 DUP6 DUP2 MSTORE PUSH1 0x20 ADD SWAP1 DUP2 MSTORE PUSH1 0x20 ADD PUSH1 0x0 KECCAK256 SWAP1 DUP1 PUSH1 0x1 DUP2 SLOAD ADD DUP1 DUP3 SSTORE DUP1 SWAP2 POP POP PUSH1 0x1 SWAP1 SUB SWAP1 PUSH1 0x0 MSTORE PUSH1 0x20 PUSH1 0x0 KECCAK256 SWAP1 PUSH1 0x15 MUL ADD PUSH1 0x0 SWAP1 SWAP2 SWAP1 SWAP2 SWAP1 SWAP2 POP PUSH1 0x0 DUP3 ADD SLOAD DUP2 PUSH1 0x0 ADD SSTORE PUSH1 0x1 DUP3 ADD SLOAD DUP2 PUSH1 0x1 ADD SSTORE PUSH1 0x2 DUP3 ADD PUSH1 0x0 SWAP1 SLOAD SWAP1 PUSH2 0x100 EXP SWAP1 DIV PUSH20 0xFFFFFFFFFFFFFFFFFFFFFFFFFFFFFFFFFFFFFFFF AND DUP2 PUSH1 0x2 ADD PUSH1 0x0 PUSH2 0x100 EXP DUP2 SLOAD DUP2 PUSH20 0xFFFFFFFFFFFFFFFFFFFFFFFFFFFFFFFFFFFFFFFF MUL NOT AND SWAP1 DUP4 PUSH20 0xFFFFFFFFFFFFFFFFFFFFFFFFFFFFFFFFFFFFFFFF AND MUL OR SWAP1 SSTORE POP PUSH1 0x2 DUP3 ADD PUSH1 0x14 SWAP1 SLOAD SWAP1 PUSH2 0x100 EXP SWAP1 DIV PUSH1 0xFF AND DUP2 PUSH1 0x2 ADD PUSH1 0x14 PUSH2 0x100 EXP DUP2 SLOAD DUP2 PUSH1 0xFF MUL NOT AND SWAP1 DUP4 PUSH1 0x8 DUP2 GT ISZERO PUSH2 0x497D JUMPI PUSH2 0x497C PUSH2 0x5AA3 JUMP JUMPDEST JUMPDEST MUL OR SWAP1 SSTORE POP PUSH1 0x3 DUP3 ADD DUP2 PUSH1 0x3 ADD PUSH1 0x0 DUP3 ADD PUSH1 0x0 SWAP1 SLOAD SWAP1 PUSH2 0x100 EXP SWAP1 DIV PUSH20 0xFFFFFFFFFFFFFFFFFFFFFFFFFFFFFFFFFFFFFFFF AND DUP2 PUSH1 0x0 ADD PUSH1 0x0 PUSH2 0x100 EXP DUP2 SLOAD DUP2 PUSH20 0xFFFFFFFFFFFFFFFFFFFFFFFFFFFFFFFFFFFFFFFF MUL NOT AND SWAP1 DUP4 PUSH20 0xFFFFFFFFFFFFFFFFFFFFFFFFFFFFFFFFFFFFFFFF AND MUL OR SWAP1 SSTORE POP PUSH1 0x1 DUP3 ADD DUP2 PUSH1 0x1 ADD SWAP1 DUP1 SLOAD PUSH2 0x4A05 SWAP1 PUSH2 0x59C8 JUMP JUMPDEST PUSH2 0x4A10 SWAP3 SWAP2 SWAP1 PUSH2 0x5030 JUMP JUMPDEST POP PUSH1 0x2 DUP3 ADD DUP2 PUSH1 0x2 ADD SWAP1 DUP1 SLOAD PUSH2 0x4A25 SWAP1 PUSH2 0x59C8 JUMP JUMPDEST PUSH2 0x4A30 SWAP3 SWAP2 SWAP1 PUSH2 0x5030 JUMP JUMPDEST POP PUSH1 0x3 DUP3 ADD DUP2 PUSH1 0x3 ADD SWAP1 DUP1 SLOAD PUSH2 0x4A45 SWAP1 PUSH2 0x59C8 JUMP JUMPDEST PUSH2 0x4A50 SWAP3 SWAP2 SWAP1 PUSH2 0x5030 JUMP JUMPDEST POP PUSH1 0x4 DUP3 ADD DUP2 PUSH1 0x4 ADD SWAP1 DUP1 SLOAD PUSH2 0x4A65 SWAP1 PUSH2 0x59C8 JUMP JUMPDEST PUSH2 0x4A70 SWAP3 SWAP2 SWAP1 PUSH2 0x5030 JUMP JUMPDEST POP PUSH1 0x5 DUP3 ADD SLOAD DUP2 PUSH1 0x5 ADD SSTORE POP POP PUSH1 0x9 DUP3 ADD DUP2 PUSH1 0x9 ADD PUSH1 0x0 DUP3 ADD PUSH1 0x0 SWAP1 SLOAD SWAP1 PUSH2 0x100 EXP SWAP1 DIV PUSH20 0xFFFFFFFFFFFFFFFFFFFFFFFFFFFFFFFFFFFFFFFF AND DUP2 PUSH1 0x0 ADD PUSH1 0x0 PUSH2 0x100 EXP DUP2 SLOAD DUP2 PUSH20 0xFFFFFFFFFFFFFFFFFFFFFFFFFFFFFFFFFFFFFFFF MUL NOT AND SWAP1 DUP4 PUSH20 0xFFFFFFFFFFFFFFFFFFFFFFFFFFFFFFFFFFFFFFFF AND MUL OR SWAP1 SSTORE POP PUSH1 0x1 DUP3 ADD DUP2 PUSH1 0x1 ADD SWAP1 DUP1 SLOAD PUSH2 0x4B00 SWAP1 PUSH2 0x59C8 JUMP JUMPDEST PUSH2 0x4B0B SWAP3 SWAP2 SWAP1 PUSH2 0x5030 JUMP JUMPDEST POP PUSH1 0x2 DUP3 ADD DUP2 PUSH1 0x2 ADD SWAP1 DUP1 SLOAD PUSH2 0x4B20 SWAP1 PUSH2 0x59C8 JUMP JUMPDEST PUSH2 0x4B2B SWAP3 SWAP2 SWAP1 PUSH2 0x5030 JUMP JUMPDEST POP POP POP PUSH1 0xC DUP3 ADD DUP2 PUSH1 0xC ADD PUSH1 0x0 DUP3 ADD DUP2 PUSH1 0x0 ADD SWAP1 DUP1 SLOAD PUSH2 0x4B4A SWAP1 PUSH2 0x59C8 JUMP JUMPDEST PUSH2 0x4B55 SWAP3 SWAP2 SWAP1 PUSH2 0x5030 JUMP JUMPDEST POP PUSH1 0x1 DUP3 ADD SLOAD DUP2 PUSH1 0x1 ADD SSTORE PUSH1 0x2 DUP3 ADD SLOAD DUP2 PUSH1 0x2 ADD SSTORE PUSH1 0x3 DUP3 ADD DUP2 PUSH1 0x3 ADD SWAP1 DUP1 SLOAD PUSH2 0x4B7E SWAP1 PUSH2 0x59C8 JUMP JUMPDEST PUSH2 0x4B89 SWAP3 SWAP2 SWAP1 PUSH2 0x5030 JUMP JUMPDEST POP POP POP PUSH1 0x10 DUP3 ADD DUP2 PUSH1 0x10 ADD PUSH1 0x0 DUP3 ADD PUSH1 0x0 SWAP1 SLOAD SWAP1 PUSH2 0x100 EXP SWAP1 DIV PUSH20 0xFFFFFFFFFFFFFFFFFFFFFFFFFFFFFFFFFFFFFFFF AND DUP2 PUSH1 0x0 ADD PUSH1 0x0 PUSH2 0x100 EXP DUP2 SLOAD DUP2 PUSH20 0xFFFFFFFFFFFFFFFFFFFFFFFFFFFFFFFFFFFFFFFF MUL NOT AND SWAP1 DUP4 PUSH20 0xFFFFFFFFFFFFFFFFFFFFFFFFFFFFFFFFFFFFFFFF AND MUL OR SWAP1 SSTORE POP PUSH1 0x1 DUP3 ADD DUP2 PUSH1 0x1 ADD SWAP1 DUP1 SLOAD PUSH2 0x4C0F SWAP1 PUSH2 0x59C8 JUMP JUMPDEST PUSH2 0x4C1A SWAP3 SWAP2 SWAP1 PUSH2 0x5030 JUMP JUMPDEST POP PUSH1 0x2 DUP3 ADD DUP2 PUSH1 0x2 ADD SWAP1 DUP1 SLOAD PUSH2 0x4C2F SWAP1 PUSH2 0x59C8 JUMP JUMPDEST PUSH2 0x4C3A SWAP3 SWAP2 SWAP1 PUSH2 0x5030 JUMP JUMPDEST POP POP POP PUSH1 0x13 DUP3 ADD PUSH1 0x0 SWAP1 SLOAD SWAP1 PUSH2 0x100 EXP SWAP1 DIV PUSH20 0xFFFFFFFFFFFFFFFFFFFFFFFFFFFFFFFFFFFFFFFF AND DUP2 PUSH1 0x13 ADD PUSH1 0x0 PUSH2 0x100 EXP DUP2 SLOAD DUP2 PUSH20 0xFFFFFFFFFFFFFFFFFFFFFFFFFFFFFFFFFFFFFFFF MUL NOT AND SWAP1 DUP4 PUSH20 0xFFFFFFFFFFFFFFFFFFFFFFFFFFFFFFFFFFFFFFFF AND MUL OR SWAP1 SSTORE POP PUSH1 0x14 DUP3 ADD DUP2 PUSH1 0x14 ADD SWAP1 DUP1 SLOAD PUSH2 0x4CB8 SWAP1 PUSH2 0x59C8 JUMP JUMPDEST PUSH2 0x4CC3 SWAP3 SWAP2 SWAP1 PUSH2 0x5030 JUMP JUMPDEST POP POP POP PUSH32 0xF2452D569E5BC407D222A6BCAD7D4BB8BAC5FAE64CE52FA183BD77E34E0CC147 DUP4 PUSH1 0x40 MLOAD PUSH2 0x4CF5 SWAP2 SWAP1 PUSH2 0x56D5 JUMP JUMPDEST PUSH1 0x40 MLOAD DUP1 SWAP2 SUB SWAP1 LOG1 POP POP POP JUMP JUMPDEST PUSH1 0x0 DUP1 SLOAD SWAP1 POP SWAP1 JUMP JUMPDEST PUSH1 0x0 PUSH20 0xFFFFFFFFFFFFFFFFFFFFFFFFFFFFFFFFFFFFFFFF AND DUP2 PUSH20 0xFFFFFFFFFFFFFFFFFFFFFFFFFFFFFFFFFFFFFFFF AND EQ ISZERO PUSH2 0x4D45 JUMPI PUSH1 0x0 DUP1 REVERT JUMPDEST PUSH2 0x4D4E DUP2 PUSH2 0x45F5 JUMP JUMPDEST ISZERO PUSH2 0x4D58 JUMPI PUSH1 0x0 DUP1 REVERT JUMPDEST PUSH1 0x1 PUSH1 0x5 PUSH1 0x0 DUP4 PUSH20 0xFFFFFFFFFFFFFFFFFFFFFFFFFFFFFFFFFFFFFFFF AND PUSH20 0xFFFFFFFFFFFFFFFFFFFFFFFFFFFFFFFFFFFFFFFF AND DUP2 MSTORE PUSH1 0x20 ADD SWAP1 DUP2 MSTORE PUSH1 0x20 ADD PUSH1 0x0 KECCAK256 PUSH1 0x0 ADD PUSH1 0x2 PUSH2 0x100 EXP DUP2 SLOAD DUP2 PUSH1 0xFF MUL NOT AND SWAP1 DUP4 ISZERO ISZERO MUL OR SWAP1 SSTORE POP POP JUMP JUMPDEST PUSH1 0x0 SLOAD DUP2 JUMP JUMPDEST PUSH1 0x0 PUSH1 0x60 DUP1 PUSH1 0x60 PUSH1 0x0 PUSH1 0x60 DUP1 PUSH1 0x0 DUP8 DUP10 PUSH1 0xA0 ADD MLOAD PUSH1 0x0 ADD SWAP1 PUSH20 0xFFFFFFFFFFFFFFFFFFFFFFFFFFFFFFFFFFFFFFFF AND SWAP1 DUP2 PUSH20 0xFFFFFFFFFFFFFFFFFFFFFFFFFFFFFFFFFFFFFFFF AND DUP2 MSTORE POP POP DUP6 DUP10 PUSH1 0xA0 ADD MLOAD PUSH1 0x20 ADD DUP2 SWAP1 MSTORE POP DUP5 DUP10 PUSH1 0xA0 ADD MLOAD PUSH1 0x40 ADD DUP2 SWAP1 MSTORE POP DUP4 DUP10 PUSH1 0xE0 ADD MLOAD PUSH1 0x0 ADD SWAP1 PUSH20 0xFFFFFFFFFFFFFFFFFFFFFFFFFFFFFFFFFFFFFFFF AND SWAP1 DUP2 PUSH20 0xFFFFFFFFFFFFFFFFFFFFFFFFFFFFFFFFFFFFFFFF AND DUP2 MSTORE POP POP DUP3 DUP10 PUSH1 0xE0 ADD MLOAD PUSH1 0x20 ADD DUP2 SWAP1 MSTORE POP DUP2 DUP10 PUSH1 0xE0 ADD MLOAD PUSH1 0x40 ADD DUP2 SWAP1 MSTORE POP DUP1 DUP10 PUSH2 0x100 ADD SWAP1 PUSH20 0xFFFFFFFFFFFFFFFFFFFFFFFFFFFFFFFFFFFFFFFF AND SWAP1 DUP2 PUSH20 0xFFFFFFFFFFFFFFFFFFFFFFFFFFFFFFFFFFFFFFFF AND DUP2 MSTORE POP POP DUP7 DUP10 PUSH2 0x120 ADD DUP2 SWAP1 MSTORE POP POP POP POP POP POP POP POP POP POP JUMP JUMPDEST DUP4 DUP6 PUSH1 0xC0 ADD MLOAD PUSH1 0x0 ADD DUP2 SWAP1 MSTORE POP DUP3 DUP6 PUSH1 0xC0 ADD MLOAD PUSH1 0x20 ADD DUP2 DUP2 MSTORE POP POP DUP2 DUP6 PUSH1 0xC0 ADD MLOAD PUSH1 0x40 ADD DUP2 DUP2 MSTORE POP POP DUP1 DUP6 PUSH1 0xC0 ADD MLOAD PUSH1 0x60 ADD DUP2 SWAP1 MSTORE POP POP POP POP POP POP JUMP JUMPDEST PUSH1 0x40 MLOAD DUP1 PUSH2 0x140 ADD PUSH1 0x40 MSTORE DUP1 PUSH1 0x0 DUP2 MSTORE PUSH1 0x20 ADD PUSH1 0x0 DUP2 MSTORE PUSH1 0x20 ADD PUSH1 0x0 PUSH20 0xFFFFFFFFFFFFFFFFFFFFFFFFFFFFFFFFFFFFFFFF AND DUP2 MSTORE PUSH1 0x20 ADD PUSH1 0x0 PUSH1 0x8 DUP2 GT ISZERO PUSH2 0x4F4C JUMPI PUSH2 0x4F4B PUSH2 0x5AA3 JUMP JUMPDEST JUMPDEST DUP2 MSTORE PUSH1 0x20 ADD PUSH2 0x4F59 PUSH2 0x50BD JUMP JUMPDEST DUP2 MSTORE PUSH1 0x20 ADD PUSH2 0x4F66 PUSH2 0x5109 JUMP JUMPDEST DUP2 MSTORE PUSH1 0x20 ADD PUSH2 0x4F73 PUSH2 0x5140 JUMP JUMPDEST DUP2 MSTORE PUSH1 0x20 ADD PUSH2 0x4F80 PUSH2 0x5168 JUMP JUMPDEST DUP2 MSTORE PUSH1 0x20 ADD PUSH1 0x0 PUSH20 0xFFFFFFFFFFFFFFFFFFFFFFFFFFFFFFFFFFFFFFFF AND DUP2 MSTORE PUSH1 0x20 ADD PUSH1 0x60 DUP2 MSTORE POP SWAP1 JUMP JUMPDEST DUP3 DUP1 SLOAD PUSH2 0x4FB6 SWAP1 PUSH2 0x59C8 JUMP JUMPDEST SWAP1 PUSH1 0x0 MSTORE PUSH1 0x20 PUSH1 0x0 KECCAK256 SWAP1 PUSH1 0x1F ADD PUSH1 0x20 SWAP1 DIV DUP2 ADD SWAP3 DUP3 PUSH2 0x4FD8 JUMPI PUSH1 0x0 DUP6 SSTORE PUSH2 0x501F JUMP JUMPDEST DUP3 PUSH1 0x1F LT PUSH2 0x4FF1 JUMPI DUP1 MLOAD PUSH1 0xFF NOT AND DUP4 DUP1 ADD OR DUP6 SSTORE PUSH2 0x501F JUMP JUMPDEST DUP3 DUP1 ADD PUSH1 0x1 ADD DUP6 SSTORE DUP3 ISZERO PUSH2 0x501F JUMPI SWAP2 DUP3 ADD JUMPDEST DUP3 DUP2 GT ISZERO PUSH2 0x501E JUMPI DUP3 MLOAD DUP3 SSTORE SWAP2 PUSH1 0x20 ADD SWAP2 SWAP1 PUSH1 0x1 ADD SWAP1 PUSH2 0x5003 JUMP JUMPDEST JUMPDEST POP SWAP1 POP PUSH2 0x502C SWAP2 SWAP1 PUSH2 0x519F JUMP JUMPDEST POP SWAP1 JUMP JUMPDEST DUP3 DUP1 SLOAD PUSH2 0x503C SWAP1 PUSH2 0x59C8 JUMP JUMPDEST SWAP1 PUSH1 0x0 MSTORE PUSH1 0x20 PUSH1 0x0 KECCAK256 SWAP1 PUSH1 0x1F ADD PUSH1 0x20 SWAP1 DIV DUP2 ADD SWAP3 DUP3 PUSH2 0x505E JUMPI PUSH1 0x0 DUP6 SSTORE PUSH2 0x50AC JUMP JUMPDEST DUP3 PUSH1 0x1F LT PUSH2 0x506F JUMPI DUP1 SLOAD DUP6 SSTORE PUSH2 0x50AC JUMP JUMPDEST DUP3 DUP1 ADD PUSH1 0x1 ADD DUP6 SSTORE DUP3 ISZERO PUSH2 0x50AC JUMPI PUSH1 0x0 MSTORE PUSH1 0x20 PUSH1 0x0 KECCAK256 SWAP2 PUSH1 0x1F ADD PUSH1 0x20 SWAP1 DIV DUP3 ADD JUMPDEST DUP3 DUP2 GT ISZERO PUSH2 0x50AB JUMPI DUP3 SLOAD DUP3 SSTORE SWAP2 PUSH1 0x1 ADD SWAP2 SWAP1 PUSH1 0x1 ADD SWAP1 PUSH2 0x5090 JUMP JUMPDEST JUMPDEST POP SWAP1 POP PUSH2 0x50B9 SWAP2 SWAP1 PUSH2 0x519F JUMP JUMPDEST POP SWAP1 JUMP JUMPDEST PUSH1 0x40 MLOAD DUP1 PUSH1 0xC0 ADD PUSH1 0x40 MSTORE DUP1 PUSH1 0x0 PUSH20 0xFFFFFFFFFFFFFFFFFFFFFFFFFFFFFFFFFFFFFFFF AND DUP2 MSTORE PUSH1 0x20 ADD PUSH1 0x60 DUP2 MSTORE PUSH1 0x20 ADD PUSH1 0x60 DUP2 MSTORE PUSH1 0x20 ADD PUSH1 0x60 DUP2 MSTORE PUSH1 0x20 ADD PUSH1 0x60 DUP2 MSTORE PUSH1 0x20 ADD PUSH1 0x0 DUP2 MSTORE POP SWAP1 JUMP JUMPDEST PUSH1 0x40 MLOAD DUP1 PUSH1 0x60 ADD PUSH1 0x40 MSTORE DUP1 PUSH1 0x0 PUSH20 0xFFFFFFFFFFFFFFFFFFFFFFFFFFFFFFFFFFFFFFFF AND DUP2 MSTORE PUSH1 0x20 ADD PUSH1 0x60 DUP2 MSTORE PUSH1 0x20 ADD PUSH1 0x60 DUP2 MSTORE POP SWAP1 JUMP JUMPDEST PUSH1 0x40 MLOAD DUP1 PUSH1 0x80 ADD PUSH1 0x40 MSTORE DUP1 PUSH1 0x60 DUP2 MSTORE PUSH1 0x20 ADD PUSH1 0x0 DUP2 MSTORE PUSH1 0x20 ADD PUSH1 0x0 DUP2 MSTORE PUSH1 0x20 ADD PUSH1 0x60 DUP2 MSTORE POP SWAP1 JUMP JUMPDEST PUSH1 0x40 MLOAD DUP1 PUSH1 0x60 ADD PUSH1 0x40 MSTORE DUP1 PUSH1 0x0 PUSH20 0xFFFFFFFFFFFFFFFFFFFFFFFFFFFFFFFFFFFFFFFF AND DUP2 MSTORE PUSH1 0x20 ADD PUSH1 0x60 DUP2 MSTORE PUSH1 0x20 ADD PUSH1 0x60 DUP2 MSTORE POP SWAP1 JUMP JUMPDEST JUMPDEST DUP1 DUP3 GT ISZERO PUSH2 0x51B8 JUMPI PUSH1 0x0 DUP2 PUSH1 0x0 SWAP1 SSTORE POP PUSH1 0x1 ADD PUSH2 0x51A0 JUMP JUMPDEST POP SWAP1 JUMP JUMPDEST PUSH1 0x0 PUSH2 0x51CF PUSH2 0x51CA DUP5 PUSH2 0x5842 JUMP JUMPDEST PUSH2 0x581D JUMP JUMPDEST SWAP1 POP DUP3 DUP2 MSTORE PUSH1 0x20 DUP2 ADD DUP5 DUP5 DUP5 ADD GT ISZERO PUSH2 0x51EB JUMPI PUSH2 0x51EA PUSH2 0x5B64 JUMP JUMPDEST JUMPDEST PUSH2 0x51F6 DUP5 DUP3 DUP6 PUSH2 0x5986 JUMP JUMPDEST POP SWAP4 SWAP3 POP POP POP JUMP JUMPDEST PUSH1 0x0 DUP2 CALLDATALOAD SWAP1 POP PUSH2 0x520D DUP2 PUSH2 0x5B98 JUMP JUMPDEST SWAP3 SWAP2 POP POP JUMP JUMPDEST PUSH1 0x0 DUP3 PUSH1 0x1F DUP4 ADD SLT PUSH2 0x5228 JUMPI PUSH2 0x5227 PUSH2 0x5B5F JUMP JUMPDEST JUMPDEST DUP2 CALLDATALOAD PUSH2 0x5238 DUP5 DUP3 PUSH1 0x20 DUP7 ADD PUSH2 0x51BC JUMP JUMPDEST SWAP2 POP POP SWAP3 SWAP2 POP POP JUMP JUMPDEST PUSH1 0x0 DUP2 CALLDATALOAD SWAP1 POP PUSH2 0x5250 DUP2 PUSH2 0x5BAF JUMP JUMPDEST SWAP3 SWAP2 POP POP JUMP JUMPDEST PUSH1 0x0 PUSH1 0x20 DUP3 DUP5 SUB SLT ISZERO PUSH2 0x526C JUMPI PUSH2 0x526B PUSH2 0x5B6E JUMP JUMPDEST JUMPDEST PUSH1 0x0 PUSH2 0x527A DUP5 DUP3 DUP6 ADD PUSH2 0x51FE JUMP JUMPDEST SWAP2 POP POP SWAP3 SWAP2 POP POP JUMP JUMPDEST PUSH1 0x0 PUSH1 0x20 DUP3 DUP5 SUB SLT ISZERO PUSH2 0x5299 JUMPI PUSH2 0x5298 PUSH2 0x5B6E JUMP JUMPDEST JUMPDEST PUSH1 0x0 DUP3 ADD CALLDATALOAD PUSH8 0xFFFFFFFFFFFFFFFF DUP2 GT ISZERO PUSH2 0x52B7 JUMPI PUSH2 0x52B6 PUSH2 0x5B69 JUMP JUMPDEST JUMPDEST PUSH2 0x52C3 DUP5 DUP3 DUP6 ADD PUSH2 0x5213 JUMP JUMPDEST SWAP2 POP POP SWAP3 SWAP2 POP POP JUMP JUMPDEST PUSH1 0x0 DUP1 PUSH1 0x0 DUP1 PUSH1 0x0 DUP1 PUSH1 0x0 DUP1 PUSH2 0x100 DUP10 DUP12 SUB SLT ISZERO PUSH2 0x52ED JUMPI PUSH2 0x52EC PUSH2 0x5B6E JUMP JUMPDEST JUMPDEST PUSH1 0x0 DUP10 ADD CALLDATALOAD PUSH8 0xFFFFFFFFFFFFFFFF DUP2 GT ISZERO PUSH2 0x530B JUMPI PUSH2 0x530A PUSH2 0x5B69 JUMP JUMPDEST JUMPDEST PUSH2 0x5317 DUP12 DUP3 DUP13 ADD PUSH2 0x5213 JUMP JUMPDEST SWAP9 POP POP PUSH1 0x20 DUP10 ADD CALLDATALOAD PUSH8 0xFFFFFFFFFFFFFFFF DUP2 GT ISZERO PUSH2 0x5338 JUMPI PUSH2 0x5337 PUSH2 0x5B69 JUMP JUMPDEST JUMPDEST PUSH2 0x5344 DUP12 DUP3 DUP13 ADD PUSH2 0x5213 JUMP JUMPDEST SWAP8 POP POP PUSH1 0x40 DUP10 ADD CALLDATALOAD PUSH8 0xFFFFFFFFFFFFFFFF DUP2 GT ISZERO PUSH2 0x5365 JUMPI PUSH2 0x5364 PUSH2 0x5B69 JUMP JUMPDEST JUMPDEST PUSH2 0x5371 DUP12 DUP3 DUP13 ADD PUSH2 0x5213 JUMP JUMPDEST SWAP7 POP POP PUSH1 0x60 DUP10 ADD CALLDATALOAD PUSH8 0xFFFFFFFFFFFFFFFF DUP2 GT ISZERO PUSH2 0x5392 JUMPI PUSH2 0x5391 PUSH2 0x5B69 JUMP JUMPDEST JUMPDEST PUSH2 0x539E DUP12 DUP3 DUP13 ADD PUSH2 0x5213 JUMP JUMPDEST SWAP6 POP POP PUSH1 0x80 DUP10 ADD CALLDATALOAD PUSH8 0xFFFFFFFFFFFFFFFF DUP2 GT ISZERO PUSH2 0x53BF JUMPI PUSH2 0x53BE PUSH2 0x5B69 JUMP JUMPDEST JUMPDEST PUSH2 0x53CB DUP12 DUP3 DUP13 ADD PUSH2 0x5213 JUMP JUMPDEST SWAP5 POP POP PUSH1 0xA0 PUSH2 0x53DC DUP12 DUP3 DUP13 ADD PUSH2 0x5241 JUMP JUMPDEST SWAP4 POP POP PUSH1 0xC0 PUSH2 0x53ED DUP12 DUP3 DUP13 ADD PUSH2 0x5241 JUMP JUMPDEST SWAP3 POP POP PUSH1 0xE0 DUP10 ADD CALLDATALOAD PUSH8 0xFFFFFFFFFFFFFFFF DUP2 GT ISZERO PUSH2 0x540E JUMPI PUSH2 0x540D PUSH2 0x5B69 JUMP JUMPDEST JUMPDEST PUSH2 0x541A DUP12 DUP3 DUP13 ADD PUSH2 0x5213 JUMP JUMPDEST SWAP2 POP POP SWAP3 SWAP6 SWAP9 POP SWAP3 SWAP6 SWAP9 SWAP1 SWAP4 SWAP7 POP JUMP JUMPDEST PUSH1 0x0 PUSH1 0x20 DUP3 DUP5 SUB SLT ISZERO PUSH2 0x5440 JUMPI PUSH2 0x543F PUSH2 0x5B6E JUMP JUMPDEST JUMPDEST PUSH1 0x0 PUSH2 0x544E DUP5 DUP3 DUP6 ADD PUSH2 0x5241 JUMP JUMPDEST SWAP2 POP POP SWAP3 SWAP2 POP POP JUMP JUMPDEST PUSH1 0x0 DUP1 PUSH1 0x40 DUP4 DUP6 SUB SLT ISZERO PUSH2 0x546E JUMPI PUSH2 0x546D PUSH2 0x5B6E JUMP JUMPDEST JUMPDEST PUSH1 0x0 PUSH2 0x547C DUP6 DUP3 DUP7 ADD PUSH2 0x5241 JUMP JUMPDEST SWAP3 POP POP PUSH1 0x20 DUP4 ADD CALLDATALOAD PUSH8 0xFFFFFFFFFFFFFFFF DUP2 GT ISZERO PUSH2 0x549D JUMPI PUSH2 0x549C PUSH2 0x5B69 JUMP JUMPDEST JUMPDEST PUSH2 0x54A9 DUP6 DUP3 DUP7 ADD PUSH2 0x5213 JUMP JUMPDEST SWAP2 POP POP SWAP3 POP SWAP3 SWAP1 POP JUMP JUMPDEST PUSH1 0x0 DUP1 PUSH1 0x0 PUSH1 0x60 DUP5 DUP7 SUB SLT ISZERO PUSH2 0x54CC JUMPI PUSH2 0x54CB PUSH2 0x5B6E JUMP JUMPDEST JUMPDEST PUSH1 0x0 PUSH2 0x54DA DUP7 DUP3 DUP8 ADD PUSH2 0x5241 JUMP JUMPDEST SWAP4 POP POP PUSH1 0x20 DUP5 ADD CALLDATALOAD PUSH8 0xFFFFFFFFFFFFFFFF DUP2 GT ISZERO PUSH2 0x54FB JUMPI PUSH2 0x54FA PUSH2 0x5B69 JUMP JUMPDEST JUMPDEST PUSH2 0x5507 DUP7 DUP3 DUP8 ADD PUSH2 0x5213 JUMP JUMPDEST SWAP3 POP POP PUSH1 0x40 DUP5 ADD CALLDATALOAD PUSH8 0xFFFFFFFFFFFFFFFF DUP2 GT ISZERO PUSH2 0x5528 JUMPI PUSH2 0x5527 PUSH2 0x5B69 JUMP JUMPDEST JUMPDEST PUSH2 0x5534 DUP7 DUP3 DUP8 ADD PUSH2 0x5213 JUMP JUMPDEST SWAP2 POP POP SWAP3 POP SWAP3 POP SWAP3 JUMP JUMPDEST PUSH1 0x0 DUP1 PUSH1 0x0 PUSH1 0x60 DUP5 DUP7 SUB SLT ISZERO PUSH2 0x5557 JUMPI PUSH2 0x5556 PUSH2 0x5B6E JUMP JUMPDEST JUMPDEST PUSH1 0x0 PUSH2 0x5565 DUP7 DUP3 DUP8 ADD PUSH2 0x5241 JUMP JUMPDEST SWAP4 POP POP PUSH1 0x20 DUP5 ADD CALLDATALOAD PUSH8 0xFFFFFFFFFFFFFFFF DUP2 GT ISZERO PUSH2 0x5586 JUMPI PUSH2 0x5585 PUSH2 0x5B69 JUMP JUMPDEST JUMPDEST PUSH2 0x5592 DUP7 DUP3 DUP8 ADD PUSH2 0x5213 JUMP JUMPDEST SWAP3 POP POP PUSH1 0x40 PUSH2 0x55A3 DUP7 DUP3 DUP8 ADD PUSH2 0x5241 JUMP JUMPDEST SWAP2 POP POP SWAP3 POP SWAP3 POP SWAP3 JUMP JUMPDEST PUSH2 0x55B6 DUP2 PUSH2 0x5919 JUMP JUMPDEST DUP3 MSTORE POP POP JUMP JUMPDEST PUSH2 0x55C5 DUP2 PUSH2 0x592B JUMP JUMPDEST DUP3 MSTORE POP POP JUMP JUMPDEST PUSH2 0x55D4 DUP2 PUSH2 0x5974 JUMP JUMPDEST DUP3 MSTORE POP POP JUMP JUMPDEST PUSH1 0x0 PUSH2 0x55E5 DUP3 PUSH2 0x5873 JUMP JUMPDEST PUSH2 0x55EF DUP2 DUP6 PUSH2 0x587E JUMP JUMPDEST SWAP4 POP PUSH2 0x55FF DUP2 DUP6 PUSH1 0x20 DUP7 ADD PUSH2 0x5995 JUMP JUMPDEST PUSH2 0x5608 DUP2 PUSH2 0x5B73 JUMP JUMPDEST DUP5 ADD SWAP2 POP POP SWAP3 SWAP2 POP POP JUMP JUMPDEST PUSH2 0x561C DUP2 PUSH2 0x596A JUMP JUMPDEST DUP3 MSTORE POP POP JUMP JUMPDEST PUSH1 0x0 PUSH1 0x20 DUP3 ADD SWAP1 POP PUSH2 0x5637 PUSH1 0x0 DUP4 ADD DUP5 PUSH2 0x55BC JUMP JUMPDEST SWAP3 SWAP2 POP POP JUMP JUMPDEST PUSH1 0x0 PUSH1 0x20 DUP3 ADD SWAP1 POP PUSH2 0x5652 PUSH1 0x0 DUP4 ADD DUP5 PUSH2 0x55CB JUMP JUMPDEST SWAP3 SWAP2 POP POP JUMP JUMPDEST PUSH1 0x0 PUSH1 0xC0 DUP3 ADD SWAP1 POP DUP2 DUP2 SUB PUSH1 0x0 DUP4 ADD MSTORE PUSH2 0x5672 DUP2 DUP10 PUSH2 0x55DA JUMP JUMPDEST SWAP1 POP PUSH2 0x5681 PUSH1 0x20 DUP4 ADD DUP9 PUSH2 0x55AD JUMP JUMPDEST DUP2 DUP2 SUB PUSH1 0x40 DUP4 ADD MSTORE PUSH2 0x5693 DUP2 DUP8 PUSH2 0x55DA JUMP JUMPDEST SWAP1 POP DUP2 DUP2 SUB PUSH1 0x60 DUP4 ADD MSTORE PUSH2 0x56A7 DUP2 DUP7 PUSH2 0x55DA JUMP JUMPDEST SWAP1 POP PUSH2 0x56B6 PUSH1 0x80 DUP4 ADD DUP6 PUSH2 0x55AD JUMP JUMPDEST DUP2 DUP2 SUB PUSH1 0xA0 DUP4 ADD MSTORE PUSH2 0x56C8 DUP2 DUP5 PUSH2 0x55DA JUMP JUMPDEST SWAP1 POP SWAP8 SWAP7 POP POP POP POP POP POP POP JUMP JUMPDEST PUSH1 0x0 PUSH1 0x20 DUP3 ADD SWAP1 POP PUSH2 0x56EA PUSH1 0x0 DUP4 ADD DUP5 PUSH2 0x5613 JUMP JUMPDEST SWAP3 SWAP2 POP POP JUMP JUMPDEST PUSH1 0x0 PUSH2 0x100 DUP3 ADD SWAP1 POP PUSH2 0x5706 PUSH1 0x0 DUP4 ADD DUP12 PUSH2 0x5613 JUMP JUMPDEST DUP2 DUP2 SUB PUSH1 0x20 DUP4 ADD MSTORE PUSH2 0x5718 DUP2 DUP11 PUSH2 0x55DA JUMP JUMPDEST SWAP1 POP PUSH2 0x5727 PUSH1 0x40 DUP4 ADD DUP10 PUSH2 0x5613 JUMP JUMPDEST PUSH2 0x5734 PUSH1 0x60 DUP4 ADD DUP9 PUSH2 0x5613 JUMP JUMPDEST DUP2 DUP2 SUB PUSH1 0x80 DUP4 ADD MSTORE PUSH2 0x5746 DUP2 DUP8 PUSH2 0x55DA JUMP JUMPDEST SWAP1 POP PUSH2 0x5755 PUSH1 0xA0 DUP4 ADD DUP7 PUSH2 0x55CB JUMP JUMPDEST PUSH2 0x5762 PUSH1 0xC0 DUP4 ADD DUP6 PUSH2 0x55AD JUMP JUMPDEST DUP2 DUP2 SUB PUSH1 0xE0 DUP4 ADD MSTORE PUSH2 0x5774 DUP2 DUP5 PUSH2 0x55DA JUMP JUMPDEST SWAP1 POP SWAP10 SWAP9 POP POP POP POP POP POP POP POP POP JUMP JUMPDEST PUSH1 0x0 PUSH2 0x100 DUP3 ADD SWAP1 POP PUSH2 0x5799 PUSH1 0x0 DUP4 ADD DUP12 PUSH2 0x5613 JUMP JUMPDEST PUSH2 0x57A6 PUSH1 0x20 DUP4 ADD DUP11 PUSH2 0x5613 JUMP JUMPDEST PUSH2 0x57B3 PUSH1 0x40 DUP4 ADD DUP10 PUSH2 0x55AD JUMP JUMPDEST PUSH2 0x57C0 PUSH1 0x60 DUP4 ADD DUP9 PUSH2 0x55AD JUMP JUMPDEST DUP2 DUP2 SUB PUSH1 0x80 DUP4 ADD MSTORE PUSH2 0x57D2 DUP2 DUP8 PUSH2 0x55DA JUMP JUMPDEST SWAP1 POP DUP2 DUP2 SUB PUSH1 0xA0 DUP4 ADD MSTORE PUSH2 0x57E6 DUP2 DUP7 PUSH2 0x55DA JUMP JUMPDEST SWAP1 POP DUP2 DUP2 SUB PUSH1 0xC0 DUP4 ADD MSTORE PUSH2 0x57FA DUP2 DUP6 PUSH2 0x55DA JUMP JUMPDEST SWAP1 POP DUP2 DUP2 SUB PUSH1 0xE0 DUP4 ADD MSTORE PUSH2 0x580E DUP2 DUP5 PUSH2 0x55DA JUMP JUMPDEST SWAP1 POP SWAP10 SWAP9 POP POP POP POP POP POP POP POP POP JUMP JUMPDEST PUSH1 0x0 PUSH2 0x5827 PUSH2 0x5838 JUMP JUMPDEST SWAP1 POP PUSH2 0x5833 DUP3 DUP3 PUSH2 0x59FA JUMP JUMPDEST SWAP2 SWAP1 POP JUMP JUMPDEST PUSH1 0x0 PUSH1 0x40 MLOAD SWAP1 POP SWAP1 JUMP JUMPDEST PUSH1 0x0 PUSH8 0xFFFFFFFFFFFFFFFF DUP3 GT ISZERO PUSH2 0x585D JUMPI PUSH2 0x585C PUSH2 0x5B30 JUMP JUMPDEST JUMPDEST PUSH2 0x5866 DUP3 PUSH2 0x5B73 JUMP JUMPDEST SWAP1 POP PUSH1 0x20 DUP2 ADD SWAP1 POP SWAP2 SWAP1 POP JUMP JUMPDEST PUSH1 0x0 DUP2 MLOAD SWAP1 POP SWAP2 SWAP1 POP JUMP JUMPDEST PUSH1 0x0 DUP3 DUP3 MSTORE PUSH1 0x20 DUP3 ADD SWAP1 POP SWAP3 SWAP2 POP POP JUMP JUMPDEST PUSH1 0x0 PUSH2 0x589A DUP3 PUSH2 0x596A JUMP JUMPDEST SWAP2 POP PUSH2 0x58A5 DUP4 PUSH2 0x596A JUMP JUMPDEST SWAP3 POP DUP3 PUSH32 0xFFFFFFFFFFFFFFFFFFFFFFFFFFFFFFFFFFFFFFFFFFFFFFFFFFFFFFFFFFFFFFFF SUB DUP3 GT ISZERO PUSH2 0x58DA JUMPI PUSH2 0x58D9 PUSH2 0x5A74 JUMP JUMPDEST JUMPDEST DUP3 DUP3 ADD SWAP1 POP SWAP3 SWAP2 POP POP JUMP JUMPDEST PUSH1 0x0 PUSH2 0x58F0 DUP3 PUSH2 0x596A JUMP JUMPDEST SWAP2 POP PUSH2 0x58FB DUP4 PUSH2 0x596A JUMP JUMPDEST SWAP3 POP DUP3 DUP3 LT ISZERO PUSH2 0x590E JUMPI PUSH2 0x590D PUSH2 0x5A74 JUMP JUMPDEST JUMPDEST DUP3 DUP3 SUB SWAP1 POP SWAP3 SWAP2 POP POP JUMP JUMPDEST PUSH1 0x0 PUSH2 0x5924 DUP3 PUSH2 0x594A JUMP JUMPDEST SWAP1 POP SWAP2 SWAP1 POP JUMP JUMPDEST PUSH1 0x0 DUP2 ISZERO ISZERO SWAP1 POP SWAP2 SWAP1 POP JUMP JUMPDEST PUSH1 0x0 DUP2 SWAP1 POP PUSH2 0x5945 DUP3 PUSH2 0x5B84 JUMP JUMPDEST SWAP2 SWAP1 POP JUMP JUMPDEST PUSH1 0x0 PUSH20 0xFFFFFFFFFFFFFFFFFFFFFFFFFFFFFFFFFFFFFFFF DUP3 AND SWAP1 POP SWAP2 SWAP1 POP JUMP JUMPDEST PUSH1 0x0 DUP2 SWAP1 POP SWAP2 SWAP1 POP JUMP JUMPDEST PUSH1 0x0 PUSH2 0x597F DUP3 PUSH2 0x5937 JUMP JUMPDEST SWAP1 POP SWAP2 SWAP1 POP JUMP JUMPDEST DUP3 DUP2 DUP4 CALLDATACOPY PUSH1 0x0 DUP4 DUP4 ADD MSTORE POP POP POP JUMP JUMPDEST PUSH1 0x0 JUMPDEST DUP4 DUP2 LT ISZERO PUSH2 0x59B3 JUMPI DUP1 DUP3 ADD MLOAD DUP2 DUP5 ADD MSTORE PUSH1 0x20 DUP2 ADD SWAP1 POP PUSH2 0x5998 JUMP JUMPDEST DUP4 DUP2 GT ISZERO PUSH2 0x59C2 JUMPI PUSH1 0x0 DUP5 DUP5 ADD MSTORE JUMPDEST POP POP POP POP JUMP JUMPDEST PUSH1 0x0 PUSH1 0x2 DUP3 DIV SWAP1 POP PUSH1 0x1 DUP3 AND DUP1 PUSH2 0x59E0 JUMPI PUSH1 0x7F DUP3 AND SWAP2 POP JUMPDEST PUSH1 0x20 DUP3 LT DUP2 EQ ISZERO PUSH2 0x59F4 JUMPI PUSH2 0x59F3 PUSH2 0x5AD2 JUMP JUMPDEST JUMPDEST POP SWAP2 SWAP1 POP JUMP JUMPDEST PUSH2 0x5A03 DUP3 PUSH2 0x5B73 JUMP JUMPDEST DUP2 ADD DUP2 DUP2 LT PUSH8 0xFFFFFFFFFFFFFFFF DUP3 GT OR ISZERO PUSH2 0x5A22 JUMPI PUSH2 0x5A21 PUSH2 0x5B30 JUMP JUMPDEST JUMPDEST DUP1 PUSH1 0x40 MSTORE POP POP POP JUMP JUMPDEST PUSH1 0x0 PUSH2 0x5A36 DUP3 PUSH2 0x596A JUMP JUMPDEST SWAP2 POP PUSH32 0xFFFFFFFFFFFFFFFFFFFFFFFFFFFFFFFFFFFFFFFFFFFFFFFFFFFFFFFFFFFFFFFF DUP3 EQ ISZERO PUSH2 0x5A69 JUMPI PUSH2 0x5A68 PUSH2 0x5A74 JUMP JUMPDEST JUMPDEST PUSH1 0x1 DUP3 ADD SWAP1 POP SWAP2 SWAP1 POP JUMP JUMPDEST PUSH32 0x4E487B7100000000000000000000000000000000000000000000000000000000 PUSH1 0x0 MSTORE PUSH1 0x11 PUSH1 0x4 MSTORE PUSH1 0x24 PUSH1 0x0 REVERT JUMPDEST PUSH32 0x4E487B7100000000000000000000000000000000000000000000000000000000 PUSH1 0x0 MSTORE PUSH1 0x21 PUSH1 0x4 MSTORE PUSH1 0x24 PUSH1 0x0 REVERT JUMPDEST PUSH32 0x4E487B7100000000000000000000000000000000000000000000000000000000 PUSH1 0x0 MSTORE PUSH1 0x22 PUSH1 0x4 MSTORE PUSH1 0x24 PUSH1 0x0 REVERT JUMPDEST PUSH32 0x4E487B7100000000000000000000000000000000000000000000000000000000 PUSH1 0x0 MSTORE PUSH1 0x32 PUSH1 0x4 MSTORE PUSH1 0x24 PUSH1 0x0 REVERT JUMPDEST PUSH32 0x4E487B7100000000000000000000000000000000000000000000000000000000 PUSH1 0x0 MSTORE PUSH1 0x41 PUSH1 0x4 MSTORE PUSH1 0x24 PUSH1 0x0 REVERT JUMPDEST PUSH1 0x0 DUP1 REVERT JUMPDEST PUSH1 0x0 DUP1 REVERT JUMPDEST PUSH1 0x0 DUP1 REVERT JUMPDEST PUSH1 0x0 DUP1 REVERT JUMPDEST PUSH1 0x0 PUSH1 0x1F NOT PUSH1 0x1F DUP4 ADD AND SWAP1 POP SWAP2 SWAP1 POP JUMP JUMPDEST PUSH1 0x9 DUP2 LT PUSH2 0x5B95 JUMPI PUSH2 0x5B94 PUSH2 0x5AA3 JUMP JUMPDEST JUMPDEST POP JUMP JUMPDEST PUSH2 0x5BA1 DUP2 PUSH2 0x5919 JUMP JUMPDEST DUP2 EQ PUSH2 0x5BAC JUMPI PUSH1 0x0 DUP1 REVERT JUMPDEST POP JUMP JUMPDEST PUSH2 0x5BB8 DUP2 PUSH2 0x596A JUMP JUMPDEST DUP2 EQ PUSH2 0x5BC3 JUMPI PUSH1 0x0 DUP1 REVERT JUMPDEST POP JUMP INVALID LOG2 PUSH5 0x6970667358 0x22 SLT KECCAK256 0xCE 0xD1 REVERT 0x2C 0xF8 0xD9 DIV DUP8 COINBASE 0xB0 SWAP4 CALLCODE DELEGATECALL 0xC DUP11 0xED 0x1E 0xA5 COINBASE 0x1F PUSH28 0x11B6DDF62C1079ACA8335664736F6C63430008070033000000000000 "},"methodIdentifiers":{"addCustomerRole(address)":"453dd4af","addDeliveryHubRole(address)":"f4121b67","addManufacturerRole(address)":"8290f859","addThirdPartyRole(address)":"5212e510","fetchProductCount()":"f16791b3","fetchProductHistoryLength(uint256)":"405ba7ef","fetchProductPart1(uint256,string,uint256)":"658db497","fetchProductPart2(uint256,string,uint256)":"6f1fe8d7","fetchProductPart3(uint256,string,uint256)":"98c95889","fetchProductState(uint256)":"e2f1fe14","hasCustomerRole(address)":"024edf9a","hasDeliveryHubRole(address)":"d44bebcc","hasManufacturerRole(address)":"6000ada1","hasThirdPartyRole(address)":"cd2885e0","manufactureProduct(string,string,string,string,string,uint256,uint256,string)":"003375b7","purchaseByCustomer(uint256)":"7217eb2e","purchaseByThirdParty(uint256)":"b843bdee","receiveByCustomer(uint256)":"72df397e","receiveByDeliveryHub(uint256,string,string)":"8eee90ea","receiveByThirdParty(uint256,string,string)":"3334529e","setTransactionHash(uint256,string)":"786ea161","setTransactionHashOnManufacture(string)":"e55128ea","shipByDeliveryHub(uint256)":"6cf07e24","shipByThirdParty(uint256)":"ee707c1e","shipToThirdParty(uint256)":"0a036e25","uid()":"f514ce36"}},"storageLayout":{"storage":[{"astId":134,"contract":"contracts/SupplyChain.sol:SupplyChain","label":"uid","offset":0,"slot":"0","type":"t_uint256"},{"astId":136,"contract":"contracts/SupplyChain.sol:SupplyChain","label":"sku","offset":0,"slot":"1","type":"t_uint256"},{"astId":138,"contract":"contracts/SupplyChain.sol:SupplyChain","label":"owner","offset":0,"slot":"2","type":"t_address"},{"astId":143,"contract":"contracts/SupplyChain.sol:SupplyChain","label":"products","offset":0,"slot":"3","type":"t_mapping(t_uint256,t_struct(Product)110_storage)"},{"astId":148,"contract":"contracts/SupplyChain.sol:SupplyChain","label":"productHistory","offset":0,"slot":"4","type":"t_mapping(t_uint256,t_struct(ProductHistory)115_storage)"},{"astId":153,"contract":"contracts/SupplyChain.sol:SupplyChain","label":"roles","offset":0,"slot":"5","type":"t_mapping(t_address,t_struct(Roles)124_storage)"}],"types":{"t_address":{"encoding":"inplace","label":"address","numberOfBytes":"20"},"t_array(t_struct(Product)110_storage)dyn_storage":{"base":"t_struct(Product)110_storage","encoding":"dynamic_array","label":"struct Structure.Product[]","numberOfBytes":"32"},"t_bool":{"encoding":"inplace","label":"bool","numberOfBytes":"1"},"t_enum(State)48":{"encoding":"inplace","label":"enum Structure.State","numberOfBytes":"1"},"t_mapping(t_address,t_struct(Roles)124_storage)":{"encoding":"mapping","key":"t_address","label":"mapping(address => struct Structure.Roles)","numberOfBytes":"32","value":"t_struct(Roles)124_storage"},"t_mapping(t_uint256,t_struct(Product)110_storage)":{"encoding":"mapping","key":"t_uint256","label":"mapping(uint256 => struct Structure.Product)","numberOfBytes":"32","value":"t_struct(Product)110_storage"},"t_mapping(t_uint256,t_struct(ProductHistory)115_storage)":{"encoding":"mapping","key":"t_uint256","label":"mapping(uint256 => struct Structure.ProductHistory)","numberOfBytes":"32","value":"t_struct(ProductHistory)115_storage"},"t_string_storage":{"encoding":"bytes","label":"string","numberOfBytes":"32"},"t_struct(DeliveryHubDetails)84_storage":{"encoding":"inplace","label":"struct Structure.DeliveryHubDetails","members":[{"astId":79,"contract":"contracts/SupplyChain.sol:SupplyChain","label":"deliveryHub","offset":0,"slot":"0","type":"t_address"},{"astId":81,"contract":"contracts/SupplyChain.sol:SupplyChain","label":"deliveryHubLongitude","offset":0,"slot":"1","type":"t_string_storage"},{"astId":83,"contract":"contracts/SupplyChain.sol:SupplyChain","label":"deliveryHubLatitude","offset":0,"slot":"2","type":"t_string_storage"}],"numberOfBytes":"96"},"t_struct(ManufactureDetails)61_storage":{"encoding":"inplace","label":"struct Structure.ManufactureDetails","members":[{"astId":50,"contract":"contracts/SupplyChain.sol:SupplyChain","label":"manufacturer","offset":0,"slot":"0","type":"t_address"},{"astId":52,"contract":"contracts/SupplyChain.sol:SupplyChain","label":"manufacturerName","offset":0,"slot":"1","type":"t_string_storage"},{"astId":54,"contract":"contracts/SupplyChain.sol:SupplyChain","label":"manufacturerDetails","offset":0,"slot":"2","type":"t_string_storage"},{"astId":56,"contract":"contracts/SupplyChain.sol:SupplyChain","label":"manufacturerLongitude","offset":0,"slot":"3","type":"t_string_storage"},{"astId":58,"contract":"contracts/SupplyChain.sol:SupplyChain","label":"manufacturerLatitude","offset":0,"slot":"4","type":"t_string_storage"},{"astId":60,"contract":"contracts/SupplyChain.sol:SupplyChain","label":"manufacturedDate","offset":0,"slot":"5","type":"t_uint256"}],"numberOfBytes":"192"},"t_struct(Product)110_storage":{"encoding":"inplace","label":"struct Structure.Product","members":[{"astId":86,"contract":"contracts/SupplyChain.sol:SupplyChain","label":"uid","offset":0,"slot":"0","type":"t_uint256"},{"astId":88,"contract":"contracts/SupplyChain.sol:SupplyChain","label":"sku","offset":0,"slot":"1","type":"t_uint256"},{"astId":90,"contract":"contracts/SupplyChain.sol:SupplyChain","label":"owner","offset":0,"slot":"2","type":"t_address"},{"astId":93,"contract":"contracts/SupplyChain.sol:SupplyChain","label":"productState","offset":20,"slot":"2","type":"t_enum(State)48"},{"astId":96,"contract":"contracts/SupplyChain.sol:SupplyChain","label":"manufacturer","offset":0,"slot":"3","type":"t_struct(ManufactureDetails)61_storage"},{"astId":99,"contract":"contracts/SupplyChain.sol:SupplyChain","label":"thirdparty","offset":0,"slot":"9","type":"t_struct(ThirdPartyDetails)77_storage"},{"astId":102,"contract":"contracts/SupplyChain.sol:SupplyChain","label":"productdet","offset":0,"slot":"12","type":"t_struct(ProductDetails)70_storage"},{"astId":105,"contract":"contracts/SupplyChain.sol:SupplyChain","label":"deliveryhub","offset":0,"slot":"16","type":"t_struct(DeliveryHubDetails)84_storage"},{"astId":107,"contract":"contracts/SupplyChain.sol:SupplyChain","label":"customer","offset":0,"slot":"19","type":"t_address"},{"astId":109,"contract":"contracts/SupplyChain.sol:SupplyChain","label":"transaction","offset":0,"slot":"20","type":"t_string_storage"}],"numberOfBytes":"672"},"t_struct(ProductDetails)70_storage":{"encoding":"inplace","label":"struct Structure.ProductDetails","members":[{"astId":63,"contract":"contracts/SupplyChain.sol:SupplyChain","label":"productName","offset":0,"slot":"0","type":"t_string_storage"},{"astId":65,"contract":"contracts/SupplyChain.sol:SupplyChain","label":"productCode","offset":0,"slot":"1","type":"t_uint256"},{"astId":67,"contract":"contracts/SupplyChain.sol:SupplyChain","label":"productPrice","offset":0,"slot":"2","type":"t_uint256"},{"astId":69,"contract":"contracts/SupplyChain.sol:SupplyChain","label":"productCategory","offset":0,"slot":"3","type":"t_string_storage"}],"numberOfBytes":"128"},"t_struct(ProductHistory)115_storage":{"encoding":"inplace","label":"struct Structure.ProductHistory","members":[{"astId":114,"contract":"contracts/SupplyChain.sol:SupplyChain","label":"history","offset":0,"slot":"0","type":"t_array(t_struct(Product)110_storage)dyn_storage"}],"numberOfBytes":"32"},"t_struct(Roles)124_storage":{"encoding":"inplace","label":"struct Structure.Roles","members":[{"astId":117,"contract":"contracts/SupplyChain.sol:SupplyChain","label":"Manufacturer","offset":0,"slot":"0","type":"t_bool"},{"astId":119,"contract":"contracts/SupplyChain.sol:SupplyChain","label":"ThirdParty","offset":1,"slot":"0","type":"t_bool"},{"astId":121,"contract":"contracts/SupplyChain.sol:SupplyChain","label":"DeliveryHub","offset":2,"slot":"0","type":"t_bool"},{"astId":123,"contract":"contracts/SupplyChain.sol:SupplyChain","label":"Customer","offset":3,"slot":"0","type":"t_bool"}],"numberOfBytes":"32"},"t_struct(ThirdPartyDetails)77_storage":{"encoding":"inplace","label":"struct Structure.ThirdPartyDetails","members":[{"astId":72,"contract":"contracts/SupplyChain.sol:SupplyChain","label":"thirdParty","offset":0,"slot":"0","type":"t_address"},{"astId":74,"contract":"contracts/SupplyChain.sol:SupplyChain","label":"thirdPartyLongitude","offset":0,"slot":"1","type":"t_string_storage"},{"astId":76,"contract":"contracts/SupplyChain.sol:SupplyChain","label":"thirdPartyLatitude","offset":0,"slot":"2","type":"t_string_storage"}],"numberOfBytes":"96"},"t_uint256":{"encoding":"inplace","label":"uint256","numberOfBytes":"32"}}}}}}