{
  "_format": "hh-sol-artifact-1",
  "contractName": "SupplyChain",
  "sourceName": "contracts/SupplyChain.sol",
  "abi": [
    {
      "anonymous": false,
      "inputs": [
        {
          "indexed": true,
          "internalType": "string",
          "name": "soID",
          "type": "string"
        }
      ],
      "name": "GetSoID",
      "type": "event"
    },
    {
      "anonymous": false,
      "inputs": [
        {
          "indexed": false,
          "internalType": "uint8",
          "name": "version",
          "type": "uint8"
        }
      ],
      "name": "Initialized",
      "type": "event"
    },
    {
      "anonymous": false,
      "inputs": [
        {
          "indexed": true,
          "internalType": "address",
          "name": "_account",
          "type": "address"
        }
      ],
      "name": "ManufacturerAdded",
      "type": "event"
    },
    {
      "anonymous": false,
      "inputs": [
        {
          "indexed": true,
          "internalType": "address",
          "name": "previousOwner",
          "type": "address"
        },
        {
          "indexed": true,
          "internalType": "address",
          "name": "newOwner",
          "type": "address"
        }
      ],
      "name": "OwnershipTransferred",
      "type": "event"
    },
    {
      "inputs": [
        {
          "internalType": "address",
          "name": "_account",
          "type": "address"
        },
        {
          "internalType": "string",
          "name": "role",
          "type": "string"
        }
      ],
      "name": "addRole",
      "outputs": [],
      "stateMutability": "nonpayable",
      "type": "function"
    },
    {
      "inputs": [
        {
          "internalType": "string",
          "name": "_prodName",
          "type": "string"
        },
        {
          "internalType": "uint256",
          "name": "_qty",
          "type": "uint256"
        },
        {
          "internalType": "uint256",
          "name": "_ordrVal",
          "type": "uint256"
        },
        {
          "internalType": "string",
          "name": "_status",
          "type": "string"
        }
      ],
      "name": "createOrder",
      "outputs": [],
      "stateMutability": "nonpayable",
      "type": "function"
    },
    {
      "inputs": [],
      "name": "getAllOrderDetails",
      "outputs": [
        {
          "components": [
            {
              "internalType": "string",
              "name": "SoID",
              "type": "string"
            },
            {
              "internalType": "string",
              "name": "PoID",
              "type": "string"
            },
            {
              "internalType": "string",
              "name": "prodName",
              "type": "string"
            },
            {
              "internalType": "uint256",
              "name": "qty",
              "type": "uint256"
            },
            {
              "internalType": "uint256",
              "name": "orderValue",
              "type": "uint256"
            },
            {
              "internalType": "uint256",
              "name": "customerFinalDeliveryDate",
              "type": "uint256"
            },
            {
              "internalType": "string",
              "name": "status",
              "type": "string"
            },
            {
              "internalType": "string",
              "name": "barCode",
              "type": "string"
            },
            {
              "internalType": "string",
              "name": "batchNo",
              "type": "string"
            },
            {
              "internalType": "string",
              "name": "masterLabel",
              "type": "string"
            },
            {
              "internalType": "string",
              "name": "invoicePath",
              "type": "string"
            },
            {
              "internalType": "string",
              "name": "trackingNo",
              "type": "string"
            }
          ],
          "internalType": "struct SupplyChain.Order[]",
          "name": "",
          "type": "tuple[]"
        }
      ],
      "stateMutability": "view",
      "type": "function"
    },
    {
      "inputs": [
        {
          "internalType": "string",
          "name": "_soOrPo",
          "type": "string"
        }
      ],
      "name": "getOrderDetails",
      "outputs": [
        {
          "components": [
            {
              "internalType": "string",
              "name": "SoID",
              "type": "string"
            },
            {
              "internalType": "string",
              "name": "PoID",
              "type": "string"
            },
            {
              "internalType": "string",
              "name": "prodName",
              "type": "string"
            },
            {
              "internalType": "uint256",
              "name": "qty",
              "type": "uint256"
            },
            {
              "internalType": "uint256",
              "name": "orderValue",
              "type": "uint256"
            },
            {
              "internalType": "uint256",
              "name": "customerFinalDeliveryDate",
              "type": "uint256"
            },
            {
              "internalType": "string",
              "name": "status",
              "type": "string"
            },
            {
              "internalType": "string",
              "name": "barCode",
              "type": "string"
            },
            {
              "internalType": "string",
              "name": "batchNo",
              "type": "string"
            },
            {
              "internalType": "string",
              "name": "masterLabel",
              "type": "string"
            },
            {
              "internalType": "string",
              "name": "invoicePath",
              "type": "string"
            },
            {
              "internalType": "string",
              "name": "trackingNo",
              "type": "string"
            }
          ],
          "internalType": "struct SupplyChain.Order",
          "name": "",
          "type": "tuple"
        }
      ],
      "stateMutability": "view",
      "type": "function"
    },
    {
      "inputs": [],
      "name": "getRole",
      "outputs": [
        {
          "internalType": "string",
          "name": "",
          "type": "string"
        }
      ],
      "stateMutability": "view",
      "type": "function"
    },
    {
      "inputs": [],
      "name": "initialize",
      "outputs": [],
      "stateMutability": "nonpayable",
      "type": "function"
    },
    {
      "inputs": [
        {
          "internalType": "string",
          "name": "",
          "type": "string"
        }
      ],
      "name": "orderData",
      "outputs": [
        {
          "internalType": "string",
          "name": "SoID",
          "type": "string"
        },
        {
          "internalType": "string",
          "name": "PoID",
          "type": "string"
        },
        {
          "internalType": "string",
          "name": "prodName",
          "type": "string"
        },
        {
          "internalType": "uint256",
          "name": "qty",
          "type": "uint256"
        },
        {
          "internalType": "uint256",
          "name": "orderValue",
          "type": "uint256"
        },
        {
          "internalType": "uint256",
          "name": "customerFinalDeliveryDate",
          "type": "uint256"
        },
        {
          "internalType": "string",
          "name": "status",
          "type": "string"
        },
        {
          "internalType": "string",
          "name": "barCode",
          "type": "string"
        },
        {
          "internalType": "string",
          "name": "batchNo",
          "type": "string"
        },
        {
          "internalType": "string",
          "name": "masterLabel",
          "type": "string"
        },
        {
          "internalType": "string",
          "name": "invoicePath",
          "type": "string"
        },
        {
          "internalType": "string",
          "name": "trackingNo",
          "type": "string"
        }
      ],
      "stateMutability": "view",
      "type": "function"
    },
    {
      "inputs": [
        {
          "internalType": "uint256",
          "name": "",
          "type": "uint256"
        }
      ],
      "name": "orders",
      "outputs": [
        {
          "internalType": "string",
          "name": "SoID",
          "type": "string"
        },
        {
          "internalType": "string",
          "name": "PoID",
          "type": "string"
        },
        {
          "internalType": "string",
          "name": "prodName",
          "type": "string"
        },
        {
          "internalType": "uint256",
          "name": "qty",
          "type": "uint256"
        },
        {
          "internalType": "uint256",
          "name": "orderValue",
          "type": "uint256"
        },
        {
          "internalType": "uint256",
          "name": "customerFinalDeliveryDate",
          "type": "uint256"
        },
        {
          "internalType": "string",
          "name": "status",
          "type": "string"
        },
        {
          "internalType": "string",
          "name": "barCode",
          "type": "string"
        },
        {
          "internalType": "string",
          "name": "batchNo",
          "type": "string"
        },
        {
          "internalType": "string",
          "name": "masterLabel",
          "type": "string"
        },
        {
          "internalType": "string",
          "name": "invoicePath",
          "type": "string"
        },
        {
          "internalType": "string",
          "name": "trackingNo",
          "type": "string"
        }
      ],
      "stateMutability": "view",
      "type": "function"
    },
    {
      "inputs": [],
      "name": "owner",
      "outputs": [
        {
          "internalType": "address",
          "name": "",
          "type": "address"
        }
      ],
      "stateMutability": "view",
      "type": "function"
    },
    {
      "inputs": [],
      "name": "renounceOwnership",
      "outputs": [],
      "stateMutability": "nonpayable",
      "type": "function"
    },
    {
      "inputs": [
        {
          "internalType": "address",
          "name": "",
          "type": "address"
        }
      ],
      "name": "roles",
      "outputs": [
        {
          "internalType": "string",
          "name": "",
          "type": "string"
        }
      ],
      "stateMutability": "view",
      "type": "function"
    },
    {
      "inputs": [
        {
          "internalType": "address",
          "name": "newOwner",
          "type": "address"
        }
      ],
      "name": "transferOwnership",
      "outputs": [],
      "stateMutability": "nonpayable",
      "type": "function"
    },
    {
      "inputs": [],
      "name": "uid",
      "outputs": [
        {
          "internalType": "uint256",
          "name": "",
          "type": "uint256"
        }
      ],
      "stateMutability": "view",
      "type": "function"
    },
    {
      "inputs": [
        {
          "internalType": "string",
          "name": "_so",
          "type": "string"
        },
        {
          "internalType": "string",
          "name": "_status",
          "type": "string"
        }
      ],
      "name": "updateStatus",
      "outputs": [],
      "stateMutability": "nonpayable",
      "type": "function"
    }
  ],
  "bytecode": "0x608060405234801561001057600080fd5b506143ca806100206000396000f3fe608060405234801561001057600080fd5b50600436106100ea5760003560e01c8063993746421161008c578063f2fde38b11610066578063f2fde38b1461024d578063f514ce3614610269578063fb0a9a6d14610287578063fde08174146102a3576100ea565b806399374642146101a7578063a85c38ef146101d7578063e393f26314610212576100ea565b8063715018a6116100c8578063715018a6146101595780637d72aa65146101635780638129fc1c1461017f5780638da5cb5b14610189576100ea565b8063347047cc146100ef5780634fbb487c1461010b5780636bc184b41461013b575b600080fd5b610109600480360381019061010491906132cf565b6102c1565b005b61012560048036038101906101209190613347565b6103c6565b604051610132919061356d565b60405180910390f35b610143610f13565b604051610150919061378d565b60405180910390f35b61016161163f565b005b61017d6004803603810190610178919061380d565b611653565b005b610187611725565b005b61019161187d565b60405161019e9190613878565b60405180910390f35b6101c160048036038101906101bc9190613893565b6118a7565b6040516101ce919061390a565b60405180910390f35b6101f160048036038101906101ec9190613958565b611947565b6040516102099c9b9a99989796959493929190613994565b60405180910390f35b61022c60048036038101906102279190613347565b611e7f565b6040516102449c9b9a99989796959493929190613994565b60405180910390f35b61026760048036038101906102629190613893565b6123bd565b005b610271612441565b60405161027e9190613a8d565b60405180910390f35b6102a1600480360381019061029c9190613aa8565b612447565b005b6102ab61290c565b6040516102b8919061390a565b60405180910390f35b6040516020016102d090613b78565b60405160208183030381529060405280519060200120606b60003373ffffffffffffffffffffffffffffffffffffffff1673ffffffffffffffffffffffffffffffffffffffff1681526020019081526020016000206040516020016103359190613c82565b60405160208183030381529060405280519060200120141561038c576040517f08c379a000000000000000000000000000000000000000000000000000000000815260040161038390613ce5565b60405180910390fd5b8060698360405161039d9190613d36565b908152602001604051809103902060060190805190602001906103c1929190613071565b505050565b6103ce6130f7565b6040516020016103dd90613d99565b604051602081830303815290604052805190602001206103fc836129db565b60405160200161040c9190613d36565b604051602081830303815290604052805190602001201415610999576069826040516104389190613d36565b90815260200160405180910390206040518061018001604052908160008201805461046290613bbc565b80601f016020809104026020016040519081016040528092919081815260200182805461048e90613bbc565b80156104db5780601f106104b0576101008083540402835291602001916104db565b820191906000526020600020905b8154815290600101906020018083116104be57829003601f168201915b505050505081526020016001820180546104f490613bbc565b80601f016020809104026020016040519081016040528092919081815260200182805461052090613bbc565b801561056d5780601f106105425761010080835404028352916020019161056d565b820191906000526020600020905b81548152906001019060200180831161055057829003601f168201915b5050505050815260200160028201805461058690613bbc565b80601f01602080910402602001604051908101604052809291908181526020018280546105b290613bbc565b80156105ff5780601f106105d4576101008083540402835291602001916105ff565b820191906000526020600020905b8154815290600101906020018083116105e257829003601f168201915b5050505050815260200160038201548152602001600482015481526020016005820154815260200160068201805461063690613bbc565b80601f016020809104026020016040519081016040528092919081815260200182805461066290613bbc565b80156106af5780601f10610684576101008083540402835291602001916106af565b820191906000526020600020905b81548152906001019060200180831161069257829003601f168201915b505050505081526020016007820180546106c890613bbc565b80601f01602080910402602001604051908101604052809291908181526020018280546106f490613bbc565b80156107415780601f1061071657610100808354040283529160200191610741565b820191906000526020600020905b81548152906001019060200180831161072457829003601f168201915b5050505050815260200160088201805461075a90613bbc565b80601f016020809104026020016040519081016040528092919081815260200182805461078690613bbc565b80156107d35780601f106107a8576101008083540402835291602001916107d3565b820191906000526020600020905b8154815290600101906020018083116107b657829003601f168201915b505050505081526020016009820180546107ec90613bbc565b80601f016020809104026020016040519081016040528092919081815260200182805461081890613bbc565b80156108655780601f1061083a57610100808354040283529160200191610865565b820191906000526020600020905b81548152906001019060200180831161084857829003601f168201915b50505050508152602001600a8201805461087e90613bbc565b80601f01602080910402602001604051908101604052809291908181526020018280546108aa90613bbc565b80156108f75780601f106108cc576101008083540402835291602001916108f7565b820191906000526020600020905b8154815290600101906020018083116108da57829003601f168201915b50505050508152602001600b8201805461091090613bbc565b80601f016020809104026020016040519081016040528092919081815260200182805461093c90613bbc565b80156109895780601f1061095e57610100808354040283529160200191610989565b820191906000526020600020905b81548152906001019060200180831161096c57829003601f168201915b5050505050815250509050610f0e565b60696109a483612a9a565b6040516109b19190613d36565b9081526020016040518091039020604051806101800160405290816000820180546109db90613bbc565b80601f0160208091040260200160405190810160405280929190818152602001828054610a0790613bbc565b8015610a545780601f10610a2957610100808354040283529160200191610a54565b820191906000526020600020905b815481529060010190602001808311610a3757829003601f168201915b50505050508152602001600182018054610a6d90613bbc565b80601f0160208091040260200160405190810160405280929190818152602001828054610a9990613bbc565b8015610ae65780601f10610abb57610100808354040283529160200191610ae6565b820191906000526020600020905b815481529060010190602001808311610ac957829003601f168201915b50505050508152602001600282018054610aff90613bbc565b80601f0160208091040260200160405190810160405280929190818152602001828054610b2b90613bbc565b8015610b785780601f10610b4d57610100808354040283529160200191610b78565b820191906000526020600020905b815481529060010190602001808311610b5b57829003601f168201915b50505050508152602001600382015481526020016004820154815260200160058201548152602001600682018054610baf90613bbc565b80601f0160208091040260200160405190810160405280929190818152602001828054610bdb90613bbc565b8015610c285780601f10610bfd57610100808354040283529160200191610c28565b820191906000526020600020905b815481529060010190602001808311610c0b57829003601f168201915b50505050508152602001600782018054610c4190613bbc565b80601f0160208091040260200160405190810160405280929190818152602001828054610c6d90613bbc565b8015610cba5780601f10610c8f57610100808354040283529160200191610cba565b820191906000526020600020905b815481529060010190602001808311610c9d57829003601f168201915b50505050508152602001600882018054610cd390613bbc565b80601f0160208091040260200160405190810160405280929190818152602001828054610cff90613bbc565b8015610d4c5780601f10610d2157610100808354040283529160200191610d4c565b820191906000526020600020905b815481529060010190602001808311610d2f57829003601f168201915b50505050508152602001600982018054610d6590613bbc565b80601f0160208091040260200160405190810160405280929190818152602001828054610d9190613bbc565b8015610dde5780601f10610db357610100808354040283529160200191610dde565b820191906000526020600020905b815481529060010190602001808311610dc157829003601f168201915b50505050508152602001600a82018054610df790613bbc565b80601f0160208091040260200160405190810160405280929190818152602001828054610e2390613bbc565b8015610e705780601f10610e4557610100808354040283529160200191610e70565b820191906000526020600020905b815481529060010190602001808311610e5357829003601f168201915b50505050508152602001600b82018054610e8990613bbc565b80601f0160208091040260200160405190810160405280929190818152602001828054610eb590613bbc565b8015610f025780601f10610ed757610100808354040283529160200191610f02565b820191906000526020600020905b815481529060010190602001808311610ee557829003601f168201915b50505050508152505090505b919050565b6060604051602001610f2490613dfa565b60405160208183030381529060405280519060200120606b60003373ffffffffffffffffffffffffffffffffffffffff1673ffffffffffffffffffffffffffffffffffffffff168152602001908152602001600020604051602001610f899190613c82565b6040516020818303038152906040528051906020012014610fdf576040517f08c379a0000000000000000000000000000000000000000000000000000000008152600401610fd690613e5b565b60405180910390fd5b60006067549050600080606854606754610ff99190613eaa565b67ffffffffffffffff811115611012576110116131a4565b5b60405190808252806020026020018201604052801561104b57816020015b6110386130f7565b8152602001906001900390816110305790505b509050600060685490505b83811015611635576000606961106b83612c1d565b60405160200161107b9190613f04565b6040516020818303038152906040526040516110979190613d36565b9081526020016040518091039020905080604051806101800160405290816000820180546110c490613bbc565b80601f01602080910402602001604051908101604052809291908181526020018280546110f090613bbc565b801561113d5780601f106111125761010080835404028352916020019161113d565b820191906000526020600020905b81548152906001019060200180831161112057829003601f168201915b5050505050815260200160018201805461115690613bbc565b80601f016020809104026020016040519081016040528092919081815260200182805461118290613bbc565b80156111cf5780601f106111a4576101008083540402835291602001916111cf565b820191906000526020600020905b8154815290600101906020018083116111b257829003601f168201915b505050505081526020016002820180546111e890613bbc565b80601f016020809104026020016040519081016040528092919081815260200182805461121490613bbc565b80156112615780601f1061123657610100808354040283529160200191611261565b820191906000526020600020905b81548152906001019060200180831161124457829003601f168201915b5050505050815260200160038201548152602001600482015481526020016005820154815260200160068201805461129890613bbc565b80601f01602080910402602001604051908101604052809291908181526020018280546112c490613bbc565b80156113115780601f106112e657610100808354040283529160200191611311565b820191906000526020600020905b8154815290600101906020018083116112f457829003601f168201915b5050505050815260200160078201805461132a90613bbc565b80601f016020809104026020016040519081016040528092919081815260200182805461135690613bbc565b80156113a35780601f10611378576101008083540402835291602001916113a3565b820191906000526020600020905b81548152906001019060200180831161138657829003601f168201915b505050505081526020016008820180546113bc90613bbc565b80601f01602080910402602001604051908101604052809291908181526020018280546113e890613bbc565b80156114355780601f1061140a57610100808354040283529160200191611435565b820191906000526020600020905b81548152906001019060200180831161141857829003601f168201915b5050505050815260200160098201805461144e90613bbc565b80601f016020809104026020016040519081016040528092919081815260200182805461147a90613bbc565b80156114c75780601f1061149c576101008083540402835291602001916114c7565b820191906000526020600020905b8154815290600101906020018083116114aa57829003601f168201915b50505050508152602001600a820180546114e090613bbc565b80601f016020809104026020016040519081016040528092919081815260200182805461150c90613bbc565b80156115595780601f1061152e57610100808354040283529160200191611559565b820191906000526020600020905b81548152906001019060200180831161153c57829003601f168201915b50505050508152602001600b8201805461157290613bbc565b80601f016020809104026020016040519081016040528092919081815260200182805461159e90613bbc565b80156115eb5780601f106115c0576101008083540402835291602001916115eb565b820191906000526020600020905b8154815290600101906020018083116115ce57829003601f168201915b50505050508152505083858151811061160757611606613f2a565b5b602002602001018190525060018461161f9190613f59565b935050808061162d90613faf565b915050611056565b5080935050505090565b611647612cf5565b6116516000612d73565b565b61165b612cf5565b81600073ffffffffffffffffffffffffffffffffffffffff168173ffffffffffffffffffffffffffffffffffffffff1614156116cc576040517f08c379a00000000000000000000000000000000000000000000000000000000081526004016116c39061406a565b60405180910390fd5b81606b60008573ffffffffffffffffffffffffffffffffffffffff1673ffffffffffffffffffffffffffffffffffffffff168152602001908152602001600020908051906020019061171f929190613071565b50505050565b60008060019054906101000a900460ff161590508080156117565750600160008054906101000a900460ff1660ff16105b80611783575061176530612e39565b1580156117825750600160008054906101000a900460ff1660ff16145b5b6117c2576040517f08c379a00000000000000000000000000000000000000000000000000000000081526004016117b9906140fc565b60405180910390fd5b60016000806101000a81548160ff021916908360ff16021790555080156117ff576001600060016101000a81548160ff0219169083151502179055505b611807612e5c565b6140946067819055506140946068819055506001606581905550801561187a5760008060016101000a81548160ff0219169083151502179055507f7f26b83ff96e1f2b6a682f133852f6798a09c465da95921460cefb38474024986001604051611871919061416e565b60405180910390a15b50565b6000603360009054906101000a900473ffffffffffffffffffffffffffffffffffffffff16905090565b606b60205280600052604060002060009150905080546118c690613bbc565b80601f01602080910402602001604051908101604052809291908181526020018280546118f290613bbc565b801561193f5780601f106119145761010080835404028352916020019161193f565b820191906000526020600020905b81548152906001019060200180831161192257829003601f168201915b505050505081565b606a818154811061195757600080fd5b90600052602060002090600c020160009150905080600001805461197a90613bbc565b80601f01602080910402602001604051908101604052809291908181526020018280546119a690613bbc565b80156119f35780601f106119c8576101008083540402835291602001916119f3565b820191906000526020600020905b8154815290600101906020018083116119d657829003601f168201915b505050505090806001018054611a0890613bbc565b80601f0160208091040260200160405190810160405280929190818152602001828054611a3490613bbc565b8015611a815780601f10611a5657610100808354040283529160200191611a81565b820191906000526020600020905b815481529060010190602001808311611a6457829003601f168201915b505050505090806002018054611a9690613bbc565b80601f0160208091040260200160405190810160405280929190818152602001828054611ac290613bbc565b8015611b0f5780601f10611ae457610100808354040283529160200191611b0f565b820191906000526020600020905b815481529060010190602001808311611af257829003601f168201915b505050505090806003015490806004015490806005015490806006018054611b3690613bbc565b80601f0160208091040260200160405190810160405280929190818152602001828054611b6290613bbc565b8015611baf5780601f10611b8457610100808354040283529160200191611baf565b820191906000526020600020905b815481529060010190602001808311611b9257829003601f168201915b505050505090806007018054611bc490613bbc565b80601f0160208091040260200160405190810160405280929190818152602001828054611bf090613bbc565b8015611c3d5780601f10611c1257610100808354040283529160200191611c3d565b820191906000526020600020905b815481529060010190602001808311611c2057829003601f168201915b505050505090806008018054611c5290613bbc565b80601f0160208091040260200160405190810160405280929190818152602001828054611c7e90613bbc565b8015611ccb5780601f10611ca057610100808354040283529160200191611ccb565b820191906000526020600020905b815481529060010190602001808311611cae57829003601f168201915b505050505090806009018054611ce090613bbc565b80601f0160208091040260200160405190810160405280929190818152602001828054611d0c90613bbc565b8015611d595780601f10611d2e57610100808354040283529160200191611d59565b820191906000526020600020905b815481529060010190602001808311611d3c57829003601f168201915b50505050509080600a018054611d6e90613bbc565b80601f0160208091040260200160405190810160405280929190818152602001828054611d9a90613bbc565b8015611de75780601f10611dbc57610100808354040283529160200191611de7565b820191906000526020600020905b815481529060010190602001808311611dca57829003601f168201915b50505050509080600b018054611dfc90613bbc565b80601f0160208091040260200160405190810160405280929190818152602001828054611e2890613bbc565b8015611e755780601f10611e4a57610100808354040283529160200191611e75565b820191906000526020600020905b815481529060010190602001808311611e5857829003601f168201915b505050505090508c565b606981805160208101820180518482526020830160208501208183528095505050505050600091509050806000018054611eb890613bbc565b80601f0160208091040260200160405190810160405280929190818152602001828054611ee490613bbc565b8015611f315780601f10611f0657610100808354040283529160200191611f31565b820191906000526020600020905b815481529060010190602001808311611f1457829003601f168201915b505050505090806001018054611f4690613bbc565b80601f0160208091040260200160405190810160405280929190818152602001828054611f7290613bbc565b8015611fbf5780601f10611f9457610100808354040283529160200191611fbf565b820191906000526020600020905b815481529060010190602001808311611fa257829003601f168201915b505050505090806002018054611fd490613bbc565b80601f016020809104026020016040519081016040528092919081815260200182805461200090613bbc565b801561204d5780601f106120225761010080835404028352916020019161204d565b820191906000526020600020905b81548152906001019060200180831161203057829003601f168201915b50505050509080600301549080600401549080600501549080600601805461207490613bbc565b80601f01602080910402602001604051908101604052809291908181526020018280546120a090613bbc565b80156120ed5780601f106120c2576101008083540402835291602001916120ed565b820191906000526020600020905b8154815290600101906020018083116120d057829003601f168201915b50505050509080600701805461210290613bbc565b80601f016020809104026020016040519081016040528092919081815260200182805461212e90613bbc565b801561217b5780601f106121505761010080835404028352916020019161217b565b820191906000526020600020905b81548152906001019060200180831161215e57829003601f168201915b50505050509080600801805461219090613bbc565b80601f01602080910402602001604051908101604052809291908181526020018280546121bc90613bbc565b80156122095780601f106121de57610100808354040283529160200191612209565b820191906000526020600020905b8154815290600101906020018083116121ec57829003601f168201915b50505050509080600901805461221e90613bbc565b80601f016020809104026020016040519081016040528092919081815260200182805461224a90613bbc565b80156122975780601f1061226c57610100808354040283529160200191612297565b820191906000526020600020905b81548152906001019060200180831161227a57829003601f168201915b50505050509080600a0180546122ac90613bbc565b80601f01602080910402602001604051908101604052809291908181526020018280546122d890613bbc565b80156123255780601f106122fa57610100808354040283529160200191612325565b820191906000526020600020905b81548152906001019060200180831161230857829003601f168201915b50505050509080600b01805461233a90613bbc565b80601f016020809104026020016040519081016040528092919081815260200182805461236690613bbc565b80156123b35780601f10612388576101008083540402835291602001916123b3565b820191906000526020600020905b81548152906001019060200180831161239657829003601f168201915b505050505090508c565b6123c5612cf5565b600073ffffffffffffffffffffffffffffffffffffffff168173ffffffffffffffffffffffffffffffffffffffff161415612435576040517f08c379a000000000000000000000000000000000000000000000000000000000815260040161242c906141fb565b60405180910390fd5b61243e81612d73565b50565b60655481565b60405160200161245690613dfa565b60405160208183030381529060405280519060200120606b60003373ffffffffffffffffffffffffffffffffffffffff1673ffffffffffffffffffffffffffffffffffffffff1681526020019081526020016000206040516020016124bb9190613c82565b6040516020818303038152906040528051906020012014612511576040517f08c379a000000000000000000000000000000000000000000000000000000000815260040161250890613e5b565b60405180910390fd5b600061251e606754612c1d565b60405160200161252e9190613f04565b6040516020818303038152906040529050600060405180610180016040528083815260200161255e606754612c1d565b60405160200161256e9190614241565b604051602081830303815290604052815260200187815260200186815260200185815260200160008152602001848152602001604051806020016040528060008152508152602001604051806020016040528060008152508152602001604051806020016040528060008152508152602001604051806020016040528060008152508152602001604051806020016040528060008152508152509050606a8190806001815401808255809150506001900390600052602060002090600c02016000909190919091506000820151816000019080519060200190612652929190613071565b50602082015181600101908051906020019061266f929190613071565b50604082015181600201908051906020019061268c929190613071565b50606082015181600301556080820151816004015560a0820151816005015560c08201518160060190805190602001906126c7929190613071565b5060e08201518160070190805190602001906126e4929190613071565b50610100820151816008019080519060200190612702929190613071565b50610120820151816009019080519060200190612720929190613071565b5061014082015181600a01908051906020019061273e929190613071565b5061016082015181600b01908051906020019061275c929190613071565b505050806069836040516127709190613d36565b9081526020016040518091039020600082015181600001908051906020019061279a929190613071565b5060208201518160010190805190602001906127b7929190613071565b5060408201518160020190805190602001906127d4929190613071565b50606082015181600301556080820151816004015560a0820151816005015560c082015181600601908051906020019061280f929190613071565b5060e082015181600701908051906020019061282c929190613071565b5061010082015181600801908051906020019061284a929190613071565b50610120820151816009019080519060200190612868929190613071565b5061014082015181600a019080519060200190612886929190613071565b5061016082015181600b0190805190602001906128a4929190613071565b509050506001606760008282546128bb9190613f59565b92505081905550816040516128d09190613d36565b60405180910390207f1b21032942411443543e7923f2da271066ad99511aa6ffcda3bb43030b9157d460405160405180910390a2505050505050565b6060606b60003373ffffffffffffffffffffffffffffffffffffffff1673ffffffffffffffffffffffffffffffffffffffff168152602001908152602001600020805461295890613bbc565b80601f016020809104026020016040519081016040528092919081815260200182805461298490613bbc565b80156129d15780601f106129a6576101008083540402835291602001916129d1565b820191906000526020600020905b8154815290600101906020018083116129b457829003601f168201915b5050505050905090565b60606000600167ffffffffffffffff8111156129fa576129f96131a4565b5b6040519080825280601f01601f191660200182016040528015612a2c5781602001600182028036833780820191505090505b50905082600081518110612a4357612a42613f2a565b5b602001015160f81c60f81b81600081518110612a6257612a61613f2a565b5b60200101907effffffffffffffffffffffffffffffffffffffffffffffffffffffffffffff1916908160001a90535080915050919050565b606060008290506000815167ffffffffffffffff811115612abe57612abd6131a4565b5b6040519080825280601f01601f191660200182016040528015612af05781602001600182028036833780820191505090505b50905060005b8251811015612c1257828181518110612b1257612b11613f2a565b5b602001015160f81c60f81b828281518110612b3057612b2f613f2a565b5b60200101907effffffffffffffffffffffffffffffffffffffffffffffffffffffffffffff1916908160001a9053506000811415612bff576040518060400160405280600181526020017f5300000000000000000000000000000000000000000000000000000000000000815250600081518110612bb157612bb0613f2a565b5b602001015160f81c60f81b828281518110612bcf57612bce613f2a565b5b60200101907effffffffffffffffffffffffffffffffffffffffffffffffffffffffffffff1916908160001a9053505b8080612c0a90613faf565b915050612af6565b508092505050919050565b606060006001612c2c84612eb5565b01905060008167ffffffffffffffff811115612c4b57612c4a6131a4565b5b6040519080825280601f01601f191660200182016040528015612c7d5781602001600182028036833780820191505090505b509050600082602001820190505b600115612cea578080600190039150507f3031323334353637383961626364656600000000000000000000000000000000600a86061a8153600a8581612cd457612cd3614267565b5b0494506000851415612ce557612cea565b612c8b565b819350505050919050565b612cfd613008565b73ffffffffffffffffffffffffffffffffffffffff16612d1b61187d565b73ffffffffffffffffffffffffffffffffffffffff1614612d71576040517f08c379a0000000000000000000000000000000000000000000000000000000008152600401612d68906142e2565b60405180910390fd5b565b6000603360009054906101000a900473ffffffffffffffffffffffffffffffffffffffff16905081603360006101000a81548173ffffffffffffffffffffffffffffffffffffffff021916908373ffffffffffffffffffffffffffffffffffffffff1602179055508173ffffffffffffffffffffffffffffffffffffffff168173ffffffffffffffffffffffffffffffffffffffff167f8be0079c531659141344cd1fd0a4f28419497f9722a3daafe3b4186f6b6457e060405160405180910390a35050565b6000808273ffffffffffffffffffffffffffffffffffffffff163b119050919050565b600060019054906101000a900460ff16612eab576040517f08c379a0000000000000000000000000000000000000000000000000000000008152600401612ea290614374565b60405180910390fd5b612eb3613010565b565b600080600090507a184f03e93ff9f4daa797ed6e38ed64bf6a1f0100000000000000008310612f13577a184f03e93ff9f4daa797ed6e38ed64bf6a1f0100000000000000008381612f0957612f08614267565b5b0492506040810190505b6d04ee2d6d415b85acef81000000008310612f50576d04ee2d6d415b85acef81000000008381612f4657612f45614267565b5b0492506020810190505b662386f26fc100008310612f7f57662386f26fc100008381612f7557612f74614267565b5b0492506010810190505b6305f5e1008310612fa8576305f5e1008381612f9e57612f9d614267565b5b0492506008810190505b6127108310612fcd576127108381612fc357612fc2614267565b5b0492506004810190505b60648310612ff05760648381612fe657612fe5614267565b5b0492506002810190505b600a8310612fff576001810190505b80915050919050565b600033905090565b600060019054906101000a900460ff1661305f576040517f08c379a000000000000000000000000000000000000000000000000000000000815260040161305690614374565b60405180910390fd5b61306f61306a613008565b612d73565b565b82805461307d90613bbc565b90600052602060002090601f01602090048101928261309f57600085556130e6565b82601f106130b857805160ff19168380011785556130e6565b828001600101855582156130e6579182015b828111156130e55782518255916020019190600101906130ca565b5b5090506130f39190613158565b5090565b6040518061018001604052806060815260200160608152602001606081526020016000815260200160008152602001600081526020016060815260200160608152602001606081526020016060815260200160608152602001606081525090565b5b80821115613171576000816000905550600101613159565b5090565b6000604051905090565b600080fd5b600080fd5b600080fd5b600080fd5b6000601f19601f8301169050919050565b7f4e487b7100000000000000000000000000000000000000000000000000000000600052604160045260246000fd5b6131dc82613193565b810181811067ffffffffffffffff821117156131fb576131fa6131a4565b5b80604052505050565b600061320e613175565b905061321a82826131d3565b919050565b600067ffffffffffffffff82111561323a576132396131a4565b5b61324382613193565b9050602081019050919050565b82818337600083830152505050565b600061327261326d8461321f565b613204565b90508281526020810184848401111561328e5761328d61318e565b5b613299848285613250565b509392505050565b600082601f8301126132b6576132b5613189565b5b81356132c684826020860161325f565b91505092915050565b600080604083850312156132e6576132e561317f565b5b600083013567ffffffffffffffff81111561330457613303613184565b5b613310858286016132a1565b925050602083013567ffffffffffffffff81111561333157613330613184565b5b61333d858286016132a1565b9150509250929050565b60006020828403121561335d5761335c61317f565b5b600082013567ffffffffffffffff81111561337b5761337a613184565b5b613387848285016132a1565b91505092915050565b600081519050919050565b600082825260208201905092915050565b60005b838110156133ca5780820151818401526020810190506133af565b838111156133d9576000848401525b50505050565b60006133ea82613390565b6133f4818561339b565b93506134048185602086016133ac565b61340d81613193565b840191505092915050565b6000819050919050565b61342b81613418565b82525050565b600061018083016000830151848203600086015261344f82826133df565b9150506020830151848203602086015261346982826133df565b9150506040830151848203604086015261348382826133df565b91505060608301516134986060860182613422565b5060808301516134ab6080860182613422565b5060a08301516134be60a0860182613422565b5060c083015184820360c08601526134d682826133df565b91505060e083015184820360e08601526134f082826133df565b91505061010083015184820361010086015261350c82826133df565b91505061012083015184820361012086015261352882826133df565b91505061014083015184820361014086015261354482826133df565b91505061016083015184820361016086015261356082826133df565b9150508091505092915050565b600060208201905081810360008301526135878184613431565b905092915050565b600081519050919050565b600082825260208201905092915050565b6000819050602082019050919050565b60006101808301600083015184820360008601526135d982826133df565b915050602083015184820360208601526135f382826133df565b9150506040830151848203604086015261360d82826133df565b91505060608301516136226060860182613422565b5060808301516136356080860182613422565b5060a083015161364860a0860182613422565b5060c083015184820360c086015261366082826133df565b91505060e083015184820360e086015261367a82826133df565b91505061010083015184820361010086015261369682826133df565b9150506101208301518482036101208601526136b282826133df565b9150506101408301518482036101408601526136ce82826133df565b9150506101608301518482036101608601526136ea82826133df565b9150508091505092915050565b600061370383836135bb565b905092915050565b6000602082019050919050565b60006137238261358f565b61372d818561359a565b93508360208202850161373f856135ab565b8060005b8581101561377b578484038952815161375c85826136f7565b94506137678361370b565b925060208a01995050600181019050613743565b50829750879550505050505092915050565b600060208201905081810360008301526137a78184613718565b905092915050565b600073ffffffffffffffffffffffffffffffffffffffff82169050919050565b60006137da826137af565b9050919050565b6137ea816137cf565b81146137f557600080fd5b50565b600081359050613807816137e1565b92915050565b600080604083850312156138245761382361317f565b5b6000613832858286016137f8565b925050602083013567ffffffffffffffff81111561385357613852613184565b5b61385f858286016132a1565b9150509250929050565b613872816137cf565b82525050565b600060208201905061388d6000830184613869565b92915050565b6000602082840312156138a9576138a861317f565b5b60006138b7848285016137f8565b91505092915050565b600082825260208201905092915050565b60006138dc82613390565b6138e681856138c0565b93506138f68185602086016133ac565b6138ff81613193565b840191505092915050565b6000602082019050818103600083015261392481846138d1565b905092915050565b61393581613418565b811461394057600080fd5b50565b6000813590506139528161392c565b92915050565b60006020828403121561396e5761396d61317f565b5b600061397c84828501613943565b91505092915050565b61398e81613418565b82525050565b60006101808201905081810360008301526139af818f6138d1565b905081810360208301526139c3818e6138d1565b905081810360408301526139d7818d6138d1565b90506139e6606083018c613985565b6139f3608083018b613985565b613a0060a083018a613985565b81810360c0830152613a1281896138d1565b905081810360e0830152613a2681886138d1565b9050818103610100830152613a3b81876138d1565b9050818103610120830152613a5081866138d1565b9050818103610140830152613a6581856138d1565b9050818103610160830152613a7a81846138d1565b90509d9c50505050505050505050505050565b6000602082019050613aa26000830184613985565b92915050565b60008060008060808587031215613ac257613ac161317f565b5b600085013567ffffffffffffffff811115613ae057613adf613184565b5b613aec878288016132a1565b9450506020613afd87828801613943565b9350506040613b0e87828801613943565b925050606085013567ffffffffffffffff811115613b2f57613b2e613184565b5b613b3b878288016132a1565b91505092959194509250565b600081905092915050565b50565b6000613b62600083613b47565b9150613b6d82613b52565b600082019050919050565b6000613b8382613b55565b9150819050919050565b7f4e487b7100000000000000000000000000000000000000000000000000000000600052602260045260246000fd5b60006002820490506001821680613bd457607f821691505b60208210811415613be857613be7613b8d565b5b50919050565b60008190508160005260206000209050919050565b60008154613c1081613bbc565b613c1a8186613b47565b94506001821660008114613c355760018114613c4657613c79565b60ff19831686528186019350613c79565b613c4f85613bee565b60005b83811015613c7157815481890152600182019150602081019050613c52565b838801955050505b50505092915050565b6000613c8e8284613c03565b915081905092915050565b7f596f7520617265206e6f742070617274206f66207465616d2079657420212100600082015250565b6000613ccf601f836138c0565b9150613cda82613c99565b602082019050919050565b60006020820190508181036000830152613cfe81613cc2565b9050919050565b6000613d1082613390565b613d1a8185613b47565b9350613d2a8185602086016133ac565b80840191505092915050565b6000613d428284613d05565b915081905092915050565b7f5300000000000000000000000000000000000000000000000000000000000000600082015250565b6000613d83600183613b47565b9150613d8e82613d4d565b600182019050919050565b6000613da482613d76565b9150819050919050565b7f53616c657320526570726573656e746174697665000000000000000000000000600082015250565b6000613de4601483613b47565b9150613def82613dae565b601482019050919050565b6000613e0582613dd7565b9150819050919050565b7f596f7520617265206e6f7420612053616c657320526570202121000000000000600082015250565b6000613e45601a836138c0565b9150613e5082613e0f565b602082019050919050565b60006020820190508181036000830152613e7481613e38565b9050919050565b7f4e487b7100000000000000000000000000000000000000000000000000000000600052601160045260246000fd5b6000613eb582613418565b9150613ec083613418565b925082821015613ed357613ed2613e7b565b5b828203905092915050565b7f534f000000000000000000000000000000000000000000000000000000000000815250565b6000613f0f82613ede565b600282019150613f1f8284613d05565b915081905092915050565b7f4e487b7100000000000000000000000000000000000000000000000000000000600052603260045260246000fd5b6000613f6482613418565b9150613f6f83613418565b9250827fffffffffffffffffffffffffffffffffffffffffffffffffffffffffffffffff03821115613fa457613fa3613e7b565b5b828201905092915050565b6000613fba82613418565b91507fffffffffffffffffffffffffffffffffffffffffffffffffffffffffffffffff821415613fed57613fec613e7b565b5b600182019050919050565b7f4e756c6c206163636f756e7420697320636f6d696e672066726f6d2066726f6e60008201527f742d656e64202121000000000000000000000000000000000000000000000000602082015250565b60006140546028836138c0565b915061405f82613ff8565b604082019050919050565b6000602082019050818103600083015261408381614047565b9050919050565b7f496e697469616c697a61626c653a20636f6e747261637420697320616c72656160008201527f647920696e697469616c697a6564000000000000000000000000000000000000602082015250565b60006140e6602e836138c0565b91506140f18261408a565b604082019050919050565b60006020820190508181036000830152614115816140d9565b9050919050565b6000819050919050565b600060ff82169050919050565b6000819050919050565b600061415861415361414e8461411c565b614133565b614126565b9050919050565b6141688161413d565b82525050565b6000602082019050614183600083018461415f565b92915050565b7f4f776e61626c653a206e6577206f776e657220697320746865207a65726f206160008201527f6464726573730000000000000000000000000000000000000000000000000000602082015250565b60006141e56026836138c0565b91506141f082614189565b604082019050919050565b60006020820190508181036000830152614214816141d8565b9050919050565b7f504f000000000000000000000000000000000000000000000000000000000000815250565b600061424c8261421b565b60028201915061425c8284613d05565b915081905092915050565b7f4e487b7100000000000000000000000000000000000000000000000000000000600052601260045260246000fd5b7f4f776e61626c653a2063616c6c6572206973206e6f7420746865206f776e6572600082015250565b60006142cc6020836138c0565b91506142d782614296565b602082019050919050565b600060208201905081810360008301526142fb816142bf565b9050919050565b7f496e697469616c697a61626c653a20636f6e7472616374206973206e6f74206960008201527f6e697469616c697a696e67000000000000000000000000000000000000000000602082015250565b600061435e602b836138c0565b915061436982614302565b604082019050919050565b6000602082019050818103600083015261438d81614351565b905091905056fea264697066735822122033ca91156da0ee7ff2c0fb7e7063ff74750d45a979e5407d99be892e52886be164736f6c634300080c0033",
  "linkReferences": {},
  "deployedLinkReferences": {}
}