{
  "_format": "hh-sol-artifact-1",
  "contractName": "SupplyChain",
  "sourceName": "contracts/SupplyChain.sol",
  "abi": [
    {
      "anonymous": false,
      "inputs": [
        {
          "indexed": false,
          "internalType": "string",
          "name": "_soId",
          "type": "string"
        }
      ],
      "name": "GetSoID",
      "type": "event"
    },
    {
      "anonymous": false,
      "inputs": [
        {
          "indexed": false,
          "internalType": "uint8",
          "name": "version",
          "type": "uint8"
        }
      ],
      "name": "Initialized",
      "type": "event"
    },
    {
      "anonymous": false,
      "inputs": [
        {
          "indexed": true,
          "internalType": "address",
          "name": "_account",
          "type": "address"
        }
      ],
      "name": "ManufacturerAdded",
      "type": "event"
    },
    {
      "anonymous": false,
      "inputs": [
        {
          "indexed": true,
          "internalType": "address",
          "name": "previousOwner",
          "type": "address"
        },
        {
          "indexed": true,
          "internalType": "address",
          "name": "newOwner",
          "type": "address"
        }
      ],
      "name": "OwnershipTransferred",
      "type": "event"
    },
    {
      "inputs": [
        {
          "internalType": "address",
          "name": "_account",
          "type": "address"
        },
        {
          "internalType": "string",
          "name": "role",
          "type": "string"
        }
      ],
      "name": "addRole",
      "outputs": [],
      "stateMutability": "nonpayable",
      "type": "function"
    },
    {
      "inputs": [
        {
          "internalType": "string",
          "name": "_prodName",
          "type": "string"
        },
        {
          "internalType": "uint256",
          "name": "_qty",
          "type": "uint256"
        },
        {
          "internalType": "uint256",
          "name": "_ordrVal",
          "type": "uint256"
        },
        {
          "internalType": "string",
          "name": "_status",
          "type": "string"
        }
      ],
      "name": "createOrder",
      "outputs": [],
      "stateMutability": "nonpayable",
      "type": "function"
    },
    {
      "inputs": [],
      "name": "getAllOrderDetails",
      "outputs": [
        {
          "components": [
            {
              "internalType": "string",
              "name": "SoID",
              "type": "string"
            },
            {
              "internalType": "string",
              "name": "PoID",
              "type": "string"
            },
            {
              "internalType": "string",
              "name": "prodName",
              "type": "string"
            },
            {
              "internalType": "uint256",
              "name": "qty",
              "type": "uint256"
            },
            {
              "internalType": "uint256",
              "name": "orderValue",
              "type": "uint256"
            },
            {
              "internalType": "uint256",
              "name": "customerFinalDeliveryDate",
              "type": "uint256"
            },
            {
              "internalType": "string",
              "name": "status",
              "type": "string"
            },
            {
              "internalType": "string",
              "name": "barCode",
              "type": "string"
            },
            {
              "internalType": "string",
              "name": "batchNo",
              "type": "string"
            },
            {
              "internalType": "string",
              "name": "masterLabel",
              "type": "string"
            },
            {
              "internalType": "string",
              "name": "invoicePath",
              "type": "string"
            },
            {
              "internalType": "string",
              "name": "trackingNo",
              "type": "string"
            }
          ],
          "internalType": "struct SupplyChain.Order[]",
          "name": "",
          "type": "tuple[]"
        }
      ],
      "stateMutability": "view",
      "type": "function"
    },
    {
      "inputs": [
        {
          "internalType": "string",
          "name": "_soOrPo",
          "type": "string"
        }
      ],
      "name": "getOrderDetails",
      "outputs": [
        {
          "components": [
            {
              "internalType": "string",
              "name": "SoID",
              "type": "string"
            },
            {
              "internalType": "string",
              "name": "PoID",
              "type": "string"
            },
            {
              "internalType": "string",
              "name": "prodName",
              "type": "string"
            },
            {
              "internalType": "uint256",
              "name": "qty",
              "type": "uint256"
            },
            {
              "internalType": "uint256",
              "name": "orderValue",
              "type": "uint256"
            },
            {
              "internalType": "uint256",
              "name": "customerFinalDeliveryDate",
              "type": "uint256"
            },
            {
              "internalType": "string",
              "name": "status",
              "type": "string"
            },
            {
              "internalType": "string",
              "name": "barCode",
              "type": "string"
            },
            {
              "internalType": "string",
              "name": "batchNo",
              "type": "string"
            },
            {
              "internalType": "string",
              "name": "masterLabel",
              "type": "string"
            },
            {
              "internalType": "string",
              "name": "invoicePath",
              "type": "string"
            },
            {
              "internalType": "string",
              "name": "trackingNo",
              "type": "string"
            }
          ],
          "internalType": "struct SupplyChain.Order",
          "name": "",
          "type": "tuple"
        }
      ],
      "stateMutability": "view",
      "type": "function"
    },
    {
      "inputs": [],
      "name": "getRole",
      "outputs": [
        {
          "internalType": "string",
          "name": "",
          "type": "string"
        }
      ],
      "stateMutability": "view",
      "type": "function"
    },
    {
      "inputs": [],
      "name": "initialize",
      "outputs": [],
      "stateMutability": "nonpayable",
      "type": "function"
    },
    {
      "inputs": [
        {
          "internalType": "string",
          "name": "",
          "type": "string"
        }
      ],
      "name": "orderData",
      "outputs": [
        {
          "internalType": "string",
          "name": "SoID",
          "type": "string"
        },
        {
          "internalType": "string",
          "name": "PoID",
          "type": "string"
        },
        {
          "internalType": "string",
          "name": "prodName",
          "type": "string"
        },
        {
          "internalType": "uint256",
          "name": "qty",
          "type": "uint256"
        },
        {
          "internalType": "uint256",
          "name": "orderValue",
          "type": "uint256"
        },
        {
          "internalType": "uint256",
          "name": "customerFinalDeliveryDate",
          "type": "uint256"
        },
        {
          "internalType": "string",
          "name": "status",
          "type": "string"
        },
        {
          "internalType": "string",
          "name": "barCode",
          "type": "string"
        },
        {
          "internalType": "string",
          "name": "batchNo",
          "type": "string"
        },
        {
          "internalType": "string",
          "name": "masterLabel",
          "type": "string"
        },
        {
          "internalType": "string",
          "name": "invoicePath",
          "type": "string"
        },
        {
          "internalType": "string",
          "name": "trackingNo",
          "type": "string"
        }
      ],
      "stateMutability": "view",
      "type": "function"
    },
    {
      "inputs": [
        {
          "internalType": "uint256",
          "name": "",
          "type": "uint256"
        }
      ],
      "name": "orders",
      "outputs": [
        {
          "internalType": "string",
          "name": "SoID",
          "type": "string"
        },
        {
          "internalType": "string",
          "name": "PoID",
          "type": "string"
        },
        {
          "internalType": "string",
          "name": "prodName",
          "type": "string"
        },
        {
          "internalType": "uint256",
          "name": "qty",
          "type": "uint256"
        },
        {
          "internalType": "uint256",
          "name": "orderValue",
          "type": "uint256"
        },
        {
          "internalType": "uint256",
          "name": "customerFinalDeliveryDate",
          "type": "uint256"
        },
        {
          "internalType": "string",
          "name": "status",
          "type": "string"
        },
        {
          "internalType": "string",
          "name": "barCode",
          "type": "string"
        },
        {
          "internalType": "string",
          "name": "batchNo",
          "type": "string"
        },
        {
          "internalType": "string",
          "name": "masterLabel",
          "type": "string"
        },
        {
          "internalType": "string",
          "name": "invoicePath",
          "type": "string"
        },
        {
          "internalType": "string",
          "name": "trackingNo",
          "type": "string"
        }
      ],
      "stateMutability": "view",
      "type": "function"
    },
    {
      "inputs": [],
      "name": "owner",
      "outputs": [
        {
          "internalType": "address",
          "name": "",
          "type": "address"
        }
      ],
      "stateMutability": "view",
      "type": "function"
    },
    {
      "inputs": [],
      "name": "renounceOwnership",
      "outputs": [],
      "stateMutability": "nonpayable",
      "type": "function"
    },
    {
      "inputs": [
        {
          "internalType": "address",
          "name": "",
          "type": "address"
        }
      ],
      "name": "roles",
      "outputs": [
        {
          "internalType": "string",
          "name": "",
          "type": "string"
        }
      ],
      "stateMutability": "view",
      "type": "function"
    },
    {
      "inputs": [
        {
          "internalType": "string",
          "name": "numString",
          "type": "string"
        }
      ],
      "name": "st2num",
      "outputs": [
        {
          "internalType": "uint256",
          "name": "",
          "type": "uint256"
        }
      ],
      "stateMutability": "pure",
      "type": "function"
    },
    {
      "inputs": [
        {
          "internalType": "address",
          "name": "newOwner",
          "type": "address"
        }
      ],
      "name": "transferOwnership",
      "outputs": [],
      "stateMutability": "nonpayable",
      "type": "function"
    },
    {
      "inputs": [],
      "name": "uid",
      "outputs": [
        {
          "internalType": "uint256",
          "name": "",
          "type": "uint256"
        }
      ],
      "stateMutability": "view",
      "type": "function"
    },
    {
      "inputs": [
        {
          "internalType": "string",
          "name": "_so",
          "type": "string"
        },
        {
          "internalType": "string[]",
          "name": "colName",
          "type": "string[]"
        },
        {
          "internalType": "string[]",
          "name": "_value",
          "type": "string[]"
        }
      ],
      "name": "update",
      "outputs": [],
      "stateMutability": "nonpayable",
      "type": "function"
    }
  ],
  "bytecode": "0x608060405234801561001057600080fd5b5061514c806100206000396000f3fe608060405234801561001057600080fd5b50600436106100f55760003560e01c80638da5cb5b11610097578063f2fde38b11610066578063f2fde38b14610288578063f514ce36146102a4578063fb0a9a6d146102c2578063fde08174146102de576100f5565b80638da5cb5b146101c457806399374642146101e2578063a85c38ef14610212578063e393f2631461024d576100f5565b8063715018a6116100d3578063715018a61461016457806379cd90551461016e5780637d72aa651461019e5780638129fc1c146101ba576100f5565b80634fbb487c146100fa5780635a5538551461012a5780636bc184b414610146575b600080fd5b610114600480360381019061010f9190613a30565b6102fc565b6040516101219190613c56565b60405180910390f35b610144600480360381019061013f9190613d2e565b610e49565b005b61014e61153f565b60405161015b9190613fe0565b60405180910390f35b61016c611c6b565b005b61018860048036038101906101839190613a30565b611c7f565b6040516101959190614011565b60405180910390f35b6101b860048036038101906101b3919061408a565b611d39565b005b6101c2611e0b565b005b6101cc611f63565b6040516101d991906140f5565b60405180910390f35b6101fc60048036038101906101f79190614110565b611f8d565b6040516102099190614187565b60405180910390f35b61022c600480360381019061022791906141d5565b61202d565b6040516102449c9b9a99989796959493929190614202565b60405180910390f35b61026760048036038101906102629190613a30565b612565565b60405161027f9c9b9a99989796959493929190614202565b60405180910390f35b6102a2600480360381019061029d9190614110565b612aa3565b005b6102ac612b27565b6040516102b99190614011565b60405180910390f35b6102dc60048036038101906102d791906142fb565b612b2d565b005b6102e6612fe7565b6040516102f39190614187565b60405180910390f35b61030461374c565b604051602001610313906143f1565b60405160208183030381529060405280519060200120610332836130b6565b6040516020016103429190614437565b6040516020818303038152906040528051906020012014156108cf5760698260405161036e9190614437565b9081526020016040518091039020604051806101800160405290816000820180546103989061447d565b80601f01602080910402602001604051908101604052809291908181526020018280546103c49061447d565b80156104115780601f106103e657610100808354040283529160200191610411565b820191906000526020600020905b8154815290600101906020018083116103f457829003601f168201915b5050505050815260200160018201805461042a9061447d565b80601f01602080910402602001604051908101604052809291908181526020018280546104569061447d565b80156104a35780601f10610478576101008083540402835291602001916104a3565b820191906000526020600020905b81548152906001019060200180831161048657829003601f168201915b505050505081526020016002820180546104bc9061447d565b80601f01602080910402602001604051908101604052809291908181526020018280546104e89061447d565b80156105355780601f1061050a57610100808354040283529160200191610535565b820191906000526020600020905b81548152906001019060200180831161051857829003601f168201915b5050505050815260200160038201548152602001600482015481526020016005820154815260200160068201805461056c9061447d565b80601f01602080910402602001604051908101604052809291908181526020018280546105989061447d565b80156105e55780601f106105ba576101008083540402835291602001916105e5565b820191906000526020600020905b8154815290600101906020018083116105c857829003601f168201915b505050505081526020016007820180546105fe9061447d565b80601f016020809104026020016040519081016040528092919081815260200182805461062a9061447d565b80156106775780601f1061064c57610100808354040283529160200191610677565b820191906000526020600020905b81548152906001019060200180831161065a57829003601f168201915b505050505081526020016008820180546106909061447d565b80601f01602080910402602001604051908101604052809291908181526020018280546106bc9061447d565b80156107095780601f106106de57610100808354040283529160200191610709565b820191906000526020600020905b8154815290600101906020018083116106ec57829003601f168201915b505050505081526020016009820180546107229061447d565b80601f016020809104026020016040519081016040528092919081815260200182805461074e9061447d565b801561079b5780601f106107705761010080835404028352916020019161079b565b820191906000526020600020905b81548152906001019060200180831161077e57829003601f168201915b50505050508152602001600a820180546107b49061447d565b80601f01602080910402602001604051908101604052809291908181526020018280546107e09061447d565b801561082d5780601f106108025761010080835404028352916020019161082d565b820191906000526020600020905b81548152906001019060200180831161081057829003601f168201915b50505050508152602001600b820180546108469061447d565b80601f01602080910402602001604051908101604052809291908181526020018280546108729061447d565b80156108bf5780601f10610894576101008083540402835291602001916108bf565b820191906000526020600020905b8154815290600101906020018083116108a257829003601f168201915b5050505050815250509050610e44565b60696108da83613175565b6040516108e79190614437565b9081526020016040518091039020604051806101800160405290816000820180546109119061447d565b80601f016020809104026020016040519081016040528092919081815260200182805461093d9061447d565b801561098a5780601f1061095f5761010080835404028352916020019161098a565b820191906000526020600020905b81548152906001019060200180831161096d57829003601f168201915b505050505081526020016001820180546109a39061447d565b80601f01602080910402602001604051908101604052809291908181526020018280546109cf9061447d565b8015610a1c5780601f106109f157610100808354040283529160200191610a1c565b820191906000526020600020905b8154815290600101906020018083116109ff57829003601f168201915b50505050508152602001600282018054610a359061447d565b80601f0160208091040260200160405190810160405280929190818152602001828054610a619061447d565b8015610aae5780601f10610a8357610100808354040283529160200191610aae565b820191906000526020600020905b815481529060010190602001808311610a9157829003601f168201915b50505050508152602001600382015481526020016004820154815260200160058201548152602001600682018054610ae59061447d565b80601f0160208091040260200160405190810160405280929190818152602001828054610b119061447d565b8015610b5e5780601f10610b3357610100808354040283529160200191610b5e565b820191906000526020600020905b815481529060010190602001808311610b4157829003601f168201915b50505050508152602001600782018054610b779061447d565b80601f0160208091040260200160405190810160405280929190818152602001828054610ba39061447d565b8015610bf05780601f10610bc557610100808354040283529160200191610bf0565b820191906000526020600020905b815481529060010190602001808311610bd357829003601f168201915b50505050508152602001600882018054610c099061447d565b80601f0160208091040260200160405190810160405280929190818152602001828054610c359061447d565b8015610c825780601f10610c5757610100808354040283529160200191610c82565b820191906000526020600020905b815481529060010190602001808311610c6557829003601f168201915b50505050508152602001600982018054610c9b9061447d565b80601f0160208091040260200160405190810160405280929190818152602001828054610cc79061447d565b8015610d145780601f10610ce957610100808354040283529160200191610d14565b820191906000526020600020905b815481529060010190602001808311610cf757829003601f168201915b50505050508152602001600a82018054610d2d9061447d565b80601f0160208091040260200160405190810160405280929190818152602001828054610d599061447d565b8015610da65780601f10610d7b57610100808354040283529160200191610da6565b820191906000526020600020905b815481529060010190602001808311610d8957829003601f168201915b50505050508152602001600b82018054610dbf9061447d565b80601f0160208091040260200160405190810160405280929190818152602001828054610deb9061447d565b8015610e385780601f10610e0d57610100808354040283529160200191610e38565b820191906000526020600020905b815481529060010190602001808311610e1b57829003601f168201915b50505050508152505090505b919050565b604051602001610e58906144d5565b60405160208183030381529060405280519060200120606b60003373ffffffffffffffffffffffffffffffffffffffff1673ffffffffffffffffffffffffffffffffffffffff168152602001908152602001600020604051602001610ebd919061457e565b604051602081830303815290604052805190602001201415610f14576040517f08c379a0000000000000000000000000000000000000000000000000000000008152600401610f0b906145e1565b60405180910390fd5b60005b8484905081101561153657604051602001610f319061464d565b60405160208183030381529060405280519060200120858583818110610f5a57610f59614662565b5b9050602002810190610f6c91906146a0565b604051602001610f7d929190614728565b604051602081830303815290604052805190602001201415610ff457828282818110610fac57610fab614662565b5b9050602002810190610fbe91906146a0565b60698989604051610fd0929190614728565b90815260200160405180910390206006019190610fee9291906137ad565b50611523565b6040516020016110039061478d565b6040516020818303038152906040528051906020012085858381811061102c5761102b614662565b5b905060200281019061103e91906146a0565b60405160200161104f929190614728565b604051602081830303815290604052805190602001201415611107576110db83838381811061108157611080614662565b5b905060200281019061109391906146a0565b8080601f016020809104026020016040519081016040528093929190818152602001838380828437600081840152601f19601f82011690508083019250505050505050611c7f565b606988886040516110ed929190614728565b908152602001604051809103902060050181905550611522565b604051602001611116906147ee565b6040516020818303038152906040528051906020012085858381811061113f5761113e614662565b5b905060200281019061115191906146a0565b604051602001611162929190614728565b6040516020818303038152906040528051906020012014156111d95782828281811061119157611190614662565b5b90506020028101906111a391906146a0565b606989896040516111b5929190614728565b908152602001604051809103902060070191906111d39291906137ad565b50611521565b6040516020016111e89061484f565b6040516020818303038152906040528051906020012085858381811061121157611210614662565b5b905060200281019061122391906146a0565b604051602001611234929190614728565b6040516020818303038152906040528051906020012014156112ab5782828281811061126357611262614662565b5b905060200281019061127591906146a0565b60698989604051611287929190614728565b908152602001604051809103902060080191906112a59291906137ad565b50611520565b6040516020016112ba906148b0565b604051602081830303815290604052805190602001208585838181106112e3576112e2614662565b5b90506020028101906112f591906146a0565b604051602001611306929190614728565b60405160208183030381529060405280519060200120141561137d5782828281811061133557611334614662565b5b905060200281019061134791906146a0565b60698989604051611359929190614728565b908152602001604051809103902060090191906113779291906137ad565b5061151f565b60405160200161138c90614911565b604051602081830303815290604052805190602001208585838181106113b5576113b4614662565b5b90506020028101906113c791906146a0565b6040516020016113d8929190614728565b60405160208183030381529060405280519060200120141561144f5782828281811061140757611406614662565b5b905060200281019061141991906146a0565b6069898960405161142b929190614728565b9081526020016040518091039020600a0191906114499291906137ad565b5061151e565b60405160200161145e90614972565b6040516020818303038152906040528051906020012085858381811061148757611486614662565b5b905060200281019061149991906146a0565b6040516020016114aa929190614728565b60405160208183030381529060405280519060200120141561151d578282828181106114d9576114d8614662565b5b90506020028101906114eb91906146a0565b606989896040516114fd929190614728565b9081526020016040518091039020600b01919061151b9291906137ad565b505b5b5b5b5b5b5b808061152e906149b6565b915050610f17565b50505050505050565b606060405160200161155090614a4b565b60405160208183030381529060405280519060200120606b60003373ffffffffffffffffffffffffffffffffffffffff1673ffffffffffffffffffffffffffffffffffffffff1681526020019081526020016000206040516020016115b5919061457e565b604051602081830303815290604052805190602001201461160b576040517f08c379a000000000000000000000000000000000000000000000000000000000815260040161160290614aac565b60405180910390fd5b600060675490506000806068546067546116259190614acc565b67ffffffffffffffff81111561163e5761163d613905565b5b60405190808252806020026020018201604052801561167757816020015b61166461374c565b81526020019060019003908161165c5790505b509050600060685490505b83811015611c615760006069611697836132f8565b6040516020016116a79190614b26565b6040516020818303038152906040526040516116c39190614437565b9081526020016040518091039020905080604051806101800160405290816000820180546116f09061447d565b80601f016020809104026020016040519081016040528092919081815260200182805461171c9061447d565b80156117695780601f1061173e57610100808354040283529160200191611769565b820191906000526020600020905b81548152906001019060200180831161174c57829003601f168201915b505050505081526020016001820180546117829061447d565b80601f01602080910402602001604051908101604052809291908181526020018280546117ae9061447d565b80156117fb5780601f106117d0576101008083540402835291602001916117fb565b820191906000526020600020905b8154815290600101906020018083116117de57829003601f168201915b505050505081526020016002820180546118149061447d565b80601f01602080910402602001604051908101604052809291908181526020018280546118409061447d565b801561188d5780601f106118625761010080835404028352916020019161188d565b820191906000526020600020905b81548152906001019060200180831161187057829003601f168201915b505050505081526020016003820154815260200160048201548152602001600582015481526020016006820180546118c49061447d565b80601f01602080910402602001604051908101604052809291908181526020018280546118f09061447d565b801561193d5780601f106119125761010080835404028352916020019161193d565b820191906000526020600020905b81548152906001019060200180831161192057829003601f168201915b505050505081526020016007820180546119569061447d565b80601f01602080910402602001604051908101604052809291908181526020018280546119829061447d565b80156119cf5780601f106119a4576101008083540402835291602001916119cf565b820191906000526020600020905b8154815290600101906020018083116119b257829003601f168201915b505050505081526020016008820180546119e89061447d565b80601f0160208091040260200160405190810160405280929190818152602001828054611a149061447d565b8015611a615780601f10611a3657610100808354040283529160200191611a61565b820191906000526020600020905b815481529060010190602001808311611a4457829003601f168201915b50505050508152602001600982018054611a7a9061447d565b80601f0160208091040260200160405190810160405280929190818152602001828054611aa69061447d565b8015611af35780601f10611ac857610100808354040283529160200191611af3565b820191906000526020600020905b815481529060010190602001808311611ad657829003601f168201915b50505050508152602001600a82018054611b0c9061447d565b80601f0160208091040260200160405190810160405280929190818152602001828054611b389061447d565b8015611b855780601f10611b5a57610100808354040283529160200191611b85565b820191906000526020600020905b815481529060010190602001808311611b6857829003601f168201915b50505050508152602001600b82018054611b9e9061447d565b80601f0160208091040260200160405190810160405280929190818152602001828054611bca9061447d565b8015611c175780601f10611bec57610100808354040283529160200191611c17565b820191906000526020600020905b815481529060010190602001808311611bfa57829003601f168201915b505050505081525050838581518110611c3357611c32614662565b5b6020026020010181905250600184611c4b9190614b4c565b9350508080611c59906149b6565b915050611682565b5080935050505090565b611c736133d0565b611c7d600061344e565b565b60008060009050600083905060005b8151811015611d2e576000818351611ca69190614acc565b90506000838381518110611cbd57611cbc614662565b5b602001015160f81c60f81b905060008160f81c9050600060308260ff16611ce49190614acc565b9050600184611cf39190614acc565b600a611cff9190614cd5565b81611d0a9190614d20565b87611d159190614b4c565b9650505050508080611d26906149b6565b915050611c8e565b508192505050919050565b611d416133d0565b81600073ffffffffffffffffffffffffffffffffffffffff168173ffffffffffffffffffffffffffffffffffffffff161415611db2576040517f08c379a0000000000000000000000000000000000000000000000000000000008152600401611da990614dec565b60405180910390fd5b81606b60008573ffffffffffffffffffffffffffffffffffffffff1673ffffffffffffffffffffffffffffffffffffffff1681526020019081526020016000209080519060200190611e05929190613833565b50505050565b60008060019054906101000a900460ff16159050808015611e3c5750600160008054906101000a900460ff1660ff16105b80611e695750611e4b30613514565b158015611e685750600160008054906101000a900460ff1660ff16145b5b611ea8576040517f08c379a0000000000000000000000000000000000000000000000000000000008152600401611e9f90614e7e565b60405180910390fd5b60016000806101000a81548160ff021916908360ff1602179055508015611ee5576001600060016101000a81548160ff0219169083151502179055505b611eed613537565b61409460678190555061409460688190555060016065819055508015611f605760008060016101000a81548160ff0219169083151502179055507f7f26b83ff96e1f2b6a682f133852f6798a09c465da95921460cefb38474024986001604051611f579190614ef0565b60405180910390a15b50565b6000603360009054906101000a900473ffffffffffffffffffffffffffffffffffffffff16905090565b606b6020528060005260406000206000915090508054611fac9061447d565b80601f0160208091040260200160405190810160405280929190818152602001828054611fd89061447d565b80156120255780601f10611ffa57610100808354040283529160200191612025565b820191906000526020600020905b81548152906001019060200180831161200857829003601f168201915b505050505081565b606a818154811061203d57600080fd5b90600052602060002090600c02016000915090508060000180546120609061447d565b80601f016020809104026020016040519081016040528092919081815260200182805461208c9061447d565b80156120d95780601f106120ae576101008083540402835291602001916120d9565b820191906000526020600020905b8154815290600101906020018083116120bc57829003601f168201915b5050505050908060010180546120ee9061447d565b80601f016020809104026020016040519081016040528092919081815260200182805461211a9061447d565b80156121675780601f1061213c57610100808354040283529160200191612167565b820191906000526020600020905b81548152906001019060200180831161214a57829003601f168201915b50505050509080600201805461217c9061447d565b80601f01602080910402602001604051908101604052809291908181526020018280546121a89061447d565b80156121f55780601f106121ca576101008083540402835291602001916121f5565b820191906000526020600020905b8154815290600101906020018083116121d857829003601f168201915b50505050509080600301549080600401549080600501549080600601805461221c9061447d565b80601f01602080910402602001604051908101604052809291908181526020018280546122489061447d565b80156122955780601f1061226a57610100808354040283529160200191612295565b820191906000526020600020905b81548152906001019060200180831161227857829003601f168201915b5050505050908060070180546122aa9061447d565b80601f01602080910402602001604051908101604052809291908181526020018280546122d69061447d565b80156123235780601f106122f857610100808354040283529160200191612323565b820191906000526020600020905b81548152906001019060200180831161230657829003601f168201915b5050505050908060080180546123389061447d565b80601f01602080910402602001604051908101604052809291908181526020018280546123649061447d565b80156123b15780601f10612386576101008083540402835291602001916123b1565b820191906000526020600020905b81548152906001019060200180831161239457829003601f168201915b5050505050908060090180546123c69061447d565b80601f01602080910402602001604051908101604052809291908181526020018280546123f29061447d565b801561243f5780601f106124145761010080835404028352916020019161243f565b820191906000526020600020905b81548152906001019060200180831161242257829003601f168201915b50505050509080600a0180546124549061447d565b80601f01602080910402602001604051908101604052809291908181526020018280546124809061447d565b80156124cd5780601f106124a2576101008083540402835291602001916124cd565b820191906000526020600020905b8154815290600101906020018083116124b057829003601f168201915b50505050509080600b0180546124e29061447d565b80601f016020809104026020016040519081016040528092919081815260200182805461250e9061447d565b801561255b5780601f106125305761010080835404028352916020019161255b565b820191906000526020600020905b81548152906001019060200180831161253e57829003601f168201915b505050505090508c565b60698180516020810182018051848252602083016020850120818352809550505050505060009150905080600001805461259e9061447d565b80601f01602080910402602001604051908101604052809291908181526020018280546125ca9061447d565b80156126175780601f106125ec57610100808354040283529160200191612617565b820191906000526020600020905b8154815290600101906020018083116125fa57829003601f168201915b50505050509080600101805461262c9061447d565b80601f01602080910402602001604051908101604052809291908181526020018280546126589061447d565b80156126a55780601f1061267a576101008083540402835291602001916126a5565b820191906000526020600020905b81548152906001019060200180831161268857829003601f168201915b5050505050908060020180546126ba9061447d565b80601f01602080910402602001604051908101604052809291908181526020018280546126e69061447d565b80156127335780601f1061270857610100808354040283529160200191612733565b820191906000526020600020905b81548152906001019060200180831161271657829003601f168201915b50505050509080600301549080600401549080600501549080600601805461275a9061447d565b80601f01602080910402602001604051908101604052809291908181526020018280546127869061447d565b80156127d35780601f106127a8576101008083540402835291602001916127d3565b820191906000526020600020905b8154815290600101906020018083116127b657829003601f168201915b5050505050908060070180546127e89061447d565b80601f01602080910402602001604051908101604052809291908181526020018280546128149061447d565b80156128615780601f1061283657610100808354040283529160200191612861565b820191906000526020600020905b81548152906001019060200180831161284457829003601f168201915b5050505050908060080180546128769061447d565b80601f01602080910402602001604051908101604052809291908181526020018280546128a29061447d565b80156128ef5780601f106128c4576101008083540402835291602001916128ef565b820191906000526020600020905b8154815290600101906020018083116128d257829003601f168201915b5050505050908060090180546129049061447d565b80601f01602080910402602001604051908101604052809291908181526020018280546129309061447d565b801561297d5780601f106129525761010080835404028352916020019161297d565b820191906000526020600020905b81548152906001019060200180831161296057829003601f168201915b50505050509080600a0180546129929061447d565b80601f01602080910402602001604051908101604052809291908181526020018280546129be9061447d565b8015612a0b5780601f106129e057610100808354040283529160200191612a0b565b820191906000526020600020905b8154815290600101906020018083116129ee57829003601f168201915b50505050509080600b018054612a209061447d565b80601f0160208091040260200160405190810160405280929190818152602001828054612a4c9061447d565b8015612a995780601f10612a6e57610100808354040283529160200191612a99565b820191906000526020600020905b815481529060010190602001808311612a7c57829003601f168201915b505050505090508c565b612aab6133d0565b600073ffffffffffffffffffffffffffffffffffffffff168173ffffffffffffffffffffffffffffffffffffffff161415612b1b576040517f08c379a0000000000000000000000000000000000000000000000000000000008152600401612b1290614f7d565b60405180910390fd5b612b248161344e565b50565b60655481565b604051602001612b3c90614a4b565b60405160208183030381529060405280519060200120606b60003373ffffffffffffffffffffffffffffffffffffffff1673ffffffffffffffffffffffffffffffffffffffff168152602001908152602001600020604051602001612ba1919061457e565b6040516020818303038152906040528051906020012014612bf7576040517f08c379a0000000000000000000000000000000000000000000000000000000008152600401612bee90614aac565b60405180910390fd5b6000612c046067546132f8565b604051602001612c149190614b26565b60405160208183030381529060405290506000604051806101800160405280838152602001612c446067546132f8565b604051602001612c549190614fc3565b604051602081830303815290604052815260200187815260200186815260200185815260200160008152602001848152602001604051806020016040528060008152508152602001604051806020016040528060008152508152602001604051806020016040528060008152508152602001604051806020016040528060008152508152602001604051806020016040528060008152508152509050606a8190806001815401808255809150506001900390600052602060002090600c02016000909190919091506000820151816000019080519060200190612d38929190613833565b506020820151816001019080519060200190612d55929190613833565b506040820151816002019080519060200190612d72929190613833565b50606082015181600301556080820151816004015560a0820151816005015560c0820151816006019080519060200190612dad929190613833565b5060e0820151816007019080519060200190612dca929190613833565b50610100820151816008019080519060200190612de8929190613833565b50610120820151816009019080519060200190612e06929190613833565b5061014082015181600a019080519060200190612e24929190613833565b5061016082015181600b019080519060200190612e42929190613833565b50505080606983604051612e569190614437565b90815260200160405180910390206000820151816000019080519060200190612e80929190613833565b506020820151816001019080519060200190612e9d929190613833565b506040820151816002019080519060200190612eba929190613833565b50606082015181600301556080820151816004015560a0820151816005015560c0820151816006019080519060200190612ef5929190613833565b5060e0820151816007019080519060200190612f12929190613833565b50610100820151816008019080519060200190612f30929190613833565b50610120820151816009019080519060200190612f4e929190613833565b5061014082015181600a019080519060200190612f6c929190613833565b5061016082015181600b019080519060200190612f8a929190613833565b50905050600160676000828254612fa19190614b4c565b925050819055507f1b21032942411443543e7923f2da271066ad99511aa6ffcda3bb43030b9157d482604051612fd79190614187565b60405180910390a1505050505050565b6060606b60003373ffffffffffffffffffffffffffffffffffffffff1673ffffffffffffffffffffffffffffffffffffffff16815260200190815260200160002080546130339061447d565b80601f016020809104026020016040519081016040528092919081815260200182805461305f9061447d565b80156130ac5780601f10613081576101008083540402835291602001916130ac565b820191906000526020600020905b81548152906001019060200180831161308f57829003601f168201915b5050505050905090565b60606000600167ffffffffffffffff8111156130d5576130d4613905565b5b6040519080825280601f01601f1916602001820160405280156131075781602001600182028036833780820191505090505b5090508260008151811061311e5761311d614662565b5b602001015160f81c60f81b8160008151811061313d5761313c614662565b5b60200101907effffffffffffffffffffffffffffffffffffffffffffffffffffffffffffff1916908160001a90535080915050919050565b606060008290506000815167ffffffffffffffff81111561319957613198613905565b5b6040519080825280601f01601f1916602001820160405280156131cb5781602001600182028036833780820191505090505b50905060005b82518110156132ed578281815181106131ed576131ec614662565b5b602001015160f81c60f81b82828151811061320b5761320a614662565b5b60200101907effffffffffffffffffffffffffffffffffffffffffffffffffffffffffffff1916908160001a90535060008114156132da576040518060400160405280600181526020017f530000000000000000000000000000000000000000000000000000000000000081525060008151811061328c5761328b614662565b5b602001015160f81c60f81b8282815181106132aa576132a9614662565b5b60200101907effffffffffffffffffffffffffffffffffffffffffffffffffffffffffffff1916908160001a9053505b80806132e5906149b6565b9150506131d1565b508092505050919050565b60606000600161330784613590565b01905060008167ffffffffffffffff81111561332657613325613905565b5b6040519080825280601f01601f1916602001820160405280156133585781602001600182028036833780820191505090505b509050600082602001820190505b6001156133c5578080600190039150507f3031323334353637383961626364656600000000000000000000000000000000600a86061a8153600a85816133af576133ae614fe9565b5b04945060008514156133c0576133c5565b613366565b819350505050919050565b6133d86136e3565b73ffffffffffffffffffffffffffffffffffffffff166133f6611f63565b73ffffffffffffffffffffffffffffffffffffffff161461344c576040517f08c379a000000000000000000000000000000000000000000000000000000000815260040161344390615064565b60405180910390fd5b565b6000603360009054906101000a900473ffffffffffffffffffffffffffffffffffffffff16905081603360006101000a81548173ffffffffffffffffffffffffffffffffffffffff021916908373ffffffffffffffffffffffffffffffffffffffff1602179055508173ffffffffffffffffffffffffffffffffffffffff168173ffffffffffffffffffffffffffffffffffffffff167f8be0079c531659141344cd1fd0a4f28419497f9722a3daafe3b4186f6b6457e060405160405180910390a35050565b6000808273ffffffffffffffffffffffffffffffffffffffff163b119050919050565b600060019054906101000a900460ff16613586576040517f08c379a000000000000000000000000000000000000000000000000000000000815260040161357d906150f6565b60405180910390fd5b61358e6136eb565b565b600080600090507a184f03e93ff9f4daa797ed6e38ed64bf6a1f01000000000000000083106135ee577a184f03e93ff9f4daa797ed6e38ed64bf6a1f01000000000000000083816135e4576135e3614fe9565b5b0492506040810190505b6d04ee2d6d415b85acef8100000000831061362b576d04ee2d6d415b85acef8100000000838161362157613620614fe9565b5b0492506020810190505b662386f26fc10000831061365a57662386f26fc1000083816136505761364f614fe9565b5b0492506010810190505b6305f5e1008310613683576305f5e100838161367957613678614fe9565b5b0492506008810190505b61271083106136a857612710838161369e5761369d614fe9565b5b0492506004810190505b606483106136cb57606483816136c1576136c0614fe9565b5b0492506002810190505b600a83106136da576001810190505b80915050919050565b600033905090565b600060019054906101000a900460ff1661373a576040517f08c379a0000000000000000000000000000000000000000000000000000000008152600401613731906150f6565b60405180910390fd5b61374a6137456136e3565b61344e565b565b6040518061018001604052806060815260200160608152602001606081526020016000815260200160008152602001600081526020016060815260200160608152602001606081526020016060815260200160608152602001606081525090565b8280546137b99061447d565b90600052602060002090601f0160209004810192826137db5760008555613822565b82601f106137f457803560ff1916838001178555613822565b82800160010185558215613822579182015b82811115613821578235825591602001919060010190613806565b5b50905061382f91906138b9565b5090565b82805461383f9061447d565b90600052602060002090601f01602090048101928261386157600085556138a8565b82601f1061387a57805160ff19168380011785556138a8565b828001600101855582156138a8579182015b828111156138a757825182559160200191906001019061388c565b5b5090506138b591906138b9565b5090565b5b808211156138d25760008160009055506001016138ba565b5090565b6000604051905090565b600080fd5b600080fd5b600080fd5b600080fd5b6000601f19601f8301169050919050565b7f4e487b7100000000000000000000000000000000000000000000000000000000600052604160045260246000fd5b61393d826138f4565b810181811067ffffffffffffffff8211171561395c5761395b613905565b5b80604052505050565b600061396f6138d6565b905061397b8282613934565b919050565b600067ffffffffffffffff82111561399b5761399a613905565b5b6139a4826138f4565b9050602081019050919050565b82818337600083830152505050565b60006139d36139ce84613980565b613965565b9050828152602081018484840111156139ef576139ee6138ef565b5b6139fa8482856139b1565b509392505050565b600082601f830112613a1757613a166138ea565b5b8135613a278482602086016139c0565b91505092915050565b600060208284031215613a4657613a456138e0565b5b600082013567ffffffffffffffff811115613a6457613a636138e5565b5b613a7084828501613a02565b91505092915050565b600081519050919050565b600082825260208201905092915050565b60005b83811015613ab3578082015181840152602081019050613a98565b83811115613ac2576000848401525b50505050565b6000613ad382613a79565b613add8185613a84565b9350613aed818560208601613a95565b613af6816138f4565b840191505092915050565b6000819050919050565b613b1481613b01565b82525050565b6000610180830160008301518482036000860152613b388282613ac8565b91505060208301518482036020860152613b528282613ac8565b91505060408301518482036040860152613b6c8282613ac8565b9150506060830151613b816060860182613b0b565b506080830151613b946080860182613b0b565b5060a0830151613ba760a0860182613b0b565b5060c083015184820360c0860152613bbf8282613ac8565b91505060e083015184820360e0860152613bd98282613ac8565b915050610100830151848203610100860152613bf58282613ac8565b915050610120830151848203610120860152613c118282613ac8565b915050610140830151848203610140860152613c2d8282613ac8565b915050610160830151848203610160860152613c498282613ac8565b9150508091505092915050565b60006020820190508181036000830152613c708184613b1a565b905092915050565b600080fd5b600080fd5b60008083601f840112613c9857613c976138ea565b5b8235905067ffffffffffffffff811115613cb557613cb4613c78565b5b602083019150836001820283011115613cd157613cd0613c7d565b5b9250929050565b60008083601f840112613cee57613ced6138ea565b5b8235905067ffffffffffffffff811115613d0b57613d0a613c78565b5b602083019150836020820283011115613d2757613d26613c7d565b5b9250929050565b60008060008060008060608789031215613d4b57613d4a6138e0565b5b600087013567ffffffffffffffff811115613d6957613d686138e5565b5b613d7589828a01613c82565b9650965050602087013567ffffffffffffffff811115613d9857613d976138e5565b5b613da489828a01613cd8565b9450945050604087013567ffffffffffffffff811115613dc757613dc66138e5565b5b613dd389828a01613cd8565b92509250509295509295509295565b600081519050919050565b600082825260208201905092915050565b6000819050602082019050919050565b6000610180830160008301518482036000860152613e2c8282613ac8565b91505060208301518482036020860152613e468282613ac8565b91505060408301518482036040860152613e608282613ac8565b9150506060830151613e756060860182613b0b565b506080830151613e886080860182613b0b565b5060a0830151613e9b60a0860182613b0b565b5060c083015184820360c0860152613eb38282613ac8565b91505060e083015184820360e0860152613ecd8282613ac8565b915050610100830151848203610100860152613ee98282613ac8565b915050610120830151848203610120860152613f058282613ac8565b915050610140830151848203610140860152613f218282613ac8565b915050610160830151848203610160860152613f3d8282613ac8565b9150508091505092915050565b6000613f568383613e0e565b905092915050565b6000602082019050919050565b6000613f7682613de2565b613f808185613ded565b935083602082028501613f9285613dfe565b8060005b85811015613fce5784840389528151613faf8582613f4a565b9450613fba83613f5e565b925060208a01995050600181019050613f96565b50829750879550505050505092915050565b60006020820190508181036000830152613ffa8184613f6b565b905092915050565b61400b81613b01565b82525050565b60006020820190506140266000830184614002565b92915050565b600073ffffffffffffffffffffffffffffffffffffffff82169050919050565b60006140578261402c565b9050919050565b6140678161404c565b811461407257600080fd5b50565b6000813590506140848161405e565b92915050565b600080604083850312156140a1576140a06138e0565b5b60006140af85828601614075565b925050602083013567ffffffffffffffff8111156140d0576140cf6138e5565b5b6140dc85828601613a02565b9150509250929050565b6140ef8161404c565b82525050565b600060208201905061410a60008301846140e6565b92915050565b600060208284031215614126576141256138e0565b5b600061413484828501614075565b91505092915050565b600082825260208201905092915050565b600061415982613a79565b614163818561413d565b9350614173818560208601613a95565b61417c816138f4565b840191505092915050565b600060208201905081810360008301526141a1818461414e565b905092915050565b6141b281613b01565b81146141bd57600080fd5b50565b6000813590506141cf816141a9565b92915050565b6000602082840312156141eb576141ea6138e0565b5b60006141f9848285016141c0565b91505092915050565b600061018082019050818103600083015261421d818f61414e565b90508181036020830152614231818e61414e565b90508181036040830152614245818d61414e565b9050614254606083018c614002565b614261608083018b614002565b61426e60a083018a614002565b81810360c0830152614280818961414e565b905081810360e0830152614294818861414e565b90508181036101008301526142a9818761414e565b90508181036101208301526142be818661414e565b90508181036101408301526142d3818561414e565b90508181036101608301526142e8818461414e565b90509d9c50505050505050505050505050565b60008060008060808587031215614315576143146138e0565b5b600085013567ffffffffffffffff811115614333576143326138e5565b5b61433f87828801613a02565b9450506020614350878288016141c0565b9350506040614361878288016141c0565b925050606085013567ffffffffffffffff811115614382576143816138e5565b5b61438e87828801613a02565b91505092959194509250565b600081905092915050565b7f5300000000000000000000000000000000000000000000000000000000000000600082015250565b60006143db60018361439a565b91506143e6826143a5565b600182019050919050565b60006143fc826143ce565b9150819050919050565b600061441182613a79565b61441b818561439a565b935061442b818560208601613a95565b80840191505092915050565b60006144438284614406565b915081905092915050565b7f4e487b7100000000000000000000000000000000000000000000000000000000600052602260045260246000fd5b6000600282049050600182168061449557607f821691505b602082108114156144a9576144a861444e565b5b50919050565b50565b60006144bf60008361439a565b91506144ca826144af565b600082019050919050565b60006144e0826144b2565b9150819050919050565b60008190508160005260206000209050919050565b6000815461450c8161447d565b614516818661439a565b94506001821660008114614531576001811461454257614575565b60ff19831686528186019350614575565b61454b856144ea565b60005b8381101561456d5781548189015260018201915060208101905061454e565b838801955050505b50505092915050565b600061458a82846144ff565b915081905092915050565b7f596f7520617265206e6f742070617274206f66207465616d2079657420212100600082015250565b60006145cb601f8361413d565b91506145d682614595565b602082019050919050565b600060208201905081810360008301526145fa816145be565b9050919050565b7f5374617475730000000000000000000000000000000000000000000000000000600082015250565b600061463760068361439a565b915061464282614601565b600682019050919050565b60006146588261462a565b9150819050919050565b7f4e487b7100000000000000000000000000000000000000000000000000000000600052603260045260246000fd5b600080fd5b600080fd5b600080fd5b600080833560016020038436030381126146bd576146bc614691565b5b80840192508235915067ffffffffffffffff8211156146df576146de614696565b5b6020830192506001820236038313156146fb576146fa61469b565b5b509250929050565b600061470f838561439a565b935061471c8385846139b1565b82840190509392505050565b6000614735828486614703565b91508190509392505050565b7f437573746f6d65722046696e616c2044656c6976657279204461746500000000600082015250565b6000614777601c8361439a565b915061478282614741565b601c82019050919050565b60006147988261476a565b9150819050919050565b7f426172436f646500000000000000000000000000000000000000000000000000600082015250565b60006147d860078361439a565b91506147e3826147a2565b600782019050919050565b60006147f9826147cb565b9150819050919050565b7f42617463684e6f00000000000000000000000000000000000000000000000000600082015250565b600061483960078361439a565b915061484482614803565b600782019050919050565b600061485a8261482c565b9150819050919050565b7f4d6173746572204c6162656c0000000000000000000000000000000000000000600082015250565b600061489a600c8361439a565b91506148a582614864565b600c82019050919050565b60006148bb8261488d565b9150819050919050565b7f496e766f69636520506174680000000000000000000000000000000000000000600082015250565b60006148fb600c8361439a565b9150614906826148c5565b600c82019050919050565b600061491c826148ee565b9150819050919050565b7f547261636b696e67204e6f000000000000000000000000000000000000000000600082015250565b600061495c600b8361439a565b915061496782614926565b600b82019050919050565b600061497d8261494f565b9150819050919050565b7f4e487b7100000000000000000000000000000000000000000000000000000000600052601160045260246000fd5b60006149c182613b01565b91507fffffffffffffffffffffffffffffffffffffffffffffffffffffffffffffffff8214156149f4576149f3614987565b5b600182019050919050565b7f53616c657320526570726573656e746174697665000000000000000000000000600082015250565b6000614a3560148361439a565b9150614a40826149ff565b601482019050919050565b6000614a5682614a28565b9150819050919050565b7f596f7520617265206e6f7420612053616c657320526570202121000000000000600082015250565b6000614a96601a8361413d565b9150614aa182614a60565b602082019050919050565b60006020820190508181036000830152614ac581614a89565b9050919050565b6000614ad782613b01565b9150614ae283613b01565b925082821015614af557614af4614987565b5b828203905092915050565b7f534f000000000000000000000000000000000000000000000000000000000000815250565b6000614b3182614b00565b600282019150614b418284614406565b915081905092915050565b6000614b5782613b01565b9150614b6283613b01565b9250827fffffffffffffffffffffffffffffffffffffffffffffffffffffffffffffffff03821115614b9757614b96614987565b5b828201905092915050565b60008160011c9050919050565b6000808291508390505b6001851115614bf957808604811115614bd557614bd4614987565b5b6001851615614be45780820291505b8081029050614bf285614ba2565b9450614bb9565b94509492505050565b600082614c125760019050614cce565b81614c205760009050614cce565b8160018114614c365760028114614c4057614c6f565b6001915050614cce565b60ff841115614c5257614c51614987565b5b8360020a915084821115614c6957614c68614987565b5b50614cce565b5060208310610133831016604e8410600b8410161715614ca45782820a905083811115614c9f57614c9e614987565b5b614cce565b614cb18484846001614baf565b92509050818404811115614cc857614cc7614987565b5b81810290505b9392505050565b6000614ce082613b01565b9150614ceb83613b01565b9250614d187fffffffffffffffffffffffffffffffffffffffffffffffffffffffffffffffff8484614c02565b905092915050565b6000614d2b82613b01565b9150614d3683613b01565b9250817fffffffffffffffffffffffffffffffffffffffffffffffffffffffffffffffff0483118215151615614d6f57614d6e614987565b5b828202905092915050565b7f4e756c6c206163636f756e7420697320636f6d696e672066726f6d2066726f6e60008201527f742d656e64202121000000000000000000000000000000000000000000000000602082015250565b6000614dd660288361413d565b9150614de182614d7a565b604082019050919050565b60006020820190508181036000830152614e0581614dc9565b9050919050565b7f496e697469616c697a61626c653a20636f6e747261637420697320616c72656160008201527f647920696e697469616c697a6564000000000000000000000000000000000000602082015250565b6000614e68602e8361413d565b9150614e7382614e0c565b604082019050919050565b60006020820190508181036000830152614e9781614e5b565b9050919050565b6000819050919050565b600060ff82169050919050565b6000819050919050565b6000614eda614ed5614ed084614e9e565b614eb5565b614ea8565b9050919050565b614eea81614ebf565b82525050565b6000602082019050614f056000830184614ee1565b92915050565b7f4f776e61626c653a206e6577206f776e657220697320746865207a65726f206160008201527f6464726573730000000000000000000000000000000000000000000000000000602082015250565b6000614f6760268361413d565b9150614f7282614f0b565b604082019050919050565b60006020820190508181036000830152614f9681614f5a565b9050919050565b7f504f000000000000000000000000000000000000000000000000000000000000815250565b6000614fce82614f9d565b600282019150614fde8284614406565b915081905092915050565b7f4e487b7100000000000000000000000000000000000000000000000000000000600052601260045260246000fd5b7f4f776e61626c653a2063616c6c6572206973206e6f7420746865206f776e6572600082015250565b600061504e60208361413d565b915061505982615018565b602082019050919050565b6000602082019050818103600083015261507d81615041565b9050919050565b7f496e697469616c697a61626c653a20636f6e7472616374206973206e6f74206960008201527f6e697469616c697a696e67000000000000000000000000000000000000000000602082015250565b60006150e0602b8361413d565b91506150eb82615084565b604082019050919050565b6000602082019050818103600083015261510f816150d3565b905091905056fea264697066735822122094fbd4d48471096bacf29ef7c93c989ed76c92aaf7b00a874201e1a64c431cdc64736f6c634300080c0033",
  "linkReferences": {},
  "deployedLinkReferences": {}
}