{
  "_format": "hh-sol-artifact-1",
  "contractName": "SupplyChain",
  "sourceName": "contracts/SupplyChain.sol",
  "abi": [
    {
      "inputs": [
        {
          "internalType": "uint256",
          "name": "gatekeeperNetwork",
          "type": "uint256"
        }
      ],
      "stateMutability": "nonpayable",
      "type": "constructor"
    },
    {
      "inputs": [
        {
          "internalType": "address",
          "name": "gatewayToken",
          "type": "address"
        }
      ],
      "name": "IsGated__InvalidGatewayToken",
      "type": "error"
    },
    {
      "anonymous": false,
      "inputs": [
        {
          "indexed": false,
          "internalType": "string",
          "name": "_soId",
          "type": "string"
        }
      ],
      "name": "GetSoID",
      "type": "event"
    },
    {
      "anonymous": false,
      "inputs": [
        {
          "indexed": true,
          "internalType": "address",
          "name": "previousOwner",
          "type": "address"
        },
        {
          "indexed": true,
          "internalType": "address",
          "name": "newOwner",
          "type": "address"
        }
      ],
      "name": "OwnershipTransferred",
      "type": "event"
    },
    {
      "inputs": [
        {
          "internalType": "address",
          "name": "_account",
          "type": "address"
        },
        {
          "internalType": "string",
          "name": "role",
          "type": "string"
        }
      ],
      "name": "addRole",
      "outputs": [],
      "stateMutability": "nonpayable",
      "type": "function"
    },
    {
      "inputs": [
        {
          "internalType": "string",
          "name": "_prodName",
          "type": "string"
        },
        {
          "internalType": "uint256",
          "name": "_qty",
          "type": "uint256"
        },
        {
          "internalType": "uint256",
          "name": "_ordrVal",
          "type": "uint256"
        },
        {
          "internalType": "string",
          "name": "_status",
          "type": "string"
        }
      ],
      "name": "createOrder",
      "outputs": [],
      "stateMutability": "nonpayable",
      "type": "function"
    },
    {
      "inputs": [],
      "name": "getAllOrderDetails",
      "outputs": [
        {
          "components": [
            {
              "internalType": "string",
              "name": "SoID",
              "type": "string"
            },
            {
              "internalType": "string",
              "name": "PoID",
              "type": "string"
            },
            {
              "internalType": "string",
              "name": "prodName",
              "type": "string"
            },
            {
              "internalType": "uint256",
              "name": "qty",
              "type": "uint256"
            },
            {
              "internalType": "uint256",
              "name": "orderValue",
              "type": "uint256"
            },
            {
              "internalType": "uint256",
              "name": "customerFinalDeliveryDate",
              "type": "uint256"
            },
            {
              "internalType": "string",
              "name": "status",
              "type": "string"
            },
            {
              "internalType": "string",
              "name": "barCode",
              "type": "string"
            },
            {
              "internalType": "string",
              "name": "batchNo",
              "type": "string"
            },
            {
              "internalType": "string",
              "name": "masterLabel",
              "type": "string"
            },
            {
              "internalType": "string",
              "name": "invoicePath",
              "type": "string"
            },
            {
              "internalType": "string",
              "name": "trackingNo",
              "type": "string"
            }
          ],
          "internalType": "struct SupplyChain.Order[]",
          "name": "",
          "type": "tuple[]"
        }
      ],
      "stateMutability": "view",
      "type": "function"
    },
    {
      "inputs": [
        {
          "internalType": "string",
          "name": "_soOrPo",
          "type": "string"
        }
      ],
      "name": "getOrderDetails",
      "outputs": [
        {
          "components": [
            {
              "internalType": "string",
              "name": "SoID",
              "type": "string"
            },
            {
              "internalType": "string",
              "name": "PoID",
              "type": "string"
            },
            {
              "internalType": "string",
              "name": "prodName",
              "type": "string"
            },
            {
              "internalType": "uint256",
              "name": "qty",
              "type": "uint256"
            },
            {
              "internalType": "uint256",
              "name": "orderValue",
              "type": "uint256"
            },
            {
              "internalType": "uint256",
              "name": "customerFinalDeliveryDate",
              "type": "uint256"
            },
            {
              "internalType": "string",
              "name": "status",
              "type": "string"
            },
            {
              "internalType": "string",
              "name": "barCode",
              "type": "string"
            },
            {
              "internalType": "string",
              "name": "batchNo",
              "type": "string"
            },
            {
              "internalType": "string",
              "name": "masterLabel",
              "type": "string"
            },
            {
              "internalType": "string",
              "name": "invoicePath",
              "type": "string"
            },
            {
              "internalType": "string",
              "name": "trackingNo",
              "type": "string"
            }
          ],
          "internalType": "struct SupplyChain.Order",
          "name": "",
          "type": "tuple"
        }
      ],
      "stateMutability": "view",
      "type": "function"
    },
    {
      "inputs": [],
      "name": "getRole",
      "outputs": [
        {
          "internalType": "string",
          "name": "",
          "type": "string"
        }
      ],
      "stateMutability": "view",
      "type": "function"
    },
    {
      "inputs": [
        {
          "internalType": "string",
          "name": "",
          "type": "string"
        }
      ],
      "name": "orderData",
      "outputs": [
        {
          "internalType": "string",
          "name": "SoID",
          "type": "string"
        },
        {
          "internalType": "string",
          "name": "PoID",
          "type": "string"
        },
        {
          "internalType": "string",
          "name": "prodName",
          "type": "string"
        },
        {
          "internalType": "uint256",
          "name": "qty",
          "type": "uint256"
        },
        {
          "internalType": "uint256",
          "name": "orderValue",
          "type": "uint256"
        },
        {
          "internalType": "uint256",
          "name": "customerFinalDeliveryDate",
          "type": "uint256"
        },
        {
          "internalType": "string",
          "name": "status",
          "type": "string"
        },
        {
          "internalType": "string",
          "name": "barCode",
          "type": "string"
        },
        {
          "internalType": "string",
          "name": "batchNo",
          "type": "string"
        },
        {
          "internalType": "string",
          "name": "masterLabel",
          "type": "string"
        },
        {
          "internalType": "string",
          "name": "invoicePath",
          "type": "string"
        },
        {
          "internalType": "string",
          "name": "trackingNo",
          "type": "string"
        }
      ],
      "stateMutability": "view",
      "type": "function"
    },
    {
      "inputs": [
        {
          "internalType": "uint256",
          "name": "",
          "type": "uint256"
        }
      ],
      "name": "orders",
      "outputs": [
        {
          "internalType": "string",
          "name": "SoID",
          "type": "string"
        },
        {
          "internalType": "string",
          "name": "PoID",
          "type": "string"
        },
        {
          "internalType": "string",
          "name": "prodName",
          "type": "string"
        },
        {
          "internalType": "uint256",
          "name": "qty",
          "type": "uint256"
        },
        {
          "internalType": "uint256",
          "name": "orderValue",
          "type": "uint256"
        },
        {
          "internalType": "uint256",
          "name": "customerFinalDeliveryDate",
          "type": "uint256"
        },
        {
          "internalType": "string",
          "name": "status",
          "type": "string"
        },
        {
          "internalType": "string",
          "name": "barCode",
          "type": "string"
        },
        {
          "internalType": "string",
          "name": "batchNo",
          "type": "string"
        },
        {
          "internalType": "string",
          "name": "masterLabel",
          "type": "string"
        },
        {
          "internalType": "string",
          "name": "invoicePath",
          "type": "string"
        },
        {
          "internalType": "string",
          "name": "trackingNo",
          "type": "string"
        }
      ],
      "stateMutability": "view",
      "type": "function"
    },
    {
      "inputs": [],
      "name": "owner",
      "outputs": [
        {
          "internalType": "address",
          "name": "",
          "type": "address"
        }
      ],
      "stateMutability": "view",
      "type": "function"
    },
    {
      "inputs": [],
      "name": "renounceOwnership",
      "outputs": [],
      "stateMutability": "nonpayable",
      "type": "function"
    },
    {
      "inputs": [
        {
          "internalType": "address",
          "name": "",
          "type": "address"
        }
      ],
      "name": "roles",
      "outputs": [
        {
          "internalType": "string",
          "name": "",
          "type": "string"
        }
      ],
      "stateMutability": "view",
      "type": "function"
    },
    {
      "inputs": [
        {
          "internalType": "string",
          "name": "numString",
          "type": "string"
        }
      ],
      "name": "st2num",
      "outputs": [
        {
          "internalType": "uint256",
          "name": "",
          "type": "uint256"
        }
      ],
      "stateMutability": "pure",
      "type": "function"
    },
    {
      "inputs": [
        {
          "internalType": "address",
          "name": "newOwner",
          "type": "address"
        }
      ],
      "name": "transferOwnership",
      "outputs": [],
      "stateMutability": "nonpayable",
      "type": "function"
    },
    {
      "inputs": [
        {
          "internalType": "string",
          "name": "_so",
          "type": "string"
        },
        {
          "internalType": "string[]",
          "name": "colName",
          "type": "string[]"
        },
        {
          "internalType": "string[]",
          "name": "_value",
          "type": "string[]"
        }
      ],
      "name": "update",
      "outputs": [],
      "stateMutability": "nonpayable",
      "type": "function"
    }
  ],
  "bytecode": "0x60806040523480156200001157600080fd5b5060405162004e8338038062004e838339818101604052810190620000379190620001dc565b73f65b6396df6b7e2d8a6270e3ab6c7bb08baef22e816200006d62000061620000d060201b60201c565b620000d860201b60201c565b81600160006101000a81548173ffffffffffffffffffffffffffffffffffffffff021916908373ffffffffffffffffffffffffffffffffffffffff160217905550806002819055505050614094600381905550614094600481905550506200020e565b600033905090565b60008060009054906101000a900473ffffffffffffffffffffffffffffffffffffffff169050816000806101000a81548173ffffffffffffffffffffffffffffffffffffffff021916908373ffffffffffffffffffffffffffffffffffffffff1602179055508173ffffffffffffffffffffffffffffffffffffffff168173ffffffffffffffffffffffffffffffffffffffff167f8be0079c531659141344cd1fd0a4f28419497f9722a3daafe3b4186f6b6457e060405160405180910390a35050565b600080fd5b6000819050919050565b620001b681620001a1565b8114620001c257600080fd5b50565b600081519050620001d681620001ab565b92915050565b600060208284031215620001f557620001f46200019c565b5b60006200020584828501620001c5565b91505092915050565b614c65806200021e6000396000f3fe608060405234801561001057600080fd5b50600436106100cf5760003560e01c80638da5cb5b1161008c578063e393f26311610066578063e393f2631461021d578063f2fde38b14610258578063fb0a9a6d14610274578063fde0817414610290576100cf565b80638da5cb5b1461019457806399374642146101b2578063a85c38ef146101e2576100cf565b80634fbb487c146100d45780635a553855146101045780636bc184b414610120578063715018a61461013e57806379cd9055146101485780637d72aa6514610178575b600080fd5b6100ee60048036038101906100e991906136da565b6102ae565b6040516100fb9190613900565b60405180910390f35b61011e600480360381019061011991906139d8565b610dfb565b005b6101286114f1565b6040516101359190613c8a565b60405180910390f35b610146611b53565b005b610162600480360381019061015d91906136da565b611b67565b60405161016f9190613cbb565b60405180910390f35b610192600480360381019061018d9190613d34565b611c21565b005b61019c611cf3565b6040516101a99190613d9f565b60405180910390f35b6101cc60048036038101906101c79190613dba565b611d1c565b6040516101d99190613e31565b60405180910390f35b6101fc60048036038101906101f79190613e7f565b611dbc565b6040516102149c9b9a99989796959493929190613eac565b60405180910390f35b610237600480360381019061023291906136da565b6122f4565b60405161024f9c9b9a99989796959493929190613eac565b60405180910390f35b610272600480360381019061026d9190613dba565b612832565b005b61028e60048036038101906102899190613fa5565b6128b6565b005b610298612d70565b6040516102a59190613e31565b60405180910390f35b6102b66133f6565b6040516020016102c59061409b565b604051602081830303815290604052805190602001206102e483612e3f565b6040516020016102f491906140e1565b6040516020818303038152906040528051906020012014156108815760058260405161032091906140e1565b90815260200160405180910390206040518061018001604052908160008201805461034a90614127565b80601f016020809104026020016040519081016040528092919081815260200182805461037690614127565b80156103c35780601f10610398576101008083540402835291602001916103c3565b820191906000526020600020905b8154815290600101906020018083116103a657829003601f168201915b505050505081526020016001820180546103dc90614127565b80601f016020809104026020016040519081016040528092919081815260200182805461040890614127565b80156104555780601f1061042a57610100808354040283529160200191610455565b820191906000526020600020905b81548152906001019060200180831161043857829003601f168201915b5050505050815260200160028201805461046e90614127565b80601f016020809104026020016040519081016040528092919081815260200182805461049a90614127565b80156104e75780601f106104bc576101008083540402835291602001916104e7565b820191906000526020600020905b8154815290600101906020018083116104ca57829003601f168201915b5050505050815260200160038201548152602001600482015481526020016005820154815260200160068201805461051e90614127565b80601f016020809104026020016040519081016040528092919081815260200182805461054a90614127565b80156105975780601f1061056c57610100808354040283529160200191610597565b820191906000526020600020905b81548152906001019060200180831161057a57829003601f168201915b505050505081526020016007820180546105b090614127565b80601f01602080910402602001604051908101604052809291908181526020018280546105dc90614127565b80156106295780601f106105fe57610100808354040283529160200191610629565b820191906000526020600020905b81548152906001019060200180831161060c57829003601f168201915b5050505050815260200160088201805461064290614127565b80601f016020809104026020016040519081016040528092919081815260200182805461066e90614127565b80156106bb5780601f10610690576101008083540402835291602001916106bb565b820191906000526020600020905b81548152906001019060200180831161069e57829003601f168201915b505050505081526020016009820180546106d490614127565b80601f016020809104026020016040519081016040528092919081815260200182805461070090614127565b801561074d5780601f106107225761010080835404028352916020019161074d565b820191906000526020600020905b81548152906001019060200180831161073057829003601f168201915b50505050508152602001600a8201805461076690614127565b80601f016020809104026020016040519081016040528092919081815260200182805461079290614127565b80156107df5780601f106107b4576101008083540402835291602001916107df565b820191906000526020600020905b8154815290600101906020018083116107c257829003601f168201915b50505050508152602001600b820180546107f890614127565b80601f016020809104026020016040519081016040528092919081815260200182805461082490614127565b80156108715780601f1061084657610100808354040283529160200191610871565b820191906000526020600020905b81548152906001019060200180831161085457829003601f168201915b5050505050815250509050610df6565b600561088c83612efe565b60405161089991906140e1565b9081526020016040518091039020604051806101800160405290816000820180546108c390614127565b80601f01602080910402602001604051908101604052809291908181526020018280546108ef90614127565b801561093c5780601f106109115761010080835404028352916020019161093c565b820191906000526020600020905b81548152906001019060200180831161091f57829003601f168201915b5050505050815260200160018201805461095590614127565b80601f016020809104026020016040519081016040528092919081815260200182805461098190614127565b80156109ce5780601f106109a3576101008083540402835291602001916109ce565b820191906000526020600020905b8154815290600101906020018083116109b157829003601f168201915b505050505081526020016002820180546109e790614127565b80601f0160208091040260200160405190810160405280929190818152602001828054610a1390614127565b8015610a605780601f10610a3557610100808354040283529160200191610a60565b820191906000526020600020905b815481529060010190602001808311610a4357829003601f168201915b50505050508152602001600382015481526020016004820154815260200160058201548152602001600682018054610a9790614127565b80601f0160208091040260200160405190810160405280929190818152602001828054610ac390614127565b8015610b105780601f10610ae557610100808354040283529160200191610b10565b820191906000526020600020905b815481529060010190602001808311610af357829003601f168201915b50505050508152602001600782018054610b2990614127565b80601f0160208091040260200160405190810160405280929190818152602001828054610b5590614127565b8015610ba25780601f10610b7757610100808354040283529160200191610ba2565b820191906000526020600020905b815481529060010190602001808311610b8557829003601f168201915b50505050508152602001600882018054610bbb90614127565b80601f0160208091040260200160405190810160405280929190818152602001828054610be790614127565b8015610c345780601f10610c0957610100808354040283529160200191610c34565b820191906000526020600020905b815481529060010190602001808311610c1757829003601f168201915b50505050508152602001600982018054610c4d90614127565b80601f0160208091040260200160405190810160405280929190818152602001828054610c7990614127565b8015610cc65780601f10610c9b57610100808354040283529160200191610cc6565b820191906000526020600020905b815481529060010190602001808311610ca957829003601f168201915b50505050508152602001600a82018054610cdf90614127565b80601f0160208091040260200160405190810160405280929190818152602001828054610d0b90614127565b8015610d585780601f10610d2d57610100808354040283529160200191610d58565b820191906000526020600020905b815481529060010190602001808311610d3b57829003601f168201915b50505050508152602001600b82018054610d7190614127565b80601f0160208091040260200160405190810160405280929190818152602001828054610d9d90614127565b8015610dea5780601f10610dbf57610100808354040283529160200191610dea565b820191906000526020600020905b815481529060010190602001808311610dcd57829003601f168201915b50505050508152505090505b919050565b604051602001610e0a9061417f565b60405160208183030381529060405280519060200120600760003373ffffffffffffffffffffffffffffffffffffffff1673ffffffffffffffffffffffffffffffffffffffff168152602001908152602001600020604051602001610e6f9190614228565b604051602081830303815290604052805190602001201415610ec6576040517f08c379a0000000000000000000000000000000000000000000000000000000008152600401610ebd9061428b565b60405180910390fd5b60005b848490508110156114e857604051602001610ee3906142f7565b60405160208183030381529060405280519060200120858583818110610f0c57610f0b61430c565b5b9050602002810190610f1e919061434a565b604051602001610f2f9291906143d2565b604051602081830303815290604052805190602001201415610fa657828282818110610f5e57610f5d61430c565b5b9050602002810190610f70919061434a565b60058989604051610f829291906143d2565b90815260200160405180910390206006019190610fa0929190613457565b506114d5565b604051602001610fb590614437565b60405160208183030381529060405280519060200120858583818110610fde57610fdd61430c565b5b9050602002810190610ff0919061434a565b6040516020016110019291906143d2565b6040516020818303038152906040528051906020012014156110b95761108d8383838181106110335761103261430c565b5b9050602002810190611045919061434a565b8080601f016020809104026020016040519081016040528093929190818152602001838380828437600081840152601f19601f82011690508083019250505050505050611b67565b6005888860405161109f9291906143d2565b9081526020016040518091039020600501819055506114d4565b6040516020016110c890614498565b604051602081830303815290604052805190602001208585838181106110f1576110f061430c565b5b9050602002810190611103919061434a565b6040516020016111149291906143d2565b60405160208183030381529060405280519060200120141561118b578282828181106111435761114261430c565b5b9050602002810190611155919061434a565b600589896040516111679291906143d2565b90815260200160405180910390206007019190611185929190613457565b506114d3565b60405160200161119a906144f9565b604051602081830303815290604052805190602001208585838181106111c3576111c261430c565b5b90506020028101906111d5919061434a565b6040516020016111e69291906143d2565b60405160208183030381529060405280519060200120141561125d578282828181106112155761121461430c565b5b9050602002810190611227919061434a565b600589896040516112399291906143d2565b90815260200160405180910390206008019190611257929190613457565b506114d2565b60405160200161126c9061455a565b604051602081830303815290604052805190602001208585838181106112955761129461430c565b5b90506020028101906112a7919061434a565b6040516020016112b89291906143d2565b60405160208183030381529060405280519060200120141561132f578282828181106112e7576112e661430c565b5b90506020028101906112f9919061434a565b6005898960405161130b9291906143d2565b90815260200160405180910390206009019190611329929190613457565b506114d1565b60405160200161133e906145bb565b604051602081830303815290604052805190602001208585838181106113675761136661430c565b5b9050602002810190611379919061434a565b60405160200161138a9291906143d2565b604051602081830303815290604052805190602001201415611401578282828181106113b9576113b861430c565b5b90506020028101906113cb919061434a565b600589896040516113dd9291906143d2565b9081526020016040518091039020600a0191906113fb929190613457565b506114d0565b6040516020016114109061461c565b604051602081830303815290604052805190602001208585838181106114395761143861430c565b5b905060200281019061144b919061434a565b60405160200161145c9291906143d2565b6040516020818303038152906040528051906020012014156114cf5782828281811061148b5761148a61430c565b5b905060200281019061149d919061434a565b600589896040516114af9291906143d2565b9081526020016040518091039020600b0191906114cd929190613457565b505b5b5b5b5b5b5b80806114e090614660565b915050610ec9565b50505050505050565b60606000600354905060008060045460035461150d91906146a9565b67ffffffffffffffff811115611526576115256135af565b5b60405190808252806020026020018201604052801561155f57816020015b61154c6133f6565b8152602001906001900390816115445790505b509050600060045490505b83811015611b49576000600561157f83613081565b60405160200161158f9190614703565b6040516020818303038152906040526040516115ab91906140e1565b9081526020016040518091039020905080604051806101800160405290816000820180546115d890614127565b80601f016020809104026020016040519081016040528092919081815260200182805461160490614127565b80156116515780601f1061162657610100808354040283529160200191611651565b820191906000526020600020905b81548152906001019060200180831161163457829003601f168201915b5050505050815260200160018201805461166a90614127565b80601f016020809104026020016040519081016040528092919081815260200182805461169690614127565b80156116e35780601f106116b8576101008083540402835291602001916116e3565b820191906000526020600020905b8154815290600101906020018083116116c657829003601f168201915b505050505081526020016002820180546116fc90614127565b80601f016020809104026020016040519081016040528092919081815260200182805461172890614127565b80156117755780601f1061174a57610100808354040283529160200191611775565b820191906000526020600020905b81548152906001019060200180831161175857829003601f168201915b505050505081526020016003820154815260200160048201548152602001600582015481526020016006820180546117ac90614127565b80601f01602080910402602001604051908101604052809291908181526020018280546117d890614127565b80156118255780601f106117fa57610100808354040283529160200191611825565b820191906000526020600020905b81548152906001019060200180831161180857829003601f168201915b5050505050815260200160078201805461183e90614127565b80601f016020809104026020016040519081016040528092919081815260200182805461186a90614127565b80156118b75780601f1061188c576101008083540402835291602001916118b7565b820191906000526020600020905b81548152906001019060200180831161189a57829003601f168201915b505050505081526020016008820180546118d090614127565b80601f01602080910402602001604051908101604052809291908181526020018280546118fc90614127565b80156119495780601f1061191e57610100808354040283529160200191611949565b820191906000526020600020905b81548152906001019060200180831161192c57829003601f168201915b5050505050815260200160098201805461196290614127565b80601f016020809104026020016040519081016040528092919081815260200182805461198e90614127565b80156119db5780601f106119b0576101008083540402835291602001916119db565b820191906000526020600020905b8154815290600101906020018083116119be57829003601f168201915b50505050508152602001600a820180546119f490614127565b80601f0160208091040260200160405190810160405280929190818152602001828054611a2090614127565b8015611a6d5780601f10611a4257610100808354040283529160200191611a6d565b820191906000526020600020905b815481529060010190602001808311611a5057829003601f168201915b50505050508152602001600b82018054611a8690614127565b80601f0160208091040260200160405190810160405280929190818152602001828054611ab290614127565b8015611aff5780601f10611ad457610100808354040283529160200191611aff565b820191906000526020600020905b815481529060010190602001808311611ae257829003601f168201915b505050505081525050838581518110611b1b57611b1a61430c565b5b6020026020010181905250600184611b339190614729565b9350508080611b4190614660565b91505061156a565b5080935050505090565b611b5b613159565b611b6560006131d7565b565b60008060009050600083905060005b8151811015611c16576000818351611b8e91906146a9565b90506000838381518110611ba557611ba461430c565b5b602001015160f81c60f81b905060008160f81c9050600060308260ff16611bcc91906146a9565b9050600184611bdb91906146a9565b600a611be791906148b2565b81611bf291906148fd565b87611bfd9190614729565b9650505050508080611c0e90614660565b915050611b76565b508192505050919050565b611c29613159565b81600073ffffffffffffffffffffffffffffffffffffffff168173ffffffffffffffffffffffffffffffffffffffff161415611c9a576040517f08c379a0000000000000000000000000000000000000000000000000000000008152600401611c91906149c9565b60405180910390fd5b81600760008573ffffffffffffffffffffffffffffffffffffffff1673ffffffffffffffffffffffffffffffffffffffff1681526020019081526020016000209080519060200190611ced9291906134dd565b50505050565b60008060009054906101000a900473ffffffffffffffffffffffffffffffffffffffff16905090565b60076020528060005260406000206000915090508054611d3b90614127565b80601f0160208091040260200160405190810160405280929190818152602001828054611d6790614127565b8015611db45780601f10611d8957610100808354040283529160200191611db4565b820191906000526020600020905b815481529060010190602001808311611d9757829003601f168201915b505050505081565b60068181548110611dcc57600080fd5b90600052602060002090600c0201600091509050806000018054611def90614127565b80601f0160208091040260200160405190810160405280929190818152602001828054611e1b90614127565b8015611e685780601f10611e3d57610100808354040283529160200191611e68565b820191906000526020600020905b815481529060010190602001808311611e4b57829003601f168201915b505050505090806001018054611e7d90614127565b80601f0160208091040260200160405190810160405280929190818152602001828054611ea990614127565b8015611ef65780601f10611ecb57610100808354040283529160200191611ef6565b820191906000526020600020905b815481529060010190602001808311611ed957829003601f168201915b505050505090806002018054611f0b90614127565b80601f0160208091040260200160405190810160405280929190818152602001828054611f3790614127565b8015611f845780601f10611f5957610100808354040283529160200191611f84565b820191906000526020600020905b815481529060010190602001808311611f6757829003601f168201915b505050505090806003015490806004015490806005015490806006018054611fab90614127565b80601f0160208091040260200160405190810160405280929190818152602001828054611fd790614127565b80156120245780601f10611ff957610100808354040283529160200191612024565b820191906000526020600020905b81548152906001019060200180831161200757829003601f168201915b50505050509080600701805461203990614127565b80601f016020809104026020016040519081016040528092919081815260200182805461206590614127565b80156120b25780601f10612087576101008083540402835291602001916120b2565b820191906000526020600020905b81548152906001019060200180831161209557829003601f168201915b5050505050908060080180546120c790614127565b80601f01602080910402602001604051908101604052809291908181526020018280546120f390614127565b80156121405780601f1061211557610100808354040283529160200191612140565b820191906000526020600020905b81548152906001019060200180831161212357829003601f168201915b50505050509080600901805461215590614127565b80601f016020809104026020016040519081016040528092919081815260200182805461218190614127565b80156121ce5780601f106121a3576101008083540402835291602001916121ce565b820191906000526020600020905b8154815290600101906020018083116121b157829003601f168201915b50505050509080600a0180546121e390614127565b80601f016020809104026020016040519081016040528092919081815260200182805461220f90614127565b801561225c5780601f106122315761010080835404028352916020019161225c565b820191906000526020600020905b81548152906001019060200180831161223f57829003601f168201915b50505050509080600b01805461227190614127565b80601f016020809104026020016040519081016040528092919081815260200182805461229d90614127565b80156122ea5780601f106122bf576101008083540402835291602001916122ea565b820191906000526020600020905b8154815290600101906020018083116122cd57829003601f168201915b505050505090508c565b60058180516020810182018051848252602083016020850120818352809550505050505060009150905080600001805461232d90614127565b80601f016020809104026020016040519081016040528092919081815260200182805461235990614127565b80156123a65780601f1061237b576101008083540402835291602001916123a6565b820191906000526020600020905b81548152906001019060200180831161238957829003601f168201915b5050505050908060010180546123bb90614127565b80601f01602080910402602001604051908101604052809291908181526020018280546123e790614127565b80156124345780601f1061240957610100808354040283529160200191612434565b820191906000526020600020905b81548152906001019060200180831161241757829003601f168201915b50505050509080600201805461244990614127565b80601f016020809104026020016040519081016040528092919081815260200182805461247590614127565b80156124c25780601f10612497576101008083540402835291602001916124c2565b820191906000526020600020905b8154815290600101906020018083116124a557829003601f168201915b5050505050908060030154908060040154908060050154908060060180546124e990614127565b80601f016020809104026020016040519081016040528092919081815260200182805461251590614127565b80156125625780601f1061253757610100808354040283529160200191612562565b820191906000526020600020905b81548152906001019060200180831161254557829003601f168201915b50505050509080600701805461257790614127565b80601f01602080910402602001604051908101604052809291908181526020018280546125a390614127565b80156125f05780601f106125c5576101008083540402835291602001916125f0565b820191906000526020600020905b8154815290600101906020018083116125d357829003601f168201915b50505050509080600801805461260590614127565b80601f016020809104026020016040519081016040528092919081815260200182805461263190614127565b801561267e5780601f106126535761010080835404028352916020019161267e565b820191906000526020600020905b81548152906001019060200180831161266157829003601f168201915b50505050509080600901805461269390614127565b80601f01602080910402602001604051908101604052809291908181526020018280546126bf90614127565b801561270c5780601f106126e15761010080835404028352916020019161270c565b820191906000526020600020905b8154815290600101906020018083116126ef57829003601f168201915b50505050509080600a01805461272190614127565b80601f016020809104026020016040519081016040528092919081815260200182805461274d90614127565b801561279a5780601f1061276f5761010080835404028352916020019161279a565b820191906000526020600020905b81548152906001019060200180831161277d57829003601f168201915b50505050509080600b0180546127af90614127565b80601f01602080910402602001604051908101604052809291908181526020018280546127db90614127565b80156128285780601f106127fd57610100808354040283529160200191612828565b820191906000526020600020905b81548152906001019060200180831161280b57829003601f168201915b505050505090508c565b61283a613159565b600073ffffffffffffffffffffffffffffffffffffffff168173ffffffffffffffffffffffffffffffffffffffff1614156128aa576040517f08c379a00000000000000000000000000000000000000000000000000000000081526004016128a190614a5b565b60405180910390fd5b6128b3816131d7565b50565b6040516020016128c590614ac7565b60405160208183030381529060405280519060200120600760003373ffffffffffffffffffffffffffffffffffffffff1673ffffffffffffffffffffffffffffffffffffffff16815260200190815260200160002060405160200161292a9190614228565b6040516020818303038152906040528051906020012014612980576040517f08c379a000000000000000000000000000000000000000000000000000000000815260040161297790614b28565b60405180910390fd5b600061298d600354613081565b60405160200161299d9190614703565b604051602081830303815290604052905060006040518061018001604052808381526020016129cd600354613081565b6040516020016129dd9190614b6e565b60405160208183030381529060405281526020018781526020018681526020018581526020016000815260200184815260200160405180602001604052806000815250815260200160405180602001604052806000815250815260200160405180602001604052806000815250815260200160405180602001604052806000815250815260200160405180602001604052806000815250815250905060068190806001815401808255809150506001900390600052602060002090600c02016000909190919091506000820151816000019080519060200190612ac19291906134dd565b506020820151816001019080519060200190612ade9291906134dd565b506040820151816002019080519060200190612afb9291906134dd565b50606082015181600301556080820151816004015560a0820151816005015560c0820151816006019080519060200190612b369291906134dd565b5060e0820151816007019080519060200190612b539291906134dd565b50610100820151816008019080519060200190612b719291906134dd565b50610120820151816009019080519060200190612b8f9291906134dd565b5061014082015181600a019080519060200190612bad9291906134dd565b5061016082015181600b019080519060200190612bcb9291906134dd565b50505080600583604051612bdf91906140e1565b90815260200160405180910390206000820151816000019080519060200190612c099291906134dd565b506020820151816001019080519060200190612c269291906134dd565b506040820151816002019080519060200190612c439291906134dd565b50606082015181600301556080820151816004015560a0820151816005015560c0820151816006019080519060200190612c7e9291906134dd565b5060e0820151816007019080519060200190612c9b9291906134dd565b50610100820151816008019080519060200190612cb99291906134dd565b50610120820151816009019080519060200190612cd79291906134dd565b5061014082015181600a019080519060200190612cf59291906134dd565b5061016082015181600b019080519060200190612d139291906134dd565b50905050600160036000828254612d2a9190614729565b925050819055507f1b21032942411443543e7923f2da271066ad99511aa6ffcda3bb43030b9157d482604051612d609190613e31565b60405180910390a1505050505050565b6060600760003373ffffffffffffffffffffffffffffffffffffffff1673ffffffffffffffffffffffffffffffffffffffff1681526020019081526020016000208054612dbc90614127565b80601f0160208091040260200160405190810160405280929190818152602001828054612de890614127565b8015612e355780601f10612e0a57610100808354040283529160200191612e35565b820191906000526020600020905b815481529060010190602001808311612e1857829003601f168201915b5050505050905090565b60606000600167ffffffffffffffff811115612e5e57612e5d6135af565b5b6040519080825280601f01601f191660200182016040528015612e905781602001600182028036833780820191505090505b50905082600081518110612ea757612ea661430c565b5b602001015160f81c60f81b81600081518110612ec657612ec561430c565b5b60200101907effffffffffffffffffffffffffffffffffffffffffffffffffffffffffffff1916908160001a90535080915050919050565b606060008290506000815167ffffffffffffffff811115612f2257612f216135af565b5b6040519080825280601f01601f191660200182016040528015612f545781602001600182028036833780820191505090505b50905060005b825181101561307657828181518110612f7657612f7561430c565b5b602001015160f81c60f81b828281518110612f9457612f9361430c565b5b60200101907effffffffffffffffffffffffffffffffffffffffffffffffffffffffffffff1916908160001a9053506000811415613063576040518060400160405280600181526020017f53000000000000000000000000000000000000000000000000000000000000008152506000815181106130155761301461430c565b5b602001015160f81c60f81b8282815181106130335761303261430c565b5b60200101907effffffffffffffffffffffffffffffffffffffffffffffffffffffffffffff1916908160001a9053505b808061306e90614660565b915050612f5a565b508092505050919050565b6060600060016130908461329b565b01905060008167ffffffffffffffff8111156130af576130ae6135af565b5b6040519080825280601f01601f1916602001820160405280156130e15781602001600182028036833780820191505090505b509050600082602001820190505b60011561314e578080600190039150507f3031323334353637383961626364656600000000000000000000000000000000600a86061a8153600a858161313857613137614b94565b5b04945060008514156131495761314e565b6130ef565b819350505050919050565b6131616133ee565b73ffffffffffffffffffffffffffffffffffffffff1661317f611cf3565b73ffffffffffffffffffffffffffffffffffffffff16146131d5576040517f08c379a00000000000000000000000000000000000000000000000000000000081526004016131cc90614c0f565b60405180910390fd5b565b60008060009054906101000a900473ffffffffffffffffffffffffffffffffffffffff169050816000806101000a81548173ffffffffffffffffffffffffffffffffffffffff021916908373ffffffffffffffffffffffffffffffffffffffff1602179055508173ffffffffffffffffffffffffffffffffffffffff168173ffffffffffffffffffffffffffffffffffffffff167f8be0079c531659141344cd1fd0a4f28419497f9722a3daafe3b4186f6b6457e060405160405180910390a35050565b600080600090507a184f03e93ff9f4daa797ed6e38ed64bf6a1f01000000000000000083106132f9577a184f03e93ff9f4daa797ed6e38ed64bf6a1f01000000000000000083816132ef576132ee614b94565b5b0492506040810190505b6d04ee2d6d415b85acef81000000008310613336576d04ee2d6d415b85acef8100000000838161332c5761332b614b94565b5b0492506020810190505b662386f26fc10000831061336557662386f26fc10000838161335b5761335a614b94565b5b0492506010810190505b6305f5e100831061338e576305f5e100838161338457613383614b94565b5b0492506008810190505b61271083106133b35761271083816133a9576133a8614b94565b5b0492506004810190505b606483106133d657606483816133cc576133cb614b94565b5b0492506002810190505b600a83106133e5576001810190505b80915050919050565b600033905090565b6040518061018001604052806060815260200160608152602001606081526020016000815260200160008152602001600081526020016060815260200160608152602001606081526020016060815260200160608152602001606081525090565b82805461346390614127565b90600052602060002090601f01602090048101928261348557600085556134cc565b82601f1061349e57803560ff19168380011785556134cc565b828001600101855582156134cc579182015b828111156134cb5782358255916020019190600101906134b0565b5b5090506134d99190613563565b5090565b8280546134e990614127565b90600052602060002090601f01602090048101928261350b5760008555613552565b82601f1061352457805160ff1916838001178555613552565b82800160010185558215613552579182015b82811115613551578251825591602001919060010190613536565b5b50905061355f9190613563565b5090565b5b8082111561357c576000816000905550600101613564565b5090565b6000604051905090565b600080fd5b600080fd5b600080fd5b600080fd5b6000601f19601f8301169050919050565b7f4e487b7100000000000000000000000000000000000000000000000000000000600052604160045260246000fd5b6135e78261359e565b810181811067ffffffffffffffff82111715613606576136056135af565b5b80604052505050565b6000613619613580565b905061362582826135de565b919050565b600067ffffffffffffffff821115613645576136446135af565b5b61364e8261359e565b9050602081019050919050565b82818337600083830152505050565b600061367d6136788461362a565b61360f565b90508281526020810184848401111561369957613698613599565b5b6136a484828561365b565b509392505050565b600082601f8301126136c1576136c0613594565b5b81356136d184826020860161366a565b91505092915050565b6000602082840312156136f0576136ef61358a565b5b600082013567ffffffffffffffff81111561370e5761370d61358f565b5b61371a848285016136ac565b91505092915050565b600081519050919050565b600082825260208201905092915050565b60005b8381101561375d578082015181840152602081019050613742565b8381111561376c576000848401525b50505050565b600061377d82613723565b613787818561372e565b935061379781856020860161373f565b6137a08161359e565b840191505092915050565b6000819050919050565b6137be816137ab565b82525050565b60006101808301600083015184820360008601526137e28282613772565b915050602083015184820360208601526137fc8282613772565b915050604083015184820360408601526138168282613772565b915050606083015161382b60608601826137b5565b50608083015161383e60808601826137b5565b5060a083015161385160a08601826137b5565b5060c083015184820360c08601526138698282613772565b91505060e083015184820360e08601526138838282613772565b91505061010083015184820361010086015261389f8282613772565b9150506101208301518482036101208601526138bb8282613772565b9150506101408301518482036101408601526138d78282613772565b9150506101608301518482036101608601526138f38282613772565b9150508091505092915050565b6000602082019050818103600083015261391a81846137c4565b905092915050565b600080fd5b600080fd5b60008083601f84011261394257613941613594565b5b8235905067ffffffffffffffff81111561395f5761395e613922565b5b60208301915083600182028301111561397b5761397a613927565b5b9250929050565b60008083601f84011261399857613997613594565b5b8235905067ffffffffffffffff8111156139b5576139b4613922565b5b6020830191508360208202830111156139d1576139d0613927565b5b9250929050565b600080600080600080606087890312156139f5576139f461358a565b5b600087013567ffffffffffffffff811115613a1357613a1261358f565b5b613a1f89828a0161392c565b9650965050602087013567ffffffffffffffff811115613a4257613a4161358f565b5b613a4e89828a01613982565b9450945050604087013567ffffffffffffffff811115613a7157613a7061358f565b5b613a7d89828a01613982565b92509250509295509295509295565b600081519050919050565b600082825260208201905092915050565b6000819050602082019050919050565b6000610180830160008301518482036000860152613ad68282613772565b91505060208301518482036020860152613af08282613772565b91505060408301518482036040860152613b0a8282613772565b9150506060830151613b1f60608601826137b5565b506080830151613b3260808601826137b5565b5060a0830151613b4560a08601826137b5565b5060c083015184820360c0860152613b5d8282613772565b91505060e083015184820360e0860152613b778282613772565b915050610100830151848203610100860152613b938282613772565b915050610120830151848203610120860152613baf8282613772565b915050610140830151848203610140860152613bcb8282613772565b915050610160830151848203610160860152613be78282613772565b9150508091505092915050565b6000613c008383613ab8565b905092915050565b6000602082019050919050565b6000613c2082613a8c565b613c2a8185613a97565b935083602082028501613c3c85613aa8565b8060005b85811015613c785784840389528151613c598582613bf4565b9450613c6483613c08565b925060208a01995050600181019050613c40565b50829750879550505050505092915050565b60006020820190508181036000830152613ca48184613c15565b905092915050565b613cb5816137ab565b82525050565b6000602082019050613cd06000830184613cac565b92915050565b600073ffffffffffffffffffffffffffffffffffffffff82169050919050565b6000613d0182613cd6565b9050919050565b613d1181613cf6565b8114613d1c57600080fd5b50565b600081359050613d2e81613d08565b92915050565b60008060408385031215613d4b57613d4a61358a565b5b6000613d5985828601613d1f565b925050602083013567ffffffffffffffff811115613d7a57613d7961358f565b5b613d86858286016136ac565b9150509250929050565b613d9981613cf6565b82525050565b6000602082019050613db46000830184613d90565b92915050565b600060208284031215613dd057613dcf61358a565b5b6000613dde84828501613d1f565b91505092915050565b600082825260208201905092915050565b6000613e0382613723565b613e0d8185613de7565b9350613e1d81856020860161373f565b613e268161359e565b840191505092915050565b60006020820190508181036000830152613e4b8184613df8565b905092915050565b613e5c816137ab565b8114613e6757600080fd5b50565b600081359050613e7981613e53565b92915050565b600060208284031215613e9557613e9461358a565b5b6000613ea384828501613e6a565b91505092915050565b6000610180820190508181036000830152613ec7818f613df8565b90508181036020830152613edb818e613df8565b90508181036040830152613eef818d613df8565b9050613efe606083018c613cac565b613f0b608083018b613cac565b613f1860a083018a613cac565b81810360c0830152613f2a8189613df8565b905081810360e0830152613f3e8188613df8565b9050818103610100830152613f538187613df8565b9050818103610120830152613f688186613df8565b9050818103610140830152613f7d8185613df8565b9050818103610160830152613f928184613df8565b90509d9c50505050505050505050505050565b60008060008060808587031215613fbf57613fbe61358a565b5b600085013567ffffffffffffffff811115613fdd57613fdc61358f565b5b613fe9878288016136ac565b9450506020613ffa87828801613e6a565b935050604061400b87828801613e6a565b925050606085013567ffffffffffffffff81111561402c5761402b61358f565b5b614038878288016136ac565b91505092959194509250565b600081905092915050565b7f5300000000000000000000000000000000000000000000000000000000000000600082015250565b6000614085600183614044565b91506140908261404f565b600182019050919050565b60006140a682614078565b9150819050919050565b60006140bb82613723565b6140c58185614044565b93506140d581856020860161373f565b80840191505092915050565b60006140ed82846140b0565b915081905092915050565b7f4e487b7100000000000000000000000000000000000000000000000000000000600052602260045260246000fd5b6000600282049050600182168061413f57607f821691505b60208210811415614153576141526140f8565b5b50919050565b50565b6000614169600083614044565b915061417482614159565b600082019050919050565b600061418a8261415c565b9150819050919050565b60008190508160005260206000209050919050565b600081546141b681614127565b6141c08186614044565b945060018216600081146141db57600181146141ec5761421f565b60ff1983168652818601935061421f565b6141f585614194565b60005b83811015614217578154818901526001820191506020810190506141f8565b838801955050505b50505092915050565b600061423482846141a9565b915081905092915050565b7f596f7520617265206e6f742070617274206f66207465616d2079657420212100600082015250565b6000614275601f83613de7565b91506142808261423f565b602082019050919050565b600060208201905081810360008301526142a481614268565b9050919050565b7f5374617475730000000000000000000000000000000000000000000000000000600082015250565b60006142e1600683614044565b91506142ec826142ab565b600682019050919050565b6000614302826142d4565b9150819050919050565b7f4e487b7100000000000000000000000000000000000000000000000000000000600052603260045260246000fd5b600080fd5b600080fd5b600080fd5b600080833560016020038436030381126143675761436661433b565b5b80840192508235915067ffffffffffffffff82111561438957614388614340565b5b6020830192506001820236038313156143a5576143a4614345565b5b509250929050565b60006143b98385614044565b93506143c683858461365b565b82840190509392505050565b60006143df8284866143ad565b91508190509392505050565b7f437573746f6d65722046696e616c2044656c6976657279204461746500000000600082015250565b6000614421601c83614044565b915061442c826143eb565b601c82019050919050565b600061444282614414565b9150819050919050565b7f426172436f646500000000000000000000000000000000000000000000000000600082015250565b6000614482600783614044565b915061448d8261444c565b600782019050919050565b60006144a382614475565b9150819050919050565b7f42617463684e6f00000000000000000000000000000000000000000000000000600082015250565b60006144e3600783614044565b91506144ee826144ad565b600782019050919050565b6000614504826144d6565b9150819050919050565b7f4d6173746572204c6162656c0000000000000000000000000000000000000000600082015250565b6000614544600c83614044565b915061454f8261450e565b600c82019050919050565b600061456582614537565b9150819050919050565b7f496e766f69636520506174680000000000000000000000000000000000000000600082015250565b60006145a5600c83614044565b91506145b08261456f565b600c82019050919050565b60006145c682614598565b9150819050919050565b7f547261636b696e67204e6f000000000000000000000000000000000000000000600082015250565b6000614606600b83614044565b9150614611826145d0565b600b82019050919050565b6000614627826145f9565b9150819050919050565b7f4e487b7100000000000000000000000000000000000000000000000000000000600052601160045260246000fd5b600061466b826137ab565b91507fffffffffffffffffffffffffffffffffffffffffffffffffffffffffffffffff82141561469e5761469d614631565b5b600182019050919050565b60006146b4826137ab565b91506146bf836137ab565b9250828210156146d2576146d1614631565b5b828203905092915050565b7f534f000000000000000000000000000000000000000000000000000000000000815250565b600061470e826146dd565b60028201915061471e82846140b0565b915081905092915050565b6000614734826137ab565b915061473f836137ab565b9250827fffffffffffffffffffffffffffffffffffffffffffffffffffffffffffffffff0382111561477457614773614631565b5b828201905092915050565b60008160011c9050919050565b6000808291508390505b60018511156147d6578086048111156147b2576147b1614631565b5b60018516156147c15780820291505b80810290506147cf8561477f565b9450614796565b94509492505050565b6000826147ef57600190506148ab565b816147fd57600090506148ab565b8160018114614813576002811461481d5761484c565b60019150506148ab565b60ff84111561482f5761482e614631565b5b8360020a91508482111561484657614845614631565b5b506148ab565b5060208310610133831016604e8410600b84101617156148815782820a90508381111561487c5761487b614631565b5b6148ab565b61488e848484600161478c565b925090508184048111156148a5576148a4614631565b5b81810290505b9392505050565b60006148bd826137ab565b91506148c8836137ab565b92506148f57fffffffffffffffffffffffffffffffffffffffffffffffffffffffffffffffff84846147df565b905092915050565b6000614908826137ab565b9150614913836137ab565b9250817fffffffffffffffffffffffffffffffffffffffffffffffffffffffffffffffff048311821515161561494c5761494b614631565b5b828202905092915050565b7f4e756c6c206163636f756e7420697320636f6d696e672066726f6d2066726f6e60008201527f742d656e64202121000000000000000000000000000000000000000000000000602082015250565b60006149b3602883613de7565b91506149be82614957565b604082019050919050565b600060208201905081810360008301526149e2816149a6565b9050919050565b7f4f776e61626c653a206e6577206f776e657220697320746865207a65726f206160008201527f6464726573730000000000000000000000000000000000000000000000000000602082015250565b6000614a45602683613de7565b9150614a50826149e9565b604082019050919050565b60006020820190508181036000830152614a7481614a38565b9050919050565b7f53616c657320526570726573656e746174697665000000000000000000000000600082015250565b6000614ab1601483614044565b9150614abc82614a7b565b601482019050919050565b6000614ad282614aa4565b9150819050919050565b7f596f7520617265206e6f7420612053616c657320526570202121000000000000600082015250565b6000614b12601a83613de7565b9150614b1d82614adc565b602082019050919050565b60006020820190508181036000830152614b4181614b05565b9050919050565b7f504f000000000000000000000000000000000000000000000000000000000000815250565b6000614b7982614b48565b600282019150614b8982846140b0565b915081905092915050565b7f4e487b7100000000000000000000000000000000000000000000000000000000600052601260045260246000fd5b7f4f776e61626c653a2063616c6c6572206973206e6f7420746865206f776e6572600082015250565b6000614bf9602083613de7565b9150614c0482614bc3565b602082019050919050565b60006020820190508181036000830152614c2881614bec565b905091905056fea26469706673582212206d89036654058d31b8bec06ca56359dfc168aa0c5ce66513a5eae6a230d7af2964736f6c634300080c0033",
  "linkReferences": {},
  "deployedLinkReferences": {}
}