{
  "_format": "hh-sol-artifact-1",
  "contractName": "SupplyChain",
  "sourceName": "contracts/SupplyChain.sol",
  "abi": [
    {
      "inputs": [
        {
          "internalType": "uint256",
          "name": "gatekeeperNetwork",
          "type": "uint256"
        }
      ],
      "stateMutability": "nonpayable",
      "type": "constructor"
    },
    {
      "inputs": [
        {
          "internalType": "address",
          "name": "gatewayToken",
          "type": "address"
        }
      ],
      "name": "IsGated__InvalidGatewayToken",
      "type": "error"
    },
    {
      "anonymous": false,
      "inputs": [
        {
          "indexed": false,
          "internalType": "string",
          "name": "_soId",
          "type": "string"
        }
      ],
      "name": "GetSoID",
      "type": "event"
    },
    {
      "anonymous": false,
      "inputs": [
        {
          "indexed": true,
          "internalType": "address",
          "name": "previousOwner",
          "type": "address"
        },
        {
          "indexed": true,
          "internalType": "address",
          "name": "newOwner",
          "type": "address"
        }
      ],
      "name": "OwnershipTransferred",
      "type": "event"
    },
    {
      "inputs": [
        {
          "internalType": "address",
          "name": "_account",
          "type": "address"
        },
        {
          "internalType": "string",
          "name": "role",
          "type": "string"
        }
      ],
      "name": "addRole",
      "outputs": [],
      "stateMutability": "nonpayable",
      "type": "function"
    },
    {
      "inputs": [
        {
          "internalType": "string",
          "name": "_prodName",
          "type": "string"
        },
        {
          "internalType": "uint256",
          "name": "_qty",
          "type": "uint256"
        },
        {
          "internalType": "uint256",
          "name": "_ordrVal",
          "type": "uint256"
        },
        {
          "internalType": "string",
          "name": "_status",
          "type": "string"
        }
      ],
      "name": "createOrder",
      "outputs": [],
      "stateMutability": "nonpayable",
      "type": "function"
    },
    {
      "inputs": [],
      "name": "getAllOrderDetails",
      "outputs": [
        {
          "components": [
            {
              "internalType": "string",
              "name": "SoID",
              "type": "string"
            },
            {
              "internalType": "string",
              "name": "PoID",
              "type": "string"
            },
            {
              "internalType": "string",
              "name": "prodName",
              "type": "string"
            },
            {
              "internalType": "uint256",
              "name": "qty",
              "type": "uint256"
            },
            {
              "internalType": "uint256",
              "name": "orderValue",
              "type": "uint256"
            },
            {
              "internalType": "uint256",
              "name": "customerFinalDeliveryDate",
              "type": "uint256"
            },
            {
              "internalType": "string",
              "name": "status",
              "type": "string"
            },
            {
              "internalType": "string",
              "name": "barCode",
              "type": "string"
            },
            {
              "internalType": "string",
              "name": "batchNo",
              "type": "string"
            },
            {
              "internalType": "string",
              "name": "masterLabel",
              "type": "string"
            },
            {
              "internalType": "string",
              "name": "invoicePath",
              "type": "string"
            },
            {
              "internalType": "string",
              "name": "trackingNo",
              "type": "string"
            }
          ],
          "internalType": "struct SupplyChain.Order[]",
          "name": "",
          "type": "tuple[]"
        }
      ],
      "stateMutability": "view",
      "type": "function"
    },
    {
      "inputs": [
        {
          "internalType": "string",
          "name": "_soOrPo",
          "type": "string"
        }
      ],
      "name": "getOrderDetails",
      "outputs": [
        {
          "components": [
            {
              "internalType": "string",
              "name": "SoID",
              "type": "string"
            },
            {
              "internalType": "string",
              "name": "PoID",
              "type": "string"
            },
            {
              "internalType": "string",
              "name": "prodName",
              "type": "string"
            },
            {
              "internalType": "uint256",
              "name": "qty",
              "type": "uint256"
            },
            {
              "internalType": "uint256",
              "name": "orderValue",
              "type": "uint256"
            },
            {
              "internalType": "uint256",
              "name": "customerFinalDeliveryDate",
              "type": "uint256"
            },
            {
              "internalType": "string",
              "name": "status",
              "type": "string"
            },
            {
              "internalType": "string",
              "name": "barCode",
              "type": "string"
            },
            {
              "internalType": "string",
              "name": "batchNo",
              "type": "string"
            },
            {
              "internalType": "string",
              "name": "masterLabel",
              "type": "string"
            },
            {
              "internalType": "string",
              "name": "invoicePath",
              "type": "string"
            },
            {
              "internalType": "string",
              "name": "trackingNo",
              "type": "string"
            }
          ],
          "internalType": "struct SupplyChain.Order",
          "name": "",
          "type": "tuple"
        }
      ],
      "stateMutability": "view",
      "type": "function"
    },
    {
      "inputs": [],
      "name": "getRole",
      "outputs": [
        {
          "internalType": "string",
          "name": "",
          "type": "string"
        }
      ],
      "stateMutability": "view",
      "type": "function"
    },
    {
      "inputs": [
        {
          "internalType": "string",
          "name": "",
          "type": "string"
        }
      ],
      "name": "orderData",
      "outputs": [
        {
          "internalType": "string",
          "name": "SoID",
          "type": "string"
        },
        {
          "internalType": "string",
          "name": "PoID",
          "type": "string"
        },
        {
          "internalType": "string",
          "name": "prodName",
          "type": "string"
        },
        {
          "internalType": "uint256",
          "name": "qty",
          "type": "uint256"
        },
        {
          "internalType": "uint256",
          "name": "orderValue",
          "type": "uint256"
        },
        {
          "internalType": "uint256",
          "name": "customerFinalDeliveryDate",
          "type": "uint256"
        },
        {
          "internalType": "string",
          "name": "status",
          "type": "string"
        },
        {
          "internalType": "string",
          "name": "barCode",
          "type": "string"
        },
        {
          "internalType": "string",
          "name": "batchNo",
          "type": "string"
        },
        {
          "internalType": "string",
          "name": "masterLabel",
          "type": "string"
        },
        {
          "internalType": "string",
          "name": "invoicePath",
          "type": "string"
        },
        {
          "internalType": "string",
          "name": "trackingNo",
          "type": "string"
        }
      ],
      "stateMutability": "view",
      "type": "function"
    },
    {
      "inputs": [
        {
          "internalType": "uint256",
          "name": "",
          "type": "uint256"
        }
      ],
      "name": "orders",
      "outputs": [
        {
          "internalType": "string",
          "name": "SoID",
          "type": "string"
        },
        {
          "internalType": "string",
          "name": "PoID",
          "type": "string"
        },
        {
          "internalType": "string",
          "name": "prodName",
          "type": "string"
        },
        {
          "internalType": "uint256",
          "name": "qty",
          "type": "uint256"
        },
        {
          "internalType": "uint256",
          "name": "orderValue",
          "type": "uint256"
        },
        {
          "internalType": "uint256",
          "name": "customerFinalDeliveryDate",
          "type": "uint256"
        },
        {
          "internalType": "string",
          "name": "status",
          "type": "string"
        },
        {
          "internalType": "string",
          "name": "barCode",
          "type": "string"
        },
        {
          "internalType": "string",
          "name": "batchNo",
          "type": "string"
        },
        {
          "internalType": "string",
          "name": "masterLabel",
          "type": "string"
        },
        {
          "internalType": "string",
          "name": "invoicePath",
          "type": "string"
        },
        {
          "internalType": "string",
          "name": "trackingNo",
          "type": "string"
        }
      ],
      "stateMutability": "view",
      "type": "function"
    },
    {
      "inputs": [],
      "name": "owner",
      "outputs": [
        {
          "internalType": "address",
          "name": "",
          "type": "address"
        }
      ],
      "stateMutability": "view",
      "type": "function"
    },
    {
      "inputs": [],
      "name": "renounceOwnership",
      "outputs": [],
      "stateMutability": "nonpayable",
      "type": "function"
    },
    {
      "inputs": [
        {
          "internalType": "address",
          "name": "",
          "type": "address"
        }
      ],
      "name": "roles",
      "outputs": [
        {
          "internalType": "string",
          "name": "",
          "type": "string"
        }
      ],
      "stateMutability": "view",
      "type": "function"
    },
    {
      "inputs": [
        {
          "internalType": "string",
          "name": "numString",
          "type": "string"
        }
      ],
      "name": "st2num",
      "outputs": [
        {
          "internalType": "uint256",
          "name": "",
          "type": "uint256"
        }
      ],
      "stateMutability": "pure",
      "type": "function"
    },
    {
      "inputs": [
        {
          "internalType": "address",
          "name": "newOwner",
          "type": "address"
        }
      ],
      "name": "transferOwnership",
      "outputs": [],
      "stateMutability": "nonpayable",
      "type": "function"
    },
    {
      "inputs": [
        {
          "internalType": "string",
          "name": "_so",
          "type": "string"
        },
        {
          "internalType": "string[]",
          "name": "colName",
          "type": "string[]"
        },
        {
          "internalType": "string[]",
          "name": "_value",
          "type": "string[]"
        }
      ],
      "name": "update",
      "outputs": [],
      "stateMutability": "nonpayable",
      "type": "function"
    }
  ],
  "bytecode": "0x60806040523480156200001157600080fd5b5060405162004f4d38038062004f4d8339818101604052810190620000379190620001dc565b73f65b6396df6b7e2d8a6270e3ab6c7bb08baef22e816200006d62000061620000d060201b60201c565b620000d860201b60201c565b81600160006101000a81548173ffffffffffffffffffffffffffffffffffffffff021916908373ffffffffffffffffffffffffffffffffffffffff160217905550806002819055505050614094600381905550614094600481905550506200020e565b600033905090565b60008060009054906101000a900473ffffffffffffffffffffffffffffffffffffffff169050816000806101000a81548173ffffffffffffffffffffffffffffffffffffffff021916908373ffffffffffffffffffffffffffffffffffffffff1602179055508173ffffffffffffffffffffffffffffffffffffffff168173ffffffffffffffffffffffffffffffffffffffff167f8be0079c531659141344cd1fd0a4f28419497f9722a3daafe3b4186f6b6457e060405160405180910390a35050565b600080fd5b6000819050919050565b620001b681620001a1565b8114620001c257600080fd5b50565b600081519050620001d681620001ab565b92915050565b600060208284031215620001f557620001f46200019c565b5b60006200020584828501620001c5565b91505092915050565b614d2f806200021e6000396000f3fe608060405234801561001057600080fd5b50600436106100cf5760003560e01c80638da5cb5b1161008c578063e393f26311610066578063e393f2631461021d578063f2fde38b14610258578063fb0a9a6d14610274578063fde0817414610290576100cf565b80638da5cb5b1461019457806399374642146101b2578063a85c38ef146101e2576100cf565b80634fbb487c146100d45780635a553855146101045780636bc184b414610120578063715018a61461013e57806379cd9055146101485780637d72aa6514610178575b600080fd5b6100ee60048036038101906100e991906137a4565b6102ae565b6040516100fb91906139ca565b60405180910390f35b61011e60048036038101906101199190613aa2565b610dfb565b005b6101286114f1565b6040516101359190613d54565b60405180910390f35b610146611c1d565b005b610162600480360381019061015d91906137a4565b611c31565b60405161016f9190613d85565b60405180910390f35b610192600480360381019061018d9190613dfe565b611ceb565b005b61019c611dbd565b6040516101a99190613e69565b60405180910390f35b6101cc60048036038101906101c79190613e84565b611de6565b6040516101d99190613efb565b60405180910390f35b6101fc60048036038101906101f79190613f49565b611e86565b6040516102149c9b9a99989796959493929190613f76565b60405180910390f35b610237600480360381019061023291906137a4565b6123be565b60405161024f9c9b9a99989796959493929190613f76565b60405180910390f35b610272600480360381019061026d9190613e84565b6128fc565b005b61028e6004803603810190610289919061406f565b612980565b005b610298612e3a565b6040516102a59190613efb565b60405180910390f35b6102b66134c0565b6040516020016102c590614165565b604051602081830303815290604052805190602001206102e483612f09565b6040516020016102f491906141ab565b6040516020818303038152906040528051906020012014156108815760058260405161032091906141ab565b90815260200160405180910390206040518061018001604052908160008201805461034a906141f1565b80601f0160208091040260200160405190810160405280929190818152602001828054610376906141f1565b80156103c35780601f10610398576101008083540402835291602001916103c3565b820191906000526020600020905b8154815290600101906020018083116103a657829003601f168201915b505050505081526020016001820180546103dc906141f1565b80601f0160208091040260200160405190810160405280929190818152602001828054610408906141f1565b80156104555780601f1061042a57610100808354040283529160200191610455565b820191906000526020600020905b81548152906001019060200180831161043857829003601f168201915b5050505050815260200160028201805461046e906141f1565b80601f016020809104026020016040519081016040528092919081815260200182805461049a906141f1565b80156104e75780601f106104bc576101008083540402835291602001916104e7565b820191906000526020600020905b8154815290600101906020018083116104ca57829003601f168201915b5050505050815260200160038201548152602001600482015481526020016005820154815260200160068201805461051e906141f1565b80601f016020809104026020016040519081016040528092919081815260200182805461054a906141f1565b80156105975780601f1061056c57610100808354040283529160200191610597565b820191906000526020600020905b81548152906001019060200180831161057a57829003601f168201915b505050505081526020016007820180546105b0906141f1565b80601f01602080910402602001604051908101604052809291908181526020018280546105dc906141f1565b80156106295780601f106105fe57610100808354040283529160200191610629565b820191906000526020600020905b81548152906001019060200180831161060c57829003601f168201915b50505050508152602001600882018054610642906141f1565b80601f016020809104026020016040519081016040528092919081815260200182805461066e906141f1565b80156106bb5780601f10610690576101008083540402835291602001916106bb565b820191906000526020600020905b81548152906001019060200180831161069e57829003601f168201915b505050505081526020016009820180546106d4906141f1565b80601f0160208091040260200160405190810160405280929190818152602001828054610700906141f1565b801561074d5780601f106107225761010080835404028352916020019161074d565b820191906000526020600020905b81548152906001019060200180831161073057829003601f168201915b50505050508152602001600a82018054610766906141f1565b80601f0160208091040260200160405190810160405280929190818152602001828054610792906141f1565b80156107df5780601f106107b4576101008083540402835291602001916107df565b820191906000526020600020905b8154815290600101906020018083116107c257829003601f168201915b50505050508152602001600b820180546107f8906141f1565b80601f0160208091040260200160405190810160405280929190818152602001828054610824906141f1565b80156108715780601f1061084657610100808354040283529160200191610871565b820191906000526020600020905b81548152906001019060200180831161085457829003601f168201915b5050505050815250509050610df6565b600561088c83612fc8565b60405161089991906141ab565b9081526020016040518091039020604051806101800160405290816000820180546108c3906141f1565b80601f01602080910402602001604051908101604052809291908181526020018280546108ef906141f1565b801561093c5780601f106109115761010080835404028352916020019161093c565b820191906000526020600020905b81548152906001019060200180831161091f57829003601f168201915b50505050508152602001600182018054610955906141f1565b80601f0160208091040260200160405190810160405280929190818152602001828054610981906141f1565b80156109ce5780601f106109a3576101008083540402835291602001916109ce565b820191906000526020600020905b8154815290600101906020018083116109b157829003601f168201915b505050505081526020016002820180546109e7906141f1565b80601f0160208091040260200160405190810160405280929190818152602001828054610a13906141f1565b8015610a605780601f10610a3557610100808354040283529160200191610a60565b820191906000526020600020905b815481529060010190602001808311610a4357829003601f168201915b50505050508152602001600382015481526020016004820154815260200160058201548152602001600682018054610a97906141f1565b80601f0160208091040260200160405190810160405280929190818152602001828054610ac3906141f1565b8015610b105780601f10610ae557610100808354040283529160200191610b10565b820191906000526020600020905b815481529060010190602001808311610af357829003601f168201915b50505050508152602001600782018054610b29906141f1565b80601f0160208091040260200160405190810160405280929190818152602001828054610b55906141f1565b8015610ba25780601f10610b7757610100808354040283529160200191610ba2565b820191906000526020600020905b815481529060010190602001808311610b8557829003601f168201915b50505050508152602001600882018054610bbb906141f1565b80601f0160208091040260200160405190810160405280929190818152602001828054610be7906141f1565b8015610c345780601f10610c0957610100808354040283529160200191610c34565b820191906000526020600020905b815481529060010190602001808311610c1757829003601f168201915b50505050508152602001600982018054610c4d906141f1565b80601f0160208091040260200160405190810160405280929190818152602001828054610c79906141f1565b8015610cc65780601f10610c9b57610100808354040283529160200191610cc6565b820191906000526020600020905b815481529060010190602001808311610ca957829003601f168201915b50505050508152602001600a82018054610cdf906141f1565b80601f0160208091040260200160405190810160405280929190818152602001828054610d0b906141f1565b8015610d585780601f10610d2d57610100808354040283529160200191610d58565b820191906000526020600020905b815481529060010190602001808311610d3b57829003601f168201915b50505050508152602001600b82018054610d71906141f1565b80601f0160208091040260200160405190810160405280929190818152602001828054610d9d906141f1565b8015610dea5780601f10610dbf57610100808354040283529160200191610dea565b820191906000526020600020905b815481529060010190602001808311610dcd57829003601f168201915b50505050508152505090505b919050565b604051602001610e0a90614249565b60405160208183030381529060405280519060200120600760003373ffffffffffffffffffffffffffffffffffffffff1673ffffffffffffffffffffffffffffffffffffffff168152602001908152602001600020604051602001610e6f91906142f2565b604051602081830303815290604052805190602001201415610ec6576040517f08c379a0000000000000000000000000000000000000000000000000000000008152600401610ebd90614355565b60405180910390fd5b60005b848490508110156114e857604051602001610ee3906143c1565b60405160208183030381529060405280519060200120858583818110610f0c57610f0b6143d6565b5b9050602002810190610f1e9190614414565b604051602001610f2f92919061449c565b604051602081830303815290604052805190602001201415610fa657828282818110610f5e57610f5d6143d6565b5b9050602002810190610f709190614414565b60058989604051610f8292919061449c565b90815260200160405180910390206006019190610fa0929190613521565b506114d5565b604051602001610fb590614501565b60405160208183030381529060405280519060200120858583818110610fde57610fdd6143d6565b5b9050602002810190610ff09190614414565b60405160200161100192919061449c565b6040516020818303038152906040528051906020012014156110b95761108d838383818110611033576110326143d6565b5b90506020028101906110459190614414565b8080601f016020809104026020016040519081016040528093929190818152602001838380828437600081840152601f19601f82011690508083019250505050505050611c31565b6005888860405161109f92919061449c565b9081526020016040518091039020600501819055506114d4565b6040516020016110c890614562565b604051602081830303815290604052805190602001208585838181106110f1576110f06143d6565b5b90506020028101906111039190614414565b60405160200161111492919061449c565b60405160208183030381529060405280519060200120141561118b57828282818110611143576111426143d6565b5b90506020028101906111559190614414565b6005898960405161116792919061449c565b90815260200160405180910390206007019190611185929190613521565b506114d3565b60405160200161119a906145c3565b604051602081830303815290604052805190602001208585838181106111c3576111c26143d6565b5b90506020028101906111d59190614414565b6040516020016111e692919061449c565b60405160208183030381529060405280519060200120141561125d57828282818110611215576112146143d6565b5b90506020028101906112279190614414565b6005898960405161123992919061449c565b90815260200160405180910390206008019190611257929190613521565b506114d2565b60405160200161126c90614624565b60405160208183030381529060405280519060200120858583818110611295576112946143d6565b5b90506020028101906112a79190614414565b6040516020016112b892919061449c565b60405160208183030381529060405280519060200120141561132f578282828181106112e7576112e66143d6565b5b90506020028101906112f99190614414565b6005898960405161130b92919061449c565b90815260200160405180910390206009019190611329929190613521565b506114d1565b60405160200161133e90614685565b60405160208183030381529060405280519060200120858583818110611367576113666143d6565b5b90506020028101906113799190614414565b60405160200161138a92919061449c565b604051602081830303815290604052805190602001201415611401578282828181106113b9576113b86143d6565b5b90506020028101906113cb9190614414565b600589896040516113dd92919061449c565b9081526020016040518091039020600a0191906113fb929190613521565b506114d0565b604051602001611410906146e6565b60405160208183030381529060405280519060200120858583818110611439576114386143d6565b5b905060200281019061144b9190614414565b60405160200161145c92919061449c565b6040516020818303038152906040528051906020012014156114cf5782828281811061148b5761148a6143d6565b5b905060200281019061149d9190614414565b600589896040516114af92919061449c565b9081526020016040518091039020600b0191906114cd929190613521565b505b5b5b5b5b5b5b80806114e09061472a565b915050610ec9565b50505050505050565b6060604051602001611502906147bf565b60405160208183030381529060405280519060200120600760003373ffffffffffffffffffffffffffffffffffffffff1673ffffffffffffffffffffffffffffffffffffffff16815260200190815260200160002060405160200161156791906142f2565b60405160208183030381529060405280519060200120146115bd576040517f08c379a00000000000000000000000000000000000000000000000000000000081526004016115b490614820565b60405180910390fd5b600060035490506000806004546003546115d79190614840565b67ffffffffffffffff8111156115f0576115ef613679565b5b60405190808252806020026020018201604052801561162957816020015b6116166134c0565b81526020019060019003908161160e5790505b509050600060045490505b83811015611c1357600060056116498361314b565b604051602001611659919061489a565b60405160208183030381529060405260405161167591906141ab565b9081526020016040518091039020905080604051806101800160405290816000820180546116a2906141f1565b80601f01602080910402602001604051908101604052809291908181526020018280546116ce906141f1565b801561171b5780601f106116f05761010080835404028352916020019161171b565b820191906000526020600020905b8154815290600101906020018083116116fe57829003601f168201915b50505050508152602001600182018054611734906141f1565b80601f0160208091040260200160405190810160405280929190818152602001828054611760906141f1565b80156117ad5780601f10611782576101008083540402835291602001916117ad565b820191906000526020600020905b81548152906001019060200180831161179057829003601f168201915b505050505081526020016002820180546117c6906141f1565b80601f01602080910402602001604051908101604052809291908181526020018280546117f2906141f1565b801561183f5780601f106118145761010080835404028352916020019161183f565b820191906000526020600020905b81548152906001019060200180831161182257829003601f168201915b50505050508152602001600382015481526020016004820154815260200160058201548152602001600682018054611876906141f1565b80601f01602080910402602001604051908101604052809291908181526020018280546118a2906141f1565b80156118ef5780601f106118c4576101008083540402835291602001916118ef565b820191906000526020600020905b8154815290600101906020018083116118d257829003601f168201915b50505050508152602001600782018054611908906141f1565b80601f0160208091040260200160405190810160405280929190818152602001828054611934906141f1565b80156119815780601f1061195657610100808354040283529160200191611981565b820191906000526020600020905b81548152906001019060200180831161196457829003601f168201915b5050505050815260200160088201805461199a906141f1565b80601f01602080910402602001604051908101604052809291908181526020018280546119c6906141f1565b8015611a135780601f106119e857610100808354040283529160200191611a13565b820191906000526020600020905b8154815290600101906020018083116119f657829003601f168201915b50505050508152602001600982018054611a2c906141f1565b80601f0160208091040260200160405190810160405280929190818152602001828054611a58906141f1565b8015611aa55780601f10611a7a57610100808354040283529160200191611aa5565b820191906000526020600020905b815481529060010190602001808311611a8857829003601f168201915b50505050508152602001600a82018054611abe906141f1565b80601f0160208091040260200160405190810160405280929190818152602001828054611aea906141f1565b8015611b375780601f10611b0c57610100808354040283529160200191611b37565b820191906000526020600020905b815481529060010190602001808311611b1a57829003601f168201915b50505050508152602001600b82018054611b50906141f1565b80601f0160208091040260200160405190810160405280929190818152602001828054611b7c906141f1565b8015611bc95780601f10611b9e57610100808354040283529160200191611bc9565b820191906000526020600020905b815481529060010190602001808311611bac57829003601f168201915b505050505081525050838581518110611be557611be46143d6565b5b6020026020010181905250600184611bfd91906148c0565b9350508080611c0b9061472a565b915050611634565b5080935050505090565b611c25613223565b611c2f60006132a1565b565b60008060009050600083905060005b8151811015611ce0576000818351611c589190614840565b90506000838381518110611c6f57611c6e6143d6565b5b602001015160f81c60f81b905060008160f81c9050600060308260ff16611c969190614840565b9050600184611ca59190614840565b600a611cb19190614a49565b81611cbc9190614a94565b87611cc791906148c0565b9650505050508080611cd89061472a565b915050611c40565b508192505050919050565b611cf3613223565b81600073ffffffffffffffffffffffffffffffffffffffff168173ffffffffffffffffffffffffffffffffffffffff161415611d64576040517f08c379a0000000000000000000000000000000000000000000000000000000008152600401611d5b90614b60565b60405180910390fd5b81600760008573ffffffffffffffffffffffffffffffffffffffff1673ffffffffffffffffffffffffffffffffffffffff1681526020019081526020016000209080519060200190611db79291906135a7565b50505050565b60008060009054906101000a900473ffffffffffffffffffffffffffffffffffffffff16905090565b60076020528060005260406000206000915090508054611e05906141f1565b80601f0160208091040260200160405190810160405280929190818152602001828054611e31906141f1565b8015611e7e5780601f10611e5357610100808354040283529160200191611e7e565b820191906000526020600020905b815481529060010190602001808311611e6157829003601f168201915b505050505081565b60068181548110611e9657600080fd5b90600052602060002090600c0201600091509050806000018054611eb9906141f1565b80601f0160208091040260200160405190810160405280929190818152602001828054611ee5906141f1565b8015611f325780601f10611f0757610100808354040283529160200191611f32565b820191906000526020600020905b815481529060010190602001808311611f1557829003601f168201915b505050505090806001018054611f47906141f1565b80601f0160208091040260200160405190810160405280929190818152602001828054611f73906141f1565b8015611fc05780601f10611f9557610100808354040283529160200191611fc0565b820191906000526020600020905b815481529060010190602001808311611fa357829003601f168201915b505050505090806002018054611fd5906141f1565b80601f0160208091040260200160405190810160405280929190818152602001828054612001906141f1565b801561204e5780601f106120235761010080835404028352916020019161204e565b820191906000526020600020905b81548152906001019060200180831161203157829003601f168201915b505050505090806003015490806004015490806005015490806006018054612075906141f1565b80601f01602080910402602001604051908101604052809291908181526020018280546120a1906141f1565b80156120ee5780601f106120c3576101008083540402835291602001916120ee565b820191906000526020600020905b8154815290600101906020018083116120d157829003601f168201915b505050505090806007018054612103906141f1565b80601f016020809104026020016040519081016040528092919081815260200182805461212f906141f1565b801561217c5780601f106121515761010080835404028352916020019161217c565b820191906000526020600020905b81548152906001019060200180831161215f57829003601f168201915b505050505090806008018054612191906141f1565b80601f01602080910402602001604051908101604052809291908181526020018280546121bd906141f1565b801561220a5780601f106121df5761010080835404028352916020019161220a565b820191906000526020600020905b8154815290600101906020018083116121ed57829003601f168201915b50505050509080600901805461221f906141f1565b80601f016020809104026020016040519081016040528092919081815260200182805461224b906141f1565b80156122985780601f1061226d57610100808354040283529160200191612298565b820191906000526020600020905b81548152906001019060200180831161227b57829003601f168201915b50505050509080600a0180546122ad906141f1565b80601f01602080910402602001604051908101604052809291908181526020018280546122d9906141f1565b80156123265780601f106122fb57610100808354040283529160200191612326565b820191906000526020600020905b81548152906001019060200180831161230957829003601f168201915b50505050509080600b01805461233b906141f1565b80601f0160208091040260200160405190810160405280929190818152602001828054612367906141f1565b80156123b45780601f10612389576101008083540402835291602001916123b4565b820191906000526020600020905b81548152906001019060200180831161239757829003601f168201915b505050505090508c565b6005818051602081018201805184825260208301602085012081835280955050505050506000915090508060000180546123f7906141f1565b80601f0160208091040260200160405190810160405280929190818152602001828054612423906141f1565b80156124705780601f1061244557610100808354040283529160200191612470565b820191906000526020600020905b81548152906001019060200180831161245357829003601f168201915b505050505090806001018054612485906141f1565b80601f01602080910402602001604051908101604052809291908181526020018280546124b1906141f1565b80156124fe5780601f106124d3576101008083540402835291602001916124fe565b820191906000526020600020905b8154815290600101906020018083116124e157829003601f168201915b505050505090806002018054612513906141f1565b80601f016020809104026020016040519081016040528092919081815260200182805461253f906141f1565b801561258c5780601f106125615761010080835404028352916020019161258c565b820191906000526020600020905b81548152906001019060200180831161256f57829003601f168201915b5050505050908060030154908060040154908060050154908060060180546125b3906141f1565b80601f01602080910402602001604051908101604052809291908181526020018280546125df906141f1565b801561262c5780601f106126015761010080835404028352916020019161262c565b820191906000526020600020905b81548152906001019060200180831161260f57829003601f168201915b505050505090806007018054612641906141f1565b80601f016020809104026020016040519081016040528092919081815260200182805461266d906141f1565b80156126ba5780601f1061268f576101008083540402835291602001916126ba565b820191906000526020600020905b81548152906001019060200180831161269d57829003601f168201915b5050505050908060080180546126cf906141f1565b80601f01602080910402602001604051908101604052809291908181526020018280546126fb906141f1565b80156127485780601f1061271d57610100808354040283529160200191612748565b820191906000526020600020905b81548152906001019060200180831161272b57829003601f168201915b50505050509080600901805461275d906141f1565b80601f0160208091040260200160405190810160405280929190818152602001828054612789906141f1565b80156127d65780601f106127ab576101008083540402835291602001916127d6565b820191906000526020600020905b8154815290600101906020018083116127b957829003601f168201915b50505050509080600a0180546127eb906141f1565b80601f0160208091040260200160405190810160405280929190818152602001828054612817906141f1565b80156128645780601f1061283957610100808354040283529160200191612864565b820191906000526020600020905b81548152906001019060200180831161284757829003601f168201915b50505050509080600b018054612879906141f1565b80601f01602080910402602001604051908101604052809291908181526020018280546128a5906141f1565b80156128f25780601f106128c7576101008083540402835291602001916128f2565b820191906000526020600020905b8154815290600101906020018083116128d557829003601f168201915b505050505090508c565b612904613223565b600073ffffffffffffffffffffffffffffffffffffffff168173ffffffffffffffffffffffffffffffffffffffff161415612974576040517f08c379a000000000000000000000000000000000000000000000000000000000815260040161296b90614bf2565b60405180910390fd5b61297d816132a1565b50565b60405160200161298f906147bf565b60405160208183030381529060405280519060200120600760003373ffffffffffffffffffffffffffffffffffffffff1673ffffffffffffffffffffffffffffffffffffffff1681526020019081526020016000206040516020016129f491906142f2565b6040516020818303038152906040528051906020012014612a4a576040517f08c379a0000000000000000000000000000000000000000000000000000000008152600401612a4190614820565b60405180910390fd5b6000612a5760035461314b565b604051602001612a67919061489a565b60405160208183030381529060405290506000604051806101800160405280838152602001612a9760035461314b565b604051602001612aa79190614c38565b60405160208183030381529060405281526020018781526020018681526020018581526020016000815260200184815260200160405180602001604052806000815250815260200160405180602001604052806000815250815260200160405180602001604052806000815250815260200160405180602001604052806000815250815260200160405180602001604052806000815250815250905060068190806001815401808255809150506001900390600052602060002090600c02016000909190919091506000820151816000019080519060200190612b8b9291906135a7565b506020820151816001019080519060200190612ba89291906135a7565b506040820151816002019080519060200190612bc59291906135a7565b50606082015181600301556080820151816004015560a0820151816005015560c0820151816006019080519060200190612c009291906135a7565b5060e0820151816007019080519060200190612c1d9291906135a7565b50610100820151816008019080519060200190612c3b9291906135a7565b50610120820151816009019080519060200190612c599291906135a7565b5061014082015181600a019080519060200190612c779291906135a7565b5061016082015181600b019080519060200190612c959291906135a7565b50505080600583604051612ca991906141ab565b90815260200160405180910390206000820151816000019080519060200190612cd39291906135a7565b506020820151816001019080519060200190612cf09291906135a7565b506040820151816002019080519060200190612d0d9291906135a7565b50606082015181600301556080820151816004015560a0820151816005015560c0820151816006019080519060200190612d489291906135a7565b5060e0820151816007019080519060200190612d659291906135a7565b50610100820151816008019080519060200190612d839291906135a7565b50610120820151816009019080519060200190612da19291906135a7565b5061014082015181600a019080519060200190612dbf9291906135a7565b5061016082015181600b019080519060200190612ddd9291906135a7565b50905050600160036000828254612df491906148c0565b925050819055507f1b21032942411443543e7923f2da271066ad99511aa6ffcda3bb43030b9157d482604051612e2a9190613efb565b60405180910390a1505050505050565b6060600760003373ffffffffffffffffffffffffffffffffffffffff1673ffffffffffffffffffffffffffffffffffffffff1681526020019081526020016000208054612e86906141f1565b80601f0160208091040260200160405190810160405280929190818152602001828054612eb2906141f1565b8015612eff5780601f10612ed457610100808354040283529160200191612eff565b820191906000526020600020905b815481529060010190602001808311612ee257829003601f168201915b5050505050905090565b60606000600167ffffffffffffffff811115612f2857612f27613679565b5b6040519080825280601f01601f191660200182016040528015612f5a5781602001600182028036833780820191505090505b50905082600081518110612f7157612f706143d6565b5b602001015160f81c60f81b81600081518110612f9057612f8f6143d6565b5b60200101907effffffffffffffffffffffffffffffffffffffffffffffffffffffffffffff1916908160001a90535080915050919050565b606060008290506000815167ffffffffffffffff811115612fec57612feb613679565b5b6040519080825280601f01601f19166020018201604052801561301e5781602001600182028036833780820191505090505b50905060005b8251811015613140578281815181106130405761303f6143d6565b5b602001015160f81c60f81b82828151811061305e5761305d6143d6565b5b60200101907effffffffffffffffffffffffffffffffffffffffffffffffffffffffffffff1916908160001a905350600081141561312d576040518060400160405280600181526020017f53000000000000000000000000000000000000000000000000000000000000008152506000815181106130df576130de6143d6565b5b602001015160f81c60f81b8282815181106130fd576130fc6143d6565b5b60200101907effffffffffffffffffffffffffffffffffffffffffffffffffffffffffffff1916908160001a9053505b80806131389061472a565b915050613024565b508092505050919050565b60606000600161315a84613365565b01905060008167ffffffffffffffff81111561317957613178613679565b5b6040519080825280601f01601f1916602001820160405280156131ab5781602001600182028036833780820191505090505b509050600082602001820190505b600115613218578080600190039150507f3031323334353637383961626364656600000000000000000000000000000000600a86061a8153600a858161320257613201614c5e565b5b049450600085141561321357613218565b6131b9565b819350505050919050565b61322b6134b8565b73ffffffffffffffffffffffffffffffffffffffff16613249611dbd565b73ffffffffffffffffffffffffffffffffffffffff161461329f576040517f08c379a000000000000000000000000000000000000000000000000000000000815260040161329690614cd9565b60405180910390fd5b565b60008060009054906101000a900473ffffffffffffffffffffffffffffffffffffffff169050816000806101000a81548173ffffffffffffffffffffffffffffffffffffffff021916908373ffffffffffffffffffffffffffffffffffffffff1602179055508173ffffffffffffffffffffffffffffffffffffffff168173ffffffffffffffffffffffffffffffffffffffff167f8be0079c531659141344cd1fd0a4f28419497f9722a3daafe3b4186f6b6457e060405160405180910390a35050565b600080600090507a184f03e93ff9f4daa797ed6e38ed64bf6a1f01000000000000000083106133c3577a184f03e93ff9f4daa797ed6e38ed64bf6a1f01000000000000000083816133b9576133b8614c5e565b5b0492506040810190505b6d04ee2d6d415b85acef81000000008310613400576d04ee2d6d415b85acef810000000083816133f6576133f5614c5e565b5b0492506020810190505b662386f26fc10000831061342f57662386f26fc10000838161342557613424614c5e565b5b0492506010810190505b6305f5e1008310613458576305f5e100838161344e5761344d614c5e565b5b0492506008810190505b612710831061347d57612710838161347357613472614c5e565b5b0492506004810190505b606483106134a0576064838161349657613495614c5e565b5b0492506002810190505b600a83106134af576001810190505b80915050919050565b600033905090565b6040518061018001604052806060815260200160608152602001606081526020016000815260200160008152602001600081526020016060815260200160608152602001606081526020016060815260200160608152602001606081525090565b82805461352d906141f1565b90600052602060002090601f01602090048101928261354f5760008555613596565b82601f1061356857803560ff1916838001178555613596565b82800160010185558215613596579182015b8281111561359557823582559160200191906001019061357a565b5b5090506135a3919061362d565b5090565b8280546135b3906141f1565b90600052602060002090601f0160209004810192826135d5576000855561361c565b82601f106135ee57805160ff191683800117855561361c565b8280016001018555821561361c579182015b8281111561361b578251825591602001919060010190613600565b5b509050613629919061362d565b5090565b5b8082111561364657600081600090555060010161362e565b5090565b6000604051905090565b600080fd5b600080fd5b600080fd5b600080fd5b6000601f19601f8301169050919050565b7f4e487b7100000000000000000000000000000000000000000000000000000000600052604160045260246000fd5b6136b182613668565b810181811067ffffffffffffffff821117156136d0576136cf613679565b5b80604052505050565b60006136e361364a565b90506136ef82826136a8565b919050565b600067ffffffffffffffff82111561370f5761370e613679565b5b61371882613668565b9050602081019050919050565b82818337600083830152505050565b6000613747613742846136f4565b6136d9565b90508281526020810184848401111561376357613762613663565b5b61376e848285613725565b509392505050565b600082601f83011261378b5761378a61365e565b5b813561379b848260208601613734565b91505092915050565b6000602082840312156137ba576137b9613654565b5b600082013567ffffffffffffffff8111156137d8576137d7613659565b5b6137e484828501613776565b91505092915050565b600081519050919050565b600082825260208201905092915050565b60005b8381101561382757808201518184015260208101905061380c565b83811115613836576000848401525b50505050565b6000613847826137ed565b61385181856137f8565b9350613861818560208601613809565b61386a81613668565b840191505092915050565b6000819050919050565b61388881613875565b82525050565b60006101808301600083015184820360008601526138ac828261383c565b915050602083015184820360208601526138c6828261383c565b915050604083015184820360408601526138e0828261383c565b91505060608301516138f5606086018261387f565b506080830151613908608086018261387f565b5060a083015161391b60a086018261387f565b5060c083015184820360c0860152613933828261383c565b91505060e083015184820360e086015261394d828261383c565b915050610100830151848203610100860152613969828261383c565b915050610120830151848203610120860152613985828261383c565b9150506101408301518482036101408601526139a1828261383c565b9150506101608301518482036101608601526139bd828261383c565b9150508091505092915050565b600060208201905081810360008301526139e4818461388e565b905092915050565b600080fd5b600080fd5b60008083601f840112613a0c57613a0b61365e565b5b8235905067ffffffffffffffff811115613a2957613a286139ec565b5b602083019150836001820283011115613a4557613a446139f1565b5b9250929050565b60008083601f840112613a6257613a6161365e565b5b8235905067ffffffffffffffff811115613a7f57613a7e6139ec565b5b602083019150836020820283011115613a9b57613a9a6139f1565b5b9250929050565b60008060008060008060608789031215613abf57613abe613654565b5b600087013567ffffffffffffffff811115613add57613adc613659565b5b613ae989828a016139f6565b9650965050602087013567ffffffffffffffff811115613b0c57613b0b613659565b5b613b1889828a01613a4c565b9450945050604087013567ffffffffffffffff811115613b3b57613b3a613659565b5b613b4789828a01613a4c565b92509250509295509295509295565b600081519050919050565b600082825260208201905092915050565b6000819050602082019050919050565b6000610180830160008301518482036000860152613ba0828261383c565b91505060208301518482036020860152613bba828261383c565b91505060408301518482036040860152613bd4828261383c565b9150506060830151613be9606086018261387f565b506080830151613bfc608086018261387f565b5060a0830151613c0f60a086018261387f565b5060c083015184820360c0860152613c27828261383c565b91505060e083015184820360e0860152613c41828261383c565b915050610100830151848203610100860152613c5d828261383c565b915050610120830151848203610120860152613c79828261383c565b915050610140830151848203610140860152613c95828261383c565b915050610160830151848203610160860152613cb1828261383c565b9150508091505092915050565b6000613cca8383613b82565b905092915050565b6000602082019050919050565b6000613cea82613b56565b613cf48185613b61565b935083602082028501613d0685613b72565b8060005b85811015613d425784840389528151613d238582613cbe565b9450613d2e83613cd2565b925060208a01995050600181019050613d0a565b50829750879550505050505092915050565b60006020820190508181036000830152613d6e8184613cdf565b905092915050565b613d7f81613875565b82525050565b6000602082019050613d9a6000830184613d76565b92915050565b600073ffffffffffffffffffffffffffffffffffffffff82169050919050565b6000613dcb82613da0565b9050919050565b613ddb81613dc0565b8114613de657600080fd5b50565b600081359050613df881613dd2565b92915050565b60008060408385031215613e1557613e14613654565b5b6000613e2385828601613de9565b925050602083013567ffffffffffffffff811115613e4457613e43613659565b5b613e5085828601613776565b9150509250929050565b613e6381613dc0565b82525050565b6000602082019050613e7e6000830184613e5a565b92915050565b600060208284031215613e9a57613e99613654565b5b6000613ea884828501613de9565b91505092915050565b600082825260208201905092915050565b6000613ecd826137ed565b613ed78185613eb1565b9350613ee7818560208601613809565b613ef081613668565b840191505092915050565b60006020820190508181036000830152613f158184613ec2565b905092915050565b613f2681613875565b8114613f3157600080fd5b50565b600081359050613f4381613f1d565b92915050565b600060208284031215613f5f57613f5e613654565b5b6000613f6d84828501613f34565b91505092915050565b6000610180820190508181036000830152613f91818f613ec2565b90508181036020830152613fa5818e613ec2565b90508181036040830152613fb9818d613ec2565b9050613fc8606083018c613d76565b613fd5608083018b613d76565b613fe260a083018a613d76565b81810360c0830152613ff48189613ec2565b905081810360e08301526140088188613ec2565b905081810361010083015261401d8187613ec2565b90508181036101208301526140328186613ec2565b90508181036101408301526140478185613ec2565b905081810361016083015261405c8184613ec2565b90509d9c50505050505050505050505050565b6000806000806080858703121561408957614088613654565b5b600085013567ffffffffffffffff8111156140a7576140a6613659565b5b6140b387828801613776565b94505060206140c487828801613f34565b93505060406140d587828801613f34565b925050606085013567ffffffffffffffff8111156140f6576140f5613659565b5b61410287828801613776565b91505092959194509250565b600081905092915050565b7f5300000000000000000000000000000000000000000000000000000000000000600082015250565b600061414f60018361410e565b915061415a82614119565b600182019050919050565b600061417082614142565b9150819050919050565b6000614185826137ed565b61418f818561410e565b935061419f818560208601613809565b80840191505092915050565b60006141b7828461417a565b915081905092915050565b7f4e487b7100000000000000000000000000000000000000000000000000000000600052602260045260246000fd5b6000600282049050600182168061420957607f821691505b6020821081141561421d5761421c6141c2565b5b50919050565b50565b600061423360008361410e565b915061423e82614223565b600082019050919050565b600061425482614226565b9150819050919050565b60008190508160005260206000209050919050565b60008154614280816141f1565b61428a818661410e565b945060018216600081146142a557600181146142b6576142e9565b60ff198316865281860193506142e9565b6142bf8561425e565b60005b838110156142e1578154818901526001820191506020810190506142c2565b838801955050505b50505092915050565b60006142fe8284614273565b915081905092915050565b7f596f7520617265206e6f742070617274206f66207465616d2079657420212100600082015250565b600061433f601f83613eb1565b915061434a82614309565b602082019050919050565b6000602082019050818103600083015261436e81614332565b9050919050565b7f5374617475730000000000000000000000000000000000000000000000000000600082015250565b60006143ab60068361410e565b91506143b682614375565b600682019050919050565b60006143cc8261439e565b9150819050919050565b7f4e487b7100000000000000000000000000000000000000000000000000000000600052603260045260246000fd5b600080fd5b600080fd5b600080fd5b6000808335600160200384360303811261443157614430614405565b5b80840192508235915067ffffffffffffffff8211156144535761445261440a565b5b60208301925060018202360383131561446f5761446e61440f565b5b509250929050565b6000614483838561410e565b9350614490838584613725565b82840190509392505050565b60006144a9828486614477565b91508190509392505050565b7f437573746f6d65722046696e616c2044656c6976657279204461746500000000600082015250565b60006144eb601c8361410e565b91506144f6826144b5565b601c82019050919050565b600061450c826144de565b9150819050919050565b7f426172436f646500000000000000000000000000000000000000000000000000600082015250565b600061454c60078361410e565b915061455782614516565b600782019050919050565b600061456d8261453f565b9150819050919050565b7f42617463684e6f00000000000000000000000000000000000000000000000000600082015250565b60006145ad60078361410e565b91506145b882614577565b600782019050919050565b60006145ce826145a0565b9150819050919050565b7f4d6173746572204c6162656c0000000000000000000000000000000000000000600082015250565b600061460e600c8361410e565b9150614619826145d8565b600c82019050919050565b600061462f82614601565b9150819050919050565b7f496e766f69636520506174680000000000000000000000000000000000000000600082015250565b600061466f600c8361410e565b915061467a82614639565b600c82019050919050565b600061469082614662565b9150819050919050565b7f547261636b696e67204e6f000000000000000000000000000000000000000000600082015250565b60006146d0600b8361410e565b91506146db8261469a565b600b82019050919050565b60006146f1826146c3565b9150819050919050565b7f4e487b7100000000000000000000000000000000000000000000000000000000600052601160045260246000fd5b600061473582613875565b91507fffffffffffffffffffffffffffffffffffffffffffffffffffffffffffffffff821415614768576147676146fb565b5b600182019050919050565b7f53616c657320526570726573656e746174697665000000000000000000000000600082015250565b60006147a960148361410e565b91506147b482614773565b601482019050919050565b60006147ca8261479c565b9150819050919050565b7f596f7520617265206e6f7420612053616c657320526570202121000000000000600082015250565b600061480a601a83613eb1565b9150614815826147d4565b602082019050919050565b60006020820190508181036000830152614839816147fd565b9050919050565b600061484b82613875565b915061485683613875565b925082821015614869576148686146fb565b5b828203905092915050565b7f534f000000000000000000000000000000000000000000000000000000000000815250565b60006148a582614874565b6002820191506148b5828461417a565b915081905092915050565b60006148cb82613875565b91506148d683613875565b9250827fffffffffffffffffffffffffffffffffffffffffffffffffffffffffffffffff0382111561490b5761490a6146fb565b5b828201905092915050565b60008160011c9050919050565b6000808291508390505b600185111561496d57808604811115614949576149486146fb565b5b60018516156149585780820291505b808102905061496685614916565b945061492d565b94509492505050565b6000826149865760019050614a42565b816149945760009050614a42565b81600181146149aa57600281146149b4576149e3565b6001915050614a42565b60ff8411156149c6576149c56146fb565b5b8360020a9150848211156149dd576149dc6146fb565b5b50614a42565b5060208310610133831016604e8410600b8410161715614a185782820a905083811115614a1357614a126146fb565b5b614a42565b614a258484846001614923565b92509050818404811115614a3c57614a3b6146fb565b5b81810290505b9392505050565b6000614a5482613875565b9150614a5f83613875565b9250614a8c7fffffffffffffffffffffffffffffffffffffffffffffffffffffffffffffffff8484614976565b905092915050565b6000614a9f82613875565b9150614aaa83613875565b9250817fffffffffffffffffffffffffffffffffffffffffffffffffffffffffffffffff0483118215151615614ae357614ae26146fb565b5b828202905092915050565b7f4e756c6c206163636f756e7420697320636f6d696e672066726f6d2066726f6e60008201527f742d656e64202121000000000000000000000000000000000000000000000000602082015250565b6000614b4a602883613eb1565b9150614b5582614aee565b604082019050919050565b60006020820190508181036000830152614b7981614b3d565b9050919050565b7f4f776e61626c653a206e6577206f776e657220697320746865207a65726f206160008201527f6464726573730000000000000000000000000000000000000000000000000000602082015250565b6000614bdc602683613eb1565b9150614be782614b80565b604082019050919050565b60006020820190508181036000830152614c0b81614bcf565b9050919050565b7f504f000000000000000000000000000000000000000000000000000000000000815250565b6000614c4382614c12565b600282019150614c53828461417a565b915081905092915050565b7f4e487b7100000000000000000000000000000000000000000000000000000000600052601260045260246000fd5b7f4f776e61626c653a2063616c6c6572206973206e6f7420746865206f776e6572600082015250565b6000614cc3602083613eb1565b9150614cce82614c8d565b602082019050919050565b60006020820190508181036000830152614cf281614cb6565b905091905056fea2646970667358221220834176be3e88ec3597085e0d099adfbc003c7fc9b7a2d36f04dc1012e444d12364736f6c634300080c0033",
  "linkReferences": {},
  "deployedLinkReferences": {}
}