{
  "_format": "hh-sol-artifact-1",
  "contractName": "SupplyChain",
  "sourceName": "contracts/SupplyChain.sol",
  "abi": [
    {
      "inputs": [],
      "stateMutability": "nonpayable",
      "type": "constructor"
    },
    {
      "anonymous": false,
      "inputs": [
        {
          "indexed": false,
          "internalType": "string",
          "name": "_soId",
          "type": "string"
        }
      ],
      "name": "GetSoID",
      "type": "event"
    },
    {
      "anonymous": false,
      "inputs": [
        {
          "indexed": true,
          "internalType": "address",
          "name": "previousOwner",
          "type": "address"
        },
        {
          "indexed": true,
          "internalType": "address",
          "name": "newOwner",
          "type": "address"
        }
      ],
      "name": "OwnershipTransferred",
      "type": "event"
    },
    {
      "inputs": [
        {
          "internalType": "address",
          "name": "_account",
          "type": "address"
        },
        {
          "internalType": "string",
          "name": "role",
          "type": "string"
        }
      ],
      "name": "addRole",
      "outputs": [],
      "stateMutability": "nonpayable",
      "type": "function"
    },
    {
      "inputs": [
        {
          "internalType": "string",
          "name": "_prodName",
          "type": "string"
        },
        {
          "internalType": "uint256",
          "name": "_qty",
          "type": "uint256"
        },
        {
          "internalType": "uint256",
          "name": "_ordrVal",
          "type": "uint256"
        },
        {
          "internalType": "string",
          "name": "_status",
          "type": "string"
        }
      ],
      "name": "createOrder",
      "outputs": [],
      "stateMutability": "nonpayable",
      "type": "function"
    },
    {
      "inputs": [],
      "name": "getAllOrderDetails",
      "outputs": [
        {
          "components": [
            {
              "internalType": "string",
              "name": "SoID",
              "type": "string"
            },
            {
              "internalType": "string",
              "name": "PoID",
              "type": "string"
            },
            {
              "internalType": "string",
              "name": "prodName",
              "type": "string"
            },
            {
              "internalType": "uint256",
              "name": "qty",
              "type": "uint256"
            },
            {
              "internalType": "uint256",
              "name": "orderValue",
              "type": "uint256"
            },
            {
              "internalType": "uint256",
              "name": "customerFinalDeliveryDate",
              "type": "uint256"
            },
            {
              "internalType": "string",
              "name": "status",
              "type": "string"
            },
            {
              "internalType": "string",
              "name": "barCode",
              "type": "string"
            },
            {
              "internalType": "string",
              "name": "batchNo",
              "type": "string"
            },
            {
              "internalType": "string",
              "name": "masterLabel",
              "type": "string"
            },
            {
              "internalType": "string",
              "name": "invoicePath",
              "type": "string"
            },
            {
              "internalType": "string",
              "name": "trackingNo",
              "type": "string"
            }
          ],
          "internalType": "struct SupplyChain.Order[]",
          "name": "",
          "type": "tuple[]"
        }
      ],
      "stateMutability": "view",
      "type": "function"
    },
    {
      "inputs": [
        {
          "internalType": "string",
          "name": "_soOrPo",
          "type": "string"
        }
      ],
      "name": "getOrderDetails",
      "outputs": [
        {
          "components": [
            {
              "internalType": "string",
              "name": "SoID",
              "type": "string"
            },
            {
              "internalType": "string",
              "name": "PoID",
              "type": "string"
            },
            {
              "internalType": "string",
              "name": "prodName",
              "type": "string"
            },
            {
              "internalType": "uint256",
              "name": "qty",
              "type": "uint256"
            },
            {
              "internalType": "uint256",
              "name": "orderValue",
              "type": "uint256"
            },
            {
              "internalType": "uint256",
              "name": "customerFinalDeliveryDate",
              "type": "uint256"
            },
            {
              "internalType": "string",
              "name": "status",
              "type": "string"
            },
            {
              "internalType": "string",
              "name": "barCode",
              "type": "string"
            },
            {
              "internalType": "string",
              "name": "batchNo",
              "type": "string"
            },
            {
              "internalType": "string",
              "name": "masterLabel",
              "type": "string"
            },
            {
              "internalType": "string",
              "name": "invoicePath",
              "type": "string"
            },
            {
              "internalType": "string",
              "name": "trackingNo",
              "type": "string"
            }
          ],
          "internalType": "struct SupplyChain.Order",
          "name": "",
          "type": "tuple"
        }
      ],
      "stateMutability": "view",
      "type": "function"
    },
    {
      "inputs": [],
      "name": "getRole",
      "outputs": [
        {
          "internalType": "string",
          "name": "",
          "type": "string"
        }
      ],
      "stateMutability": "view",
      "type": "function"
    },
    {
      "inputs": [],
      "name": "getcurrentSOId",
      "outputs": [
        {
          "internalType": "string",
          "name": "",
          "type": "string"
        }
      ],
      "stateMutability": "view",
      "type": "function"
    },
    {
      "inputs": [
        {
          "internalType": "string",
          "name": "",
          "type": "string"
        }
      ],
      "name": "orderData",
      "outputs": [
        {
          "internalType": "string",
          "name": "SoID",
          "type": "string"
        },
        {
          "internalType": "string",
          "name": "PoID",
          "type": "string"
        },
        {
          "internalType": "string",
          "name": "prodName",
          "type": "string"
        },
        {
          "internalType": "uint256",
          "name": "qty",
          "type": "uint256"
        },
        {
          "internalType": "uint256",
          "name": "orderValue",
          "type": "uint256"
        },
        {
          "internalType": "uint256",
          "name": "customerFinalDeliveryDate",
          "type": "uint256"
        },
        {
          "internalType": "string",
          "name": "status",
          "type": "string"
        },
        {
          "internalType": "string",
          "name": "barCode",
          "type": "string"
        },
        {
          "internalType": "string",
          "name": "batchNo",
          "type": "string"
        },
        {
          "internalType": "string",
          "name": "masterLabel",
          "type": "string"
        },
        {
          "internalType": "string",
          "name": "invoicePath",
          "type": "string"
        },
        {
          "internalType": "string",
          "name": "trackingNo",
          "type": "string"
        }
      ],
      "stateMutability": "view",
      "type": "function"
    },
    {
      "inputs": [
        {
          "internalType": "uint256",
          "name": "",
          "type": "uint256"
        }
      ],
      "name": "orders",
      "outputs": [
        {
          "internalType": "string",
          "name": "SoID",
          "type": "string"
        },
        {
          "internalType": "string",
          "name": "PoID",
          "type": "string"
        },
        {
          "internalType": "string",
          "name": "prodName",
          "type": "string"
        },
        {
          "internalType": "uint256",
          "name": "qty",
          "type": "uint256"
        },
        {
          "internalType": "uint256",
          "name": "orderValue",
          "type": "uint256"
        },
        {
          "internalType": "uint256",
          "name": "customerFinalDeliveryDate",
          "type": "uint256"
        },
        {
          "internalType": "string",
          "name": "status",
          "type": "string"
        },
        {
          "internalType": "string",
          "name": "barCode",
          "type": "string"
        },
        {
          "internalType": "string",
          "name": "batchNo",
          "type": "string"
        },
        {
          "internalType": "string",
          "name": "masterLabel",
          "type": "string"
        },
        {
          "internalType": "string",
          "name": "invoicePath",
          "type": "string"
        },
        {
          "internalType": "string",
          "name": "trackingNo",
          "type": "string"
        }
      ],
      "stateMutability": "view",
      "type": "function"
    },
    {
      "inputs": [],
      "name": "owner",
      "outputs": [
        {
          "internalType": "address",
          "name": "",
          "type": "address"
        }
      ],
      "stateMutability": "view",
      "type": "function"
    },
    {
      "inputs": [],
      "name": "renounceOwnership",
      "outputs": [],
      "stateMutability": "nonpayable",
      "type": "function"
    },
    {
      "inputs": [
        {
          "internalType": "address",
          "name": "",
          "type": "address"
        }
      ],
      "name": "roles",
      "outputs": [
        {
          "internalType": "string",
          "name": "",
          "type": "string"
        }
      ],
      "stateMutability": "view",
      "type": "function"
    },
    {
      "inputs": [
        {
          "internalType": "string",
          "name": "numString",
          "type": "string"
        }
      ],
      "name": "st2num",
      "outputs": [
        {
          "internalType": "uint256",
          "name": "",
          "type": "uint256"
        }
      ],
      "stateMutability": "pure",
      "type": "function"
    },
    {
      "inputs": [
        {
          "internalType": "address",
          "name": "newOwner",
          "type": "address"
        }
      ],
      "name": "transferOwnership",
      "outputs": [],
      "stateMutability": "nonpayable",
      "type": "function"
    },
    {
      "inputs": [
        {
          "internalType": "string",
          "name": "_so",
          "type": "string"
        },
        {
          "internalType": "string[]",
          "name": "colName",
          "type": "string[]"
        },
        {
          "internalType": "string[]",
          "name": "_value",
          "type": "string[]"
        }
      ],
      "name": "update",
      "outputs": [],
      "stateMutability": "nonpayable",
      "type": "function"
    }
  ],
  "bytecode": "0x60806040523480156200001157600080fd5b5062000032620000266200004a60201b60201c565b6200005260201b60201c565b61409460018190555061409460028190555062000116565b600033905090565b60008060009054906101000a900473ffffffffffffffffffffffffffffffffffffffff169050816000806101000a81548173ffffffffffffffffffffffffffffffffffffffff021916908373ffffffffffffffffffffffffffffffffffffffff1602179055508173ffffffffffffffffffffffffffffffffffffffff168173ffffffffffffffffffffffffffffffffffffffff167f8be0079c531659141344cd1fd0a4f28419497f9722a3daafe3b4186f6b6457e060405160405180910390a35050565b614cce80620001266000396000f3fe608060405234801561001057600080fd5b50600436106100ea5760003560e01c8063993746421161008c578063e393f26311610066578063e393f26314610256578063f2fde38b14610291578063fb0a9a6d146102ad578063fde08174146102c9576100ea565b806399374642146101cd578063a85c38ef146101fd578063d76d89fb14610238576100ea565b8063715018a6116100c8578063715018a61461015957806379cd9055146101635780637d72aa65146101935780638da5cb5b146101af576100ea565b80634fbb487c146100ef5780635a5538551461011f5780636bc184b41461013b575b600080fd5b61010960048036038101906101049190613743565b6102e7565b6040516101169190613969565b60405180910390f35b61013960048036038101906101349190613a41565b610e34565b005b61014361152a565b6040516101509190613cf3565b60405180910390f35b610161611b8c565b005b61017d60048036038101906101789190613743565b611ba0565b60405161018a9190613d24565b60405180910390f35b6101ad60048036038101906101a89190613d9d565b611c5a565b005b6101b7611d2c565b6040516101c49190613e08565b60405180910390f35b6101e760048036038101906101e29190613e23565b611d55565b6040516101f49190613e9a565b60405180910390f35b61021760048036038101906102129190613ee8565b611df5565b60405161022f9c9b9a99989796959493929190613f15565b60405180910390f35b61024061232d565b60405161024d9190613e9a565b60405180910390f35b610270600480360381019061026b9190613743565b61235e565b6040516102889c9b9a99989796959493929190613f15565b60405180910390f35b6102ab60048036038101906102a69190613e23565b61289c565b005b6102c760048036038101906102c2919061400e565b612920565b005b6102d1612dd9565b6040516102de9190613e9a565b60405180910390f35b6102ef61345f565b6040516020016102fe90614104565b6040516020818303038152906040528051906020012061031d83612ea8565b60405160200161032d919061414a565b6040516020818303038152906040528051906020012014156108ba57600382604051610359919061414a565b90815260200160405180910390206040518061018001604052908160008201805461038390614190565b80601f01602080910402602001604051908101604052809291908181526020018280546103af90614190565b80156103fc5780601f106103d1576101008083540402835291602001916103fc565b820191906000526020600020905b8154815290600101906020018083116103df57829003601f168201915b5050505050815260200160018201805461041590614190565b80601f016020809104026020016040519081016040528092919081815260200182805461044190614190565b801561048e5780601f106104635761010080835404028352916020019161048e565b820191906000526020600020905b81548152906001019060200180831161047157829003601f168201915b505050505081526020016002820180546104a790614190565b80601f01602080910402602001604051908101604052809291908181526020018280546104d390614190565b80156105205780601f106104f557610100808354040283529160200191610520565b820191906000526020600020905b81548152906001019060200180831161050357829003601f168201915b5050505050815260200160038201548152602001600482015481526020016005820154815260200160068201805461055790614190565b80601f016020809104026020016040519081016040528092919081815260200182805461058390614190565b80156105d05780601f106105a5576101008083540402835291602001916105d0565b820191906000526020600020905b8154815290600101906020018083116105b357829003601f168201915b505050505081526020016007820180546105e990614190565b80601f016020809104026020016040519081016040528092919081815260200182805461061590614190565b80156106625780601f1061063757610100808354040283529160200191610662565b820191906000526020600020905b81548152906001019060200180831161064557829003601f168201915b5050505050815260200160088201805461067b90614190565b80601f01602080910402602001604051908101604052809291908181526020018280546106a790614190565b80156106f45780601f106106c9576101008083540402835291602001916106f4565b820191906000526020600020905b8154815290600101906020018083116106d757829003601f168201915b5050505050815260200160098201805461070d90614190565b80601f016020809104026020016040519081016040528092919081815260200182805461073990614190565b80156107865780601f1061075b57610100808354040283529160200191610786565b820191906000526020600020905b81548152906001019060200180831161076957829003601f168201915b50505050508152602001600a8201805461079f90614190565b80601f01602080910402602001604051908101604052809291908181526020018280546107cb90614190565b80156108185780601f106107ed57610100808354040283529160200191610818565b820191906000526020600020905b8154815290600101906020018083116107fb57829003601f168201915b50505050508152602001600b8201805461083190614190565b80601f016020809104026020016040519081016040528092919081815260200182805461085d90614190565b80156108aa5780601f1061087f576101008083540402835291602001916108aa565b820191906000526020600020905b81548152906001019060200180831161088d57829003601f168201915b5050505050815250509050610e2f565b60036108c583612f67565b6040516108d2919061414a565b9081526020016040518091039020604051806101800160405290816000820180546108fc90614190565b80601f016020809104026020016040519081016040528092919081815260200182805461092890614190565b80156109755780601f1061094a57610100808354040283529160200191610975565b820191906000526020600020905b81548152906001019060200180831161095857829003601f168201915b5050505050815260200160018201805461098e90614190565b80601f01602080910402602001604051908101604052809291908181526020018280546109ba90614190565b8015610a075780601f106109dc57610100808354040283529160200191610a07565b820191906000526020600020905b8154815290600101906020018083116109ea57829003601f168201915b50505050508152602001600282018054610a2090614190565b80601f0160208091040260200160405190810160405280929190818152602001828054610a4c90614190565b8015610a995780601f10610a6e57610100808354040283529160200191610a99565b820191906000526020600020905b815481529060010190602001808311610a7c57829003601f168201915b50505050508152602001600382015481526020016004820154815260200160058201548152602001600682018054610ad090614190565b80601f0160208091040260200160405190810160405280929190818152602001828054610afc90614190565b8015610b495780601f10610b1e57610100808354040283529160200191610b49565b820191906000526020600020905b815481529060010190602001808311610b2c57829003601f168201915b50505050508152602001600782018054610b6290614190565b80601f0160208091040260200160405190810160405280929190818152602001828054610b8e90614190565b8015610bdb5780601f10610bb057610100808354040283529160200191610bdb565b820191906000526020600020905b815481529060010190602001808311610bbe57829003601f168201915b50505050508152602001600882018054610bf490614190565b80601f0160208091040260200160405190810160405280929190818152602001828054610c2090614190565b8015610c6d5780601f10610c4257610100808354040283529160200191610c6d565b820191906000526020600020905b815481529060010190602001808311610c5057829003601f168201915b50505050508152602001600982018054610c8690614190565b80601f0160208091040260200160405190810160405280929190818152602001828054610cb290614190565b8015610cff5780601f10610cd457610100808354040283529160200191610cff565b820191906000526020600020905b815481529060010190602001808311610ce257829003601f168201915b50505050508152602001600a82018054610d1890614190565b80601f0160208091040260200160405190810160405280929190818152602001828054610d4490614190565b8015610d915780601f10610d6657610100808354040283529160200191610d91565b820191906000526020600020905b815481529060010190602001808311610d7457829003601f168201915b50505050508152602001600b82018054610daa90614190565b80601f0160208091040260200160405190810160405280929190818152602001828054610dd690614190565b8015610e235780601f10610df857610100808354040283529160200191610e23565b820191906000526020600020905b815481529060010190602001808311610e0657829003601f168201915b50505050508152505090505b919050565b604051602001610e43906141e8565b60405160208183030381529060405280519060200120600560003373ffffffffffffffffffffffffffffffffffffffff1673ffffffffffffffffffffffffffffffffffffffff168152602001908152602001600020604051602001610ea89190614291565b604051602081830303815290604052805190602001201415610eff576040517f08c379a0000000000000000000000000000000000000000000000000000000008152600401610ef6906142f4565b60405180910390fd5b60005b8484905081101561152157604051602001610f1c90614360565b60405160208183030381529060405280519060200120858583818110610f4557610f44614375565b5b9050602002810190610f5791906143b3565b604051602001610f6892919061443b565b604051602081830303815290604052805190602001201415610fdf57828282818110610f9757610f96614375565b5b9050602002810190610fa991906143b3565b60038989604051610fbb92919061443b565b90815260200160405180910390206006019190610fd99291906134c0565b5061150e565b604051602001610fee906144a0565b6040516020818303038152906040528051906020012085858381811061101757611016614375565b5b905060200281019061102991906143b3565b60405160200161103a92919061443b565b6040516020818303038152906040528051906020012014156110f2576110c683838381811061106c5761106b614375565b5b905060200281019061107e91906143b3565b8080601f016020809104026020016040519081016040528093929190818152602001838380828437600081840152601f19601f82011690508083019250505050505050611ba0565b600388886040516110d892919061443b565b90815260200160405180910390206005018190555061150d565b60405160200161110190614501565b6040516020818303038152906040528051906020012085858381811061112a57611129614375565b5b905060200281019061113c91906143b3565b60405160200161114d92919061443b565b6040516020818303038152906040528051906020012014156111c45782828281811061117c5761117b614375565b5b905060200281019061118e91906143b3565b600389896040516111a092919061443b565b908152602001604051809103902060070191906111be9291906134c0565b5061150c565b6040516020016111d390614562565b604051602081830303815290604052805190602001208585838181106111fc576111fb614375565b5b905060200281019061120e91906143b3565b60405160200161121f92919061443b565b6040516020818303038152906040528051906020012014156112965782828281811061124e5761124d614375565b5b905060200281019061126091906143b3565b6003898960405161127292919061443b565b908152602001604051809103902060080191906112909291906134c0565b5061150b565b6040516020016112a5906145c3565b604051602081830303815290604052805190602001208585838181106112ce576112cd614375565b5b90506020028101906112e091906143b3565b6040516020016112f192919061443b565b604051602081830303815290604052805190602001201415611368578282828181106113205761131f614375565b5b905060200281019061133291906143b3565b6003898960405161134492919061443b565b908152602001604051809103902060090191906113629291906134c0565b5061150a565b60405160200161137790614624565b604051602081830303815290604052805190602001208585838181106113a05761139f614375565b5b90506020028101906113b291906143b3565b6040516020016113c392919061443b565b60405160208183030381529060405280519060200120141561143a578282828181106113f2576113f1614375565b5b905060200281019061140491906143b3565b6003898960405161141692919061443b565b9081526020016040518091039020600a0191906114349291906134c0565b50611509565b60405160200161144990614685565b6040516020818303038152906040528051906020012085858381811061147257611471614375565b5b905060200281019061148491906143b3565b60405160200161149592919061443b565b604051602081830303815290604052805190602001201415611508578282828181106114c4576114c3614375565b5b90506020028101906114d691906143b3565b600389896040516114e892919061443b565b9081526020016040518091039020600b0191906115069291906134c0565b505b5b5b5b5b5b5b8080611519906146c9565b915050610f02565b50505050505050565b6060600060015490506000806002546001546115469190614712565b67ffffffffffffffff81111561155f5761155e613618565b5b60405190808252806020026020018201604052801561159857816020015b61158561345f565b81526020019060019003908161157d5790505b509050600060025490505b83811015611b8257600060036115b8836130ea565b6040516020016115c8919061476c565b6040516020818303038152906040526040516115e4919061414a565b90815260200160405180910390209050806040518061018001604052908160008201805461161190614190565b80601f016020809104026020016040519081016040528092919081815260200182805461163d90614190565b801561168a5780601f1061165f5761010080835404028352916020019161168a565b820191906000526020600020905b81548152906001019060200180831161166d57829003601f168201915b505050505081526020016001820180546116a390614190565b80601f01602080910402602001604051908101604052809291908181526020018280546116cf90614190565b801561171c5780601f106116f15761010080835404028352916020019161171c565b820191906000526020600020905b8154815290600101906020018083116116ff57829003601f168201915b5050505050815260200160028201805461173590614190565b80601f016020809104026020016040519081016040528092919081815260200182805461176190614190565b80156117ae5780601f10611783576101008083540402835291602001916117ae565b820191906000526020600020905b81548152906001019060200180831161179157829003601f168201915b505050505081526020016003820154815260200160048201548152602001600582015481526020016006820180546117e590614190565b80601f016020809104026020016040519081016040528092919081815260200182805461181190614190565b801561185e5780601f106118335761010080835404028352916020019161185e565b820191906000526020600020905b81548152906001019060200180831161184157829003601f168201915b5050505050815260200160078201805461187790614190565b80601f01602080910402602001604051908101604052809291908181526020018280546118a390614190565b80156118f05780601f106118c5576101008083540402835291602001916118f0565b820191906000526020600020905b8154815290600101906020018083116118d357829003601f168201915b5050505050815260200160088201805461190990614190565b80601f016020809104026020016040519081016040528092919081815260200182805461193590614190565b80156119825780601f1061195757610100808354040283529160200191611982565b820191906000526020600020905b81548152906001019060200180831161196557829003601f168201915b5050505050815260200160098201805461199b90614190565b80601f01602080910402602001604051908101604052809291908181526020018280546119c790614190565b8015611a145780601f106119e957610100808354040283529160200191611a14565b820191906000526020600020905b8154815290600101906020018083116119f757829003601f168201915b50505050508152602001600a82018054611a2d90614190565b80601f0160208091040260200160405190810160405280929190818152602001828054611a5990614190565b8015611aa65780601f10611a7b57610100808354040283529160200191611aa6565b820191906000526020600020905b815481529060010190602001808311611a8957829003601f168201915b50505050508152602001600b82018054611abf90614190565b80601f0160208091040260200160405190810160405280929190818152602001828054611aeb90614190565b8015611b385780601f10611b0d57610100808354040283529160200191611b38565b820191906000526020600020905b815481529060010190602001808311611b1b57829003601f168201915b505050505081525050838581518110611b5457611b53614375565b5b6020026020010181905250600184611b6c9190614792565b9350508080611b7a906146c9565b9150506115a3565b5080935050505090565b611b946131c2565b611b9e6000613240565b565b60008060009050600083905060005b8151811015611c4f576000818351611bc79190614712565b90506000838381518110611bde57611bdd614375565b5b602001015160f81c60f81b905060008160f81c9050600060308260ff16611c059190614712565b9050600184611c149190614712565b600a611c20919061491b565b81611c2b9190614966565b87611c369190614792565b9650505050508080611c47906146c9565b915050611baf565b508192505050919050565b611c626131c2565b81600073ffffffffffffffffffffffffffffffffffffffff168173ffffffffffffffffffffffffffffffffffffffff161415611cd3576040517f08c379a0000000000000000000000000000000000000000000000000000000008152600401611cca90614a32565b60405180910390fd5b81600560008573ffffffffffffffffffffffffffffffffffffffff1673ffffffffffffffffffffffffffffffffffffffff1681526020019081526020016000209080519060200190611d26929190613546565b50505050565b60008060009054906101000a900473ffffffffffffffffffffffffffffffffffffffff16905090565b60056020528060005260406000206000915090508054611d7490614190565b80601f0160208091040260200160405190810160405280929190818152602001828054611da090614190565b8015611ded5780601f10611dc257610100808354040283529160200191611ded565b820191906000526020600020905b815481529060010190602001808311611dd057829003601f168201915b505050505081565b60048181548110611e0557600080fd5b90600052602060002090600c0201600091509050806000018054611e2890614190565b80601f0160208091040260200160405190810160405280929190818152602001828054611e5490614190565b8015611ea15780601f10611e7657610100808354040283529160200191611ea1565b820191906000526020600020905b815481529060010190602001808311611e8457829003601f168201915b505050505090806001018054611eb690614190565b80601f0160208091040260200160405190810160405280929190818152602001828054611ee290614190565b8015611f2f5780601f10611f0457610100808354040283529160200191611f2f565b820191906000526020600020905b815481529060010190602001808311611f1257829003601f168201915b505050505090806002018054611f4490614190565b80601f0160208091040260200160405190810160405280929190818152602001828054611f7090614190565b8015611fbd5780601f10611f9257610100808354040283529160200191611fbd565b820191906000526020600020905b815481529060010190602001808311611fa057829003601f168201915b505050505090806003015490806004015490806005015490806006018054611fe490614190565b80601f016020809104026020016040519081016040528092919081815260200182805461201090614190565b801561205d5780601f106120325761010080835404028352916020019161205d565b820191906000526020600020905b81548152906001019060200180831161204057829003601f168201915b50505050509080600701805461207290614190565b80601f016020809104026020016040519081016040528092919081815260200182805461209e90614190565b80156120eb5780601f106120c0576101008083540402835291602001916120eb565b820191906000526020600020905b8154815290600101906020018083116120ce57829003601f168201915b50505050509080600801805461210090614190565b80601f016020809104026020016040519081016040528092919081815260200182805461212c90614190565b80156121795780601f1061214e57610100808354040283529160200191612179565b820191906000526020600020905b81548152906001019060200180831161215c57829003601f168201915b50505050509080600901805461218e90614190565b80601f01602080910402602001604051908101604052809291908181526020018280546121ba90614190565b80156122075780601f106121dc57610100808354040283529160200191612207565b820191906000526020600020905b8154815290600101906020018083116121ea57829003601f168201915b50505050509080600a01805461221c90614190565b80601f016020809104026020016040519081016040528092919081815260200182805461224890614190565b80156122955780601f1061226a57610100808354040283529160200191612295565b820191906000526020600020905b81548152906001019060200180831161227857829003601f168201915b50505050509080600b0180546122aa90614190565b80601f01602080910402602001604051908101604052809291908181526020018280546122d690614190565b80156123235780601f106122f857610100808354040283529160200191612323565b820191906000526020600020905b81548152906001019060200180831161230657829003601f168201915b505050505090508c565b606061233a6001546130ea565b60405160200161234a919061476c565b604051602081830303815290604052905090565b60038180516020810182018051848252602083016020850120818352809550505050505060009150905080600001805461239790614190565b80601f01602080910402602001604051908101604052809291908181526020018280546123c390614190565b80156124105780601f106123e557610100808354040283529160200191612410565b820191906000526020600020905b8154815290600101906020018083116123f357829003601f168201915b50505050509080600101805461242590614190565b80601f016020809104026020016040519081016040528092919081815260200182805461245190614190565b801561249e5780601f106124735761010080835404028352916020019161249e565b820191906000526020600020905b81548152906001019060200180831161248157829003601f168201915b5050505050908060020180546124b390614190565b80601f01602080910402602001604051908101604052809291908181526020018280546124df90614190565b801561252c5780601f106125015761010080835404028352916020019161252c565b820191906000526020600020905b81548152906001019060200180831161250f57829003601f168201915b50505050509080600301549080600401549080600501549080600601805461255390614190565b80601f016020809104026020016040519081016040528092919081815260200182805461257f90614190565b80156125cc5780601f106125a1576101008083540402835291602001916125cc565b820191906000526020600020905b8154815290600101906020018083116125af57829003601f168201915b5050505050908060070180546125e190614190565b80601f016020809104026020016040519081016040528092919081815260200182805461260d90614190565b801561265a5780601f1061262f5761010080835404028352916020019161265a565b820191906000526020600020905b81548152906001019060200180831161263d57829003601f168201915b50505050509080600801805461266f90614190565b80601f016020809104026020016040519081016040528092919081815260200182805461269b90614190565b80156126e85780601f106126bd576101008083540402835291602001916126e8565b820191906000526020600020905b8154815290600101906020018083116126cb57829003601f168201915b5050505050908060090180546126fd90614190565b80601f016020809104026020016040519081016040528092919081815260200182805461272990614190565b80156127765780601f1061274b57610100808354040283529160200191612776565b820191906000526020600020905b81548152906001019060200180831161275957829003601f168201915b50505050509080600a01805461278b90614190565b80601f01602080910402602001604051908101604052809291908181526020018280546127b790614190565b80156128045780601f106127d957610100808354040283529160200191612804565b820191906000526020600020905b8154815290600101906020018083116127e757829003601f168201915b50505050509080600b01805461281990614190565b80601f016020809104026020016040519081016040528092919081815260200182805461284590614190565b80156128925780601f1061286757610100808354040283529160200191612892565b820191906000526020600020905b81548152906001019060200180831161287557829003601f168201915b505050505090508c565b6128a46131c2565b600073ffffffffffffffffffffffffffffffffffffffff168173ffffffffffffffffffffffffffffffffffffffff161415612914576040517f08c379a000000000000000000000000000000000000000000000000000000000815260040161290b90614ac4565b60405180910390fd5b61291d81613240565b50565b60405160200161292f90614b30565b60405160208183030381529060405280519060200120600560003373ffffffffffffffffffffffffffffffffffffffff1673ffffffffffffffffffffffffffffffffffffffff1681526020019081526020016000206040516020016129949190614291565b60405160208183030381529060405280519060200120146129ea576040517f08c379a00000000000000000000000000000000000000000000000000000000081526004016129e190614b91565b60405180910390fd5b60006129f76001546130ea565b604051602001612a07919061476c565b60405160208183030381529060405290506000604051806101800160405280838152602001612a376001546130ea565b604051602001612a479190614bd7565b60405160208183030381529060405281526020018781526020018681526020018581526020016000815260200184815260200160405180602001604052806000815250815260200160405180602001604052806000815250815260200160405180602001604052806000815250815260200160405180602001604052806000815250815260200160405180602001604052806000815250815250905060048190806001815401808255809150506001900390600052602060002090600c02016000909190919091506000820151816000019080519060200190612b2b929190613546565b506020820151816001019080519060200190612b48929190613546565b506040820151816002019080519060200190612b65929190613546565b50606082015181600301556080820151816004015560a0820151816005015560c0820151816006019080519060200190612ba0929190613546565b5060e0820151816007019080519060200190612bbd929190613546565b50610100820151816008019080519060200190612bdb929190613546565b50610120820151816009019080519060200190612bf9929190613546565b5061014082015181600a019080519060200190612c17929190613546565b5061016082015181600b019080519060200190612c35929190613546565b50505080600383604051612c49919061414a565b90815260200160405180910390206000820151816000019080519060200190612c73929190613546565b506020820151816001019080519060200190612c90929190613546565b506040820151816002019080519060200190612cad929190613546565b50606082015181600301556080820151816004015560a0820151816005015560c0820151816006019080519060200190612ce8929190613546565b5060e0820151816007019080519060200190612d05929190613546565b50610100820151816008019080519060200190612d23929190613546565b50610120820151816009019080519060200190612d41929190613546565b5061014082015181600a019080519060200190612d5f929190613546565b5061016082015181600b019080519060200190612d7d929190613546565b509050506001806000828254612d939190614792565b925050819055507f1b21032942411443543e7923f2da271066ad99511aa6ffcda3bb43030b9157d482604051612dc99190613e9a565b60405180910390a1505050505050565b6060600560003373ffffffffffffffffffffffffffffffffffffffff1673ffffffffffffffffffffffffffffffffffffffff1681526020019081526020016000208054612e2590614190565b80601f0160208091040260200160405190810160405280929190818152602001828054612e5190614190565b8015612e9e5780601f10612e7357610100808354040283529160200191612e9e565b820191906000526020600020905b815481529060010190602001808311612e8157829003601f168201915b5050505050905090565b60606000600167ffffffffffffffff811115612ec757612ec6613618565b5b6040519080825280601f01601f191660200182016040528015612ef95781602001600182028036833780820191505090505b50905082600081518110612f1057612f0f614375565b5b602001015160f81c60f81b81600081518110612f2f57612f2e614375565b5b60200101907effffffffffffffffffffffffffffffffffffffffffffffffffffffffffffff1916908160001a90535080915050919050565b606060008290506000815167ffffffffffffffff811115612f8b57612f8a613618565b5b6040519080825280601f01601f191660200182016040528015612fbd5781602001600182028036833780820191505090505b50905060005b82518110156130df57828181518110612fdf57612fde614375565b5b602001015160f81c60f81b828281518110612ffd57612ffc614375565b5b60200101907effffffffffffffffffffffffffffffffffffffffffffffffffffffffffffff1916908160001a90535060008114156130cc576040518060400160405280600181526020017f530000000000000000000000000000000000000000000000000000000000000081525060008151811061307e5761307d614375565b5b602001015160f81c60f81b82828151811061309c5761309b614375565b5b60200101907effffffffffffffffffffffffffffffffffffffffffffffffffffffffffffff1916908160001a9053505b80806130d7906146c9565b915050612fc3565b508092505050919050565b6060600060016130f984613304565b01905060008167ffffffffffffffff81111561311857613117613618565b5b6040519080825280601f01601f19166020018201604052801561314a5781602001600182028036833780820191505090505b509050600082602001820190505b6001156131b7578080600190039150507f3031323334353637383961626364656600000000000000000000000000000000600a86061a8153600a85816131a1576131a0614bfd565b5b04945060008514156131b2576131b7565b613158565b819350505050919050565b6131ca613457565b73ffffffffffffffffffffffffffffffffffffffff166131e8611d2c565b73ffffffffffffffffffffffffffffffffffffffff161461323e576040517f08c379a000000000000000000000000000000000000000000000000000000000815260040161323590614c78565b60405180910390fd5b565b60008060009054906101000a900473ffffffffffffffffffffffffffffffffffffffff169050816000806101000a81548173ffffffffffffffffffffffffffffffffffffffff021916908373ffffffffffffffffffffffffffffffffffffffff1602179055508173ffffffffffffffffffffffffffffffffffffffff168173ffffffffffffffffffffffffffffffffffffffff167f8be0079c531659141344cd1fd0a4f28419497f9722a3daafe3b4186f6b6457e060405160405180910390a35050565b600080600090507a184f03e93ff9f4daa797ed6e38ed64bf6a1f0100000000000000008310613362577a184f03e93ff9f4daa797ed6e38ed64bf6a1f010000000000000000838161335857613357614bfd565b5b0492506040810190505b6d04ee2d6d415b85acef8100000000831061339f576d04ee2d6d415b85acef8100000000838161339557613394614bfd565b5b0492506020810190505b662386f26fc1000083106133ce57662386f26fc1000083816133c4576133c3614bfd565b5b0492506010810190505b6305f5e10083106133f7576305f5e10083816133ed576133ec614bfd565b5b0492506008810190505b612710831061341c57612710838161341257613411614bfd565b5b0492506004810190505b6064831061343f576064838161343557613434614bfd565b5b0492506002810190505b600a831061344e576001810190505b80915050919050565b600033905090565b6040518061018001604052806060815260200160608152602001606081526020016000815260200160008152602001600081526020016060815260200160608152602001606081526020016060815260200160608152602001606081525090565b8280546134cc90614190565b90600052602060002090601f0160209004810192826134ee5760008555613535565b82601f1061350757803560ff1916838001178555613535565b82800160010185558215613535579182015b82811115613534578235825591602001919060010190613519565b5b50905061354291906135cc565b5090565b82805461355290614190565b90600052602060002090601f01602090048101928261357457600085556135bb565b82601f1061358d57805160ff19168380011785556135bb565b828001600101855582156135bb579182015b828111156135ba57825182559160200191906001019061359f565b5b5090506135c891906135cc565b5090565b5b808211156135e55760008160009055506001016135cd565b5090565b6000604051905090565b600080fd5b600080fd5b600080fd5b600080fd5b6000601f19601f8301169050919050565b7f4e487b7100000000000000000000000000000000000000000000000000000000600052604160045260246000fd5b61365082613607565b810181811067ffffffffffffffff8211171561366f5761366e613618565b5b80604052505050565b60006136826135e9565b905061368e8282613647565b919050565b600067ffffffffffffffff8211156136ae576136ad613618565b5b6136b782613607565b9050602081019050919050565b82818337600083830152505050565b60006136e66136e184613693565b613678565b90508281526020810184848401111561370257613701613602565b5b61370d8482856136c4565b509392505050565b600082601f83011261372a576137296135fd565b5b813561373a8482602086016136d3565b91505092915050565b600060208284031215613759576137586135f3565b5b600082013567ffffffffffffffff811115613777576137766135f8565b5b61378384828501613715565b91505092915050565b600081519050919050565b600082825260208201905092915050565b60005b838110156137c65780820151818401526020810190506137ab565b838111156137d5576000848401525b50505050565b60006137e68261378c565b6137f08185613797565b93506138008185602086016137a8565b61380981613607565b840191505092915050565b6000819050919050565b61382781613814565b82525050565b600061018083016000830151848203600086015261384b82826137db565b9150506020830151848203602086015261386582826137db565b9150506040830151848203604086015261387f82826137db565b9150506060830151613894606086018261381e565b5060808301516138a7608086018261381e565b5060a08301516138ba60a086018261381e565b5060c083015184820360c08601526138d282826137db565b91505060e083015184820360e08601526138ec82826137db565b91505061010083015184820361010086015261390882826137db565b91505061012083015184820361012086015261392482826137db565b91505061014083015184820361014086015261394082826137db565b91505061016083015184820361016086015261395c82826137db565b9150508091505092915050565b60006020820190508181036000830152613983818461382d565b905092915050565b600080fd5b600080fd5b60008083601f8401126139ab576139aa6135fd565b5b8235905067ffffffffffffffff8111156139c8576139c761398b565b5b6020830191508360018202830111156139e4576139e3613990565b5b9250929050565b60008083601f840112613a0157613a006135fd565b5b8235905067ffffffffffffffff811115613a1e57613a1d61398b565b5b602083019150836020820283011115613a3a57613a39613990565b5b9250929050565b60008060008060008060608789031215613a5e57613a5d6135f3565b5b600087013567ffffffffffffffff811115613a7c57613a7b6135f8565b5b613a8889828a01613995565b9650965050602087013567ffffffffffffffff811115613aab57613aaa6135f8565b5b613ab789828a016139eb565b9450945050604087013567ffffffffffffffff811115613ada57613ad96135f8565b5b613ae689828a016139eb565b92509250509295509295509295565b600081519050919050565b600082825260208201905092915050565b6000819050602082019050919050565b6000610180830160008301518482036000860152613b3f82826137db565b91505060208301518482036020860152613b5982826137db565b91505060408301518482036040860152613b7382826137db565b9150506060830151613b88606086018261381e565b506080830151613b9b608086018261381e565b5060a0830151613bae60a086018261381e565b5060c083015184820360c0860152613bc682826137db565b91505060e083015184820360e0860152613be082826137db565b915050610100830151848203610100860152613bfc82826137db565b915050610120830151848203610120860152613c1882826137db565b915050610140830151848203610140860152613c3482826137db565b915050610160830151848203610160860152613c5082826137db565b9150508091505092915050565b6000613c698383613b21565b905092915050565b6000602082019050919050565b6000613c8982613af5565b613c938185613b00565b935083602082028501613ca585613b11565b8060005b85811015613ce15784840389528151613cc28582613c5d565b9450613ccd83613c71565b925060208a01995050600181019050613ca9565b50829750879550505050505092915050565b60006020820190508181036000830152613d0d8184613c7e565b905092915050565b613d1e81613814565b82525050565b6000602082019050613d396000830184613d15565b92915050565b600073ffffffffffffffffffffffffffffffffffffffff82169050919050565b6000613d6a82613d3f565b9050919050565b613d7a81613d5f565b8114613d8557600080fd5b50565b600081359050613d9781613d71565b92915050565b60008060408385031215613db457613db36135f3565b5b6000613dc285828601613d88565b925050602083013567ffffffffffffffff811115613de357613de26135f8565b5b613def85828601613715565b9150509250929050565b613e0281613d5f565b82525050565b6000602082019050613e1d6000830184613df9565b92915050565b600060208284031215613e3957613e386135f3565b5b6000613e4784828501613d88565b91505092915050565b600082825260208201905092915050565b6000613e6c8261378c565b613e768185613e50565b9350613e868185602086016137a8565b613e8f81613607565b840191505092915050565b60006020820190508181036000830152613eb48184613e61565b905092915050565b613ec581613814565b8114613ed057600080fd5b50565b600081359050613ee281613ebc565b92915050565b600060208284031215613efe57613efd6135f3565b5b6000613f0c84828501613ed3565b91505092915050565b6000610180820190508181036000830152613f30818f613e61565b90508181036020830152613f44818e613e61565b90508181036040830152613f58818d613e61565b9050613f67606083018c613d15565b613f74608083018b613d15565b613f8160a083018a613d15565b81810360c0830152613f938189613e61565b905081810360e0830152613fa78188613e61565b9050818103610100830152613fbc8187613e61565b9050818103610120830152613fd18186613e61565b9050818103610140830152613fe68185613e61565b9050818103610160830152613ffb8184613e61565b90509d9c50505050505050505050505050565b60008060008060808587031215614028576140276135f3565b5b600085013567ffffffffffffffff811115614046576140456135f8565b5b61405287828801613715565b945050602061406387828801613ed3565b935050604061407487828801613ed3565b925050606085013567ffffffffffffffff811115614095576140946135f8565b5b6140a187828801613715565b91505092959194509250565b600081905092915050565b7f5300000000000000000000000000000000000000000000000000000000000000600082015250565b60006140ee6001836140ad565b91506140f9826140b8565b600182019050919050565b600061410f826140e1565b9150819050919050565b60006141248261378c565b61412e81856140ad565b935061413e8185602086016137a8565b80840191505092915050565b60006141568284614119565b915081905092915050565b7f4e487b7100000000000000000000000000000000000000000000000000000000600052602260045260246000fd5b600060028204905060018216806141a857607f821691505b602082108114156141bc576141bb614161565b5b50919050565b50565b60006141d26000836140ad565b91506141dd826141c2565b600082019050919050565b60006141f3826141c5565b9150819050919050565b60008190508160005260206000209050919050565b6000815461421f81614190565b61422981866140ad565b94506001821660008114614244576001811461425557614288565b60ff19831686528186019350614288565b61425e856141fd565b60005b8381101561428057815481890152600182019150602081019050614261565b838801955050505b50505092915050565b600061429d8284614212565b915081905092915050565b7f596f7520617265206e6f742070617274206f66207465616d2079657420212100600082015250565b60006142de601f83613e50565b91506142e9826142a8565b602082019050919050565b6000602082019050818103600083015261430d816142d1565b9050919050565b7f5374617475730000000000000000000000000000000000000000000000000000600082015250565b600061434a6006836140ad565b915061435582614314565b600682019050919050565b600061436b8261433d565b9150819050919050565b7f4e487b7100000000000000000000000000000000000000000000000000000000600052603260045260246000fd5b600080fd5b600080fd5b600080fd5b600080833560016020038436030381126143d0576143cf6143a4565b5b80840192508235915067ffffffffffffffff8211156143f2576143f16143a9565b5b60208301925060018202360383131561440e5761440d6143ae565b5b509250929050565b600061442283856140ad565b935061442f8385846136c4565b82840190509392505050565b6000614448828486614416565b91508190509392505050565b7f437573746f6d65722046696e616c2044656c6976657279204461746500000000600082015250565b600061448a601c836140ad565b915061449582614454565b601c82019050919050565b60006144ab8261447d565b9150819050919050565b7f426172436f646500000000000000000000000000000000000000000000000000600082015250565b60006144eb6007836140ad565b91506144f6826144b5565b600782019050919050565b600061450c826144de565b9150819050919050565b7f42617463684e6f00000000000000000000000000000000000000000000000000600082015250565b600061454c6007836140ad565b915061455782614516565b600782019050919050565b600061456d8261453f565b9150819050919050565b7f4d6173746572204c6162656c0000000000000000000000000000000000000000600082015250565b60006145ad600c836140ad565b91506145b882614577565b600c82019050919050565b60006145ce826145a0565b9150819050919050565b7f496e766f69636520506174680000000000000000000000000000000000000000600082015250565b600061460e600c836140ad565b9150614619826145d8565b600c82019050919050565b600061462f82614601565b9150819050919050565b7f547261636b696e67204e6f000000000000000000000000000000000000000000600082015250565b600061466f600b836140ad565b915061467a82614639565b600b82019050919050565b600061469082614662565b9150819050919050565b7f4e487b7100000000000000000000000000000000000000000000000000000000600052601160045260246000fd5b60006146d482613814565b91507fffffffffffffffffffffffffffffffffffffffffffffffffffffffffffffffff8214156147075761470661469a565b5b600182019050919050565b600061471d82613814565b915061472883613814565b92508282101561473b5761473a61469a565b5b828203905092915050565b7f534f000000000000000000000000000000000000000000000000000000000000815250565b600061477782614746565b6002820191506147878284614119565b915081905092915050565b600061479d82613814565b91506147a883613814565b9250827fffffffffffffffffffffffffffffffffffffffffffffffffffffffffffffffff038211156147dd576147dc61469a565b5b828201905092915050565b60008160011c9050919050565b6000808291508390505b600185111561483f5780860481111561481b5761481a61469a565b5b600185161561482a5780820291505b8081029050614838856147e8565b94506147ff565b94509492505050565b6000826148585760019050614914565b816148665760009050614914565b816001811461487c5760028114614886576148b5565b6001915050614914565b60ff8411156148985761489761469a565b5b8360020a9150848211156148af576148ae61469a565b5b50614914565b5060208310610133831016604e8410600b84101617156148ea5782820a9050838111156148e5576148e461469a565b5b614914565b6148f784848460016147f5565b9250905081840481111561490e5761490d61469a565b5b81810290505b9392505050565b600061492682613814565b915061493183613814565b925061495e7fffffffffffffffffffffffffffffffffffffffffffffffffffffffffffffffff8484614848565b905092915050565b600061497182613814565b915061497c83613814565b9250817fffffffffffffffffffffffffffffffffffffffffffffffffffffffffffffffff04831182151516156149b5576149b461469a565b5b828202905092915050565b7f4e756c6c206163636f756e7420697320636f6d696e672066726f6d2066726f6e60008201527f742d656e64202121000000000000000000000000000000000000000000000000602082015250565b6000614a1c602883613e50565b9150614a27826149c0565b604082019050919050565b60006020820190508181036000830152614a4b81614a0f565b9050919050565b7f4f776e61626c653a206e6577206f776e657220697320746865207a65726f206160008201527f6464726573730000000000000000000000000000000000000000000000000000602082015250565b6000614aae602683613e50565b9150614ab982614a52565b604082019050919050565b60006020820190508181036000830152614add81614aa1565b9050919050565b7f53616c657320526570726573656e746174697665000000000000000000000000600082015250565b6000614b1a6014836140ad565b9150614b2582614ae4565b601482019050919050565b6000614b3b82614b0d565b9150819050919050565b7f596f7520617265206e6f7420612053616c657320526570202121000000000000600082015250565b6000614b7b601a83613e50565b9150614b8682614b45565b602082019050919050565b60006020820190508181036000830152614baa81614b6e565b9050919050565b7f504f000000000000000000000000000000000000000000000000000000000000815250565b6000614be282614bb1565b600282019150614bf28284614119565b915081905092915050565b7f4e487b7100000000000000000000000000000000000000000000000000000000600052601260045260246000fd5b7f4f776e61626c653a2063616c6c6572206973206e6f7420746865206f776e6572600082015250565b6000614c62602083613e50565b9150614c6d82614c2c565b602082019050919050565b60006020820190508181036000830152614c9181614c55565b905091905056fea2646970667358221220cdc55abe30abd7f83bc335eff3ab6b92d921583b69054d4c90992d33c142807364736f6c634300080c0033",
  "linkReferences": {},
  "deployedLinkReferences": {}
}