{
  "_format": "hh-sol-artifact-1",
  "contractName": "SupplyChain",
  "sourceName": "contracts/SupplyChain.sol",
  "abi": [
    {
      "inputs": [
        {
          "internalType": "uint256",
          "name": "gatekeeperNetwork",
          "type": "uint256"
        }
      ],
      "stateMutability": "nonpayable",
      "type": "constructor"
    },
    {
      "inputs": [
        {
          "internalType": "address",
          "name": "gatewayToken",
          "type": "address"
        }
      ],
      "name": "IsGated__InvalidGatewayToken",
      "type": "error"
    },
    {
      "anonymous": false,
      "inputs": [
        {
          "indexed": false,
          "internalType": "string",
          "name": "_soId",
          "type": "string"
        }
      ],
      "name": "GetSoID",
      "type": "event"
    },
    {
      "anonymous": false,
      "inputs": [
        {
          "indexed": true,
          "internalType": "address",
          "name": "previousOwner",
          "type": "address"
        },
        {
          "indexed": true,
          "internalType": "address",
          "name": "newOwner",
          "type": "address"
        }
      ],
      "name": "OwnershipTransferred",
      "type": "event"
    },
    {
      "inputs": [
        {
          "internalType": "address",
          "name": "_account",
          "type": "address"
        },
        {
          "internalType": "string",
          "name": "role",
          "type": "string"
        }
      ],
      "name": "addRole",
      "outputs": [],
      "stateMutability": "nonpayable",
      "type": "function"
    },
    {
      "inputs": [
        {
          "internalType": "string",
          "name": "_prodName",
          "type": "string"
        },
        {
          "internalType": "uint256",
          "name": "_qty",
          "type": "uint256"
        },
        {
          "internalType": "uint256",
          "name": "_ordrVal",
          "type": "uint256"
        },
        {
          "internalType": "string",
          "name": "_status",
          "type": "string"
        }
      ],
      "name": "createOrder",
      "outputs": [],
      "stateMutability": "nonpayable",
      "type": "function"
    },
    {
      "inputs": [],
      "name": "getAllOrderDetails",
      "outputs": [
        {
          "components": [
            {
              "internalType": "string",
              "name": "SoID",
              "type": "string"
            },
            {
              "internalType": "string",
              "name": "PoID",
              "type": "string"
            },
            {
              "internalType": "string",
              "name": "prodName",
              "type": "string"
            },
            {
              "internalType": "uint256",
              "name": "qty",
              "type": "uint256"
            },
            {
              "internalType": "uint256",
              "name": "orderValue",
              "type": "uint256"
            },
            {
              "internalType": "uint256",
              "name": "customerFinalDeliveryDate",
              "type": "uint256"
            },
            {
              "internalType": "string",
              "name": "status",
              "type": "string"
            },
            {
              "internalType": "string",
              "name": "barCode",
              "type": "string"
            },
            {
              "internalType": "string",
              "name": "batchNo",
              "type": "string"
            },
            {
              "internalType": "string",
              "name": "masterLabel",
              "type": "string"
            },
            {
              "internalType": "string",
              "name": "invoicePath",
              "type": "string"
            },
            {
              "internalType": "string",
              "name": "trackingNo",
              "type": "string"
            }
          ],
          "internalType": "struct SupplyChain.Order[]",
          "name": "",
          "type": "tuple[]"
        }
      ],
      "stateMutability": "view",
      "type": "function"
    },
    {
      "inputs": [
        {
          "internalType": "string",
          "name": "_soOrPo",
          "type": "string"
        }
      ],
      "name": "getOrderDetails",
      "outputs": [
        {
          "components": [
            {
              "internalType": "string",
              "name": "SoID",
              "type": "string"
            },
            {
              "internalType": "string",
              "name": "PoID",
              "type": "string"
            },
            {
              "internalType": "string",
              "name": "prodName",
              "type": "string"
            },
            {
              "internalType": "uint256",
              "name": "qty",
              "type": "uint256"
            },
            {
              "internalType": "uint256",
              "name": "orderValue",
              "type": "uint256"
            },
            {
              "internalType": "uint256",
              "name": "customerFinalDeliveryDate",
              "type": "uint256"
            },
            {
              "internalType": "string",
              "name": "status",
              "type": "string"
            },
            {
              "internalType": "string",
              "name": "barCode",
              "type": "string"
            },
            {
              "internalType": "string",
              "name": "batchNo",
              "type": "string"
            },
            {
              "internalType": "string",
              "name": "masterLabel",
              "type": "string"
            },
            {
              "internalType": "string",
              "name": "invoicePath",
              "type": "string"
            },
            {
              "internalType": "string",
              "name": "trackingNo",
              "type": "string"
            }
          ],
          "internalType": "struct SupplyChain.Order",
          "name": "",
          "type": "tuple"
        }
      ],
      "stateMutability": "view",
      "type": "function"
    },
    {
      "inputs": [],
      "name": "getRole",
      "outputs": [
        {
          "internalType": "string",
          "name": "",
          "type": "string"
        }
      ],
      "stateMutability": "view",
      "type": "function"
    },
    {
      "inputs": [],
      "name": "getcurrentSOId",
      "outputs": [
        {
          "internalType": "string",
          "name": "",
          "type": "string"
        }
      ],
      "stateMutability": "view",
      "type": "function"
    },
    {
      "inputs": [
        {
          "internalType": "string",
          "name": "",
          "type": "string"
        }
      ],
      "name": "orderData",
      "outputs": [
        {
          "internalType": "string",
          "name": "SoID",
          "type": "string"
        },
        {
          "internalType": "string",
          "name": "PoID",
          "type": "string"
        },
        {
          "internalType": "string",
          "name": "prodName",
          "type": "string"
        },
        {
          "internalType": "uint256",
          "name": "qty",
          "type": "uint256"
        },
        {
          "internalType": "uint256",
          "name": "orderValue",
          "type": "uint256"
        },
        {
          "internalType": "uint256",
          "name": "customerFinalDeliveryDate",
          "type": "uint256"
        },
        {
          "internalType": "string",
          "name": "status",
          "type": "string"
        },
        {
          "internalType": "string",
          "name": "barCode",
          "type": "string"
        },
        {
          "internalType": "string",
          "name": "batchNo",
          "type": "string"
        },
        {
          "internalType": "string",
          "name": "masterLabel",
          "type": "string"
        },
        {
          "internalType": "string",
          "name": "invoicePath",
          "type": "string"
        },
        {
          "internalType": "string",
          "name": "trackingNo",
          "type": "string"
        }
      ],
      "stateMutability": "view",
      "type": "function"
    },
    {
      "inputs": [
        {
          "internalType": "uint256",
          "name": "",
          "type": "uint256"
        }
      ],
      "name": "orders",
      "outputs": [
        {
          "internalType": "string",
          "name": "SoID",
          "type": "string"
        },
        {
          "internalType": "string",
          "name": "PoID",
          "type": "string"
        },
        {
          "internalType": "string",
          "name": "prodName",
          "type": "string"
        },
        {
          "internalType": "uint256",
          "name": "qty",
          "type": "uint256"
        },
        {
          "internalType": "uint256",
          "name": "orderValue",
          "type": "uint256"
        },
        {
          "internalType": "uint256",
          "name": "customerFinalDeliveryDate",
          "type": "uint256"
        },
        {
          "internalType": "string",
          "name": "status",
          "type": "string"
        },
        {
          "internalType": "string",
          "name": "barCode",
          "type": "string"
        },
        {
          "internalType": "string",
          "name": "batchNo",
          "type": "string"
        },
        {
          "internalType": "string",
          "name": "masterLabel",
          "type": "string"
        },
        {
          "internalType": "string",
          "name": "invoicePath",
          "type": "string"
        },
        {
          "internalType": "string",
          "name": "trackingNo",
          "type": "string"
        }
      ],
      "stateMutability": "view",
      "type": "function"
    },
    {
      "inputs": [],
      "name": "owner",
      "outputs": [
        {
          "internalType": "address",
          "name": "",
          "type": "address"
        }
      ],
      "stateMutability": "view",
      "type": "function"
    },
    {
      "inputs": [],
      "name": "renounceOwnership",
      "outputs": [],
      "stateMutability": "nonpayable",
      "type": "function"
    },
    {
      "inputs": [
        {
          "internalType": "address",
          "name": "",
          "type": "address"
        }
      ],
      "name": "roles",
      "outputs": [
        {
          "internalType": "string",
          "name": "",
          "type": "string"
        }
      ],
      "stateMutability": "view",
      "type": "function"
    },
    {
      "inputs": [
        {
          "internalType": "string",
          "name": "numString",
          "type": "string"
        }
      ],
      "name": "st2num",
      "outputs": [
        {
          "internalType": "uint256",
          "name": "",
          "type": "uint256"
        }
      ],
      "stateMutability": "pure",
      "type": "function"
    },
    {
      "inputs": [
        {
          "internalType": "address",
          "name": "newOwner",
          "type": "address"
        }
      ],
      "name": "transferOwnership",
      "outputs": [],
      "stateMutability": "nonpayable",
      "type": "function"
    },
    {
      "inputs": [
        {
          "internalType": "string",
          "name": "_so",
          "type": "string"
        },
        {
          "internalType": "string[]",
          "name": "colName",
          "type": "string[]"
        },
        {
          "internalType": "string[]",
          "name": "_value",
          "type": "string[]"
        }
      ],
      "name": "update",
      "outputs": [],
      "stateMutability": "nonpayable",
      "type": "function"
    }
  ],
  "bytecode": "0x60806040523480156200001157600080fd5b5060405162004eed38038062004eed8339818101604052810190620000379190620001dc565b73f65b6396df6b7e2d8a6270e3ab6c7bb08baef22e816200006d62000061620000d060201b60201c565b620000d860201b60201c565b81600160006101000a81548173ffffffffffffffffffffffffffffffffffffffff021916908373ffffffffffffffffffffffffffffffffffffffff160217905550806002819055505050614094600381905550614094600481905550506200020e565b600033905090565b60008060009054906101000a900473ffffffffffffffffffffffffffffffffffffffff169050816000806101000a81548173ffffffffffffffffffffffffffffffffffffffff021916908373ffffffffffffffffffffffffffffffffffffffff1602179055508173ffffffffffffffffffffffffffffffffffffffff168173ffffffffffffffffffffffffffffffffffffffff167f8be0079c531659141344cd1fd0a4f28419497f9722a3daafe3b4186f6b6457e060405160405180910390a35050565b600080fd5b6000819050919050565b620001b681620001a1565b8114620001c257600080fd5b50565b600081519050620001d681620001ab565b92915050565b600060208284031215620001f557620001f46200019c565b5b60006200020584828501620001c5565b91505092915050565b614ccf806200021e6000396000f3fe608060405234801561001057600080fd5b50600436106100ea5760003560e01c8063993746421161008c578063e393f26311610066578063e393f26314610256578063f2fde38b14610291578063fb0a9a6d146102ad578063fde08174146102c9576100ea565b806399374642146101cd578063a85c38ef146101fd578063d76d89fb14610238576100ea565b8063715018a6116100c8578063715018a61461015957806379cd9055146101635780637d72aa65146101935780638da5cb5b146101af576100ea565b80634fbb487c146100ef5780635a5538551461011f5780636bc184b41461013b575b600080fd5b61010960048036038101906101049190613744565b6102e7565b604051610116919061396a565b60405180910390f35b61013960048036038101906101349190613a42565b610e34565b005b61014361152a565b6040516101509190613cf4565b60405180910390f35b610161611b8c565b005b61017d60048036038101906101789190613744565b611ba0565b60405161018a9190613d25565b60405180910390f35b6101ad60048036038101906101a89190613d9e565b611c5a565b005b6101b7611d2c565b6040516101c49190613e09565b60405180910390f35b6101e760048036038101906101e29190613e24565b611d55565b6040516101f49190613e9b565b60405180910390f35b61021760048036038101906102129190613ee9565b611df5565b60405161022f9c9b9a99989796959493929190613f16565b60405180910390f35b61024061232d565b60405161024d9190613e9b565b60405180910390f35b610270600480360381019061026b9190613744565b61235e565b6040516102889c9b9a99989796959493929190613f16565b60405180910390f35b6102ab60048036038101906102a69190613e24565b61289c565b005b6102c760048036038101906102c2919061400f565b612920565b005b6102d1612dda565b6040516102de9190613e9b565b60405180910390f35b6102ef613460565b6040516020016102fe90614105565b6040516020818303038152906040528051906020012061031d83612ea9565b60405160200161032d919061414b565b6040516020818303038152906040528051906020012014156108ba57600582604051610359919061414b565b90815260200160405180910390206040518061018001604052908160008201805461038390614191565b80601f01602080910402602001604051908101604052809291908181526020018280546103af90614191565b80156103fc5780601f106103d1576101008083540402835291602001916103fc565b820191906000526020600020905b8154815290600101906020018083116103df57829003601f168201915b5050505050815260200160018201805461041590614191565b80601f016020809104026020016040519081016040528092919081815260200182805461044190614191565b801561048e5780601f106104635761010080835404028352916020019161048e565b820191906000526020600020905b81548152906001019060200180831161047157829003601f168201915b505050505081526020016002820180546104a790614191565b80601f01602080910402602001604051908101604052809291908181526020018280546104d390614191565b80156105205780601f106104f557610100808354040283529160200191610520565b820191906000526020600020905b81548152906001019060200180831161050357829003601f168201915b5050505050815260200160038201548152602001600482015481526020016005820154815260200160068201805461055790614191565b80601f016020809104026020016040519081016040528092919081815260200182805461058390614191565b80156105d05780601f106105a5576101008083540402835291602001916105d0565b820191906000526020600020905b8154815290600101906020018083116105b357829003601f168201915b505050505081526020016007820180546105e990614191565b80601f016020809104026020016040519081016040528092919081815260200182805461061590614191565b80156106625780601f1061063757610100808354040283529160200191610662565b820191906000526020600020905b81548152906001019060200180831161064557829003601f168201915b5050505050815260200160088201805461067b90614191565b80601f01602080910402602001604051908101604052809291908181526020018280546106a790614191565b80156106f45780601f106106c9576101008083540402835291602001916106f4565b820191906000526020600020905b8154815290600101906020018083116106d757829003601f168201915b5050505050815260200160098201805461070d90614191565b80601f016020809104026020016040519081016040528092919081815260200182805461073990614191565b80156107865780601f1061075b57610100808354040283529160200191610786565b820191906000526020600020905b81548152906001019060200180831161076957829003601f168201915b50505050508152602001600a8201805461079f90614191565b80601f01602080910402602001604051908101604052809291908181526020018280546107cb90614191565b80156108185780601f106107ed57610100808354040283529160200191610818565b820191906000526020600020905b8154815290600101906020018083116107fb57829003601f168201915b50505050508152602001600b8201805461083190614191565b80601f016020809104026020016040519081016040528092919081815260200182805461085d90614191565b80156108aa5780601f1061087f576101008083540402835291602001916108aa565b820191906000526020600020905b81548152906001019060200180831161088d57829003601f168201915b5050505050815250509050610e2f565b60056108c583612f68565b6040516108d2919061414b565b9081526020016040518091039020604051806101800160405290816000820180546108fc90614191565b80601f016020809104026020016040519081016040528092919081815260200182805461092890614191565b80156109755780601f1061094a57610100808354040283529160200191610975565b820191906000526020600020905b81548152906001019060200180831161095857829003601f168201915b5050505050815260200160018201805461098e90614191565b80601f01602080910402602001604051908101604052809291908181526020018280546109ba90614191565b8015610a075780601f106109dc57610100808354040283529160200191610a07565b820191906000526020600020905b8154815290600101906020018083116109ea57829003601f168201915b50505050508152602001600282018054610a2090614191565b80601f0160208091040260200160405190810160405280929190818152602001828054610a4c90614191565b8015610a995780601f10610a6e57610100808354040283529160200191610a99565b820191906000526020600020905b815481529060010190602001808311610a7c57829003601f168201915b50505050508152602001600382015481526020016004820154815260200160058201548152602001600682018054610ad090614191565b80601f0160208091040260200160405190810160405280929190818152602001828054610afc90614191565b8015610b495780601f10610b1e57610100808354040283529160200191610b49565b820191906000526020600020905b815481529060010190602001808311610b2c57829003601f168201915b50505050508152602001600782018054610b6290614191565b80601f0160208091040260200160405190810160405280929190818152602001828054610b8e90614191565b8015610bdb5780601f10610bb057610100808354040283529160200191610bdb565b820191906000526020600020905b815481529060010190602001808311610bbe57829003601f168201915b50505050508152602001600882018054610bf490614191565b80601f0160208091040260200160405190810160405280929190818152602001828054610c2090614191565b8015610c6d5780601f10610c4257610100808354040283529160200191610c6d565b820191906000526020600020905b815481529060010190602001808311610c5057829003601f168201915b50505050508152602001600982018054610c8690614191565b80601f0160208091040260200160405190810160405280929190818152602001828054610cb290614191565b8015610cff5780601f10610cd457610100808354040283529160200191610cff565b820191906000526020600020905b815481529060010190602001808311610ce257829003601f168201915b50505050508152602001600a82018054610d1890614191565b80601f0160208091040260200160405190810160405280929190818152602001828054610d4490614191565b8015610d915780601f10610d6657610100808354040283529160200191610d91565b820191906000526020600020905b815481529060010190602001808311610d7457829003601f168201915b50505050508152602001600b82018054610daa90614191565b80601f0160208091040260200160405190810160405280929190818152602001828054610dd690614191565b8015610e235780601f10610df857610100808354040283529160200191610e23565b820191906000526020600020905b815481529060010190602001808311610e0657829003601f168201915b50505050508152505090505b919050565b604051602001610e43906141e9565b60405160208183030381529060405280519060200120600760003373ffffffffffffffffffffffffffffffffffffffff1673ffffffffffffffffffffffffffffffffffffffff168152602001908152602001600020604051602001610ea89190614292565b604051602081830303815290604052805190602001201415610eff576040517f08c379a0000000000000000000000000000000000000000000000000000000008152600401610ef6906142f5565b60405180910390fd5b60005b8484905081101561152157604051602001610f1c90614361565b60405160208183030381529060405280519060200120858583818110610f4557610f44614376565b5b9050602002810190610f5791906143b4565b604051602001610f6892919061443c565b604051602081830303815290604052805190602001201415610fdf57828282818110610f9757610f96614376565b5b9050602002810190610fa991906143b4565b60058989604051610fbb92919061443c565b90815260200160405180910390206006019190610fd99291906134c1565b5061150e565b604051602001610fee906144a1565b6040516020818303038152906040528051906020012085858381811061101757611016614376565b5b905060200281019061102991906143b4565b60405160200161103a92919061443c565b6040516020818303038152906040528051906020012014156110f2576110c683838381811061106c5761106b614376565b5b905060200281019061107e91906143b4565b8080601f016020809104026020016040519081016040528093929190818152602001838380828437600081840152601f19601f82011690508083019250505050505050611ba0565b600588886040516110d892919061443c565b90815260200160405180910390206005018190555061150d565b60405160200161110190614502565b6040516020818303038152906040528051906020012085858381811061112a57611129614376565b5b905060200281019061113c91906143b4565b60405160200161114d92919061443c565b6040516020818303038152906040528051906020012014156111c45782828281811061117c5761117b614376565b5b905060200281019061118e91906143b4565b600589896040516111a092919061443c565b908152602001604051809103902060070191906111be9291906134c1565b5061150c565b6040516020016111d390614563565b604051602081830303815290604052805190602001208585838181106111fc576111fb614376565b5b905060200281019061120e91906143b4565b60405160200161121f92919061443c565b6040516020818303038152906040528051906020012014156112965782828281811061124e5761124d614376565b5b905060200281019061126091906143b4565b6005898960405161127292919061443c565b908152602001604051809103902060080191906112909291906134c1565b5061150b565b6040516020016112a5906145c4565b604051602081830303815290604052805190602001208585838181106112ce576112cd614376565b5b90506020028101906112e091906143b4565b6040516020016112f192919061443c565b604051602081830303815290604052805190602001201415611368578282828181106113205761131f614376565b5b905060200281019061133291906143b4565b6005898960405161134492919061443c565b908152602001604051809103902060090191906113629291906134c1565b5061150a565b60405160200161137790614625565b604051602081830303815290604052805190602001208585838181106113a05761139f614376565b5b90506020028101906113b291906143b4565b6040516020016113c392919061443c565b60405160208183030381529060405280519060200120141561143a578282828181106113f2576113f1614376565b5b905060200281019061140491906143b4565b6005898960405161141692919061443c565b9081526020016040518091039020600a0191906114349291906134c1565b50611509565b60405160200161144990614686565b6040516020818303038152906040528051906020012085858381811061147257611471614376565b5b905060200281019061148491906143b4565b60405160200161149592919061443c565b604051602081830303815290604052805190602001201415611508578282828181106114c4576114c3614376565b5b90506020028101906114d691906143b4565b600589896040516114e892919061443c565b9081526020016040518091039020600b0191906115069291906134c1565b505b5b5b5b5b5b5b8080611519906146ca565b915050610f02565b50505050505050565b6060600060035490506000806004546003546115469190614713565b67ffffffffffffffff81111561155f5761155e613619565b5b60405190808252806020026020018201604052801561159857816020015b611585613460565b81526020019060019003908161157d5790505b509050600060045490505b83811015611b8257600060056115b8836130eb565b6040516020016115c8919061476d565b6040516020818303038152906040526040516115e4919061414b565b90815260200160405180910390209050806040518061018001604052908160008201805461161190614191565b80601f016020809104026020016040519081016040528092919081815260200182805461163d90614191565b801561168a5780601f1061165f5761010080835404028352916020019161168a565b820191906000526020600020905b81548152906001019060200180831161166d57829003601f168201915b505050505081526020016001820180546116a390614191565b80601f01602080910402602001604051908101604052809291908181526020018280546116cf90614191565b801561171c5780601f106116f15761010080835404028352916020019161171c565b820191906000526020600020905b8154815290600101906020018083116116ff57829003601f168201915b5050505050815260200160028201805461173590614191565b80601f016020809104026020016040519081016040528092919081815260200182805461176190614191565b80156117ae5780601f10611783576101008083540402835291602001916117ae565b820191906000526020600020905b81548152906001019060200180831161179157829003601f168201915b505050505081526020016003820154815260200160048201548152602001600582015481526020016006820180546117e590614191565b80601f016020809104026020016040519081016040528092919081815260200182805461181190614191565b801561185e5780601f106118335761010080835404028352916020019161185e565b820191906000526020600020905b81548152906001019060200180831161184157829003601f168201915b5050505050815260200160078201805461187790614191565b80601f01602080910402602001604051908101604052809291908181526020018280546118a390614191565b80156118f05780601f106118c5576101008083540402835291602001916118f0565b820191906000526020600020905b8154815290600101906020018083116118d357829003601f168201915b5050505050815260200160088201805461190990614191565b80601f016020809104026020016040519081016040528092919081815260200182805461193590614191565b80156119825780601f1061195757610100808354040283529160200191611982565b820191906000526020600020905b81548152906001019060200180831161196557829003601f168201915b5050505050815260200160098201805461199b90614191565b80601f01602080910402602001604051908101604052809291908181526020018280546119c790614191565b8015611a145780601f106119e957610100808354040283529160200191611a14565b820191906000526020600020905b8154815290600101906020018083116119f757829003601f168201915b50505050508152602001600a82018054611a2d90614191565b80601f0160208091040260200160405190810160405280929190818152602001828054611a5990614191565b8015611aa65780601f10611a7b57610100808354040283529160200191611aa6565b820191906000526020600020905b815481529060010190602001808311611a8957829003601f168201915b50505050508152602001600b82018054611abf90614191565b80601f0160208091040260200160405190810160405280929190818152602001828054611aeb90614191565b8015611b385780601f10611b0d57610100808354040283529160200191611b38565b820191906000526020600020905b815481529060010190602001808311611b1b57829003601f168201915b505050505081525050838581518110611b5457611b53614376565b5b6020026020010181905250600184611b6c9190614793565b9350508080611b7a906146ca565b9150506115a3565b5080935050505090565b611b946131c3565b611b9e6000613241565b565b60008060009050600083905060005b8151811015611c4f576000818351611bc79190614713565b90506000838381518110611bde57611bdd614376565b5b602001015160f81c60f81b905060008160f81c9050600060308260ff16611c059190614713565b9050600184611c149190614713565b600a611c20919061491c565b81611c2b9190614967565b87611c369190614793565b9650505050508080611c47906146ca565b915050611baf565b508192505050919050565b611c626131c3565b81600073ffffffffffffffffffffffffffffffffffffffff168173ffffffffffffffffffffffffffffffffffffffff161415611cd3576040517f08c379a0000000000000000000000000000000000000000000000000000000008152600401611cca90614a33565b60405180910390fd5b81600760008573ffffffffffffffffffffffffffffffffffffffff1673ffffffffffffffffffffffffffffffffffffffff1681526020019081526020016000209080519060200190611d26929190613547565b50505050565b60008060009054906101000a900473ffffffffffffffffffffffffffffffffffffffff16905090565b60076020528060005260406000206000915090508054611d7490614191565b80601f0160208091040260200160405190810160405280929190818152602001828054611da090614191565b8015611ded5780601f10611dc257610100808354040283529160200191611ded565b820191906000526020600020905b815481529060010190602001808311611dd057829003601f168201915b505050505081565b60068181548110611e0557600080fd5b90600052602060002090600c0201600091509050806000018054611e2890614191565b80601f0160208091040260200160405190810160405280929190818152602001828054611e5490614191565b8015611ea15780601f10611e7657610100808354040283529160200191611ea1565b820191906000526020600020905b815481529060010190602001808311611e8457829003601f168201915b505050505090806001018054611eb690614191565b80601f0160208091040260200160405190810160405280929190818152602001828054611ee290614191565b8015611f2f5780601f10611f0457610100808354040283529160200191611f2f565b820191906000526020600020905b815481529060010190602001808311611f1257829003601f168201915b505050505090806002018054611f4490614191565b80601f0160208091040260200160405190810160405280929190818152602001828054611f7090614191565b8015611fbd5780601f10611f9257610100808354040283529160200191611fbd565b820191906000526020600020905b815481529060010190602001808311611fa057829003601f168201915b505050505090806003015490806004015490806005015490806006018054611fe490614191565b80601f016020809104026020016040519081016040528092919081815260200182805461201090614191565b801561205d5780601f106120325761010080835404028352916020019161205d565b820191906000526020600020905b81548152906001019060200180831161204057829003601f168201915b50505050509080600701805461207290614191565b80601f016020809104026020016040519081016040528092919081815260200182805461209e90614191565b80156120eb5780601f106120c0576101008083540402835291602001916120eb565b820191906000526020600020905b8154815290600101906020018083116120ce57829003601f168201915b50505050509080600801805461210090614191565b80601f016020809104026020016040519081016040528092919081815260200182805461212c90614191565b80156121795780601f1061214e57610100808354040283529160200191612179565b820191906000526020600020905b81548152906001019060200180831161215c57829003601f168201915b50505050509080600901805461218e90614191565b80601f01602080910402602001604051908101604052809291908181526020018280546121ba90614191565b80156122075780601f106121dc57610100808354040283529160200191612207565b820191906000526020600020905b8154815290600101906020018083116121ea57829003601f168201915b50505050509080600a01805461221c90614191565b80601f016020809104026020016040519081016040528092919081815260200182805461224890614191565b80156122955780601f1061226a57610100808354040283529160200191612295565b820191906000526020600020905b81548152906001019060200180831161227857829003601f168201915b50505050509080600b0180546122aa90614191565b80601f01602080910402602001604051908101604052809291908181526020018280546122d690614191565b80156123235780601f106122f857610100808354040283529160200191612323565b820191906000526020600020905b81548152906001019060200180831161230657829003601f168201915b505050505090508c565b606061233a6003546130eb565b60405160200161234a919061476d565b604051602081830303815290604052905090565b60058180516020810182018051848252602083016020850120818352809550505050505060009150905080600001805461239790614191565b80601f01602080910402602001604051908101604052809291908181526020018280546123c390614191565b80156124105780601f106123e557610100808354040283529160200191612410565b820191906000526020600020905b8154815290600101906020018083116123f357829003601f168201915b50505050509080600101805461242590614191565b80601f016020809104026020016040519081016040528092919081815260200182805461245190614191565b801561249e5780601f106124735761010080835404028352916020019161249e565b820191906000526020600020905b81548152906001019060200180831161248157829003601f168201915b5050505050908060020180546124b390614191565b80601f01602080910402602001604051908101604052809291908181526020018280546124df90614191565b801561252c5780601f106125015761010080835404028352916020019161252c565b820191906000526020600020905b81548152906001019060200180831161250f57829003601f168201915b50505050509080600301549080600401549080600501549080600601805461255390614191565b80601f016020809104026020016040519081016040528092919081815260200182805461257f90614191565b80156125cc5780601f106125a1576101008083540402835291602001916125cc565b820191906000526020600020905b8154815290600101906020018083116125af57829003601f168201915b5050505050908060070180546125e190614191565b80601f016020809104026020016040519081016040528092919081815260200182805461260d90614191565b801561265a5780601f1061262f5761010080835404028352916020019161265a565b820191906000526020600020905b81548152906001019060200180831161263d57829003601f168201915b50505050509080600801805461266f90614191565b80601f016020809104026020016040519081016040528092919081815260200182805461269b90614191565b80156126e85780601f106126bd576101008083540402835291602001916126e8565b820191906000526020600020905b8154815290600101906020018083116126cb57829003601f168201915b5050505050908060090180546126fd90614191565b80601f016020809104026020016040519081016040528092919081815260200182805461272990614191565b80156127765780601f1061274b57610100808354040283529160200191612776565b820191906000526020600020905b81548152906001019060200180831161275957829003601f168201915b50505050509080600a01805461278b90614191565b80601f01602080910402602001604051908101604052809291908181526020018280546127b790614191565b80156128045780601f106127d957610100808354040283529160200191612804565b820191906000526020600020905b8154815290600101906020018083116127e757829003601f168201915b50505050509080600b01805461281990614191565b80601f016020809104026020016040519081016040528092919081815260200182805461284590614191565b80156128925780601f1061286757610100808354040283529160200191612892565b820191906000526020600020905b81548152906001019060200180831161287557829003601f168201915b505050505090508c565b6128a46131c3565b600073ffffffffffffffffffffffffffffffffffffffff168173ffffffffffffffffffffffffffffffffffffffff161415612914576040517f08c379a000000000000000000000000000000000000000000000000000000000815260040161290b90614ac5565b60405180910390fd5b61291d81613241565b50565b60405160200161292f90614b31565b60405160208183030381529060405280519060200120600760003373ffffffffffffffffffffffffffffffffffffffff1673ffffffffffffffffffffffffffffffffffffffff1681526020019081526020016000206040516020016129949190614292565b60405160208183030381529060405280519060200120146129ea576040517f08c379a00000000000000000000000000000000000000000000000000000000081526004016129e190614b92565b60405180910390fd5b60006129f76003546130eb565b604051602001612a07919061476d565b60405160208183030381529060405290506000604051806101800160405280838152602001612a376003546130eb565b604051602001612a479190614bd8565b60405160208183030381529060405281526020018781526020018681526020018581526020016000815260200184815260200160405180602001604052806000815250815260200160405180602001604052806000815250815260200160405180602001604052806000815250815260200160405180602001604052806000815250815260200160405180602001604052806000815250815250905060068190806001815401808255809150506001900390600052602060002090600c02016000909190919091506000820151816000019080519060200190612b2b929190613547565b506020820151816001019080519060200190612b48929190613547565b506040820151816002019080519060200190612b65929190613547565b50606082015181600301556080820151816004015560a0820151816005015560c0820151816006019080519060200190612ba0929190613547565b5060e0820151816007019080519060200190612bbd929190613547565b50610100820151816008019080519060200190612bdb929190613547565b50610120820151816009019080519060200190612bf9929190613547565b5061014082015181600a019080519060200190612c17929190613547565b5061016082015181600b019080519060200190612c35929190613547565b50505080600583604051612c49919061414b565b90815260200160405180910390206000820151816000019080519060200190612c73929190613547565b506020820151816001019080519060200190612c90929190613547565b506040820151816002019080519060200190612cad929190613547565b50606082015181600301556080820151816004015560a0820151816005015560c0820151816006019080519060200190612ce8929190613547565b5060e0820151816007019080519060200190612d05929190613547565b50610100820151816008019080519060200190612d23929190613547565b50610120820151816009019080519060200190612d41929190613547565b5061014082015181600a019080519060200190612d5f929190613547565b5061016082015181600b019080519060200190612d7d929190613547565b50905050600160036000828254612d949190614793565b925050819055507f1b21032942411443543e7923f2da271066ad99511aa6ffcda3bb43030b9157d482604051612dca9190613e9b565b60405180910390a1505050505050565b6060600760003373ffffffffffffffffffffffffffffffffffffffff1673ffffffffffffffffffffffffffffffffffffffff1681526020019081526020016000208054612e2690614191565b80601f0160208091040260200160405190810160405280929190818152602001828054612e5290614191565b8015612e9f5780601f10612e7457610100808354040283529160200191612e9f565b820191906000526020600020905b815481529060010190602001808311612e8257829003601f168201915b5050505050905090565b60606000600167ffffffffffffffff811115612ec857612ec7613619565b5b6040519080825280601f01601f191660200182016040528015612efa5781602001600182028036833780820191505090505b50905082600081518110612f1157612f10614376565b5b602001015160f81c60f81b81600081518110612f3057612f2f614376565b5b60200101907effffffffffffffffffffffffffffffffffffffffffffffffffffffffffffff1916908160001a90535080915050919050565b606060008290506000815167ffffffffffffffff811115612f8c57612f8b613619565b5b6040519080825280601f01601f191660200182016040528015612fbe5781602001600182028036833780820191505090505b50905060005b82518110156130e057828181518110612fe057612fdf614376565b5b602001015160f81c60f81b828281518110612ffe57612ffd614376565b5b60200101907effffffffffffffffffffffffffffffffffffffffffffffffffffffffffffff1916908160001a90535060008114156130cd576040518060400160405280600181526020017f530000000000000000000000000000000000000000000000000000000000000081525060008151811061307f5761307e614376565b5b602001015160f81c60f81b82828151811061309d5761309c614376565b5b60200101907effffffffffffffffffffffffffffffffffffffffffffffffffffffffffffff1916908160001a9053505b80806130d8906146ca565b915050612fc4565b508092505050919050565b6060600060016130fa84613305565b01905060008167ffffffffffffffff81111561311957613118613619565b5b6040519080825280601f01601f19166020018201604052801561314b5781602001600182028036833780820191505090505b509050600082602001820190505b6001156131b8578080600190039150507f3031323334353637383961626364656600000000000000000000000000000000600a86061a8153600a85816131a2576131a1614bfe565b5b04945060008514156131b3576131b8565b613159565b819350505050919050565b6131cb613458565b73ffffffffffffffffffffffffffffffffffffffff166131e9611d2c565b73ffffffffffffffffffffffffffffffffffffffff161461323f576040517f08c379a000000000000000000000000000000000000000000000000000000000815260040161323690614c79565b60405180910390fd5b565b60008060009054906101000a900473ffffffffffffffffffffffffffffffffffffffff169050816000806101000a81548173ffffffffffffffffffffffffffffffffffffffff021916908373ffffffffffffffffffffffffffffffffffffffff1602179055508173ffffffffffffffffffffffffffffffffffffffff168173ffffffffffffffffffffffffffffffffffffffff167f8be0079c531659141344cd1fd0a4f28419497f9722a3daafe3b4186f6b6457e060405160405180910390a35050565b600080600090507a184f03e93ff9f4daa797ed6e38ed64bf6a1f0100000000000000008310613363577a184f03e93ff9f4daa797ed6e38ed64bf6a1f010000000000000000838161335957613358614bfe565b5b0492506040810190505b6d04ee2d6d415b85acef810000000083106133a0576d04ee2d6d415b85acef8100000000838161339657613395614bfe565b5b0492506020810190505b662386f26fc1000083106133cf57662386f26fc1000083816133c5576133c4614bfe565b5b0492506010810190505b6305f5e10083106133f8576305f5e10083816133ee576133ed614bfe565b5b0492506008810190505b612710831061341d57612710838161341357613412614bfe565b5b0492506004810190505b60648310613440576064838161343657613435614bfe565b5b0492506002810190505b600a831061344f576001810190505b80915050919050565b600033905090565b6040518061018001604052806060815260200160608152602001606081526020016000815260200160008152602001600081526020016060815260200160608152602001606081526020016060815260200160608152602001606081525090565b8280546134cd90614191565b90600052602060002090601f0160209004810192826134ef5760008555613536565b82601f1061350857803560ff1916838001178555613536565b82800160010185558215613536579182015b8281111561353557823582559160200191906001019061351a565b5b50905061354391906135cd565b5090565b82805461355390614191565b90600052602060002090601f01602090048101928261357557600085556135bc565b82601f1061358e57805160ff19168380011785556135bc565b828001600101855582156135bc579182015b828111156135bb5782518255916020019190600101906135a0565b5b5090506135c991906135cd565b5090565b5b808211156135e65760008160009055506001016135ce565b5090565b6000604051905090565b600080fd5b600080fd5b600080fd5b600080fd5b6000601f19601f8301169050919050565b7f4e487b7100000000000000000000000000000000000000000000000000000000600052604160045260246000fd5b61365182613608565b810181811067ffffffffffffffff821117156136705761366f613619565b5b80604052505050565b60006136836135ea565b905061368f8282613648565b919050565b600067ffffffffffffffff8211156136af576136ae613619565b5b6136b882613608565b9050602081019050919050565b82818337600083830152505050565b60006136e76136e284613694565b613679565b90508281526020810184848401111561370357613702613603565b5b61370e8482856136c5565b509392505050565b600082601f83011261372b5761372a6135fe565b5b813561373b8482602086016136d4565b91505092915050565b60006020828403121561375a576137596135f4565b5b600082013567ffffffffffffffff811115613778576137776135f9565b5b61378484828501613716565b91505092915050565b600081519050919050565b600082825260208201905092915050565b60005b838110156137c75780820151818401526020810190506137ac565b838111156137d6576000848401525b50505050565b60006137e78261378d565b6137f18185613798565b93506138018185602086016137a9565b61380a81613608565b840191505092915050565b6000819050919050565b61382881613815565b82525050565b600061018083016000830151848203600086015261384c82826137dc565b9150506020830151848203602086015261386682826137dc565b9150506040830151848203604086015261388082826137dc565b9150506060830151613895606086018261381f565b5060808301516138a8608086018261381f565b5060a08301516138bb60a086018261381f565b5060c083015184820360c08601526138d382826137dc565b91505060e083015184820360e08601526138ed82826137dc565b91505061010083015184820361010086015261390982826137dc565b91505061012083015184820361012086015261392582826137dc565b91505061014083015184820361014086015261394182826137dc565b91505061016083015184820361016086015261395d82826137dc565b9150508091505092915050565b60006020820190508181036000830152613984818461382e565b905092915050565b600080fd5b600080fd5b60008083601f8401126139ac576139ab6135fe565b5b8235905067ffffffffffffffff8111156139c9576139c861398c565b5b6020830191508360018202830111156139e5576139e4613991565b5b9250929050565b60008083601f840112613a0257613a016135fe565b5b8235905067ffffffffffffffff811115613a1f57613a1e61398c565b5b602083019150836020820283011115613a3b57613a3a613991565b5b9250929050565b60008060008060008060608789031215613a5f57613a5e6135f4565b5b600087013567ffffffffffffffff811115613a7d57613a7c6135f9565b5b613a8989828a01613996565b9650965050602087013567ffffffffffffffff811115613aac57613aab6135f9565b5b613ab889828a016139ec565b9450945050604087013567ffffffffffffffff811115613adb57613ada6135f9565b5b613ae789828a016139ec565b92509250509295509295509295565b600081519050919050565b600082825260208201905092915050565b6000819050602082019050919050565b6000610180830160008301518482036000860152613b4082826137dc565b91505060208301518482036020860152613b5a82826137dc565b91505060408301518482036040860152613b7482826137dc565b9150506060830151613b89606086018261381f565b506080830151613b9c608086018261381f565b5060a0830151613baf60a086018261381f565b5060c083015184820360c0860152613bc782826137dc565b91505060e083015184820360e0860152613be182826137dc565b915050610100830151848203610100860152613bfd82826137dc565b915050610120830151848203610120860152613c1982826137dc565b915050610140830151848203610140860152613c3582826137dc565b915050610160830151848203610160860152613c5182826137dc565b9150508091505092915050565b6000613c6a8383613b22565b905092915050565b6000602082019050919050565b6000613c8a82613af6565b613c948185613b01565b935083602082028501613ca685613b12565b8060005b85811015613ce25784840389528151613cc38582613c5e565b9450613cce83613c72565b925060208a01995050600181019050613caa565b50829750879550505050505092915050565b60006020820190508181036000830152613d0e8184613c7f565b905092915050565b613d1f81613815565b82525050565b6000602082019050613d3a6000830184613d16565b92915050565b600073ffffffffffffffffffffffffffffffffffffffff82169050919050565b6000613d6b82613d40565b9050919050565b613d7b81613d60565b8114613d8657600080fd5b50565b600081359050613d9881613d72565b92915050565b60008060408385031215613db557613db46135f4565b5b6000613dc385828601613d89565b925050602083013567ffffffffffffffff811115613de457613de36135f9565b5b613df085828601613716565b9150509250929050565b613e0381613d60565b82525050565b6000602082019050613e1e6000830184613dfa565b92915050565b600060208284031215613e3a57613e396135f4565b5b6000613e4884828501613d89565b91505092915050565b600082825260208201905092915050565b6000613e6d8261378d565b613e778185613e51565b9350613e878185602086016137a9565b613e9081613608565b840191505092915050565b60006020820190508181036000830152613eb58184613e62565b905092915050565b613ec681613815565b8114613ed157600080fd5b50565b600081359050613ee381613ebd565b92915050565b600060208284031215613eff57613efe6135f4565b5b6000613f0d84828501613ed4565b91505092915050565b6000610180820190508181036000830152613f31818f613e62565b90508181036020830152613f45818e613e62565b90508181036040830152613f59818d613e62565b9050613f68606083018c613d16565b613f75608083018b613d16565b613f8260a083018a613d16565b81810360c0830152613f948189613e62565b905081810360e0830152613fa88188613e62565b9050818103610100830152613fbd8187613e62565b9050818103610120830152613fd28186613e62565b9050818103610140830152613fe78185613e62565b9050818103610160830152613ffc8184613e62565b90509d9c50505050505050505050505050565b60008060008060808587031215614029576140286135f4565b5b600085013567ffffffffffffffff811115614047576140466135f9565b5b61405387828801613716565b945050602061406487828801613ed4565b935050604061407587828801613ed4565b925050606085013567ffffffffffffffff811115614096576140956135f9565b5b6140a287828801613716565b91505092959194509250565b600081905092915050565b7f5300000000000000000000000000000000000000000000000000000000000000600082015250565b60006140ef6001836140ae565b91506140fa826140b9565b600182019050919050565b6000614110826140e2565b9150819050919050565b60006141258261378d565b61412f81856140ae565b935061413f8185602086016137a9565b80840191505092915050565b6000614157828461411a565b915081905092915050565b7f4e487b7100000000000000000000000000000000000000000000000000000000600052602260045260246000fd5b600060028204905060018216806141a957607f821691505b602082108114156141bd576141bc614162565b5b50919050565b50565b60006141d36000836140ae565b91506141de826141c3565b600082019050919050565b60006141f4826141c6565b9150819050919050565b60008190508160005260206000209050919050565b6000815461422081614191565b61422a81866140ae565b94506001821660008114614245576001811461425657614289565b60ff19831686528186019350614289565b61425f856141fe565b60005b8381101561428157815481890152600182019150602081019050614262565b838801955050505b50505092915050565b600061429e8284614213565b915081905092915050565b7f596f7520617265206e6f742070617274206f66207465616d2079657420212100600082015250565b60006142df601f83613e51565b91506142ea826142a9565b602082019050919050565b6000602082019050818103600083015261430e816142d2565b9050919050565b7f5374617475730000000000000000000000000000000000000000000000000000600082015250565b600061434b6006836140ae565b915061435682614315565b600682019050919050565b600061436c8261433e565b9150819050919050565b7f4e487b7100000000000000000000000000000000000000000000000000000000600052603260045260246000fd5b600080fd5b600080fd5b600080fd5b600080833560016020038436030381126143d1576143d06143a5565b5b80840192508235915067ffffffffffffffff8211156143f3576143f26143aa565b5b60208301925060018202360383131561440f5761440e6143af565b5b509250929050565b600061442383856140ae565b93506144308385846136c5565b82840190509392505050565b6000614449828486614417565b91508190509392505050565b7f437573746f6d65722046696e616c2044656c6976657279204461746500000000600082015250565b600061448b601c836140ae565b915061449682614455565b601c82019050919050565b60006144ac8261447e565b9150819050919050565b7f426172436f646500000000000000000000000000000000000000000000000000600082015250565b60006144ec6007836140ae565b91506144f7826144b6565b600782019050919050565b600061450d826144df565b9150819050919050565b7f42617463684e6f00000000000000000000000000000000000000000000000000600082015250565b600061454d6007836140ae565b915061455882614517565b600782019050919050565b600061456e82614540565b9150819050919050565b7f4d6173746572204c6162656c0000000000000000000000000000000000000000600082015250565b60006145ae600c836140ae565b91506145b982614578565b600c82019050919050565b60006145cf826145a1565b9150819050919050565b7f496e766f69636520506174680000000000000000000000000000000000000000600082015250565b600061460f600c836140ae565b915061461a826145d9565b600c82019050919050565b600061463082614602565b9150819050919050565b7f547261636b696e67204e6f000000000000000000000000000000000000000000600082015250565b6000614670600b836140ae565b915061467b8261463a565b600b82019050919050565b600061469182614663565b9150819050919050565b7f4e487b7100000000000000000000000000000000000000000000000000000000600052601160045260246000fd5b60006146d582613815565b91507fffffffffffffffffffffffffffffffffffffffffffffffffffffffffffffffff8214156147085761470761469b565b5b600182019050919050565b600061471e82613815565b915061472983613815565b92508282101561473c5761473b61469b565b5b828203905092915050565b7f534f000000000000000000000000000000000000000000000000000000000000815250565b600061477882614747565b600282019150614788828461411a565b915081905092915050565b600061479e82613815565b91506147a983613815565b9250827fffffffffffffffffffffffffffffffffffffffffffffffffffffffffffffffff038211156147de576147dd61469b565b5b828201905092915050565b60008160011c9050919050565b6000808291508390505b60018511156148405780860481111561481c5761481b61469b565b5b600185161561482b5780820291505b8081029050614839856147e9565b9450614800565b94509492505050565b6000826148595760019050614915565b816148675760009050614915565b816001811461487d5760028114614887576148b6565b6001915050614915565b60ff8411156148995761489861469b565b5b8360020a9150848211156148b0576148af61469b565b5b50614915565b5060208310610133831016604e8410600b84101617156148eb5782820a9050838111156148e6576148e561469b565b5b614915565b6148f884848460016147f6565b9250905081840481111561490f5761490e61469b565b5b81810290505b9392505050565b600061492782613815565b915061493283613815565b925061495f7fffffffffffffffffffffffffffffffffffffffffffffffffffffffffffffffff8484614849565b905092915050565b600061497282613815565b915061497d83613815565b9250817fffffffffffffffffffffffffffffffffffffffffffffffffffffffffffffffff04831182151516156149b6576149b561469b565b5b828202905092915050565b7f4e756c6c206163636f756e7420697320636f6d696e672066726f6d2066726f6e60008201527f742d656e64202121000000000000000000000000000000000000000000000000602082015250565b6000614a1d602883613e51565b9150614a28826149c1565b604082019050919050565b60006020820190508181036000830152614a4c81614a10565b9050919050565b7f4f776e61626c653a206e6577206f776e657220697320746865207a65726f206160008201527f6464726573730000000000000000000000000000000000000000000000000000602082015250565b6000614aaf602683613e51565b9150614aba82614a53565b604082019050919050565b60006020820190508181036000830152614ade81614aa2565b9050919050565b7f53616c657320526570726573656e746174697665000000000000000000000000600082015250565b6000614b1b6014836140ae565b9150614b2682614ae5565b601482019050919050565b6000614b3c82614b0e565b9150819050919050565b7f596f7520617265206e6f7420612053616c657320526570202121000000000000600082015250565b6000614b7c601a83613e51565b9150614b8782614b46565b602082019050919050565b60006020820190508181036000830152614bab81614b6f565b9050919050565b7f504f000000000000000000000000000000000000000000000000000000000000815250565b6000614be382614bb2565b600282019150614bf3828461411a565b915081905092915050565b7f4e487b7100000000000000000000000000000000000000000000000000000000600052601260045260246000fd5b7f4f776e61626c653a2063616c6c6572206973206e6f7420746865206f776e6572600082015250565b6000614c63602083613e51565b9150614c6e82614c2d565b602082019050919050565b60006020820190508181036000830152614c9281614c56565b905091905056fea26469706673582212208f27dcc4ca29991836c1259aa457f81d0bcddc1223206e3bdc3d1360c174d68e64736f6c634300080c0033",
  "linkReferences": {},
  "deployedLinkReferences": {}
}