{
  "_format": "hh-sol-artifact-1",
  "contractName": "SupplyChain",
  "sourceName": "contracts/SupplyChain.sol",
  "abi": [
    {
      "anonymous": false,
      "inputs": [
        {
          "indexed": false,
          "internalType": "uint8",
          "name": "version",
          "type": "uint8"
        }
      ],
      "name": "Initialized",
      "type": "event"
    },
    {
      "anonymous": false,
      "inputs": [
        {
          "indexed": true,
          "internalType": "address",
          "name": "_account",
          "type": "address"
        }
      ],
      "name": "ManufacturerAdded",
      "type": "event"
    },
    {
      "anonymous": false,
      "inputs": [
        {
          "indexed": true,
          "internalType": "address",
          "name": "previousOwner",
          "type": "address"
        },
        {
          "indexed": true,
          "internalType": "address",
          "name": "newOwner",
          "type": "address"
        }
      ],
      "name": "OwnershipTransferred",
      "type": "event"
    },
    {
      "inputs": [
        {
          "internalType": "address",
          "name": "_account",
          "type": "address"
        },
        {
          "internalType": "string",
          "name": "role",
          "type": "string"
        }
      ],
      "name": "addRole",
      "outputs": [],
      "stateMutability": "nonpayable",
      "type": "function"
    },
    {
      "inputs": [
        {
          "internalType": "string",
          "name": "_prodName",
          "type": "string"
        },
        {
          "internalType": "uint256",
          "name": "_qty",
          "type": "uint256"
        },
        {
          "internalType": "uint256",
          "name": "_ordrVal",
          "type": "uint256"
        },
        {
          "internalType": "string",
          "name": "_status",
          "type": "string"
        }
      ],
      "name": "createOrder",
      "outputs": [
        {
          "internalType": "string",
          "name": "",
          "type": "string"
        }
      ],
      "stateMutability": "nonpayable",
      "type": "function"
    },
    {
      "inputs": [],
      "name": "getAllOrderDetails",
      "outputs": [
        {
          "components": [
            {
              "internalType": "string",
              "name": "SoID",
              "type": "string"
            },
            {
              "internalType": "string",
              "name": "PoID",
              "type": "string"
            },
            {
              "internalType": "string",
              "name": "prodName",
              "type": "string"
            },
            {
              "internalType": "uint256",
              "name": "qty",
              "type": "uint256"
            },
            {
              "internalType": "uint256",
              "name": "orderValue",
              "type": "uint256"
            },
            {
              "internalType": "uint256",
              "name": "customerFinalDeliveryDate",
              "type": "uint256"
            },
            {
              "internalType": "string",
              "name": "status",
              "type": "string"
            },
            {
              "internalType": "string",
              "name": "barCode",
              "type": "string"
            },
            {
              "internalType": "string",
              "name": "batchNo",
              "type": "string"
            },
            {
              "internalType": "string",
              "name": "masterLabel",
              "type": "string"
            },
            {
              "internalType": "string",
              "name": "invoicePath",
              "type": "string"
            },
            {
              "internalType": "string",
              "name": "trackingNo",
              "type": "string"
            }
          ],
          "internalType": "struct SupplyChain.Order[]",
          "name": "",
          "type": "tuple[]"
        }
      ],
      "stateMutability": "view",
      "type": "function"
    },
    {
      "inputs": [
        {
          "internalType": "string",
          "name": "_soOrPo",
          "type": "string"
        }
      ],
      "name": "getOrderDetails",
      "outputs": [
        {
          "components": [
            {
              "internalType": "string",
              "name": "SoID",
              "type": "string"
            },
            {
              "internalType": "string",
              "name": "PoID",
              "type": "string"
            },
            {
              "internalType": "string",
              "name": "prodName",
              "type": "string"
            },
            {
              "internalType": "uint256",
              "name": "qty",
              "type": "uint256"
            },
            {
              "internalType": "uint256",
              "name": "orderValue",
              "type": "uint256"
            },
            {
              "internalType": "uint256",
              "name": "customerFinalDeliveryDate",
              "type": "uint256"
            },
            {
              "internalType": "string",
              "name": "status",
              "type": "string"
            },
            {
              "internalType": "string",
              "name": "barCode",
              "type": "string"
            },
            {
              "internalType": "string",
              "name": "batchNo",
              "type": "string"
            },
            {
              "internalType": "string",
              "name": "masterLabel",
              "type": "string"
            },
            {
              "internalType": "string",
              "name": "invoicePath",
              "type": "string"
            },
            {
              "internalType": "string",
              "name": "trackingNo",
              "type": "string"
            }
          ],
          "internalType": "struct SupplyChain.Order",
          "name": "",
          "type": "tuple"
        }
      ],
      "stateMutability": "view",
      "type": "function"
    },
    {
      "inputs": [],
      "name": "getRole",
      "outputs": [
        {
          "internalType": "string",
          "name": "",
          "type": "string"
        }
      ],
      "stateMutability": "view",
      "type": "function"
    },
    {
      "inputs": [],
      "name": "initialize",
      "outputs": [],
      "stateMutability": "nonpayable",
      "type": "function"
    },
    {
      "inputs": [
        {
          "internalType": "string",
          "name": "",
          "type": "string"
        }
      ],
      "name": "orderData",
      "outputs": [
        {
          "internalType": "string",
          "name": "SoID",
          "type": "string"
        },
        {
          "internalType": "string",
          "name": "PoID",
          "type": "string"
        },
        {
          "internalType": "string",
          "name": "prodName",
          "type": "string"
        },
        {
          "internalType": "uint256",
          "name": "qty",
          "type": "uint256"
        },
        {
          "internalType": "uint256",
          "name": "orderValue",
          "type": "uint256"
        },
        {
          "internalType": "uint256",
          "name": "customerFinalDeliveryDate",
          "type": "uint256"
        },
        {
          "internalType": "string",
          "name": "status",
          "type": "string"
        },
        {
          "internalType": "string",
          "name": "barCode",
          "type": "string"
        },
        {
          "internalType": "string",
          "name": "batchNo",
          "type": "string"
        },
        {
          "internalType": "string",
          "name": "masterLabel",
          "type": "string"
        },
        {
          "internalType": "string",
          "name": "invoicePath",
          "type": "string"
        },
        {
          "internalType": "string",
          "name": "trackingNo",
          "type": "string"
        }
      ],
      "stateMutability": "view",
      "type": "function"
    },
    {
      "inputs": [
        {
          "internalType": "uint256",
          "name": "",
          "type": "uint256"
        }
      ],
      "name": "orders",
      "outputs": [
        {
          "internalType": "string",
          "name": "SoID",
          "type": "string"
        },
        {
          "internalType": "string",
          "name": "PoID",
          "type": "string"
        },
        {
          "internalType": "string",
          "name": "prodName",
          "type": "string"
        },
        {
          "internalType": "uint256",
          "name": "qty",
          "type": "uint256"
        },
        {
          "internalType": "uint256",
          "name": "orderValue",
          "type": "uint256"
        },
        {
          "internalType": "uint256",
          "name": "customerFinalDeliveryDate",
          "type": "uint256"
        },
        {
          "internalType": "string",
          "name": "status",
          "type": "string"
        },
        {
          "internalType": "string",
          "name": "barCode",
          "type": "string"
        },
        {
          "internalType": "string",
          "name": "batchNo",
          "type": "string"
        },
        {
          "internalType": "string",
          "name": "masterLabel",
          "type": "string"
        },
        {
          "internalType": "string",
          "name": "invoicePath",
          "type": "string"
        },
        {
          "internalType": "string",
          "name": "trackingNo",
          "type": "string"
        }
      ],
      "stateMutability": "view",
      "type": "function"
    },
    {
      "inputs": [],
      "name": "owner",
      "outputs": [
        {
          "internalType": "address",
          "name": "",
          "type": "address"
        }
      ],
      "stateMutability": "view",
      "type": "function"
    },
    {
      "inputs": [],
      "name": "renounceOwnership",
      "outputs": [],
      "stateMutability": "nonpayable",
      "type": "function"
    },
    {
      "inputs": [
        {
          "internalType": "address",
          "name": "",
          "type": "address"
        }
      ],
      "name": "roles",
      "outputs": [
        {
          "internalType": "string",
          "name": "",
          "type": "string"
        }
      ],
      "stateMutability": "view",
      "type": "function"
    },
    {
      "inputs": [
        {
          "internalType": "address",
          "name": "newOwner",
          "type": "address"
        }
      ],
      "name": "transferOwnership",
      "outputs": [],
      "stateMutability": "nonpayable",
      "type": "function"
    },
    {
      "inputs": [],
      "name": "uid",
      "outputs": [
        {
          "internalType": "uint256",
          "name": "",
          "type": "uint256"
        }
      ],
      "stateMutability": "view",
      "type": "function"
    },
    {
      "inputs": [
        {
          "internalType": "string",
          "name": "_so",
          "type": "string"
        },
        {
          "internalType": "string",
          "name": "_status",
          "type": "string"
        }
      ],
      "name": "updateStatus",
      "outputs": [],
      "stateMutability": "nonpayable",
      "type": "function"
    }
  ],
  "bytecode": "0x608060405234801561001057600080fd5b506143a3806100206000396000f3fe608060405234801561001057600080fd5b50600436106100ea5760003560e01c8063993746421161008c578063f2fde38b11610066578063f2fde38b1461024d578063f514ce3614610269578063fb0a9a6d14610287578063fde08174146102b7576100ea565b806399374642146101a7578063a85c38ef146101d7578063e393f26314610212576100ea565b8063715018a6116100c8578063715018a6146101595780637d72aa65146101635780638129fc1c1461017f5780638da5cb5b14610189576100ea565b8063347047cc146100ef5780634fbb487c1461010b5780636bc184b41461013b575b600080fd5b610109600480360381019061010491906132a8565b6102d5565b005b61012560048036038101906101209190613320565b6103da565b6040516101329190613546565b60405180910390f35b610143610f27565b6040516101509190613766565b60405180910390f35b610161611653565b005b61017d600480360381019061017891906137e6565b611667565b005b610187611739565b005b610191611891565b60405161019e9190613851565b60405180910390f35b6101c160048036038101906101bc919061386c565b6118bb565b6040516101ce91906138e3565b60405180910390f35b6101f160048036038101906101ec9190613931565b61195b565b6040516102099c9b9a9998979695949392919061396d565b60405180910390f35b61022c60048036038101906102279190613320565b611e93565b6040516102449c9b9a9998979695949392919061396d565b60405180910390f35b6102676004803603810190610262919061386c565b6123d1565b005b610271612455565b60405161027e9190613a66565b60405180910390f35b6102a1600480360381019061029c9190613a81565b61245b565b6040516102ae91906138e3565b60405180910390f35b6102bf6128e5565b6040516102cc91906138e3565b60405180910390f35b6040516020016102e490613b51565b60405160208183030381529060405280519060200120606b60003373ffffffffffffffffffffffffffffffffffffffff1673ffffffffffffffffffffffffffffffffffffffff1681526020019081526020016000206040516020016103499190613c5b565b6040516020818303038152906040528051906020012014156103a0576040517f08c379a000000000000000000000000000000000000000000000000000000000815260040161039790613cbe565b60405180910390fd5b806069836040516103b19190613d0f565b908152602001604051809103902060060190805190602001906103d592919061304a565b505050565b6103e26130d0565b6040516020016103f190613d72565b60405160208183030381529060405280519060200120610410836129b4565b6040516020016104209190613d0f565b6040516020818303038152906040528051906020012014156109ad5760698260405161044c9190613d0f565b90815260200160405180910390206040518061018001604052908160008201805461047690613b95565b80601f01602080910402602001604051908101604052809291908181526020018280546104a290613b95565b80156104ef5780601f106104c4576101008083540402835291602001916104ef565b820191906000526020600020905b8154815290600101906020018083116104d257829003601f168201915b5050505050815260200160018201805461050890613b95565b80601f016020809104026020016040519081016040528092919081815260200182805461053490613b95565b80156105815780601f1061055657610100808354040283529160200191610581565b820191906000526020600020905b81548152906001019060200180831161056457829003601f168201915b5050505050815260200160028201805461059a90613b95565b80601f01602080910402602001604051908101604052809291908181526020018280546105c690613b95565b80156106135780601f106105e857610100808354040283529160200191610613565b820191906000526020600020905b8154815290600101906020018083116105f657829003601f168201915b5050505050815260200160038201548152602001600482015481526020016005820154815260200160068201805461064a90613b95565b80601f016020809104026020016040519081016040528092919081815260200182805461067690613b95565b80156106c35780601f10610698576101008083540402835291602001916106c3565b820191906000526020600020905b8154815290600101906020018083116106a657829003601f168201915b505050505081526020016007820180546106dc90613b95565b80601f016020809104026020016040519081016040528092919081815260200182805461070890613b95565b80156107555780601f1061072a57610100808354040283529160200191610755565b820191906000526020600020905b81548152906001019060200180831161073857829003601f168201915b5050505050815260200160088201805461076e90613b95565b80601f016020809104026020016040519081016040528092919081815260200182805461079a90613b95565b80156107e75780601f106107bc576101008083540402835291602001916107e7565b820191906000526020600020905b8154815290600101906020018083116107ca57829003601f168201915b5050505050815260200160098201805461080090613b95565b80601f016020809104026020016040519081016040528092919081815260200182805461082c90613b95565b80156108795780601f1061084e57610100808354040283529160200191610879565b820191906000526020600020905b81548152906001019060200180831161085c57829003601f168201915b50505050508152602001600a8201805461089290613b95565b80601f01602080910402602001604051908101604052809291908181526020018280546108be90613b95565b801561090b5780601f106108e05761010080835404028352916020019161090b565b820191906000526020600020905b8154815290600101906020018083116108ee57829003601f168201915b50505050508152602001600b8201805461092490613b95565b80601f016020809104026020016040519081016040528092919081815260200182805461095090613b95565b801561099d5780601f106109725761010080835404028352916020019161099d565b820191906000526020600020905b81548152906001019060200180831161098057829003601f168201915b5050505050815250509050610f22565b60696109b883612a73565b6040516109c59190613d0f565b9081526020016040518091039020604051806101800160405290816000820180546109ef90613b95565b80601f0160208091040260200160405190810160405280929190818152602001828054610a1b90613b95565b8015610a685780601f10610a3d57610100808354040283529160200191610a68565b820191906000526020600020905b815481529060010190602001808311610a4b57829003601f168201915b50505050508152602001600182018054610a8190613b95565b80601f0160208091040260200160405190810160405280929190818152602001828054610aad90613b95565b8015610afa5780601f10610acf57610100808354040283529160200191610afa565b820191906000526020600020905b815481529060010190602001808311610add57829003601f168201915b50505050508152602001600282018054610b1390613b95565b80601f0160208091040260200160405190810160405280929190818152602001828054610b3f90613b95565b8015610b8c5780601f10610b6157610100808354040283529160200191610b8c565b820191906000526020600020905b815481529060010190602001808311610b6f57829003601f168201915b50505050508152602001600382015481526020016004820154815260200160058201548152602001600682018054610bc390613b95565b80601f0160208091040260200160405190810160405280929190818152602001828054610bef90613b95565b8015610c3c5780601f10610c1157610100808354040283529160200191610c3c565b820191906000526020600020905b815481529060010190602001808311610c1f57829003601f168201915b50505050508152602001600782018054610c5590613b95565b80601f0160208091040260200160405190810160405280929190818152602001828054610c8190613b95565b8015610cce5780601f10610ca357610100808354040283529160200191610cce565b820191906000526020600020905b815481529060010190602001808311610cb157829003601f168201915b50505050508152602001600882018054610ce790613b95565b80601f0160208091040260200160405190810160405280929190818152602001828054610d1390613b95565b8015610d605780601f10610d3557610100808354040283529160200191610d60565b820191906000526020600020905b815481529060010190602001808311610d4357829003601f168201915b50505050508152602001600982018054610d7990613b95565b80601f0160208091040260200160405190810160405280929190818152602001828054610da590613b95565b8015610df25780601f10610dc757610100808354040283529160200191610df2565b820191906000526020600020905b815481529060010190602001808311610dd557829003601f168201915b50505050508152602001600a82018054610e0b90613b95565b80601f0160208091040260200160405190810160405280929190818152602001828054610e3790613b95565b8015610e845780601f10610e5957610100808354040283529160200191610e84565b820191906000526020600020905b815481529060010190602001808311610e6757829003601f168201915b50505050508152602001600b82018054610e9d90613b95565b80601f0160208091040260200160405190810160405280929190818152602001828054610ec990613b95565b8015610f165780601f10610eeb57610100808354040283529160200191610f16565b820191906000526020600020905b815481529060010190602001808311610ef957829003601f168201915b50505050508152505090505b919050565b6060604051602001610f3890613dd3565b60405160208183030381529060405280519060200120606b60003373ffffffffffffffffffffffffffffffffffffffff1673ffffffffffffffffffffffffffffffffffffffff168152602001908152602001600020604051602001610f9d9190613c5b565b6040516020818303038152906040528051906020012014610ff3576040517f08c379a0000000000000000000000000000000000000000000000000000000008152600401610fea90613e34565b60405180910390fd5b6000606754905060008060685460675461100d9190613e83565b67ffffffffffffffff8111156110265761102561317d565b5b60405190808252806020026020018201604052801561105f57816020015b61104c6130d0565b8152602001906001900390816110445790505b509050600060685490505b83811015611649576000606961107f83612bf6565b60405160200161108f9190613edd565b6040516020818303038152906040526040516110ab9190613d0f565b9081526020016040518091039020905080604051806101800160405290816000820180546110d890613b95565b80601f016020809104026020016040519081016040528092919081815260200182805461110490613b95565b80156111515780601f1061112657610100808354040283529160200191611151565b820191906000526020600020905b81548152906001019060200180831161113457829003601f168201915b5050505050815260200160018201805461116a90613b95565b80601f016020809104026020016040519081016040528092919081815260200182805461119690613b95565b80156111e35780601f106111b8576101008083540402835291602001916111e3565b820191906000526020600020905b8154815290600101906020018083116111c657829003601f168201915b505050505081526020016002820180546111fc90613b95565b80601f016020809104026020016040519081016040528092919081815260200182805461122890613b95565b80156112755780601f1061124a57610100808354040283529160200191611275565b820191906000526020600020905b81548152906001019060200180831161125857829003601f168201915b505050505081526020016003820154815260200160048201548152602001600582015481526020016006820180546112ac90613b95565b80601f01602080910402602001604051908101604052809291908181526020018280546112d890613b95565b80156113255780601f106112fa57610100808354040283529160200191611325565b820191906000526020600020905b81548152906001019060200180831161130857829003601f168201915b5050505050815260200160078201805461133e90613b95565b80601f016020809104026020016040519081016040528092919081815260200182805461136a90613b95565b80156113b75780601f1061138c576101008083540402835291602001916113b7565b820191906000526020600020905b81548152906001019060200180831161139a57829003601f168201915b505050505081526020016008820180546113d090613b95565b80601f01602080910402602001604051908101604052809291908181526020018280546113fc90613b95565b80156114495780601f1061141e57610100808354040283529160200191611449565b820191906000526020600020905b81548152906001019060200180831161142c57829003601f168201915b5050505050815260200160098201805461146290613b95565b80601f016020809104026020016040519081016040528092919081815260200182805461148e90613b95565b80156114db5780601f106114b0576101008083540402835291602001916114db565b820191906000526020600020905b8154815290600101906020018083116114be57829003601f168201915b50505050508152602001600a820180546114f490613b95565b80601f016020809104026020016040519081016040528092919081815260200182805461152090613b95565b801561156d5780601f106115425761010080835404028352916020019161156d565b820191906000526020600020905b81548152906001019060200180831161155057829003601f168201915b50505050508152602001600b8201805461158690613b95565b80601f01602080910402602001604051908101604052809291908181526020018280546115b290613b95565b80156115ff5780601f106115d4576101008083540402835291602001916115ff565b820191906000526020600020905b8154815290600101906020018083116115e257829003601f168201915b50505050508152505083858151811061161b5761161a613f03565b5b60200260200101819052506001846116339190613f32565b935050808061164190613f88565b91505061106a565b5080935050505090565b61165b612cce565b6116656000612d4c565b565b61166f612cce565b81600073ffffffffffffffffffffffffffffffffffffffff168173ffffffffffffffffffffffffffffffffffffffff1614156116e0576040517f08c379a00000000000000000000000000000000000000000000000000000000081526004016116d790614043565b60405180910390fd5b81606b60008573ffffffffffffffffffffffffffffffffffffffff1673ffffffffffffffffffffffffffffffffffffffff168152602001908152602001600020908051906020019061173392919061304a565b50505050565b60008060019054906101000a900460ff1615905080801561176a5750600160008054906101000a900460ff1660ff16105b80611797575061177930612e12565b1580156117965750600160008054906101000a900460ff1660ff16145b5b6117d6576040517f08c379a00000000000000000000000000000000000000000000000000000000081526004016117cd906140d5565b60405180910390fd5b60016000806101000a81548160ff021916908360ff1602179055508015611813576001600060016101000a81548160ff0219169083151502179055505b61181b612e35565b6140946067819055506140946068819055506001606581905550801561188e5760008060016101000a81548160ff0219169083151502179055507f7f26b83ff96e1f2b6a682f133852f6798a09c465da95921460cefb384740249860016040516118859190614147565b60405180910390a15b50565b6000603360009054906101000a900473ffffffffffffffffffffffffffffffffffffffff16905090565b606b60205280600052604060002060009150905080546118da90613b95565b80601f016020809104026020016040519081016040528092919081815260200182805461190690613b95565b80156119535780601f1061192857610100808354040283529160200191611953565b820191906000526020600020905b81548152906001019060200180831161193657829003601f168201915b505050505081565b606a818154811061196b57600080fd5b90600052602060002090600c020160009150905080600001805461198e90613b95565b80601f01602080910402602001604051908101604052809291908181526020018280546119ba90613b95565b8015611a075780601f106119dc57610100808354040283529160200191611a07565b820191906000526020600020905b8154815290600101906020018083116119ea57829003601f168201915b505050505090806001018054611a1c90613b95565b80601f0160208091040260200160405190810160405280929190818152602001828054611a4890613b95565b8015611a955780601f10611a6a57610100808354040283529160200191611a95565b820191906000526020600020905b815481529060010190602001808311611a7857829003601f168201915b505050505090806002018054611aaa90613b95565b80601f0160208091040260200160405190810160405280929190818152602001828054611ad690613b95565b8015611b235780601f10611af857610100808354040283529160200191611b23565b820191906000526020600020905b815481529060010190602001808311611b0657829003601f168201915b505050505090806003015490806004015490806005015490806006018054611b4a90613b95565b80601f0160208091040260200160405190810160405280929190818152602001828054611b7690613b95565b8015611bc35780601f10611b9857610100808354040283529160200191611bc3565b820191906000526020600020905b815481529060010190602001808311611ba657829003601f168201915b505050505090806007018054611bd890613b95565b80601f0160208091040260200160405190810160405280929190818152602001828054611c0490613b95565b8015611c515780601f10611c2657610100808354040283529160200191611c51565b820191906000526020600020905b815481529060010190602001808311611c3457829003601f168201915b505050505090806008018054611c6690613b95565b80601f0160208091040260200160405190810160405280929190818152602001828054611c9290613b95565b8015611cdf5780601f10611cb457610100808354040283529160200191611cdf565b820191906000526020600020905b815481529060010190602001808311611cc257829003601f168201915b505050505090806009018054611cf490613b95565b80601f0160208091040260200160405190810160405280929190818152602001828054611d2090613b95565b8015611d6d5780601f10611d4257610100808354040283529160200191611d6d565b820191906000526020600020905b815481529060010190602001808311611d5057829003601f168201915b50505050509080600a018054611d8290613b95565b80601f0160208091040260200160405190810160405280929190818152602001828054611dae90613b95565b8015611dfb5780601f10611dd057610100808354040283529160200191611dfb565b820191906000526020600020905b815481529060010190602001808311611dde57829003601f168201915b50505050509080600b018054611e1090613b95565b80601f0160208091040260200160405190810160405280929190818152602001828054611e3c90613b95565b8015611e895780601f10611e5e57610100808354040283529160200191611e89565b820191906000526020600020905b815481529060010190602001808311611e6c57829003601f168201915b505050505090508c565b606981805160208101820180518482526020830160208501208183528095505050505050600091509050806000018054611ecc90613b95565b80601f0160208091040260200160405190810160405280929190818152602001828054611ef890613b95565b8015611f455780601f10611f1a57610100808354040283529160200191611f45565b820191906000526020600020905b815481529060010190602001808311611f2857829003601f168201915b505050505090806001018054611f5a90613b95565b80601f0160208091040260200160405190810160405280929190818152602001828054611f8690613b95565b8015611fd35780601f10611fa857610100808354040283529160200191611fd3565b820191906000526020600020905b815481529060010190602001808311611fb657829003601f168201915b505050505090806002018054611fe890613b95565b80601f016020809104026020016040519081016040528092919081815260200182805461201490613b95565b80156120615780601f1061203657610100808354040283529160200191612061565b820191906000526020600020905b81548152906001019060200180831161204457829003601f168201915b50505050509080600301549080600401549080600501549080600601805461208890613b95565b80601f01602080910402602001604051908101604052809291908181526020018280546120b490613b95565b80156121015780601f106120d657610100808354040283529160200191612101565b820191906000526020600020905b8154815290600101906020018083116120e457829003601f168201915b50505050509080600701805461211690613b95565b80601f016020809104026020016040519081016040528092919081815260200182805461214290613b95565b801561218f5780601f106121645761010080835404028352916020019161218f565b820191906000526020600020905b81548152906001019060200180831161217257829003601f168201915b5050505050908060080180546121a490613b95565b80601f01602080910402602001604051908101604052809291908181526020018280546121d090613b95565b801561221d5780601f106121f25761010080835404028352916020019161221d565b820191906000526020600020905b81548152906001019060200180831161220057829003601f168201915b50505050509080600901805461223290613b95565b80601f016020809104026020016040519081016040528092919081815260200182805461225e90613b95565b80156122ab5780601f10612280576101008083540402835291602001916122ab565b820191906000526020600020905b81548152906001019060200180831161228e57829003601f168201915b50505050509080600a0180546122c090613b95565b80601f01602080910402602001604051908101604052809291908181526020018280546122ec90613b95565b80156123395780601f1061230e57610100808354040283529160200191612339565b820191906000526020600020905b81548152906001019060200180831161231c57829003601f168201915b50505050509080600b01805461234e90613b95565b80601f016020809104026020016040519081016040528092919081815260200182805461237a90613b95565b80156123c75780601f1061239c576101008083540402835291602001916123c7565b820191906000526020600020905b8154815290600101906020018083116123aa57829003601f168201915b505050505090508c565b6123d9612cce565b600073ffffffffffffffffffffffffffffffffffffffff168173ffffffffffffffffffffffffffffffffffffffff161415612449576040517f08c379a0000000000000000000000000000000000000000000000000000000008152600401612440906141d4565b60405180910390fd5b61245281612d4c565b50565b60655481565b606060405160200161246c90613dd3565b60405160208183030381529060405280519060200120606b60003373ffffffffffffffffffffffffffffffffffffffff1673ffffffffffffffffffffffffffffffffffffffff1681526020019081526020016000206040516020016124d19190613c5b565b6040516020818303038152906040528051906020012014612527576040517f08c379a000000000000000000000000000000000000000000000000000000000815260040161251e90613e34565b60405180910390fd5b6000612534606754612bf6565b6040516020016125449190613edd565b60405160208183030381529060405290506000604051806101800160405280838152602001612574606754612bf6565b604051602001612584919061421a565b604051602081830303815290604052815260200188815260200187815260200186815260200160008152602001858152602001604051806020016040528060008152508152602001604051806020016040528060008152508152602001604051806020016040528060008152508152602001604051806020016040528060008152508152602001604051806020016040528060008152508152509050606a8190806001815401808255809150506001900390600052602060002090600c0201600090919091909150600082015181600001908051906020019061266892919061304a565b50602082015181600101908051906020019061268592919061304a565b5060408201518160020190805190602001906126a292919061304a565b50606082015181600301556080820151816004015560a0820151816005015560c08201518160060190805190602001906126dd92919061304a565b5060e08201518160070190805190602001906126fa92919061304a565b5061010082015181600801908051906020019061271892919061304a565b5061012082015181600901908051906020019061273692919061304a565b5061014082015181600a01908051906020019061275492919061304a565b5061016082015181600b01908051906020019061277292919061304a565b505050806069836040516127869190613d0f565b908152602001604051809103902060008201518160000190805190602001906127b092919061304a565b5060208201518160010190805190602001906127cd92919061304a565b5060408201518160020190805190602001906127ea92919061304a565b50606082015181600301556080820151816004015560a0820151816005015560c082015181600601908051906020019061282592919061304a565b5060e082015181600701908051906020019061284292919061304a565b5061010082015181600801908051906020019061286092919061304a565b5061012082015181600901908051906020019061287e92919061304a565b5061014082015181600a01908051906020019061289c92919061304a565b5061016082015181600b0190805190602001906128ba92919061304a565b509050506001606760008282546128d19190613f32565b925050819055508192505050949350505050565b6060606b60003373ffffffffffffffffffffffffffffffffffffffff1673ffffffffffffffffffffffffffffffffffffffff168152602001908152602001600020805461293190613b95565b80601f016020809104026020016040519081016040528092919081815260200182805461295d90613b95565b80156129aa5780601f1061297f576101008083540402835291602001916129aa565b820191906000526020600020905b81548152906001019060200180831161298d57829003601f168201915b5050505050905090565b60606000600167ffffffffffffffff8111156129d3576129d261317d565b5b6040519080825280601f01601f191660200182016040528015612a055781602001600182028036833780820191505090505b50905082600081518110612a1c57612a1b613f03565b5b602001015160f81c60f81b81600081518110612a3b57612a3a613f03565b5b60200101907effffffffffffffffffffffffffffffffffffffffffffffffffffffffffffff1916908160001a90535080915050919050565b606060008290506000815167ffffffffffffffff811115612a9757612a9661317d565b5b6040519080825280601f01601f191660200182016040528015612ac95781602001600182028036833780820191505090505b50905060005b8251811015612beb57828181518110612aeb57612aea613f03565b5b602001015160f81c60f81b828281518110612b0957612b08613f03565b5b60200101907effffffffffffffffffffffffffffffffffffffffffffffffffffffffffffff1916908160001a9053506000811415612bd8576040518060400160405280600181526020017f5300000000000000000000000000000000000000000000000000000000000000815250600081518110612b8a57612b89613f03565b5b602001015160f81c60f81b828281518110612ba857612ba7613f03565b5b60200101907effffffffffffffffffffffffffffffffffffffffffffffffffffffffffffff1916908160001a9053505b8080612be390613f88565b915050612acf565b508092505050919050565b606060006001612c0584612e8e565b01905060008167ffffffffffffffff811115612c2457612c2361317d565b5b6040519080825280601f01601f191660200182016040528015612c565781602001600182028036833780820191505090505b509050600082602001820190505b600115612cc3578080600190039150507f3031323334353637383961626364656600000000000000000000000000000000600a86061a8153600a8581612cad57612cac614240565b5b0494506000851415612cbe57612cc3565b612c64565b819350505050919050565b612cd6612fe1565b73ffffffffffffffffffffffffffffffffffffffff16612cf4611891565b73ffffffffffffffffffffffffffffffffffffffff1614612d4a576040517f08c379a0000000000000000000000000000000000000000000000000000000008152600401612d41906142bb565b60405180910390fd5b565b6000603360009054906101000a900473ffffffffffffffffffffffffffffffffffffffff16905081603360006101000a81548173ffffffffffffffffffffffffffffffffffffffff021916908373ffffffffffffffffffffffffffffffffffffffff1602179055508173ffffffffffffffffffffffffffffffffffffffff168173ffffffffffffffffffffffffffffffffffffffff167f8be0079c531659141344cd1fd0a4f28419497f9722a3daafe3b4186f6b6457e060405160405180910390a35050565b6000808273ffffffffffffffffffffffffffffffffffffffff163b119050919050565b600060019054906101000a900460ff16612e84576040517f08c379a0000000000000000000000000000000000000000000000000000000008152600401612e7b9061434d565b60405180910390fd5b612e8c612fe9565b565b600080600090507a184f03e93ff9f4daa797ed6e38ed64bf6a1f0100000000000000008310612eec577a184f03e93ff9f4daa797ed6e38ed64bf6a1f0100000000000000008381612ee257612ee1614240565b5b0492506040810190505b6d04ee2d6d415b85acef81000000008310612f29576d04ee2d6d415b85acef81000000008381612f1f57612f1e614240565b5b0492506020810190505b662386f26fc100008310612f5857662386f26fc100008381612f4e57612f4d614240565b5b0492506010810190505b6305f5e1008310612f81576305f5e1008381612f7757612f76614240565b5b0492506008810190505b6127108310612fa6576127108381612f9c57612f9b614240565b5b0492506004810190505b60648310612fc95760648381612fbf57612fbe614240565b5b0492506002810190505b600a8310612fd8576001810190505b80915050919050565b600033905090565b600060019054906101000a900460ff16613038576040517f08c379a000000000000000000000000000000000000000000000000000000000815260040161302f9061434d565b60405180910390fd5b613048613043612fe1565b612d4c565b565b82805461305690613b95565b90600052602060002090601f01602090048101928261307857600085556130bf565b82601f1061309157805160ff19168380011785556130bf565b828001600101855582156130bf579182015b828111156130be5782518255916020019190600101906130a3565b5b5090506130cc9190613131565b5090565b6040518061018001604052806060815260200160608152602001606081526020016000815260200160008152602001600081526020016060815260200160608152602001606081526020016060815260200160608152602001606081525090565b5b8082111561314a576000816000905550600101613132565b5090565b6000604051905090565b600080fd5b600080fd5b600080fd5b600080fd5b6000601f19601f8301169050919050565b7f4e487b7100000000000000000000000000000000000000000000000000000000600052604160045260246000fd5b6131b58261316c565b810181811067ffffffffffffffff821117156131d4576131d361317d565b5b80604052505050565b60006131e761314e565b90506131f382826131ac565b919050565b600067ffffffffffffffff8211156132135761321261317d565b5b61321c8261316c565b9050602081019050919050565b82818337600083830152505050565b600061324b613246846131f8565b6131dd565b90508281526020810184848401111561326757613266613167565b5b613272848285613229565b509392505050565b600082601f83011261328f5761328e613162565b5b813561329f848260208601613238565b91505092915050565b600080604083850312156132bf576132be613158565b5b600083013567ffffffffffffffff8111156132dd576132dc61315d565b5b6132e98582860161327a565b925050602083013567ffffffffffffffff81111561330a5761330961315d565b5b6133168582860161327a565b9150509250929050565b60006020828403121561333657613335613158565b5b600082013567ffffffffffffffff8111156133545761335361315d565b5b6133608482850161327a565b91505092915050565b600081519050919050565b600082825260208201905092915050565b60005b838110156133a3578082015181840152602081019050613388565b838111156133b2576000848401525b50505050565b60006133c382613369565b6133cd8185613374565b93506133dd818560208601613385565b6133e68161316c565b840191505092915050565b6000819050919050565b613404816133f1565b82525050565b600061018083016000830151848203600086015261342882826133b8565b9150506020830151848203602086015261344282826133b8565b9150506040830151848203604086015261345c82826133b8565b915050606083015161347160608601826133fb565b50608083015161348460808601826133fb565b5060a083015161349760a08601826133fb565b5060c083015184820360c08601526134af82826133b8565b91505060e083015184820360e08601526134c982826133b8565b9150506101008301518482036101008601526134e582826133b8565b91505061012083015184820361012086015261350182826133b8565b91505061014083015184820361014086015261351d82826133b8565b91505061016083015184820361016086015261353982826133b8565b9150508091505092915050565b60006020820190508181036000830152613560818461340a565b905092915050565b600081519050919050565b600082825260208201905092915050565b6000819050602082019050919050565b60006101808301600083015184820360008601526135b282826133b8565b915050602083015184820360208601526135cc82826133b8565b915050604083015184820360408601526135e682826133b8565b91505060608301516135fb60608601826133fb565b50608083015161360e60808601826133fb565b5060a083015161362160a08601826133fb565b5060c083015184820360c086015261363982826133b8565b91505060e083015184820360e086015261365382826133b8565b91505061010083015184820361010086015261366f82826133b8565b91505061012083015184820361012086015261368b82826133b8565b9150506101408301518482036101408601526136a782826133b8565b9150506101608301518482036101608601526136c382826133b8565b9150508091505092915050565b60006136dc8383613594565b905092915050565b6000602082019050919050565b60006136fc82613568565b6137068185613573565b93508360208202850161371885613584565b8060005b85811015613754578484038952815161373585826136d0565b9450613740836136e4565b925060208a0199505060018101905061371c565b50829750879550505050505092915050565b6000602082019050818103600083015261378081846136f1565b905092915050565b600073ffffffffffffffffffffffffffffffffffffffff82169050919050565b60006137b382613788565b9050919050565b6137c3816137a8565b81146137ce57600080fd5b50565b6000813590506137e0816137ba565b92915050565b600080604083850312156137fd576137fc613158565b5b600061380b858286016137d1565b925050602083013567ffffffffffffffff81111561382c5761382b61315d565b5b6138388582860161327a565b9150509250929050565b61384b816137a8565b82525050565b60006020820190506138666000830184613842565b92915050565b60006020828403121561388257613881613158565b5b6000613890848285016137d1565b91505092915050565b600082825260208201905092915050565b60006138b582613369565b6138bf8185613899565b93506138cf818560208601613385565b6138d88161316c565b840191505092915050565b600060208201905081810360008301526138fd81846138aa565b905092915050565b61390e816133f1565b811461391957600080fd5b50565b60008135905061392b81613905565b92915050565b60006020828403121561394757613946613158565b5b60006139558482850161391c565b91505092915050565b613967816133f1565b82525050565b6000610180820190508181036000830152613988818f6138aa565b9050818103602083015261399c818e6138aa565b905081810360408301526139b0818d6138aa565b90506139bf606083018c61395e565b6139cc608083018b61395e565b6139d960a083018a61395e565b81810360c08301526139eb81896138aa565b905081810360e08301526139ff81886138aa565b9050818103610100830152613a1481876138aa565b9050818103610120830152613a2981866138aa565b9050818103610140830152613a3e81856138aa565b9050818103610160830152613a5381846138aa565b90509d9c50505050505050505050505050565b6000602082019050613a7b600083018461395e565b92915050565b60008060008060808587031215613a9b57613a9a613158565b5b600085013567ffffffffffffffff811115613ab957613ab861315d565b5b613ac58782880161327a565b9450506020613ad68782880161391c565b9350506040613ae78782880161391c565b925050606085013567ffffffffffffffff811115613b0857613b0761315d565b5b613b148782880161327a565b91505092959194509250565b600081905092915050565b50565b6000613b3b600083613b20565b9150613b4682613b2b565b600082019050919050565b6000613b5c82613b2e565b9150819050919050565b7f4e487b7100000000000000000000000000000000000000000000000000000000600052602260045260246000fd5b60006002820490506001821680613bad57607f821691505b60208210811415613bc157613bc0613b66565b5b50919050565b60008190508160005260206000209050919050565b60008154613be981613b95565b613bf38186613b20565b94506001821660008114613c0e5760018114613c1f57613c52565b60ff19831686528186019350613c52565b613c2885613bc7565b60005b83811015613c4a57815481890152600182019150602081019050613c2b565b838801955050505b50505092915050565b6000613c678284613bdc565b915081905092915050565b7f596f7520617265206e6f742070617274206f66207465616d2079657420212100600082015250565b6000613ca8601f83613899565b9150613cb382613c72565b602082019050919050565b60006020820190508181036000830152613cd781613c9b565b9050919050565b6000613ce982613369565b613cf38185613b20565b9350613d03818560208601613385565b80840191505092915050565b6000613d1b8284613cde565b915081905092915050565b7f5300000000000000000000000000000000000000000000000000000000000000600082015250565b6000613d5c600183613b20565b9150613d6782613d26565b600182019050919050565b6000613d7d82613d4f565b9150819050919050565b7f53616c657320526570726573656e746174697665000000000000000000000000600082015250565b6000613dbd601483613b20565b9150613dc882613d87565b601482019050919050565b6000613dde82613db0565b9150819050919050565b7f596f7520617265206e6f7420612053616c657320526570202121000000000000600082015250565b6000613e1e601a83613899565b9150613e2982613de8565b602082019050919050565b60006020820190508181036000830152613e4d81613e11565b9050919050565b7f4e487b7100000000000000000000000000000000000000000000000000000000600052601160045260246000fd5b6000613e8e826133f1565b9150613e99836133f1565b925082821015613eac57613eab613e54565b5b828203905092915050565b7f534f000000000000000000000000000000000000000000000000000000000000815250565b6000613ee882613eb7565b600282019150613ef88284613cde565b915081905092915050565b7f4e487b7100000000000000000000000000000000000000000000000000000000600052603260045260246000fd5b6000613f3d826133f1565b9150613f48836133f1565b9250827fffffffffffffffffffffffffffffffffffffffffffffffffffffffffffffffff03821115613f7d57613f7c613e54565b5b828201905092915050565b6000613f93826133f1565b91507fffffffffffffffffffffffffffffffffffffffffffffffffffffffffffffffff821415613fc657613fc5613e54565b5b600182019050919050565b7f4e756c6c206163636f756e7420697320636f6d696e672066726f6d2066726f6e60008201527f742d656e64202121000000000000000000000000000000000000000000000000602082015250565b600061402d602883613899565b915061403882613fd1565b604082019050919050565b6000602082019050818103600083015261405c81614020565b9050919050565b7f496e697469616c697a61626c653a20636f6e747261637420697320616c72656160008201527f647920696e697469616c697a6564000000000000000000000000000000000000602082015250565b60006140bf602e83613899565b91506140ca82614063565b604082019050919050565b600060208201905081810360008301526140ee816140b2565b9050919050565b6000819050919050565b600060ff82169050919050565b6000819050919050565b600061413161412c614127846140f5565b61410c565b6140ff565b9050919050565b61414181614116565b82525050565b600060208201905061415c6000830184614138565b92915050565b7f4f776e61626c653a206e6577206f776e657220697320746865207a65726f206160008201527f6464726573730000000000000000000000000000000000000000000000000000602082015250565b60006141be602683613899565b91506141c982614162565b604082019050919050565b600060208201905081810360008301526141ed816141b1565b9050919050565b7f504f000000000000000000000000000000000000000000000000000000000000815250565b6000614225826141f4565b6002820191506142358284613cde565b915081905092915050565b7f4e487b7100000000000000000000000000000000000000000000000000000000600052601260045260246000fd5b7f4f776e61626c653a2063616c6c6572206973206e6f7420746865206f776e6572600082015250565b60006142a5602083613899565b91506142b08261426f565b602082019050919050565b600060208201905081810360008301526142d481614298565b9050919050565b7f496e697469616c697a61626c653a20636f6e7472616374206973206e6f74206960008201527f6e697469616c697a696e67000000000000000000000000000000000000000000602082015250565b6000614337602b83613899565b9150614342826142db565b604082019050919050565b600060208201905081810360008301526143668161432a565b905091905056fea26469706673582212203128edfb657fad35bced69a2b331af959fee192d42897e6dea0bb53130e40b3c64736f6c634300080c0033",
  "linkReferences": {},
  "deployedLinkReferences": {}
}