{
  "_format": "hh-sol-artifact-1",
  "contractName": "SupplyChain",
  "sourceName": "contracts/SupplyChain.sol",
  "abi": [
    {
      "inputs": [],
      "stateMutability": "payable",
      "type": "constructor"
    },
    {
      "anonymous": false,
      "inputs": [
        {
          "indexed": false,
          "internalType": "uint256",
          "name": "uid",
          "type": "uint256"
        }
      ],
      "name": "Manufactured",
      "type": "event"
    },
    {
      "anonymous": false,
      "inputs": [
        {
          "indexed": true,
          "internalType": "address",
          "name": "_account",
          "type": "address"
        }
      ],
      "name": "ManufacturerAdded",
      "type": "event"
    },
    {
      "anonymous": false,
      "inputs": [
        {
          "indexed": false,
          "internalType": "uint256",
          "name": "uid",
          "type": "uint256"
        }
      ],
      "name": "PurchasedByCustomer",
      "type": "event"
    },
    {
      "anonymous": false,
      "inputs": [
        {
          "indexed": false,
          "internalType": "uint256",
          "name": "uid",
          "type": "uint256"
        }
      ],
      "name": "PurchasedByThirdParty",
      "type": "event"
    },
    {
      "anonymous": false,
      "inputs": [
        {
          "indexed": false,
          "internalType": "uint256",
          "name": "uid",
          "type": "uint256"
        }
      ],
      "name": "ReceivedByCustomer",
      "type": "event"
    },
    {
      "anonymous": false,
      "inputs": [
        {
          "indexed": false,
          "internalType": "uint256",
          "name": "uid",
          "type": "uint256"
        }
      ],
      "name": "ReceivedByDeliveryHub",
      "type": "event"
    },
    {
      "anonymous": false,
      "inputs": [
        {
          "indexed": false,
          "internalType": "uint256",
          "name": "uid",
          "type": "uint256"
        }
      ],
      "name": "ReceivedByThirdParty",
      "type": "event"
    },
    {
      "anonymous": false,
      "inputs": [
        {
          "indexed": false,
          "internalType": "uint256",
          "name": "uid",
          "type": "uint256"
        }
      ],
      "name": "ShippedByDeliveryHub",
      "type": "event"
    },
    {
      "anonymous": false,
      "inputs": [
        {
          "indexed": false,
          "internalType": "uint256",
          "name": "uid",
          "type": "uint256"
        }
      ],
      "name": "ShippedByManufacturer",
      "type": "event"
    },
    {
      "anonymous": false,
      "inputs": [
        {
          "indexed": false,
          "internalType": "uint256",
          "name": "uid",
          "type": "uint256"
        }
      ],
      "name": "ShippedByThirdParty",
      "type": "event"
    },
    {
      "inputs": [
        {
          "internalType": "address",
          "name": "_account",
          "type": "address"
        }
      ],
      "name": "addCustomerRole",
      "outputs": [],
      "stateMutability": "nonpayable",
      "type": "function"
    },
    {
      "inputs": [
        {
          "internalType": "address",
          "name": "_account",
          "type": "address"
        }
      ],
      "name": "addDeliveryHubRole",
      "outputs": [],
      "stateMutability": "nonpayable",
      "type": "function"
    },
    {
      "inputs": [
        {
          "internalType": "address",
          "name": "_account",
          "type": "address"
        }
      ],
      "name": "addManufacturerRole",
      "outputs": [],
      "stateMutability": "nonpayable",
      "type": "function"
    },
    {
      "inputs": [
        {
          "internalType": "address",
          "name": "_account",
          "type": "address"
        }
      ],
      "name": "addThirdPartyRole",
      "outputs": [],
      "stateMutability": "nonpayable",
      "type": "function"
    },
    {
      "inputs": [],
      "name": "fetchProductCount",
      "outputs": [
        {
          "internalType": "uint256",
          "name": "",
          "type": "uint256"
        }
      ],
      "stateMutability": "view",
      "type": "function"
    },
    {
      "inputs": [
        {
          "internalType": "uint256",
          "name": "_uid",
          "type": "uint256"
        }
      ],
      "name": "fetchProductHistoryLength",
      "outputs": [
        {
          "internalType": "uint256",
          "name": "",
          "type": "uint256"
        }
      ],
      "stateMutability": "view",
      "type": "function"
    },
    {
      "inputs": [
        {
          "internalType": "uint256",
          "name": "_uid",
          "type": "uint256"
        },
        {
          "internalType": "string",
          "name": "_type",
          "type": "string"
        },
        {
          "internalType": "uint256",
          "name": "i",
          "type": "uint256"
        }
      ],
      "name": "fetchProductPart1",
      "outputs": [
        {
          "internalType": "uint256",
          "name": "",
          "type": "uint256"
        },
        {
          "internalType": "uint256",
          "name": "",
          "type": "uint256"
        },
        {
          "internalType": "address",
          "name": "",
          "type": "address"
        },
        {
          "internalType": "address",
          "name": "",
          "type": "address"
        },
        {
          "internalType": "string",
          "name": "",
          "type": "string"
        },
        {
          "internalType": "string",
          "name": "",
          "type": "string"
        },
        {
          "internalType": "string",
          "name": "",
          "type": "string"
        },
        {
          "internalType": "string",
          "name": "",
          "type": "string"
        }
      ],
      "stateMutability": "view",
      "type": "function"
    },
    {
      "inputs": [
        {
          "internalType": "uint256",
          "name": "_uid",
          "type": "uint256"
        },
        {
          "internalType": "string",
          "name": "_type",
          "type": "string"
        },
        {
          "internalType": "uint256",
          "name": "i",
          "type": "uint256"
        }
      ],
      "name": "fetchProductPart2",
      "outputs": [
        {
          "internalType": "uint256",
          "name": "",
          "type": "uint256"
        },
        {
          "internalType": "string",
          "name": "",
          "type": "string"
        },
        {
          "internalType": "uint256",
          "name": "",
          "type": "uint256"
        },
        {
          "internalType": "uint256",
          "name": "",
          "type": "uint256"
        },
        {
          "internalType": "string",
          "name": "",
          "type": "string"
        },
        {
          "internalType": "enum Structure.State",
          "name": "",
          "type": "uint8"
        },
        {
          "internalType": "address",
          "name": "",
          "type": "address"
        },
        {
          "internalType": "string",
          "name": "",
          "type": "string"
        }
      ],
      "stateMutability": "view",
      "type": "function"
    },
    {
      "inputs": [
        {
          "internalType": "uint256",
          "name": "_uid",
          "type": "uint256"
        },
        {
          "internalType": "string",
          "name": "_type",
          "type": "string"
        },
        {
          "internalType": "uint256",
          "name": "i",
          "type": "uint256"
        }
      ],
      "name": "fetchProductPart3",
      "outputs": [
        {
          "internalType": "string",
          "name": "",
          "type": "string"
        },
        {
          "internalType": "address",
          "name": "",
          "type": "address"
        },
        {
          "internalType": "string",
          "name": "",
          "type": "string"
        },
        {
          "internalType": "string",
          "name": "",
          "type": "string"
        },
        {
          "internalType": "address",
          "name": "",
          "type": "address"
        },
        {
          "internalType": "string",
          "name": "",
          "type": "string"
        }
      ],
      "stateMutability": "view",
      "type": "function"
    },
    {
      "inputs": [
        {
          "internalType": "uint256",
          "name": "_uid",
          "type": "uint256"
        }
      ],
      "name": "fetchProductState",
      "outputs": [
        {
          "internalType": "enum Structure.State",
          "name": "",
          "type": "uint8"
        }
      ],
      "stateMutability": "view",
      "type": "function"
    },
    {
      "inputs": [
        {
          "internalType": "address",
          "name": "_account",
          "type": "address"
        }
      ],
      "name": "hasCustomerRole",
      "outputs": [
        {
          "internalType": "bool",
          "name": "",
          "type": "bool"
        }
      ],
      "stateMutability": "view",
      "type": "function"
    },
    {
      "inputs": [
        {
          "internalType": "address",
          "name": "_account",
          "type": "address"
        }
      ],
      "name": "hasDeliveryHubRole",
      "outputs": [
        {
          "internalType": "bool",
          "name": "",
          "type": "bool"
        }
      ],
      "stateMutability": "view",
      "type": "function"
    },
    {
      "inputs": [
        {
          "internalType": "address",
          "name": "_account",
          "type": "address"
        }
      ],
      "name": "hasManufacturerRole",
      "outputs": [
        {
          "internalType": "bool",
          "name": "",
          "type": "bool"
        }
      ],
      "stateMutability": "view",
      "type": "function"
    },
    {
      "inputs": [
        {
          "internalType": "address",
          "name": "_account",
          "type": "address"
        }
      ],
      "name": "hasThirdPartyRole",
      "outputs": [
        {
          "internalType": "bool",
          "name": "",
          "type": "bool"
        }
      ],
      "stateMutability": "view",
      "type": "function"
    },
    {
      "inputs": [
        {
          "internalType": "string",
          "name": "manufacturerName",
          "type": "string"
        },
        {
          "internalType": "string",
          "name": "manufacturerDetails",
          "type": "string"
        },
        {
          "internalType": "string",
          "name": "manufacturerLongitude",
          "type": "string"
        },
        {
          "internalType": "string",
          "name": "manufacturerLatitude",
          "type": "string"
        },
        {
          "internalType": "string",
          "name": "productName",
          "type": "string"
        },
        {
          "internalType": "uint256",
          "name": "productCode",
          "type": "uint256"
        },
        {
          "internalType": "uint256",
          "name": "productPrice",
          "type": "uint256"
        },
        {
          "internalType": "string",
          "name": "productCategory",
          "type": "string"
        }
      ],
      "name": "manufactureProduct",
      "outputs": [],
      "stateMutability": "nonpayable",
      "type": "function"
    },
    {
      "inputs": [
        {
          "internalType": "uint256",
          "name": "_uid",
          "type": "uint256"
        }
      ],
      "name": "purchaseByCustomer",
      "outputs": [],
      "stateMutability": "nonpayable",
      "type": "function"
    },
    {
      "inputs": [
        {
          "internalType": "uint256",
          "name": "_uid",
          "type": "uint256"
        }
      ],
      "name": "purchaseByThirdParty",
      "outputs": [],
      "stateMutability": "nonpayable",
      "type": "function"
    },
    {
      "inputs": [
        {
          "internalType": "uint256",
          "name": "_uid",
          "type": "uint256"
        }
      ],
      "name": "receiveByCustomer",
      "outputs": [],
      "stateMutability": "nonpayable",
      "type": "function"
    },
    {
      "inputs": [
        {
          "internalType": "uint256",
          "name": "_uid",
          "type": "uint256"
        },
        {
          "internalType": "string",
          "name": "deliveryHubLongitude",
          "type": "string"
        },
        {
          "internalType": "string",
          "name": "deliveryHubLatitude",
          "type": "string"
        }
      ],
      "name": "receiveByDeliveryHub",
      "outputs": [],
      "stateMutability": "nonpayable",
      "type": "function"
    },
    {
      "inputs": [
        {
          "internalType": "uint256",
          "name": "_uid",
          "type": "uint256"
        },
        {
          "internalType": "string",
          "name": "thirdPartyLongitude",
          "type": "string"
        },
        {
          "internalType": "string",
          "name": "thirdPartyLatitude",
          "type": "string"
        }
      ],
      "name": "receiveByThirdParty",
      "outputs": [],
      "stateMutability": "nonpayable",
      "type": "function"
    },
    {
      "inputs": [
        {
          "internalType": "uint256",
          "name": "_uid",
          "type": "uint256"
        },
        {
          "internalType": "string",
          "name": "tran",
          "type": "string"
        }
      ],
      "name": "setTransactionHash",
      "outputs": [],
      "stateMutability": "nonpayable",
      "type": "function"
    },
    {
      "inputs": [
        {
          "internalType": "string",
          "name": "tran",
          "type": "string"
        }
      ],
      "name": "setTransactionHashOnManufacture",
      "outputs": [],
      "stateMutability": "nonpayable",
      "type": "function"
    },
    {
      "inputs": [
        {
          "internalType": "uint256",
          "name": "_uid",
          "type": "uint256"
        }
      ],
      "name": "shipByDeliveryHub",
      "outputs": [],
      "stateMutability": "nonpayable",
      "type": "function"
    },
    {
      "inputs": [
        {
          "internalType": "uint256",
          "name": "_uid",
          "type": "uint256"
        }
      ],
      "name": "shipByThirdParty",
      "outputs": [],
      "stateMutability": "nonpayable",
      "type": "function"
    },
    {
      "inputs": [
        {
          "internalType": "uint256",
          "name": "_uid",
          "type": "uint256"
        }
      ],
      "name": "shipToThirdParty",
      "outputs": [],
      "stateMutability": "nonpayable",
      "type": "function"
    },
    {
      "inputs": [],
      "name": "uid",
      "outputs": [
        {
          "internalType": "uint256",
          "name": "",
          "type": "uint256"
        }
      ],
      "stateMutability": "view",
      "type": "function"
    }
  ],
  "bytecode": "0x608060405233600260006101000a81548173ffffffffffffffffffffffffffffffffffffffff021916908373ffffffffffffffffffffffffffffffffffffffff160217905550600180819055506001600081905550615bfc806100636000396000f3fe608060405234801561001057600080fd5b506004361061018d5760003560e01c8063786ea161116100de578063d44bebcc11610097578063ee707c1e11610071578063ee707c1e146104c1578063f16791b3146104dd578063f4121b67146104fb578063f514ce36146105175761018d565b8063d44bebcc14610445578063e2f1fe1414610475578063e55128ea146104a55761018d565b8063786ea161146103705780638290f8591461038c5780638eee90ea146103a857806398c95889146103c4578063b843bdee146103f9578063cd2885e0146104155761018d565b80635212e5101161014b5780636cf07e24116101255780636cf07e24146102e55780636f1fe8d7146103015780637217eb2e1461033857806372df397e146103545761018d565b80635212e510146102625780636000ada11461027e578063658db497146102ae5761018d565b80623375b714610192578063024edf9a146101ae5780630a036e25146101de5780633334529e146101fa578063405ba7ef14610216578063453dd4af14610246575b600080fd5b6101ac60048036038101906101a791906152cc565b610535565b005b6101c860048036038101906101c39190615256565b610d95565b6040516101d59190615622565b60405180910390f35b6101f860048036038101906101f3919061542a565b610e27565b005b610214600480360381019061020f91906154b3565b611373565b005b610230600480360381019061022b919061542a565b6119c7565b60405161023d91906156d5565b60405180910390f35b610260600480360381019061025b9190615256565b6119ea565b005b61027c60048036038101906102779190615256565b611a95565b005b61029860048036038101906102939190615256565b611b40565b6040516102a59190615622565b60405180910390f35b6102c860048036038101906102c3919061553e565b611bd2565b6040516102dc989796959493929190615783565b60405180910390f35b6102ff60048036038101906102fa919061542a565b611fbf565b005b61031b6004803603810190610316919061553e565b6125d1565b60405161032f9897969594939291906156f0565b60405180910390f35b610352600480360381019061034d919061542a565b612928565b005b61036e6004803603810190610369919061542a565b612eac565b005b61038a60048036038101906103859190615457565b6134a0565b005b6103a660048036038101906103a19190615256565b61351d565b005b6103c260048036038101906103bd91906154b3565b6135c8565b005b6103de60048036038101906103d9919061553e565b613c02565b6040516103f096959493929190615658565b60405180910390f35b610413600480360381019061040e919061542a565b613fdc565b005b61042f600480360381019061042a9190615256565b614563565b60405161043c9190615622565b60405180910390f35b61045f600480360381019061045a9190615256565b6145f5565b60405161046c9190615622565b60405180910390f35b61048f600480360381019061048a919061542a565b614687565b60405161049c919061563d565b60405180910390f35b6104bf60048036038101906104ba9190615283565b6146b4565b005b6104db60048036038101906104d6919061542a565b614746565b005b6104e5614d02565b6040516104f291906156d5565b60405180910390f35b61051560048036038101906105109190615256565b614d0b565b005b61051f614db6565b60405161052c91906156d5565b60405180910390f35b61053e33611b40565b61054757600080fd5b600080549050610555614f01565b600154816020018181525050818160000181815250508981608001516020018190525088816080015160400181905250878160800151606001819052508681608001516080018190525042816080015160a001818152505033816040019073ffffffffffffffffffffffffffffffffffffffff16908173ffffffffffffffffffffffffffffffffffffffff16815250503381608001516000019073ffffffffffffffffffffffffffffffffffffffff16908173ffffffffffffffffffffffffffffffffffffffff168152505061062a81614dbc565b60008160600190600881111561064357610642615aa3565b5b9081600881111561065757610656615aa3565b5b815250506106688187878787614ec4565b8060036000848152602001908152602001600020600082015181600001556020820151816001015560408201518160020160006101000a81548173ffffffffffffffffffffffffffffffffffffffff021916908373ffffffffffffffffffffffffffffffffffffffff16021790555060608201518160020160146101000a81548160ff0219169083600881111561070257610701615aa3565b5b021790555060808201518160030160008201518160000160006101000a81548173ffffffffffffffffffffffffffffffffffffffff021916908373ffffffffffffffffffffffffffffffffffffffff1602179055506020820151816001019080519060200190610773929190614faa565b506040820151816002019080519060200190610790929190614faa565b5060608201518160030190805190602001906107ad929190614faa565b5060808201518160040190805190602001906107ca929190614faa565b5060a08201518160050155505060a08201518160090160008201518160000160006101000a81548173ffffffffffffffffffffffffffffffffffffffff021916908373ffffffffffffffffffffffffffffffffffffffff1602179055506020820151816001019080519060200190610843929190614faa565b506040820151816002019080519060200190610860929190614faa565b50505060c082015181600c016000820151816000019080519060200190610888929190614faa565b50602082015181600101556040820151816002015560608201518160030190805190602001906108b9929190614faa565b50505060e08201518160100160008201518160000160006101000a81548173ffffffffffffffffffffffffffffffffffffffff021916908373ffffffffffffffffffffffffffffffffffffffff1602179055506020820151816001019080519060200190610928929190614faa565b506040820151816002019080519060200190610945929190614faa565b5050506101008201518160130160006101000a81548173ffffffffffffffffffffffffffffffffffffffff021916908373ffffffffffffffffffffffffffffffffffffffff1602179055506101208201518160140190805190602001906109ad929190614faa565b5090505060046000838152602001908152602001600020600001819080600181540180825580915050600190039060005260206000209060150201600090919091909150600082015181600001556020820151816001015560408201518160020160006101000a81548173ffffffffffffffffffffffffffffffffffffffff021916908373ffffffffffffffffffffffffffffffffffffffff16021790555060608201518160020160146101000a81548160ff02191690836008811115610a7757610a76615aa3565b5b021790555060808201518160030160008201518160000160006101000a81548173ffffffffffffffffffffffffffffffffffffffff021916908373ffffffffffffffffffffffffffffffffffffffff1602179055506020820151816001019080519060200190610ae8929190614faa565b506040820151816002019080519060200190610b05929190614faa565b506060820151816003019080519060200190610b22929190614faa565b506080820151816004019080519060200190610b3f929190614faa565b5060a08201518160050155505060a08201518160090160008201518160000160006101000a81548173ffffffffffffffffffffffffffffffffffffffff021916908373ffffffffffffffffffffffffffffffffffffffff1602179055506020820151816001019080519060200190610bb8929190614faa565b506040820151816002019080519060200190610bd5929190614faa565b50505060c082015181600c016000820151816000019080519060200190610bfd929190614faa565b5060208201518160010155604082015181600201556060820151816003019080519060200190610c2e929190614faa565b50505060e08201518160100160008201518160000160006101000a81548173ffffffffffffffffffffffffffffffffffffffff021916908373ffffffffffffffffffffffffffffffffffffffff1602179055506020820151816001019080519060200190610c9d929190614faa565b506040820151816002019080519060200190610cba929190614faa565b5050506101008201518160130160006101000a81548173ffffffffffffffffffffffffffffffffffffffff021916908373ffffffffffffffffffffffffffffffffffffffff160217905550610120820151816014019080519060200190610d22929190614faa565b50505060016000815480929190610d3890615a2b565b91905055506001600054610d4c919061588f565b6000819055507fd29d8a68ca7c8c74be5579719d445aabfe230ed6e6a83aff475a663500eb760982604051610d8191906156d5565b60405180910390a150505050505050505050565b60008073ffffffffffffffffffffffffffffffffffffffff168273ffffffffffffffffffffffffffffffffffffffff161415610dd057600080fd5b600560008373ffffffffffffffffffffffffffffffffffffffff1673ffffffffffffffffffffffffffffffffffffffff16815260200190815260200160002060000160039054906101000a900460ff169050919050565b6003600082815260200190815260200160002060030160000160009054906101000a900473ffffffffffffffffffffffffffffffffffffffff168073ffffffffffffffffffffffffffffffffffffffff163373ffffffffffffffffffffffffffffffffffffffff1614610e9957600080fd5b610ea233611b40565b610eab57600080fd5b60026003600084815260200190815260200160002060020160146101000a81548160ff02191690836008811115610ee557610ee4615aa3565b5b02179055506004600083815260200190815260200160002060000160036000848152602001908152602001600020908060018154018082558091505060019003906000526020600020906015020160009091909190915060008201548160000155600182015481600101556002820160009054906101000a900473ffffffffffffffffffffffffffffffffffffffff168160020160006101000a81548173ffffffffffffffffffffffffffffffffffffffff021916908373ffffffffffffffffffffffffffffffffffffffff1602179055506002820160149054906101000a900460ff168160020160146101000a81548160ff02191690836008811115610fef57610fee615aa3565b5b021790555060038201816003016000820160009054906101000a900473ffffffffffffffffffffffffffffffffffffffff168160000160006101000a81548173ffffffffffffffffffffffffffffffffffffffff021916908373ffffffffffffffffffffffffffffffffffffffff1602179055506001820181600101908054611077906159c8565b611082929190615030565b506002820181600201908054611097906159c8565b6110a2929190615030565b5060038201816003019080546110b7906159c8565b6110c2929190615030565b5060048201816004019080546110d7906159c8565b6110e2929190615030565b5060058201548160050155505060098201816009016000820160009054906101000a900473ffffffffffffffffffffffffffffffffffffffff168160000160006101000a81548173ffffffffffffffffffffffffffffffffffffffff021916908373ffffffffffffffffffffffffffffffffffffffff1602179055506001820181600101908054611172906159c8565b61117d929190615030565b506002820181600201908054611192906159c8565b61119d929190615030565b505050600c820181600c0160008201816000019080546111bc906159c8565b6111c7929190615030565b50600182015481600101556002820154816002015560038201816003019080546111f0906159c8565b6111fb929190615030565b50505060108201816010016000820160009054906101000a900473ffffffffffffffffffffffffffffffffffffffff168160000160006101000a81548173ffffffffffffffffffffffffffffffffffffffff021916908373ffffffffffffffffffffffffffffffffffffffff1602179055506001820181600101908054611281906159c8565b61128c929190615030565b5060028201816002019080546112a1906159c8565b6112ac929190615030565b5050506013820160009054906101000a900473ffffffffffffffffffffffffffffffffffffffff168160130160006101000a81548173ffffffffffffffffffffffffffffffffffffffff021916908373ffffffffffffffffffffffffffffffffffffffff160217905550601482018160140190805461132a906159c8565b611335929190615030565b5050507f25727bef8a186dd95a062151451f2d651551b53124c18208d7653b1217ae31ba8260405161136791906156d5565b60405180910390a15050565b826002600881111561138857611387615aa3565b5b6003600083815260200190815260200160002060020160149054906101000a900460ff1660088111156113be576113bd615aa3565b5b146113c857600080fd5b6003600085815260200190815260200160002060090160000160009054906101000a900473ffffffffffffffffffffffffffffffffffffffff168073ffffffffffffffffffffffffffffffffffffffff163373ffffffffffffffffffffffffffffffffffffffff161461143a57600080fd5b61144333614563565b61144c57600080fd5b336003600087815260200190815260200160002060020160006101000a81548173ffffffffffffffffffffffffffffffffffffffff021916908373ffffffffffffffffffffffffffffffffffffffff160217905550836003600087815260200190815260200160002060090160010190805190602001906114ce929190614faa565b50826003600087815260200190815260200160002060090160020190805190602001906114fc929190614faa565b50600380600087815260200190815260200160002060020160146101000a81548160ff0219169083600881111561153657611535615aa3565b5b02179055506004600086815260200190815260200160002060000160036000878152602001908152602001600020908060018154018082558091505060019003906000526020600020906015020160009091909190915060008201548160000155600182015481600101556002820160009054906101000a900473ffffffffffffffffffffffffffffffffffffffff168160020160006101000a81548173ffffffffffffffffffffffffffffffffffffffff021916908373ffffffffffffffffffffffffffffffffffffffff1602179055506002820160149054906101000a900460ff168160020160146101000a81548160ff021916908360088111156116405761163f615aa3565b5b021790555060038201816003016000820160009054906101000a900473ffffffffffffffffffffffffffffffffffffffff168160000160006101000a81548173ffffffffffffffffffffffffffffffffffffffff021916908373ffffffffffffffffffffffffffffffffffffffff16021790555060018201816001019080546116c8906159c8565b6116d3929190615030565b5060028201816002019080546116e8906159c8565b6116f3929190615030565b506003820181600301908054611708906159c8565b611713929190615030565b506004820181600401908054611728906159c8565b611733929190615030565b5060058201548160050155505060098201816009016000820160009054906101000a900473ffffffffffffffffffffffffffffffffffffffff168160000160006101000a81548173ffffffffffffffffffffffffffffffffffffffff021916908373ffffffffffffffffffffffffffffffffffffffff16021790555060018201816001019080546117c3906159c8565b6117ce929190615030565b5060028201816002019080546117e3906159c8565b6117ee929190615030565b505050600c820181600c01600082018160000190805461180d906159c8565b611818929190615030565b5060018201548160010155600282015481600201556003820181600301908054611841906159c8565b61184c929190615030565b50505060108201816010016000820160009054906101000a900473ffffffffffffffffffffffffffffffffffffffff168160000160006101000a81548173ffffffffffffffffffffffffffffffffffffffff021916908373ffffffffffffffffffffffffffffffffffffffff16021790555060018201816001019080546118d2906159c8565b6118dd929190615030565b5060028201816002019080546118f2906159c8565b6118fd929190615030565b5050506013820160009054906101000a900473ffffffffffffffffffffffffffffffffffffffff168160130160006101000a81548173ffffffffffffffffffffffffffffffffffffffff021916908373ffffffffffffffffffffffffffffffffffffffff160217905550601482018160140190805461197b906159c8565b611986929190615030565b5050507fa22971300ba7d9ca2113cf57c3238cde86a32cfba0c31a13ad86a23bde3facf2856040516119b891906156d5565b60405180910390a15050505050565b600060046000838152602001908152602001600020600001805490509050919050565b600073ffffffffffffffffffffffffffffffffffffffff168173ffffffffffffffffffffffffffffffffffffffff161415611a2457600080fd5b611a2d816145f5565b15611a3757600080fd5b6001600560008373ffffffffffffffffffffffffffffffffffffffff1673ffffffffffffffffffffffffffffffffffffffff16815260200190815260200160002060000160036101000a81548160ff02191690831515021790555050565b600073ffffffffffffffffffffffffffffffffffffffff168173ffffffffffffffffffffffffffffffffffffffff161415611acf57600080fd5b611ad881614563565b15611ae257600080fd5b6001600560008373ffffffffffffffffffffffffffffffffffffffff1673ffffffffffffffffffffffffffffffffffffffff16815260200190815260200160002060000160016101000a81548160ff02191690831515021790555050565b60008073ffffffffffffffffffffffffffffffffffffffff168273ffffffffffffffffffffffffffffffffffffffff161415611b7b57600080fd5b600560008373ffffffffffffffffffffffffffffffffffffffff1673ffffffffffffffffffffffffffffffffffffffff16815260200190815260200160002060000160009054906101000a900460ff169050919050565b6000806000806060806060806000600360008d8152602001908152602001600020600001541415611c0257600080fd5b6000600360008d815260200190815260200160002090506040518060400160405280600781526020017f70726f6475637400000000000000000000000000000000000000000000000000815250805190602001208b805190602001201415611c7a57600360008d815260200190815260200160002090505b6040518060400160405280600781526020017f686973746f727900000000000000000000000000000000000000000000000000815250805190602001208b805190602001201415611cfe57600460008d81526020019081526020016000206000018a81548110611ced57611cec615b01565b5b906000526020600020906015020190505b806000015481600101548260020160009054906101000a900473ffffffffffffffffffffffffffffffffffffffff168360030160000160009054906101000a900473ffffffffffffffffffffffffffffffffffffffff1684600301600101856003016002018660030160030187600301600401838054611d7d906159c8565b80601f0160208091040260200160405190810160405280929190818152602001828054611da9906159c8565b8015611df65780601f10611dcb57610100808354040283529160200191611df6565b820191906000526020600020905b815481529060010190602001808311611dd957829003601f168201915b50505050509350828054611e09906159c8565b80601f0160208091040260200160405190810160405280929190818152602001828054611e35906159c8565b8015611e825780601f10611e5757610100808354040283529160200191611e82565b820191906000526020600020905b815481529060010190602001808311611e6557829003601f168201915b50505050509250818054611e95906159c8565b80601f0160208091040260200160405190810160405280929190818152602001828054611ec1906159c8565b8015611f0e5780601f10611ee357610100808354040283529160200191611f0e565b820191906000526020600020905b815481529060010190602001808311611ef157829003601f168201915b50505050509150808054611f21906159c8565b80601f0160208091040260200160405190810160405280929190818152602001828054611f4d906159c8565b8015611f9a5780601f10611f6f57610100808354040283529160200191611f9a565b820191906000526020600020905b815481529060010190602001808311611f7d57829003601f168201915b5050505050905098509850985098509850985098509850509397509397509397509397565b8060066008811115611fd457611fd3615aa3565b5b6003600083815260200190815260200160002060020160149054906101000a900460ff16600881111561200a57612009615aa3565b5b1461201457600080fd5b6003600083815260200190815260200160002060020160009054906101000a900473ffffffffffffffffffffffffffffffffffffffff168073ffffffffffffffffffffffffffffffffffffffff163373ffffffffffffffffffffffffffffffffffffffff161461208357600080fd5b6003600084815260200190815260200160002060100160000160009054906101000a900473ffffffffffffffffffffffffffffffffffffffff168073ffffffffffffffffffffffffffffffffffffffff163373ffffffffffffffffffffffffffffffffffffffff16146120f557600080fd5b6120fe336145f5565b61210757600080fd5b60076003600086815260200190815260200160002060020160146101000a81548160ff0219169083600881111561214157612140615aa3565b5b02179055506004600085815260200190815260200160002060000160036000868152602001908152602001600020908060018154018082558091505060019003906000526020600020906015020160009091909190915060008201548160000155600182015481600101556002820160009054906101000a900473ffffffffffffffffffffffffffffffffffffffff168160020160006101000a81548173ffffffffffffffffffffffffffffffffffffffff021916908373ffffffffffffffffffffffffffffffffffffffff1602179055506002820160149054906101000a900460ff168160020160146101000a81548160ff0219169083600881111561224b5761224a615aa3565b5b021790555060038201816003016000820160009054906101000a900473ffffffffffffffffffffffffffffffffffffffff168160000160006101000a81548173ffffffffffffffffffffffffffffffffffffffff021916908373ffffffffffffffffffffffffffffffffffffffff16021790555060018201816001019080546122d3906159c8565b6122de929190615030565b5060028201816002019080546122f3906159c8565b6122fe929190615030565b506003820181600301908054612313906159c8565b61231e929190615030565b506004820181600401908054612333906159c8565b61233e929190615030565b5060058201548160050155505060098201816009016000820160009054906101000a900473ffffffffffffffffffffffffffffffffffffffff168160000160006101000a81548173ffffffffffffffffffffffffffffffffffffffff021916908373ffffffffffffffffffffffffffffffffffffffff16021790555060018201816001019080546123ce906159c8565b6123d9929190615030565b5060028201816002019080546123ee906159c8565b6123f9929190615030565b505050600c820181600c016000820181600001908054612418906159c8565b612423929190615030565b506001820154816001015560028201548160020155600382018160030190805461244c906159c8565b612457929190615030565b50505060108201816010016000820160009054906101000a900473ffffffffffffffffffffffffffffffffffffffff168160000160006101000a81548173ffffffffffffffffffffffffffffffffffffffff021916908373ffffffffffffffffffffffffffffffffffffffff16021790555060018201816001019080546124dd906159c8565b6124e8929190615030565b5060028201816002019080546124fd906159c8565b612508929190615030565b5050506013820160009054906101000a900473ffffffffffffffffffffffffffffffffffffffff168160130160006101000a81548173ffffffffffffffffffffffffffffffffffffffff021916908373ffffffffffffffffffffffffffffffffffffffff1602179055506014820181601401908054612586906159c8565b612591929190615030565b5050507f9a96442e96ac96ba57e48273f290bf3bb9c6b0b2c86843cc4bf2353119918fdf846040516125c391906156d5565b60405180910390a150505050565b60006060600080606060008060606000600360008d815260200190815260200160002060000154141561260357600080fd5b6000600360008d815260200190815260200160002090506040518060400160405280600781526020017f70726f6475637400000000000000000000000000000000000000000000000000815250805190602001208b80519060200120141561267b57600360008d815260200190815260200160002090505b6040518060400160405280600781526020017f686973746f727900000000000000000000000000000000000000000000000000815250805190602001208b8051906020012014156126ff57600460008d81526020019081526020016000206000018a815481106126ee576126ed615b01565b5b906000526020600020906015020190505b806003016005015481600c0160000182600c016001015483600c016002015484600c016003018560020160149054906101000a900460ff168660090160000160009054906101000a900473ffffffffffffffffffffffffffffffffffffffff1687600901600101868054612772906159c8565b80601f016020809104026020016040519081016040528092919081815260200182805461279e906159c8565b80156127eb5780601f106127c0576101008083540402835291602001916127eb565b820191906000526020600020905b8154815290600101906020018083116127ce57829003601f168201915b505050505096508380546127fe906159c8565b80601f016020809104026020016040519081016040528092919081815260200182805461282a906159c8565b80156128775780601f1061284c57610100808354040283529160200191612877565b820191906000526020600020905b81548152906001019060200180831161285a57829003601f168201915b5050505050935080805461288a906159c8565b80601f01602080910402602001604051908101604052809291908181526020018280546128b6906159c8565b80156129035780601f106128d857610100808354040283529160200191612903565b820191906000526020600020905b8154815290600101906020018083116128e657829003601f168201915b5050505050905098509850985098509850985098509850509397509397509397509397565b806003600881111561293d5761293c615aa3565b5b6003600083815260200190815260200160002060020160149054906101000a900460ff16600881111561297357612972615aa3565b5b1461297d57600080fd5b61298633610d95565b61298f57600080fd5b336003600084815260200190815260200160002060130160006101000a81548173ffffffffffffffffffffffffffffffffffffffff021916908373ffffffffffffffffffffffffffffffffffffffff16021790555060046003600084815260200190815260200160002060020160146101000a81548160ff02191690836008811115612a1e57612a1d615aa3565b5b02179055506004600083815260200190815260200160002060000160036000848152602001908152602001600020908060018154018082558091505060019003906000526020600020906015020160009091909190915060008201548160000155600182015481600101556002820160009054906101000a900473ffffffffffffffffffffffffffffffffffffffff168160020160006101000a81548173ffffffffffffffffffffffffffffffffffffffff021916908373ffffffffffffffffffffffffffffffffffffffff1602179055506002820160149054906101000a900460ff168160020160146101000a81548160ff02191690836008811115612b2857612b27615aa3565b5b021790555060038201816003016000820160009054906101000a900473ffffffffffffffffffffffffffffffffffffffff168160000160006101000a81548173ffffffffffffffffffffffffffffffffffffffff021916908373ffffffffffffffffffffffffffffffffffffffff1602179055506001820181600101908054612bb0906159c8565b612bbb929190615030565b506002820181600201908054612bd0906159c8565b612bdb929190615030565b506003820181600301908054612bf0906159c8565b612bfb929190615030565b506004820181600401908054612c10906159c8565b612c1b929190615030565b5060058201548160050155505060098201816009016000820160009054906101000a900473ffffffffffffffffffffffffffffffffffffffff168160000160006101000a81548173ffffffffffffffffffffffffffffffffffffffff021916908373ffffffffffffffffffffffffffffffffffffffff1602179055506001820181600101908054612cab906159c8565b612cb6929190615030565b506002820181600201908054612ccb906159c8565b612cd6929190615030565b505050600c820181600c016000820181600001908054612cf5906159c8565b612d00929190615030565b5060018201548160010155600282015481600201556003820181600301908054612d29906159c8565b612d34929190615030565b50505060108201816010016000820160009054906101000a900473ffffffffffffffffffffffffffffffffffffffff168160000160006101000a81548173ffffffffffffffffffffffffffffffffffffffff021916908373ffffffffffffffffffffffffffffffffffffffff1602179055506001820181600101908054612dba906159c8565b612dc5929190615030565b506002820181600201908054612dda906159c8565b612de5929190615030565b5050506013820160009054906101000a900473ffffffffffffffffffffffffffffffffffffffff168160130160006101000a81548173ffffffffffffffffffffffffffffffffffffffff021916908373ffffffffffffffffffffffffffffffffffffffff1602179055506014820181601401908054612e63906159c8565b612e6e929190615030565b5050507ffd054e59d299873fab61a3c67d86d3a139b75dcd5cd82894d8983fc5e2669c8282604051612ea091906156d5565b60405180910390a15050565b8060076008811115612ec157612ec0615aa3565b5b6003600083815260200190815260200160002060020160149054906101000a900460ff166008811115612ef757612ef6615aa3565b5b14612f0157600080fd5b6003600083815260200190815260200160002060130160009054906101000a900473ffffffffffffffffffffffffffffffffffffffff168073ffffffffffffffffffffffffffffffffffffffff163373ffffffffffffffffffffffffffffffffffffffff1614612f7057600080fd5b612f7933610d95565b612f8257600080fd5b336003600085815260200190815260200160002060020160006101000a81548173ffffffffffffffffffffffffffffffffffffffff021916908373ffffffffffffffffffffffffffffffffffffffff16021790555060086003600085815260200190815260200160002060020160146101000a81548160ff0219169083600881111561301157613010615aa3565b5b02179055506004600084815260200190815260200160002060000160036000858152602001908152602001600020908060018154018082558091505060019003906000526020600020906015020160009091909190915060008201548160000155600182015481600101556002820160009054906101000a900473ffffffffffffffffffffffffffffffffffffffff168160020160006101000a81548173ffffffffffffffffffffffffffffffffffffffff021916908373ffffffffffffffffffffffffffffffffffffffff1602179055506002820160149054906101000a900460ff168160020160146101000a81548160ff0219169083600881111561311b5761311a615aa3565b5b021790555060038201816003016000820160009054906101000a900473ffffffffffffffffffffffffffffffffffffffff168160000160006101000a81548173ffffffffffffffffffffffffffffffffffffffff021916908373ffffffffffffffffffffffffffffffffffffffff16021790555060018201816001019080546131a3906159c8565b6131ae929190615030565b5060028201816002019080546131c3906159c8565b6131ce929190615030565b5060038201816003019080546131e3906159c8565b6131ee929190615030565b506004820181600401908054613203906159c8565b61320e929190615030565b5060058201548160050155505060098201816009016000820160009054906101000a900473ffffffffffffffffffffffffffffffffffffffff168160000160006101000a81548173ffffffffffffffffffffffffffffffffffffffff021916908373ffffffffffffffffffffffffffffffffffffffff160217905550600182018160010190805461329e906159c8565b6132a9929190615030565b5060028201816002019080546132be906159c8565b6132c9929190615030565b505050600c820181600c0160008201816000019080546132e8906159c8565b6132f3929190615030565b506001820154816001015560028201548160020155600382018160030190805461331c906159c8565b613327929190615030565b50505060108201816010016000820160009054906101000a900473ffffffffffffffffffffffffffffffffffffffff168160000160006101000a81548173ffffffffffffffffffffffffffffffffffffffff021916908373ffffffffffffffffffffffffffffffffffffffff16021790555060018201816001019080546133ad906159c8565b6133b8929190615030565b5060028201816002019080546133cd906159c8565b6133d8929190615030565b5050506013820160009054906101000a900473ffffffffffffffffffffffffffffffffffffffff168160130160006101000a81548173ffffffffffffffffffffffffffffffffffffffff021916908373ffffffffffffffffffffffffffffffffffffffff1602179055506014820181601401908054613456906159c8565b613461929190615030565b5050507f8a746d5b91a9a334d1abbeee7d031aac6d5c59ea6e982ac06aef4346cce5749e8360405161349391906156d5565b60405180910390a1505050565b600060046000848152602001908152602001600020600001600160046000868152602001908152602001600020600001805490506134de91906158e5565b815481106134ef576134ee615b01565b5b9060005260206000209060150201905081816014019080519060200190613517929190614faa565b50505050565b600073ffffffffffffffffffffffffffffffffffffffff168173ffffffffffffffffffffffffffffffffffffffff16141561355757600080fd5b61356081611b40565b1561356a57600080fd5b6001600560008373ffffffffffffffffffffffffffffffffffffffff1673ffffffffffffffffffffffffffffffffffffffff16815260200190815260200160002060000160006101000a81548160ff02191690831515021790555050565b82600560088111156135dd576135dc615aa3565b5b6003600083815260200190815260200160002060020160149054906101000a900460ff16600881111561361357613612615aa3565b5b1461361d57600080fd5b613626336145f5565b61362f57600080fd5b336003600086815260200190815260200160002060020160006101000a81548173ffffffffffffffffffffffffffffffffffffffff021916908373ffffffffffffffffffffffffffffffffffffffff160217905550336003600086815260200190815260200160002060100160000160006101000a81548173ffffffffffffffffffffffffffffffffffffffff021916908373ffffffffffffffffffffffffffffffffffffffff16021790555082600360008681526020019081526020016000206010016001019080519060200190613709929190614faa565b5081600360008681526020019081526020016000206010016002019080519060200190613737929190614faa565b5060066003600086815260200190815260200160002060020160146101000a81548160ff0219169083600881111561377257613771615aa3565b5b02179055506004600085815260200190815260200160002060000160036000868152602001908152602001600020908060018154018082558091505060019003906000526020600020906015020160009091909190915060008201548160000155600182015481600101556002820160009054906101000a900473ffffffffffffffffffffffffffffffffffffffff168160020160006101000a81548173ffffffffffffffffffffffffffffffffffffffff021916908373ffffffffffffffffffffffffffffffffffffffff1602179055506002820160149054906101000a900460ff168160020160146101000a81548160ff0219169083600881111561387c5761387b615aa3565b5b021790555060038201816003016000820160009054906101000a900473ffffffffffffffffffffffffffffffffffffffff168160000160006101000a81548173ffffffffffffffffffffffffffffffffffffffff021916908373ffffffffffffffffffffffffffffffffffffffff1602179055506001820181600101908054613904906159c8565b61390f929190615030565b506002820181600201908054613924906159c8565b61392f929190615030565b506003820181600301908054613944906159c8565b61394f929190615030565b506004820181600401908054613964906159c8565b61396f929190615030565b5060058201548160050155505060098201816009016000820160009054906101000a900473ffffffffffffffffffffffffffffffffffffffff168160000160006101000a81548173ffffffffffffffffffffffffffffffffffffffff021916908373ffffffffffffffffffffffffffffffffffffffff16021790555060018201816001019080546139ff906159c8565b613a0a929190615030565b506002820181600201908054613a1f906159c8565b613a2a929190615030565b505050600c820181600c016000820181600001908054613a49906159c8565b613a54929190615030565b5060018201548160010155600282015481600201556003820181600301908054613a7d906159c8565b613a88929190615030565b50505060108201816010016000820160009054906101000a900473ffffffffffffffffffffffffffffffffffffffff168160000160006101000a81548173ffffffffffffffffffffffffffffffffffffffff021916908373ffffffffffffffffffffffffffffffffffffffff1602179055506001820181600101908054613b0e906159c8565b613b19929190615030565b506002820181600201908054613b2e906159c8565b613b39929190615030565b5050506013820160009054906101000a900473ffffffffffffffffffffffffffffffffffffffff168160130160006101000a81548173ffffffffffffffffffffffffffffffffffffffff021916908373ffffffffffffffffffffffffffffffffffffffff1602179055506014820181601401908054613bb7906159c8565b613bc2929190615030565b5050507fb6589947d486bf61c31a4e6d2e81d4d2c93e7832fdda27f2492009b4755c29ed84604051613bf491906156d5565b60405180910390a150505050565b60606000606080600060606000600360008b8152602001908152602001600020600001541415613c3157600080fd5b6000600360008b815260200190815260200160002090506040518060400160405280600781526020017f70726f64756374000000000000000000000000000000000000000000000000008152508051906020012089805190602001201415613ca957600360008b815260200190815260200160002090505b6040518060400160405280600781526020017f686973746f7279000000000000000000000000000000000000000000000000008152508051906020012089805190602001201415613d2d57600460008b81526020019081526020016000206000018881548110613d1c57613d1b615b01565b5b906000526020600020906015020190505b806009016002018160100160000160009054906101000a900473ffffffffffffffffffffffffffffffffffffffff1682601001600101836010016002018460130160009054906101000a900473ffffffffffffffffffffffffffffffffffffffff1685601401858054613d9f906159c8565b80601f0160208091040260200160405190810160405280929190818152602001828054613dcb906159c8565b8015613e185780601f10613ded57610100808354040283529160200191613e18565b820191906000526020600020905b815481529060010190602001808311613dfb57829003601f168201915b50505050509550838054613e2b906159c8565b80601f0160208091040260200160405190810160405280929190818152602001828054613e57906159c8565b8015613ea45780601f10613e7957610100808354040283529160200191613ea4565b820191906000526020600020905b815481529060010190602001808311613e8757829003601f168201915b50505050509350828054613eb7906159c8565b80601f0160208091040260200160405190810160405280929190818152602001828054613ee3906159c8565b8015613f305780601f10613f0557610100808354040283529160200191613f30565b820191906000526020600020905b815481529060010190602001808311613f1357829003601f168201915b50505050509250808054613f43906159c8565b80601f0160208091040260200160405190810160405280929190818152602001828054613f6f906159c8565b8015613fbc5780601f10613f9157610100808354040283529160200191613fbc565b820191906000526020600020905b815481529060010190602001808311613f9f57829003601f168201915b505050505090509650965096509650965096505093975093979195509350565b8060006008811115613ff157613ff0615aa3565b5b6003600083815260200190815260200160002060020160149054906101000a900460ff16600881111561402757614026615aa3565b5b1461403157600080fd5b61403a33614563565b61404357600080fd5b336003600084815260200190815260200160002060090160000160006101000a81548173ffffffffffffffffffffffffffffffffffffffff021916908373ffffffffffffffffffffffffffffffffffffffff16021790555060016003600084815260200190815260200160002060020160146101000a81548160ff021916908360088111156140d5576140d4615aa3565b5b02179055506004600083815260200190815260200160002060000160036000848152602001908152602001600020908060018154018082558091505060019003906000526020600020906015020160009091909190915060008201548160000155600182015481600101556002820160009054906101000a900473ffffffffffffffffffffffffffffffffffffffff168160020160006101000a81548173ffffffffffffffffffffffffffffffffffffffff021916908373ffffffffffffffffffffffffffffffffffffffff1602179055506002820160149054906101000a900460ff168160020160146101000a81548160ff021916908360088111156141df576141de615aa3565b5b021790555060038201816003016000820160009054906101000a900473ffffffffffffffffffffffffffffffffffffffff168160000160006101000a81548173ffffffffffffffffffffffffffffffffffffffff021916908373ffffffffffffffffffffffffffffffffffffffff1602179055506001820181600101908054614267906159c8565b614272929190615030565b506002820181600201908054614287906159c8565b614292929190615030565b5060038201816003019080546142a7906159c8565b6142b2929190615030565b5060048201816004019080546142c7906159c8565b6142d2929190615030565b5060058201548160050155505060098201816009016000820160009054906101000a900473ffffffffffffffffffffffffffffffffffffffff168160000160006101000a81548173ffffffffffffffffffffffffffffffffffffffff021916908373ffffffffffffffffffffffffffffffffffffffff1602179055506001820181600101908054614362906159c8565b61436d929190615030565b506002820181600201908054614382906159c8565b61438d929190615030565b505050600c820181600c0160008201816000019080546143ac906159c8565b6143b7929190615030565b50600182015481600101556002820154816002015560038201816003019080546143e0906159c8565b6143eb929190615030565b50505060108201816010016000820160009054906101000a900473ffffffffffffffffffffffffffffffffffffffff168160000160006101000a81548173ffffffffffffffffffffffffffffffffffffffff021916908373ffffffffffffffffffffffffffffffffffffffff1602179055506001820181600101908054614471906159c8565b61447c929190615030565b506002820181600201908054614491906159c8565b61449c929190615030565b5050506013820160009054906101000a900473ffffffffffffffffffffffffffffffffffffffff168160130160006101000a81548173ffffffffffffffffffffffffffffffffffffffff021916908373ffffffffffffffffffffffffffffffffffffffff160217905550601482018160140190805461451a906159c8565b614525929190615030565b5050507f112c8adc962c1de46b0ae9499cd428dc90feb4c13a4df0c69d7e5e27ab34ae878260405161455791906156d5565b60405180910390a15050565b60008073ffffffffffffffffffffffffffffffffffffffff168273ffffffffffffffffffffffffffffffffffffffff16141561459e57600080fd5b600560008373ffffffffffffffffffffffffffffffffffffffff1673ffffffffffffffffffffffffffffffffffffffff16815260200190815260200160002060000160019054906101000a900460ff169050919050565b60008073ffffffffffffffffffffffffffffffffffffffff168273ffffffffffffffffffffffffffffffffffffffff16141561463057600080fd5b600560008373ffffffffffffffffffffffffffffffffffffffff1673ffffffffffffffffffffffffffffffffffffffff16815260200190815260200160002060000160029054906101000a900460ff169050919050565b60006003600083815260200190815260200160002060020160149054906101000a900460ff169050919050565b806004600060016000546146c891906158e5565b815260200190815260200160002060000160016004600060016000546146ee91906158e5565b81526020019081526020016000206000018054905061470d91906158e5565b8154811061471e5761471d615b01565b5b90600052602060002090601502016014019080519060200190614742929190614faa565b5050565b6003600082815260200190815260200160002060020160009054906101000a900473ffffffffffffffffffffffffffffffffffffffff168073ffffffffffffffffffffffffffffffffffffffff163373ffffffffffffffffffffffffffffffffffffffff16146147b557600080fd5b6003600083815260200190815260200160002060090160000160009054906101000a900473ffffffffffffffffffffffffffffffffffffffff168073ffffffffffffffffffffffffffffffffffffffff163373ffffffffffffffffffffffffffffffffffffffff161461482757600080fd5b61483033614563565b61483957600080fd5b60056003600085815260200190815260200160002060020160146101000a81548160ff0219169083600881111561487357614872615aa3565b5b02179055506004600084815260200190815260200160002060000160036000858152602001908152602001600020908060018154018082558091505060019003906000526020600020906015020160009091909190915060008201548160000155600182015481600101556002820160009054906101000a900473ffffffffffffffffffffffffffffffffffffffff168160020160006101000a81548173ffffffffffffffffffffffffffffffffffffffff021916908373ffffffffffffffffffffffffffffffffffffffff1602179055506002820160149054906101000a900460ff168160020160146101000a81548160ff0219169083600881111561497d5761497c615aa3565b5b021790555060038201816003016000820160009054906101000a900473ffffffffffffffffffffffffffffffffffffffff168160000160006101000a81548173ffffffffffffffffffffffffffffffffffffffff021916908373ffffffffffffffffffffffffffffffffffffffff1602179055506001820181600101908054614a05906159c8565b614a10929190615030565b506002820181600201908054614a25906159c8565b614a30929190615030565b506003820181600301908054614a45906159c8565b614a50929190615030565b506004820181600401908054614a65906159c8565b614a70929190615030565b5060058201548160050155505060098201816009016000820160009054906101000a900473ffffffffffffffffffffffffffffffffffffffff168160000160006101000a81548173ffffffffffffffffffffffffffffffffffffffff021916908373ffffffffffffffffffffffffffffffffffffffff1602179055506001820181600101908054614b00906159c8565b614b0b929190615030565b506002820181600201908054614b20906159c8565b614b2b929190615030565b505050600c820181600c016000820181600001908054614b4a906159c8565b614b55929190615030565b5060018201548160010155600282015481600201556003820181600301908054614b7e906159c8565b614b89929190615030565b50505060108201816010016000820160009054906101000a900473ffffffffffffffffffffffffffffffffffffffff168160000160006101000a81548173ffffffffffffffffffffffffffffffffffffffff021916908373ffffffffffffffffffffffffffffffffffffffff1602179055506001820181600101908054614c0f906159c8565b614c1a929190615030565b506002820181600201908054614c2f906159c8565b614c3a929190615030565b5050506013820160009054906101000a900473ffffffffffffffffffffffffffffffffffffffff168160130160006101000a81548173ffffffffffffffffffffffffffffffffffffffff021916908373ffffffffffffffffffffffffffffffffffffffff1602179055506014820181601401908054614cb8906159c8565b614cc3929190615030565b5050507ff2452d569e5bc407d222a6bcad7d4bb8bac5fae64ce52fa183bd77e34e0cc14783604051614cf591906156d5565b60405180910390a1505050565b60008054905090565b600073ffffffffffffffffffffffffffffffffffffffff168173ffffffffffffffffffffffffffffffffffffffff161415614d4557600080fd5b614d4e816145f5565b15614d5857600080fd5b6001600560008373ffffffffffffffffffffffffffffffffffffffff1673ffffffffffffffffffffffffffffffffffffffff16815260200190815260200160002060000160026101000a81548160ff02191690831515021790555050565b60005481565b6000606080606060006060806000878960a001516000019073ffffffffffffffffffffffffffffffffffffffff16908173ffffffffffffffffffffffffffffffffffffffff1681525050858960a0015160200181905250848960a0015160400181905250838960e001516000019073ffffffffffffffffffffffffffffffffffffffff16908173ffffffffffffffffffffffffffffffffffffffff1681525050828960e0015160200181905250818960e00151604001819052508089610100019073ffffffffffffffffffffffffffffffffffffffff16908173ffffffffffffffffffffffffffffffffffffffff168152505086896101200181905250505050505050505050565b838560c0015160000181905250828560c001516020018181525050818560c001516040018181525050808560c00151606001819052505050505050565b6040518061014001604052806000815260200160008152602001600073ffffffffffffffffffffffffffffffffffffffff16815260200160006008811115614f4c57614f4b615aa3565b5b8152602001614f596150bd565b8152602001614f66615109565b8152602001614f73615140565b8152602001614f80615168565b8152602001600073ffffffffffffffffffffffffffffffffffffffff168152602001606081525090565b828054614fb6906159c8565b90600052602060002090601f016020900481019282614fd8576000855561501f565b82601f10614ff157805160ff191683800117855561501f565b8280016001018555821561501f579182015b8281111561501e578251825591602001919060010190615003565b5b50905061502c919061519f565b5090565b82805461503c906159c8565b90600052602060002090601f01602090048101928261505e57600085556150ac565b82601f1061506f57805485556150ac565b828001600101855582156150ac57600052602060002091601f016020900482015b828111156150ab578254825591600101919060010190615090565b5b5090506150b9919061519f565b5090565b6040518060c00160405280600073ffffffffffffffffffffffffffffffffffffffff16815260200160608152602001606081526020016060815260200160608152602001600081525090565b6040518060600160405280600073ffffffffffffffffffffffffffffffffffffffff16815260200160608152602001606081525090565b6040518060800160405280606081526020016000815260200160008152602001606081525090565b6040518060600160405280600073ffffffffffffffffffffffffffffffffffffffff16815260200160608152602001606081525090565b5b808211156151b85760008160009055506001016151a0565b5090565b60006151cf6151ca84615842565b61581d565b9050828152602081018484840111156151eb576151ea615b64565b5b6151f6848285615986565b509392505050565b60008135905061520d81615b98565b92915050565b600082601f83011261522857615227615b5f565b5b81356152388482602086016151bc565b91505092915050565b60008135905061525081615baf565b92915050565b60006020828403121561526c5761526b615b6e565b5b600061527a848285016151fe565b91505092915050565b60006020828403121561529957615298615b6e565b5b600082013567ffffffffffffffff8111156152b7576152b6615b69565b5b6152c384828501615213565b91505092915050565b600080600080600080600080610100898b0312156152ed576152ec615b6e565b5b600089013567ffffffffffffffff81111561530b5761530a615b69565b5b6153178b828c01615213565b985050602089013567ffffffffffffffff81111561533857615337615b69565b5b6153448b828c01615213565b975050604089013567ffffffffffffffff81111561536557615364615b69565b5b6153718b828c01615213565b965050606089013567ffffffffffffffff81111561539257615391615b69565b5b61539e8b828c01615213565b955050608089013567ffffffffffffffff8111156153bf576153be615b69565b5b6153cb8b828c01615213565b94505060a06153dc8b828c01615241565b93505060c06153ed8b828c01615241565b92505060e089013567ffffffffffffffff81111561540e5761540d615b69565b5b61541a8b828c01615213565b9150509295985092959890939650565b6000602082840312156154405761543f615b6e565b5b600061544e84828501615241565b91505092915050565b6000806040838503121561546e5761546d615b6e565b5b600061547c85828601615241565b925050602083013567ffffffffffffffff81111561549d5761549c615b69565b5b6154a985828601615213565b9150509250929050565b6000806000606084860312156154cc576154cb615b6e565b5b60006154da86828701615241565b935050602084013567ffffffffffffffff8111156154fb576154fa615b69565b5b61550786828701615213565b925050604084013567ffffffffffffffff81111561552857615527615b69565b5b61553486828701615213565b9150509250925092565b60008060006060848603121561555757615556615b6e565b5b600061556586828701615241565b935050602084013567ffffffffffffffff81111561558657615585615b69565b5b61559286828701615213565b92505060406155a386828701615241565b9150509250925092565b6155b681615919565b82525050565b6155c58161592b565b82525050565b6155d481615974565b82525050565b60006155e582615873565b6155ef818561587e565b93506155ff818560208601615995565b61560881615b73565b840191505092915050565b61561c8161596a565b82525050565b600060208201905061563760008301846155bc565b92915050565b600060208201905061565260008301846155cb565b92915050565b600060c082019050818103600083015261567281896155da565b905061568160208301886155ad565b818103604083015261569381876155da565b905081810360608301526156a781866155da565b90506156b660808301856155ad565b81810360a08301526156c881846155da565b9050979650505050505050565b60006020820190506156ea6000830184615613565b92915050565b600061010082019050615706600083018b615613565b8181036020830152615718818a6155da565b90506157276040830189615613565b6157346060830188615613565b818103608083015261574681876155da565b905061575560a08301866155cb565b61576260c08301856155ad565b81810360e083015261577481846155da565b90509998505050505050505050565b600061010082019050615799600083018b615613565b6157a6602083018a615613565b6157b360408301896155ad565b6157c060608301886155ad565b81810360808301526157d281876155da565b905081810360a08301526157e681866155da565b905081810360c08301526157fa81856155da565b905081810360e083015261580e81846155da565b90509998505050505050505050565b6000615827615838565b905061583382826159fa565b919050565b6000604051905090565b600067ffffffffffffffff82111561585d5761585c615b30565b5b61586682615b73565b9050602081019050919050565b600081519050919050565b600082825260208201905092915050565b600061589a8261596a565b91506158a58361596a565b9250827fffffffffffffffffffffffffffffffffffffffffffffffffffffffffffffffff038211156158da576158d9615a74565b5b828201905092915050565b60006158f08261596a565b91506158fb8361596a565b92508282101561590e5761590d615a74565b5b828203905092915050565b60006159248261594a565b9050919050565b60008115159050919050565b600081905061594582615b84565b919050565b600073ffffffffffffffffffffffffffffffffffffffff82169050919050565b6000819050919050565b600061597f82615937565b9050919050565b82818337600083830152505050565b60005b838110156159b3578082015181840152602081019050615998565b838111156159c2576000848401525b50505050565b600060028204905060018216806159e057607f821691505b602082108114156159f4576159f3615ad2565b5b50919050565b615a0382615b73565b810181811067ffffffffffffffff82111715615a2257615a21615b30565b5b80604052505050565b6000615a368261596a565b91507fffffffffffffffffffffffffffffffffffffffffffffffffffffffffffffffff821415615a6957615a68615a74565b5b600182019050919050565b7f4e487b7100000000000000000000000000000000000000000000000000000000600052601160045260246000fd5b7f4e487b7100000000000000000000000000000000000000000000000000000000600052602160045260246000fd5b7f4e487b7100000000000000000000000000000000000000000000000000000000600052602260045260246000fd5b7f4e487b7100000000000000000000000000000000000000000000000000000000600052603260045260246000fd5b7f4e487b7100000000000000000000000000000000000000000000000000000000600052604160045260246000fd5b600080fd5b600080fd5b600080fd5b600080fd5b6000601f19601f8301169050919050565b60098110615b9557615b94615aa3565b5b50565b615ba181615919565b8114615bac57600080fd5b50565b615bb88161596a565b8114615bc357600080fd5b5056fea2646970667358221220ced1fd2cf8d9048741b093f2f40c8aed1ea5411f7b11b6ddf62c1079aca8335664736f6c63430008070033",
  "linkReferences": {},
  "deployedLinkReferences": {}
}