{
  "_format": "hh-sol-artifact-1",
  "contractName": "SupplyChain",
  "sourceName": "contracts/SupplyChain.sol",
  "abi": [
    {
      "anonymous": false,
      "inputs": [
        {
          "indexed": false,
          "internalType": "uint8",
          "name": "version",
          "type": "uint8"
        }
      ],
      "name": "Initialized",
      "type": "event"
    },
    {
      "anonymous": false,
      "inputs": [
        {
          "indexed": false,
          "internalType": "uint256",
          "name": "uid",
          "type": "uint256"
        }
      ],
      "name": "Manufactured",
      "type": "event"
    },
    {
      "anonymous": false,
      "inputs": [
        {
          "indexed": true,
          "internalType": "address",
          "name": "_account",
          "type": "address"
        }
      ],
      "name": "ManufacturerAdded",
      "type": "event"
    },
    {
      "anonymous": false,
      "inputs": [
        {
          "indexed": true,
          "internalType": "address",
          "name": "previousOwner",
          "type": "address"
        },
        {
          "indexed": true,
          "internalType": "address",
          "name": "newOwner",
          "type": "address"
        }
      ],
      "name": "OwnershipTransferred",
      "type": "event"
    },
    {
      "anonymous": false,
      "inputs": [
        {
          "indexed": false,
          "internalType": "uint256",
          "name": "uid",
          "type": "uint256"
        }
      ],
      "name": "PurchasedByCustomer",
      "type": "event"
    },
    {
      "anonymous": false,
      "inputs": [
        {
          "indexed": false,
          "internalType": "uint256",
          "name": "uid",
          "type": "uint256"
        }
      ],
      "name": "PurchasedByThirdParty",
      "type": "event"
    },
    {
      "anonymous": false,
      "inputs": [
        {
          "indexed": false,
          "internalType": "uint256",
          "name": "uid",
          "type": "uint256"
        }
      ],
      "name": "ReceivedByCustomer",
      "type": "event"
    },
    {
      "anonymous": false,
      "inputs": [
        {
          "indexed": false,
          "internalType": "uint256",
          "name": "uid",
          "type": "uint256"
        }
      ],
      "name": "ReceivedByDeliveryHub",
      "type": "event"
    },
    {
      "anonymous": false,
      "inputs": [
        {
          "indexed": false,
          "internalType": "uint256",
          "name": "uid",
          "type": "uint256"
        }
      ],
      "name": "ReceivedByThirdParty",
      "type": "event"
    },
    {
      "anonymous": false,
      "inputs": [
        {
          "indexed": false,
          "internalType": "uint256",
          "name": "uid",
          "type": "uint256"
        }
      ],
      "name": "ShippedByDeliveryHub",
      "type": "event"
    },
    {
      "anonymous": false,
      "inputs": [
        {
          "indexed": false,
          "internalType": "uint256",
          "name": "uid",
          "type": "uint256"
        }
      ],
      "name": "ShippedByManufacturer",
      "type": "event"
    },
    {
      "anonymous": false,
      "inputs": [
        {
          "indexed": false,
          "internalType": "uint256",
          "name": "uid",
          "type": "uint256"
        }
      ],
      "name": "ShippedByThirdParty",
      "type": "event"
    },
    {
      "inputs": [
        {
          "internalType": "address",
          "name": "_account",
          "type": "address"
        },
        {
          "internalType": "string",
          "name": "role",
          "type": "string"
        }
      ],
      "name": "addRole",
      "outputs": [],
      "stateMutability": "nonpayable",
      "type": "function"
    },
    {
      "inputs": [],
      "name": "getRole",
      "outputs": [
        {
          "internalType": "string",
          "name": "",
          "type": "string"
        }
      ],
      "stateMutability": "view",
      "type": "function"
    },
    {
      "inputs": [],
      "name": "initialize",
      "outputs": [],
      "stateMutability": "nonpayable",
      "type": "function"
    },
    {
      "inputs": [],
      "name": "owner",
      "outputs": [
        {
          "internalType": "address",
          "name": "",
          "type": "address"
        }
      ],
      "stateMutability": "view",
      "type": "function"
    },
    {
      "inputs": [],
      "name": "renounceOwnership",
      "outputs": [],
      "stateMutability": "nonpayable",
      "type": "function"
    },
    {
      "inputs": [
        {
          "internalType": "address",
          "name": "newOwner",
          "type": "address"
        }
      ],
      "name": "transferOwnership",
      "outputs": [],
      "stateMutability": "nonpayable",
      "type": "function"
    },
    {
      "inputs": [],
      "name": "uid",
      "outputs": [
        {
          "internalType": "uint256",
          "name": "",
          "type": "uint256"
        }
      ],
      "stateMutability": "view",
      "type": "function"
    }
  ],
  "bytecode": "0x608060405234801561001057600080fd5b50610dbe806100206000396000f3fe608060405234801561001057600080fd5b506004361061007d5760003560e01c80638da5cb5b1161005b5780638da5cb5b146100b2578063f2fde38b146100d0578063f514ce36146100ec578063fde081741461010a5761007d565b8063715018a6146100825780637d72aa651461008c5780638129fc1c146100a8575b600080fd5b61008a610128565b005b6100a660048036038101906100a19190610825565b61013c565b005b6100b06101d6565b005b6100ba610324565b6040516100c79190610973565b60405180910390f35b6100ea60048036038101906100e591906107f8565b61034e565b005b6100f46103d2565b6040516101019190610a4b565b60405180910390f35b6101126103d8565b60405161011f91906109a9565b60405180910390f35b6101306104a7565b61013a6000610525565b565b6101446104a7565b600073ffffffffffffffffffffffffffffffffffffffff168273ffffffffffffffffffffffffffffffffffffffff16141561017e57600080fd5b80606960008473ffffffffffffffffffffffffffffffffffffffff1673ffffffffffffffffffffffffffffffffffffffff16815260200190815260200160002090805190602001906101d19291906106d0565b505050565b60008060019054906101000a900460ff161590508080156102075750600160008054906101000a900460ff1660ff16105b806102345750610216306105eb565b1580156102335750600160008054906101000a900460ff1660ff16145b5b610273576040517f08c379a000000000000000000000000000000000000000000000000000000000815260040161026a906109eb565b60405180910390fd5b60016000806101000a81548160ff021916908360ff16021790555080156102b0576001600060016101000a81548160ff0219169083151502179055505b6102b861060e565b6001606681905550600160658190555080156103215760008060016101000a81548160ff0219169083151502179055507f7f26b83ff96e1f2b6a682f133852f6798a09c465da95921460cefb38474024986001604051610318919061098e565b60405180910390a15b50565b6000603360009054906101000a900473ffffffffffffffffffffffffffffffffffffffff16905090565b6103566104a7565b600073ffffffffffffffffffffffffffffffffffffffff168173ffffffffffffffffffffffffffffffffffffffff1614156103c6576040517f08c379a00000000000000000000000000000000000000000000000000000000081526004016103bd906109cb565b60405180910390fd5b6103cf81610525565b50565b60655481565b6060606960003373ffffffffffffffffffffffffffffffffffffffff1673ffffffffffffffffffffffffffffffffffffffff168152602001908152602001600020805461042490610b75565b80601f016020809104026020016040519081016040528092919081815260200182805461045090610b75565b801561049d5780601f106104725761010080835404028352916020019161049d565b820191906000526020600020905b81548152906001019060200180831161048057829003601f168201915b5050505050905090565b6104af610667565b73ffffffffffffffffffffffffffffffffffffffff166104cd610324565b73ffffffffffffffffffffffffffffffffffffffff1614610523576040517f08c379a000000000000000000000000000000000000000000000000000000000815260040161051a90610a0b565b60405180910390fd5b565b6000603360009054906101000a900473ffffffffffffffffffffffffffffffffffffffff16905081603360006101000a81548173ffffffffffffffffffffffffffffffffffffffff021916908373ffffffffffffffffffffffffffffffffffffffff1602179055508173ffffffffffffffffffffffffffffffffffffffff168173ffffffffffffffffffffffffffffffffffffffff167f8be0079c531659141344cd1fd0a4f28419497f9722a3daafe3b4186f6b6457e060405160405180910390a35050565b6000808273ffffffffffffffffffffffffffffffffffffffff163b119050919050565b600060019054906101000a900460ff1661065d576040517f08c379a000000000000000000000000000000000000000000000000000000000815260040161065490610a2b565b60405180910390fd5b61066561066f565b565b600033905090565b600060019054906101000a900460ff166106be576040517f08c379a00000000000000000000000000000000000000000000000000000000081526004016106b590610a2b565b60405180910390fd5b6106ce6106c9610667565b610525565b565b8280546106dc90610b75565b90600052602060002090601f0160209004810192826106fe5760008555610745565b82601f1061071757805160ff1916838001178555610745565b82800160010185558215610745579182015b82811115610744578251825591602001919060010190610729565b5b5090506107529190610756565b5090565b5b8082111561076f576000816000905550600101610757565b5090565b600061078661078184610a8b565b610a66565b9050828152602081018484840111156107a2576107a1610c3b565b5b6107ad848285610b33565b509392505050565b6000813590506107c481610d71565b92915050565b600082601f8301126107df576107de610c36565b5b81356107ef848260208601610773565b91505092915050565b60006020828403121561080e5761080d610c45565b5b600061081c848285016107b5565b91505092915050565b6000806040838503121561083c5761083b610c45565b5b600061084a858286016107b5565b925050602083013567ffffffffffffffff81111561086b5761086a610c40565b5b610877858286016107ca565b9150509250929050565b61088a81610ad8565b82525050565b61089981610b21565b82525050565b60006108aa82610abc565b6108b48185610ac7565b93506108c4818560208601610b42565b6108cd81610c4a565b840191505092915050565b60006108e5602683610ac7565b91506108f082610c5b565b604082019050919050565b6000610908602e83610ac7565b915061091382610caa565b604082019050919050565b600061092b602083610ac7565b915061093682610cf9565b602082019050919050565b600061094e602b83610ac7565b915061095982610d22565b604082019050919050565b61096d81610b0a565b82525050565b60006020820190506109886000830184610881565b92915050565b60006020820190506109a36000830184610890565b92915050565b600060208201905081810360008301526109c3818461089f565b905092915050565b600060208201905081810360008301526109e4816108d8565b9050919050565b60006020820190508181036000830152610a04816108fb565b9050919050565b60006020820190508181036000830152610a248161091e565b9050919050565b60006020820190508181036000830152610a4481610941565b9050919050565b6000602082019050610a606000830184610964565b92915050565b6000610a70610a81565b9050610a7c8282610ba7565b919050565b6000604051905090565b600067ffffffffffffffff821115610aa657610aa5610c07565b5b610aaf82610c4a565b9050602081019050919050565b600081519050919050565b600082825260208201905092915050565b6000610ae382610aea565b9050919050565b600073ffffffffffffffffffffffffffffffffffffffff82169050919050565b6000819050919050565b600060ff82169050919050565b6000610b2c82610b14565b9050919050565b82818337600083830152505050565b60005b83811015610b60578082015181840152602081019050610b45565b83811115610b6f576000848401525b50505050565b60006002820490506001821680610b8d57607f821691505b60208210811415610ba157610ba0610bd8565b5b50919050565b610bb082610c4a565b810181811067ffffffffffffffff82111715610bcf57610bce610c07565b5b80604052505050565b7f4e487b7100000000000000000000000000000000000000000000000000000000600052602260045260246000fd5b7f4e487b7100000000000000000000000000000000000000000000000000000000600052604160045260246000fd5b600080fd5b600080fd5b600080fd5b600080fd5b6000601f19601f8301169050919050565b7f4f776e61626c653a206e6577206f776e657220697320746865207a65726f206160008201527f6464726573730000000000000000000000000000000000000000000000000000602082015250565b7f496e697469616c697a61626c653a20636f6e747261637420697320616c72656160008201527f647920696e697469616c697a6564000000000000000000000000000000000000602082015250565b7f4f776e61626c653a2063616c6c6572206973206e6f7420746865206f776e6572600082015250565b7f496e697469616c697a61626c653a20636f6e7472616374206973206e6f74206960008201527f6e697469616c697a696e67000000000000000000000000000000000000000000602082015250565b610d7a81610ad8565b8114610d8557600080fd5b5056fea264697066735822122014bc95ab95057a55fa70ea27a9dde9b28ad83a1efe5c924c545a97e23b22bc2464736f6c63430008070033",
  "linkReferences": {},
  "deployedLinkReferences": {}
}