{
  "_format": "hh-sol-artifact-1",
  "contractName": "SupplyChain",
  "sourceName": "contracts/SupplyChain.sol",
  "abi": [
    {
      "anonymous": false,
      "inputs": [
        {
          "indexed": false,
          "internalType": "uint8",
          "name": "version",
          "type": "uint8"
        }
      ],
      "name": "Initialized",
      "type": "event"
    },
    {
      "anonymous": false,
      "inputs": [
        {
          "indexed": true,
          "internalType": "address",
          "name": "_account",
          "type": "address"
        }
      ],
      "name": "ManufacturerAdded",
      "type": "event"
    },
    {
      "anonymous": false,
      "inputs": [
        {
          "indexed": true,
          "internalType": "address",
          "name": "previousOwner",
          "type": "address"
        },
        {
          "indexed": true,
          "internalType": "address",
          "name": "newOwner",
          "type": "address"
        }
      ],
      "name": "OwnershipTransferred",
      "type": "event"
    },
    {
      "inputs": [
        {
          "internalType": "address",
          "name": "_account",
          "type": "address"
        },
        {
          "internalType": "string",
          "name": "role",
          "type": "string"
        }
      ],
      "name": "addRole",
      "outputs": [],
      "stateMutability": "nonpayable",
      "type": "function"
    },
    {
      "inputs": [
        {
          "internalType": "string",
          "name": "_prodName",
          "type": "string"
        },
        {
          "internalType": "uint256",
          "name": "_qty",
          "type": "uint256"
        },
        {
          "internalType": "uint256",
          "name": "_ordrVal",
          "type": "uint256"
        },
        {
          "internalType": "string",
          "name": "_status",
          "type": "string"
        }
      ],
      "name": "createOrder",
      "outputs": [],
      "stateMutability": "nonpayable",
      "type": "function"
    },
    {
      "inputs": [],
      "name": "getAllOrderDetails",
      "outputs": [
        {
          "components": [
            {
              "internalType": "string",
              "name": "SoID",
              "type": "string"
            },
            {
              "internalType": "string",
              "name": "PoID",
              "type": "string"
            },
            {
              "internalType": "string",
              "name": "prodName",
              "type": "string"
            },
            {
              "internalType": "uint256",
              "name": "qty",
              "type": "uint256"
            },
            {
              "internalType": "uint256",
              "name": "orderValue",
              "type": "uint256"
            },
            {
              "internalType": "uint256",
              "name": "customerFinalDeliveryDate",
              "type": "uint256"
            },
            {
              "internalType": "string",
              "name": "status",
              "type": "string"
            },
            {
              "internalType": "string",
              "name": "barCode",
              "type": "string"
            },
            {
              "internalType": "string",
              "name": "batchNo",
              "type": "string"
            },
            {
              "internalType": "string",
              "name": "masterLabel",
              "type": "string"
            },
            {
              "internalType": "string",
              "name": "invoicePath",
              "type": "string"
            },
            {
              "internalType": "string",
              "name": "trackingNo",
              "type": "string"
            }
          ],
          "internalType": "struct SupplyChain.Order[]",
          "name": "",
          "type": "tuple[]"
        }
      ],
      "stateMutability": "view",
      "type": "function"
    },
    {
      "inputs": [
        {
          "internalType": "string",
          "name": "_soOrPo",
          "type": "string"
        }
      ],
      "name": "getOrderDetails",
      "outputs": [
        {
          "components": [
            {
              "internalType": "string",
              "name": "SoID",
              "type": "string"
            },
            {
              "internalType": "string",
              "name": "PoID",
              "type": "string"
            },
            {
              "internalType": "string",
              "name": "prodName",
              "type": "string"
            },
            {
              "internalType": "uint256",
              "name": "qty",
              "type": "uint256"
            },
            {
              "internalType": "uint256",
              "name": "orderValue",
              "type": "uint256"
            },
            {
              "internalType": "uint256",
              "name": "customerFinalDeliveryDate",
              "type": "uint256"
            },
            {
              "internalType": "string",
              "name": "status",
              "type": "string"
            },
            {
              "internalType": "string",
              "name": "barCode",
              "type": "string"
            },
            {
              "internalType": "string",
              "name": "batchNo",
              "type": "string"
            },
            {
              "internalType": "string",
              "name": "masterLabel",
              "type": "string"
            },
            {
              "internalType": "string",
              "name": "invoicePath",
              "type": "string"
            },
            {
              "internalType": "string",
              "name": "trackingNo",
              "type": "string"
            }
          ],
          "internalType": "struct SupplyChain.Order",
          "name": "",
          "type": "tuple"
        }
      ],
      "stateMutability": "view",
      "type": "function"
    },
    {
      "inputs": [],
      "name": "getRole",
      "outputs": [
        {
          "internalType": "string",
          "name": "",
          "type": "string"
        }
      ],
      "stateMutability": "view",
      "type": "function"
    },
    {
      "inputs": [],
      "name": "getTest",
      "outputs": [
        {
          "internalType": "uint256",
          "name": "",
          "type": "uint256"
        }
      ],
      "stateMutability": "view",
      "type": "function"
    },
    {
      "inputs": [],
      "name": "initialize",
      "outputs": [],
      "stateMutability": "nonpayable",
      "type": "function"
    },
    {
      "inputs": [
        {
          "internalType": "string",
          "name": "",
          "type": "string"
        }
      ],
      "name": "orderData",
      "outputs": [
        {
          "internalType": "string",
          "name": "SoID",
          "type": "string"
        },
        {
          "internalType": "string",
          "name": "PoID",
          "type": "string"
        },
        {
          "internalType": "string",
          "name": "prodName",
          "type": "string"
        },
        {
          "internalType": "uint256",
          "name": "qty",
          "type": "uint256"
        },
        {
          "internalType": "uint256",
          "name": "orderValue",
          "type": "uint256"
        },
        {
          "internalType": "uint256",
          "name": "customerFinalDeliveryDate",
          "type": "uint256"
        },
        {
          "internalType": "string",
          "name": "status",
          "type": "string"
        },
        {
          "internalType": "string",
          "name": "barCode",
          "type": "string"
        },
        {
          "internalType": "string",
          "name": "batchNo",
          "type": "string"
        },
        {
          "internalType": "string",
          "name": "masterLabel",
          "type": "string"
        },
        {
          "internalType": "string",
          "name": "invoicePath",
          "type": "string"
        },
        {
          "internalType": "string",
          "name": "trackingNo",
          "type": "string"
        }
      ],
      "stateMutability": "view",
      "type": "function"
    },
    {
      "inputs": [
        {
          "internalType": "uint256",
          "name": "",
          "type": "uint256"
        }
      ],
      "name": "orders",
      "outputs": [
        {
          "internalType": "string",
          "name": "SoID",
          "type": "string"
        },
        {
          "internalType": "string",
          "name": "PoID",
          "type": "string"
        },
        {
          "internalType": "string",
          "name": "prodName",
          "type": "string"
        },
        {
          "internalType": "uint256",
          "name": "qty",
          "type": "uint256"
        },
        {
          "internalType": "uint256",
          "name": "orderValue",
          "type": "uint256"
        },
        {
          "internalType": "uint256",
          "name": "customerFinalDeliveryDate",
          "type": "uint256"
        },
        {
          "internalType": "string",
          "name": "status",
          "type": "string"
        },
        {
          "internalType": "string",
          "name": "barCode",
          "type": "string"
        },
        {
          "internalType": "string",
          "name": "batchNo",
          "type": "string"
        },
        {
          "internalType": "string",
          "name": "masterLabel",
          "type": "string"
        },
        {
          "internalType": "string",
          "name": "invoicePath",
          "type": "string"
        },
        {
          "internalType": "string",
          "name": "trackingNo",
          "type": "string"
        }
      ],
      "stateMutability": "view",
      "type": "function"
    },
    {
      "inputs": [],
      "name": "owner",
      "outputs": [
        {
          "internalType": "address",
          "name": "",
          "type": "address"
        }
      ],
      "stateMutability": "view",
      "type": "function"
    },
    {
      "inputs": [],
      "name": "renounceOwnership",
      "outputs": [],
      "stateMutability": "nonpayable",
      "type": "function"
    },
    {
      "inputs": [
        {
          "internalType": "address",
          "name": "",
          "type": "address"
        }
      ],
      "name": "roles",
      "outputs": [
        {
          "internalType": "string",
          "name": "",
          "type": "string"
        }
      ],
      "stateMutability": "view",
      "type": "function"
    },
    {
      "inputs": [
        {
          "internalType": "address",
          "name": "newOwner",
          "type": "address"
        }
      ],
      "name": "transferOwnership",
      "outputs": [],
      "stateMutability": "nonpayable",
      "type": "function"
    },
    {
      "inputs": [],
      "name": "uid",
      "outputs": [
        {
          "internalType": "uint256",
          "name": "",
          "type": "uint256"
        }
      ],
      "stateMutability": "view",
      "type": "function"
    },
    {
      "inputs": [
        {
          "internalType": "string",
          "name": "_so",
          "type": "string"
        },
        {
          "internalType": "string",
          "name": "_status",
          "type": "string"
        }
      ],
      "name": "updateStatus",
      "outputs": [],
      "stateMutability": "nonpayable",
      "type": "function"
    }
  ],
  "bytecode": "0x608060405234801561001057600080fd5b506143c8806100206000396000f3fe608060405234801561001057600080fd5b50600436106100f55760003560e01c80639937464211610097578063f2fde38b11610066578063f2fde38b14610276578063f514ce3614610292578063fb0a9a6d146102b0578063fde08174146102cc576100f5565b806399374642146101b2578063a85c38ef146101e2578063a8cd0a801461021d578063e393f2631461023b576100f5565b8063715018a6116100d3578063715018a6146101645780637d72aa651461016e5780638129fc1c1461018a5780638da5cb5b14610194576100f5565b8063347047cc146100fa5780634fbb487c146101165780636bc184b414610146575b600080fd5b610114600480360381019061010f91906132cd565b6102ea565b005b610130600480360381019061012b9190613345565b6103ef565b60405161013d919061356b565b60405180910390f35b61014e610f3c565b60405161015b919061378b565b60405180910390f35b61016c611668565b005b6101886004803603810190610183919061380b565b61167c565b005b61019261174e565b005b61019c6118a6565b6040516101a99190613876565b60405180910390f35b6101cc60048036038101906101c79190613891565b6118d0565b6040516101d99190613908565b60405180910390f35b6101fc60048036038101906101f79190613956565b611970565b6040516102149c9b9a99989796959493929190613992565b60405180910390f35b610225611ea8565b6040516102329190613a8b565b60405180910390f35b61025560048036038101906102509190613345565b611ebf565b60405161026d9c9b9a99989796959493929190613992565b60405180910390f35b610290600480360381019061028b9190613891565b6123fd565b005b61029a612481565b6040516102a79190613a8b565b60405180910390f35b6102ca60048036038101906102c59190613aa6565b612487565b005b6102d461290a565b6040516102e19190613908565b60405180910390f35b6040516020016102f990613b76565b60405160208183030381529060405280519060200120606b60003373ffffffffffffffffffffffffffffffffffffffff1673ffffffffffffffffffffffffffffffffffffffff16815260200190815260200160002060405160200161035e9190613c80565b6040516020818303038152906040528051906020012014156103b5576040517f08c379a00000000000000000000000000000000000000000000000000000000081526004016103ac90613ce3565b60405180910390fd5b806069836040516103c69190613d34565b908152602001604051809103902060060190805190602001906103ea92919061306f565b505050565b6103f76130f5565b60405160200161040690613d97565b60405160208183030381529060405280519060200120610425836129d9565b6040516020016104359190613d34565b6040516020818303038152906040528051906020012014156109c2576069826040516104619190613d34565b90815260200160405180910390206040518061018001604052908160008201805461048b90613bba565b80601f01602080910402602001604051908101604052809291908181526020018280546104b790613bba565b80156105045780601f106104d957610100808354040283529160200191610504565b820191906000526020600020905b8154815290600101906020018083116104e757829003601f168201915b5050505050815260200160018201805461051d90613bba565b80601f016020809104026020016040519081016040528092919081815260200182805461054990613bba565b80156105965780601f1061056b57610100808354040283529160200191610596565b820191906000526020600020905b81548152906001019060200180831161057957829003601f168201915b505050505081526020016002820180546105af90613bba565b80601f01602080910402602001604051908101604052809291908181526020018280546105db90613bba565b80156106285780601f106105fd57610100808354040283529160200191610628565b820191906000526020600020905b81548152906001019060200180831161060b57829003601f168201915b5050505050815260200160038201548152602001600482015481526020016005820154815260200160068201805461065f90613bba565b80601f016020809104026020016040519081016040528092919081815260200182805461068b90613bba565b80156106d85780601f106106ad576101008083540402835291602001916106d8565b820191906000526020600020905b8154815290600101906020018083116106bb57829003601f168201915b505050505081526020016007820180546106f190613bba565b80601f016020809104026020016040519081016040528092919081815260200182805461071d90613bba565b801561076a5780601f1061073f5761010080835404028352916020019161076a565b820191906000526020600020905b81548152906001019060200180831161074d57829003601f168201915b5050505050815260200160088201805461078390613bba565b80601f01602080910402602001604051908101604052809291908181526020018280546107af90613bba565b80156107fc5780601f106107d1576101008083540402835291602001916107fc565b820191906000526020600020905b8154815290600101906020018083116107df57829003601f168201915b5050505050815260200160098201805461081590613bba565b80601f016020809104026020016040519081016040528092919081815260200182805461084190613bba565b801561088e5780601f106108635761010080835404028352916020019161088e565b820191906000526020600020905b81548152906001019060200180831161087157829003601f168201915b50505050508152602001600a820180546108a790613bba565b80601f01602080910402602001604051908101604052809291908181526020018280546108d390613bba565b80156109205780601f106108f557610100808354040283529160200191610920565b820191906000526020600020905b81548152906001019060200180831161090357829003601f168201915b50505050508152602001600b8201805461093990613bba565b80601f016020809104026020016040519081016040528092919081815260200182805461096590613bba565b80156109b25780601f10610987576101008083540402835291602001916109b2565b820191906000526020600020905b81548152906001019060200180831161099557829003601f168201915b5050505050815250509050610f37565b60696109cd83612a98565b6040516109da9190613d34565b908152602001604051809103902060405180610180016040529081600082018054610a0490613bba565b80601f0160208091040260200160405190810160405280929190818152602001828054610a3090613bba565b8015610a7d5780601f10610a5257610100808354040283529160200191610a7d565b820191906000526020600020905b815481529060010190602001808311610a6057829003601f168201915b50505050508152602001600182018054610a9690613bba565b80601f0160208091040260200160405190810160405280929190818152602001828054610ac290613bba565b8015610b0f5780601f10610ae457610100808354040283529160200191610b0f565b820191906000526020600020905b815481529060010190602001808311610af257829003601f168201915b50505050508152602001600282018054610b2890613bba565b80601f0160208091040260200160405190810160405280929190818152602001828054610b5490613bba565b8015610ba15780601f10610b7657610100808354040283529160200191610ba1565b820191906000526020600020905b815481529060010190602001808311610b8457829003601f168201915b50505050508152602001600382015481526020016004820154815260200160058201548152602001600682018054610bd890613bba565b80601f0160208091040260200160405190810160405280929190818152602001828054610c0490613bba565b8015610c515780601f10610c2657610100808354040283529160200191610c51565b820191906000526020600020905b815481529060010190602001808311610c3457829003601f168201915b50505050508152602001600782018054610c6a90613bba565b80601f0160208091040260200160405190810160405280929190818152602001828054610c9690613bba565b8015610ce35780601f10610cb857610100808354040283529160200191610ce3565b820191906000526020600020905b815481529060010190602001808311610cc657829003601f168201915b50505050508152602001600882018054610cfc90613bba565b80601f0160208091040260200160405190810160405280929190818152602001828054610d2890613bba565b8015610d755780601f10610d4a57610100808354040283529160200191610d75565b820191906000526020600020905b815481529060010190602001808311610d5857829003601f168201915b50505050508152602001600982018054610d8e90613bba565b80601f0160208091040260200160405190810160405280929190818152602001828054610dba90613bba565b8015610e075780601f10610ddc57610100808354040283529160200191610e07565b820191906000526020600020905b815481529060010190602001808311610dea57829003601f168201915b50505050508152602001600a82018054610e2090613bba565b80601f0160208091040260200160405190810160405280929190818152602001828054610e4c90613bba565b8015610e995780601f10610e6e57610100808354040283529160200191610e99565b820191906000526020600020905b815481529060010190602001808311610e7c57829003601f168201915b50505050508152602001600b82018054610eb290613bba565b80601f0160208091040260200160405190810160405280929190818152602001828054610ede90613bba565b8015610f2b5780601f10610f0057610100808354040283529160200191610f2b565b820191906000526020600020905b815481529060010190602001808311610f0e57829003601f168201915b50505050508152505090505b919050565b6060604051602001610f4d90613df8565b60405160208183030381529060405280519060200120606b60003373ffffffffffffffffffffffffffffffffffffffff1673ffffffffffffffffffffffffffffffffffffffff168152602001908152602001600020604051602001610fb29190613c80565b6040516020818303038152906040528051906020012014611008576040517f08c379a0000000000000000000000000000000000000000000000000000000008152600401610fff90613e59565b60405180910390fd5b600060675490506000806068546067546110229190613ea8565b67ffffffffffffffff81111561103b5761103a6131a2565b5b60405190808252806020026020018201604052801561107457816020015b6110616130f5565b8152602001906001900390816110595790505b509050600060685490505b8381101561165e576000606961109483612c1b565b6040516020016110a49190613f02565b6040516020818303038152906040526040516110c09190613d34565b9081526020016040518091039020905080604051806101800160405290816000820180546110ed90613bba565b80601f016020809104026020016040519081016040528092919081815260200182805461111990613bba565b80156111665780601f1061113b57610100808354040283529160200191611166565b820191906000526020600020905b81548152906001019060200180831161114957829003601f168201915b5050505050815260200160018201805461117f90613bba565b80601f01602080910402602001604051908101604052809291908181526020018280546111ab90613bba565b80156111f85780601f106111cd576101008083540402835291602001916111f8565b820191906000526020600020905b8154815290600101906020018083116111db57829003601f168201915b5050505050815260200160028201805461121190613bba565b80601f016020809104026020016040519081016040528092919081815260200182805461123d90613bba565b801561128a5780601f1061125f5761010080835404028352916020019161128a565b820191906000526020600020905b81548152906001019060200180831161126d57829003601f168201915b505050505081526020016003820154815260200160048201548152602001600582015481526020016006820180546112c190613bba565b80601f01602080910402602001604051908101604052809291908181526020018280546112ed90613bba565b801561133a5780601f1061130f5761010080835404028352916020019161133a565b820191906000526020600020905b81548152906001019060200180831161131d57829003601f168201915b5050505050815260200160078201805461135390613bba565b80601f016020809104026020016040519081016040528092919081815260200182805461137f90613bba565b80156113cc5780601f106113a1576101008083540402835291602001916113cc565b820191906000526020600020905b8154815290600101906020018083116113af57829003601f168201915b505050505081526020016008820180546113e590613bba565b80601f016020809104026020016040519081016040528092919081815260200182805461141190613bba565b801561145e5780601f106114335761010080835404028352916020019161145e565b820191906000526020600020905b81548152906001019060200180831161144157829003601f168201915b5050505050815260200160098201805461147790613bba565b80601f01602080910402602001604051908101604052809291908181526020018280546114a390613bba565b80156114f05780601f106114c5576101008083540402835291602001916114f0565b820191906000526020600020905b8154815290600101906020018083116114d357829003601f168201915b50505050508152602001600a8201805461150990613bba565b80601f016020809104026020016040519081016040528092919081815260200182805461153590613bba565b80156115825780601f1061155757610100808354040283529160200191611582565b820191906000526020600020905b81548152906001019060200180831161156557829003601f168201915b50505050508152602001600b8201805461159b90613bba565b80601f01602080910402602001604051908101604052809291908181526020018280546115c790613bba565b80156116145780601f106115e957610100808354040283529160200191611614565b820191906000526020600020905b8154815290600101906020018083116115f757829003601f168201915b5050505050815250508385815181106116305761162f613f28565b5b60200260200101819052506001846116489190613f57565b935050808061165690613fad565b91505061107f565b5080935050505090565b611670612cf3565b61167a6000612d71565b565b611684612cf3565b81600073ffffffffffffffffffffffffffffffffffffffff168173ffffffffffffffffffffffffffffffffffffffff1614156116f5576040517f08c379a00000000000000000000000000000000000000000000000000000000081526004016116ec90614068565b60405180910390fd5b81606b60008573ffffffffffffffffffffffffffffffffffffffff1673ffffffffffffffffffffffffffffffffffffffff168152602001908152602001600020908051906020019061174892919061306f565b50505050565b60008060019054906101000a900460ff1615905080801561177f5750600160008054906101000a900460ff1660ff16105b806117ac575061178e30612e37565b1580156117ab5750600160008054906101000a900460ff1660ff16145b5b6117eb576040517f08c379a00000000000000000000000000000000000000000000000000000000081526004016117e2906140fa565b60405180910390fd5b60016000806101000a81548160ff021916908360ff1602179055508015611828576001600060016101000a81548160ff0219169083151502179055505b611830612e5a565b614094606781905550614094606881905550600160658190555080156118a35760008060016101000a81548160ff0219169083151502179055507f7f26b83ff96e1f2b6a682f133852f6798a09c465da95921460cefb3847402498600160405161189a919061416c565b60405180910390a15b50565b6000603360009054906101000a900473ffffffffffffffffffffffffffffffffffffffff16905090565b606b60205280600052604060002060009150905080546118ef90613bba565b80601f016020809104026020016040519081016040528092919081815260200182805461191b90613bba565b80156119685780601f1061193d57610100808354040283529160200191611968565b820191906000526020600020905b81548152906001019060200180831161194b57829003601f168201915b505050505081565b606a818154811061198057600080fd5b90600052602060002090600c02016000915090508060000180546119a390613bba565b80601f01602080910402602001604051908101604052809291908181526020018280546119cf90613bba565b8015611a1c5780601f106119f157610100808354040283529160200191611a1c565b820191906000526020600020905b8154815290600101906020018083116119ff57829003601f168201915b505050505090806001018054611a3190613bba565b80601f0160208091040260200160405190810160405280929190818152602001828054611a5d90613bba565b8015611aaa5780601f10611a7f57610100808354040283529160200191611aaa565b820191906000526020600020905b815481529060010190602001808311611a8d57829003601f168201915b505050505090806002018054611abf90613bba565b80601f0160208091040260200160405190810160405280929190818152602001828054611aeb90613bba565b8015611b385780601f10611b0d57610100808354040283529160200191611b38565b820191906000526020600020905b815481529060010190602001808311611b1b57829003601f168201915b505050505090806003015490806004015490806005015490806006018054611b5f90613bba565b80601f0160208091040260200160405190810160405280929190818152602001828054611b8b90613bba565b8015611bd85780601f10611bad57610100808354040283529160200191611bd8565b820191906000526020600020905b815481529060010190602001808311611bbb57829003601f168201915b505050505090806007018054611bed90613bba565b80601f0160208091040260200160405190810160405280929190818152602001828054611c1990613bba565b8015611c665780601f10611c3b57610100808354040283529160200191611c66565b820191906000526020600020905b815481529060010190602001808311611c4957829003601f168201915b505050505090806008018054611c7b90613bba565b80601f0160208091040260200160405190810160405280929190818152602001828054611ca790613bba565b8015611cf45780601f10611cc957610100808354040283529160200191611cf4565b820191906000526020600020905b815481529060010190602001808311611cd757829003601f168201915b505050505090806009018054611d0990613bba565b80601f0160208091040260200160405190810160405280929190818152602001828054611d3590613bba565b8015611d825780601f10611d5757610100808354040283529160200191611d82565b820191906000526020600020905b815481529060010190602001808311611d6557829003601f168201915b50505050509080600a018054611d9790613bba565b80601f0160208091040260200160405190810160405280929190818152602001828054611dc390613bba565b8015611e105780601f10611de557610100808354040283529160200191611e10565b820191906000526020600020905b815481529060010190602001808311611df357829003601f168201915b50505050509080600b018054611e2590613bba565b80601f0160208091040260200160405190810160405280929190818152602001828054611e5190613bba565b8015611e9e5780601f10611e7357610100808354040283529160200191611e9e565b820191906000526020600020905b815481529060010190602001808311611e8157829003601f168201915b505050505090508c565b6000606854606754611eba9190613ea8565b905090565b606981805160208101820180518482526020830160208501208183528095505050505050600091509050806000018054611ef890613bba565b80601f0160208091040260200160405190810160405280929190818152602001828054611f2490613bba565b8015611f715780601f10611f4657610100808354040283529160200191611f71565b820191906000526020600020905b815481529060010190602001808311611f5457829003601f168201915b505050505090806001018054611f8690613bba565b80601f0160208091040260200160405190810160405280929190818152602001828054611fb290613bba565b8015611fff5780601f10611fd457610100808354040283529160200191611fff565b820191906000526020600020905b815481529060010190602001808311611fe257829003601f168201915b50505050509080600201805461201490613bba565b80601f016020809104026020016040519081016040528092919081815260200182805461204090613bba565b801561208d5780601f106120625761010080835404028352916020019161208d565b820191906000526020600020905b81548152906001019060200180831161207057829003601f168201915b5050505050908060030154908060040154908060050154908060060180546120b490613bba565b80601f01602080910402602001604051908101604052809291908181526020018280546120e090613bba565b801561212d5780601f106121025761010080835404028352916020019161212d565b820191906000526020600020905b81548152906001019060200180831161211057829003601f168201915b50505050509080600701805461214290613bba565b80601f016020809104026020016040519081016040528092919081815260200182805461216e90613bba565b80156121bb5780601f10612190576101008083540402835291602001916121bb565b820191906000526020600020905b81548152906001019060200180831161219e57829003601f168201915b5050505050908060080180546121d090613bba565b80601f01602080910402602001604051908101604052809291908181526020018280546121fc90613bba565b80156122495780601f1061221e57610100808354040283529160200191612249565b820191906000526020600020905b81548152906001019060200180831161222c57829003601f168201915b50505050509080600901805461225e90613bba565b80601f016020809104026020016040519081016040528092919081815260200182805461228a90613bba565b80156122d75780601f106122ac576101008083540402835291602001916122d7565b820191906000526020600020905b8154815290600101906020018083116122ba57829003601f168201915b50505050509080600a0180546122ec90613bba565b80601f016020809104026020016040519081016040528092919081815260200182805461231890613bba565b80156123655780601f1061233a57610100808354040283529160200191612365565b820191906000526020600020905b81548152906001019060200180831161234857829003601f168201915b50505050509080600b01805461237a90613bba565b80601f01602080910402602001604051908101604052809291908181526020018280546123a690613bba565b80156123f35780601f106123c8576101008083540402835291602001916123f3565b820191906000526020600020905b8154815290600101906020018083116123d657829003601f168201915b505050505090508c565b612405612cf3565b600073ffffffffffffffffffffffffffffffffffffffff168173ffffffffffffffffffffffffffffffffffffffff161415612475576040517f08c379a000000000000000000000000000000000000000000000000000000000815260040161246c906141f9565b60405180910390fd5b61247e81612d71565b50565b60655481565b60405160200161249690613df8565b60405160208183030381529060405280519060200120606b60003373ffffffffffffffffffffffffffffffffffffffff1673ffffffffffffffffffffffffffffffffffffffff1681526020019081526020016000206040516020016124fb9190613c80565b6040516020818303038152906040528051906020012014612551576040517f08c379a000000000000000000000000000000000000000000000000000000000815260040161254890613e59565b60405180910390fd5b600061255e606754612c1b565b60405160200161256e9190613f02565b6040516020818303038152906040529050600060405180610180016040528083815260200161259e606754612c1b565b6040516020016125ae919061423f565b604051602081830303815290604052815260200187815260200186815260200185815260200160008152602001848152602001604051806020016040528060008152508152602001604051806020016040528060008152508152602001604051806020016040528060008152508152602001604051806020016040528060008152508152602001604051806020016040528060008152508152509050606a8190806001815401808255809150506001900390600052602060002090600c0201600090919091909150600082015181600001908051906020019061269292919061306f565b5060208201518160010190805190602001906126af92919061306f565b5060408201518160020190805190602001906126cc92919061306f565b50606082015181600301556080820151816004015560a0820151816005015560c082015181600601908051906020019061270792919061306f565b5060e082015181600701908051906020019061272492919061306f565b5061010082015181600801908051906020019061274292919061306f565b5061012082015181600901908051906020019061276092919061306f565b5061014082015181600a01908051906020019061277e92919061306f565b5061016082015181600b01908051906020019061279c92919061306f565b505050806069836040516127b09190613d34565b908152602001604051809103902060008201518160000190805190602001906127da92919061306f565b5060208201518160010190805190602001906127f792919061306f565b50604082015181600201908051906020019061281492919061306f565b50606082015181600301556080820151816004015560a0820151816005015560c082015181600601908051906020019061284f92919061306f565b5060e082015181600701908051906020019061286c92919061306f565b5061010082015181600801908051906020019061288a92919061306f565b506101208201518160090190805190602001906128a892919061306f565b5061014082015181600a0190805190602001906128c692919061306f565b5061016082015181600b0190805190602001906128e492919061306f565b509050506001606760008282546128fb9190613f57565b92505081905550505050505050565b6060606b60003373ffffffffffffffffffffffffffffffffffffffff1673ffffffffffffffffffffffffffffffffffffffff168152602001908152602001600020805461295690613bba565b80601f016020809104026020016040519081016040528092919081815260200182805461298290613bba565b80156129cf5780601f106129a4576101008083540402835291602001916129cf565b820191906000526020600020905b8154815290600101906020018083116129b257829003601f168201915b5050505050905090565b60606000600167ffffffffffffffff8111156129f8576129f76131a2565b5b6040519080825280601f01601f191660200182016040528015612a2a5781602001600182028036833780820191505090505b50905082600081518110612a4157612a40613f28565b5b602001015160f81c60f81b81600081518110612a6057612a5f613f28565b5b60200101907effffffffffffffffffffffffffffffffffffffffffffffffffffffffffffff1916908160001a90535080915050919050565b606060008290506000815167ffffffffffffffff811115612abc57612abb6131a2565b5b6040519080825280601f01601f191660200182016040528015612aee5781602001600182028036833780820191505090505b50905060005b8251811015612c1057828181518110612b1057612b0f613f28565b5b602001015160f81c60f81b828281518110612b2e57612b2d613f28565b5b60200101907effffffffffffffffffffffffffffffffffffffffffffffffffffffffffffff1916908160001a9053506000811415612bfd576040518060400160405280600181526020017f5300000000000000000000000000000000000000000000000000000000000000815250600081518110612baf57612bae613f28565b5b602001015160f81c60f81b828281518110612bcd57612bcc613f28565b5b60200101907effffffffffffffffffffffffffffffffffffffffffffffffffffffffffffff1916908160001a9053505b8080612c0890613fad565b915050612af4565b508092505050919050565b606060006001612c2a84612eb3565b01905060008167ffffffffffffffff811115612c4957612c486131a2565b5b6040519080825280601f01601f191660200182016040528015612c7b5781602001600182028036833780820191505090505b509050600082602001820190505b600115612ce8578080600190039150507f3031323334353637383961626364656600000000000000000000000000000000600a86061a8153600a8581612cd257612cd1614265565b5b0494506000851415612ce357612ce8565b612c89565b819350505050919050565b612cfb613006565b73ffffffffffffffffffffffffffffffffffffffff16612d196118a6565b73ffffffffffffffffffffffffffffffffffffffff1614612d6f576040517f08c379a0000000000000000000000000000000000000000000000000000000008152600401612d66906142e0565b60405180910390fd5b565b6000603360009054906101000a900473ffffffffffffffffffffffffffffffffffffffff16905081603360006101000a81548173ffffffffffffffffffffffffffffffffffffffff021916908373ffffffffffffffffffffffffffffffffffffffff1602179055508173ffffffffffffffffffffffffffffffffffffffff168173ffffffffffffffffffffffffffffffffffffffff167f8be0079c531659141344cd1fd0a4f28419497f9722a3daafe3b4186f6b6457e060405160405180910390a35050565b6000808273ffffffffffffffffffffffffffffffffffffffff163b119050919050565b600060019054906101000a900460ff16612ea9576040517f08c379a0000000000000000000000000000000000000000000000000000000008152600401612ea090614372565b60405180910390fd5b612eb161300e565b565b600080600090507a184f03e93ff9f4daa797ed6e38ed64bf6a1f0100000000000000008310612f11577a184f03e93ff9f4daa797ed6e38ed64bf6a1f0100000000000000008381612f0757612f06614265565b5b0492506040810190505b6d04ee2d6d415b85acef81000000008310612f4e576d04ee2d6d415b85acef81000000008381612f4457612f43614265565b5b0492506020810190505b662386f26fc100008310612f7d57662386f26fc100008381612f7357612f72614265565b5b0492506010810190505b6305f5e1008310612fa6576305f5e1008381612f9c57612f9b614265565b5b0492506008810190505b6127108310612fcb576127108381612fc157612fc0614265565b5b0492506004810190505b60648310612fee5760648381612fe457612fe3614265565b5b0492506002810190505b600a8310612ffd576001810190505b80915050919050565b600033905090565b600060019054906101000a900460ff1661305d576040517f08c379a000000000000000000000000000000000000000000000000000000000815260040161305490614372565b60405180910390fd5b61306d613068613006565b612d71565b565b82805461307b90613bba565b90600052602060002090601f01602090048101928261309d57600085556130e4565b82601f106130b657805160ff19168380011785556130e4565b828001600101855582156130e4579182015b828111156130e35782518255916020019190600101906130c8565b5b5090506130f19190613156565b5090565b6040518061018001604052806060815260200160608152602001606081526020016000815260200160008152602001600081526020016060815260200160608152602001606081526020016060815260200160608152602001606081525090565b5b8082111561316f576000816000905550600101613157565b5090565b6000604051905090565b600080fd5b600080fd5b600080fd5b600080fd5b6000601f19601f8301169050919050565b7f4e487b7100000000000000000000000000000000000000000000000000000000600052604160045260246000fd5b6131da82613191565b810181811067ffffffffffffffff821117156131f9576131f86131a2565b5b80604052505050565b600061320c613173565b905061321882826131d1565b919050565b600067ffffffffffffffff821115613238576132376131a2565b5b61324182613191565b9050602081019050919050565b82818337600083830152505050565b600061327061326b8461321d565b613202565b90508281526020810184848401111561328c5761328b61318c565b5b61329784828561324e565b509392505050565b600082601f8301126132b4576132b3613187565b5b81356132c484826020860161325d565b91505092915050565b600080604083850312156132e4576132e361317d565b5b600083013567ffffffffffffffff81111561330257613301613182565b5b61330e8582860161329f565b925050602083013567ffffffffffffffff81111561332f5761332e613182565b5b61333b8582860161329f565b9150509250929050565b60006020828403121561335b5761335a61317d565b5b600082013567ffffffffffffffff81111561337957613378613182565b5b6133858482850161329f565b91505092915050565b600081519050919050565b600082825260208201905092915050565b60005b838110156133c85780820151818401526020810190506133ad565b838111156133d7576000848401525b50505050565b60006133e88261338e565b6133f28185613399565b93506134028185602086016133aa565b61340b81613191565b840191505092915050565b6000819050919050565b61342981613416565b82525050565b600061018083016000830151848203600086015261344d82826133dd565b9150506020830151848203602086015261346782826133dd565b9150506040830151848203604086015261348182826133dd565b91505060608301516134966060860182613420565b5060808301516134a96080860182613420565b5060a08301516134bc60a0860182613420565b5060c083015184820360c08601526134d482826133dd565b91505060e083015184820360e08601526134ee82826133dd565b91505061010083015184820361010086015261350a82826133dd565b91505061012083015184820361012086015261352682826133dd565b91505061014083015184820361014086015261354282826133dd565b91505061016083015184820361016086015261355e82826133dd565b9150508091505092915050565b60006020820190508181036000830152613585818461342f565b905092915050565b600081519050919050565b600082825260208201905092915050565b6000819050602082019050919050565b60006101808301600083015184820360008601526135d782826133dd565b915050602083015184820360208601526135f182826133dd565b9150506040830151848203604086015261360b82826133dd565b91505060608301516136206060860182613420565b5060808301516136336080860182613420565b5060a083015161364660a0860182613420565b5060c083015184820360c086015261365e82826133dd565b91505060e083015184820360e086015261367882826133dd565b91505061010083015184820361010086015261369482826133dd565b9150506101208301518482036101208601526136b082826133dd565b9150506101408301518482036101408601526136cc82826133dd565b9150506101608301518482036101608601526136e882826133dd565b9150508091505092915050565b600061370183836135b9565b905092915050565b6000602082019050919050565b60006137218261358d565b61372b8185613598565b93508360208202850161373d856135a9565b8060005b85811015613779578484038952815161375a85826136f5565b945061376583613709565b925060208a01995050600181019050613741565b50829750879550505050505092915050565b600060208201905081810360008301526137a58184613716565b905092915050565b600073ffffffffffffffffffffffffffffffffffffffff82169050919050565b60006137d8826137ad565b9050919050565b6137e8816137cd565b81146137f357600080fd5b50565b600081359050613805816137df565b92915050565b600080604083850312156138225761382161317d565b5b6000613830858286016137f6565b925050602083013567ffffffffffffffff81111561385157613850613182565b5b61385d8582860161329f565b9150509250929050565b613870816137cd565b82525050565b600060208201905061388b6000830184613867565b92915050565b6000602082840312156138a7576138a661317d565b5b60006138b5848285016137f6565b91505092915050565b600082825260208201905092915050565b60006138da8261338e565b6138e481856138be565b93506138f48185602086016133aa565b6138fd81613191565b840191505092915050565b6000602082019050818103600083015261392281846138cf565b905092915050565b61393381613416565b811461393e57600080fd5b50565b6000813590506139508161392a565b92915050565b60006020828403121561396c5761396b61317d565b5b600061397a84828501613941565b91505092915050565b61398c81613416565b82525050565b60006101808201905081810360008301526139ad818f6138cf565b905081810360208301526139c1818e6138cf565b905081810360408301526139d5818d6138cf565b90506139e4606083018c613983565b6139f1608083018b613983565b6139fe60a083018a613983565b81810360c0830152613a1081896138cf565b905081810360e0830152613a2481886138cf565b9050818103610100830152613a3981876138cf565b9050818103610120830152613a4e81866138cf565b9050818103610140830152613a6381856138cf565b9050818103610160830152613a7881846138cf565b90509d9c50505050505050505050505050565b6000602082019050613aa06000830184613983565b92915050565b60008060008060808587031215613ac057613abf61317d565b5b600085013567ffffffffffffffff811115613ade57613add613182565b5b613aea8782880161329f565b9450506020613afb87828801613941565b9350506040613b0c87828801613941565b925050606085013567ffffffffffffffff811115613b2d57613b2c613182565b5b613b398782880161329f565b91505092959194509250565b600081905092915050565b50565b6000613b60600083613b45565b9150613b6b82613b50565b600082019050919050565b6000613b8182613b53565b9150819050919050565b7f4e487b7100000000000000000000000000000000000000000000000000000000600052602260045260246000fd5b60006002820490506001821680613bd257607f821691505b60208210811415613be657613be5613b8b565b5b50919050565b60008190508160005260206000209050919050565b60008154613c0e81613bba565b613c188186613b45565b94506001821660008114613c335760018114613c4457613c77565b60ff19831686528186019350613c77565b613c4d85613bec565b60005b83811015613c6f57815481890152600182019150602081019050613c50565b838801955050505b50505092915050565b6000613c8c8284613c01565b915081905092915050565b7f596f7520617265206e6f742070617274206f66207465616d2079657420212100600082015250565b6000613ccd601f836138be565b9150613cd882613c97565b602082019050919050565b60006020820190508181036000830152613cfc81613cc0565b9050919050565b6000613d0e8261338e565b613d188185613b45565b9350613d288185602086016133aa565b80840191505092915050565b6000613d408284613d03565b915081905092915050565b7f5300000000000000000000000000000000000000000000000000000000000000600082015250565b6000613d81600183613b45565b9150613d8c82613d4b565b600182019050919050565b6000613da282613d74565b9150819050919050565b7f53616c657320526570726573656e746174697665000000000000000000000000600082015250565b6000613de2601483613b45565b9150613ded82613dac565b601482019050919050565b6000613e0382613dd5565b9150819050919050565b7f596f7520617265206e6f7420612053616c657320526570202121000000000000600082015250565b6000613e43601a836138be565b9150613e4e82613e0d565b602082019050919050565b60006020820190508181036000830152613e7281613e36565b9050919050565b7f4e487b7100000000000000000000000000000000000000000000000000000000600052601160045260246000fd5b6000613eb382613416565b9150613ebe83613416565b925082821015613ed157613ed0613e79565b5b828203905092915050565b7f534f000000000000000000000000000000000000000000000000000000000000815250565b6000613f0d82613edc565b600282019150613f1d8284613d03565b915081905092915050565b7f4e487b7100000000000000000000000000000000000000000000000000000000600052603260045260246000fd5b6000613f6282613416565b9150613f6d83613416565b9250827fffffffffffffffffffffffffffffffffffffffffffffffffffffffffffffffff03821115613fa257613fa1613e79565b5b828201905092915050565b6000613fb882613416565b91507fffffffffffffffffffffffffffffffffffffffffffffffffffffffffffffffff821415613feb57613fea613e79565b5b600182019050919050565b7f4e756c6c206163636f756e7420697320636f6d696e672066726f6d2066726f6e60008201527f742d656e64202121000000000000000000000000000000000000000000000000602082015250565b60006140526028836138be565b915061405d82613ff6565b604082019050919050565b6000602082019050818103600083015261408181614045565b9050919050565b7f496e697469616c697a61626c653a20636f6e747261637420697320616c72656160008201527f647920696e697469616c697a6564000000000000000000000000000000000000602082015250565b60006140e4602e836138be565b91506140ef82614088565b604082019050919050565b60006020820190508181036000830152614113816140d7565b9050919050565b6000819050919050565b600060ff82169050919050565b6000819050919050565b600061415661415161414c8461411a565b614131565b614124565b9050919050565b6141668161413b565b82525050565b6000602082019050614181600083018461415d565b92915050565b7f4f776e61626c653a206e6577206f776e657220697320746865207a65726f206160008201527f6464726573730000000000000000000000000000000000000000000000000000602082015250565b60006141e36026836138be565b91506141ee82614187565b604082019050919050565b60006020820190508181036000830152614212816141d6565b9050919050565b7f504f000000000000000000000000000000000000000000000000000000000000815250565b600061424a82614219565b60028201915061425a8284613d03565b915081905092915050565b7f4e487b7100000000000000000000000000000000000000000000000000000000600052601260045260246000fd5b7f4f776e61626c653a2063616c6c6572206973206e6f7420746865206f776e6572600082015250565b60006142ca6020836138be565b91506142d582614294565b602082019050919050565b600060208201905081810360008301526142f9816142bd565b9050919050565b7f496e697469616c697a61626c653a20636f6e7472616374206973206e6f74206960008201527f6e697469616c697a696e67000000000000000000000000000000000000000000602082015250565b600061435c602b836138be565b915061436782614300565b604082019050919050565b6000602082019050818103600083015261438b8161434f565b905091905056fea264697066735822122095b807d99c0e38daa1fb21214d48e169f09484118c620878fbcca0f28259c73a64736f6c634300080c0033",
  "linkReferences": {},
  "deployedLinkReferences": {}
}