{
  "_format": "hh-sol-artifact-1",
  "contractName": "SupplyChain",
  "sourceName": "contracts/SupplyChain.sol",
  "abi": [
    {
      "anonymous": false,
      "inputs": [
        {
          "indexed": false,
          "internalType": "uint8",
          "name": "version",
          "type": "uint8"
        }
      ],
      "name": "Initialized",
      "type": "event"
    },
    {
      "anonymous": false,
      "inputs": [
        {
          "indexed": false,
          "internalType": "uint256",
          "name": "uid",
          "type": "uint256"
        }
      ],
      "name": "Manufactured",
      "type": "event"
    },
    {
      "anonymous": false,
      "inputs": [
        {
          "indexed": true,
          "internalType": "address",
          "name": "_account",
          "type": "address"
        }
      ],
      "name": "ManufacturerAdded",
      "type": "event"
    },
    {
      "anonymous": false,
      "inputs": [
        {
          "indexed": true,
          "internalType": "address",
          "name": "previousOwner",
          "type": "address"
        },
        {
          "indexed": true,
          "internalType": "address",
          "name": "newOwner",
          "type": "address"
        }
      ],
      "name": "OwnershipTransferred",
      "type": "event"
    },
    {
      "anonymous": false,
      "inputs": [
        {
          "indexed": false,
          "internalType": "uint256",
          "name": "uid",
          "type": "uint256"
        }
      ],
      "name": "PurchasedByCustomer",
      "type": "event"
    },
    {
      "anonymous": false,
      "inputs": [
        {
          "indexed": false,
          "internalType": "uint256",
          "name": "uid",
          "type": "uint256"
        }
      ],
      "name": "PurchasedByThirdParty",
      "type": "event"
    },
    {
      "anonymous": false,
      "inputs": [
        {
          "indexed": false,
          "internalType": "uint256",
          "name": "uid",
          "type": "uint256"
        }
      ],
      "name": "ReceivedByCustomer",
      "type": "event"
    },
    {
      "anonymous": false,
      "inputs": [
        {
          "indexed": false,
          "internalType": "uint256",
          "name": "uid",
          "type": "uint256"
        }
      ],
      "name": "ReceivedByDeliveryHub",
      "type": "event"
    },
    {
      "anonymous": false,
      "inputs": [
        {
          "indexed": false,
          "internalType": "uint256",
          "name": "uid",
          "type": "uint256"
        }
      ],
      "name": "ReceivedByThirdParty",
      "type": "event"
    },
    {
      "anonymous": false,
      "inputs": [
        {
          "indexed": false,
          "internalType": "uint256",
          "name": "uid",
          "type": "uint256"
        }
      ],
      "name": "ShippedByDeliveryHub",
      "type": "event"
    },
    {
      "anonymous": false,
      "inputs": [
        {
          "indexed": false,
          "internalType": "uint256",
          "name": "uid",
          "type": "uint256"
        }
      ],
      "name": "ShippedByManufacturer",
      "type": "event"
    },
    {
      "anonymous": false,
      "inputs": [
        {
          "indexed": false,
          "internalType": "uint256",
          "name": "uid",
          "type": "uint256"
        }
      ],
      "name": "ShippedByThirdParty",
      "type": "event"
    },
    {
      "inputs": [
        {
          "internalType": "address",
          "name": "_account",
          "type": "address"
        }
      ],
      "name": "addCustomerRole",
      "outputs": [],
      "stateMutability": "nonpayable",
      "type": "function"
    },
    {
      "inputs": [
        {
          "internalType": "address",
          "name": "_account",
          "type": "address"
        }
      ],
      "name": "addDeliveryHubRole",
      "outputs": [],
      "stateMutability": "nonpayable",
      "type": "function"
    },
    {
      "inputs": [
        {
          "internalType": "address",
          "name": "_account",
          "type": "address"
        }
      ],
      "name": "addManufacturerRole",
      "outputs": [],
      "stateMutability": "nonpayable",
      "type": "function"
    },
    {
      "inputs": [
        {
          "internalType": "address",
          "name": "_account",
          "type": "address"
        }
      ],
      "name": "addThirdPartyRole",
      "outputs": [],
      "stateMutability": "nonpayable",
      "type": "function"
    },
    {
      "inputs": [
        {
          "internalType": "address",
          "name": "_account",
          "type": "address"
        }
      ],
      "name": "hasCustomerRole",
      "outputs": [
        {
          "internalType": "bool",
          "name": "",
          "type": "bool"
        }
      ],
      "stateMutability": "view",
      "type": "function"
    },
    {
      "inputs": [
        {
          "internalType": "address",
          "name": "_account",
          "type": "address"
        }
      ],
      "name": "hasDeliveryHubRole",
      "outputs": [
        {
          "internalType": "bool",
          "name": "",
          "type": "bool"
        }
      ],
      "stateMutability": "view",
      "type": "function"
    },
    {
      "inputs": [
        {
          "internalType": "address",
          "name": "_account",
          "type": "address"
        }
      ],
      "name": "hasManufacturerRole",
      "outputs": [
        {
          "internalType": "bool",
          "name": "",
          "type": "bool"
        }
      ],
      "stateMutability": "view",
      "type": "function"
    },
    {
      "inputs": [
        {
          "internalType": "address",
          "name": "_account",
          "type": "address"
        }
      ],
      "name": "hasThirdPartyRole",
      "outputs": [
        {
          "internalType": "bool",
          "name": "",
          "type": "bool"
        }
      ],
      "stateMutability": "view",
      "type": "function"
    },
    {
      "inputs": [],
      "name": "initialize",
      "outputs": [],
      "stateMutability": "nonpayable",
      "type": "function"
    },
    {
      "inputs": [],
      "name": "owner",
      "outputs": [
        {
          "internalType": "address",
          "name": "",
          "type": "address"
        }
      ],
      "stateMutability": "view",
      "type": "function"
    },
    {
      "inputs": [],
      "name": "renounceOwnership",
      "outputs": [],
      "stateMutability": "nonpayable",
      "type": "function"
    },
    {
      "inputs": [
        {
          "internalType": "address",
          "name": "newOwner",
          "type": "address"
        }
      ],
      "name": "transferOwnership",
      "outputs": [],
      "stateMutability": "nonpayable",
      "type": "function"
    },
    {
      "inputs": [],
      "name": "uid",
      "outputs": [
        {
          "internalType": "uint256",
          "name": "",
          "type": "uint256"
        }
      ],
      "stateMutability": "view",
      "type": "function"
    }
  ],
  "bytecode": "0x608060405234801561001057600080fd5b50610f79806100206000396000f3fe608060405234801561001057600080fd5b50600436106100cf5760003560e01c80638290f8591161008c578063d44bebcc11610066578063d44bebcc146101ea578063f2fde38b1461021a578063f4121b6714610236578063f514ce3614610252576100cf565b80638290f859146101805780638da5cb5b1461019c578063cd2885e0146101ba576100cf565b8063024edf9a146100d4578063453dd4af146101045780635212e510146101205780636000ada11461013c578063715018a61461016c5780638129fc1c14610176575b600080fd5b6100ee60048036038101906100e99190610bb8565b610270565b6040516100fb9190610cc8565b60405180910390f35b61011e60048036038101906101199190610bb8565b610302565b005b61013a60048036038101906101359190610bb8565b6103ad565b005b61015660048036038101906101519190610bb8565b610458565b6040516101639190610cc8565b60405180910390f35b6101746104ea565b005b61017e6104fe565b005b61019a60048036038101906101959190610bb8565b61064c565b005b6101a46106f7565b6040516101b19190610cad565b60405180910390f35b6101d460048036038101906101cf9190610bb8565b610721565b6040516101e19190610cc8565b60405180910390f35b61020460048036038101906101ff9190610bb8565b6107b3565b6040516102119190610cc8565b60405180910390f35b610234600480360381019061022f9190610bb8565b610845565b005b610250600480360381019061024b9190610bb8565b6108c9565b005b61025a610974565b6040516102679190610d7e565b60405180910390f35b60008073ffffffffffffffffffffffffffffffffffffffff168273ffffffffffffffffffffffffffffffffffffffff1614156102ab57600080fd5b606960008373ffffffffffffffffffffffffffffffffffffffff1673ffffffffffffffffffffffffffffffffffffffff16815260200190815260200160002060000160039054906101000a900460ff169050919050565b600073ffffffffffffffffffffffffffffffffffffffff168173ffffffffffffffffffffffffffffffffffffffff16141561033c57600080fd5b610345816107b3565b1561034f57600080fd5b6001606960008373ffffffffffffffffffffffffffffffffffffffff1673ffffffffffffffffffffffffffffffffffffffff16815260200190815260200160002060000160036101000a81548160ff02191690831515021790555050565b600073ffffffffffffffffffffffffffffffffffffffff168173ffffffffffffffffffffffffffffffffffffffff1614156103e757600080fd5b6103f081610721565b156103fa57600080fd5b6001606960008373ffffffffffffffffffffffffffffffffffffffff1673ffffffffffffffffffffffffffffffffffffffff16815260200190815260200160002060000160016101000a81548160ff02191690831515021790555050565b60008073ffffffffffffffffffffffffffffffffffffffff168273ffffffffffffffffffffffffffffffffffffffff16141561049357600080fd5b606960008373ffffffffffffffffffffffffffffffffffffffff1673ffffffffffffffffffffffffffffffffffffffff16815260200190815260200160002060000160009054906101000a900460ff169050919050565b6104f261097a565b6104fc60006109f8565b565b60008060019054906101000a900460ff1615905080801561052f5750600160008054906101000a900460ff1660ff16105b8061055c575061053e30610abe565b15801561055b5750600160008054906101000a900460ff1660ff16145b5b61059b576040517f08c379a000000000000000000000000000000000000000000000000000000000815260040161059290610d1e565b60405180910390fd5b60016000806101000a81548160ff021916908360ff16021790555080156105d8576001600060016101000a81548160ff0219169083151502179055505b6105e0610ae1565b6001606681905550600160658190555080156106495760008060016101000a81548160ff0219169083151502179055507f7f26b83ff96e1f2b6a682f133852f6798a09c465da95921460cefb384740249860016040516106409190610ce3565b60405180910390a15b50565b600073ffffffffffffffffffffffffffffffffffffffff168173ffffffffffffffffffffffffffffffffffffffff16141561068657600080fd5b61068f81610458565b1561069957600080fd5b6001606960008373ffffffffffffffffffffffffffffffffffffffff1673ffffffffffffffffffffffffffffffffffffffff16815260200190815260200160002060000160006101000a81548160ff02191690831515021790555050565b6000603360009054906101000a900473ffffffffffffffffffffffffffffffffffffffff16905090565b60008073ffffffffffffffffffffffffffffffffffffffff168273ffffffffffffffffffffffffffffffffffffffff16141561075c57600080fd5b606960008373ffffffffffffffffffffffffffffffffffffffff1673ffffffffffffffffffffffffffffffffffffffff16815260200190815260200160002060000160019054906101000a900460ff169050919050565b60008073ffffffffffffffffffffffffffffffffffffffff168273ffffffffffffffffffffffffffffffffffffffff1614156107ee57600080fd5b606960008373ffffffffffffffffffffffffffffffffffffffff1673ffffffffffffffffffffffffffffffffffffffff16815260200190815260200160002060000160029054906101000a900460ff169050919050565b61084d61097a565b600073ffffffffffffffffffffffffffffffffffffffff168173ffffffffffffffffffffffffffffffffffffffff1614156108bd576040517f08c379a00000000000000000000000000000000000000000000000000000000081526004016108b490610cfe565b60405180910390fd5b6108c6816109f8565b50565b600073ffffffffffffffffffffffffffffffffffffffff168173ffffffffffffffffffffffffffffffffffffffff16141561090357600080fd5b61090c816107b3565b1561091657600080fd5b6001606960008373ffffffffffffffffffffffffffffffffffffffff1673ffffffffffffffffffffffffffffffffffffffff16815260200190815260200160002060000160026101000a81548160ff02191690831515021790555050565b60655481565b610982610b3a565b73ffffffffffffffffffffffffffffffffffffffff166109a06106f7565b73ffffffffffffffffffffffffffffffffffffffff16146109f6576040517f08c379a00000000000000000000000000000000000000000000000000000000081526004016109ed90610d3e565b60405180910390fd5b565b6000603360009054906101000a900473ffffffffffffffffffffffffffffffffffffffff16905081603360006101000a81548173ffffffffffffffffffffffffffffffffffffffff021916908373ffffffffffffffffffffffffffffffffffffffff1602179055508173ffffffffffffffffffffffffffffffffffffffff168173ffffffffffffffffffffffffffffffffffffffff167f8be0079c531659141344cd1fd0a4f28419497f9722a3daafe3b4186f6b6457e060405160405180910390a35050565b6000808273ffffffffffffffffffffffffffffffffffffffff163b119050919050565b600060019054906101000a900460ff16610b30576040517f08c379a0000000000000000000000000000000000000000000000000000000008152600401610b2790610d5e565b60405180910390fd5b610b38610b42565b565b600033905090565b600060019054906101000a900460ff16610b91576040517f08c379a0000000000000000000000000000000000000000000000000000000008152600401610b8890610d5e565b60405180910390fd5b610ba1610b9c610b3a565b6109f8565b565b600081359050610bb281610f2c565b92915050565b600060208284031215610bce57610bcd610e11565b5b6000610bdc84828501610ba3565b91505092915050565b610bee81610daa565b82525050565b610bfd81610dbc565b82525050565b610c0c81610dff565b82525050565b6000610c1f602683610d99565b9150610c2a82610e16565b604082019050919050565b6000610c42602e83610d99565b9150610c4d82610e65565b604082019050919050565b6000610c65602083610d99565b9150610c7082610eb4565b602082019050919050565b6000610c88602b83610d99565b9150610c9382610edd565b604082019050919050565b610ca781610de8565b82525050565b6000602082019050610cc26000830184610be5565b92915050565b6000602082019050610cdd6000830184610bf4565b92915050565b6000602082019050610cf86000830184610c03565b92915050565b60006020820190508181036000830152610d1781610c12565b9050919050565b60006020820190508181036000830152610d3781610c35565b9050919050565b60006020820190508181036000830152610d5781610c58565b9050919050565b60006020820190508181036000830152610d7781610c7b565b9050919050565b6000602082019050610d936000830184610c9e565b92915050565b600082825260208201905092915050565b6000610db582610dc8565b9050919050565b60008115159050919050565b600073ffffffffffffffffffffffffffffffffffffffff82169050919050565b6000819050919050565b600060ff82169050919050565b6000610e0a82610df2565b9050919050565b600080fd5b7f4f776e61626c653a206e6577206f776e657220697320746865207a65726f206160008201527f6464726573730000000000000000000000000000000000000000000000000000602082015250565b7f496e697469616c697a61626c653a20636f6e747261637420697320616c72656160008201527f647920696e697469616c697a6564000000000000000000000000000000000000602082015250565b7f4f776e61626c653a2063616c6c6572206973206e6f7420746865206f776e6572600082015250565b7f496e697469616c697a61626c653a20636f6e7472616374206973206e6f74206960008201527f6e697469616c697a696e67000000000000000000000000000000000000000000602082015250565b610f3581610daa565b8114610f4057600080fd5b5056fea2646970667358221220779b659f507cb6a5f78daa0fdd9bcfae59be1f60ac5f91976b73a9cc6a04a8bd64736f6c63430008070033",
  "linkReferences": {},
  "deployedLinkReferences": {}
}