{
  "_format": "hh-sol-artifact-1",
  "contractName": "Thirdparty",
  "sourceName": "contracts/rolesUtils[deprecated]/Thirdparty.sol",
  "abi": [
    {
      "inputs": [],
      "stateMutability": "nonpayable",
      "type": "constructor"
    },
    {
      "anonymous": false,
      "inputs": [
        {
          "indexed": true,
          "internalType": "address",
          "name": "_account",
          "type": "address"
        }
      ],
      "name": "ThirdpartyAdded",
      "type": "event"
    },
    {
      "anonymous": false,
      "inputs": [
        {
          "indexed": true,
          "internalType": "address",
          "name": "_account",
          "type": "address"
        }
      ],
      "name": "ThirdpartyRemoved",
      "type": "event"
    },
    {
      "inputs": [
        {
          "internalType": "address",
          "name": "_account",
          "type": "address"
        }
      ],
      "name": "addThirdparty",
      "outputs": [],
      "stateMutability": "nonpayable",
      "type": "function"
    },
    {
      "inputs": [
        {
          "internalType": "address",
          "name": "_account",
          "type": "address"
        }
      ],
      "name": "isThirdparty",
      "outputs": [
        {
          "internalType": "bool",
          "name": "",
          "type": "bool"
        }
      ],
      "stateMutability": "view",
      "type": "function"
    },
    {
      "inputs": [],
      "name": "removeThirdparty",
      "outputs": [],
      "stateMutability": "nonpayable",
      "type": "function"
    }
  ],
  "bytecode": "0x608060405234801561001057600080fd5b5061002933600061007160201b61017e1790919060201c565b3373ffffffffffffffffffffffffffffffffffffffff167f444c3d51dff46e2edf6e954c74fc74fe355222b88d4751e539ef67c56dbddbf460405160405180910390a26101b5565b600073ffffffffffffffffffffffffffffffffffffffff168173ffffffffffffffffffffffffffffffffffffffff1614156100ab57600080fd5b6100bb828261012360201b60201c565b156100c557600080fd5b60018260000160008373ffffffffffffffffffffffffffffffffffffffff1673ffffffffffffffffffffffffffffffffffffffff16815260200190815260200160002060006101000a81548160ff0219169083151502179055505050565b60008073ffffffffffffffffffffffffffffffffffffffff168273ffffffffffffffffffffffffffffffffffffffff16141561015e57600080fd5b8260000160008373ffffffffffffffffffffffffffffffffffffffff1673ffffffffffffffffffffffffffffffffffffffff16815260200190815260200160002060009054906101000a900460ff16905092915050565b610463806101c46000396000f3fe608060405234801561001057600080fd5b50600436106100415760003560e01c80636a04fd9614610046578063b74fd0b514610062578063e3d89b351461006c575b600080fd5b610060600480360381019061005b919061037c565b61009c565b005b61006a610108565b005b6100866004803603810190610081919061037c565b610161565b60405161009391906103b8565b60405180910390f35b6100a533610161565b6100ae57600080fd5b6100c281600061017e90919063ffffffff16565b8073ffffffffffffffffffffffffffffffffffffffff167f444c3d51dff46e2edf6e954c74fc74fe355222b88d4751e539ef67c56dbddbf460405160405180910390a250565b61011c33600061022a90919063ffffffff16565b3373ffffffffffffffffffffffffffffffffffffffff167f9929e570529cf158ba0cb5b9338fd1549d34af63395e0f88a40f3901652c18fc60405160405180910390a2565b60006101778260006102d590919063ffffffff16565b9050919050565b600073ffffffffffffffffffffffffffffffffffffffff168173ffffffffffffffffffffffffffffffffffffffff1614156101b857600080fd5b6101c282826102d5565b156101cc57600080fd5b60018260000160008373ffffffffffffffffffffffffffffffffffffffff1673ffffffffffffffffffffffffffffffffffffffff16815260200190815260200160002060006101000a81548160ff0219169083151502179055505050565b600073ffffffffffffffffffffffffffffffffffffffff168173ffffffffffffffffffffffffffffffffffffffff16141561026457600080fd5b61026e82826102d5565b61027757600080fd5b60008260000160008373ffffffffffffffffffffffffffffffffffffffff1673ffffffffffffffffffffffffffffffffffffffff16815260200190815260200160002060006101000a81548160ff0219169083151502179055505050565b60008073ffffffffffffffffffffffffffffffffffffffff168273ffffffffffffffffffffffffffffffffffffffff16141561031057600080fd5b8260000160008373ffffffffffffffffffffffffffffffffffffffff1673ffffffffffffffffffffffffffffffffffffffff16815260200190815260200160002060009054906101000a900460ff16905092915050565b60008135905061037681610416565b92915050565b60006020828403121561039257610391610411565b5b60006103a084828501610367565b91505092915050565b6103b2816103e5565b82525050565b60006020820190506103cd60008301846103a9565b92915050565b60006103de826103f1565b9050919050565b60008115159050919050565b600073ffffffffffffffffffffffffffffffffffffffff82169050919050565b600080fd5b61041f816103d3565b811461042a57600080fd5b5056fea264697066735822122029d456107ec77bbdbca5faf224d97f2a96779e8cfc64cf2af9edfc0902ba67b964736f6c63430008070033",
  "linkReferences": {},
  "deployedLinkReferences": {}
}