{
  "_format": "hh-sol-artifact-1",
  "contractName": "DeliveryHub",
  "sourceName": "contracts/rolesUtils[deprecated]/DeliveryHub.sol",
  "abi": [
    {
      "inputs": [],
      "stateMutability": "nonpayable",
      "type": "constructor"
    },
    {
      "anonymous": false,
      "inputs": [
        {
          "indexed": true,
          "internalType": "address",
          "name": "_account",
          "type": "address"
        }
      ],
      "name": "DeliveryHubAdded",
      "type": "event"
    },
    {
      "anonymous": false,
      "inputs": [
        {
          "indexed": true,
          "internalType": "address",
          "name": "_account",
          "type": "address"
        }
      ],
      "name": "DeliveryHubRemoved",
      "type": "event"
    },
    {
      "inputs": [
        {
          "internalType": "address",
          "name": "_account",
          "type": "address"
        }
      ],
      "name": "addDeliveryHub",
      "outputs": [],
      "stateMutability": "nonpayable",
      "type": "function"
    },
    {
      "inputs": [
        {
          "internalType": "address",
          "name": "_account",
          "type": "address"
        }
      ],
      "name": "isDeliveryHub",
      "outputs": [
        {
          "internalType": "bool",
          "name": "",
          "type": "bool"
        }
      ],
      "stateMutability": "view",
      "type": "function"
    },
    {
      "inputs": [],
      "name": "removeDeliveryHub",
      "outputs": [],
      "stateMutability": "nonpayable",
      "type": "function"
    }
  ],
  "bytecode": "0x608060405234801561001057600080fd5b5061002933600061007160201b61017e1790919060201c565b3373ffffffffffffffffffffffffffffffffffffffff167f7c7d3c0481283aac66b37eb8de2141707e4f9c9e106b19e5088ef166240c406660405160405180910390a26101b5565b600073ffffffffffffffffffffffffffffffffffffffff168173ffffffffffffffffffffffffffffffffffffffff1614156100ab57600080fd5b6100bb828261012360201b60201c565b156100c557600080fd5b60018260000160008373ffffffffffffffffffffffffffffffffffffffff1673ffffffffffffffffffffffffffffffffffffffff16815260200190815260200160002060006101000a81548160ff0219169083151502179055505050565b60008073ffffffffffffffffffffffffffffffffffffffff168273ffffffffffffffffffffffffffffffffffffffff16141561015e57600080fd5b8260000160008373ffffffffffffffffffffffffffffffffffffffff1673ffffffffffffffffffffffffffffffffffffffff16815260200190815260200160002060009054906101000a900460ff16905092915050565b610463806101c46000396000f3fe608060405234801561001057600080fd5b50600436106100415760003560e01c8063078bbf201461004657806310bf3071146100625780637bb7916a1461006c575b600080fd5b610060600480360381019061005b919061037c565b61009c565b005b61006a610108565b005b6100866004803603810190610081919061037c565b610161565b60405161009391906103b8565b60405180910390f35b6100a533610161565b6100ae57600080fd5b6100c281600061017e90919063ffffffff16565b8073ffffffffffffffffffffffffffffffffffffffff167f7c7d3c0481283aac66b37eb8de2141707e4f9c9e106b19e5088ef166240c406660405160405180910390a250565b61011c33600061022a90919063ffffffff16565b3373ffffffffffffffffffffffffffffffffffffffff167f4a05cf4e528c1f96beb8d7f59dbc17bfe48935baaef1fa0126b81e1ddaafec3060405160405180910390a2565b60006101778260006102d590919063ffffffff16565b9050919050565b600073ffffffffffffffffffffffffffffffffffffffff168173ffffffffffffffffffffffffffffffffffffffff1614156101b857600080fd5b6101c282826102d5565b156101cc57600080fd5b60018260000160008373ffffffffffffffffffffffffffffffffffffffff1673ffffffffffffffffffffffffffffffffffffffff16815260200190815260200160002060006101000a81548160ff0219169083151502179055505050565b600073ffffffffffffffffffffffffffffffffffffffff168173ffffffffffffffffffffffffffffffffffffffff16141561026457600080fd5b61026e82826102d5565b61027757600080fd5b60008260000160008373ffffffffffffffffffffffffffffffffffffffff1673ffffffffffffffffffffffffffffffffffffffff16815260200190815260200160002060006101000a81548160ff0219169083151502179055505050565b60008073ffffffffffffffffffffffffffffffffffffffff168273ffffffffffffffffffffffffffffffffffffffff16141561031057600080fd5b8260000160008373ffffffffffffffffffffffffffffffffffffffff1673ffffffffffffffffffffffffffffffffffffffff16815260200190815260200160002060009054906101000a900460ff16905092915050565b60008135905061037681610416565b92915050565b60006020828403121561039257610391610411565b5b60006103a084828501610367565b91505092915050565b6103b2816103e5565b82525050565b60006020820190506103cd60008301846103a9565b92915050565b60006103de826103f1565b9050919050565b60008115159050919050565b600073ffffffffffffffffffffffffffffffffffffffff82169050919050565b600080fd5b61041f816103d3565b811461042a57600080fd5b5056fea26469706673582212204ee21d5f5843ba898c207cc8f93613227321d4fce4567a3cfd2d3d7cb0176df264736f6c63430008070033",
  "linkReferences": {},
  "deployedLinkReferences": {}
}