{"contracts/SupplyChain.sol":{"SupplyChain":{"abi":[{"inputs":[{"internalType":"uint256","name":"gatekeeperNetwork","type":"uint256"}],"stateMutability":"nonpayable","type":"constructor"},{"inputs":[{"internalType":"address","name":"gatewayToken","type":"address"}],"name":"IsGated__InvalidGatewayToken","type":"error"},{"anonymous":false,"inputs":[{"indexed":false,"internalType":"string","name":"_soId","type":"string"}],"name":"GetSoID","type":"event"},{"anonymous":false,"inputs":[{"indexed":true,"internalType":"address","name":"previousOwner","type":"address"},{"indexed":true,"internalType":"address","name":"newOwner","type":"address"}],"name":"OwnershipTransferred","type":"event"},{"inputs":[{"internalType":"address","name":"_account","type":"address"},{"internalType":"string","name":"role","type":"string"}],"name":"addRole","outputs":[],"stateMutability":"nonpayable","type":"function"},{"inputs":[{"internalType":"string","name":"_prodName","type":"string"},{"internalType":"uint256","name":"_qty","type":"uint256"},{"internalType":"uint256","name":"_ordrVal","type":"uint256"},{"internalType":"string","name":"_status","type":"string"}],"name":"createOrder","outputs":[],"stateMutability":"nonpayable","type":"function"},{"inputs":[],"name":"getAllOrderDetails","outputs":[{"components":[{"internalType":"string","name":"SoID","type":"string"},{"internalType":"string","name":"PoID","type":"string"},{"internalType":"string","name":"prodName","type":"string"},{"internalType":"uint256","name":"qty","type":"uint256"},{"internalType":"uint256","name":"orderValue","type":"uint256"},{"internalType":"uint256","name":"customerFinalDeliveryDate","type":"uint256"},{"internalType":"string","name":"status","type":"string"},{"internalType":"string","name":"barCode","type":"string"},{"internalType":"string","name":"batchNo","type":"string"},{"internalType":"string","name":"masterLabel","type":"string"},{"internalType":"string","name":"invoicePath","type":"string"},{"internalType":"string","name":"trackingNo","type":"string"}],"internalType":"struct SupplyChain.Order[]","name":"","type":"tuple[]"}],"stateMutability":"view","type":"function"},{"inputs":[{"internalType":"string","name":"_soOrPo","type":"string"}],"name":"getOrderDetails","outputs":[{"components":[{"internalType":"string","name":"SoID","type":"string"},{"internalType":"string","name":"PoID","type":"string"},{"internalType":"string","name":"prodName","type":"string"},{"internalType":"uint256","name":"qty","type":"uint256"},{"internalType":"uint256","name":"orderValue","type":"uint256"},{"internalType":"uint256","name":"customerFinalDeliveryDate","type":"uint256"},{"internalType":"string","name":"status","type":"string"},{"internalType":"string","name":"barCode","type":"string"},{"internalType":"string","name":"batchNo","type":"string"},{"internalType":"string","name":"masterLabel","type":"string"},{"internalType":"string","name":"invoicePath","type":"string"},{"internalType":"string","name":"trackingNo","type":"string"}],"internalType":"struct SupplyChain.Order","name":"","type":"tuple"}],"stateMutability":"view","type":"function"},{"inputs":[],"name":"getRole","outputs":[{"internalType":"string","name":"","type":"string"}],"stateMutability":"view","type":"function"},{"inputs":[{"internalType":"string","name":"","type":"string"}],"name":"orderData","outputs":[{"internalType":"string","name":"SoID","type":"string"},{"internalType":"string","name":"PoID","type":"string"},{"internalType":"string","name":"prodName","type":"string"},{"internalType":"uint256","name":"qty","type":"uint256"},{"internalType":"uint256","name":"orderValue","type":"uint256"},{"internalType":"uint256","name":"customerFinalDeliveryDate","type":"uint256"},{"internalType":"string","name":"status","type":"string"},{"internalType":"string","name":"barCode","type":"string"},{"internalType":"string","name":"batchNo","type":"string"},{"internalType":"string","name":"masterLabel","type":"string"},{"internalType":"string","name":"invoicePath","type":"string"},{"internalType":"string","name":"trackingNo","type":"string"}],"stateMutability":"view","type":"function"},{"inputs":[{"internalType":"uint256","name":"","type":"uint256"}],"name":"orders","outputs":[{"internalType":"string","name":"SoID","type":"string"},{"internalType":"string","name":"PoID","type":"string"},{"internalType":"string","name":"prodName","type":"string"},{"internalType":"uint256","name":"qty","type":"uint256"},{"internalType":"uint256","name":"orderValue","type":"uint256"},{"internalType":"uint256","name":"customerFinalDeliveryDate","type":"uint256"},{"internalType":"string","name":"status","type":"string"},{"internalType":"string","name":"barCode","type":"string"},{"internalType":"string","name":"batchNo","type":"string"},{"internalType":"string","name":"masterLabel","type":"string"},{"internalType":"string","name":"invoicePath","type":"string"},{"internalType":"string","name":"trackingNo","type":"string"}],"stateMutability":"view","type":"function"},{"inputs":[],"name":"owner","outputs":[{"internalType":"address","name":"","type":"address"}],"stateMutability":"view","type":"function"},{"inputs":[],"name":"renounceOwnership","outputs":[],"stateMutability":"nonpayable","type":"function"},{"inputs":[{"internalType":"address","name":"","type":"address"}],"name":"roles","outputs":[{"internalType":"string","name":"","type":"string"}],"stateMutability":"view","type":"function"},{"inputs":[{"internalType":"string","name":"numString","type":"string"}],"name":"st2num","outputs":[{"internalType":"uint256","name":"","type":"uint256"}],"stateMutability":"pure","type":"function"},{"inputs":[{"internalType":"address","name":"newOwner","type":"address"}],"name":"transferOwnership","outputs":[],"stateMutability":"nonpayable","type":"function"},{"inputs":[{"internalType":"string","name":"_so","type":"string"},{"internalType":"string[]","name":"colName","type":"string[]"},{"internalType":"string[]","name":"_value","type":"string[]"}],"name":"update","outputs":[],"stateMutability":"nonpayable","type":"function"}],"evm":{"bytecode":{"linkReferences":{},"object":"60806040523480156200001157600080fd5b5060405162004f4d38038062004f4d8339818101604052810190620000379190620001dc565b73f65b6396df6b7e2d8a6270e3ab6c7bb08baef22e816200006d62000061620000d060201b60201c565b620000d860201b60201c565b81600160006101000a81548173ffffffffffffffffffffffffffffffffffffffff021916908373ffffffffffffffffffffffffffffffffffffffff160217905550806002819055505050614094600381905550614094600481905550506200020e565b600033905090565b60008060009054906101000a900473ffffffffffffffffffffffffffffffffffffffff169050816000806101000a81548173ffffffffffffffffffffffffffffffffffffffff021916908373ffffffffffffffffffffffffffffffffffffffff1602179055508173ffffffffffffffffffffffffffffffffffffffff168173ffffffffffffffffffffffffffffffffffffffff167f8be0079c531659141344cd1fd0a4f28419497f9722a3daafe3b4186f6b6457e060405160405180910390a35050565b600080fd5b6000819050919050565b620001b681620001a1565b8114620001c257600080fd5b50565b600081519050620001d681620001ab565b92915050565b600060208284031215620001f557620001f46200019c565b5b60006200020584828501620001c5565b91505092915050565b614d2f806200021e6000396000f3fe608060405234801561001057600080fd5b50600436106100cf5760003560e01c80638da5cb5b1161008c578063e393f26311610066578063e393f2631461021d578063f2fde38b14610258578063fb0a9a6d14610274578063fde0817414610290576100cf565b80638da5cb5b1461019457806399374642146101b2578063a85c38ef146101e2576100cf565b80634fbb487c146100d45780635a553855146101045780636bc184b414610120578063715018a61461013e57806379cd9055146101485780637d72aa6514610178575b600080fd5b6100ee60048036038101906100e991906137a4565b6102ae565b6040516100fb91906139ca565b60405180910390f35b61011e60048036038101906101199190613aa2565b610dfb565b005b6101286114f1565b6040516101359190613d54565b60405180910390f35b610146611c1d565b005b610162600480360381019061015d91906137a4565b611c31565b60405161016f9190613d85565b60405180910390f35b610192600480360381019061018d9190613dfe565b611ceb565b005b61019c611dbd565b6040516101a99190613e69565b60405180910390f35b6101cc60048036038101906101c79190613e84565b611de6565b6040516101d99190613efb565b60405180910390f35b6101fc60048036038101906101f79190613f49565b611e86565b6040516102149c9b9a99989796959493929190613f76565b60405180910390f35b610237600480360381019061023291906137a4565b6123be565b60405161024f9c9b9a99989796959493929190613f76565b60405180910390f35b610272600480360381019061026d9190613e84565b6128fc565b005b61028e6004803603810190610289919061406f565b612980565b005b610298612e3a565b6040516102a59190613efb565b60405180910390f35b6102b66134c0565b6040516020016102c590614165565b604051602081830303815290604052805190602001206102e483612f09565b6040516020016102f491906141ab565b6040516020818303038152906040528051906020012014156108815760058260405161032091906141ab565b90815260200160405180910390206040518061018001604052908160008201805461034a906141f1565b80601f0160208091040260200160405190810160405280929190818152602001828054610376906141f1565b80156103c35780601f10610398576101008083540402835291602001916103c3565b820191906000526020600020905b8154815290600101906020018083116103a657829003601f168201915b505050505081526020016001820180546103dc906141f1565b80601f0160208091040260200160405190810160405280929190818152602001828054610408906141f1565b80156104555780601f1061042a57610100808354040283529160200191610455565b820191906000526020600020905b81548152906001019060200180831161043857829003601f168201915b5050505050815260200160028201805461046e906141f1565b80601f016020809104026020016040519081016040528092919081815260200182805461049a906141f1565b80156104e75780601f106104bc576101008083540402835291602001916104e7565b820191906000526020600020905b8154815290600101906020018083116104ca57829003601f168201915b5050505050815260200160038201548152602001600482015481526020016005820154815260200160068201805461051e906141f1565b80601f016020809104026020016040519081016040528092919081815260200182805461054a906141f1565b80156105975780601f1061056c57610100808354040283529160200191610597565b820191906000526020600020905b81548152906001019060200180831161057a57829003601f168201915b505050505081526020016007820180546105b0906141f1565b80601f01602080910402602001604051908101604052809291908181526020018280546105dc906141f1565b80156106295780601f106105fe57610100808354040283529160200191610629565b820191906000526020600020905b81548152906001019060200180831161060c57829003601f168201915b50505050508152602001600882018054610642906141f1565b80601f016020809104026020016040519081016040528092919081815260200182805461066e906141f1565b80156106bb5780601f10610690576101008083540402835291602001916106bb565b820191906000526020600020905b81548152906001019060200180831161069e57829003601f168201915b505050505081526020016009820180546106d4906141f1565b80601f0160208091040260200160405190810160405280929190818152602001828054610700906141f1565b801561074d5780601f106107225761010080835404028352916020019161074d565b820191906000526020600020905b81548152906001019060200180831161073057829003601f168201915b50505050508152602001600a82018054610766906141f1565b80601f0160208091040260200160405190810160405280929190818152602001828054610792906141f1565b80156107df5780601f106107b4576101008083540402835291602001916107df565b820191906000526020600020905b8154815290600101906020018083116107c257829003601f168201915b50505050508152602001600b820180546107f8906141f1565b80601f0160208091040260200160405190810160405280929190818152602001828054610824906141f1565b80156108715780601f1061084657610100808354040283529160200191610871565b820191906000526020600020905b81548152906001019060200180831161085457829003601f168201915b5050505050815250509050610df6565b600561088c83612fc8565b60405161089991906141ab565b9081526020016040518091039020604051806101800160405290816000820180546108c3906141f1565b80601f01602080910402602001604051908101604052809291908181526020018280546108ef906141f1565b801561093c5780601f106109115761010080835404028352916020019161093c565b820191906000526020600020905b81548152906001019060200180831161091f57829003601f168201915b50505050508152602001600182018054610955906141f1565b80601f0160208091040260200160405190810160405280929190818152602001828054610981906141f1565b80156109ce5780601f106109a3576101008083540402835291602001916109ce565b820191906000526020600020905b8154815290600101906020018083116109b157829003601f168201915b505050505081526020016002820180546109e7906141f1565b80601f0160208091040260200160405190810160405280929190818152602001828054610a13906141f1565b8015610a605780601f10610a3557610100808354040283529160200191610a60565b820191906000526020600020905b815481529060010190602001808311610a4357829003601f168201915b50505050508152602001600382015481526020016004820154815260200160058201548152602001600682018054610a97906141f1565b80601f0160208091040260200160405190810160405280929190818152602001828054610ac3906141f1565b8015610b105780601f10610ae557610100808354040283529160200191610b10565b820191906000526020600020905b815481529060010190602001808311610af357829003601f168201915b50505050508152602001600782018054610b29906141f1565b80601f0160208091040260200160405190810160405280929190818152602001828054610b55906141f1565b8015610ba25780601f10610b7757610100808354040283529160200191610ba2565b820191906000526020600020905b815481529060010190602001808311610b8557829003601f168201915b50505050508152602001600882018054610bbb906141f1565b80601f0160208091040260200160405190810160405280929190818152602001828054610be7906141f1565b8015610c345780601f10610c0957610100808354040283529160200191610c34565b820191906000526020600020905b815481529060010190602001808311610c1757829003601f168201915b50505050508152602001600982018054610c4d906141f1565b80601f0160208091040260200160405190810160405280929190818152602001828054610c79906141f1565b8015610cc65780601f10610c9b57610100808354040283529160200191610cc6565b820191906000526020600020905b815481529060010190602001808311610ca957829003601f168201915b50505050508152602001600a82018054610cdf906141f1565b80601f0160208091040260200160405190810160405280929190818152602001828054610d0b906141f1565b8015610d585780601f10610d2d57610100808354040283529160200191610d58565b820191906000526020600020905b815481529060010190602001808311610d3b57829003601f168201915b50505050508152602001600b82018054610d71906141f1565b80601f0160208091040260200160405190810160405280929190818152602001828054610d9d906141f1565b8015610dea5780601f10610dbf57610100808354040283529160200191610dea565b820191906000526020600020905b815481529060010190602001808311610dcd57829003601f168201915b50505050508152505090505b919050565b604051602001610e0a90614249565b60405160208183030381529060405280519060200120600760003373ffffffffffffffffffffffffffffffffffffffff1673ffffffffffffffffffffffffffffffffffffffff168152602001908152602001600020604051602001610e6f91906142f2565b604051602081830303815290604052805190602001201415610ec6576040517f08c379a0000000000000000000000000000000000000000000000000000000008152600401610ebd90614355565b60405180910390fd5b60005b848490508110156114e857604051602001610ee3906143c1565b60405160208183030381529060405280519060200120858583818110610f0c57610f0b6143d6565b5b9050602002810190610f1e9190614414565b604051602001610f2f92919061449c565b604051602081830303815290604052805190602001201415610fa657828282818110610f5e57610f5d6143d6565b5b9050602002810190610f709190614414565b60058989604051610f8292919061449c565b90815260200160405180910390206006019190610fa0929190613521565b506114d5565b604051602001610fb590614501565b60405160208183030381529060405280519060200120858583818110610fde57610fdd6143d6565b5b9050602002810190610ff09190614414565b60405160200161100192919061449c565b6040516020818303038152906040528051906020012014156110b95761108d838383818110611033576110326143d6565b5b90506020028101906110459190614414565b8080601f016020809104026020016040519081016040528093929190818152602001838380828437600081840152601f19601f82011690508083019250505050505050611c31565b6005888860405161109f92919061449c565b9081526020016040518091039020600501819055506114d4565b6040516020016110c890614562565b604051602081830303815290604052805190602001208585838181106110f1576110f06143d6565b5b90506020028101906111039190614414565b60405160200161111492919061449c565b60405160208183030381529060405280519060200120141561118b57828282818110611143576111426143d6565b5b90506020028101906111559190614414565b6005898960405161116792919061449c565b90815260200160405180910390206007019190611185929190613521565b506114d3565b60405160200161119a906145c3565b604051602081830303815290604052805190602001208585838181106111c3576111c26143d6565b5b90506020028101906111d59190614414565b6040516020016111e692919061449c565b60405160208183030381529060405280519060200120141561125d57828282818110611215576112146143d6565b5b90506020028101906112279190614414565b6005898960405161123992919061449c565b90815260200160405180910390206008019190611257929190613521565b506114d2565b60405160200161126c90614624565b60405160208183030381529060405280519060200120858583818110611295576112946143d6565b5b90506020028101906112a79190614414565b6040516020016112b892919061449c565b60405160208183030381529060405280519060200120141561132f578282828181106112e7576112e66143d6565b5b90506020028101906112f99190614414565b6005898960405161130b92919061449c565b90815260200160405180910390206009019190611329929190613521565b506114d1565b60405160200161133e90614685565b60405160208183030381529060405280519060200120858583818110611367576113666143d6565b5b90506020028101906113799190614414565b60405160200161138a92919061449c565b604051602081830303815290604052805190602001201415611401578282828181106113b9576113b86143d6565b5b90506020028101906113cb9190614414565b600589896040516113dd92919061449c565b9081526020016040518091039020600a0191906113fb929190613521565b506114d0565b604051602001611410906146e6565b60405160208183030381529060405280519060200120858583818110611439576114386143d6565b5b905060200281019061144b9190614414565b60405160200161145c92919061449c565b6040516020818303038152906040528051906020012014156114cf5782828281811061148b5761148a6143d6565b5b905060200281019061149d9190614414565b600589896040516114af92919061449c565b9081526020016040518091039020600b0191906114cd929190613521565b505b5b5b5b5b5b5b80806114e09061472a565b915050610ec9565b50505050505050565b6060604051602001611502906147bf565b60405160208183030381529060405280519060200120600760003373ffffffffffffffffffffffffffffffffffffffff1673ffffffffffffffffffffffffffffffffffffffff16815260200190815260200160002060405160200161156791906142f2565b60405160208183030381529060405280519060200120146115bd576040517f08c379a00000000000000000000000000000000000000000000000000000000081526004016115b490614820565b60405180910390fd5b600060035490506000806004546003546115d79190614840565b67ffffffffffffffff8111156115f0576115ef613679565b5b60405190808252806020026020018201604052801561162957816020015b6116166134c0565b81526020019060019003908161160e5790505b509050600060045490505b83811015611c1357600060056116498361314b565b604051602001611659919061489a565b60405160208183030381529060405260405161167591906141ab565b9081526020016040518091039020905080604051806101800160405290816000820180546116a2906141f1565b80601f01602080910402602001604051908101604052809291908181526020018280546116ce906141f1565b801561171b5780601f106116f05761010080835404028352916020019161171b565b820191906000526020600020905b8154815290600101906020018083116116fe57829003601f168201915b50505050508152602001600182018054611734906141f1565b80601f0160208091040260200160405190810160405280929190818152602001828054611760906141f1565b80156117ad5780601f10611782576101008083540402835291602001916117ad565b820191906000526020600020905b81548152906001019060200180831161179057829003601f168201915b505050505081526020016002820180546117c6906141f1565b80601f01602080910402602001604051908101604052809291908181526020018280546117f2906141f1565b801561183f5780601f106118145761010080835404028352916020019161183f565b820191906000526020600020905b81548152906001019060200180831161182257829003601f168201915b50505050508152602001600382015481526020016004820154815260200160058201548152602001600682018054611876906141f1565b80601f01602080910402602001604051908101604052809291908181526020018280546118a2906141f1565b80156118ef5780601f106118c4576101008083540402835291602001916118ef565b820191906000526020600020905b8154815290600101906020018083116118d257829003601f168201915b50505050508152602001600782018054611908906141f1565b80601f0160208091040260200160405190810160405280929190818152602001828054611934906141f1565b80156119815780601f1061195657610100808354040283529160200191611981565b820191906000526020600020905b81548152906001019060200180831161196457829003601f168201915b5050505050815260200160088201805461199a906141f1565b80601f01602080910402602001604051908101604052809291908181526020018280546119c6906141f1565b8015611a135780601f106119e857610100808354040283529160200191611a13565b820191906000526020600020905b8154815290600101906020018083116119f657829003601f168201915b50505050508152602001600982018054611a2c906141f1565b80601f0160208091040260200160405190810160405280929190818152602001828054611a58906141f1565b8015611aa55780601f10611a7a57610100808354040283529160200191611aa5565b820191906000526020600020905b815481529060010190602001808311611a8857829003601f168201915b50505050508152602001600a82018054611abe906141f1565b80601f0160208091040260200160405190810160405280929190818152602001828054611aea906141f1565b8015611b375780601f10611b0c57610100808354040283529160200191611b37565b820191906000526020600020905b815481529060010190602001808311611b1a57829003601f168201915b50505050508152602001600b82018054611b50906141f1565b80601f0160208091040260200160405190810160405280929190818152602001828054611b7c906141f1565b8015611bc95780601f10611b9e57610100808354040283529160200191611bc9565b820191906000526020600020905b815481529060010190602001808311611bac57829003601f168201915b505050505081525050838581518110611be557611be46143d6565b5b6020026020010181905250600184611bfd91906148c0565b9350508080611c0b9061472a565b915050611634565b5080935050505090565b611c25613223565b611c2f60006132a1565b565b60008060009050600083905060005b8151811015611ce0576000818351611c589190614840565b90506000838381518110611c6f57611c6e6143d6565b5b602001015160f81c60f81b905060008160f81c9050600060308260ff16611c969190614840565b9050600184611ca59190614840565b600a611cb19190614a49565b81611cbc9190614a94565b87611cc791906148c0565b9650505050508080611cd89061472a565b915050611c40565b508192505050919050565b611cf3613223565b81600073ffffffffffffffffffffffffffffffffffffffff168173ffffffffffffffffffffffffffffffffffffffff161415611d64576040517f08c379a0000000000000000000000000000000000000000000000000000000008152600401611d5b90614b60565b60405180910390fd5b81600760008573ffffffffffffffffffffffffffffffffffffffff1673ffffffffffffffffffffffffffffffffffffffff1681526020019081526020016000209080519060200190611db79291906135a7565b50505050565b60008060009054906101000a900473ffffffffffffffffffffffffffffffffffffffff16905090565b60076020528060005260406000206000915090508054611e05906141f1565b80601f0160208091040260200160405190810160405280929190818152602001828054611e31906141f1565b8015611e7e5780601f10611e5357610100808354040283529160200191611e7e565b820191906000526020600020905b815481529060010190602001808311611e6157829003601f168201915b505050505081565b60068181548110611e9657600080fd5b90600052602060002090600c0201600091509050806000018054611eb9906141f1565b80601f0160208091040260200160405190810160405280929190818152602001828054611ee5906141f1565b8015611f325780601f10611f0757610100808354040283529160200191611f32565b820191906000526020600020905b815481529060010190602001808311611f1557829003601f168201915b505050505090806001018054611f47906141f1565b80601f0160208091040260200160405190810160405280929190818152602001828054611f73906141f1565b8015611fc05780601f10611f9557610100808354040283529160200191611fc0565b820191906000526020600020905b815481529060010190602001808311611fa357829003601f168201915b505050505090806002018054611fd5906141f1565b80601f0160208091040260200160405190810160405280929190818152602001828054612001906141f1565b801561204e5780601f106120235761010080835404028352916020019161204e565b820191906000526020600020905b81548152906001019060200180831161203157829003601f168201915b505050505090806003015490806004015490806005015490806006018054612075906141f1565b80601f01602080910402602001604051908101604052809291908181526020018280546120a1906141f1565b80156120ee5780601f106120c3576101008083540402835291602001916120ee565b820191906000526020600020905b8154815290600101906020018083116120d157829003601f168201915b505050505090806007018054612103906141f1565b80601f016020809104026020016040519081016040528092919081815260200182805461212f906141f1565b801561217c5780601f106121515761010080835404028352916020019161217c565b820191906000526020600020905b81548152906001019060200180831161215f57829003601f168201915b505050505090806008018054612191906141f1565b80601f01602080910402602001604051908101604052809291908181526020018280546121bd906141f1565b801561220a5780601f106121df5761010080835404028352916020019161220a565b820191906000526020600020905b8154815290600101906020018083116121ed57829003601f168201915b50505050509080600901805461221f906141f1565b80601f016020809104026020016040519081016040528092919081815260200182805461224b906141f1565b80156122985780601f1061226d57610100808354040283529160200191612298565b820191906000526020600020905b81548152906001019060200180831161227b57829003601f168201915b50505050509080600a0180546122ad906141f1565b80601f01602080910402602001604051908101604052809291908181526020018280546122d9906141f1565b80156123265780601f106122fb57610100808354040283529160200191612326565b820191906000526020600020905b81548152906001019060200180831161230957829003601f168201915b50505050509080600b01805461233b906141f1565b80601f0160208091040260200160405190810160405280929190818152602001828054612367906141f1565b80156123b45780601f10612389576101008083540402835291602001916123b4565b820191906000526020600020905b81548152906001019060200180831161239757829003601f168201915b505050505090508c565b6005818051602081018201805184825260208301602085012081835280955050505050506000915090508060000180546123f7906141f1565b80601f0160208091040260200160405190810160405280929190818152602001828054612423906141f1565b80156124705780601f1061244557610100808354040283529160200191612470565b820191906000526020600020905b81548152906001019060200180831161245357829003601f168201915b505050505090806001018054612485906141f1565b80601f01602080910402602001604051908101604052809291908181526020018280546124b1906141f1565b80156124fe5780601f106124d3576101008083540402835291602001916124fe565b820191906000526020600020905b8154815290600101906020018083116124e157829003601f168201915b505050505090806002018054612513906141f1565b80601f016020809104026020016040519081016040528092919081815260200182805461253f906141f1565b801561258c5780601f106125615761010080835404028352916020019161258c565b820191906000526020600020905b81548152906001019060200180831161256f57829003601f168201915b5050505050908060030154908060040154908060050154908060060180546125b3906141f1565b80601f01602080910402602001604051908101604052809291908181526020018280546125df906141f1565b801561262c5780601f106126015761010080835404028352916020019161262c565b820191906000526020600020905b81548152906001019060200180831161260f57829003601f168201915b505050505090806007018054612641906141f1565b80601f016020809104026020016040519081016040528092919081815260200182805461266d906141f1565b80156126ba5780601f1061268f576101008083540402835291602001916126ba565b820191906000526020600020905b81548152906001019060200180831161269d57829003601f168201915b5050505050908060080180546126cf906141f1565b80601f01602080910402602001604051908101604052809291908181526020018280546126fb906141f1565b80156127485780601f1061271d57610100808354040283529160200191612748565b820191906000526020600020905b81548152906001019060200180831161272b57829003601f168201915b50505050509080600901805461275d906141f1565b80601f0160208091040260200160405190810160405280929190818152602001828054612789906141f1565b80156127d65780601f106127ab576101008083540402835291602001916127d6565b820191906000526020600020905b8154815290600101906020018083116127b957829003601f168201915b50505050509080600a0180546127eb906141f1565b80601f0160208091040260200160405190810160405280929190818152602001828054612817906141f1565b80156128645780601f1061283957610100808354040283529160200191612864565b820191906000526020600020905b81548152906001019060200180831161284757829003601f168201915b50505050509080600b018054612879906141f1565b80601f01602080910402602001604051908101604052809291908181526020018280546128a5906141f1565b80156128f25780601f106128c7576101008083540402835291602001916128f2565b820191906000526020600020905b8154815290600101906020018083116128d557829003601f168201915b505050505090508c565b612904613223565b600073ffffffffffffffffffffffffffffffffffffffff168173ffffffffffffffffffffffffffffffffffffffff161415612974576040517f08c379a000000000000000000000000000000000000000000000000000000000815260040161296b90614bf2565b60405180910390fd5b61297d816132a1565b50565b60405160200161298f906147bf565b60405160208183030381529060405280519060200120600760003373ffffffffffffffffffffffffffffffffffffffff1673ffffffffffffffffffffffffffffffffffffffff1681526020019081526020016000206040516020016129f491906142f2565b6040516020818303038152906040528051906020012014612a4a576040517f08c379a0000000000000000000000000000000000000000000000000000000008152600401612a4190614820565b60405180910390fd5b6000612a5760035461314b565b604051602001612a67919061489a565b60405160208183030381529060405290506000604051806101800160405280838152602001612a9760035461314b565b604051602001612aa79190614c38565b60405160208183030381529060405281526020018781526020018681526020018581526020016000815260200184815260200160405180602001604052806000815250815260200160405180602001604052806000815250815260200160405180602001604052806000815250815260200160405180602001604052806000815250815260200160405180602001604052806000815250815250905060068190806001815401808255809150506001900390600052602060002090600c02016000909190919091506000820151816000019080519060200190612b8b9291906135a7565b506020820151816001019080519060200190612ba89291906135a7565b506040820151816002019080519060200190612bc59291906135a7565b50606082015181600301556080820151816004015560a0820151816005015560c0820151816006019080519060200190612c009291906135a7565b5060e0820151816007019080519060200190612c1d9291906135a7565b50610100820151816008019080519060200190612c3b9291906135a7565b50610120820151816009019080519060200190612c599291906135a7565b5061014082015181600a019080519060200190612c779291906135a7565b5061016082015181600b019080519060200190612c959291906135a7565b50505080600583604051612ca991906141ab565b90815260200160405180910390206000820151816000019080519060200190612cd39291906135a7565b506020820151816001019080519060200190612cf09291906135a7565b506040820151816002019080519060200190612d0d9291906135a7565b50606082015181600301556080820151816004015560a0820151816005015560c0820151816006019080519060200190612d489291906135a7565b5060e0820151816007019080519060200190612d659291906135a7565b50610100820151816008019080519060200190612d839291906135a7565b50610120820151816009019080519060200190612da19291906135a7565b5061014082015181600a019080519060200190612dbf9291906135a7565b5061016082015181600b019080519060200190612ddd9291906135a7565b50905050600160036000828254612df491906148c0565b925050819055507f1b21032942411443543e7923f2da271066ad99511aa6ffcda3bb43030b9157d482604051612e2a9190613efb565b60405180910390a1505050505050565b6060600760003373ffffffffffffffffffffffffffffffffffffffff1673ffffffffffffffffffffffffffffffffffffffff1681526020019081526020016000208054612e86906141f1565b80601f0160208091040260200160405190810160405280929190818152602001828054612eb2906141f1565b8015612eff5780601f10612ed457610100808354040283529160200191612eff565b820191906000526020600020905b815481529060010190602001808311612ee257829003601f168201915b5050505050905090565b60606000600167ffffffffffffffff811115612f2857612f27613679565b5b6040519080825280601f01601f191660200182016040528015612f5a5781602001600182028036833780820191505090505b50905082600081518110612f7157612f706143d6565b5b602001015160f81c60f81b81600081518110612f9057612f8f6143d6565b5b60200101907effffffffffffffffffffffffffffffffffffffffffffffffffffffffffffff1916908160001a90535080915050919050565b606060008290506000815167ffffffffffffffff811115612fec57612feb613679565b5b6040519080825280601f01601f19166020018201604052801561301e5781602001600182028036833780820191505090505b50905060005b8251811015613140578281815181106130405761303f6143d6565b5b602001015160f81c60f81b82828151811061305e5761305d6143d6565b5b60200101907effffffffffffffffffffffffffffffffffffffffffffffffffffffffffffff1916908160001a905350600081141561312d576040518060400160405280600181526020017f53000000000000000000000000000000000000000000000000000000000000008152506000815181106130df576130de6143d6565b5b602001015160f81c60f81b8282815181106130fd576130fc6143d6565b5b60200101907effffffffffffffffffffffffffffffffffffffffffffffffffffffffffffff1916908160001a9053505b80806131389061472a565b915050613024565b508092505050919050565b60606000600161315a84613365565b01905060008167ffffffffffffffff81111561317957613178613679565b5b6040519080825280601f01601f1916602001820160405280156131ab5781602001600182028036833780820191505090505b509050600082602001820190505b600115613218578080600190039150507f3031323334353637383961626364656600000000000000000000000000000000600a86061a8153600a858161320257613201614c5e565b5b049450600085141561321357613218565b6131b9565b819350505050919050565b61322b6134b8565b73ffffffffffffffffffffffffffffffffffffffff16613249611dbd565b73ffffffffffffffffffffffffffffffffffffffff161461329f576040517f08c379a000000000000000000000000000000000000000000000000000000000815260040161329690614cd9565b60405180910390fd5b565b60008060009054906101000a900473ffffffffffffffffffffffffffffffffffffffff169050816000806101000a81548173ffffffffffffffffffffffffffffffffffffffff021916908373ffffffffffffffffffffffffffffffffffffffff1602179055508173ffffffffffffffffffffffffffffffffffffffff168173ffffffffffffffffffffffffffffffffffffffff167f8be0079c531659141344cd1fd0a4f28419497f9722a3daafe3b4186f6b6457e060405160405180910390a35050565b600080600090507a184f03e93ff9f4daa797ed6e38ed64bf6a1f01000000000000000083106133c3577a184f03e93ff9f4daa797ed6e38ed64bf6a1f01000000000000000083816133b9576133b8614c5e565b5b0492506040810190505b6d04ee2d6d415b85acef81000000008310613400576d04ee2d6d415b85acef810000000083816133f6576133f5614c5e565b5b0492506020810190505b662386f26fc10000831061342f57662386f26fc10000838161342557613424614c5e565b5b0492506010810190505b6305f5e1008310613458576305f5e100838161344e5761344d614c5e565b5b0492506008810190505b612710831061347d57612710838161347357613472614c5e565b5b0492506004810190505b606483106134a0576064838161349657613495614c5e565b5b0492506002810190505b600a83106134af576001810190505b80915050919050565b600033905090565b6040518061018001604052806060815260200160608152602001606081526020016000815260200160008152602001600081526020016060815260200160608152602001606081526020016060815260200160608152602001606081525090565b82805461352d906141f1565b90600052602060002090601f01602090048101928261354f5760008555613596565b82601f1061356857803560ff1916838001178555613596565b82800160010185558215613596579182015b8281111561359557823582559160200191906001019061357a565b5b5090506135a3919061362d565b5090565b8280546135b3906141f1565b90600052602060002090601f0160209004810192826135d5576000855561361c565b82601f106135ee57805160ff191683800117855561361c565b8280016001018555821561361c579182015b8281111561361b578251825591602001919060010190613600565b5b509050613629919061362d565b5090565b5b8082111561364657600081600090555060010161362e565b5090565b6000604051905090565b600080fd5b600080fd5b600080fd5b600080fd5b6000601f19601f8301169050919050565b7f4e487b7100000000000000000000000000000000000000000000000000000000600052604160045260246000fd5b6136b182613668565b810181811067ffffffffffffffff821117156136d0576136cf613679565b5b80604052505050565b60006136e361364a565b90506136ef82826136a8565b919050565b600067ffffffffffffffff82111561370f5761370e613679565b5b61371882613668565b9050602081019050919050565b82818337600083830152505050565b6000613747613742846136f4565b6136d9565b90508281526020810184848401111561376357613762613663565b5b61376e848285613725565b509392505050565b600082601f83011261378b5761378a61365e565b5b813561379b848260208601613734565b91505092915050565b6000602082840312156137ba576137b9613654565b5b600082013567ffffffffffffffff8111156137d8576137d7613659565b5b6137e484828501613776565b91505092915050565b600081519050919050565b600082825260208201905092915050565b60005b8381101561382757808201518184015260208101905061380c565b83811115613836576000848401525b50505050565b6000613847826137ed565b61385181856137f8565b9350613861818560208601613809565b61386a81613668565b840191505092915050565b6000819050919050565b61388881613875565b82525050565b60006101808301600083015184820360008601526138ac828261383c565b915050602083015184820360208601526138c6828261383c565b915050604083015184820360408601526138e0828261383c565b91505060608301516138f5606086018261387f565b506080830151613908608086018261387f565b5060a083015161391b60a086018261387f565b5060c083015184820360c0860152613933828261383c565b91505060e083015184820360e086015261394d828261383c565b915050610100830151848203610100860152613969828261383c565b915050610120830151848203610120860152613985828261383c565b9150506101408301518482036101408601526139a1828261383c565b9150506101608301518482036101608601526139bd828261383c565b9150508091505092915050565b600060208201905081810360008301526139e4818461388e565b905092915050565b600080fd5b600080fd5b60008083601f840112613a0c57613a0b61365e565b5b8235905067ffffffffffffffff811115613a2957613a286139ec565b5b602083019150836001820283011115613a4557613a446139f1565b5b9250929050565b60008083601f840112613a6257613a6161365e565b5b8235905067ffffffffffffffff811115613a7f57613a7e6139ec565b5b602083019150836020820283011115613a9b57613a9a6139f1565b5b9250929050565b60008060008060008060608789031215613abf57613abe613654565b5b600087013567ffffffffffffffff811115613add57613adc613659565b5b613ae989828a016139f6565b9650965050602087013567ffffffffffffffff811115613b0c57613b0b613659565b5b613b1889828a01613a4c565b9450945050604087013567ffffffffffffffff811115613b3b57613b3a613659565b5b613b4789828a01613a4c565b92509250509295509295509295565b600081519050919050565b600082825260208201905092915050565b6000819050602082019050919050565b6000610180830160008301518482036000860152613ba0828261383c565b91505060208301518482036020860152613bba828261383c565b91505060408301518482036040860152613bd4828261383c565b9150506060830151613be9606086018261387f565b506080830151613bfc608086018261387f565b5060a0830151613c0f60a086018261387f565b5060c083015184820360c0860152613c27828261383c565b91505060e083015184820360e0860152613c41828261383c565b915050610100830151848203610100860152613c5d828261383c565b915050610120830151848203610120860152613c79828261383c565b915050610140830151848203610140860152613c95828261383c565b915050610160830151848203610160860152613cb1828261383c565b9150508091505092915050565b6000613cca8383613b82565b905092915050565b6000602082019050919050565b6000613cea82613b56565b613cf48185613b61565b935083602082028501613d0685613b72565b8060005b85811015613d425784840389528151613d238582613cbe565b9450613d2e83613cd2565b925060208a01995050600181019050613d0a565b50829750879550505050505092915050565b60006020820190508181036000830152613d6e8184613cdf565b905092915050565b613d7f81613875565b82525050565b6000602082019050613d9a6000830184613d76565b92915050565b600073ffffffffffffffffffffffffffffffffffffffff82169050919050565b6000613dcb82613da0565b9050919050565b613ddb81613dc0565b8114613de657600080fd5b50565b600081359050613df881613dd2565b92915050565b60008060408385031215613e1557613e14613654565b5b6000613e2385828601613de9565b925050602083013567ffffffffffffffff811115613e4457613e43613659565b5b613e5085828601613776565b9150509250929050565b613e6381613dc0565b82525050565b6000602082019050613e7e6000830184613e5a565b92915050565b600060208284031215613e9a57613e99613654565b5b6000613ea884828501613de9565b91505092915050565b600082825260208201905092915050565b6000613ecd826137ed565b613ed78185613eb1565b9350613ee7818560208601613809565b613ef081613668565b840191505092915050565b60006020820190508181036000830152613f158184613ec2565b905092915050565b613f2681613875565b8114613f3157600080fd5b50565b600081359050613f4381613f1d565b92915050565b600060208284031215613f5f57613f5e613654565b5b6000613f6d84828501613f34565b91505092915050565b6000610180820190508181036000830152613f91818f613ec2565b90508181036020830152613fa5818e613ec2565b90508181036040830152613fb9818d613ec2565b9050613fc8606083018c613d76565b613fd5608083018b613d76565b613fe260a083018a613d76565b81810360c0830152613ff48189613ec2565b905081810360e08301526140088188613ec2565b905081810361010083015261401d8187613ec2565b90508181036101208301526140328186613ec2565b90508181036101408301526140478185613ec2565b905081810361016083015261405c8184613ec2565b90509d9c50505050505050505050505050565b6000806000806080858703121561408957614088613654565b5b600085013567ffffffffffffffff8111156140a7576140a6613659565b5b6140b387828801613776565b94505060206140c487828801613f34565b93505060406140d587828801613f34565b925050606085013567ffffffffffffffff8111156140f6576140f5613659565b5b61410287828801613776565b91505092959194509250565b600081905092915050565b7f5300000000000000000000000000000000000000000000000000000000000000600082015250565b600061414f60018361410e565b915061415a82614119565b600182019050919050565b600061417082614142565b9150819050919050565b6000614185826137ed565b61418f818561410e565b935061419f818560208601613809565b80840191505092915050565b60006141b7828461417a565b915081905092915050565b7f4e487b7100000000000000000000000000000000000000000000000000000000600052602260045260246000fd5b6000600282049050600182168061420957607f821691505b6020821081141561421d5761421c6141c2565b5b50919050565b50565b600061423360008361410e565b915061423e82614223565b600082019050919050565b600061425482614226565b9150819050919050565b60008190508160005260206000209050919050565b60008154614280816141f1565b61428a818661410e565b945060018216600081146142a557600181146142b6576142e9565b60ff198316865281860193506142e9565b6142bf8561425e565b60005b838110156142e1578154818901526001820191506020810190506142c2565b838801955050505b50505092915050565b60006142fe8284614273565b915081905092915050565b7f596f7520617265206e6f742070617274206f66207465616d2079657420212100600082015250565b600061433f601f83613eb1565b915061434a82614309565b602082019050919050565b6000602082019050818103600083015261436e81614332565b9050919050565b7f5374617475730000000000000000000000000000000000000000000000000000600082015250565b60006143ab60068361410e565b91506143b682614375565b600682019050919050565b60006143cc8261439e565b9150819050919050565b7f4e487b7100000000000000000000000000000000000000000000000000000000600052603260045260246000fd5b600080fd5b600080fd5b600080fd5b6000808335600160200384360303811261443157614430614405565b5b80840192508235915067ffffffffffffffff8211156144535761445261440a565b5b60208301925060018202360383131561446f5761446e61440f565b5b509250929050565b6000614483838561410e565b9350614490838584613725565b82840190509392505050565b60006144a9828486614477565b91508190509392505050565b7f437573746f6d65722046696e616c2044656c6976657279204461746500000000600082015250565b60006144eb601c8361410e565b91506144f6826144b5565b601c82019050919050565b600061450c826144de565b9150819050919050565b7f426172436f646500000000000000000000000000000000000000000000000000600082015250565b600061454c60078361410e565b915061455782614516565b600782019050919050565b600061456d8261453f565b9150819050919050565b7f42617463684e6f00000000000000000000000000000000000000000000000000600082015250565b60006145ad60078361410e565b91506145b882614577565b600782019050919050565b60006145ce826145a0565b9150819050919050565b7f4d6173746572204c6162656c0000000000000000000000000000000000000000600082015250565b600061460e600c8361410e565b9150614619826145d8565b600c82019050919050565b600061462f82614601565b9150819050919050565b7f496e766f69636520506174680000000000000000000000000000000000000000600082015250565b600061466f600c8361410e565b915061467a82614639565b600c82019050919050565b600061469082614662565b9150819050919050565b7f547261636b696e67204e6f000000000000000000000000000000000000000000600082015250565b60006146d0600b8361410e565b91506146db8261469a565b600b82019050919050565b60006146f1826146c3565b9150819050919050565b7f4e487b7100000000000000000000000000000000000000000000000000000000600052601160045260246000fd5b600061473582613875565b91507fffffffffffffffffffffffffffffffffffffffffffffffffffffffffffffffff821415614768576147676146fb565b5b600182019050919050565b7f53616c657320526570726573656e746174697665000000000000000000000000600082015250565b60006147a960148361410e565b91506147b482614773565b601482019050919050565b60006147ca8261479c565b9150819050919050565b7f596f7520617265206e6f7420612053616c657320526570202121000000000000600082015250565b600061480a601a83613eb1565b9150614815826147d4565b602082019050919050565b60006020820190508181036000830152614839816147fd565b9050919050565b600061484b82613875565b915061485683613875565b925082821015614869576148686146fb565b5b828203905092915050565b7f534f000000000000000000000000000000000000000000000000000000000000815250565b60006148a582614874565b6002820191506148b5828461417a565b915081905092915050565b60006148cb82613875565b91506148d683613875565b9250827fffffffffffffffffffffffffffffffffffffffffffffffffffffffffffffffff0382111561490b5761490a6146fb565b5b828201905092915050565b60008160011c9050919050565b6000808291508390505b600185111561496d57808604811115614949576149486146fb565b5b60018516156149585780820291505b808102905061496685614916565b945061492d565b94509492505050565b6000826149865760019050614a42565b816149945760009050614a42565b81600181146149aa57600281146149b4576149e3565b6001915050614a42565b60ff8411156149c6576149c56146fb565b5b8360020a9150848211156149dd576149dc6146fb565b5b50614a42565b5060208310610133831016604e8410600b8410161715614a185782820a905083811115614a1357614a126146fb565b5b614a42565b614a258484846001614923565b92509050818404811115614a3c57614a3b6146fb565b5b81810290505b9392505050565b6000614a5482613875565b9150614a5f83613875565b9250614a8c7fffffffffffffffffffffffffffffffffffffffffffffffffffffffffffffffff8484614976565b905092915050565b6000614a9f82613875565b9150614aaa83613875565b9250817fffffffffffffffffffffffffffffffffffffffffffffffffffffffffffffffff0483118215151615614ae357614ae26146fb565b5b828202905092915050565b7f4e756c6c206163636f756e7420697320636f6d696e672066726f6d2066726f6e60008201527f742d656e64202121000000000000000000000000000000000000000000000000602082015250565b6000614b4a602883613eb1565b9150614b5582614aee565b604082019050919050565b60006020820190508181036000830152614b7981614b3d565b9050919050565b7f4f776e61626c653a206e6577206f776e657220697320746865207a65726f206160008201527f6464726573730000000000000000000000000000000000000000000000000000602082015250565b6000614bdc602683613eb1565b9150614be782614b80565b604082019050919050565b60006020820190508181036000830152614c0b81614bcf565b9050919050565b7f504f000000000000000000000000000000000000000000000000000000000000815250565b6000614c4382614c12565b600282019150614c53828461417a565b915081905092915050565b7f4e487b7100000000000000000000000000000000000000000000000000000000600052601260045260246000fd5b7f4f776e61626c653a2063616c6c6572206973206e6f7420746865206f776e6572600082015250565b6000614cc3602083613eb1565b9150614cce82614c8d565b602082019050919050565b60006020820190508181036000830152614cf281614cb6565b905091905056fea2646970667358221220834176be3e88ec3597085e0d099adfbc003c7fc9b7a2d36f04dc1012e444d12364736f6c634300080c0033","opcodes":"PUSH1 0x80 PUSH1 0x40 MSTORE CALLVALUE DUP1 ISZERO PUSH3 0x11 JUMPI PUSH1 0x0 DUP1 REVERT JUMPDEST POP PUSH1 0x40 MLOAD PUSH3 0x4F4D CODESIZE SUB DUP1 PUSH3 0x4F4D DUP4 CODECOPY DUP2 DUP2 ADD PUSH1 0x40 MSTORE DUP2 ADD SWAP1 PUSH3 0x37 SWAP2 SWAP1 PUSH3 0x1DC JUMP JUMPDEST PUSH20 0xF65B6396DF6B7E2D8A6270E3AB6C7BB08BAEF22E DUP2 PUSH3 0x6D PUSH3 0x61 PUSH3 0xD0 PUSH1 0x20 SHL PUSH1 0x20 SHR JUMP JUMPDEST PUSH3 0xD8 PUSH1 0x20 SHL PUSH1 0x20 SHR JUMP JUMPDEST DUP2 PUSH1 0x1 PUSH1 0x0 PUSH2 0x100 EXP DUP2 SLOAD DUP2 PUSH20 0xFFFFFFFFFFFFFFFFFFFFFFFFFFFFFFFFFFFFFFFF MUL NOT AND SWAP1 DUP4 PUSH20 0xFFFFFFFFFFFFFFFFFFFFFFFFFFFFFFFFFFFFFFFF AND MUL OR SWAP1 SSTORE POP DUP1 PUSH1 0x2 DUP2 SWAP1 SSTORE POP POP POP PUSH2 0x4094 PUSH1 0x3 DUP2 SWAP1 SSTORE POP PUSH2 0x4094 PUSH1 0x4 DUP2 SWAP1 SSTORE POP POP PUSH3 0x20E JUMP JUMPDEST PUSH1 0x0 CALLER SWAP1 POP SWAP1 JUMP JUMPDEST PUSH1 0x0 DUP1 PUSH1 0x0 SWAP1 SLOAD SWAP1 PUSH2 0x100 EXP SWAP1 DIV PUSH20 0xFFFFFFFFFFFFFFFFFFFFFFFFFFFFFFFFFFFFFFFF AND SWAP1 POP DUP2 PUSH1 0x0 DUP1 PUSH2 0x100 EXP DUP2 SLOAD DUP2 PUSH20 0xFFFFFFFFFFFFFFFFFFFFFFFFFFFFFFFFFFFFFFFF MUL NOT AND SWAP1 DUP4 PUSH20 0xFFFFFFFFFFFFFFFFFFFFFFFFFFFFFFFFFFFFFFFF AND MUL OR SWAP1 SSTORE POP DUP2 PUSH20 0xFFFFFFFFFFFFFFFFFFFFFFFFFFFFFFFFFFFFFFFF AND DUP2 PUSH20 0xFFFFFFFFFFFFFFFFFFFFFFFFFFFFFFFFFFFFFFFF AND PUSH32 0x8BE0079C531659141344CD1FD0A4F28419497F9722A3DAAFE3B4186F6B6457E0 PUSH1 0x40 MLOAD PUSH1 0x40 MLOAD DUP1 SWAP2 SUB SWAP1 LOG3 POP POP JUMP JUMPDEST PUSH1 0x0 DUP1 REVERT JUMPDEST PUSH1 0x0 DUP2 SWAP1 POP SWAP2 SWAP1 POP JUMP JUMPDEST PUSH3 0x1B6 DUP2 PUSH3 0x1A1 JUMP JUMPDEST DUP2 EQ PUSH3 0x1C2 JUMPI PUSH1 0x0 DUP1 REVERT JUMPDEST POP JUMP JUMPDEST PUSH1 0x0 DUP2 MLOAD SWAP1 POP PUSH3 0x1D6 DUP2 PUSH3 0x1AB JUMP JUMPDEST SWAP3 SWAP2 POP POP JUMP JUMPDEST PUSH1 0x0 PUSH1 0x20 DUP3 DUP5 SUB SLT ISZERO PUSH3 0x1F5 JUMPI PUSH3 0x1F4 PUSH3 0x19C JUMP JUMPDEST JUMPDEST PUSH1 0x0 PUSH3 0x205 DUP5 DUP3 DUP6 ADD PUSH3 0x1C5 JUMP JUMPDEST SWAP2 POP POP SWAP3 SWAP2 POP POP JUMP JUMPDEST PUSH2 0x4D2F DUP1 PUSH3 0x21E PUSH1 0x0 CODECOPY PUSH1 0x0 RETURN INVALID PUSH1 0x80 PUSH1 0x40 MSTORE CALLVALUE DUP1 ISZERO PUSH2 0x10 JUMPI PUSH1 0x0 DUP1 REVERT JUMPDEST POP PUSH1 0x4 CALLDATASIZE LT PUSH2 0xCF JUMPI PUSH1 0x0 CALLDATALOAD PUSH1 0xE0 SHR DUP1 PUSH4 0x8DA5CB5B GT PUSH2 0x8C JUMPI DUP1 PUSH4 0xE393F263 GT PUSH2 0x66 JUMPI DUP1 PUSH4 0xE393F263 EQ PUSH2 0x21D JUMPI DUP1 PUSH4 0xF2FDE38B EQ PUSH2 0x258 JUMPI DUP1 PUSH4 0xFB0A9A6D EQ PUSH2 0x274 JUMPI DUP1 PUSH4 0xFDE08174 EQ PUSH2 0x290 JUMPI PUSH2 0xCF JUMP JUMPDEST DUP1 PUSH4 0x8DA5CB5B EQ PUSH2 0x194 JUMPI DUP1 PUSH4 0x99374642 EQ PUSH2 0x1B2 JUMPI DUP1 PUSH4 0xA85C38EF EQ PUSH2 0x1E2 JUMPI PUSH2 0xCF JUMP JUMPDEST DUP1 PUSH4 0x4FBB487C EQ PUSH2 0xD4 JUMPI DUP1 PUSH4 0x5A553855 EQ PUSH2 0x104 JUMPI DUP1 PUSH4 0x6BC184B4 EQ PUSH2 0x120 JUMPI DUP1 PUSH4 0x715018A6 EQ PUSH2 0x13E JUMPI DUP1 PUSH4 0x79CD9055 EQ PUSH2 0x148 JUMPI DUP1 PUSH4 0x7D72AA65 EQ PUSH2 0x178 JUMPI JUMPDEST PUSH1 0x0 DUP1 REVERT JUMPDEST PUSH2 0xEE PUSH1 0x4 DUP1 CALLDATASIZE SUB DUP2 ADD SWAP1 PUSH2 0xE9 SWAP2 SWAP1 PUSH2 0x37A4 JUMP JUMPDEST PUSH2 0x2AE JUMP JUMPDEST PUSH1 0x40 MLOAD PUSH2 0xFB SWAP2 SWAP1 PUSH2 0x39CA JUMP JUMPDEST PUSH1 0x40 MLOAD DUP1 SWAP2 SUB SWAP1 RETURN JUMPDEST PUSH2 0x11E PUSH1 0x4 DUP1 CALLDATASIZE SUB DUP2 ADD SWAP1 PUSH2 0x119 SWAP2 SWAP1 PUSH2 0x3AA2 JUMP JUMPDEST PUSH2 0xDFB JUMP JUMPDEST STOP JUMPDEST PUSH2 0x128 PUSH2 0x14F1 JUMP JUMPDEST PUSH1 0x40 MLOAD PUSH2 0x135 SWAP2 SWAP1 PUSH2 0x3D54 JUMP JUMPDEST PUSH1 0x40 MLOAD DUP1 SWAP2 SUB SWAP1 RETURN JUMPDEST PUSH2 0x146 PUSH2 0x1C1D JUMP JUMPDEST STOP JUMPDEST PUSH2 0x162 PUSH1 0x4 DUP1 CALLDATASIZE SUB DUP2 ADD SWAP1 PUSH2 0x15D SWAP2 SWAP1 PUSH2 0x37A4 JUMP JUMPDEST PUSH2 0x1C31 JUMP JUMPDEST PUSH1 0x40 MLOAD PUSH2 0x16F SWAP2 SWAP1 PUSH2 0x3D85 JUMP JUMPDEST PUSH1 0x40 MLOAD DUP1 SWAP2 SUB SWAP1 RETURN JUMPDEST PUSH2 0x192 PUSH1 0x4 DUP1 CALLDATASIZE SUB DUP2 ADD SWAP1 PUSH2 0x18D SWAP2 SWAP1 PUSH2 0x3DFE JUMP JUMPDEST PUSH2 0x1CEB JUMP JUMPDEST STOP JUMPDEST PUSH2 0x19C PUSH2 0x1DBD JUMP JUMPDEST PUSH1 0x40 MLOAD PUSH2 0x1A9 SWAP2 SWAP1 PUSH2 0x3E69 JUMP JUMPDEST PUSH1 0x40 MLOAD DUP1 SWAP2 SUB SWAP1 RETURN JUMPDEST PUSH2 0x1CC PUSH1 0x4 DUP1 CALLDATASIZE SUB DUP2 ADD SWAP1 PUSH2 0x1C7 SWAP2 SWAP1 PUSH2 0x3E84 JUMP JUMPDEST PUSH2 0x1DE6 JUMP JUMPDEST PUSH1 0x40 MLOAD PUSH2 0x1D9 SWAP2 SWAP1 PUSH2 0x3EFB JUMP JUMPDEST PUSH1 0x40 MLOAD DUP1 SWAP2 SUB SWAP1 RETURN JUMPDEST PUSH2 0x1FC PUSH1 0x4 DUP1 CALLDATASIZE SUB DUP2 ADD SWAP1 PUSH2 0x1F7 SWAP2 SWAP1 PUSH2 0x3F49 JUMP JUMPDEST PUSH2 0x1E86 JUMP JUMPDEST PUSH1 0x40 MLOAD PUSH2 0x214 SWAP13 SWAP12 SWAP11 SWAP10 SWAP9 SWAP8 SWAP7 SWAP6 SWAP5 SWAP4 SWAP3 SWAP2 SWAP1 PUSH2 0x3F76 JUMP JUMPDEST PUSH1 0x40 MLOAD DUP1 SWAP2 SUB SWAP1 RETURN JUMPDEST PUSH2 0x237 PUSH1 0x4 DUP1 CALLDATASIZE SUB DUP2 ADD SWAP1 PUSH2 0x232 SWAP2 SWAP1 PUSH2 0x37A4 JUMP JUMPDEST PUSH2 0x23BE JUMP JUMPDEST PUSH1 0x40 MLOAD PUSH2 0x24F SWAP13 SWAP12 SWAP11 SWAP10 SWAP9 SWAP8 SWAP7 SWAP6 SWAP5 SWAP4 SWAP3 SWAP2 SWAP1 PUSH2 0x3F76 JUMP JUMPDEST PUSH1 0x40 MLOAD DUP1 SWAP2 SUB SWAP1 RETURN JUMPDEST PUSH2 0x272 PUSH1 0x4 DUP1 CALLDATASIZE SUB DUP2 ADD SWAP1 PUSH2 0x26D SWAP2 SWAP1 PUSH2 0x3E84 JUMP JUMPDEST PUSH2 0x28FC JUMP JUMPDEST STOP JUMPDEST PUSH2 0x28E PUSH1 0x4 DUP1 CALLDATASIZE SUB DUP2 ADD SWAP1 PUSH2 0x289 SWAP2 SWAP1 PUSH2 0x406F JUMP JUMPDEST PUSH2 0x2980 JUMP JUMPDEST STOP JUMPDEST PUSH2 0x298 PUSH2 0x2E3A JUMP JUMPDEST PUSH1 0x40 MLOAD PUSH2 0x2A5 SWAP2 SWAP1 PUSH2 0x3EFB JUMP JUMPDEST PUSH1 0x40 MLOAD DUP1 SWAP2 SUB SWAP1 RETURN JUMPDEST PUSH2 0x2B6 PUSH2 0x34C0 JUMP JUMPDEST PUSH1 0x40 MLOAD PUSH1 0x20 ADD PUSH2 0x2C5 SWAP1 PUSH2 0x4165 JUMP JUMPDEST PUSH1 0x40 MLOAD PUSH1 0x20 DUP2 DUP4 SUB SUB DUP2 MSTORE SWAP1 PUSH1 0x40 MSTORE DUP1 MLOAD SWAP1 PUSH1 0x20 ADD KECCAK256 PUSH2 0x2E4 DUP4 PUSH2 0x2F09 JUMP JUMPDEST PUSH1 0x40 MLOAD PUSH1 0x20 ADD PUSH2 0x2F4 SWAP2 SWAP1 PUSH2 0x41AB JUMP JUMPDEST PUSH1 0x40 MLOAD PUSH1 0x20 DUP2 DUP4 SUB SUB DUP2 MSTORE SWAP1 PUSH1 0x40 MSTORE DUP1 MLOAD SWAP1 PUSH1 0x20 ADD KECCAK256 EQ ISZERO PUSH2 0x881 JUMPI PUSH1 0x5 DUP3 PUSH1 0x40 MLOAD PUSH2 0x320 SWAP2 SWAP1 PUSH2 0x41AB JUMP JUMPDEST SWAP1 DUP2 MSTORE PUSH1 0x20 ADD PUSH1 0x40 MLOAD DUP1 SWAP2 SUB SWAP1 KECCAK256 PUSH1 0x40 MLOAD DUP1 PUSH2 0x180 ADD PUSH1 0x40 MSTORE SWAP1 DUP2 PUSH1 0x0 DUP3 ADD DUP1 SLOAD PUSH2 0x34A SWAP1 PUSH2 0x41F1 JUMP JUMPDEST DUP1 PUSH1 0x1F ADD PUSH1 0x20 DUP1 SWAP2 DIV MUL PUSH1 0x20 ADD PUSH1 0x40 MLOAD SWAP1 DUP2 ADD PUSH1 0x40 MSTORE DUP1 SWAP3 SWAP2 SWAP1 DUP2 DUP2 MSTORE PUSH1 0x20 ADD DUP3 DUP1 SLOAD PUSH2 0x376 SWAP1 PUSH2 0x41F1 JUMP JUMPDEST DUP1 ISZERO PUSH2 0x3C3 JUMPI DUP1 PUSH1 0x1F LT PUSH2 0x398 JUMPI PUSH2 0x100 DUP1 DUP4 SLOAD DIV MUL DUP4 MSTORE SWAP2 PUSH1 0x20 ADD SWAP2 PUSH2 0x3C3 JUMP JUMPDEST DUP3 ADD SWAP2 SWAP1 PUSH1 0x0 MSTORE PUSH1 0x20 PUSH1 0x0 KECCAK256 SWAP1 JUMPDEST DUP2 SLOAD DUP2 MSTORE SWAP1 PUSH1 0x1 ADD SWAP1 PUSH1 0x20 ADD DUP1 DUP4 GT PUSH2 0x3A6 JUMPI DUP3 SWAP1 SUB PUSH1 0x1F AND DUP3 ADD SWAP2 JUMPDEST POP POP POP POP POP DUP2 MSTORE PUSH1 0x20 ADD PUSH1 0x1 DUP3 ADD DUP1 SLOAD PUSH2 0x3DC SWAP1 PUSH2 0x41F1 JUMP JUMPDEST DUP1 PUSH1 0x1F ADD PUSH1 0x20 DUP1 SWAP2 DIV MUL PUSH1 0x20 ADD PUSH1 0x40 MLOAD SWAP1 DUP2 ADD PUSH1 0x40 MSTORE DUP1 SWAP3 SWAP2 SWAP1 DUP2 DUP2 MSTORE PUSH1 0x20 ADD DUP3 DUP1 SLOAD PUSH2 0x408 SWAP1 PUSH2 0x41F1 JUMP JUMPDEST DUP1 ISZERO PUSH2 0x455 JUMPI DUP1 PUSH1 0x1F LT PUSH2 0x42A JUMPI PUSH2 0x100 DUP1 DUP4 SLOAD DIV MUL DUP4 MSTORE SWAP2 PUSH1 0x20 ADD SWAP2 PUSH2 0x455 JUMP JUMPDEST DUP3 ADD SWAP2 SWAP1 PUSH1 0x0 MSTORE PUSH1 0x20 PUSH1 0x0 KECCAK256 SWAP1 JUMPDEST DUP2 SLOAD DUP2 MSTORE SWAP1 PUSH1 0x1 ADD SWAP1 PUSH1 0x20 ADD DUP1 DUP4 GT PUSH2 0x438 JUMPI DUP3 SWAP1 SUB PUSH1 0x1F AND DUP3 ADD SWAP2 JUMPDEST POP POP POP POP POP DUP2 MSTORE PUSH1 0x20 ADD PUSH1 0x2 DUP3 ADD DUP1 SLOAD PUSH2 0x46E SWAP1 PUSH2 0x41F1 JUMP JUMPDEST DUP1 PUSH1 0x1F ADD PUSH1 0x20 DUP1 SWAP2 DIV MUL PUSH1 0x20 ADD PUSH1 0x40 MLOAD SWAP1 DUP2 ADD PUSH1 0x40 MSTORE DUP1 SWAP3 SWAP2 SWAP1 DUP2 DUP2 MSTORE PUSH1 0x20 ADD DUP3 DUP1 SLOAD PUSH2 0x49A SWAP1 PUSH2 0x41F1 JUMP JUMPDEST DUP1 ISZERO PUSH2 0x4E7 JUMPI DUP1 PUSH1 0x1F LT PUSH2 0x4BC JUMPI PUSH2 0x100 DUP1 DUP4 SLOAD DIV MUL DUP4 MSTORE SWAP2 PUSH1 0x20 ADD SWAP2 PUSH2 0x4E7 JUMP JUMPDEST DUP3 ADD SWAP2 SWAP1 PUSH1 0x0 MSTORE PUSH1 0x20 PUSH1 0x0 KECCAK256 SWAP1 JUMPDEST DUP2 SLOAD DUP2 MSTORE SWAP1 PUSH1 0x1 ADD SWAP1 PUSH1 0x20 ADD DUP1 DUP4 GT PUSH2 0x4CA JUMPI DUP3 SWAP1 SUB PUSH1 0x1F AND DUP3 ADD SWAP2 JUMPDEST POP POP POP POP POP DUP2 MSTORE PUSH1 0x20 ADD PUSH1 0x3 DUP3 ADD SLOAD DUP2 MSTORE PUSH1 0x20 ADD PUSH1 0x4 DUP3 ADD SLOAD DUP2 MSTORE PUSH1 0x20 ADD PUSH1 0x5 DUP3 ADD SLOAD DUP2 MSTORE PUSH1 0x20 ADD PUSH1 0x6 DUP3 ADD DUP1 SLOAD PUSH2 0x51E SWAP1 PUSH2 0x41F1 JUMP JUMPDEST DUP1 PUSH1 0x1F ADD PUSH1 0x20 DUP1 SWAP2 DIV MUL PUSH1 0x20 ADD PUSH1 0x40 MLOAD SWAP1 DUP2 ADD PUSH1 0x40 MSTORE DUP1 SWAP3 SWAP2 SWAP1 DUP2 DUP2 MSTORE PUSH1 0x20 ADD DUP3 DUP1 SLOAD PUSH2 0x54A SWAP1 PUSH2 0x41F1 JUMP JUMPDEST DUP1 ISZERO PUSH2 0x597 JUMPI DUP1 PUSH1 0x1F LT PUSH2 0x56C JUMPI PUSH2 0x100 DUP1 DUP4 SLOAD DIV MUL DUP4 MSTORE SWAP2 PUSH1 0x20 ADD SWAP2 PUSH2 0x597 JUMP JUMPDEST DUP3 ADD SWAP2 SWAP1 PUSH1 0x0 MSTORE PUSH1 0x20 PUSH1 0x0 KECCAK256 SWAP1 JUMPDEST DUP2 SLOAD DUP2 MSTORE SWAP1 PUSH1 0x1 ADD SWAP1 PUSH1 0x20 ADD DUP1 DUP4 GT PUSH2 0x57A JUMPI DUP3 SWAP1 SUB PUSH1 0x1F AND DUP3 ADD SWAP2 JUMPDEST POP POP POP POP POP DUP2 MSTORE PUSH1 0x20 ADD PUSH1 0x7 DUP3 ADD DUP1 SLOAD PUSH2 0x5B0 SWAP1 PUSH2 0x41F1 JUMP JUMPDEST DUP1 PUSH1 0x1F ADD PUSH1 0x20 DUP1 SWAP2 DIV MUL PUSH1 0x20 ADD PUSH1 0x40 MLOAD SWAP1 DUP2 ADD PUSH1 0x40 MSTORE DUP1 SWAP3 SWAP2 SWAP1 DUP2 DUP2 MSTORE PUSH1 0x20 ADD DUP3 DUP1 SLOAD PUSH2 0x5DC SWAP1 PUSH2 0x41F1 JUMP JUMPDEST DUP1 ISZERO PUSH2 0x629 JUMPI DUP1 PUSH1 0x1F LT PUSH2 0x5FE JUMPI PUSH2 0x100 DUP1 DUP4 SLOAD DIV MUL DUP4 MSTORE SWAP2 PUSH1 0x20 ADD SWAP2 PUSH2 0x629 JUMP JUMPDEST DUP3 ADD SWAP2 SWAP1 PUSH1 0x0 MSTORE PUSH1 0x20 PUSH1 0x0 KECCAK256 SWAP1 JUMPDEST DUP2 SLOAD DUP2 MSTORE SWAP1 PUSH1 0x1 ADD SWAP1 PUSH1 0x20 ADD DUP1 DUP4 GT PUSH2 0x60C JUMPI DUP3 SWAP1 SUB PUSH1 0x1F AND DUP3 ADD SWAP2 JUMPDEST POP POP POP POP POP DUP2 MSTORE PUSH1 0x20 ADD PUSH1 0x8 DUP3 ADD DUP1 SLOAD PUSH2 0x642 SWAP1 PUSH2 0x41F1 JUMP JUMPDEST DUP1 PUSH1 0x1F ADD PUSH1 0x20 DUP1 SWAP2 DIV MUL PUSH1 0x20 ADD PUSH1 0x40 MLOAD SWAP1 DUP2 ADD PUSH1 0x40 MSTORE DUP1 SWAP3 SWAP2 SWAP1 DUP2 DUP2 MSTORE PUSH1 0x20 ADD DUP3 DUP1 SLOAD PUSH2 0x66E SWAP1 PUSH2 0x41F1 JUMP JUMPDEST DUP1 ISZERO PUSH2 0x6BB JUMPI DUP1 PUSH1 0x1F LT PUSH2 0x690 JUMPI PUSH2 0x100 DUP1 DUP4 SLOAD DIV MUL DUP4 MSTORE SWAP2 PUSH1 0x20 ADD SWAP2 PUSH2 0x6BB JUMP JUMPDEST DUP3 ADD SWAP2 SWAP1 PUSH1 0x0 MSTORE PUSH1 0x20 PUSH1 0x0 KECCAK256 SWAP1 JUMPDEST DUP2 SLOAD DUP2 MSTORE SWAP1 PUSH1 0x1 ADD SWAP1 PUSH1 0x20 ADD DUP1 DUP4 GT PUSH2 0x69E JUMPI DUP3 SWAP1 SUB PUSH1 0x1F AND DUP3 ADD SWAP2 JUMPDEST POP POP POP POP POP DUP2 MSTORE PUSH1 0x20 ADD PUSH1 0x9 DUP3 ADD DUP1 SLOAD PUSH2 0x6D4 SWAP1 PUSH2 0x41F1 JUMP JUMPDEST DUP1 PUSH1 0x1F ADD PUSH1 0x20 DUP1 SWAP2 DIV MUL PUSH1 0x20 ADD PUSH1 0x40 MLOAD SWAP1 DUP2 ADD PUSH1 0x40 MSTORE DUP1 SWAP3 SWAP2 SWAP1 DUP2 DUP2 MSTORE PUSH1 0x20 ADD DUP3 DUP1 SLOAD PUSH2 0x700 SWAP1 PUSH2 0x41F1 JUMP JUMPDEST DUP1 ISZERO PUSH2 0x74D JUMPI DUP1 PUSH1 0x1F LT PUSH2 0x722 JUMPI PUSH2 0x100 DUP1 DUP4 SLOAD DIV MUL DUP4 MSTORE SWAP2 PUSH1 0x20 ADD SWAP2 PUSH2 0x74D JUMP JUMPDEST DUP3 ADD SWAP2 SWAP1 PUSH1 0x0 MSTORE PUSH1 0x20 PUSH1 0x0 KECCAK256 SWAP1 JUMPDEST DUP2 SLOAD DUP2 MSTORE SWAP1 PUSH1 0x1 ADD SWAP1 PUSH1 0x20 ADD DUP1 DUP4 GT PUSH2 0x730 JUMPI DUP3 SWAP1 SUB PUSH1 0x1F AND DUP3 ADD SWAP2 JUMPDEST POP POP POP POP POP DUP2 MSTORE PUSH1 0x20 ADD PUSH1 0xA DUP3 ADD DUP1 SLOAD PUSH2 0x766 SWAP1 PUSH2 0x41F1 JUMP JUMPDEST DUP1 PUSH1 0x1F ADD PUSH1 0x20 DUP1 SWAP2 DIV MUL PUSH1 0x20 ADD PUSH1 0x40 MLOAD SWAP1 DUP2 ADD PUSH1 0x40 MSTORE DUP1 SWAP3 SWAP2 SWAP1 DUP2 DUP2 MSTORE PUSH1 0x20 ADD DUP3 DUP1 SLOAD PUSH2 0x792 SWAP1 PUSH2 0x41F1 JUMP JUMPDEST DUP1 ISZERO PUSH2 0x7DF JUMPI DUP1 PUSH1 0x1F LT PUSH2 0x7B4 JUMPI PUSH2 0x100 DUP1 DUP4 SLOAD DIV MUL DUP4 MSTORE SWAP2 PUSH1 0x20 ADD SWAP2 PUSH2 0x7DF JUMP JUMPDEST DUP3 ADD SWAP2 SWAP1 PUSH1 0x0 MSTORE PUSH1 0x20 PUSH1 0x0 KECCAK256 SWAP1 JUMPDEST DUP2 SLOAD DUP2 MSTORE SWAP1 PUSH1 0x1 ADD SWAP1 PUSH1 0x20 ADD DUP1 DUP4 GT PUSH2 0x7C2 JUMPI DUP3 SWAP1 SUB PUSH1 0x1F AND DUP3 ADD SWAP2 JUMPDEST POP POP POP POP POP DUP2 MSTORE PUSH1 0x20 ADD PUSH1 0xB DUP3 ADD DUP1 SLOAD PUSH2 0x7F8 SWAP1 PUSH2 0x41F1 JUMP JUMPDEST DUP1 PUSH1 0x1F ADD PUSH1 0x20 DUP1 SWAP2 DIV MUL PUSH1 0x20 ADD PUSH1 0x40 MLOAD SWAP1 DUP2 ADD PUSH1 0x40 MSTORE DUP1 SWAP3 SWAP2 SWAP1 DUP2 DUP2 MSTORE PUSH1 0x20 ADD DUP3 DUP1 SLOAD PUSH2 0x824 SWAP1 PUSH2 0x41F1 JUMP JUMPDEST DUP1 ISZERO PUSH2 0x871 JUMPI DUP1 PUSH1 0x1F LT PUSH2 0x846 JUMPI PUSH2 0x100 DUP1 DUP4 SLOAD DIV MUL DUP4 MSTORE SWAP2 PUSH1 0x20 ADD SWAP2 PUSH2 0x871 JUMP JUMPDEST DUP3 ADD SWAP2 SWAP1 PUSH1 0x0 MSTORE PUSH1 0x20 PUSH1 0x0 KECCAK256 SWAP1 JUMPDEST DUP2 SLOAD DUP2 MSTORE SWAP1 PUSH1 0x1 ADD SWAP1 PUSH1 0x20 ADD DUP1 DUP4 GT PUSH2 0x854 JUMPI DUP3 SWAP1 SUB PUSH1 0x1F AND DUP3 ADD SWAP2 JUMPDEST POP POP POP POP POP DUP2 MSTORE POP POP SWAP1 POP PUSH2 0xDF6 JUMP JUMPDEST PUSH1 0x5 PUSH2 0x88C DUP4 PUSH2 0x2FC8 JUMP JUMPDEST PUSH1 0x40 MLOAD PUSH2 0x899 SWAP2 SWAP1 PUSH2 0x41AB JUMP JUMPDEST SWAP1 DUP2 MSTORE PUSH1 0x20 ADD PUSH1 0x40 MLOAD DUP1 SWAP2 SUB SWAP1 KECCAK256 PUSH1 0x40 MLOAD DUP1 PUSH2 0x180 ADD PUSH1 0x40 MSTORE SWAP1 DUP2 PUSH1 0x0 DUP3 ADD DUP1 SLOAD PUSH2 0x8C3 SWAP1 PUSH2 0x41F1 JUMP JUMPDEST DUP1 PUSH1 0x1F ADD PUSH1 0x20 DUP1 SWAP2 DIV MUL PUSH1 0x20 ADD PUSH1 0x40 MLOAD SWAP1 DUP2 ADD PUSH1 0x40 MSTORE DUP1 SWAP3 SWAP2 SWAP1 DUP2 DUP2 MSTORE PUSH1 0x20 ADD DUP3 DUP1 SLOAD PUSH2 0x8EF SWAP1 PUSH2 0x41F1 JUMP JUMPDEST DUP1 ISZERO PUSH2 0x93C JUMPI DUP1 PUSH1 0x1F LT PUSH2 0x911 JUMPI PUSH2 0x100 DUP1 DUP4 SLOAD DIV MUL DUP4 MSTORE SWAP2 PUSH1 0x20 ADD SWAP2 PUSH2 0x93C JUMP JUMPDEST DUP3 ADD SWAP2 SWAP1 PUSH1 0x0 MSTORE PUSH1 0x20 PUSH1 0x0 KECCAK256 SWAP1 JUMPDEST DUP2 SLOAD DUP2 MSTORE SWAP1 PUSH1 0x1 ADD SWAP1 PUSH1 0x20 ADD DUP1 DUP4 GT PUSH2 0x91F JUMPI DUP3 SWAP1 SUB PUSH1 0x1F AND DUP3 ADD SWAP2 JUMPDEST POP POP POP POP POP DUP2 MSTORE PUSH1 0x20 ADD PUSH1 0x1 DUP3 ADD DUP1 SLOAD PUSH2 0x955 SWAP1 PUSH2 0x41F1 JUMP JUMPDEST DUP1 PUSH1 0x1F ADD PUSH1 0x20 DUP1 SWAP2 DIV MUL PUSH1 0x20 ADD PUSH1 0x40 MLOAD SWAP1 DUP2 ADD PUSH1 0x40 MSTORE DUP1 SWAP3 SWAP2 SWAP1 DUP2 DUP2 MSTORE PUSH1 0x20 ADD DUP3 DUP1 SLOAD PUSH2 0x981 SWAP1 PUSH2 0x41F1 JUMP JUMPDEST DUP1 ISZERO PUSH2 0x9CE JUMPI DUP1 PUSH1 0x1F LT PUSH2 0x9A3 JUMPI PUSH2 0x100 DUP1 DUP4 SLOAD DIV MUL DUP4 MSTORE SWAP2 PUSH1 0x20 ADD SWAP2 PUSH2 0x9CE JUMP JUMPDEST DUP3 ADD SWAP2 SWAP1 PUSH1 0x0 MSTORE PUSH1 0x20 PUSH1 0x0 KECCAK256 SWAP1 JUMPDEST DUP2 SLOAD DUP2 MSTORE SWAP1 PUSH1 0x1 ADD SWAP1 PUSH1 0x20 ADD DUP1 DUP4 GT PUSH2 0x9B1 JUMPI DUP3 SWAP1 SUB PUSH1 0x1F AND DUP3 ADD SWAP2 JUMPDEST POP POP POP POP POP DUP2 MSTORE PUSH1 0x20 ADD PUSH1 0x2 DUP3 ADD DUP1 SLOAD PUSH2 0x9E7 SWAP1 PUSH2 0x41F1 JUMP JUMPDEST DUP1 PUSH1 0x1F ADD PUSH1 0x20 DUP1 SWAP2 DIV MUL PUSH1 0x20 ADD PUSH1 0x40 MLOAD SWAP1 DUP2 ADD PUSH1 0x40 MSTORE DUP1 SWAP3 SWAP2 SWAP1 DUP2 DUP2 MSTORE PUSH1 0x20 ADD DUP3 DUP1 SLOAD PUSH2 0xA13 SWAP1 PUSH2 0x41F1 JUMP JUMPDEST DUP1 ISZERO PUSH2 0xA60 JUMPI DUP1 PUSH1 0x1F LT PUSH2 0xA35 JUMPI PUSH2 0x100 DUP1 DUP4 SLOAD DIV MUL DUP4 MSTORE SWAP2 PUSH1 0x20 ADD SWAP2 PUSH2 0xA60 JUMP JUMPDEST DUP3 ADD SWAP2 SWAP1 PUSH1 0x0 MSTORE PUSH1 0x20 PUSH1 0x0 KECCAK256 SWAP1 JUMPDEST DUP2 SLOAD DUP2 MSTORE SWAP1 PUSH1 0x1 ADD SWAP1 PUSH1 0x20 ADD DUP1 DUP4 GT PUSH2 0xA43 JUMPI DUP3 SWAP1 SUB PUSH1 0x1F AND DUP3 ADD SWAP2 JUMPDEST POP POP POP POP POP DUP2 MSTORE PUSH1 0x20 ADD PUSH1 0x3 DUP3 ADD SLOAD DUP2 MSTORE PUSH1 0x20 ADD PUSH1 0x4 DUP3 ADD SLOAD DUP2 MSTORE PUSH1 0x20 ADD PUSH1 0x5 DUP3 ADD SLOAD DUP2 MSTORE PUSH1 0x20 ADD PUSH1 0x6 DUP3 ADD DUP1 SLOAD PUSH2 0xA97 SWAP1 PUSH2 0x41F1 JUMP JUMPDEST DUP1 PUSH1 0x1F ADD PUSH1 0x20 DUP1 SWAP2 DIV MUL PUSH1 0x20 ADD PUSH1 0x40 MLOAD SWAP1 DUP2 ADD PUSH1 0x40 MSTORE DUP1 SWAP3 SWAP2 SWAP1 DUP2 DUP2 MSTORE PUSH1 0x20 ADD DUP3 DUP1 SLOAD PUSH2 0xAC3 SWAP1 PUSH2 0x41F1 JUMP JUMPDEST DUP1 ISZERO PUSH2 0xB10 JUMPI DUP1 PUSH1 0x1F LT PUSH2 0xAE5 JUMPI PUSH2 0x100 DUP1 DUP4 SLOAD DIV MUL DUP4 MSTORE SWAP2 PUSH1 0x20 ADD SWAP2 PUSH2 0xB10 JUMP JUMPDEST DUP3 ADD SWAP2 SWAP1 PUSH1 0x0 MSTORE PUSH1 0x20 PUSH1 0x0 KECCAK256 SWAP1 JUMPDEST DUP2 SLOAD DUP2 MSTORE SWAP1 PUSH1 0x1 ADD SWAP1 PUSH1 0x20 ADD DUP1 DUP4 GT PUSH2 0xAF3 JUMPI DUP3 SWAP1 SUB PUSH1 0x1F AND DUP3 ADD SWAP2 JUMPDEST POP POP POP POP POP DUP2 MSTORE PUSH1 0x20 ADD PUSH1 0x7 DUP3 ADD DUP1 SLOAD PUSH2 0xB29 SWAP1 PUSH2 0x41F1 JUMP JUMPDEST DUP1 PUSH1 0x1F ADD PUSH1 0x20 DUP1 SWAP2 DIV MUL PUSH1 0x20 ADD PUSH1 0x40 MLOAD SWAP1 DUP2 ADD PUSH1 0x40 MSTORE DUP1 SWAP3 SWAP2 SWAP1 DUP2 DUP2 MSTORE PUSH1 0x20 ADD DUP3 DUP1 SLOAD PUSH2 0xB55 SWAP1 PUSH2 0x41F1 JUMP JUMPDEST DUP1 ISZERO PUSH2 0xBA2 JUMPI DUP1 PUSH1 0x1F LT PUSH2 0xB77 JUMPI PUSH2 0x100 DUP1 DUP4 SLOAD DIV MUL DUP4 MSTORE SWAP2 PUSH1 0x20 ADD SWAP2 PUSH2 0xBA2 JUMP JUMPDEST DUP3 ADD SWAP2 SWAP1 PUSH1 0x0 MSTORE PUSH1 0x20 PUSH1 0x0 KECCAK256 SWAP1 JUMPDEST DUP2 SLOAD DUP2 MSTORE SWAP1 PUSH1 0x1 ADD SWAP1 PUSH1 0x20 ADD DUP1 DUP4 GT PUSH2 0xB85 JUMPI DUP3 SWAP1 SUB PUSH1 0x1F AND DUP3 ADD SWAP2 JUMPDEST POP POP POP POP POP DUP2 MSTORE PUSH1 0x20 ADD PUSH1 0x8 DUP3 ADD DUP1 SLOAD PUSH2 0xBBB SWAP1 PUSH2 0x41F1 JUMP JUMPDEST DUP1 PUSH1 0x1F ADD PUSH1 0x20 DUP1 SWAP2 DIV MUL PUSH1 0x20 ADD PUSH1 0x40 MLOAD SWAP1 DUP2 ADD PUSH1 0x40 MSTORE DUP1 SWAP3 SWAP2 SWAP1 DUP2 DUP2 MSTORE PUSH1 0x20 ADD DUP3 DUP1 SLOAD PUSH2 0xBE7 SWAP1 PUSH2 0x41F1 JUMP JUMPDEST DUP1 ISZERO PUSH2 0xC34 JUMPI DUP1 PUSH1 0x1F LT PUSH2 0xC09 JUMPI PUSH2 0x100 DUP1 DUP4 SLOAD DIV MUL DUP4 MSTORE SWAP2 PUSH1 0x20 ADD SWAP2 PUSH2 0xC34 JUMP JUMPDEST DUP3 ADD SWAP2 SWAP1 PUSH1 0x0 MSTORE PUSH1 0x20 PUSH1 0x0 KECCAK256 SWAP1 JUMPDEST DUP2 SLOAD DUP2 MSTORE SWAP1 PUSH1 0x1 ADD SWAP1 PUSH1 0x20 ADD DUP1 DUP4 GT PUSH2 0xC17 JUMPI DUP3 SWAP1 SUB PUSH1 0x1F AND DUP3 ADD SWAP2 JUMPDEST POP POP POP POP POP DUP2 MSTORE PUSH1 0x20 ADD PUSH1 0x9 DUP3 ADD DUP1 SLOAD PUSH2 0xC4D SWAP1 PUSH2 0x41F1 JUMP JUMPDEST DUP1 PUSH1 0x1F ADD PUSH1 0x20 DUP1 SWAP2 DIV MUL PUSH1 0x20 ADD PUSH1 0x40 MLOAD SWAP1 DUP2 ADD PUSH1 0x40 MSTORE DUP1 SWAP3 SWAP2 SWAP1 DUP2 DUP2 MSTORE PUSH1 0x20 ADD DUP3 DUP1 SLOAD PUSH2 0xC79 SWAP1 PUSH2 0x41F1 JUMP JUMPDEST DUP1 ISZERO PUSH2 0xCC6 JUMPI DUP1 PUSH1 0x1F LT PUSH2 0xC9B JUMPI PUSH2 0x100 DUP1 DUP4 SLOAD DIV MUL DUP4 MSTORE SWAP2 PUSH1 0x20 ADD SWAP2 PUSH2 0xCC6 JUMP JUMPDEST DUP3 ADD SWAP2 SWAP1 PUSH1 0x0 MSTORE PUSH1 0x20 PUSH1 0x0 KECCAK256 SWAP1 JUMPDEST DUP2 SLOAD DUP2 MSTORE SWAP1 PUSH1 0x1 ADD SWAP1 PUSH1 0x20 ADD DUP1 DUP4 GT PUSH2 0xCA9 JUMPI DUP3 SWAP1 SUB PUSH1 0x1F AND DUP3 ADD SWAP2 JUMPDEST POP POP POP POP POP DUP2 MSTORE PUSH1 0x20 ADD PUSH1 0xA DUP3 ADD DUP1 SLOAD PUSH2 0xCDF SWAP1 PUSH2 0x41F1 JUMP JUMPDEST DUP1 PUSH1 0x1F ADD PUSH1 0x20 DUP1 SWAP2 DIV MUL PUSH1 0x20 ADD PUSH1 0x40 MLOAD SWAP1 DUP2 ADD PUSH1 0x40 MSTORE DUP1 SWAP3 SWAP2 SWAP1 DUP2 DUP2 MSTORE PUSH1 0x20 ADD DUP3 DUP1 SLOAD PUSH2 0xD0B SWAP1 PUSH2 0x41F1 JUMP JUMPDEST DUP1 ISZERO PUSH2 0xD58 JUMPI DUP1 PUSH1 0x1F LT PUSH2 0xD2D JUMPI PUSH2 0x100 DUP1 DUP4 SLOAD DIV MUL DUP4 MSTORE SWAP2 PUSH1 0x20 ADD SWAP2 PUSH2 0xD58 JUMP JUMPDEST DUP3 ADD SWAP2 SWAP1 PUSH1 0x0 MSTORE PUSH1 0x20 PUSH1 0x0 KECCAK256 SWAP1 JUMPDEST DUP2 SLOAD DUP2 MSTORE SWAP1 PUSH1 0x1 ADD SWAP1 PUSH1 0x20 ADD DUP1 DUP4 GT PUSH2 0xD3B JUMPI DUP3 SWAP1 SUB PUSH1 0x1F AND DUP3 ADD SWAP2 JUMPDEST POP POP POP POP POP DUP2 MSTORE PUSH1 0x20 ADD PUSH1 0xB DUP3 ADD DUP1 SLOAD PUSH2 0xD71 SWAP1 PUSH2 0x41F1 JUMP JUMPDEST DUP1 PUSH1 0x1F ADD PUSH1 0x20 DUP1 SWAP2 DIV MUL PUSH1 0x20 ADD PUSH1 0x40 MLOAD SWAP1 DUP2 ADD PUSH1 0x40 MSTORE DUP1 SWAP3 SWAP2 SWAP1 DUP2 DUP2 MSTORE PUSH1 0x20 ADD DUP3 DUP1 SLOAD PUSH2 0xD9D SWAP1 PUSH2 0x41F1 JUMP JUMPDEST DUP1 ISZERO PUSH2 0xDEA JUMPI DUP1 PUSH1 0x1F LT PUSH2 0xDBF JUMPI PUSH2 0x100 DUP1 DUP4 SLOAD DIV MUL DUP4 MSTORE SWAP2 PUSH1 0x20 ADD SWAP2 PUSH2 0xDEA JUMP JUMPDEST DUP3 ADD SWAP2 SWAP1 PUSH1 0x0 MSTORE PUSH1 0x20 PUSH1 0x0 KECCAK256 SWAP1 JUMPDEST DUP2 SLOAD DUP2 MSTORE SWAP1 PUSH1 0x1 ADD SWAP1 PUSH1 0x20 ADD DUP1 DUP4 GT PUSH2 0xDCD JUMPI DUP3 SWAP1 SUB PUSH1 0x1F AND DUP3 ADD SWAP2 JUMPDEST POP POP POP POP POP DUP2 MSTORE POP POP SWAP1 POP JUMPDEST SWAP2 SWAP1 POP JUMP JUMPDEST PUSH1 0x40 MLOAD PUSH1 0x20 ADD PUSH2 0xE0A SWAP1 PUSH2 0x4249 JUMP JUMPDEST PUSH1 0x40 MLOAD PUSH1 0x20 DUP2 DUP4 SUB SUB DUP2 MSTORE SWAP1 PUSH1 0x40 MSTORE DUP1 MLOAD SWAP1 PUSH1 0x20 ADD KECCAK256 PUSH1 0x7 PUSH1 0x0 CALLER PUSH20 0xFFFFFFFFFFFFFFFFFFFFFFFFFFFFFFFFFFFFFFFF AND PUSH20 0xFFFFFFFFFFFFFFFFFFFFFFFFFFFFFFFFFFFFFFFF AND DUP2 MSTORE PUSH1 0x20 ADD SWAP1 DUP2 MSTORE PUSH1 0x20 ADD PUSH1 0x0 KECCAK256 PUSH1 0x40 MLOAD PUSH1 0x20 ADD PUSH2 0xE6F SWAP2 SWAP1 PUSH2 0x42F2 JUMP JUMPDEST PUSH1 0x40 MLOAD PUSH1 0x20 DUP2 DUP4 SUB SUB DUP2 MSTORE SWAP1 PUSH1 0x40 MSTORE DUP1 MLOAD SWAP1 PUSH1 0x20 ADD KECCAK256 EQ ISZERO PUSH2 0xEC6 JUMPI PUSH1 0x40 MLOAD PUSH32 0x8C379A000000000000000000000000000000000000000000000000000000000 DUP2 MSTORE PUSH1 0x4 ADD PUSH2 0xEBD SWAP1 PUSH2 0x4355 JUMP JUMPDEST PUSH1 0x40 MLOAD DUP1 SWAP2 SUB SWAP1 REVERT JUMPDEST PUSH1 0x0 JUMPDEST DUP5 DUP5 SWAP1 POP DUP2 LT ISZERO PUSH2 0x14E8 JUMPI PUSH1 0x40 MLOAD PUSH1 0x20 ADD PUSH2 0xEE3 SWAP1 PUSH2 0x43C1 JUMP JUMPDEST PUSH1 0x40 MLOAD PUSH1 0x20 DUP2 DUP4 SUB SUB DUP2 MSTORE SWAP1 PUSH1 0x40 MSTORE DUP1 MLOAD SWAP1 PUSH1 0x20 ADD KECCAK256 DUP6 DUP6 DUP4 DUP2 DUP2 LT PUSH2 0xF0C JUMPI PUSH2 0xF0B PUSH2 0x43D6 JUMP JUMPDEST JUMPDEST SWAP1 POP PUSH1 0x20 MUL DUP2 ADD SWAP1 PUSH2 0xF1E SWAP2 SWAP1 PUSH2 0x4414 JUMP JUMPDEST PUSH1 0x40 MLOAD PUSH1 0x20 ADD PUSH2 0xF2F SWAP3 SWAP2 SWAP1 PUSH2 0x449C JUMP JUMPDEST PUSH1 0x40 MLOAD PUSH1 0x20 DUP2 DUP4 SUB SUB DUP2 MSTORE SWAP1 PUSH1 0x40 MSTORE DUP1 MLOAD SWAP1 PUSH1 0x20 ADD KECCAK256 EQ ISZERO PUSH2 0xFA6 JUMPI DUP3 DUP3 DUP3 DUP2 DUP2 LT PUSH2 0xF5E JUMPI PUSH2 0xF5D PUSH2 0x43D6 JUMP JUMPDEST JUMPDEST SWAP1 POP PUSH1 0x20 MUL DUP2 ADD SWAP1 PUSH2 0xF70 SWAP2 SWAP1 PUSH2 0x4414 JUMP JUMPDEST PUSH1 0x5 DUP10 DUP10 PUSH1 0x40 MLOAD PUSH2 0xF82 SWAP3 SWAP2 SWAP1 PUSH2 0x449C JUMP JUMPDEST SWAP1 DUP2 MSTORE PUSH1 0x20 ADD PUSH1 0x40 MLOAD DUP1 SWAP2 SUB SWAP1 KECCAK256 PUSH1 0x6 ADD SWAP2 SWAP1 PUSH2 0xFA0 SWAP3 SWAP2 SWAP1 PUSH2 0x3521 JUMP JUMPDEST POP PUSH2 0x14D5 JUMP JUMPDEST PUSH1 0x40 MLOAD PUSH1 0x20 ADD PUSH2 0xFB5 SWAP1 PUSH2 0x4501 JUMP JUMPDEST PUSH1 0x40 MLOAD PUSH1 0x20 DUP2 DUP4 SUB SUB DUP2 MSTORE SWAP1 PUSH1 0x40 MSTORE DUP1 MLOAD SWAP1 PUSH1 0x20 ADD KECCAK256 DUP6 DUP6 DUP4 DUP2 DUP2 LT PUSH2 0xFDE JUMPI PUSH2 0xFDD PUSH2 0x43D6 JUMP JUMPDEST JUMPDEST SWAP1 POP PUSH1 0x20 MUL DUP2 ADD SWAP1 PUSH2 0xFF0 SWAP2 SWAP1 PUSH2 0x4414 JUMP JUMPDEST PUSH1 0x40 MLOAD PUSH1 0x20 ADD PUSH2 0x1001 SWAP3 SWAP2 SWAP1 PUSH2 0x449C JUMP JUMPDEST PUSH1 0x40 MLOAD PUSH1 0x20 DUP2 DUP4 SUB SUB DUP2 MSTORE SWAP1 PUSH1 0x40 MSTORE DUP1 MLOAD SWAP1 PUSH1 0x20 ADD KECCAK256 EQ ISZERO PUSH2 0x10B9 JUMPI PUSH2 0x108D DUP4 DUP4 DUP4 DUP2 DUP2 LT PUSH2 0x1033 JUMPI PUSH2 0x1032 PUSH2 0x43D6 JUMP JUMPDEST JUMPDEST SWAP1 POP PUSH1 0x20 MUL DUP2 ADD SWAP1 PUSH2 0x1045 SWAP2 SWAP1 PUSH2 0x4414 JUMP JUMPDEST DUP1 DUP1 PUSH1 0x1F ADD PUSH1 0x20 DUP1 SWAP2 DIV MUL PUSH1 0x20 ADD PUSH1 0x40 MLOAD SWAP1 DUP2 ADD PUSH1 0x40 MSTORE DUP1 SWAP4 SWAP3 SWAP2 SWAP1 DUP2 DUP2 MSTORE PUSH1 0x20 ADD DUP4 DUP4 DUP1 DUP3 DUP5 CALLDATACOPY PUSH1 0x0 DUP2 DUP5 ADD MSTORE PUSH1 0x1F NOT PUSH1 0x1F DUP3 ADD AND SWAP1 POP DUP1 DUP4 ADD SWAP3 POP POP POP POP POP POP POP PUSH2 0x1C31 JUMP JUMPDEST PUSH1 0x5 DUP9 DUP9 PUSH1 0x40 MLOAD PUSH2 0x109F SWAP3 SWAP2 SWAP1 PUSH2 0x449C JUMP JUMPDEST SWAP1 DUP2 MSTORE PUSH1 0x20 ADD PUSH1 0x40 MLOAD DUP1 SWAP2 SUB SWAP1 KECCAK256 PUSH1 0x5 ADD DUP2 SWAP1 SSTORE POP PUSH2 0x14D4 JUMP JUMPDEST PUSH1 0x40 MLOAD PUSH1 0x20 ADD PUSH2 0x10C8 SWAP1 PUSH2 0x4562 JUMP JUMPDEST PUSH1 0x40 MLOAD PUSH1 0x20 DUP2 DUP4 SUB SUB DUP2 MSTORE SWAP1 PUSH1 0x40 MSTORE DUP1 MLOAD SWAP1 PUSH1 0x20 ADD KECCAK256 DUP6 DUP6 DUP4 DUP2 DUP2 LT PUSH2 0x10F1 JUMPI PUSH2 0x10F0 PUSH2 0x43D6 JUMP JUMPDEST JUMPDEST SWAP1 POP PUSH1 0x20 MUL DUP2 ADD SWAP1 PUSH2 0x1103 SWAP2 SWAP1 PUSH2 0x4414 JUMP JUMPDEST PUSH1 0x40 MLOAD PUSH1 0x20 ADD PUSH2 0x1114 SWAP3 SWAP2 SWAP1 PUSH2 0x449C JUMP JUMPDEST PUSH1 0x40 MLOAD PUSH1 0x20 DUP2 DUP4 SUB SUB DUP2 MSTORE SWAP1 PUSH1 0x40 MSTORE DUP1 MLOAD SWAP1 PUSH1 0x20 ADD KECCAK256 EQ ISZERO PUSH2 0x118B JUMPI DUP3 DUP3 DUP3 DUP2 DUP2 LT PUSH2 0x1143 JUMPI PUSH2 0x1142 PUSH2 0x43D6 JUMP JUMPDEST JUMPDEST SWAP1 POP PUSH1 0x20 MUL DUP2 ADD SWAP1 PUSH2 0x1155 SWAP2 SWAP1 PUSH2 0x4414 JUMP JUMPDEST PUSH1 0x5 DUP10 DUP10 PUSH1 0x40 MLOAD PUSH2 0x1167 SWAP3 SWAP2 SWAP1 PUSH2 0x449C JUMP JUMPDEST SWAP1 DUP2 MSTORE PUSH1 0x20 ADD PUSH1 0x40 MLOAD DUP1 SWAP2 SUB SWAP1 KECCAK256 PUSH1 0x7 ADD SWAP2 SWAP1 PUSH2 0x1185 SWAP3 SWAP2 SWAP1 PUSH2 0x3521 JUMP JUMPDEST POP PUSH2 0x14D3 JUMP JUMPDEST PUSH1 0x40 MLOAD PUSH1 0x20 ADD PUSH2 0x119A SWAP1 PUSH2 0x45C3 JUMP JUMPDEST PUSH1 0x40 MLOAD PUSH1 0x20 DUP2 DUP4 SUB SUB DUP2 MSTORE SWAP1 PUSH1 0x40 MSTORE DUP1 MLOAD SWAP1 PUSH1 0x20 ADD KECCAK256 DUP6 DUP6 DUP4 DUP2 DUP2 LT PUSH2 0x11C3 JUMPI PUSH2 0x11C2 PUSH2 0x43D6 JUMP JUMPDEST JUMPDEST SWAP1 POP PUSH1 0x20 MUL DUP2 ADD SWAP1 PUSH2 0x11D5 SWAP2 SWAP1 PUSH2 0x4414 JUMP JUMPDEST PUSH1 0x40 MLOAD PUSH1 0x20 ADD PUSH2 0x11E6 SWAP3 SWAP2 SWAP1 PUSH2 0x449C JUMP JUMPDEST PUSH1 0x40 MLOAD PUSH1 0x20 DUP2 DUP4 SUB SUB DUP2 MSTORE SWAP1 PUSH1 0x40 MSTORE DUP1 MLOAD SWAP1 PUSH1 0x20 ADD KECCAK256 EQ ISZERO PUSH2 0x125D JUMPI DUP3 DUP3 DUP3 DUP2 DUP2 LT PUSH2 0x1215 JUMPI PUSH2 0x1214 PUSH2 0x43D6 JUMP JUMPDEST JUMPDEST SWAP1 POP PUSH1 0x20 MUL DUP2 ADD SWAP1 PUSH2 0x1227 SWAP2 SWAP1 PUSH2 0x4414 JUMP JUMPDEST PUSH1 0x5 DUP10 DUP10 PUSH1 0x40 MLOAD PUSH2 0x1239 SWAP3 SWAP2 SWAP1 PUSH2 0x449C JUMP JUMPDEST SWAP1 DUP2 MSTORE PUSH1 0x20 ADD PUSH1 0x40 MLOAD DUP1 SWAP2 SUB SWAP1 KECCAK256 PUSH1 0x8 ADD SWAP2 SWAP1 PUSH2 0x1257 SWAP3 SWAP2 SWAP1 PUSH2 0x3521 JUMP JUMPDEST POP PUSH2 0x14D2 JUMP JUMPDEST PUSH1 0x40 MLOAD PUSH1 0x20 ADD PUSH2 0x126C SWAP1 PUSH2 0x4624 JUMP JUMPDEST PUSH1 0x40 MLOAD PUSH1 0x20 DUP2 DUP4 SUB SUB DUP2 MSTORE SWAP1 PUSH1 0x40 MSTORE DUP1 MLOAD SWAP1 PUSH1 0x20 ADD KECCAK256 DUP6 DUP6 DUP4 DUP2 DUP2 LT PUSH2 0x1295 JUMPI PUSH2 0x1294 PUSH2 0x43D6 JUMP JUMPDEST JUMPDEST SWAP1 POP PUSH1 0x20 MUL DUP2 ADD SWAP1 PUSH2 0x12A7 SWAP2 SWAP1 PUSH2 0x4414 JUMP JUMPDEST PUSH1 0x40 MLOAD PUSH1 0x20 ADD PUSH2 0x12B8 SWAP3 SWAP2 SWAP1 PUSH2 0x449C JUMP JUMPDEST PUSH1 0x40 MLOAD PUSH1 0x20 DUP2 DUP4 SUB SUB DUP2 MSTORE SWAP1 PUSH1 0x40 MSTORE DUP1 MLOAD SWAP1 PUSH1 0x20 ADD KECCAK256 EQ ISZERO PUSH2 0x132F JUMPI DUP3 DUP3 DUP3 DUP2 DUP2 LT PUSH2 0x12E7 JUMPI PUSH2 0x12E6 PUSH2 0x43D6 JUMP JUMPDEST JUMPDEST SWAP1 POP PUSH1 0x20 MUL DUP2 ADD SWAP1 PUSH2 0x12F9 SWAP2 SWAP1 PUSH2 0x4414 JUMP JUMPDEST PUSH1 0x5 DUP10 DUP10 PUSH1 0x40 MLOAD PUSH2 0x130B SWAP3 SWAP2 SWAP1 PUSH2 0x449C JUMP JUMPDEST SWAP1 DUP2 MSTORE PUSH1 0x20 ADD PUSH1 0x40 MLOAD DUP1 SWAP2 SUB SWAP1 KECCAK256 PUSH1 0x9 ADD SWAP2 SWAP1 PUSH2 0x1329 SWAP3 SWAP2 SWAP1 PUSH2 0x3521 JUMP JUMPDEST POP PUSH2 0x14D1 JUMP JUMPDEST PUSH1 0x40 MLOAD PUSH1 0x20 ADD PUSH2 0x133E SWAP1 PUSH2 0x4685 JUMP JUMPDEST PUSH1 0x40 MLOAD PUSH1 0x20 DUP2 DUP4 SUB SUB DUP2 MSTORE SWAP1 PUSH1 0x40 MSTORE DUP1 MLOAD SWAP1 PUSH1 0x20 ADD KECCAK256 DUP6 DUP6 DUP4 DUP2 DUP2 LT PUSH2 0x1367 JUMPI PUSH2 0x1366 PUSH2 0x43D6 JUMP JUMPDEST JUMPDEST SWAP1 POP PUSH1 0x20 MUL DUP2 ADD SWAP1 PUSH2 0x1379 SWAP2 SWAP1 PUSH2 0x4414 JUMP JUMPDEST PUSH1 0x40 MLOAD PUSH1 0x20 ADD PUSH2 0x138A SWAP3 SWAP2 SWAP1 PUSH2 0x449C JUMP JUMPDEST PUSH1 0x40 MLOAD PUSH1 0x20 DUP2 DUP4 SUB SUB DUP2 MSTORE SWAP1 PUSH1 0x40 MSTORE DUP1 MLOAD SWAP1 PUSH1 0x20 ADD KECCAK256 EQ ISZERO PUSH2 0x1401 JUMPI DUP3 DUP3 DUP3 DUP2 DUP2 LT PUSH2 0x13B9 JUMPI PUSH2 0x13B8 PUSH2 0x43D6 JUMP JUMPDEST JUMPDEST SWAP1 POP PUSH1 0x20 MUL DUP2 ADD SWAP1 PUSH2 0x13CB SWAP2 SWAP1 PUSH2 0x4414 JUMP JUMPDEST PUSH1 0x5 DUP10 DUP10 PUSH1 0x40 MLOAD PUSH2 0x13DD SWAP3 SWAP2 SWAP1 PUSH2 0x449C JUMP JUMPDEST SWAP1 DUP2 MSTORE PUSH1 0x20 ADD PUSH1 0x40 MLOAD DUP1 SWAP2 SUB SWAP1 KECCAK256 PUSH1 0xA ADD SWAP2 SWAP1 PUSH2 0x13FB SWAP3 SWAP2 SWAP1 PUSH2 0x3521 JUMP JUMPDEST POP PUSH2 0x14D0 JUMP JUMPDEST PUSH1 0x40 MLOAD PUSH1 0x20 ADD PUSH2 0x1410 SWAP1 PUSH2 0x46E6 JUMP JUMPDEST PUSH1 0x40 MLOAD PUSH1 0x20 DUP2 DUP4 SUB SUB DUP2 MSTORE SWAP1 PUSH1 0x40 MSTORE DUP1 MLOAD SWAP1 PUSH1 0x20 ADD KECCAK256 DUP6 DUP6 DUP4 DUP2 DUP2 LT PUSH2 0x1439 JUMPI PUSH2 0x1438 PUSH2 0x43D6 JUMP JUMPDEST JUMPDEST SWAP1 POP PUSH1 0x20 MUL DUP2 ADD SWAP1 PUSH2 0x144B SWAP2 SWAP1 PUSH2 0x4414 JUMP JUMPDEST PUSH1 0x40 MLOAD PUSH1 0x20 ADD PUSH2 0x145C SWAP3 SWAP2 SWAP1 PUSH2 0x449C JUMP JUMPDEST PUSH1 0x40 MLOAD PUSH1 0x20 DUP2 DUP4 SUB SUB DUP2 MSTORE SWAP1 PUSH1 0x40 MSTORE DUP1 MLOAD SWAP1 PUSH1 0x20 ADD KECCAK256 EQ ISZERO PUSH2 0x14CF JUMPI DUP3 DUP3 DUP3 DUP2 DUP2 LT PUSH2 0x148B JUMPI PUSH2 0x148A PUSH2 0x43D6 JUMP JUMPDEST JUMPDEST SWAP1 POP PUSH1 0x20 MUL DUP2 ADD SWAP1 PUSH2 0x149D SWAP2 SWAP1 PUSH2 0x4414 JUMP JUMPDEST PUSH1 0x5 DUP10 DUP10 PUSH1 0x40 MLOAD PUSH2 0x14AF SWAP3 SWAP2 SWAP1 PUSH2 0x449C JUMP JUMPDEST SWAP1 DUP2 MSTORE PUSH1 0x20 ADD PUSH1 0x40 MLOAD DUP1 SWAP2 SUB SWAP1 KECCAK256 PUSH1 0xB ADD SWAP2 SWAP1 PUSH2 0x14CD SWAP3 SWAP2 SWAP1 PUSH2 0x3521 JUMP JUMPDEST POP JUMPDEST JUMPDEST JUMPDEST JUMPDEST JUMPDEST JUMPDEST JUMPDEST DUP1 DUP1 PUSH2 0x14E0 SWAP1 PUSH2 0x472A JUMP JUMPDEST SWAP2 POP POP PUSH2 0xEC9 JUMP JUMPDEST POP POP POP POP POP POP POP JUMP JUMPDEST PUSH1 0x60 PUSH1 0x40 MLOAD PUSH1 0x20 ADD PUSH2 0x1502 SWAP1 PUSH2 0x47BF JUMP JUMPDEST PUSH1 0x40 MLOAD PUSH1 0x20 DUP2 DUP4 SUB SUB DUP2 MSTORE SWAP1 PUSH1 0x40 MSTORE DUP1 MLOAD SWAP1 PUSH1 0x20 ADD KECCAK256 PUSH1 0x7 PUSH1 0x0 CALLER PUSH20 0xFFFFFFFFFFFFFFFFFFFFFFFFFFFFFFFFFFFFFFFF AND PUSH20 0xFFFFFFFFFFFFFFFFFFFFFFFFFFFFFFFFFFFFFFFF AND DUP2 MSTORE PUSH1 0x20 ADD SWAP1 DUP2 MSTORE PUSH1 0x20 ADD PUSH1 0x0 KECCAK256 PUSH1 0x40 MLOAD PUSH1 0x20 ADD PUSH2 0x1567 SWAP2 SWAP1 PUSH2 0x42F2 JUMP JUMPDEST PUSH1 0x40 MLOAD PUSH1 0x20 DUP2 DUP4 SUB SUB DUP2 MSTORE SWAP1 PUSH1 0x40 MSTORE DUP1 MLOAD SWAP1 PUSH1 0x20 ADD KECCAK256 EQ PUSH2 0x15BD JUMPI PUSH1 0x40 MLOAD PUSH32 0x8C379A000000000000000000000000000000000000000000000000000000000 DUP2 MSTORE PUSH1 0x4 ADD PUSH2 0x15B4 SWAP1 PUSH2 0x4820 JUMP JUMPDEST PUSH1 0x40 MLOAD DUP1 SWAP2 SUB SWAP1 REVERT JUMPDEST PUSH1 0x0 PUSH1 0x3 SLOAD SWAP1 POP PUSH1 0x0 DUP1 PUSH1 0x4 SLOAD PUSH1 0x3 SLOAD PUSH2 0x15D7 SWAP2 SWAP1 PUSH2 0x4840 JUMP JUMPDEST PUSH8 0xFFFFFFFFFFFFFFFF DUP2 GT ISZERO PUSH2 0x15F0 JUMPI PUSH2 0x15EF PUSH2 0x3679 JUMP JUMPDEST JUMPDEST PUSH1 0x40 MLOAD SWAP1 DUP1 DUP3 MSTORE DUP1 PUSH1 0x20 MUL PUSH1 0x20 ADD DUP3 ADD PUSH1 0x40 MSTORE DUP1 ISZERO PUSH2 0x1629 JUMPI DUP2 PUSH1 0x20 ADD JUMPDEST PUSH2 0x1616 PUSH2 0x34C0 JUMP JUMPDEST DUP2 MSTORE PUSH1 0x20 ADD SWAP1 PUSH1 0x1 SWAP1 SUB SWAP1 DUP2 PUSH2 0x160E JUMPI SWAP1 POP JUMPDEST POP SWAP1 POP PUSH1 0x0 PUSH1 0x4 SLOAD SWAP1 POP JUMPDEST DUP4 DUP2 LT ISZERO PUSH2 0x1C13 JUMPI PUSH1 0x0 PUSH1 0x5 PUSH2 0x1649 DUP4 PUSH2 0x314B JUMP JUMPDEST PUSH1 0x40 MLOAD PUSH1 0x20 ADD PUSH2 0x1659 SWAP2 SWAP1 PUSH2 0x489A JUMP JUMPDEST PUSH1 0x40 MLOAD PUSH1 0x20 DUP2 DUP4 SUB SUB DUP2 MSTORE SWAP1 PUSH1 0x40 MSTORE PUSH1 0x40 MLOAD PUSH2 0x1675 SWAP2 SWAP1 PUSH2 0x41AB JUMP JUMPDEST SWAP1 DUP2 MSTORE PUSH1 0x20 ADD PUSH1 0x40 MLOAD DUP1 SWAP2 SUB SWAP1 KECCAK256 SWAP1 POP DUP1 PUSH1 0x40 MLOAD DUP1 PUSH2 0x180 ADD PUSH1 0x40 MSTORE SWAP1 DUP2 PUSH1 0x0 DUP3 ADD DUP1 SLOAD PUSH2 0x16A2 SWAP1 PUSH2 0x41F1 JUMP JUMPDEST DUP1 PUSH1 0x1F ADD PUSH1 0x20 DUP1 SWAP2 DIV MUL PUSH1 0x20 ADD PUSH1 0x40 MLOAD SWAP1 DUP2 ADD PUSH1 0x40 MSTORE DUP1 SWAP3 SWAP2 SWAP1 DUP2 DUP2 MSTORE PUSH1 0x20 ADD DUP3 DUP1 SLOAD PUSH2 0x16CE SWAP1 PUSH2 0x41F1 JUMP JUMPDEST DUP1 ISZERO PUSH2 0x171B JUMPI DUP1 PUSH1 0x1F LT PUSH2 0x16F0 JUMPI PUSH2 0x100 DUP1 DUP4 SLOAD DIV MUL DUP4 MSTORE SWAP2 PUSH1 0x20 ADD SWAP2 PUSH2 0x171B JUMP JUMPDEST DUP3 ADD SWAP2 SWAP1 PUSH1 0x0 MSTORE PUSH1 0x20 PUSH1 0x0 KECCAK256 SWAP1 JUMPDEST DUP2 SLOAD DUP2 MSTORE SWAP1 PUSH1 0x1 ADD SWAP1 PUSH1 0x20 ADD DUP1 DUP4 GT PUSH2 0x16FE JUMPI DUP3 SWAP1 SUB PUSH1 0x1F AND DUP3 ADD SWAP2 JUMPDEST POP POP POP POP POP DUP2 MSTORE PUSH1 0x20 ADD PUSH1 0x1 DUP3 ADD DUP1 SLOAD PUSH2 0x1734 SWAP1 PUSH2 0x41F1 JUMP JUMPDEST DUP1 PUSH1 0x1F ADD PUSH1 0x20 DUP1 SWAP2 DIV MUL PUSH1 0x20 ADD PUSH1 0x40 MLOAD SWAP1 DUP2 ADD PUSH1 0x40 MSTORE DUP1 SWAP3 SWAP2 SWAP1 DUP2 DUP2 MSTORE PUSH1 0x20 ADD DUP3 DUP1 SLOAD PUSH2 0x1760 SWAP1 PUSH2 0x41F1 JUMP JUMPDEST DUP1 ISZERO PUSH2 0x17AD JUMPI DUP1 PUSH1 0x1F LT PUSH2 0x1782 JUMPI PUSH2 0x100 DUP1 DUP4 SLOAD DIV MUL DUP4 MSTORE SWAP2 PUSH1 0x20 ADD SWAP2 PUSH2 0x17AD JUMP JUMPDEST DUP3 ADD SWAP2 SWAP1 PUSH1 0x0 MSTORE PUSH1 0x20 PUSH1 0x0 KECCAK256 SWAP1 JUMPDEST DUP2 SLOAD DUP2 MSTORE SWAP1 PUSH1 0x1 ADD SWAP1 PUSH1 0x20 ADD DUP1 DUP4 GT PUSH2 0x1790 JUMPI DUP3 SWAP1 SUB PUSH1 0x1F AND DUP3 ADD SWAP2 JUMPDEST POP POP POP POP POP DUP2 MSTORE PUSH1 0x20 ADD PUSH1 0x2 DUP3 ADD DUP1 SLOAD PUSH2 0x17C6 SWAP1 PUSH2 0x41F1 JUMP JUMPDEST DUP1 PUSH1 0x1F ADD PUSH1 0x20 DUP1 SWAP2 DIV MUL PUSH1 0x20 ADD PUSH1 0x40 MLOAD SWAP1 DUP2 ADD PUSH1 0x40 MSTORE DUP1 SWAP3 SWAP2 SWAP1 DUP2 DUP2 MSTORE PUSH1 0x20 ADD DUP3 DUP1 SLOAD PUSH2 0x17F2 SWAP1 PUSH2 0x41F1 JUMP JUMPDEST DUP1 ISZERO PUSH2 0x183F JUMPI DUP1 PUSH1 0x1F LT PUSH2 0x1814 JUMPI PUSH2 0x100 DUP1 DUP4 SLOAD DIV MUL DUP4 MSTORE SWAP2 PUSH1 0x20 ADD SWAP2 PUSH2 0x183F JUMP JUMPDEST DUP3 ADD SWAP2 SWAP1 PUSH1 0x0 MSTORE PUSH1 0x20 PUSH1 0x0 KECCAK256 SWAP1 JUMPDEST DUP2 SLOAD DUP2 MSTORE SWAP1 PUSH1 0x1 ADD SWAP1 PUSH1 0x20 ADD DUP1 DUP4 GT PUSH2 0x1822 JUMPI DUP3 SWAP1 SUB PUSH1 0x1F AND DUP3 ADD SWAP2 JUMPDEST POP POP POP POP POP DUP2 MSTORE PUSH1 0x20 ADD PUSH1 0x3 DUP3 ADD SLOAD DUP2 MSTORE PUSH1 0x20 ADD PUSH1 0x4 DUP3 ADD SLOAD DUP2 MSTORE PUSH1 0x20 ADD PUSH1 0x5 DUP3 ADD SLOAD DUP2 MSTORE PUSH1 0x20 ADD PUSH1 0x6 DUP3 ADD DUP1 SLOAD PUSH2 0x1876 SWAP1 PUSH2 0x41F1 JUMP JUMPDEST DUP1 PUSH1 0x1F ADD PUSH1 0x20 DUP1 SWAP2 DIV MUL PUSH1 0x20 ADD PUSH1 0x40 MLOAD SWAP1 DUP2 ADD PUSH1 0x40 MSTORE DUP1 SWAP3 SWAP2 SWAP1 DUP2 DUP2 MSTORE PUSH1 0x20 ADD DUP3 DUP1 SLOAD PUSH2 0x18A2 SWAP1 PUSH2 0x41F1 JUMP JUMPDEST DUP1 ISZERO PUSH2 0x18EF JUMPI DUP1 PUSH1 0x1F LT PUSH2 0x18C4 JUMPI PUSH2 0x100 DUP1 DUP4 SLOAD DIV MUL DUP4 MSTORE SWAP2 PUSH1 0x20 ADD SWAP2 PUSH2 0x18EF JUMP JUMPDEST DUP3 ADD SWAP2 SWAP1 PUSH1 0x0 MSTORE PUSH1 0x20 PUSH1 0x0 KECCAK256 SWAP1 JUMPDEST DUP2 SLOAD DUP2 MSTORE SWAP1 PUSH1 0x1 ADD SWAP1 PUSH1 0x20 ADD DUP1 DUP4 GT PUSH2 0x18D2 JUMPI DUP3 SWAP1 SUB PUSH1 0x1F AND DUP3 ADD SWAP2 JUMPDEST POP POP POP POP POP DUP2 MSTORE PUSH1 0x20 ADD PUSH1 0x7 DUP3 ADD DUP1 SLOAD PUSH2 0x1908 SWAP1 PUSH2 0x41F1 JUMP JUMPDEST DUP1 PUSH1 0x1F ADD PUSH1 0x20 DUP1 SWAP2 DIV MUL PUSH1 0x20 ADD PUSH1 0x40 MLOAD SWAP1 DUP2 ADD PUSH1 0x40 MSTORE DUP1 SWAP3 SWAP2 SWAP1 DUP2 DUP2 MSTORE PUSH1 0x20 ADD DUP3 DUP1 SLOAD PUSH2 0x1934 SWAP1 PUSH2 0x41F1 JUMP JUMPDEST DUP1 ISZERO PUSH2 0x1981 JUMPI DUP1 PUSH1 0x1F LT PUSH2 0x1956 JUMPI PUSH2 0x100 DUP1 DUP4 SLOAD DIV MUL DUP4 MSTORE SWAP2 PUSH1 0x20 ADD SWAP2 PUSH2 0x1981 JUMP JUMPDEST DUP3 ADD SWAP2 SWAP1 PUSH1 0x0 MSTORE PUSH1 0x20 PUSH1 0x0 KECCAK256 SWAP1 JUMPDEST DUP2 SLOAD DUP2 MSTORE SWAP1 PUSH1 0x1 ADD SWAP1 PUSH1 0x20 ADD DUP1 DUP4 GT PUSH2 0x1964 JUMPI DUP3 SWAP1 SUB PUSH1 0x1F AND DUP3 ADD SWAP2 JUMPDEST POP POP POP POP POP DUP2 MSTORE PUSH1 0x20 ADD PUSH1 0x8 DUP3 ADD DUP1 SLOAD PUSH2 0x199A SWAP1 PUSH2 0x41F1 JUMP JUMPDEST DUP1 PUSH1 0x1F ADD PUSH1 0x20 DUP1 SWAP2 DIV MUL PUSH1 0x20 ADD PUSH1 0x40 MLOAD SWAP1 DUP2 ADD PUSH1 0x40 MSTORE DUP1 SWAP3 SWAP2 SWAP1 DUP2 DUP2 MSTORE PUSH1 0x20 ADD DUP3 DUP1 SLOAD PUSH2 0x19C6 SWAP1 PUSH2 0x41F1 JUMP JUMPDEST DUP1 ISZERO PUSH2 0x1A13 JUMPI DUP1 PUSH1 0x1F LT PUSH2 0x19E8 JUMPI PUSH2 0x100 DUP1 DUP4 SLOAD DIV MUL DUP4 MSTORE SWAP2 PUSH1 0x20 ADD SWAP2 PUSH2 0x1A13 JUMP JUMPDEST DUP3 ADD SWAP2 SWAP1 PUSH1 0x0 MSTORE PUSH1 0x20 PUSH1 0x0 KECCAK256 SWAP1 JUMPDEST DUP2 SLOAD DUP2 MSTORE SWAP1 PUSH1 0x1 ADD SWAP1 PUSH1 0x20 ADD DUP1 DUP4 GT PUSH2 0x19F6 JUMPI DUP3 SWAP1 SUB PUSH1 0x1F AND DUP3 ADD SWAP2 JUMPDEST POP POP POP POP POP DUP2 MSTORE PUSH1 0x20 ADD PUSH1 0x9 DUP3 ADD DUP1 SLOAD PUSH2 0x1A2C SWAP1 PUSH2 0x41F1 JUMP JUMPDEST DUP1 PUSH1 0x1F ADD PUSH1 0x20 DUP1 SWAP2 DIV MUL PUSH1 0x20 ADD PUSH1 0x40 MLOAD SWAP1 DUP2 ADD PUSH1 0x40 MSTORE DUP1 SWAP3 SWAP2 SWAP1 DUP2 DUP2 MSTORE PUSH1 0x20 ADD DUP3 DUP1 SLOAD PUSH2 0x1A58 SWAP1 PUSH2 0x41F1 JUMP JUMPDEST DUP1 ISZERO PUSH2 0x1AA5 JUMPI DUP1 PUSH1 0x1F LT PUSH2 0x1A7A JUMPI PUSH2 0x100 DUP1 DUP4 SLOAD DIV MUL DUP4 MSTORE SWAP2 PUSH1 0x20 ADD SWAP2 PUSH2 0x1AA5 JUMP JUMPDEST DUP3 ADD SWAP2 SWAP1 PUSH1 0x0 MSTORE PUSH1 0x20 PUSH1 0x0 KECCAK256 SWAP1 JUMPDEST DUP2 SLOAD DUP2 MSTORE SWAP1 PUSH1 0x1 ADD SWAP1 PUSH1 0x20 ADD DUP1 DUP4 GT PUSH2 0x1A88 JUMPI DUP3 SWAP1 SUB PUSH1 0x1F AND DUP3 ADD SWAP2 JUMPDEST POP POP POP POP POP DUP2 MSTORE PUSH1 0x20 ADD PUSH1 0xA DUP3 ADD DUP1 SLOAD PUSH2 0x1ABE SWAP1 PUSH2 0x41F1 JUMP JUMPDEST DUP1 PUSH1 0x1F ADD PUSH1 0x20 DUP1 SWAP2 DIV MUL PUSH1 0x20 ADD PUSH1 0x40 MLOAD SWAP1 DUP2 ADD PUSH1 0x40 MSTORE DUP1 SWAP3 SWAP2 SWAP1 DUP2 DUP2 MSTORE PUSH1 0x20 ADD DUP3 DUP1 SLOAD PUSH2 0x1AEA SWAP1 PUSH2 0x41F1 JUMP JUMPDEST DUP1 ISZERO PUSH2 0x1B37 JUMPI DUP1 PUSH1 0x1F LT PUSH2 0x1B0C JUMPI PUSH2 0x100 DUP1 DUP4 SLOAD DIV MUL DUP4 MSTORE SWAP2 PUSH1 0x20 ADD SWAP2 PUSH2 0x1B37 JUMP JUMPDEST DUP3 ADD SWAP2 SWAP1 PUSH1 0x0 MSTORE PUSH1 0x20 PUSH1 0x0 KECCAK256 SWAP1 JUMPDEST DUP2 SLOAD DUP2 MSTORE SWAP1 PUSH1 0x1 ADD SWAP1 PUSH1 0x20 ADD DUP1 DUP4 GT PUSH2 0x1B1A JUMPI DUP3 SWAP1 SUB PUSH1 0x1F AND DUP3 ADD SWAP2 JUMPDEST POP POP POP POP POP DUP2 MSTORE PUSH1 0x20 ADD PUSH1 0xB DUP3 ADD DUP1 SLOAD PUSH2 0x1B50 SWAP1 PUSH2 0x41F1 JUMP JUMPDEST DUP1 PUSH1 0x1F ADD PUSH1 0x20 DUP1 SWAP2 DIV MUL PUSH1 0x20 ADD PUSH1 0x40 MLOAD SWAP1 DUP2 ADD PUSH1 0x40 MSTORE DUP1 SWAP3 SWAP2 SWAP1 DUP2 DUP2 MSTORE PUSH1 0x20 ADD DUP3 DUP1 SLOAD PUSH2 0x1B7C SWAP1 PUSH2 0x41F1 JUMP JUMPDEST DUP1 ISZERO PUSH2 0x1BC9 JUMPI DUP1 PUSH1 0x1F LT PUSH2 0x1B9E JUMPI PUSH2 0x100 DUP1 DUP4 SLOAD DIV MUL DUP4 MSTORE SWAP2 PUSH1 0x20 ADD SWAP2 PUSH2 0x1BC9 JUMP JUMPDEST DUP3 ADD SWAP2 SWAP1 PUSH1 0x0 MSTORE PUSH1 0x20 PUSH1 0x0 KECCAK256 SWAP1 JUMPDEST DUP2 SLOAD DUP2 MSTORE SWAP1 PUSH1 0x1 ADD SWAP1 PUSH1 0x20 ADD DUP1 DUP4 GT PUSH2 0x1BAC JUMPI DUP3 SWAP1 SUB PUSH1 0x1F AND DUP3 ADD SWAP2 JUMPDEST POP POP POP POP POP DUP2 MSTORE POP POP DUP4 DUP6 DUP2 MLOAD DUP2 LT PUSH2 0x1BE5 JUMPI PUSH2 0x1BE4 PUSH2 0x43D6 JUMP JUMPDEST JUMPDEST PUSH1 0x20 MUL PUSH1 0x20 ADD ADD DUP2 SWAP1 MSTORE POP PUSH1 0x1 DUP5 PUSH2 0x1BFD SWAP2 SWAP1 PUSH2 0x48C0 JUMP JUMPDEST SWAP4 POP POP DUP1 DUP1 PUSH2 0x1C0B SWAP1 PUSH2 0x472A JUMP JUMPDEST SWAP2 POP POP PUSH2 0x1634 JUMP JUMPDEST POP DUP1 SWAP4 POP POP POP POP SWAP1 JUMP JUMPDEST PUSH2 0x1C25 PUSH2 0x3223 JUMP JUMPDEST PUSH2 0x1C2F PUSH1 0x0 PUSH2 0x32A1 JUMP JUMPDEST JUMP JUMPDEST PUSH1 0x0 DUP1 PUSH1 0x0 SWAP1 POP PUSH1 0x0 DUP4 SWAP1 POP PUSH1 0x0 JUMPDEST DUP2 MLOAD DUP2 LT ISZERO PUSH2 0x1CE0 JUMPI PUSH1 0x0 DUP2 DUP4 MLOAD PUSH2 0x1C58 SWAP2 SWAP1 PUSH2 0x4840 JUMP JUMPDEST SWAP1 POP PUSH1 0x0 DUP4 DUP4 DUP2 MLOAD DUP2 LT PUSH2 0x1C6F JUMPI PUSH2 0x1C6E PUSH2 0x43D6 JUMP JUMPDEST JUMPDEST PUSH1 0x20 ADD ADD MLOAD PUSH1 0xF8 SHR PUSH1 0xF8 SHL SWAP1 POP PUSH1 0x0 DUP2 PUSH1 0xF8 SHR SWAP1 POP PUSH1 0x0 PUSH1 0x30 DUP3 PUSH1 0xFF AND PUSH2 0x1C96 SWAP2 SWAP1 PUSH2 0x4840 JUMP JUMPDEST SWAP1 POP PUSH1 0x1 DUP5 PUSH2 0x1CA5 SWAP2 SWAP1 PUSH2 0x4840 JUMP JUMPDEST PUSH1 0xA PUSH2 0x1CB1 SWAP2 SWAP1 PUSH2 0x4A49 JUMP JUMPDEST DUP2 PUSH2 0x1CBC SWAP2 SWAP1 PUSH2 0x4A94 JUMP JUMPDEST DUP8 PUSH2 0x1CC7 SWAP2 SWAP1 PUSH2 0x48C0 JUMP JUMPDEST SWAP7 POP POP POP POP POP DUP1 DUP1 PUSH2 0x1CD8 SWAP1 PUSH2 0x472A JUMP JUMPDEST SWAP2 POP POP PUSH2 0x1C40 JUMP JUMPDEST POP DUP2 SWAP3 POP POP POP SWAP2 SWAP1 POP JUMP JUMPDEST PUSH2 0x1CF3 PUSH2 0x3223 JUMP JUMPDEST DUP2 PUSH1 0x0 PUSH20 0xFFFFFFFFFFFFFFFFFFFFFFFFFFFFFFFFFFFFFFFF AND DUP2 PUSH20 0xFFFFFFFFFFFFFFFFFFFFFFFFFFFFFFFFFFFFFFFF AND EQ ISZERO PUSH2 0x1D64 JUMPI PUSH1 0x40 MLOAD PUSH32 0x8C379A000000000000000000000000000000000000000000000000000000000 DUP2 MSTORE PUSH1 0x4 ADD PUSH2 0x1D5B SWAP1 PUSH2 0x4B60 JUMP JUMPDEST PUSH1 0x40 MLOAD DUP1 SWAP2 SUB SWAP1 REVERT JUMPDEST DUP2 PUSH1 0x7 PUSH1 0x0 DUP6 PUSH20 0xFFFFFFFFFFFFFFFFFFFFFFFFFFFFFFFFFFFFFFFF AND PUSH20 0xFFFFFFFFFFFFFFFFFFFFFFFFFFFFFFFFFFFFFFFF AND DUP2 MSTORE PUSH1 0x20 ADD SWAP1 DUP2 MSTORE PUSH1 0x20 ADD PUSH1 0x0 KECCAK256 SWAP1 DUP1 MLOAD SWAP1 PUSH1 0x20 ADD SWAP1 PUSH2 0x1DB7 SWAP3 SWAP2 SWAP1 PUSH2 0x35A7 JUMP JUMPDEST POP POP POP POP JUMP JUMPDEST PUSH1 0x0 DUP1 PUSH1 0x0 SWAP1 SLOAD SWAP1 PUSH2 0x100 EXP SWAP1 DIV PUSH20 0xFFFFFFFFFFFFFFFFFFFFFFFFFFFFFFFFFFFFFFFF AND SWAP1 POP SWAP1 JUMP JUMPDEST PUSH1 0x7 PUSH1 0x20 MSTORE DUP1 PUSH1 0x0 MSTORE PUSH1 0x40 PUSH1 0x0 KECCAK256 PUSH1 0x0 SWAP2 POP SWAP1 POP DUP1 SLOAD PUSH2 0x1E05 SWAP1 PUSH2 0x41F1 JUMP JUMPDEST DUP1 PUSH1 0x1F ADD PUSH1 0x20 DUP1 SWAP2 DIV MUL PUSH1 0x20 ADD PUSH1 0x40 MLOAD SWAP1 DUP2 ADD PUSH1 0x40 MSTORE DUP1 SWAP3 SWAP2 SWAP1 DUP2 DUP2 MSTORE PUSH1 0x20 ADD DUP3 DUP1 SLOAD PUSH2 0x1E31 SWAP1 PUSH2 0x41F1 JUMP JUMPDEST DUP1 ISZERO PUSH2 0x1E7E JUMPI DUP1 PUSH1 0x1F LT PUSH2 0x1E53 JUMPI PUSH2 0x100 DUP1 DUP4 SLOAD DIV MUL DUP4 MSTORE SWAP2 PUSH1 0x20 ADD SWAP2 PUSH2 0x1E7E JUMP JUMPDEST DUP3 ADD SWAP2 SWAP1 PUSH1 0x0 MSTORE PUSH1 0x20 PUSH1 0x0 KECCAK256 SWAP1 JUMPDEST DUP2 SLOAD DUP2 MSTORE SWAP1 PUSH1 0x1 ADD SWAP1 PUSH1 0x20 ADD DUP1 DUP4 GT PUSH2 0x1E61 JUMPI DUP3 SWAP1 SUB PUSH1 0x1F AND DUP3 ADD SWAP2 JUMPDEST POP POP POP POP POP DUP2 JUMP JUMPDEST PUSH1 0x6 DUP2 DUP2 SLOAD DUP2 LT PUSH2 0x1E96 JUMPI PUSH1 0x0 DUP1 REVERT JUMPDEST SWAP1 PUSH1 0x0 MSTORE PUSH1 0x20 PUSH1 0x0 KECCAK256 SWAP1 PUSH1 0xC MUL ADD PUSH1 0x0 SWAP2 POP SWAP1 POP DUP1 PUSH1 0x0 ADD DUP1 SLOAD PUSH2 0x1EB9 SWAP1 PUSH2 0x41F1 JUMP JUMPDEST DUP1 PUSH1 0x1F ADD PUSH1 0x20 DUP1 SWAP2 DIV MUL PUSH1 0x20 ADD PUSH1 0x40 MLOAD SWAP1 DUP2 ADD PUSH1 0x40 MSTORE DUP1 SWAP3 SWAP2 SWAP1 DUP2 DUP2 MSTORE PUSH1 0x20 ADD DUP3 DUP1 SLOAD PUSH2 0x1EE5 SWAP1 PUSH2 0x41F1 JUMP JUMPDEST DUP1 ISZERO PUSH2 0x1F32 JUMPI DUP1 PUSH1 0x1F LT PUSH2 0x1F07 JUMPI PUSH2 0x100 DUP1 DUP4 SLOAD DIV MUL DUP4 MSTORE SWAP2 PUSH1 0x20 ADD SWAP2 PUSH2 0x1F32 JUMP JUMPDEST DUP3 ADD SWAP2 SWAP1 PUSH1 0x0 MSTORE PUSH1 0x20 PUSH1 0x0 KECCAK256 SWAP1 JUMPDEST DUP2 SLOAD DUP2 MSTORE SWAP1 PUSH1 0x1 ADD SWAP1 PUSH1 0x20 ADD DUP1 DUP4 GT PUSH2 0x1F15 JUMPI DUP3 SWAP1 SUB PUSH1 0x1F AND DUP3 ADD SWAP2 JUMPDEST POP POP POP POP POP SWAP1 DUP1 PUSH1 0x1 ADD DUP1 SLOAD PUSH2 0x1F47 SWAP1 PUSH2 0x41F1 JUMP JUMPDEST DUP1 PUSH1 0x1F ADD PUSH1 0x20 DUP1 SWAP2 DIV MUL PUSH1 0x20 ADD PUSH1 0x40 MLOAD SWAP1 DUP2 ADD PUSH1 0x40 MSTORE DUP1 SWAP3 SWAP2 SWAP1 DUP2 DUP2 MSTORE PUSH1 0x20 ADD DUP3 DUP1 SLOAD PUSH2 0x1F73 SWAP1 PUSH2 0x41F1 JUMP JUMPDEST DUP1 ISZERO PUSH2 0x1FC0 JUMPI DUP1 PUSH1 0x1F LT PUSH2 0x1F95 JUMPI PUSH2 0x100 DUP1 DUP4 SLOAD DIV MUL DUP4 MSTORE SWAP2 PUSH1 0x20 ADD SWAP2 PUSH2 0x1FC0 JUMP JUMPDEST DUP3 ADD SWAP2 SWAP1 PUSH1 0x0 MSTORE PUSH1 0x20 PUSH1 0x0 KECCAK256 SWAP1 JUMPDEST DUP2 SLOAD DUP2 MSTORE SWAP1 PUSH1 0x1 ADD SWAP1 PUSH1 0x20 ADD DUP1 DUP4 GT PUSH2 0x1FA3 JUMPI DUP3 SWAP1 SUB PUSH1 0x1F AND DUP3 ADD SWAP2 JUMPDEST POP POP POP POP POP SWAP1 DUP1 PUSH1 0x2 ADD DUP1 SLOAD PUSH2 0x1FD5 SWAP1 PUSH2 0x41F1 JUMP JUMPDEST DUP1 PUSH1 0x1F ADD PUSH1 0x20 DUP1 SWAP2 DIV MUL PUSH1 0x20 ADD PUSH1 0x40 MLOAD SWAP1 DUP2 ADD PUSH1 0x40 MSTORE DUP1 SWAP3 SWAP2 SWAP1 DUP2 DUP2 MSTORE PUSH1 0x20 ADD DUP3 DUP1 SLOAD PUSH2 0x2001 SWAP1 PUSH2 0x41F1 JUMP JUMPDEST DUP1 ISZERO PUSH2 0x204E JUMPI DUP1 PUSH1 0x1F LT PUSH2 0x2023 JUMPI PUSH2 0x100 DUP1 DUP4 SLOAD DIV MUL DUP4 MSTORE SWAP2 PUSH1 0x20 ADD SWAP2 PUSH2 0x204E JUMP JUMPDEST DUP3 ADD SWAP2 SWAP1 PUSH1 0x0 MSTORE PUSH1 0x20 PUSH1 0x0 KECCAK256 SWAP1 JUMPDEST DUP2 SLOAD DUP2 MSTORE SWAP1 PUSH1 0x1 ADD SWAP1 PUSH1 0x20 ADD DUP1 DUP4 GT PUSH2 0x2031 JUMPI DUP3 SWAP1 SUB PUSH1 0x1F AND DUP3 ADD SWAP2 JUMPDEST POP POP POP POP POP SWAP1 DUP1 PUSH1 0x3 ADD SLOAD SWAP1 DUP1 PUSH1 0x4 ADD SLOAD SWAP1 DUP1 PUSH1 0x5 ADD SLOAD SWAP1 DUP1 PUSH1 0x6 ADD DUP1 SLOAD PUSH2 0x2075 SWAP1 PUSH2 0x41F1 JUMP JUMPDEST DUP1 PUSH1 0x1F ADD PUSH1 0x20 DUP1 SWAP2 DIV MUL PUSH1 0x20 ADD PUSH1 0x40 MLOAD SWAP1 DUP2 ADD PUSH1 0x40 MSTORE DUP1 SWAP3 SWAP2 SWAP1 DUP2 DUP2 MSTORE PUSH1 0x20 ADD DUP3 DUP1 SLOAD PUSH2 0x20A1 SWAP1 PUSH2 0x41F1 JUMP JUMPDEST DUP1 ISZERO PUSH2 0x20EE JUMPI DUP1 PUSH1 0x1F LT PUSH2 0x20C3 JUMPI PUSH2 0x100 DUP1 DUP4 SLOAD DIV MUL DUP4 MSTORE SWAP2 PUSH1 0x20 ADD SWAP2 PUSH2 0x20EE JUMP JUMPDEST DUP3 ADD SWAP2 SWAP1 PUSH1 0x0 MSTORE PUSH1 0x20 PUSH1 0x0 KECCAK256 SWAP1 JUMPDEST DUP2 SLOAD DUP2 MSTORE SWAP1 PUSH1 0x1 ADD SWAP1 PUSH1 0x20 ADD DUP1 DUP4 GT PUSH2 0x20D1 JUMPI DUP3 SWAP1 SUB PUSH1 0x1F AND DUP3 ADD SWAP2 JUMPDEST POP POP POP POP POP SWAP1 DUP1 PUSH1 0x7 ADD DUP1 SLOAD PUSH2 0x2103 SWAP1 PUSH2 0x41F1 JUMP JUMPDEST DUP1 PUSH1 0x1F ADD PUSH1 0x20 DUP1 SWAP2 DIV MUL PUSH1 0x20 ADD PUSH1 0x40 MLOAD SWAP1 DUP2 ADD PUSH1 0x40 MSTORE DUP1 SWAP3 SWAP2 SWAP1 DUP2 DUP2 MSTORE PUSH1 0x20 ADD DUP3 DUP1 SLOAD PUSH2 0x212F SWAP1 PUSH2 0x41F1 JUMP JUMPDEST DUP1 ISZERO PUSH2 0x217C JUMPI DUP1 PUSH1 0x1F LT PUSH2 0x2151 JUMPI PUSH2 0x100 DUP1 DUP4 SLOAD DIV MUL DUP4 MSTORE SWAP2 PUSH1 0x20 ADD SWAP2 PUSH2 0x217C JUMP JUMPDEST DUP3 ADD SWAP2 SWAP1 PUSH1 0x0 MSTORE PUSH1 0x20 PUSH1 0x0 KECCAK256 SWAP1 JUMPDEST DUP2 SLOAD DUP2 MSTORE SWAP1 PUSH1 0x1 ADD SWAP1 PUSH1 0x20 ADD DUP1 DUP4 GT PUSH2 0x215F JUMPI DUP3 SWAP1 SUB PUSH1 0x1F AND DUP3 ADD SWAP2 JUMPDEST POP POP POP POP POP SWAP1 DUP1 PUSH1 0x8 ADD DUP1 SLOAD PUSH2 0x2191 SWAP1 PUSH2 0x41F1 JUMP JUMPDEST DUP1 PUSH1 0x1F ADD PUSH1 0x20 DUP1 SWAP2 DIV MUL PUSH1 0x20 ADD PUSH1 0x40 MLOAD SWAP1 DUP2 ADD PUSH1 0x40 MSTORE DUP1 SWAP3 SWAP2 SWAP1 DUP2 DUP2 MSTORE PUSH1 0x20 ADD DUP3 DUP1 SLOAD PUSH2 0x21BD SWAP1 PUSH2 0x41F1 JUMP JUMPDEST DUP1 ISZERO PUSH2 0x220A JUMPI DUP1 PUSH1 0x1F LT PUSH2 0x21DF JUMPI PUSH2 0x100 DUP1 DUP4 SLOAD DIV MUL DUP4 MSTORE SWAP2 PUSH1 0x20 ADD SWAP2 PUSH2 0x220A JUMP JUMPDEST DUP3 ADD SWAP2 SWAP1 PUSH1 0x0 MSTORE PUSH1 0x20 PUSH1 0x0 KECCAK256 SWAP1 JUMPDEST DUP2 SLOAD DUP2 MSTORE SWAP1 PUSH1 0x1 ADD SWAP1 PUSH1 0x20 ADD DUP1 DUP4 GT PUSH2 0x21ED JUMPI DUP3 SWAP1 SUB PUSH1 0x1F AND DUP3 ADD SWAP2 JUMPDEST POP POP POP POP POP SWAP1 DUP1 PUSH1 0x9 ADD DUP1 SLOAD PUSH2 0x221F SWAP1 PUSH2 0x41F1 JUMP JUMPDEST DUP1 PUSH1 0x1F ADD PUSH1 0x20 DUP1 SWAP2 DIV MUL PUSH1 0x20 ADD PUSH1 0x40 MLOAD SWAP1 DUP2 ADD PUSH1 0x40 MSTORE DUP1 SWAP3 SWAP2 SWAP1 DUP2 DUP2 MSTORE PUSH1 0x20 ADD DUP3 DUP1 SLOAD PUSH2 0x224B SWAP1 PUSH2 0x41F1 JUMP JUMPDEST DUP1 ISZERO PUSH2 0x2298 JUMPI DUP1 PUSH1 0x1F LT PUSH2 0x226D JUMPI PUSH2 0x100 DUP1 DUP4 SLOAD DIV MUL DUP4 MSTORE SWAP2 PUSH1 0x20 ADD SWAP2 PUSH2 0x2298 JUMP JUMPDEST DUP3 ADD SWAP2 SWAP1 PUSH1 0x0 MSTORE PUSH1 0x20 PUSH1 0x0 KECCAK256 SWAP1 JUMPDEST DUP2 SLOAD DUP2 MSTORE SWAP1 PUSH1 0x1 ADD SWAP1 PUSH1 0x20 ADD DUP1 DUP4 GT PUSH2 0x227B JUMPI DUP3 SWAP1 SUB PUSH1 0x1F AND DUP3 ADD SWAP2 JUMPDEST POP POP POP POP POP SWAP1 DUP1 PUSH1 0xA ADD DUP1 SLOAD PUSH2 0x22AD SWAP1 PUSH2 0x41F1 JUMP JUMPDEST DUP1 PUSH1 0x1F ADD PUSH1 0x20 DUP1 SWAP2 DIV MUL PUSH1 0x20 ADD PUSH1 0x40 MLOAD SWAP1 DUP2 ADD PUSH1 0x40 MSTORE DUP1 SWAP3 SWAP2 SWAP1 DUP2 DUP2 MSTORE PUSH1 0x20 ADD DUP3 DUP1 SLOAD PUSH2 0x22D9 SWAP1 PUSH2 0x41F1 JUMP JUMPDEST DUP1 ISZERO PUSH2 0x2326 JUMPI DUP1 PUSH1 0x1F LT PUSH2 0x22FB JUMPI PUSH2 0x100 DUP1 DUP4 SLOAD DIV MUL DUP4 MSTORE SWAP2 PUSH1 0x20 ADD SWAP2 PUSH2 0x2326 JUMP JUMPDEST DUP3 ADD SWAP2 SWAP1 PUSH1 0x0 MSTORE PUSH1 0x20 PUSH1 0x0 KECCAK256 SWAP1 JUMPDEST DUP2 SLOAD DUP2 MSTORE SWAP1 PUSH1 0x1 ADD SWAP1 PUSH1 0x20 ADD DUP1 DUP4 GT PUSH2 0x2309 JUMPI DUP3 SWAP1 SUB PUSH1 0x1F AND DUP3 ADD SWAP2 JUMPDEST POP POP POP POP POP SWAP1 DUP1 PUSH1 0xB ADD DUP1 SLOAD PUSH2 0x233B SWAP1 PUSH2 0x41F1 JUMP JUMPDEST DUP1 PUSH1 0x1F ADD PUSH1 0x20 DUP1 SWAP2 DIV MUL PUSH1 0x20 ADD PUSH1 0x40 MLOAD SWAP1 DUP2 ADD PUSH1 0x40 MSTORE DUP1 SWAP3 SWAP2 SWAP1 DUP2 DUP2 MSTORE PUSH1 0x20 ADD DUP3 DUP1 SLOAD PUSH2 0x2367 SWAP1 PUSH2 0x41F1 JUMP JUMPDEST DUP1 ISZERO PUSH2 0x23B4 JUMPI DUP1 PUSH1 0x1F LT PUSH2 0x2389 JUMPI PUSH2 0x100 DUP1 DUP4 SLOAD DIV MUL DUP4 MSTORE SWAP2 PUSH1 0x20 ADD SWAP2 PUSH2 0x23B4 JUMP JUMPDEST DUP3 ADD SWAP2 SWAP1 PUSH1 0x0 MSTORE PUSH1 0x20 PUSH1 0x0 KECCAK256 SWAP1 JUMPDEST DUP2 SLOAD DUP2 MSTORE SWAP1 PUSH1 0x1 ADD SWAP1 PUSH1 0x20 ADD DUP1 DUP4 GT PUSH2 0x2397 JUMPI DUP3 SWAP1 SUB PUSH1 0x1F AND DUP3 ADD SWAP2 JUMPDEST POP POP POP POP POP SWAP1 POP DUP13 JUMP JUMPDEST PUSH1 0x5 DUP2 DUP1 MLOAD PUSH1 0x20 DUP2 ADD DUP3 ADD DUP1 MLOAD DUP5 DUP3 MSTORE PUSH1 0x20 DUP4 ADD PUSH1 0x20 DUP6 ADD KECCAK256 DUP2 DUP4 MSTORE DUP1 SWAP6 POP POP POP POP POP POP PUSH1 0x0 SWAP2 POP SWAP1 POP DUP1 PUSH1 0x0 ADD DUP1 SLOAD PUSH2 0x23F7 SWAP1 PUSH2 0x41F1 JUMP JUMPDEST DUP1 PUSH1 0x1F ADD PUSH1 0x20 DUP1 SWAP2 DIV MUL PUSH1 0x20 ADD PUSH1 0x40 MLOAD SWAP1 DUP2 ADD PUSH1 0x40 MSTORE DUP1 SWAP3 SWAP2 SWAP1 DUP2 DUP2 MSTORE PUSH1 0x20 ADD DUP3 DUP1 SLOAD PUSH2 0x2423 SWAP1 PUSH2 0x41F1 JUMP JUMPDEST DUP1 ISZERO PUSH2 0x2470 JUMPI DUP1 PUSH1 0x1F LT PUSH2 0x2445 JUMPI PUSH2 0x100 DUP1 DUP4 SLOAD DIV MUL DUP4 MSTORE SWAP2 PUSH1 0x20 ADD SWAP2 PUSH2 0x2470 JUMP JUMPDEST DUP3 ADD SWAP2 SWAP1 PUSH1 0x0 MSTORE PUSH1 0x20 PUSH1 0x0 KECCAK256 SWAP1 JUMPDEST DUP2 SLOAD DUP2 MSTORE SWAP1 PUSH1 0x1 ADD SWAP1 PUSH1 0x20 ADD DUP1 DUP4 GT PUSH2 0x2453 JUMPI DUP3 SWAP1 SUB PUSH1 0x1F AND DUP3 ADD SWAP2 JUMPDEST POP POP POP POP POP SWAP1 DUP1 PUSH1 0x1 ADD DUP1 SLOAD PUSH2 0x2485 SWAP1 PUSH2 0x41F1 JUMP JUMPDEST DUP1 PUSH1 0x1F ADD PUSH1 0x20 DUP1 SWAP2 DIV MUL PUSH1 0x20 ADD PUSH1 0x40 MLOAD SWAP1 DUP2 ADD PUSH1 0x40 MSTORE DUP1 SWAP3 SWAP2 SWAP1 DUP2 DUP2 MSTORE PUSH1 0x20 ADD DUP3 DUP1 SLOAD PUSH2 0x24B1 SWAP1 PUSH2 0x41F1 JUMP JUMPDEST DUP1 ISZERO PUSH2 0x24FE JUMPI DUP1 PUSH1 0x1F LT PUSH2 0x24D3 JUMPI PUSH2 0x100 DUP1 DUP4 SLOAD DIV MUL DUP4 MSTORE SWAP2 PUSH1 0x20 ADD SWAP2 PUSH2 0x24FE JUMP JUMPDEST DUP3 ADD SWAP2 SWAP1 PUSH1 0x0 MSTORE PUSH1 0x20 PUSH1 0x0 KECCAK256 SWAP1 JUMPDEST DUP2 SLOAD DUP2 MSTORE SWAP1 PUSH1 0x1 ADD SWAP1 PUSH1 0x20 ADD DUP1 DUP4 GT PUSH2 0x24E1 JUMPI DUP3 SWAP1 SUB PUSH1 0x1F AND DUP3 ADD SWAP2 JUMPDEST POP POP POP POP POP SWAP1 DUP1 PUSH1 0x2 ADD DUP1 SLOAD PUSH2 0x2513 SWAP1 PUSH2 0x41F1 JUMP JUMPDEST DUP1 PUSH1 0x1F ADD PUSH1 0x20 DUP1 SWAP2 DIV MUL PUSH1 0x20 ADD PUSH1 0x40 MLOAD SWAP1 DUP2 ADD PUSH1 0x40 MSTORE DUP1 SWAP3 SWAP2 SWAP1 DUP2 DUP2 MSTORE PUSH1 0x20 ADD DUP3 DUP1 SLOAD PUSH2 0x253F SWAP1 PUSH2 0x41F1 JUMP JUMPDEST DUP1 ISZERO PUSH2 0x258C JUMPI DUP1 PUSH1 0x1F LT PUSH2 0x2561 JUMPI PUSH2 0x100 DUP1 DUP4 SLOAD DIV MUL DUP4 MSTORE SWAP2 PUSH1 0x20 ADD SWAP2 PUSH2 0x258C JUMP JUMPDEST DUP3 ADD SWAP2 SWAP1 PUSH1 0x0 MSTORE PUSH1 0x20 PUSH1 0x0 KECCAK256 SWAP1 JUMPDEST DUP2 SLOAD DUP2 MSTORE SWAP1 PUSH1 0x1 ADD SWAP1 PUSH1 0x20 ADD DUP1 DUP4 GT PUSH2 0x256F JUMPI DUP3 SWAP1 SUB PUSH1 0x1F AND DUP3 ADD SWAP2 JUMPDEST POP POP POP POP POP SWAP1 DUP1 PUSH1 0x3 ADD SLOAD SWAP1 DUP1 PUSH1 0x4 ADD SLOAD SWAP1 DUP1 PUSH1 0x5 ADD SLOAD SWAP1 DUP1 PUSH1 0x6 ADD DUP1 SLOAD PUSH2 0x25B3 SWAP1 PUSH2 0x41F1 JUMP JUMPDEST DUP1 PUSH1 0x1F ADD PUSH1 0x20 DUP1 SWAP2 DIV MUL PUSH1 0x20 ADD PUSH1 0x40 MLOAD SWAP1 DUP2 ADD PUSH1 0x40 MSTORE DUP1 SWAP3 SWAP2 SWAP1 DUP2 DUP2 MSTORE PUSH1 0x20 ADD DUP3 DUP1 SLOAD PUSH2 0x25DF SWAP1 PUSH2 0x41F1 JUMP JUMPDEST DUP1 ISZERO PUSH2 0x262C JUMPI DUP1 PUSH1 0x1F LT PUSH2 0x2601 JUMPI PUSH2 0x100 DUP1 DUP4 SLOAD DIV MUL DUP4 MSTORE SWAP2 PUSH1 0x20 ADD SWAP2 PUSH2 0x262C JUMP JUMPDEST DUP3 ADD SWAP2 SWAP1 PUSH1 0x0 MSTORE PUSH1 0x20 PUSH1 0x0 KECCAK256 SWAP1 JUMPDEST DUP2 SLOAD DUP2 MSTORE SWAP1 PUSH1 0x1 ADD SWAP1 PUSH1 0x20 ADD DUP1 DUP4 GT PUSH2 0x260F JUMPI DUP3 SWAP1 SUB PUSH1 0x1F AND DUP3 ADD SWAP2 JUMPDEST POP POP POP POP POP SWAP1 DUP1 PUSH1 0x7 ADD DUP1 SLOAD PUSH2 0x2641 SWAP1 PUSH2 0x41F1 JUMP JUMPDEST DUP1 PUSH1 0x1F ADD PUSH1 0x20 DUP1 SWAP2 DIV MUL PUSH1 0x20 ADD PUSH1 0x40 MLOAD SWAP1 DUP2 ADD PUSH1 0x40 MSTORE DUP1 SWAP3 SWAP2 SWAP1 DUP2 DUP2 MSTORE PUSH1 0x20 ADD DUP3 DUP1 SLOAD PUSH2 0x266D SWAP1 PUSH2 0x41F1 JUMP JUMPDEST DUP1 ISZERO PUSH2 0x26BA JUMPI DUP1 PUSH1 0x1F LT PUSH2 0x268F JUMPI PUSH2 0x100 DUP1 DUP4 SLOAD DIV MUL DUP4 MSTORE SWAP2 PUSH1 0x20 ADD SWAP2 PUSH2 0x26BA JUMP JUMPDEST DUP3 ADD SWAP2 SWAP1 PUSH1 0x0 MSTORE PUSH1 0x20 PUSH1 0x0 KECCAK256 SWAP1 JUMPDEST DUP2 SLOAD DUP2 MSTORE SWAP1 PUSH1 0x1 ADD SWAP1 PUSH1 0x20 ADD DUP1 DUP4 GT PUSH2 0x269D JUMPI DUP3 SWAP1 SUB PUSH1 0x1F AND DUP3 ADD SWAP2 JUMPDEST POP POP POP POP POP SWAP1 DUP1 PUSH1 0x8 ADD DUP1 SLOAD PUSH2 0x26CF SWAP1 PUSH2 0x41F1 JUMP JUMPDEST DUP1 PUSH1 0x1F ADD PUSH1 0x20 DUP1 SWAP2 DIV MUL PUSH1 0x20 ADD PUSH1 0x40 MLOAD SWAP1 DUP2 ADD PUSH1 0x40 MSTORE DUP1 SWAP3 SWAP2 SWAP1 DUP2 DUP2 MSTORE PUSH1 0x20 ADD DUP3 DUP1 SLOAD PUSH2 0x26FB SWAP1 PUSH2 0x41F1 JUMP JUMPDEST DUP1 ISZERO PUSH2 0x2748 JUMPI DUP1 PUSH1 0x1F LT PUSH2 0x271D JUMPI PUSH2 0x100 DUP1 DUP4 SLOAD DIV MUL DUP4 MSTORE SWAP2 PUSH1 0x20 ADD SWAP2 PUSH2 0x2748 JUMP JUMPDEST DUP3 ADD SWAP2 SWAP1 PUSH1 0x0 MSTORE PUSH1 0x20 PUSH1 0x0 KECCAK256 SWAP1 JUMPDEST DUP2 SLOAD DUP2 MSTORE SWAP1 PUSH1 0x1 ADD SWAP1 PUSH1 0x20 ADD DUP1 DUP4 GT PUSH2 0x272B JUMPI DUP3 SWAP1 SUB PUSH1 0x1F AND DUP3 ADD SWAP2 JUMPDEST POP POP POP POP POP SWAP1 DUP1 PUSH1 0x9 ADD DUP1 SLOAD PUSH2 0x275D SWAP1 PUSH2 0x41F1 JUMP JUMPDEST DUP1 PUSH1 0x1F ADD PUSH1 0x20 DUP1 SWAP2 DIV MUL PUSH1 0x20 ADD PUSH1 0x40 MLOAD SWAP1 DUP2 ADD PUSH1 0x40 MSTORE DUP1 SWAP3 SWAP2 SWAP1 DUP2 DUP2 MSTORE PUSH1 0x20 ADD DUP3 DUP1 SLOAD PUSH2 0x2789 SWAP1 PUSH2 0x41F1 JUMP JUMPDEST DUP1 ISZERO PUSH2 0x27D6 JUMPI DUP1 PUSH1 0x1F LT PUSH2 0x27AB JUMPI PUSH2 0x100 DUP1 DUP4 SLOAD DIV MUL DUP4 MSTORE SWAP2 PUSH1 0x20 ADD SWAP2 PUSH2 0x27D6 JUMP JUMPDEST DUP3 ADD SWAP2 SWAP1 PUSH1 0x0 MSTORE PUSH1 0x20 PUSH1 0x0 KECCAK256 SWAP1 JUMPDEST DUP2 SLOAD DUP2 MSTORE SWAP1 PUSH1 0x1 ADD SWAP1 PUSH1 0x20 ADD DUP1 DUP4 GT PUSH2 0x27B9 JUMPI DUP3 SWAP1 SUB PUSH1 0x1F AND DUP3 ADD SWAP2 JUMPDEST POP POP POP POP POP SWAP1 DUP1 PUSH1 0xA ADD DUP1 SLOAD PUSH2 0x27EB SWAP1 PUSH2 0x41F1 JUMP JUMPDEST DUP1 PUSH1 0x1F ADD PUSH1 0x20 DUP1 SWAP2 DIV MUL PUSH1 0x20 ADD PUSH1 0x40 MLOAD SWAP1 DUP2 ADD PUSH1 0x40 MSTORE DUP1 SWAP3 SWAP2 SWAP1 DUP2 DUP2 MSTORE PUSH1 0x20 ADD DUP3 DUP1 SLOAD PUSH2 0x2817 SWAP1 PUSH2 0x41F1 JUMP JUMPDEST DUP1 ISZERO PUSH2 0x2864 JUMPI DUP1 PUSH1 0x1F LT PUSH2 0x2839 JUMPI PUSH2 0x100 DUP1 DUP4 SLOAD DIV MUL DUP4 MSTORE SWAP2 PUSH1 0x20 ADD SWAP2 PUSH2 0x2864 JUMP JUMPDEST DUP3 ADD SWAP2 SWAP1 PUSH1 0x0 MSTORE PUSH1 0x20 PUSH1 0x0 KECCAK256 SWAP1 JUMPDEST DUP2 SLOAD DUP2 MSTORE SWAP1 PUSH1 0x1 ADD SWAP1 PUSH1 0x20 ADD DUP1 DUP4 GT PUSH2 0x2847 JUMPI DUP3 SWAP1 SUB PUSH1 0x1F AND DUP3 ADD SWAP2 JUMPDEST POP POP POP POP POP SWAP1 DUP1 PUSH1 0xB ADD DUP1 SLOAD PUSH2 0x2879 SWAP1 PUSH2 0x41F1 JUMP JUMPDEST DUP1 PUSH1 0x1F ADD PUSH1 0x20 DUP1 SWAP2 DIV MUL PUSH1 0x20 ADD PUSH1 0x40 MLOAD SWAP1 DUP2 ADD PUSH1 0x40 MSTORE DUP1 SWAP3 SWAP2 SWAP1 DUP2 DUP2 MSTORE PUSH1 0x20 ADD DUP3 DUP1 SLOAD PUSH2 0x28A5 SWAP1 PUSH2 0x41F1 JUMP JUMPDEST DUP1 ISZERO PUSH2 0x28F2 JUMPI DUP1 PUSH1 0x1F LT PUSH2 0x28C7 JUMPI PUSH2 0x100 DUP1 DUP4 SLOAD DIV MUL DUP4 MSTORE SWAP2 PUSH1 0x20 ADD SWAP2 PUSH2 0x28F2 JUMP JUMPDEST DUP3 ADD SWAP2 SWAP1 PUSH1 0x0 MSTORE PUSH1 0x20 PUSH1 0x0 KECCAK256 SWAP1 JUMPDEST DUP2 SLOAD DUP2 MSTORE SWAP1 PUSH1 0x1 ADD SWAP1 PUSH1 0x20 ADD DUP1 DUP4 GT PUSH2 0x28D5 JUMPI DUP3 SWAP1 SUB PUSH1 0x1F AND DUP3 ADD SWAP2 JUMPDEST POP POP POP POP POP SWAP1 POP DUP13 JUMP JUMPDEST PUSH2 0x2904 PUSH2 0x3223 JUMP JUMPDEST PUSH1 0x0 PUSH20 0xFFFFFFFFFFFFFFFFFFFFFFFFFFFFFFFFFFFFFFFF AND DUP2 PUSH20 0xFFFFFFFFFFFFFFFFFFFFFFFFFFFFFFFFFFFFFFFF AND EQ ISZERO PUSH2 0x2974 JUMPI PUSH1 0x40 MLOAD PUSH32 0x8C379A000000000000000000000000000000000000000000000000000000000 DUP2 MSTORE PUSH1 0x4 ADD PUSH2 0x296B SWAP1 PUSH2 0x4BF2 JUMP JUMPDEST PUSH1 0x40 MLOAD DUP1 SWAP2 SUB SWAP1 REVERT JUMPDEST PUSH2 0x297D DUP2 PUSH2 0x32A1 JUMP JUMPDEST POP JUMP JUMPDEST PUSH1 0x40 MLOAD PUSH1 0x20 ADD PUSH2 0x298F SWAP1 PUSH2 0x47BF JUMP JUMPDEST PUSH1 0x40 MLOAD PUSH1 0x20 DUP2 DUP4 SUB SUB DUP2 MSTORE SWAP1 PUSH1 0x40 MSTORE DUP1 MLOAD SWAP1 PUSH1 0x20 ADD KECCAK256 PUSH1 0x7 PUSH1 0x0 CALLER PUSH20 0xFFFFFFFFFFFFFFFFFFFFFFFFFFFFFFFFFFFFFFFF AND PUSH20 0xFFFFFFFFFFFFFFFFFFFFFFFFFFFFFFFFFFFFFFFF AND DUP2 MSTORE PUSH1 0x20 ADD SWAP1 DUP2 MSTORE PUSH1 0x20 ADD PUSH1 0x0 KECCAK256 PUSH1 0x40 MLOAD PUSH1 0x20 ADD PUSH2 0x29F4 SWAP2 SWAP1 PUSH2 0x42F2 JUMP JUMPDEST PUSH1 0x40 MLOAD PUSH1 0x20 DUP2 DUP4 SUB SUB DUP2 MSTORE SWAP1 PUSH1 0x40 MSTORE DUP1 MLOAD SWAP1 PUSH1 0x20 ADD KECCAK256 EQ PUSH2 0x2A4A JUMPI PUSH1 0x40 MLOAD PUSH32 0x8C379A000000000000000000000000000000000000000000000000000000000 DUP2 MSTORE PUSH1 0x4 ADD PUSH2 0x2A41 SWAP1 PUSH2 0x4820 JUMP JUMPDEST PUSH1 0x40 MLOAD DUP1 SWAP2 SUB SWAP1 REVERT JUMPDEST PUSH1 0x0 PUSH2 0x2A57 PUSH1 0x3 SLOAD PUSH2 0x314B JUMP JUMPDEST PUSH1 0x40 MLOAD PUSH1 0x20 ADD PUSH2 0x2A67 SWAP2 SWAP1 PUSH2 0x489A JUMP JUMPDEST PUSH1 0x40 MLOAD PUSH1 0x20 DUP2 DUP4 SUB SUB DUP2 MSTORE SWAP1 PUSH1 0x40 MSTORE SWAP1 POP PUSH1 0x0 PUSH1 0x40 MLOAD DUP1 PUSH2 0x180 ADD PUSH1 0x40 MSTORE DUP1 DUP4 DUP2 MSTORE PUSH1 0x20 ADD PUSH2 0x2A97 PUSH1 0x3 SLOAD PUSH2 0x314B JUMP JUMPDEST PUSH1 0x40 MLOAD PUSH1 0x20 ADD PUSH2 0x2AA7 SWAP2 SWAP1 PUSH2 0x4C38 JUMP JUMPDEST PUSH1 0x40 MLOAD PUSH1 0x20 DUP2 DUP4 SUB SUB DUP2 MSTORE SWAP1 PUSH1 0x40 MSTORE DUP2 MSTORE PUSH1 0x20 ADD DUP8 DUP2 MSTORE PUSH1 0x20 ADD DUP7 DUP2 MSTORE PUSH1 0x20 ADD DUP6 DUP2 MSTORE PUSH1 0x20 ADD PUSH1 0x0 DUP2 MSTORE PUSH1 0x20 ADD DUP5 DUP2 MSTORE PUSH1 0x20 ADD PUSH1 0x40 MLOAD DUP1 PUSH1 0x20 ADD PUSH1 0x40 MSTORE DUP1 PUSH1 0x0 DUP2 MSTORE POP DUP2 MSTORE PUSH1 0x20 ADD PUSH1 0x40 MLOAD DUP1 PUSH1 0x20 ADD PUSH1 0x40 MSTORE DUP1 PUSH1 0x0 DUP2 MSTORE POP DUP2 MSTORE PUSH1 0x20 ADD PUSH1 0x40 MLOAD DUP1 PUSH1 0x20 ADD PUSH1 0x40 MSTORE DUP1 PUSH1 0x0 DUP2 MSTORE POP DUP2 MSTORE PUSH1 0x20 ADD PUSH1 0x40 MLOAD DUP1 PUSH1 0x20 ADD PUSH1 0x40 MSTORE DUP1 PUSH1 0x0 DUP2 MSTORE POP DUP2 MSTORE PUSH1 0x20 ADD PUSH1 0x40 MLOAD DUP1 PUSH1 0x20 ADD PUSH1 0x40 MSTORE DUP1 PUSH1 0x0 DUP2 MSTORE POP DUP2 MSTORE POP SWAP1 POP PUSH1 0x6 DUP2 SWAP1 DUP1 PUSH1 0x1 DUP2 SLOAD ADD DUP1 DUP3 SSTORE DUP1 SWAP2 POP POP PUSH1 0x1 SWAP1 SUB SWAP1 PUSH1 0x0 MSTORE PUSH1 0x20 PUSH1 0x0 KECCAK256 SWAP1 PUSH1 0xC MUL ADD PUSH1 0x0 SWAP1 SWAP2 SWAP1 SWAP2 SWAP1 SWAP2 POP PUSH1 0x0 DUP3 ADD MLOAD DUP2 PUSH1 0x0 ADD SWAP1 DUP1 MLOAD SWAP1 PUSH1 0x20 ADD SWAP1 PUSH2 0x2B8B SWAP3 SWAP2 SWAP1 PUSH2 0x35A7 JUMP JUMPDEST POP PUSH1 0x20 DUP3 ADD MLOAD DUP2 PUSH1 0x1 ADD SWAP1 DUP1 MLOAD SWAP1 PUSH1 0x20 ADD SWAP1 PUSH2 0x2BA8 SWAP3 SWAP2 SWAP1 PUSH2 0x35A7 JUMP JUMPDEST POP PUSH1 0x40 DUP3 ADD MLOAD DUP2 PUSH1 0x2 ADD SWAP1 DUP1 MLOAD SWAP1 PUSH1 0x20 ADD SWAP1 PUSH2 0x2BC5 SWAP3 SWAP2 SWAP1 PUSH2 0x35A7 JUMP JUMPDEST POP PUSH1 0x60 DUP3 ADD MLOAD DUP2 PUSH1 0x3 ADD SSTORE PUSH1 0x80 DUP3 ADD MLOAD DUP2 PUSH1 0x4 ADD SSTORE PUSH1 0xA0 DUP3 ADD MLOAD DUP2 PUSH1 0x5 ADD SSTORE PUSH1 0xC0 DUP3 ADD MLOAD DUP2 PUSH1 0x6 ADD SWAP1 DUP1 MLOAD SWAP1 PUSH1 0x20 ADD SWAP1 PUSH2 0x2C00 SWAP3 SWAP2 SWAP1 PUSH2 0x35A7 JUMP JUMPDEST POP PUSH1 0xE0 DUP3 ADD MLOAD DUP2 PUSH1 0x7 ADD SWAP1 DUP1 MLOAD SWAP1 PUSH1 0x20 ADD SWAP1 PUSH2 0x2C1D SWAP3 SWAP2 SWAP1 PUSH2 0x35A7 JUMP JUMPDEST POP PUSH2 0x100 DUP3 ADD MLOAD DUP2 PUSH1 0x8 ADD SWAP1 DUP1 MLOAD SWAP1 PUSH1 0x20 ADD SWAP1 PUSH2 0x2C3B SWAP3 SWAP2 SWAP1 PUSH2 0x35A7 JUMP JUMPDEST POP PUSH2 0x120 DUP3 ADD MLOAD DUP2 PUSH1 0x9 ADD SWAP1 DUP1 MLOAD SWAP1 PUSH1 0x20 ADD SWAP1 PUSH2 0x2C59 SWAP3 SWAP2 SWAP1 PUSH2 0x35A7 JUMP JUMPDEST POP PUSH2 0x140 DUP3 ADD MLOAD DUP2 PUSH1 0xA ADD SWAP1 DUP1 MLOAD SWAP1 PUSH1 0x20 ADD SWAP1 PUSH2 0x2C77 SWAP3 SWAP2 SWAP1 PUSH2 0x35A7 JUMP JUMPDEST POP PUSH2 0x160 DUP3 ADD MLOAD DUP2 PUSH1 0xB ADD SWAP1 DUP1 MLOAD SWAP1 PUSH1 0x20 ADD SWAP1 PUSH2 0x2C95 SWAP3 SWAP2 SWAP1 PUSH2 0x35A7 JUMP JUMPDEST POP POP POP DUP1 PUSH1 0x5 DUP4 PUSH1 0x40 MLOAD PUSH2 0x2CA9 SWAP2 SWAP1 PUSH2 0x41AB JUMP JUMPDEST SWAP1 DUP2 MSTORE PUSH1 0x20 ADD PUSH1 0x40 MLOAD DUP1 SWAP2 SUB SWAP1 KECCAK256 PUSH1 0x0 DUP3 ADD MLOAD DUP2 PUSH1 0x0 ADD SWAP1 DUP1 MLOAD SWAP1 PUSH1 0x20 ADD SWAP1 PUSH2 0x2CD3 SWAP3 SWAP2 SWAP1 PUSH2 0x35A7 JUMP JUMPDEST POP PUSH1 0x20 DUP3 ADD MLOAD DUP2 PUSH1 0x1 ADD SWAP1 DUP1 MLOAD SWAP1 PUSH1 0x20 ADD SWAP1 PUSH2 0x2CF0 SWAP3 SWAP2 SWAP1 PUSH2 0x35A7 JUMP JUMPDEST POP PUSH1 0x40 DUP3 ADD MLOAD DUP2 PUSH1 0x2 ADD SWAP1 DUP1 MLOAD SWAP1 PUSH1 0x20 ADD SWAP1 PUSH2 0x2D0D SWAP3 SWAP2 SWAP1 PUSH2 0x35A7 JUMP JUMPDEST POP PUSH1 0x60 DUP3 ADD MLOAD DUP2 PUSH1 0x3 ADD SSTORE PUSH1 0x80 DUP3 ADD MLOAD DUP2 PUSH1 0x4 ADD SSTORE PUSH1 0xA0 DUP3 ADD MLOAD DUP2 PUSH1 0x5 ADD SSTORE PUSH1 0xC0 DUP3 ADD MLOAD DUP2 PUSH1 0x6 ADD SWAP1 DUP1 MLOAD SWAP1 PUSH1 0x20 ADD SWAP1 PUSH2 0x2D48 SWAP3 SWAP2 SWAP1 PUSH2 0x35A7 JUMP JUMPDEST POP PUSH1 0xE0 DUP3 ADD MLOAD DUP2 PUSH1 0x7 ADD SWAP1 DUP1 MLOAD SWAP1 PUSH1 0x20 ADD SWAP1 PUSH2 0x2D65 SWAP3 SWAP2 SWAP1 PUSH2 0x35A7 JUMP JUMPDEST POP PUSH2 0x100 DUP3 ADD MLOAD DUP2 PUSH1 0x8 ADD SWAP1 DUP1 MLOAD SWAP1 PUSH1 0x20 ADD SWAP1 PUSH2 0x2D83 SWAP3 SWAP2 SWAP1 PUSH2 0x35A7 JUMP JUMPDEST POP PUSH2 0x120 DUP3 ADD MLOAD DUP2 PUSH1 0x9 ADD SWAP1 DUP1 MLOAD SWAP1 PUSH1 0x20 ADD SWAP1 PUSH2 0x2DA1 SWAP3 SWAP2 SWAP1 PUSH2 0x35A7 JUMP JUMPDEST POP PUSH2 0x140 DUP3 ADD MLOAD DUP2 PUSH1 0xA ADD SWAP1 DUP1 MLOAD SWAP1 PUSH1 0x20 ADD SWAP1 PUSH2 0x2DBF SWAP3 SWAP2 SWAP1 PUSH2 0x35A7 JUMP JUMPDEST POP PUSH2 0x160 DUP3 ADD MLOAD DUP2 PUSH1 0xB ADD SWAP1 DUP1 MLOAD SWAP1 PUSH1 0x20 ADD SWAP1 PUSH2 0x2DDD SWAP3 SWAP2 SWAP1 PUSH2 0x35A7 JUMP JUMPDEST POP SWAP1 POP POP PUSH1 0x1 PUSH1 0x3 PUSH1 0x0 DUP3 DUP3 SLOAD PUSH2 0x2DF4 SWAP2 SWAP1 PUSH2 0x48C0 JUMP JUMPDEST SWAP3 POP POP DUP2 SWAP1 SSTORE POP PUSH32 0x1B21032942411443543E7923F2DA271066AD99511AA6FFCDA3BB43030B9157D4 DUP3 PUSH1 0x40 MLOAD PUSH2 0x2E2A SWAP2 SWAP1 PUSH2 0x3EFB JUMP JUMPDEST PUSH1 0x40 MLOAD DUP1 SWAP2 SUB SWAP1 LOG1 POP POP POP POP POP POP JUMP JUMPDEST PUSH1 0x60 PUSH1 0x7 PUSH1 0x0 CALLER PUSH20 0xFFFFFFFFFFFFFFFFFFFFFFFFFFFFFFFFFFFFFFFF AND PUSH20 0xFFFFFFFFFFFFFFFFFFFFFFFFFFFFFFFFFFFFFFFF AND DUP2 MSTORE PUSH1 0x20 ADD SWAP1 DUP2 MSTORE PUSH1 0x20 ADD PUSH1 0x0 KECCAK256 DUP1 SLOAD PUSH2 0x2E86 SWAP1 PUSH2 0x41F1 JUMP JUMPDEST DUP1 PUSH1 0x1F ADD PUSH1 0x20 DUP1 SWAP2 DIV MUL PUSH1 0x20 ADD PUSH1 0x40 MLOAD SWAP1 DUP2 ADD PUSH1 0x40 MSTORE DUP1 SWAP3 SWAP2 SWAP1 DUP2 DUP2 MSTORE PUSH1 0x20 ADD DUP3 DUP1 SLOAD PUSH2 0x2EB2 SWAP1 PUSH2 0x41F1 JUMP JUMPDEST DUP1 ISZERO PUSH2 0x2EFF JUMPI DUP1 PUSH1 0x1F LT PUSH2 0x2ED4 JUMPI PUSH2 0x100 DUP1 DUP4 SLOAD DIV MUL DUP4 MSTORE SWAP2 PUSH1 0x20 ADD SWAP2 PUSH2 0x2EFF JUMP JUMPDEST DUP3 ADD SWAP2 SWAP1 PUSH1 0x0 MSTORE PUSH1 0x20 PUSH1 0x0 KECCAK256 SWAP1 JUMPDEST DUP2 SLOAD DUP2 MSTORE SWAP1 PUSH1 0x1 ADD SWAP1 PUSH1 0x20 ADD DUP1 DUP4 GT PUSH2 0x2EE2 JUMPI DUP3 SWAP1 SUB PUSH1 0x1F AND DUP3 ADD SWAP2 JUMPDEST POP POP POP POP POP SWAP1 POP SWAP1 JUMP JUMPDEST PUSH1 0x60 PUSH1 0x0 PUSH1 0x1 PUSH8 0xFFFFFFFFFFFFFFFF DUP2 GT ISZERO PUSH2 0x2F28 JUMPI PUSH2 0x2F27 PUSH2 0x3679 JUMP JUMPDEST JUMPDEST PUSH1 0x40 MLOAD SWAP1 DUP1 DUP3 MSTORE DUP1 PUSH1 0x1F ADD PUSH1 0x1F NOT AND PUSH1 0x20 ADD DUP3 ADD PUSH1 0x40 MSTORE DUP1 ISZERO PUSH2 0x2F5A JUMPI DUP2 PUSH1 0x20 ADD PUSH1 0x1 DUP3 MUL DUP1 CALLDATASIZE DUP4 CALLDATACOPY DUP1 DUP3 ADD SWAP2 POP POP SWAP1 POP JUMPDEST POP SWAP1 POP DUP3 PUSH1 0x0 DUP2 MLOAD DUP2 LT PUSH2 0x2F71 JUMPI PUSH2 0x2F70 PUSH2 0x43D6 JUMP JUMPDEST JUMPDEST PUSH1 0x20 ADD ADD MLOAD PUSH1 0xF8 SHR PUSH1 0xF8 SHL DUP2 PUSH1 0x0 DUP2 MLOAD DUP2 LT PUSH2 0x2F90 JUMPI PUSH2 0x2F8F PUSH2 0x43D6 JUMP JUMPDEST JUMPDEST PUSH1 0x20 ADD ADD SWAP1 PUSH31 0xFFFFFFFFFFFFFFFFFFFFFFFFFFFFFFFFFFFFFFFFFFFFFFFFFFFFFFFFFFFFFF NOT AND SWAP1 DUP2 PUSH1 0x0 BYTE SWAP1 MSTORE8 POP DUP1 SWAP2 POP POP SWAP2 SWAP1 POP JUMP JUMPDEST PUSH1 0x60 PUSH1 0x0 DUP3 SWAP1 POP PUSH1 0x0 DUP2 MLOAD PUSH8 0xFFFFFFFFFFFFFFFF DUP2 GT ISZERO PUSH2 0x2FEC JUMPI PUSH2 0x2FEB PUSH2 0x3679 JUMP JUMPDEST JUMPDEST PUSH1 0x40 MLOAD SWAP1 DUP1 DUP3 MSTORE DUP1 PUSH1 0x1F ADD PUSH1 0x1F NOT AND PUSH1 0x20 ADD DUP3 ADD PUSH1 0x40 MSTORE DUP1 ISZERO PUSH2 0x301E JUMPI DUP2 PUSH1 0x20 ADD PUSH1 0x1 DUP3 MUL DUP1 CALLDATASIZE DUP4 CALLDATACOPY DUP1 DUP3 ADD SWAP2 POP POP SWAP1 POP JUMPDEST POP SWAP1 POP PUSH1 0x0 JUMPDEST DUP3 MLOAD DUP2 LT ISZERO PUSH2 0x3140 JUMPI DUP3 DUP2 DUP2 MLOAD DUP2 LT PUSH2 0x3040 JUMPI PUSH2 0x303F PUSH2 0x43D6 JUMP JUMPDEST JUMPDEST PUSH1 0x20 ADD ADD MLOAD PUSH1 0xF8 SHR PUSH1 0xF8 SHL DUP3 DUP3 DUP2 MLOAD DUP2 LT PUSH2 0x305E JUMPI PUSH2 0x305D PUSH2 0x43D6 JUMP JUMPDEST JUMPDEST PUSH1 0x20 ADD ADD SWAP1 PUSH31 0xFFFFFFFFFFFFFFFFFFFFFFFFFFFFFFFFFFFFFFFFFFFFFFFFFFFFFFFFFFFFFF NOT AND SWAP1 DUP2 PUSH1 0x0 BYTE SWAP1 MSTORE8 POP PUSH1 0x0 DUP2 EQ ISZERO PUSH2 0x312D JUMPI PUSH1 0x40 MLOAD DUP1 PUSH1 0x40 ADD PUSH1 0x40 MSTORE DUP1 PUSH1 0x1 DUP2 MSTORE PUSH1 0x20 ADD PUSH32 0x5300000000000000000000000000000000000000000000000000000000000000 DUP2 MSTORE POP PUSH1 0x0 DUP2 MLOAD DUP2 LT PUSH2 0x30DF JUMPI PUSH2 0x30DE PUSH2 0x43D6 JUMP JUMPDEST JUMPDEST PUSH1 0x20 ADD ADD MLOAD PUSH1 0xF8 SHR PUSH1 0xF8 SHL DUP3 DUP3 DUP2 MLOAD DUP2 LT PUSH2 0x30FD JUMPI PUSH2 0x30FC PUSH2 0x43D6 JUMP JUMPDEST JUMPDEST PUSH1 0x20 ADD ADD SWAP1 PUSH31 0xFFFFFFFFFFFFFFFFFFFFFFFFFFFFFFFFFFFFFFFFFFFFFFFFFFFFFFFFFFFFFF NOT AND SWAP1 DUP2 PUSH1 0x0 BYTE SWAP1 MSTORE8 POP JUMPDEST DUP1 DUP1 PUSH2 0x3138 SWAP1 PUSH2 0x472A JUMP JUMPDEST SWAP2 POP POP PUSH2 0x3024 JUMP JUMPDEST POP DUP1 SWAP3 POP POP POP SWAP2 SWAP1 POP JUMP JUMPDEST PUSH1 0x60 PUSH1 0x0 PUSH1 0x1 PUSH2 0x315A DUP5 PUSH2 0x3365 JUMP JUMPDEST ADD SWAP1 POP PUSH1 0x0 DUP2 PUSH8 0xFFFFFFFFFFFFFFFF DUP2 GT ISZERO PUSH2 0x3179 JUMPI PUSH2 0x3178 PUSH2 0x3679 JUMP JUMPDEST JUMPDEST PUSH1 0x40 MLOAD SWAP1 DUP1 DUP3 MSTORE DUP1 PUSH1 0x1F ADD PUSH1 0x1F NOT AND PUSH1 0x20 ADD DUP3 ADD PUSH1 0x40 MSTORE DUP1 ISZERO PUSH2 0x31AB JUMPI DUP2 PUSH1 0x20 ADD PUSH1 0x1 DUP3 MUL DUP1 CALLDATASIZE DUP4 CALLDATACOPY DUP1 DUP3 ADD SWAP2 POP POP SWAP1 POP JUMPDEST POP SWAP1 POP PUSH1 0x0 DUP3 PUSH1 0x20 ADD DUP3 ADD SWAP1 POP JUMPDEST PUSH1 0x1 ISZERO PUSH2 0x3218 JUMPI DUP1 DUP1 PUSH1 0x1 SWAP1 SUB SWAP2 POP POP PUSH32 0x3031323334353637383961626364656600000000000000000000000000000000 PUSH1 0xA DUP7 MOD BYTE DUP2 MSTORE8 PUSH1 0xA DUP6 DUP2 PUSH2 0x3202 JUMPI PUSH2 0x3201 PUSH2 0x4C5E JUMP JUMPDEST JUMPDEST DIV SWAP5 POP PUSH1 0x0 DUP6 EQ ISZERO PUSH2 0x3213 JUMPI PUSH2 0x3218 JUMP JUMPDEST PUSH2 0x31B9 JUMP JUMPDEST DUP2 SWAP4 POP POP POP POP SWAP2 SWAP1 POP JUMP JUMPDEST PUSH2 0x322B PUSH2 0x34B8 JUMP JUMPDEST PUSH20 0xFFFFFFFFFFFFFFFFFFFFFFFFFFFFFFFFFFFFFFFF AND PUSH2 0x3249 PUSH2 0x1DBD JUMP JUMPDEST PUSH20 0xFFFFFFFFFFFFFFFFFFFFFFFFFFFFFFFFFFFFFFFF AND EQ PUSH2 0x329F JUMPI PUSH1 0x40 MLOAD PUSH32 0x8C379A000000000000000000000000000000000000000000000000000000000 DUP2 MSTORE PUSH1 0x4 ADD PUSH2 0x3296 SWAP1 PUSH2 0x4CD9 JUMP JUMPDEST PUSH1 0x40 MLOAD DUP1 SWAP2 SUB SWAP1 REVERT JUMPDEST JUMP JUMPDEST PUSH1 0x0 DUP1 PUSH1 0x0 SWAP1 SLOAD SWAP1 PUSH2 0x100 EXP SWAP1 DIV PUSH20 0xFFFFFFFFFFFFFFFFFFFFFFFFFFFFFFFFFFFFFFFF AND SWAP1 POP DUP2 PUSH1 0x0 DUP1 PUSH2 0x100 EXP DUP2 SLOAD DUP2 PUSH20 0xFFFFFFFFFFFFFFFFFFFFFFFFFFFFFFFFFFFFFFFF MUL NOT AND SWAP1 DUP4 PUSH20 0xFFFFFFFFFFFFFFFFFFFFFFFFFFFFFFFFFFFFFFFF AND MUL OR SWAP1 SSTORE POP DUP2 PUSH20 0xFFFFFFFFFFFFFFFFFFFFFFFFFFFFFFFFFFFFFFFF AND DUP2 PUSH20 0xFFFFFFFFFFFFFFFFFFFFFFFFFFFFFFFFFFFFFFFF AND PUSH32 0x8BE0079C531659141344CD1FD0A4F28419497F9722A3DAAFE3B4186F6B6457E0 PUSH1 0x40 MLOAD PUSH1 0x40 MLOAD DUP1 SWAP2 SUB SWAP1 LOG3 POP POP JUMP JUMPDEST PUSH1 0x0 DUP1 PUSH1 0x0 SWAP1 POP PUSH27 0x184F03E93FF9F4DAA797ED6E38ED64BF6A1F010000000000000000 DUP4 LT PUSH2 0x33C3 JUMPI PUSH27 0x184F03E93FF9F4DAA797ED6E38ED64BF6A1F010000000000000000 DUP4 DUP2 PUSH2 0x33B9 JUMPI PUSH2 0x33B8 PUSH2 0x4C5E JUMP JUMPDEST JUMPDEST DIV SWAP3 POP PUSH1 0x40 DUP2 ADD SWAP1 POP JUMPDEST PUSH14 0x4EE2D6D415B85ACEF8100000000 DUP4 LT PUSH2 0x3400 JUMPI PUSH14 0x4EE2D6D415B85ACEF8100000000 DUP4 DUP2 PUSH2 0x33F6 JUMPI PUSH2 0x33F5 PUSH2 0x4C5E JUMP JUMPDEST JUMPDEST DIV SWAP3 POP PUSH1 0x20 DUP2 ADD SWAP1 POP JUMPDEST PUSH7 0x2386F26FC10000 DUP4 LT PUSH2 0x342F JUMPI PUSH7 0x2386F26FC10000 DUP4 DUP2 PUSH2 0x3425 JUMPI PUSH2 0x3424 PUSH2 0x4C5E JUMP JUMPDEST JUMPDEST DIV SWAP3 POP PUSH1 0x10 DUP2 ADD SWAP1 POP JUMPDEST PUSH4 0x5F5E100 DUP4 LT PUSH2 0x3458 JUMPI PUSH4 0x5F5E100 DUP4 DUP2 PUSH2 0x344E JUMPI PUSH2 0x344D PUSH2 0x4C5E JUMP JUMPDEST JUMPDEST DIV SWAP3 POP PUSH1 0x8 DUP2 ADD SWAP1 POP JUMPDEST PUSH2 0x2710 DUP4 LT PUSH2 0x347D JUMPI PUSH2 0x2710 DUP4 DUP2 PUSH2 0x3473 JUMPI PUSH2 0x3472 PUSH2 0x4C5E JUMP JUMPDEST JUMPDEST DIV SWAP3 POP PUSH1 0x4 DUP2 ADD SWAP1 POP JUMPDEST PUSH1 0x64 DUP4 LT PUSH2 0x34A0 JUMPI PUSH1 0x64 DUP4 DUP2 PUSH2 0x3496 JUMPI PUSH2 0x3495 PUSH2 0x4C5E JUMP JUMPDEST JUMPDEST DIV SWAP3 POP PUSH1 0x2 DUP2 ADD SWAP1 POP JUMPDEST PUSH1 0xA DUP4 LT PUSH2 0x34AF JUMPI PUSH1 0x1 DUP2 ADD SWAP1 POP JUMPDEST DUP1 SWAP2 POP POP SWAP2 SWAP1 POP JUMP JUMPDEST PUSH1 0x0 CALLER SWAP1 POP SWAP1 JUMP JUMPDEST PUSH1 0x40 MLOAD DUP1 PUSH2 0x180 ADD PUSH1 0x40 MSTORE DUP1 PUSH1 0x60 DUP2 MSTORE PUSH1 0x20 ADD PUSH1 0x60 DUP2 MSTORE PUSH1 0x20 ADD PUSH1 0x60 DUP2 MSTORE PUSH1 0x20 ADD PUSH1 0x0 DUP2 MSTORE PUSH1 0x20 ADD PUSH1 0x0 DUP2 MSTORE PUSH1 0x20 ADD PUSH1 0x0 DUP2 MSTORE PUSH1 0x20 ADD PUSH1 0x60 DUP2 MSTORE PUSH1 0x20 ADD PUSH1 0x60 DUP2 MSTORE PUSH1 0x20 ADD PUSH1 0x60 DUP2 MSTORE PUSH1 0x20 ADD PUSH1 0x60 DUP2 MSTORE PUSH1 0x20 ADD PUSH1 0x60 DUP2 MSTORE PUSH1 0x20 ADD PUSH1 0x60 DUP2 MSTORE POP SWAP1 JUMP JUMPDEST DUP3 DUP1 SLOAD PUSH2 0x352D SWAP1 PUSH2 0x41F1 JUMP JUMPDEST SWAP1 PUSH1 0x0 MSTORE PUSH1 0x20 PUSH1 0x0 KECCAK256 SWAP1 PUSH1 0x1F ADD PUSH1 0x20 SWAP1 DIV DUP2 ADD SWAP3 DUP3 PUSH2 0x354F JUMPI PUSH1 0x0 DUP6 SSTORE PUSH2 0x3596 JUMP JUMPDEST DUP3 PUSH1 0x1F LT PUSH2 0x3568 JUMPI DUP1 CALLDATALOAD PUSH1 0xFF NOT AND DUP4 DUP1 ADD OR DUP6 SSTORE PUSH2 0x3596 JUMP JUMPDEST DUP3 DUP1 ADD PUSH1 0x1 ADD DUP6 SSTORE DUP3 ISZERO PUSH2 0x3596 JUMPI SWAP2 DUP3 ADD JUMPDEST DUP3 DUP2 GT ISZERO PUSH2 0x3595 JUMPI DUP3 CALLDATALOAD DUP3 SSTORE SWAP2 PUSH1 0x20 ADD SWAP2 SWAP1 PUSH1 0x1 ADD SWAP1 PUSH2 0x357A JUMP JUMPDEST JUMPDEST POP SWAP1 POP PUSH2 0x35A3 SWAP2 SWAP1 PUSH2 0x362D JUMP JUMPDEST POP SWAP1 JUMP JUMPDEST DUP3 DUP1 SLOAD PUSH2 0x35B3 SWAP1 PUSH2 0x41F1 JUMP JUMPDEST SWAP1 PUSH1 0x0 MSTORE PUSH1 0x20 PUSH1 0x0 KECCAK256 SWAP1 PUSH1 0x1F ADD PUSH1 0x20 SWAP1 DIV DUP2 ADD SWAP3 DUP3 PUSH2 0x35D5 JUMPI PUSH1 0x0 DUP6 SSTORE PUSH2 0x361C JUMP JUMPDEST DUP3 PUSH1 0x1F LT PUSH2 0x35EE JUMPI DUP1 MLOAD PUSH1 0xFF NOT AND DUP4 DUP1 ADD OR DUP6 SSTORE PUSH2 0x361C JUMP JUMPDEST DUP3 DUP1 ADD PUSH1 0x1 ADD DUP6 SSTORE DUP3 ISZERO PUSH2 0x361C JUMPI SWAP2 DUP3 ADD JUMPDEST DUP3 DUP2 GT ISZERO PUSH2 0x361B JUMPI DUP3 MLOAD DUP3 SSTORE SWAP2 PUSH1 0x20 ADD SWAP2 SWAP1 PUSH1 0x1 ADD SWAP1 PUSH2 0x3600 JUMP JUMPDEST JUMPDEST POP SWAP1 POP PUSH2 0x3629 SWAP2 SWAP1 PUSH2 0x362D JUMP JUMPDEST POP SWAP1 JUMP JUMPDEST JUMPDEST DUP1 DUP3 GT ISZERO PUSH2 0x3646 JUMPI PUSH1 0x0 DUP2 PUSH1 0x0 SWAP1 SSTORE POP PUSH1 0x1 ADD PUSH2 0x362E JUMP JUMPDEST POP SWAP1 JUMP JUMPDEST PUSH1 0x0 PUSH1 0x40 MLOAD SWAP1 POP SWAP1 JUMP JUMPDEST PUSH1 0x0 DUP1 REVERT JUMPDEST PUSH1 0x0 DUP1 REVERT JUMPDEST PUSH1 0x0 DUP1 REVERT JUMPDEST PUSH1 0x0 DUP1 REVERT JUMPDEST PUSH1 0x0 PUSH1 0x1F NOT PUSH1 0x1F DUP4 ADD AND SWAP1 POP SWAP2 SWAP1 POP JUMP JUMPDEST PUSH32 0x4E487B7100000000000000000000000000000000000000000000000000000000 PUSH1 0x0 MSTORE PUSH1 0x41 PUSH1 0x4 MSTORE PUSH1 0x24 PUSH1 0x0 REVERT JUMPDEST PUSH2 0x36B1 DUP3 PUSH2 0x3668 JUMP JUMPDEST DUP2 ADD DUP2 DUP2 LT PUSH8 0xFFFFFFFFFFFFFFFF DUP3 GT OR ISZERO PUSH2 0x36D0 JUMPI PUSH2 0x36CF PUSH2 0x3679 JUMP JUMPDEST JUMPDEST DUP1 PUSH1 0x40 MSTORE POP POP POP JUMP JUMPDEST PUSH1 0x0 PUSH2 0x36E3 PUSH2 0x364A JUMP JUMPDEST SWAP1 POP PUSH2 0x36EF DUP3 DUP3 PUSH2 0x36A8 JUMP JUMPDEST SWAP2 SWAP1 POP JUMP JUMPDEST PUSH1 0x0 PUSH8 0xFFFFFFFFFFFFFFFF DUP3 GT ISZERO PUSH2 0x370F JUMPI PUSH2 0x370E PUSH2 0x3679 JUMP JUMPDEST JUMPDEST PUSH2 0x3718 DUP3 PUSH2 0x3668 JUMP JUMPDEST SWAP1 POP PUSH1 0x20 DUP2 ADD SWAP1 POP SWAP2 SWAP1 POP JUMP JUMPDEST DUP3 DUP2 DUP4 CALLDATACOPY PUSH1 0x0 DUP4 DUP4 ADD MSTORE POP POP POP JUMP JUMPDEST PUSH1 0x0 PUSH2 0x3747 PUSH2 0x3742 DUP5 PUSH2 0x36F4 JUMP JUMPDEST PUSH2 0x36D9 JUMP JUMPDEST SWAP1 POP DUP3 DUP2 MSTORE PUSH1 0x20 DUP2 ADD DUP5 DUP5 DUP5 ADD GT ISZERO PUSH2 0x3763 JUMPI PUSH2 0x3762 PUSH2 0x3663 JUMP JUMPDEST JUMPDEST PUSH2 0x376E DUP5 DUP3 DUP6 PUSH2 0x3725 JUMP JUMPDEST POP SWAP4 SWAP3 POP POP POP JUMP JUMPDEST PUSH1 0x0 DUP3 PUSH1 0x1F DUP4 ADD SLT PUSH2 0x378B JUMPI PUSH2 0x378A PUSH2 0x365E JUMP JUMPDEST JUMPDEST DUP2 CALLDATALOAD PUSH2 0x379B DUP5 DUP3 PUSH1 0x20 DUP7 ADD PUSH2 0x3734 JUMP JUMPDEST SWAP2 POP POP SWAP3 SWAP2 POP POP JUMP JUMPDEST PUSH1 0x0 PUSH1 0x20 DUP3 DUP5 SUB SLT ISZERO PUSH2 0x37BA JUMPI PUSH2 0x37B9 PUSH2 0x3654 JUMP JUMPDEST JUMPDEST PUSH1 0x0 DUP3 ADD CALLDATALOAD PUSH8 0xFFFFFFFFFFFFFFFF DUP2 GT ISZERO PUSH2 0x37D8 JUMPI PUSH2 0x37D7 PUSH2 0x3659 JUMP JUMPDEST JUMPDEST PUSH2 0x37E4 DUP5 DUP3 DUP6 ADD PUSH2 0x3776 JUMP JUMPDEST SWAP2 POP POP SWAP3 SWAP2 POP POP JUMP JUMPDEST PUSH1 0x0 DUP2 MLOAD SWAP1 POP SWAP2 SWAP1 POP JUMP JUMPDEST PUSH1 0x0 DUP3 DUP3 MSTORE PUSH1 0x20 DUP3 ADD SWAP1 POP SWAP3 SWAP2 POP POP JUMP JUMPDEST PUSH1 0x0 JUMPDEST DUP4 DUP2 LT ISZERO PUSH2 0x3827 JUMPI DUP1 DUP3 ADD MLOAD DUP2 DUP5 ADD MSTORE PUSH1 0x20 DUP2 ADD SWAP1 POP PUSH2 0x380C JUMP JUMPDEST DUP4 DUP2 GT ISZERO PUSH2 0x3836 JUMPI PUSH1 0x0 DUP5 DUP5 ADD MSTORE JUMPDEST POP POP POP POP JUMP JUMPDEST PUSH1 0x0 PUSH2 0x3847 DUP3 PUSH2 0x37ED JUMP JUMPDEST PUSH2 0x3851 DUP2 DUP6 PUSH2 0x37F8 JUMP JUMPDEST SWAP4 POP PUSH2 0x3861 DUP2 DUP6 PUSH1 0x20 DUP7 ADD PUSH2 0x3809 JUMP JUMPDEST PUSH2 0x386A DUP2 PUSH2 0x3668 JUMP JUMPDEST DUP5 ADD SWAP2 POP POP SWAP3 SWAP2 POP POP JUMP JUMPDEST PUSH1 0x0 DUP2 SWAP1 POP SWAP2 SWAP1 POP JUMP JUMPDEST PUSH2 0x3888 DUP2 PUSH2 0x3875 JUMP JUMPDEST DUP3 MSTORE POP POP JUMP JUMPDEST PUSH1 0x0 PUSH2 0x180 DUP4 ADD PUSH1 0x0 DUP4 ADD MLOAD DUP5 DUP3 SUB PUSH1 0x0 DUP7 ADD MSTORE PUSH2 0x38AC DUP3 DUP3 PUSH2 0x383C JUMP JUMPDEST SWAP2 POP POP PUSH1 0x20 DUP4 ADD MLOAD DUP5 DUP3 SUB PUSH1 0x20 DUP7 ADD MSTORE PUSH2 0x38C6 DUP3 DUP3 PUSH2 0x383C JUMP JUMPDEST SWAP2 POP POP PUSH1 0x40 DUP4 ADD MLOAD DUP5 DUP3 SUB PUSH1 0x40 DUP7 ADD MSTORE PUSH2 0x38E0 DUP3 DUP3 PUSH2 0x383C JUMP JUMPDEST SWAP2 POP POP PUSH1 0x60 DUP4 ADD MLOAD PUSH2 0x38F5 PUSH1 0x60 DUP7 ADD DUP3 PUSH2 0x387F JUMP JUMPDEST POP PUSH1 0x80 DUP4 ADD MLOAD PUSH2 0x3908 PUSH1 0x80 DUP7 ADD DUP3 PUSH2 0x387F JUMP JUMPDEST POP PUSH1 0xA0 DUP4 ADD MLOAD PUSH2 0x391B PUSH1 0xA0 DUP7 ADD DUP3 PUSH2 0x387F JUMP JUMPDEST POP PUSH1 0xC0 DUP4 ADD MLOAD DUP5 DUP3 SUB PUSH1 0xC0 DUP7 ADD MSTORE PUSH2 0x3933 DUP3 DUP3 PUSH2 0x383C JUMP JUMPDEST SWAP2 POP POP PUSH1 0xE0 DUP4 ADD MLOAD DUP5 DUP3 SUB PUSH1 0xE0 DUP7 ADD MSTORE PUSH2 0x394D DUP3 DUP3 PUSH2 0x383C JUMP JUMPDEST SWAP2 POP POP PUSH2 0x100 DUP4 ADD MLOAD DUP5 DUP3 SUB PUSH2 0x100 DUP7 ADD MSTORE PUSH2 0x3969 DUP3 DUP3 PUSH2 0x383C JUMP JUMPDEST SWAP2 POP POP PUSH2 0x120 DUP4 ADD MLOAD DUP5 DUP3 SUB PUSH2 0x120 DUP7 ADD MSTORE PUSH2 0x3985 DUP3 DUP3 PUSH2 0x383C JUMP JUMPDEST SWAP2 POP POP PUSH2 0x140 DUP4 ADD MLOAD DUP5 DUP3 SUB PUSH2 0x140 DUP7 ADD MSTORE PUSH2 0x39A1 DUP3 DUP3 PUSH2 0x383C JUMP JUMPDEST SWAP2 POP POP PUSH2 0x160 DUP4 ADD MLOAD DUP5 DUP3 SUB PUSH2 0x160 DUP7 ADD MSTORE PUSH2 0x39BD DUP3 DUP3 PUSH2 0x383C JUMP JUMPDEST SWAP2 POP POP DUP1 SWAP2 POP POP SWAP3 SWAP2 POP POP JUMP JUMPDEST PUSH1 0x0 PUSH1 0x20 DUP3 ADD SWAP1 POP DUP2 DUP2 SUB PUSH1 0x0 DUP4 ADD MSTORE PUSH2 0x39E4 DUP2 DUP5 PUSH2 0x388E JUMP JUMPDEST SWAP1 POP SWAP3 SWAP2 POP POP JUMP JUMPDEST PUSH1 0x0 DUP1 REVERT JUMPDEST PUSH1 0x0 DUP1 REVERT JUMPDEST PUSH1 0x0 DUP1 DUP4 PUSH1 0x1F DUP5 ADD SLT PUSH2 0x3A0C JUMPI PUSH2 0x3A0B PUSH2 0x365E JUMP JUMPDEST JUMPDEST DUP3 CALLDATALOAD SWAP1 POP PUSH8 0xFFFFFFFFFFFFFFFF DUP2 GT ISZERO PUSH2 0x3A29 JUMPI PUSH2 0x3A28 PUSH2 0x39EC JUMP JUMPDEST JUMPDEST PUSH1 0x20 DUP4 ADD SWAP2 POP DUP4 PUSH1 0x1 DUP3 MUL DUP4 ADD GT ISZERO PUSH2 0x3A45 JUMPI PUSH2 0x3A44 PUSH2 0x39F1 JUMP JUMPDEST JUMPDEST SWAP3 POP SWAP3 SWAP1 POP JUMP JUMPDEST PUSH1 0x0 DUP1 DUP4 PUSH1 0x1F DUP5 ADD SLT PUSH2 0x3A62 JUMPI PUSH2 0x3A61 PUSH2 0x365E JUMP JUMPDEST JUMPDEST DUP3 CALLDATALOAD SWAP1 POP PUSH8 0xFFFFFFFFFFFFFFFF DUP2 GT ISZERO PUSH2 0x3A7F JUMPI PUSH2 0x3A7E PUSH2 0x39EC JUMP JUMPDEST JUMPDEST PUSH1 0x20 DUP4 ADD SWAP2 POP DUP4 PUSH1 0x20 DUP3 MUL DUP4 ADD GT ISZERO PUSH2 0x3A9B JUMPI PUSH2 0x3A9A PUSH2 0x39F1 JUMP JUMPDEST JUMPDEST SWAP3 POP SWAP3 SWAP1 POP JUMP JUMPDEST PUSH1 0x0 DUP1 PUSH1 0x0 DUP1 PUSH1 0x0 DUP1 PUSH1 0x60 DUP8 DUP10 SUB SLT ISZERO PUSH2 0x3ABF JUMPI PUSH2 0x3ABE PUSH2 0x3654 JUMP JUMPDEST JUMPDEST PUSH1 0x0 DUP8 ADD CALLDATALOAD PUSH8 0xFFFFFFFFFFFFFFFF DUP2 GT ISZERO PUSH2 0x3ADD JUMPI PUSH2 0x3ADC PUSH2 0x3659 JUMP JUMPDEST JUMPDEST PUSH2 0x3AE9 DUP10 DUP3 DUP11 ADD PUSH2 0x39F6 JUMP JUMPDEST SWAP7 POP SWAP7 POP POP PUSH1 0x20 DUP8 ADD CALLDATALOAD PUSH8 0xFFFFFFFFFFFFFFFF DUP2 GT ISZERO PUSH2 0x3B0C JUMPI PUSH2 0x3B0B PUSH2 0x3659 JUMP JUMPDEST JUMPDEST PUSH2 0x3B18 DUP10 DUP3 DUP11 ADD PUSH2 0x3A4C JUMP JUMPDEST SWAP5 POP SWAP5 POP POP PUSH1 0x40 DUP8 ADD CALLDATALOAD PUSH8 0xFFFFFFFFFFFFFFFF DUP2 GT ISZERO PUSH2 0x3B3B JUMPI PUSH2 0x3B3A PUSH2 0x3659 JUMP JUMPDEST JUMPDEST PUSH2 0x3B47 DUP10 DUP3 DUP11 ADD PUSH2 0x3A4C JUMP JUMPDEST SWAP3 POP SWAP3 POP POP SWAP3 SWAP6 POP SWAP3 SWAP6 POP SWAP3 SWAP6 JUMP JUMPDEST PUSH1 0x0 DUP2 MLOAD SWAP1 POP SWAP2 SWAP1 POP JUMP JUMPDEST PUSH1 0x0 DUP3 DUP3 MSTORE PUSH1 0x20 DUP3 ADD SWAP1 POP SWAP3 SWAP2 POP POP JUMP JUMPDEST PUSH1 0x0 DUP2 SWAP1 POP PUSH1 0x20 DUP3 ADD SWAP1 POP SWAP2 SWAP1 POP JUMP JUMPDEST PUSH1 0x0 PUSH2 0x180 DUP4 ADD PUSH1 0x0 DUP4 ADD MLOAD DUP5 DUP3 SUB PUSH1 0x0 DUP7 ADD MSTORE PUSH2 0x3BA0 DUP3 DUP3 PUSH2 0x383C JUMP JUMPDEST SWAP2 POP POP PUSH1 0x20 DUP4 ADD MLOAD DUP5 DUP3 SUB PUSH1 0x20 DUP7 ADD MSTORE PUSH2 0x3BBA DUP3 DUP3 PUSH2 0x383C JUMP JUMPDEST SWAP2 POP POP PUSH1 0x40 DUP4 ADD MLOAD DUP5 DUP3 SUB PUSH1 0x40 DUP7 ADD MSTORE PUSH2 0x3BD4 DUP3 DUP3 PUSH2 0x383C JUMP JUMPDEST SWAP2 POP POP PUSH1 0x60 DUP4 ADD MLOAD PUSH2 0x3BE9 PUSH1 0x60 DUP7 ADD DUP3 PUSH2 0x387F JUMP JUMPDEST POP PUSH1 0x80 DUP4 ADD MLOAD PUSH2 0x3BFC PUSH1 0x80 DUP7 ADD DUP3 PUSH2 0x387F JUMP JUMPDEST POP PUSH1 0xA0 DUP4 ADD MLOAD PUSH2 0x3C0F PUSH1 0xA0 DUP7 ADD DUP3 PUSH2 0x387F JUMP JUMPDEST POP PUSH1 0xC0 DUP4 ADD MLOAD DUP5 DUP3 SUB PUSH1 0xC0 DUP7 ADD MSTORE PUSH2 0x3C27 DUP3 DUP3 PUSH2 0x383C JUMP JUMPDEST SWAP2 POP POP PUSH1 0xE0 DUP4 ADD MLOAD DUP5 DUP3 SUB PUSH1 0xE0 DUP7 ADD MSTORE PUSH2 0x3C41 DUP3 DUP3 PUSH2 0x383C JUMP JUMPDEST SWAP2 POP POP PUSH2 0x100 DUP4 ADD MLOAD DUP5 DUP3 SUB PUSH2 0x100 DUP7 ADD MSTORE PUSH2 0x3C5D DUP3 DUP3 PUSH2 0x383C JUMP JUMPDEST SWAP2 POP POP PUSH2 0x120 DUP4 ADD MLOAD DUP5 DUP3 SUB PUSH2 0x120 DUP7 ADD MSTORE PUSH2 0x3C79 DUP3 DUP3 PUSH2 0x383C JUMP JUMPDEST SWAP2 POP POP PUSH2 0x140 DUP4 ADD MLOAD DUP5 DUP3 SUB PUSH2 0x140 DUP7 ADD MSTORE PUSH2 0x3C95 DUP3 DUP3 PUSH2 0x383C JUMP JUMPDEST SWAP2 POP POP PUSH2 0x160 DUP4 ADD MLOAD DUP5 DUP3 SUB PUSH2 0x160 DUP7 ADD MSTORE PUSH2 0x3CB1 DUP3 DUP3 PUSH2 0x383C JUMP JUMPDEST SWAP2 POP POP DUP1 SWAP2 POP POP SWAP3 SWAP2 POP POP JUMP JUMPDEST PUSH1 0x0 PUSH2 0x3CCA DUP4 DUP4 PUSH2 0x3B82 JUMP JUMPDEST SWAP1 POP SWAP3 SWAP2 POP POP JUMP JUMPDEST PUSH1 0x0 PUSH1 0x20 DUP3 ADD SWAP1 POP SWAP2 SWAP1 POP JUMP JUMPDEST PUSH1 0x0 PUSH2 0x3CEA DUP3 PUSH2 0x3B56 JUMP JUMPDEST PUSH2 0x3CF4 DUP2 DUP6 PUSH2 0x3B61 JUMP JUMPDEST SWAP4 POP DUP4 PUSH1 0x20 DUP3 MUL DUP6 ADD PUSH2 0x3D06 DUP6 PUSH2 0x3B72 JUMP JUMPDEST DUP1 PUSH1 0x0 JUMPDEST DUP6 DUP2 LT ISZERO PUSH2 0x3D42 JUMPI DUP5 DUP5 SUB DUP10 MSTORE DUP2 MLOAD PUSH2 0x3D23 DUP6 DUP3 PUSH2 0x3CBE JUMP JUMPDEST SWAP5 POP PUSH2 0x3D2E DUP4 PUSH2 0x3CD2 JUMP JUMPDEST SWAP3 POP PUSH1 0x20 DUP11 ADD SWAP10 POP POP PUSH1 0x1 DUP2 ADD SWAP1 POP PUSH2 0x3D0A JUMP JUMPDEST POP DUP3 SWAP8 POP DUP8 SWAP6 POP POP POP POP POP POP SWAP3 SWAP2 POP POP JUMP JUMPDEST PUSH1 0x0 PUSH1 0x20 DUP3 ADD SWAP1 POP DUP2 DUP2 SUB PUSH1 0x0 DUP4 ADD MSTORE PUSH2 0x3D6E DUP2 DUP5 PUSH2 0x3CDF JUMP JUMPDEST SWAP1 POP SWAP3 SWAP2 POP POP JUMP JUMPDEST PUSH2 0x3D7F DUP2 PUSH2 0x3875 JUMP JUMPDEST DUP3 MSTORE POP POP JUMP JUMPDEST PUSH1 0x0 PUSH1 0x20 DUP3 ADD SWAP1 POP PUSH2 0x3D9A PUSH1 0x0 DUP4 ADD DUP5 PUSH2 0x3D76 JUMP JUMPDEST SWAP3 SWAP2 POP POP JUMP JUMPDEST PUSH1 0x0 PUSH20 0xFFFFFFFFFFFFFFFFFFFFFFFFFFFFFFFFFFFFFFFF DUP3 AND SWAP1 POP SWAP2 SWAP1 POP JUMP JUMPDEST PUSH1 0x0 PUSH2 0x3DCB DUP3 PUSH2 0x3DA0 JUMP JUMPDEST SWAP1 POP SWAP2 SWAP1 POP JUMP JUMPDEST PUSH2 0x3DDB DUP2 PUSH2 0x3DC0 JUMP JUMPDEST DUP2 EQ PUSH2 0x3DE6 JUMPI PUSH1 0x0 DUP1 REVERT JUMPDEST POP JUMP JUMPDEST PUSH1 0x0 DUP2 CALLDATALOAD SWAP1 POP PUSH2 0x3DF8 DUP2 PUSH2 0x3DD2 JUMP JUMPDEST SWAP3 SWAP2 POP POP JUMP JUMPDEST PUSH1 0x0 DUP1 PUSH1 0x40 DUP4 DUP6 SUB SLT ISZERO PUSH2 0x3E15 JUMPI PUSH2 0x3E14 PUSH2 0x3654 JUMP JUMPDEST JUMPDEST PUSH1 0x0 PUSH2 0x3E23 DUP6 DUP3 DUP7 ADD PUSH2 0x3DE9 JUMP JUMPDEST SWAP3 POP POP PUSH1 0x20 DUP4 ADD CALLDATALOAD PUSH8 0xFFFFFFFFFFFFFFFF DUP2 GT ISZERO PUSH2 0x3E44 JUMPI PUSH2 0x3E43 PUSH2 0x3659 JUMP JUMPDEST JUMPDEST PUSH2 0x3E50 DUP6 DUP3 DUP7 ADD PUSH2 0x3776 JUMP JUMPDEST SWAP2 POP POP SWAP3 POP SWAP3 SWAP1 POP JUMP JUMPDEST PUSH2 0x3E63 DUP2 PUSH2 0x3DC0 JUMP JUMPDEST DUP3 MSTORE POP POP JUMP JUMPDEST PUSH1 0x0 PUSH1 0x20 DUP3 ADD SWAP1 POP PUSH2 0x3E7E PUSH1 0x0 DUP4 ADD DUP5 PUSH2 0x3E5A JUMP JUMPDEST SWAP3 SWAP2 POP POP JUMP JUMPDEST PUSH1 0x0 PUSH1 0x20 DUP3 DUP5 SUB SLT ISZERO PUSH2 0x3E9A JUMPI PUSH2 0x3E99 PUSH2 0x3654 JUMP JUMPDEST JUMPDEST PUSH1 0x0 PUSH2 0x3EA8 DUP5 DUP3 DUP6 ADD PUSH2 0x3DE9 JUMP JUMPDEST SWAP2 POP POP SWAP3 SWAP2 POP POP JUMP JUMPDEST PUSH1 0x0 DUP3 DUP3 MSTORE PUSH1 0x20 DUP3 ADD SWAP1 POP SWAP3 SWAP2 POP POP JUMP JUMPDEST PUSH1 0x0 PUSH2 0x3ECD DUP3 PUSH2 0x37ED JUMP JUMPDEST PUSH2 0x3ED7 DUP2 DUP6 PUSH2 0x3EB1 JUMP JUMPDEST SWAP4 POP PUSH2 0x3EE7 DUP2 DUP6 PUSH1 0x20 DUP7 ADD PUSH2 0x3809 JUMP JUMPDEST PUSH2 0x3EF0 DUP2 PUSH2 0x3668 JUMP JUMPDEST DUP5 ADD SWAP2 POP POP SWAP3 SWAP2 POP POP JUMP JUMPDEST PUSH1 0x0 PUSH1 0x20 DUP3 ADD SWAP1 POP DUP2 DUP2 SUB PUSH1 0x0 DUP4 ADD MSTORE PUSH2 0x3F15 DUP2 DUP5 PUSH2 0x3EC2 JUMP JUMPDEST SWAP1 POP SWAP3 SWAP2 POP POP JUMP JUMPDEST PUSH2 0x3F26 DUP2 PUSH2 0x3875 JUMP JUMPDEST DUP2 EQ PUSH2 0x3F31 JUMPI PUSH1 0x0 DUP1 REVERT JUMPDEST POP JUMP JUMPDEST PUSH1 0x0 DUP2 CALLDATALOAD SWAP1 POP PUSH2 0x3F43 DUP2 PUSH2 0x3F1D JUMP JUMPDEST SWAP3 SWAP2 POP POP JUMP JUMPDEST PUSH1 0x0 PUSH1 0x20 DUP3 DUP5 SUB SLT ISZERO PUSH2 0x3F5F JUMPI PUSH2 0x3F5E PUSH2 0x3654 JUMP JUMPDEST JUMPDEST PUSH1 0x0 PUSH2 0x3F6D DUP5 DUP3 DUP6 ADD PUSH2 0x3F34 JUMP JUMPDEST SWAP2 POP POP SWAP3 SWAP2 POP POP JUMP JUMPDEST PUSH1 0x0 PUSH2 0x180 DUP3 ADD SWAP1 POP DUP2 DUP2 SUB PUSH1 0x0 DUP4 ADD MSTORE PUSH2 0x3F91 DUP2 DUP16 PUSH2 0x3EC2 JUMP JUMPDEST SWAP1 POP DUP2 DUP2 SUB PUSH1 0x20 DUP4 ADD MSTORE PUSH2 0x3FA5 DUP2 DUP15 PUSH2 0x3EC2 JUMP JUMPDEST SWAP1 POP DUP2 DUP2 SUB PUSH1 0x40 DUP4 ADD MSTORE PUSH2 0x3FB9 DUP2 DUP14 PUSH2 0x3EC2 JUMP JUMPDEST SWAP1 POP PUSH2 0x3FC8 PUSH1 0x60 DUP4 ADD DUP13 PUSH2 0x3D76 JUMP JUMPDEST PUSH2 0x3FD5 PUSH1 0x80 DUP4 ADD DUP12 PUSH2 0x3D76 JUMP JUMPDEST PUSH2 0x3FE2 PUSH1 0xA0 DUP4 ADD DUP11 PUSH2 0x3D76 JUMP JUMPDEST DUP2 DUP2 SUB PUSH1 0xC0 DUP4 ADD MSTORE PUSH2 0x3FF4 DUP2 DUP10 PUSH2 0x3EC2 JUMP JUMPDEST SWAP1 POP DUP2 DUP2 SUB PUSH1 0xE0 DUP4 ADD MSTORE PUSH2 0x4008 DUP2 DUP9 PUSH2 0x3EC2 JUMP JUMPDEST SWAP1 POP DUP2 DUP2 SUB PUSH2 0x100 DUP4 ADD MSTORE PUSH2 0x401D DUP2 DUP8 PUSH2 0x3EC2 JUMP JUMPDEST SWAP1 POP DUP2 DUP2 SUB PUSH2 0x120 DUP4 ADD MSTORE PUSH2 0x4032 DUP2 DUP7 PUSH2 0x3EC2 JUMP JUMPDEST SWAP1 POP DUP2 DUP2 SUB PUSH2 0x140 DUP4 ADD MSTORE PUSH2 0x4047 DUP2 DUP6 PUSH2 0x3EC2 JUMP JUMPDEST SWAP1 POP DUP2 DUP2 SUB PUSH2 0x160 DUP4 ADD MSTORE PUSH2 0x405C DUP2 DUP5 PUSH2 0x3EC2 JUMP JUMPDEST SWAP1 POP SWAP14 SWAP13 POP POP POP POP POP POP POP POP POP POP POP POP POP JUMP JUMPDEST PUSH1 0x0 DUP1 PUSH1 0x0 DUP1 PUSH1 0x80 DUP6 DUP8 SUB SLT ISZERO PUSH2 0x4089 JUMPI PUSH2 0x4088 PUSH2 0x3654 JUMP JUMPDEST JUMPDEST PUSH1 0x0 DUP6 ADD CALLDATALOAD PUSH8 0xFFFFFFFFFFFFFFFF DUP2 GT ISZERO PUSH2 0x40A7 JUMPI PUSH2 0x40A6 PUSH2 0x3659 JUMP JUMPDEST JUMPDEST PUSH2 0x40B3 DUP8 DUP3 DUP9 ADD PUSH2 0x3776 JUMP JUMPDEST SWAP5 POP POP PUSH1 0x20 PUSH2 0x40C4 DUP8 DUP3 DUP9 ADD PUSH2 0x3F34 JUMP JUMPDEST SWAP4 POP POP PUSH1 0x40 PUSH2 0x40D5 DUP8 DUP3 DUP9 ADD PUSH2 0x3F34 JUMP JUMPDEST SWAP3 POP POP PUSH1 0x60 DUP6 ADD CALLDATALOAD PUSH8 0xFFFFFFFFFFFFFFFF DUP2 GT ISZERO PUSH2 0x40F6 JUMPI PUSH2 0x40F5 PUSH2 0x3659 JUMP JUMPDEST JUMPDEST PUSH2 0x4102 DUP8 DUP3 DUP9 ADD PUSH2 0x3776 JUMP JUMPDEST SWAP2 POP POP SWAP3 SWAP6 SWAP2 SWAP5 POP SWAP3 POP JUMP JUMPDEST PUSH1 0x0 DUP2 SWAP1 POP SWAP3 SWAP2 POP POP JUMP JUMPDEST PUSH32 0x5300000000000000000000000000000000000000000000000000000000000000 PUSH1 0x0 DUP3 ADD MSTORE POP JUMP JUMPDEST PUSH1 0x0 PUSH2 0x414F PUSH1 0x1 DUP4 PUSH2 0x410E JUMP JUMPDEST SWAP2 POP PUSH2 0x415A DUP3 PUSH2 0x4119 JUMP JUMPDEST PUSH1 0x1 DUP3 ADD SWAP1 POP SWAP2 SWAP1 POP JUMP JUMPDEST PUSH1 0x0 PUSH2 0x4170 DUP3 PUSH2 0x4142 JUMP JUMPDEST SWAP2 POP DUP2 SWAP1 POP SWAP2 SWAP1 POP JUMP JUMPDEST PUSH1 0x0 PUSH2 0x4185 DUP3 PUSH2 0x37ED JUMP JUMPDEST PUSH2 0x418F DUP2 DUP6 PUSH2 0x410E JUMP JUMPDEST SWAP4 POP PUSH2 0x419F DUP2 DUP6 PUSH1 0x20 DUP7 ADD PUSH2 0x3809 JUMP JUMPDEST DUP1 DUP5 ADD SWAP2 POP POP SWAP3 SWAP2 POP POP JUMP JUMPDEST PUSH1 0x0 PUSH2 0x41B7 DUP3 DUP5 PUSH2 0x417A JUMP JUMPDEST SWAP2 POP DUP2 SWAP1 POP SWAP3 SWAP2 POP POP JUMP JUMPDEST PUSH32 0x4E487B7100000000000000000000000000000000000000000000000000000000 PUSH1 0x0 MSTORE PUSH1 0x22 PUSH1 0x4 MSTORE PUSH1 0x24 PUSH1 0x0 REVERT JUMPDEST PUSH1 0x0 PUSH1 0x2 DUP3 DIV SWAP1 POP PUSH1 0x1 DUP3 AND DUP1 PUSH2 0x4209 JUMPI PUSH1 0x7F DUP3 AND SWAP2 POP JUMPDEST PUSH1 0x20 DUP3 LT DUP2 EQ ISZERO PUSH2 0x421D JUMPI PUSH2 0x421C PUSH2 0x41C2 JUMP JUMPDEST JUMPDEST POP SWAP2 SWAP1 POP JUMP JUMPDEST POP JUMP JUMPDEST PUSH1 0x0 PUSH2 0x4233 PUSH1 0x0 DUP4 PUSH2 0x410E JUMP JUMPDEST SWAP2 POP PUSH2 0x423E DUP3 PUSH2 0x4223 JUMP JUMPDEST PUSH1 0x0 DUP3 ADD SWAP1 POP SWAP2 SWAP1 POP JUMP JUMPDEST PUSH1 0x0 PUSH2 0x4254 DUP3 PUSH2 0x4226 JUMP JUMPDEST SWAP2 POP DUP2 SWAP1 POP SWAP2 SWAP1 POP JUMP JUMPDEST PUSH1 0x0 DUP2 SWAP1 POP DUP2 PUSH1 0x0 MSTORE PUSH1 0x20 PUSH1 0x0 KECCAK256 SWAP1 POP SWAP2 SWAP1 POP JUMP JUMPDEST PUSH1 0x0 DUP2 SLOAD PUSH2 0x4280 DUP2 PUSH2 0x41F1 JUMP JUMPDEST PUSH2 0x428A DUP2 DUP7 PUSH2 0x410E JUMP JUMPDEST SWAP5 POP PUSH1 0x1 DUP3 AND PUSH1 0x0 DUP2 EQ PUSH2 0x42A5 JUMPI PUSH1 0x1 DUP2 EQ PUSH2 0x42B6 JUMPI PUSH2 0x42E9 JUMP JUMPDEST PUSH1 0xFF NOT DUP4 AND DUP7 MSTORE DUP2 DUP7 ADD SWAP4 POP PUSH2 0x42E9 JUMP JUMPDEST PUSH2 0x42BF DUP6 PUSH2 0x425E JUMP JUMPDEST PUSH1 0x0 JUMPDEST DUP4 DUP2 LT ISZERO PUSH2 0x42E1 JUMPI DUP2 SLOAD DUP2 DUP10 ADD MSTORE PUSH1 0x1 DUP3 ADD SWAP2 POP PUSH1 0x20 DUP2 ADD SWAP1 POP PUSH2 0x42C2 JUMP JUMPDEST DUP4 DUP9 ADD SWAP6 POP POP POP JUMPDEST POP POP POP SWAP3 SWAP2 POP POP JUMP JUMPDEST PUSH1 0x0 PUSH2 0x42FE DUP3 DUP5 PUSH2 0x4273 JUMP JUMPDEST SWAP2 POP DUP2 SWAP1 POP SWAP3 SWAP2 POP POP JUMP JUMPDEST PUSH32 0x596F7520617265206E6F742070617274206F66207465616D2079657420212100 PUSH1 0x0 DUP3 ADD MSTORE POP JUMP JUMPDEST PUSH1 0x0 PUSH2 0x433F PUSH1 0x1F DUP4 PUSH2 0x3EB1 JUMP JUMPDEST SWAP2 POP PUSH2 0x434A DUP3 PUSH2 0x4309 JUMP JUMPDEST PUSH1 0x20 DUP3 ADD SWAP1 POP SWAP2 SWAP1 POP JUMP JUMPDEST PUSH1 0x0 PUSH1 0x20 DUP3 ADD SWAP1 POP DUP2 DUP2 SUB PUSH1 0x0 DUP4 ADD MSTORE PUSH2 0x436E DUP2 PUSH2 0x4332 JUMP JUMPDEST SWAP1 POP SWAP2 SWAP1 POP JUMP JUMPDEST PUSH32 0x5374617475730000000000000000000000000000000000000000000000000000 PUSH1 0x0 DUP3 ADD MSTORE POP JUMP JUMPDEST PUSH1 0x0 PUSH2 0x43AB PUSH1 0x6 DUP4 PUSH2 0x410E JUMP JUMPDEST SWAP2 POP PUSH2 0x43B6 DUP3 PUSH2 0x4375 JUMP JUMPDEST PUSH1 0x6 DUP3 ADD SWAP1 POP SWAP2 SWAP1 POP JUMP JUMPDEST PUSH1 0x0 PUSH2 0x43CC DUP3 PUSH2 0x439E JUMP JUMPDEST SWAP2 POP DUP2 SWAP1 POP SWAP2 SWAP1 POP JUMP JUMPDEST PUSH32 0x4E487B7100000000000000000000000000000000000000000000000000000000 PUSH1 0x0 MSTORE PUSH1 0x32 PUSH1 0x4 MSTORE PUSH1 0x24 PUSH1 0x0 REVERT JUMPDEST PUSH1 0x0 DUP1 REVERT JUMPDEST PUSH1 0x0 DUP1 REVERT JUMPDEST PUSH1 0x0 DUP1 REVERT JUMPDEST PUSH1 0x0 DUP1 DUP4 CALLDATALOAD PUSH1 0x1 PUSH1 0x20 SUB DUP5 CALLDATASIZE SUB SUB DUP2 SLT PUSH2 0x4431 JUMPI PUSH2 0x4430 PUSH2 0x4405 JUMP JUMPDEST JUMPDEST DUP1 DUP5 ADD SWAP3 POP DUP3 CALLDATALOAD SWAP2 POP PUSH8 0xFFFFFFFFFFFFFFFF DUP3 GT ISZERO PUSH2 0x4453 JUMPI PUSH2 0x4452 PUSH2 0x440A JUMP JUMPDEST JUMPDEST PUSH1 0x20 DUP4 ADD SWAP3 POP PUSH1 0x1 DUP3 MUL CALLDATASIZE SUB DUP4 SGT ISZERO PUSH2 0x446F JUMPI PUSH2 0x446E PUSH2 0x440F JUMP JUMPDEST JUMPDEST POP SWAP3 POP SWAP3 SWAP1 POP JUMP JUMPDEST PUSH1 0x0 PUSH2 0x4483 DUP4 DUP6 PUSH2 0x410E JUMP JUMPDEST SWAP4 POP PUSH2 0x4490 DUP4 DUP6 DUP5 PUSH2 0x3725 JUMP JUMPDEST DUP3 DUP5 ADD SWAP1 POP SWAP4 SWAP3 POP POP POP JUMP JUMPDEST PUSH1 0x0 PUSH2 0x44A9 DUP3 DUP5 DUP7 PUSH2 0x4477 JUMP JUMPDEST SWAP2 POP DUP2 SWAP1 POP SWAP4 SWAP3 POP POP POP JUMP JUMPDEST PUSH32 0x437573746F6D65722046696E616C2044656C6976657279204461746500000000 PUSH1 0x0 DUP3 ADD MSTORE POP JUMP JUMPDEST PUSH1 0x0 PUSH2 0x44EB PUSH1 0x1C DUP4 PUSH2 0x410E JUMP JUMPDEST SWAP2 POP PUSH2 0x44F6 DUP3 PUSH2 0x44B5 JUMP JUMPDEST PUSH1 0x1C DUP3 ADD SWAP1 POP SWAP2 SWAP1 POP JUMP JUMPDEST PUSH1 0x0 PUSH2 0x450C DUP3 PUSH2 0x44DE JUMP JUMPDEST SWAP2 POP DUP2 SWAP1 POP SWAP2 SWAP1 POP JUMP JUMPDEST PUSH32 0x426172436F646500000000000000000000000000000000000000000000000000 PUSH1 0x0 DUP3 ADD MSTORE POP JUMP JUMPDEST PUSH1 0x0 PUSH2 0x454C PUSH1 0x7 DUP4 PUSH2 0x410E JUMP JUMPDEST SWAP2 POP PUSH2 0x4557 DUP3 PUSH2 0x4516 JUMP JUMPDEST PUSH1 0x7 DUP3 ADD SWAP1 POP SWAP2 SWAP1 POP JUMP JUMPDEST PUSH1 0x0 PUSH2 0x456D DUP3 PUSH2 0x453F JUMP JUMPDEST SWAP2 POP DUP2 SWAP1 POP SWAP2 SWAP1 POP JUMP JUMPDEST PUSH32 0x42617463684E6F00000000000000000000000000000000000000000000000000 PUSH1 0x0 DUP3 ADD MSTORE POP JUMP JUMPDEST PUSH1 0x0 PUSH2 0x45AD PUSH1 0x7 DUP4 PUSH2 0x410E JUMP JUMPDEST SWAP2 POP PUSH2 0x45B8 DUP3 PUSH2 0x4577 JUMP JUMPDEST PUSH1 0x7 DUP3 ADD SWAP1 POP SWAP2 SWAP1 POP JUMP JUMPDEST PUSH1 0x0 PUSH2 0x45CE DUP3 PUSH2 0x45A0 JUMP JUMPDEST SWAP2 POP DUP2 SWAP1 POP SWAP2 SWAP1 POP JUMP JUMPDEST PUSH32 0x4D6173746572204C6162656C0000000000000000000000000000000000000000 PUSH1 0x0 DUP3 ADD MSTORE POP JUMP JUMPDEST PUSH1 0x0 PUSH2 0x460E PUSH1 0xC DUP4 PUSH2 0x410E JUMP JUMPDEST SWAP2 POP PUSH2 0x4619 DUP3 PUSH2 0x45D8 JUMP JUMPDEST PUSH1 0xC DUP3 ADD SWAP1 POP SWAP2 SWAP1 POP JUMP JUMPDEST PUSH1 0x0 PUSH2 0x462F DUP3 PUSH2 0x4601 JUMP JUMPDEST SWAP2 POP DUP2 SWAP1 POP SWAP2 SWAP1 POP JUMP JUMPDEST PUSH32 0x496E766F69636520506174680000000000000000000000000000000000000000 PUSH1 0x0 DUP3 ADD MSTORE POP JUMP JUMPDEST PUSH1 0x0 PUSH2 0x466F PUSH1 0xC DUP4 PUSH2 0x410E JUMP JUMPDEST SWAP2 POP PUSH2 0x467A DUP3 PUSH2 0x4639 JUMP JUMPDEST PUSH1 0xC DUP3 ADD SWAP1 POP SWAP2 SWAP1 POP JUMP JUMPDEST PUSH1 0x0 PUSH2 0x4690 DUP3 PUSH2 0x4662 JUMP JUMPDEST SWAP2 POP DUP2 SWAP1 POP SWAP2 SWAP1 POP JUMP JUMPDEST PUSH32 0x547261636B696E67204E6F000000000000000000000000000000000000000000 PUSH1 0x0 DUP3 ADD MSTORE POP JUMP JUMPDEST PUSH1 0x0 PUSH2 0x46D0 PUSH1 0xB DUP4 PUSH2 0x410E JUMP JUMPDEST SWAP2 POP PUSH2 0x46DB DUP3 PUSH2 0x469A JUMP JUMPDEST PUSH1 0xB DUP3 ADD SWAP1 POP SWAP2 SWAP1 POP JUMP JUMPDEST PUSH1 0x0 PUSH2 0x46F1 DUP3 PUSH2 0x46C3 JUMP JUMPDEST SWAP2 POP DUP2 SWAP1 POP SWAP2 SWAP1 POP JUMP JUMPDEST PUSH32 0x4E487B7100000000000000000000000000000000000000000000000000000000 PUSH1 0x0 MSTORE PUSH1 0x11 PUSH1 0x4 MSTORE PUSH1 0x24 PUSH1 0x0 REVERT JUMPDEST PUSH1 0x0 PUSH2 0x4735 DUP3 PUSH2 0x3875 JUMP JUMPDEST SWAP2 POP PUSH32 0xFFFFFFFFFFFFFFFFFFFFFFFFFFFFFFFFFFFFFFFFFFFFFFFFFFFFFFFFFFFFFFFF DUP3 EQ ISZERO PUSH2 0x4768 JUMPI PUSH2 0x4767 PUSH2 0x46FB JUMP JUMPDEST JUMPDEST PUSH1 0x1 DUP3 ADD SWAP1 POP SWAP2 SWAP1 POP JUMP JUMPDEST PUSH32 0x53616C657320526570726573656E746174697665000000000000000000000000 PUSH1 0x0 DUP3 ADD MSTORE POP JUMP JUMPDEST PUSH1 0x0 PUSH2 0x47A9 PUSH1 0x14 DUP4 PUSH2 0x410E JUMP JUMPDEST SWAP2 POP PUSH2 0x47B4 DUP3 PUSH2 0x4773 JUMP JUMPDEST PUSH1 0x14 DUP3 ADD SWAP1 POP SWAP2 SWAP1 POP JUMP JUMPDEST PUSH1 0x0 PUSH2 0x47CA DUP3 PUSH2 0x479C JUMP JUMPDEST SWAP2 POP DUP2 SWAP1 POP SWAP2 SWAP1 POP JUMP JUMPDEST PUSH32 0x596F7520617265206E6F7420612053616C657320526570202121000000000000 PUSH1 0x0 DUP3 ADD MSTORE POP JUMP JUMPDEST PUSH1 0x0 PUSH2 0x480A PUSH1 0x1A DUP4 PUSH2 0x3EB1 JUMP JUMPDEST SWAP2 POP PUSH2 0x4815 DUP3 PUSH2 0x47D4 JUMP JUMPDEST PUSH1 0x20 DUP3 ADD SWAP1 POP SWAP2 SWAP1 POP JUMP JUMPDEST PUSH1 0x0 PUSH1 0x20 DUP3 ADD SWAP1 POP DUP2 DUP2 SUB PUSH1 0x0 DUP4 ADD MSTORE PUSH2 0x4839 DUP2 PUSH2 0x47FD JUMP JUMPDEST SWAP1 POP SWAP2 SWAP1 POP JUMP JUMPDEST PUSH1 0x0 PUSH2 0x484B DUP3 PUSH2 0x3875 JUMP JUMPDEST SWAP2 POP PUSH2 0x4856 DUP4 PUSH2 0x3875 JUMP JUMPDEST SWAP3 POP DUP3 DUP3 LT ISZERO PUSH2 0x4869 JUMPI PUSH2 0x4868 PUSH2 0x46FB JUMP JUMPDEST JUMPDEST DUP3 DUP3 SUB SWAP1 POP SWAP3 SWAP2 POP POP JUMP JUMPDEST PUSH32 0x534F000000000000000000000000000000000000000000000000000000000000 DUP2 MSTORE POP JUMP JUMPDEST PUSH1 0x0 PUSH2 0x48A5 DUP3 PUSH2 0x4874 JUMP JUMPDEST PUSH1 0x2 DUP3 ADD SWAP2 POP PUSH2 0x48B5 DUP3 DUP5 PUSH2 0x417A JUMP JUMPDEST SWAP2 POP DUP2 SWAP1 POP SWAP3 SWAP2 POP POP JUMP JUMPDEST PUSH1 0x0 PUSH2 0x48CB DUP3 PUSH2 0x3875 JUMP JUMPDEST SWAP2 POP PUSH2 0x48D6 DUP4 PUSH2 0x3875 JUMP JUMPDEST SWAP3 POP DUP3 PUSH32 0xFFFFFFFFFFFFFFFFFFFFFFFFFFFFFFFFFFFFFFFFFFFFFFFFFFFFFFFFFFFFFFFF SUB DUP3 GT ISZERO PUSH2 0x490B JUMPI PUSH2 0x490A PUSH2 0x46FB JUMP JUMPDEST JUMPDEST DUP3 DUP3 ADD SWAP1 POP SWAP3 SWAP2 POP POP JUMP JUMPDEST PUSH1 0x0 DUP2 PUSH1 0x1 SHR SWAP1 POP SWAP2 SWAP1 POP JUMP JUMPDEST PUSH1 0x0 DUP1 DUP3 SWAP2 POP DUP4 SWAP1 POP JUMPDEST PUSH1 0x1 DUP6 GT ISZERO PUSH2 0x496D JUMPI DUP1 DUP7 DIV DUP2 GT ISZERO PUSH2 0x4949 JUMPI PUSH2 0x4948 PUSH2 0x46FB JUMP JUMPDEST JUMPDEST PUSH1 0x1 DUP6 AND ISZERO PUSH2 0x4958 JUMPI DUP1 DUP3 MUL SWAP2 POP JUMPDEST DUP1 DUP2 MUL SWAP1 POP PUSH2 0x4966 DUP6 PUSH2 0x4916 JUMP JUMPDEST SWAP5 POP PUSH2 0x492D JUMP JUMPDEST SWAP5 POP SWAP5 SWAP3 POP POP POP JUMP JUMPDEST PUSH1 0x0 DUP3 PUSH2 0x4986 JUMPI PUSH1 0x1 SWAP1 POP PUSH2 0x4A42 JUMP JUMPDEST DUP2 PUSH2 0x4994 JUMPI PUSH1 0x0 SWAP1 POP PUSH2 0x4A42 JUMP JUMPDEST DUP2 PUSH1 0x1 DUP2 EQ PUSH2 0x49AA JUMPI PUSH1 0x2 DUP2 EQ PUSH2 0x49B4 JUMPI PUSH2 0x49E3 JUMP JUMPDEST PUSH1 0x1 SWAP2 POP POP PUSH2 0x4A42 JUMP JUMPDEST PUSH1 0xFF DUP5 GT ISZERO PUSH2 0x49C6 JUMPI PUSH2 0x49C5 PUSH2 0x46FB JUMP JUMPDEST JUMPDEST DUP4 PUSH1 0x2 EXP SWAP2 POP DUP5 DUP3 GT ISZERO PUSH2 0x49DD JUMPI PUSH2 0x49DC PUSH2 0x46FB JUMP JUMPDEST JUMPDEST POP PUSH2 0x4A42 JUMP JUMPDEST POP PUSH1 0x20 DUP4 LT PUSH2 0x133 DUP4 LT AND PUSH1 0x4E DUP5 LT PUSH1 0xB DUP5 LT AND OR ISZERO PUSH2 0x4A18 JUMPI DUP3 DUP3 EXP SWAP1 POP DUP4 DUP2 GT ISZERO PUSH2 0x4A13 JUMPI PUSH2 0x4A12 PUSH2 0x46FB JUMP JUMPDEST JUMPDEST PUSH2 0x4A42 JUMP JUMPDEST PUSH2 0x4A25 DUP5 DUP5 DUP5 PUSH1 0x1 PUSH2 0x4923 JUMP JUMPDEST SWAP3 POP SWAP1 POP DUP2 DUP5 DIV DUP2 GT ISZERO PUSH2 0x4A3C JUMPI PUSH2 0x4A3B PUSH2 0x46FB JUMP JUMPDEST JUMPDEST DUP2 DUP2 MUL SWAP1 POP JUMPDEST SWAP4 SWAP3 POP POP POP JUMP JUMPDEST PUSH1 0x0 PUSH2 0x4A54 DUP3 PUSH2 0x3875 JUMP JUMPDEST SWAP2 POP PUSH2 0x4A5F DUP4 PUSH2 0x3875 JUMP JUMPDEST SWAP3 POP PUSH2 0x4A8C PUSH32 0xFFFFFFFFFFFFFFFFFFFFFFFFFFFFFFFFFFFFFFFFFFFFFFFFFFFFFFFFFFFFFFFF DUP5 DUP5 PUSH2 0x4976 JUMP JUMPDEST SWAP1 POP SWAP3 SWAP2 POP POP JUMP JUMPDEST PUSH1 0x0 PUSH2 0x4A9F DUP3 PUSH2 0x3875 JUMP JUMPDEST SWAP2 POP PUSH2 0x4AAA DUP4 PUSH2 0x3875 JUMP JUMPDEST SWAP3 POP DUP2 PUSH32 0xFFFFFFFFFFFFFFFFFFFFFFFFFFFFFFFFFFFFFFFFFFFFFFFFFFFFFFFFFFFFFFFF DIV DUP4 GT DUP3 ISZERO ISZERO AND ISZERO PUSH2 0x4AE3 JUMPI PUSH2 0x4AE2 PUSH2 0x46FB JUMP JUMPDEST JUMPDEST DUP3 DUP3 MUL SWAP1 POP SWAP3 SWAP2 POP POP JUMP JUMPDEST PUSH32 0x4E756C6C206163636F756E7420697320636F6D696E672066726F6D2066726F6E PUSH1 0x0 DUP3 ADD MSTORE PUSH32 0x742D656E64202121000000000000000000000000000000000000000000000000 PUSH1 0x20 DUP3 ADD MSTORE POP JUMP JUMPDEST PUSH1 0x0 PUSH2 0x4B4A PUSH1 0x28 DUP4 PUSH2 0x3EB1 JUMP JUMPDEST SWAP2 POP PUSH2 0x4B55 DUP3 PUSH2 0x4AEE JUMP JUMPDEST PUSH1 0x40 DUP3 ADD SWAP1 POP SWAP2 SWAP1 POP JUMP JUMPDEST PUSH1 0x0 PUSH1 0x20 DUP3 ADD SWAP1 POP DUP2 DUP2 SUB PUSH1 0x0 DUP4 ADD MSTORE PUSH2 0x4B79 DUP2 PUSH2 0x4B3D JUMP JUMPDEST SWAP1 POP SWAP2 SWAP1 POP JUMP JUMPDEST PUSH32 0x4F776E61626C653A206E6577206F776E657220697320746865207A65726F2061 PUSH1 0x0 DUP3 ADD MSTORE PUSH32 0x6464726573730000000000000000000000000000000000000000000000000000 PUSH1 0x20 DUP3 ADD MSTORE POP JUMP JUMPDEST PUSH1 0x0 PUSH2 0x4BDC PUSH1 0x26 DUP4 PUSH2 0x3EB1 JUMP JUMPDEST SWAP2 POP PUSH2 0x4BE7 DUP3 PUSH2 0x4B80 JUMP JUMPDEST PUSH1 0x40 DUP3 ADD SWAP1 POP SWAP2 SWAP1 POP JUMP JUMPDEST PUSH1 0x0 PUSH1 0x20 DUP3 ADD SWAP1 POP DUP2 DUP2 SUB PUSH1 0x0 DUP4 ADD MSTORE PUSH2 0x4C0B DUP2 PUSH2 0x4BCF JUMP JUMPDEST SWAP1 POP SWAP2 SWAP1 POP JUMP JUMPDEST PUSH32 0x504F000000000000000000000000000000000000000000000000000000000000 DUP2 MSTORE POP JUMP JUMPDEST PUSH1 0x0 PUSH2 0x4C43 DUP3 PUSH2 0x4C12 JUMP JUMPDEST PUSH1 0x2 DUP3 ADD SWAP2 POP PUSH2 0x4C53 DUP3 DUP5 PUSH2 0x417A JUMP JUMPDEST SWAP2 POP DUP2 SWAP1 POP SWAP3 SWAP2 POP POP JUMP JUMPDEST PUSH32 0x4E487B7100000000000000000000000000000000000000000000000000000000 PUSH1 0x0 MSTORE PUSH1 0x12 PUSH1 0x4 MSTORE PUSH1 0x24 PUSH1 0x0 REVERT JUMPDEST PUSH32 0x4F776E61626C653A2063616C6C6572206973206E6F7420746865206F776E6572 PUSH1 0x0 DUP3 ADD MSTORE POP JUMP JUMPDEST PUSH1 0x0 PUSH2 0x4CC3 PUSH1 0x20 DUP4 PUSH2 0x3EB1 JUMP JUMPDEST SWAP2 POP PUSH2 0x4CCE DUP3 PUSH2 0x4C8D JUMP JUMPDEST PUSH1 0x20 DUP3 ADD SWAP1 POP SWAP2 SWAP1 POP JUMP JUMPDEST PUSH1 0x0 PUSH1 0x20 DUP3 ADD SWAP1 POP DUP2 DUP2 SUB PUSH1 0x0 DUP4 ADD MSTORE PUSH2 0x4CF2 DUP2 PUSH2 0x4CB6 JUMP JUMPDEST SWAP1 POP SWAP2 SWAP1 POP JUMP INVALID LOG2 PUSH5 0x6970667358 0x22 SLT KECCAK256 DUP4 COINBASE PUSH23 0xBE3E88EC3597085E0D099ADFBC003C7FC9B7A2D36F04DC LT SLT 0xE4 DIFFICULTY 0xD1 0x23 PUSH5 0x736F6C6343 STOP ADDMOD 0xC STOP CALLER "},"methodIdentifiers":{"addRole(address,string)":"7d72aa65","createOrder(string,uint256,uint256,string)":"fb0a9a6d","getAllOrderDetails()":"6bc184b4","getOrderDetails(string)":"4fbb487c","getRole()":"fde08174","orderData(string)":"e393f263","orders(uint256)":"a85c38ef","owner()":"8da5cb5b","renounceOwnership()":"715018a6","roles(address)":"99374642","st2num(string)":"79cd9055","transferOwnership(address)":"f2fde38b","update(string,string[],string[])":"5a553855"}},"storageLayout":{"storage":[{"astId":82,"contract":"contracts/SupplyChain.sol:SupplyChain","label":"_owner","offset":0,"slot":"0","type":"t_address"},{"astId":5,"contract":"contracts/SupplyChain.sol:SupplyChain","label":"_gatewayTokenContract","offset":0,"slot":"1","type":"t_address"},{"astId":7,"contract":"contracts/SupplyChain.sol:SupplyChain","label":"_gatekeeperNetwork","offset":0,"slot":"2","type":"t_uint256"},{"astId":1260,"contract":"contracts/SupplyChain.sol:SupplyChain","label":"so_ID","offset":0,"slot":"3","type":"t_uint256"},{"astId":1262,"contract":"contracts/SupplyChain.sol:SupplyChain","label":"start_so_ID","offset":0,"slot":"4","type":"t_uint256"},{"astId":1292,"contract":"contracts/SupplyChain.sol:SupplyChain","label":"orderData","offset":0,"slot":"5","type":"t_mapping(t_string_memory_ptr,t_struct(Order)1287_storage)"},{"astId":1296,"contract":"contracts/SupplyChain.sol:SupplyChain","label":"orders","offset":0,"slot":"6","type":"t_array(t_struct(Order)1287_storage)dyn_storage"},{"astId":1300,"contract":"contracts/SupplyChain.sol:SupplyChain","label":"roles","offset":0,"slot":"7","type":"t_mapping(t_address,t_string_storage)"}],"types":{"t_address":{"encoding":"inplace","label":"address","numberOfBytes":"20"},"t_array(t_struct(Order)1287_storage)dyn_storage":{"base":"t_struct(Order)1287_storage","encoding":"dynamic_array","label":"struct SupplyChain.Order[]","numberOfBytes":"32"},"t_mapping(t_address,t_string_storage)":{"encoding":"mapping","key":"t_address","label":"mapping(address => string)","numberOfBytes":"32","value":"t_string_storage"},"t_mapping(t_string_memory_ptr,t_struct(Order)1287_storage)":{"encoding":"mapping","key":"t_string_memory_ptr","label":"mapping(string => struct SupplyChain.Order)","numberOfBytes":"32","value":"t_struct(Order)1287_storage"},"t_string_memory_ptr":{"encoding":"bytes","label":"string","numberOfBytes":"32"},"t_string_storage":{"encoding":"bytes","label":"string","numberOfBytes":"32"},"t_struct(Order)1287_storage":{"encoding":"inplace","label":"struct SupplyChain.Order","members":[{"astId":1264,"contract":"contracts/SupplyChain.sol:SupplyChain","label":"SoID","offset":0,"slot":"0","type":"t_string_storage"},{"astId":1266,"contract":"contracts/SupplyChain.sol:SupplyChain","label":"PoID","offset":0,"slot":"1","type":"t_string_storage"},{"astId":1268,"contract":"contracts/SupplyChain.sol:SupplyChain","label":"prodName","offset":0,"slot":"2","type":"t_string_storage"},{"astId":1270,"contract":"contracts/SupplyChain.sol:SupplyChain","label":"qty","offset":0,"slot":"3","type":"t_uint256"},{"astId":1272,"contract":"contracts/SupplyChain.sol:SupplyChain","label":"orderValue","offset":0,"slot":"4","type":"t_uint256"},{"astId":1274,"contract":"contracts/SupplyChain.sol:SupplyChain","label":"customerFinalDeliveryDate","offset":0,"slot":"5","type":"t_uint256"},{"astId":1276,"contract":"contracts/SupplyChain.sol:SupplyChain","label":"status","offset":0,"slot":"6","type":"t_string_storage"},{"astId":1278,"contract":"contracts/SupplyChain.sol:SupplyChain","label":"barCode","offset":0,"slot":"7","type":"t_string_storage"},{"astId":1280,"contract":"contracts/SupplyChain.sol:SupplyChain","label":"batchNo","offset":0,"slot":"8","type":"t_string_storage"},{"astId":1282,"contract":"contracts/SupplyChain.sol:SupplyChain","label":"masterLabel","offset":0,"slot":"9","type":"t_string_storage"},{"astId":1284,"contract":"contracts/SupplyChain.sol:SupplyChain","label":"invoicePath","offset":0,"slot":"10","type":"t_string_storage"},{"astId":1286,"contract":"contracts/SupplyChain.sol:SupplyChain","label":"trackingNo","offset":0,"slot":"11","type":"t_string_storage"}],"numberOfBytes":"384"},"t_uint256":{"encoding":"inplace","label":"uint256","numberOfBytes":"32"}}}}}}