{"contracts/SupplyChain.sol":{"SupplyChain":{"abi":[{"inputs":[],"stateMutability":"nonpayable","type":"constructor"},{"anonymous":false,"inputs":[{"indexed":false,"internalType":"string","name":"_soId","type":"string"}],"name":"GetSoID","type":"event"},{"anonymous":false,"inputs":[{"indexed":true,"internalType":"address","name":"previousOwner","type":"address"},{"indexed":true,"internalType":"address","name":"newOwner","type":"address"}],"name":"OwnershipTransferred","type":"event"},{"inputs":[{"internalType":"address","name":"_account","type":"address"},{"internalType":"string","name":"role","type":"string"}],"name":"addRole","outputs":[],"stateMutability":"nonpayable","type":"function"},{"inputs":[{"internalType":"string","name":"_prodName","type":"string"},{"internalType":"uint256","name":"_qty","type":"uint256"},{"internalType":"uint256","name":"_ordrVal","type":"uint256"},{"internalType":"string","name":"_status","type":"string"}],"name":"createOrder","outputs":[],"stateMutability":"nonpayable","type":"function"},{"inputs":[],"name":"getAllOrderDetails","outputs":[{"components":[{"internalType":"string","name":"SoID","type":"string"},{"internalType":"string","name":"PoID","type":"string"},{"internalType":"string","name":"prodName","type":"string"},{"internalType":"uint256","name":"qty","type":"uint256"},{"internalType":"uint256","name":"orderValue","type":"uint256"},{"internalType":"uint256","name":"customerFinalDeliveryDate","type":"uint256"},{"internalType":"string","name":"status","type":"string"},{"internalType":"string","name":"barCode","type":"string"},{"internalType":"string","name":"batchNo","type":"string"},{"internalType":"string","name":"masterLabel","type":"string"},{"internalType":"string","name":"invoicePath","type":"string"},{"internalType":"string","name":"trackingNo","type":"string"}],"internalType":"struct SupplyChain.Order[]","name":"","type":"tuple[]"}],"stateMutability":"view","type":"function"},{"inputs":[{"internalType":"string","name":"_soOrPo","type":"string"}],"name":"getOrderDetails","outputs":[{"components":[{"internalType":"string","name":"SoID","type":"string"},{"internalType":"string","name":"PoID","type":"string"},{"internalType":"string","name":"prodName","type":"string"},{"internalType":"uint256","name":"qty","type":"uint256"},{"internalType":"uint256","name":"orderValue","type":"uint256"},{"internalType":"uint256","name":"customerFinalDeliveryDate","type":"uint256"},{"internalType":"string","name":"status","type":"string"},{"internalType":"string","name":"barCode","type":"string"},{"internalType":"string","name":"batchNo","type":"string"},{"internalType":"string","name":"masterLabel","type":"string"},{"internalType":"string","name":"invoicePath","type":"string"},{"internalType":"string","name":"trackingNo","type":"string"}],"internalType":"struct SupplyChain.Order","name":"","type":"tuple"}],"stateMutability":"view","type":"function"},{"inputs":[],"name":"getRole","outputs":[{"internalType":"string","name":"","type":"string"}],"stateMutability":"view","type":"function"},{"inputs":[],"name":"getcurrentSOId","outputs":[{"internalType":"string","name":"","type":"string"}],"stateMutability":"view","type":"function"},{"inputs":[{"internalType":"string","name":"","type":"string"}],"name":"orderData","outputs":[{"internalType":"string","name":"SoID","type":"string"},{"internalType":"string","name":"PoID","type":"string"},{"internalType":"string","name":"prodName","type":"string"},{"internalType":"uint256","name":"qty","type":"uint256"},{"internalType":"uint256","name":"orderValue","type":"uint256"},{"internalType":"uint256","name":"customerFinalDeliveryDate","type":"uint256"},{"internalType":"string","name":"status","type":"string"},{"internalType":"string","name":"barCode","type":"string"},{"internalType":"string","name":"batchNo","type":"string"},{"internalType":"string","name":"masterLabel","type":"string"},{"internalType":"string","name":"invoicePath","type":"string"},{"internalType":"string","name":"trackingNo","type":"string"}],"stateMutability":"view","type":"function"},{"inputs":[{"internalType":"uint256","name":"","type":"uint256"}],"name":"orders","outputs":[{"internalType":"string","name":"SoID","type":"string"},{"internalType":"string","name":"PoID","type":"string"},{"internalType":"string","name":"prodName","type":"string"},{"internalType":"uint256","name":"qty","type":"uint256"},{"internalType":"uint256","name":"orderValue","type":"uint256"},{"internalType":"uint256","name":"customerFinalDeliveryDate","type":"uint256"},{"internalType":"string","name":"status","type":"string"},{"internalType":"string","name":"barCode","type":"string"},{"internalType":"string","name":"batchNo","type":"string"},{"internalType":"string","name":"masterLabel","type":"string"},{"internalType":"string","name":"invoicePath","type":"string"},{"internalType":"string","name":"trackingNo","type":"string"}],"stateMutability":"view","type":"function"},{"inputs":[],"name":"owner","outputs":[{"internalType":"address","name":"","type":"address"}],"stateMutability":"view","type":"function"},{"inputs":[],"name":"renounceOwnership","outputs":[],"stateMutability":"nonpayable","type":"function"},{"inputs":[{"internalType":"address","name":"","type":"address"}],"name":"roles","outputs":[{"internalType":"string","name":"","type":"string"}],"stateMutability":"view","type":"function"},{"inputs":[{"internalType":"string","name":"numString","type":"string"}],"name":"st2num","outputs":[{"internalType":"uint256","name":"","type":"uint256"}],"stateMutability":"pure","type":"function"},{"inputs":[{"internalType":"address","name":"newOwner","type":"address"}],"name":"transferOwnership","outputs":[],"stateMutability":"nonpayable","type":"function"},{"inputs":[{"internalType":"string","name":"_so","type":"string"},{"internalType":"string[]","name":"colName","type":"string[]"},{"internalType":"string[]","name":"_value","type":"string[]"}],"name":"update","outputs":[],"stateMutability":"nonpayable","type":"function"}],"evm":{"bytecode":{"linkReferences":{},"object":"60806040523480156200001157600080fd5b5062000032620000266200004a60201b60201c565b6200005260201b60201c565b61409460018190555061409460028190555062000116565b600033905090565b60008060009054906101000a900473ffffffffffffffffffffffffffffffffffffffff169050816000806101000a81548173ffffffffffffffffffffffffffffffffffffffff021916908373ffffffffffffffffffffffffffffffffffffffff1602179055508173ffffffffffffffffffffffffffffffffffffffff168173ffffffffffffffffffffffffffffffffffffffff167f8be0079c531659141344cd1fd0a4f28419497f9722a3daafe3b4186f6b6457e060405160405180910390a35050565b614cce80620001266000396000f3fe608060405234801561001057600080fd5b50600436106100ea5760003560e01c8063993746421161008c578063e393f26311610066578063e393f26314610256578063f2fde38b14610291578063fb0a9a6d146102ad578063fde08174146102c9576100ea565b806399374642146101cd578063a85c38ef146101fd578063d76d89fb14610238576100ea565b8063715018a6116100c8578063715018a61461015957806379cd9055146101635780637d72aa65146101935780638da5cb5b146101af576100ea565b80634fbb487c146100ef5780635a5538551461011f5780636bc184b41461013b575b600080fd5b61010960048036038101906101049190613743565b6102e7565b6040516101169190613969565b60405180910390f35b61013960048036038101906101349190613a41565b610e34565b005b61014361152a565b6040516101509190613cf3565b60405180910390f35b610161611b8c565b005b61017d60048036038101906101789190613743565b611ba0565b60405161018a9190613d24565b60405180910390f35b6101ad60048036038101906101a89190613d9d565b611c5a565b005b6101b7611d2c565b6040516101c49190613e08565b60405180910390f35b6101e760048036038101906101e29190613e23565b611d55565b6040516101f49190613e9a565b60405180910390f35b61021760048036038101906102129190613ee8565b611df5565b60405161022f9c9b9a99989796959493929190613f15565b60405180910390f35b61024061232d565b60405161024d9190613e9a565b60405180910390f35b610270600480360381019061026b9190613743565b61235e565b6040516102889c9b9a99989796959493929190613f15565b60405180910390f35b6102ab60048036038101906102a69190613e23565b61289c565b005b6102c760048036038101906102c2919061400e565b612920565b005b6102d1612dd9565b6040516102de9190613e9a565b60405180910390f35b6102ef61345f565b6040516020016102fe90614104565b6040516020818303038152906040528051906020012061031d83612ea8565b60405160200161032d919061414a565b6040516020818303038152906040528051906020012014156108ba57600382604051610359919061414a565b90815260200160405180910390206040518061018001604052908160008201805461038390614190565b80601f01602080910402602001604051908101604052809291908181526020018280546103af90614190565b80156103fc5780601f106103d1576101008083540402835291602001916103fc565b820191906000526020600020905b8154815290600101906020018083116103df57829003601f168201915b5050505050815260200160018201805461041590614190565b80601f016020809104026020016040519081016040528092919081815260200182805461044190614190565b801561048e5780601f106104635761010080835404028352916020019161048e565b820191906000526020600020905b81548152906001019060200180831161047157829003601f168201915b505050505081526020016002820180546104a790614190565b80601f01602080910402602001604051908101604052809291908181526020018280546104d390614190565b80156105205780601f106104f557610100808354040283529160200191610520565b820191906000526020600020905b81548152906001019060200180831161050357829003601f168201915b5050505050815260200160038201548152602001600482015481526020016005820154815260200160068201805461055790614190565b80601f016020809104026020016040519081016040528092919081815260200182805461058390614190565b80156105d05780601f106105a5576101008083540402835291602001916105d0565b820191906000526020600020905b8154815290600101906020018083116105b357829003601f168201915b505050505081526020016007820180546105e990614190565b80601f016020809104026020016040519081016040528092919081815260200182805461061590614190565b80156106625780601f1061063757610100808354040283529160200191610662565b820191906000526020600020905b81548152906001019060200180831161064557829003601f168201915b5050505050815260200160088201805461067b90614190565b80601f01602080910402602001604051908101604052809291908181526020018280546106a790614190565b80156106f45780601f106106c9576101008083540402835291602001916106f4565b820191906000526020600020905b8154815290600101906020018083116106d757829003601f168201915b5050505050815260200160098201805461070d90614190565b80601f016020809104026020016040519081016040528092919081815260200182805461073990614190565b80156107865780601f1061075b57610100808354040283529160200191610786565b820191906000526020600020905b81548152906001019060200180831161076957829003601f168201915b50505050508152602001600a8201805461079f90614190565b80601f01602080910402602001604051908101604052809291908181526020018280546107cb90614190565b80156108185780601f106107ed57610100808354040283529160200191610818565b820191906000526020600020905b8154815290600101906020018083116107fb57829003601f168201915b50505050508152602001600b8201805461083190614190565b80601f016020809104026020016040519081016040528092919081815260200182805461085d90614190565b80156108aa5780601f1061087f576101008083540402835291602001916108aa565b820191906000526020600020905b81548152906001019060200180831161088d57829003601f168201915b5050505050815250509050610e2f565b60036108c583612f67565b6040516108d2919061414a565b9081526020016040518091039020604051806101800160405290816000820180546108fc90614190565b80601f016020809104026020016040519081016040528092919081815260200182805461092890614190565b80156109755780601f1061094a57610100808354040283529160200191610975565b820191906000526020600020905b81548152906001019060200180831161095857829003601f168201915b5050505050815260200160018201805461098e90614190565b80601f01602080910402602001604051908101604052809291908181526020018280546109ba90614190565b8015610a075780601f106109dc57610100808354040283529160200191610a07565b820191906000526020600020905b8154815290600101906020018083116109ea57829003601f168201915b50505050508152602001600282018054610a2090614190565b80601f0160208091040260200160405190810160405280929190818152602001828054610a4c90614190565b8015610a995780601f10610a6e57610100808354040283529160200191610a99565b820191906000526020600020905b815481529060010190602001808311610a7c57829003601f168201915b50505050508152602001600382015481526020016004820154815260200160058201548152602001600682018054610ad090614190565b80601f0160208091040260200160405190810160405280929190818152602001828054610afc90614190565b8015610b495780601f10610b1e57610100808354040283529160200191610b49565b820191906000526020600020905b815481529060010190602001808311610b2c57829003601f168201915b50505050508152602001600782018054610b6290614190565b80601f0160208091040260200160405190810160405280929190818152602001828054610b8e90614190565b8015610bdb5780601f10610bb057610100808354040283529160200191610bdb565b820191906000526020600020905b815481529060010190602001808311610bbe57829003601f168201915b50505050508152602001600882018054610bf490614190565b80601f0160208091040260200160405190810160405280929190818152602001828054610c2090614190565b8015610c6d5780601f10610c4257610100808354040283529160200191610c6d565b820191906000526020600020905b815481529060010190602001808311610c5057829003601f168201915b50505050508152602001600982018054610c8690614190565b80601f0160208091040260200160405190810160405280929190818152602001828054610cb290614190565b8015610cff5780601f10610cd457610100808354040283529160200191610cff565b820191906000526020600020905b815481529060010190602001808311610ce257829003601f168201915b50505050508152602001600a82018054610d1890614190565b80601f0160208091040260200160405190810160405280929190818152602001828054610d4490614190565b8015610d915780601f10610d6657610100808354040283529160200191610d91565b820191906000526020600020905b815481529060010190602001808311610d7457829003601f168201915b50505050508152602001600b82018054610daa90614190565b80601f0160208091040260200160405190810160405280929190818152602001828054610dd690614190565b8015610e235780601f10610df857610100808354040283529160200191610e23565b820191906000526020600020905b815481529060010190602001808311610e0657829003601f168201915b50505050508152505090505b919050565b604051602001610e43906141e8565b60405160208183030381529060405280519060200120600560003373ffffffffffffffffffffffffffffffffffffffff1673ffffffffffffffffffffffffffffffffffffffff168152602001908152602001600020604051602001610ea89190614291565b604051602081830303815290604052805190602001201415610eff576040517f08c379a0000000000000000000000000000000000000000000000000000000008152600401610ef6906142f4565b60405180910390fd5b60005b8484905081101561152157604051602001610f1c90614360565b60405160208183030381529060405280519060200120858583818110610f4557610f44614375565b5b9050602002810190610f5791906143b3565b604051602001610f6892919061443b565b604051602081830303815290604052805190602001201415610fdf57828282818110610f9757610f96614375565b5b9050602002810190610fa991906143b3565b60038989604051610fbb92919061443b565b90815260200160405180910390206006019190610fd99291906134c0565b5061150e565b604051602001610fee906144a0565b6040516020818303038152906040528051906020012085858381811061101757611016614375565b5b905060200281019061102991906143b3565b60405160200161103a92919061443b565b6040516020818303038152906040528051906020012014156110f2576110c683838381811061106c5761106b614375565b5b905060200281019061107e91906143b3565b8080601f016020809104026020016040519081016040528093929190818152602001838380828437600081840152601f19601f82011690508083019250505050505050611ba0565b600388886040516110d892919061443b565b90815260200160405180910390206005018190555061150d565b60405160200161110190614501565b6040516020818303038152906040528051906020012085858381811061112a57611129614375565b5b905060200281019061113c91906143b3565b60405160200161114d92919061443b565b6040516020818303038152906040528051906020012014156111c45782828281811061117c5761117b614375565b5b905060200281019061118e91906143b3565b600389896040516111a092919061443b565b908152602001604051809103902060070191906111be9291906134c0565b5061150c565b6040516020016111d390614562565b604051602081830303815290604052805190602001208585838181106111fc576111fb614375565b5b905060200281019061120e91906143b3565b60405160200161121f92919061443b565b6040516020818303038152906040528051906020012014156112965782828281811061124e5761124d614375565b5b905060200281019061126091906143b3565b6003898960405161127292919061443b565b908152602001604051809103902060080191906112909291906134c0565b5061150b565b6040516020016112a5906145c3565b604051602081830303815290604052805190602001208585838181106112ce576112cd614375565b5b90506020028101906112e091906143b3565b6040516020016112f192919061443b565b604051602081830303815290604052805190602001201415611368578282828181106113205761131f614375565b5b905060200281019061133291906143b3565b6003898960405161134492919061443b565b908152602001604051809103902060090191906113629291906134c0565b5061150a565b60405160200161137790614624565b604051602081830303815290604052805190602001208585838181106113a05761139f614375565b5b90506020028101906113b291906143b3565b6040516020016113c392919061443b565b60405160208183030381529060405280519060200120141561143a578282828181106113f2576113f1614375565b5b905060200281019061140491906143b3565b6003898960405161141692919061443b565b9081526020016040518091039020600a0191906114349291906134c0565b50611509565b60405160200161144990614685565b6040516020818303038152906040528051906020012085858381811061147257611471614375565b5b905060200281019061148491906143b3565b60405160200161149592919061443b565b604051602081830303815290604052805190602001201415611508578282828181106114c4576114c3614375565b5b90506020028101906114d691906143b3565b600389896040516114e892919061443b565b9081526020016040518091039020600b0191906115069291906134c0565b505b5b5b5b5b5b5b8080611519906146c9565b915050610f02565b50505050505050565b6060600060015490506000806002546001546115469190614712565b67ffffffffffffffff81111561155f5761155e613618565b5b60405190808252806020026020018201604052801561159857816020015b61158561345f565b81526020019060019003908161157d5790505b509050600060025490505b83811015611b8257600060036115b8836130ea565b6040516020016115c8919061476c565b6040516020818303038152906040526040516115e4919061414a565b90815260200160405180910390209050806040518061018001604052908160008201805461161190614190565b80601f016020809104026020016040519081016040528092919081815260200182805461163d90614190565b801561168a5780601f1061165f5761010080835404028352916020019161168a565b820191906000526020600020905b81548152906001019060200180831161166d57829003601f168201915b505050505081526020016001820180546116a390614190565b80601f01602080910402602001604051908101604052809291908181526020018280546116cf90614190565b801561171c5780601f106116f15761010080835404028352916020019161171c565b820191906000526020600020905b8154815290600101906020018083116116ff57829003601f168201915b5050505050815260200160028201805461173590614190565b80601f016020809104026020016040519081016040528092919081815260200182805461176190614190565b80156117ae5780601f10611783576101008083540402835291602001916117ae565b820191906000526020600020905b81548152906001019060200180831161179157829003601f168201915b505050505081526020016003820154815260200160048201548152602001600582015481526020016006820180546117e590614190565b80601f016020809104026020016040519081016040528092919081815260200182805461181190614190565b801561185e5780601f106118335761010080835404028352916020019161185e565b820191906000526020600020905b81548152906001019060200180831161184157829003601f168201915b5050505050815260200160078201805461187790614190565b80601f01602080910402602001604051908101604052809291908181526020018280546118a390614190565b80156118f05780601f106118c5576101008083540402835291602001916118f0565b820191906000526020600020905b8154815290600101906020018083116118d357829003601f168201915b5050505050815260200160088201805461190990614190565b80601f016020809104026020016040519081016040528092919081815260200182805461193590614190565b80156119825780601f1061195757610100808354040283529160200191611982565b820191906000526020600020905b81548152906001019060200180831161196557829003601f168201915b5050505050815260200160098201805461199b90614190565b80601f01602080910402602001604051908101604052809291908181526020018280546119c790614190565b8015611a145780601f106119e957610100808354040283529160200191611a14565b820191906000526020600020905b8154815290600101906020018083116119f757829003601f168201915b50505050508152602001600a82018054611a2d90614190565b80601f0160208091040260200160405190810160405280929190818152602001828054611a5990614190565b8015611aa65780601f10611a7b57610100808354040283529160200191611aa6565b820191906000526020600020905b815481529060010190602001808311611a8957829003601f168201915b50505050508152602001600b82018054611abf90614190565b80601f0160208091040260200160405190810160405280929190818152602001828054611aeb90614190565b8015611b385780601f10611b0d57610100808354040283529160200191611b38565b820191906000526020600020905b815481529060010190602001808311611b1b57829003601f168201915b505050505081525050838581518110611b5457611b53614375565b5b6020026020010181905250600184611b6c9190614792565b9350508080611b7a906146c9565b9150506115a3565b5080935050505090565b611b946131c2565b611b9e6000613240565b565b60008060009050600083905060005b8151811015611c4f576000818351611bc79190614712565b90506000838381518110611bde57611bdd614375565b5b602001015160f81c60f81b905060008160f81c9050600060308260ff16611c059190614712565b9050600184611c149190614712565b600a611c20919061491b565b81611c2b9190614966565b87611c369190614792565b9650505050508080611c47906146c9565b915050611baf565b508192505050919050565b611c626131c2565b81600073ffffffffffffffffffffffffffffffffffffffff168173ffffffffffffffffffffffffffffffffffffffff161415611cd3576040517f08c379a0000000000000000000000000000000000000000000000000000000008152600401611cca90614a32565b60405180910390fd5b81600560008573ffffffffffffffffffffffffffffffffffffffff1673ffffffffffffffffffffffffffffffffffffffff1681526020019081526020016000209080519060200190611d26929190613546565b50505050565b60008060009054906101000a900473ffffffffffffffffffffffffffffffffffffffff16905090565b60056020528060005260406000206000915090508054611d7490614190565b80601f0160208091040260200160405190810160405280929190818152602001828054611da090614190565b8015611ded5780601f10611dc257610100808354040283529160200191611ded565b820191906000526020600020905b815481529060010190602001808311611dd057829003601f168201915b505050505081565b60048181548110611e0557600080fd5b90600052602060002090600c0201600091509050806000018054611e2890614190565b80601f0160208091040260200160405190810160405280929190818152602001828054611e5490614190565b8015611ea15780601f10611e7657610100808354040283529160200191611ea1565b820191906000526020600020905b815481529060010190602001808311611e8457829003601f168201915b505050505090806001018054611eb690614190565b80601f0160208091040260200160405190810160405280929190818152602001828054611ee290614190565b8015611f2f5780601f10611f0457610100808354040283529160200191611f2f565b820191906000526020600020905b815481529060010190602001808311611f1257829003601f168201915b505050505090806002018054611f4490614190565b80601f0160208091040260200160405190810160405280929190818152602001828054611f7090614190565b8015611fbd5780601f10611f9257610100808354040283529160200191611fbd565b820191906000526020600020905b815481529060010190602001808311611fa057829003601f168201915b505050505090806003015490806004015490806005015490806006018054611fe490614190565b80601f016020809104026020016040519081016040528092919081815260200182805461201090614190565b801561205d5780601f106120325761010080835404028352916020019161205d565b820191906000526020600020905b81548152906001019060200180831161204057829003601f168201915b50505050509080600701805461207290614190565b80601f016020809104026020016040519081016040528092919081815260200182805461209e90614190565b80156120eb5780601f106120c0576101008083540402835291602001916120eb565b820191906000526020600020905b8154815290600101906020018083116120ce57829003601f168201915b50505050509080600801805461210090614190565b80601f016020809104026020016040519081016040528092919081815260200182805461212c90614190565b80156121795780601f1061214e57610100808354040283529160200191612179565b820191906000526020600020905b81548152906001019060200180831161215c57829003601f168201915b50505050509080600901805461218e90614190565b80601f01602080910402602001604051908101604052809291908181526020018280546121ba90614190565b80156122075780601f106121dc57610100808354040283529160200191612207565b820191906000526020600020905b8154815290600101906020018083116121ea57829003601f168201915b50505050509080600a01805461221c90614190565b80601f016020809104026020016040519081016040528092919081815260200182805461224890614190565b80156122955780601f1061226a57610100808354040283529160200191612295565b820191906000526020600020905b81548152906001019060200180831161227857829003601f168201915b50505050509080600b0180546122aa90614190565b80601f01602080910402602001604051908101604052809291908181526020018280546122d690614190565b80156123235780601f106122f857610100808354040283529160200191612323565b820191906000526020600020905b81548152906001019060200180831161230657829003601f168201915b505050505090508c565b606061233a6001546130ea565b60405160200161234a919061476c565b604051602081830303815290604052905090565b60038180516020810182018051848252602083016020850120818352809550505050505060009150905080600001805461239790614190565b80601f01602080910402602001604051908101604052809291908181526020018280546123c390614190565b80156124105780601f106123e557610100808354040283529160200191612410565b820191906000526020600020905b8154815290600101906020018083116123f357829003601f168201915b50505050509080600101805461242590614190565b80601f016020809104026020016040519081016040528092919081815260200182805461245190614190565b801561249e5780601f106124735761010080835404028352916020019161249e565b820191906000526020600020905b81548152906001019060200180831161248157829003601f168201915b5050505050908060020180546124b390614190565b80601f01602080910402602001604051908101604052809291908181526020018280546124df90614190565b801561252c5780601f106125015761010080835404028352916020019161252c565b820191906000526020600020905b81548152906001019060200180831161250f57829003601f168201915b50505050509080600301549080600401549080600501549080600601805461255390614190565b80601f016020809104026020016040519081016040528092919081815260200182805461257f90614190565b80156125cc5780601f106125a1576101008083540402835291602001916125cc565b820191906000526020600020905b8154815290600101906020018083116125af57829003601f168201915b5050505050908060070180546125e190614190565b80601f016020809104026020016040519081016040528092919081815260200182805461260d90614190565b801561265a5780601f1061262f5761010080835404028352916020019161265a565b820191906000526020600020905b81548152906001019060200180831161263d57829003601f168201915b50505050509080600801805461266f90614190565b80601f016020809104026020016040519081016040528092919081815260200182805461269b90614190565b80156126e85780601f106126bd576101008083540402835291602001916126e8565b820191906000526020600020905b8154815290600101906020018083116126cb57829003601f168201915b5050505050908060090180546126fd90614190565b80601f016020809104026020016040519081016040528092919081815260200182805461272990614190565b80156127765780601f1061274b57610100808354040283529160200191612776565b820191906000526020600020905b81548152906001019060200180831161275957829003601f168201915b50505050509080600a01805461278b90614190565b80601f01602080910402602001604051908101604052809291908181526020018280546127b790614190565b80156128045780601f106127d957610100808354040283529160200191612804565b820191906000526020600020905b8154815290600101906020018083116127e757829003601f168201915b50505050509080600b01805461281990614190565b80601f016020809104026020016040519081016040528092919081815260200182805461284590614190565b80156128925780601f1061286757610100808354040283529160200191612892565b820191906000526020600020905b81548152906001019060200180831161287557829003601f168201915b505050505090508c565b6128a46131c2565b600073ffffffffffffffffffffffffffffffffffffffff168173ffffffffffffffffffffffffffffffffffffffff161415612914576040517f08c379a000000000000000000000000000000000000000000000000000000000815260040161290b90614ac4565b60405180910390fd5b61291d81613240565b50565b60405160200161292f90614b30565b60405160208183030381529060405280519060200120600560003373ffffffffffffffffffffffffffffffffffffffff1673ffffffffffffffffffffffffffffffffffffffff1681526020019081526020016000206040516020016129949190614291565b60405160208183030381529060405280519060200120146129ea576040517f08c379a00000000000000000000000000000000000000000000000000000000081526004016129e190614b91565b60405180910390fd5b60006129f76001546130ea565b604051602001612a07919061476c565b60405160208183030381529060405290506000604051806101800160405280838152602001612a376001546130ea565b604051602001612a479190614bd7565b60405160208183030381529060405281526020018781526020018681526020018581526020016000815260200184815260200160405180602001604052806000815250815260200160405180602001604052806000815250815260200160405180602001604052806000815250815260200160405180602001604052806000815250815260200160405180602001604052806000815250815250905060048190806001815401808255809150506001900390600052602060002090600c02016000909190919091506000820151816000019080519060200190612b2b929190613546565b506020820151816001019080519060200190612b48929190613546565b506040820151816002019080519060200190612b65929190613546565b50606082015181600301556080820151816004015560a0820151816005015560c0820151816006019080519060200190612ba0929190613546565b5060e0820151816007019080519060200190612bbd929190613546565b50610100820151816008019080519060200190612bdb929190613546565b50610120820151816009019080519060200190612bf9929190613546565b5061014082015181600a019080519060200190612c17929190613546565b5061016082015181600b019080519060200190612c35929190613546565b50505080600383604051612c49919061414a565b90815260200160405180910390206000820151816000019080519060200190612c73929190613546565b506020820151816001019080519060200190612c90929190613546565b506040820151816002019080519060200190612cad929190613546565b50606082015181600301556080820151816004015560a0820151816005015560c0820151816006019080519060200190612ce8929190613546565b5060e0820151816007019080519060200190612d05929190613546565b50610100820151816008019080519060200190612d23929190613546565b50610120820151816009019080519060200190612d41929190613546565b5061014082015181600a019080519060200190612d5f929190613546565b5061016082015181600b019080519060200190612d7d929190613546565b509050506001806000828254612d939190614792565b925050819055507f1b21032942411443543e7923f2da271066ad99511aa6ffcda3bb43030b9157d482604051612dc99190613e9a565b60405180910390a1505050505050565b6060600560003373ffffffffffffffffffffffffffffffffffffffff1673ffffffffffffffffffffffffffffffffffffffff1681526020019081526020016000208054612e2590614190565b80601f0160208091040260200160405190810160405280929190818152602001828054612e5190614190565b8015612e9e5780601f10612e7357610100808354040283529160200191612e9e565b820191906000526020600020905b815481529060010190602001808311612e8157829003601f168201915b5050505050905090565b60606000600167ffffffffffffffff811115612ec757612ec6613618565b5b6040519080825280601f01601f191660200182016040528015612ef95781602001600182028036833780820191505090505b50905082600081518110612f1057612f0f614375565b5b602001015160f81c60f81b81600081518110612f2f57612f2e614375565b5b60200101907effffffffffffffffffffffffffffffffffffffffffffffffffffffffffffff1916908160001a90535080915050919050565b606060008290506000815167ffffffffffffffff811115612f8b57612f8a613618565b5b6040519080825280601f01601f191660200182016040528015612fbd5781602001600182028036833780820191505090505b50905060005b82518110156130df57828181518110612fdf57612fde614375565b5b602001015160f81c60f81b828281518110612ffd57612ffc614375565b5b60200101907effffffffffffffffffffffffffffffffffffffffffffffffffffffffffffff1916908160001a90535060008114156130cc576040518060400160405280600181526020017f530000000000000000000000000000000000000000000000000000000000000081525060008151811061307e5761307d614375565b5b602001015160f81c60f81b82828151811061309c5761309b614375565b5b60200101907effffffffffffffffffffffffffffffffffffffffffffffffffffffffffffff1916908160001a9053505b80806130d7906146c9565b915050612fc3565b508092505050919050565b6060600060016130f984613304565b01905060008167ffffffffffffffff81111561311857613117613618565b5b6040519080825280601f01601f19166020018201604052801561314a5781602001600182028036833780820191505090505b509050600082602001820190505b6001156131b7578080600190039150507f3031323334353637383961626364656600000000000000000000000000000000600a86061a8153600a85816131a1576131a0614bfd565b5b04945060008514156131b2576131b7565b613158565b819350505050919050565b6131ca613457565b73ffffffffffffffffffffffffffffffffffffffff166131e8611d2c565b73ffffffffffffffffffffffffffffffffffffffff161461323e576040517f08c379a000000000000000000000000000000000000000000000000000000000815260040161323590614c78565b60405180910390fd5b565b60008060009054906101000a900473ffffffffffffffffffffffffffffffffffffffff169050816000806101000a81548173ffffffffffffffffffffffffffffffffffffffff021916908373ffffffffffffffffffffffffffffffffffffffff1602179055508173ffffffffffffffffffffffffffffffffffffffff168173ffffffffffffffffffffffffffffffffffffffff167f8be0079c531659141344cd1fd0a4f28419497f9722a3daafe3b4186f6b6457e060405160405180910390a35050565b600080600090507a184f03e93ff9f4daa797ed6e38ed64bf6a1f0100000000000000008310613362577a184f03e93ff9f4daa797ed6e38ed64bf6a1f010000000000000000838161335857613357614bfd565b5b0492506040810190505b6d04ee2d6d415b85acef8100000000831061339f576d04ee2d6d415b85acef8100000000838161339557613394614bfd565b5b0492506020810190505b662386f26fc1000083106133ce57662386f26fc1000083816133c4576133c3614bfd565b5b0492506010810190505b6305f5e10083106133f7576305f5e10083816133ed576133ec614bfd565b5b0492506008810190505b612710831061341c57612710838161341257613411614bfd565b5b0492506004810190505b6064831061343f576064838161343557613434614bfd565b5b0492506002810190505b600a831061344e576001810190505b80915050919050565b600033905090565b6040518061018001604052806060815260200160608152602001606081526020016000815260200160008152602001600081526020016060815260200160608152602001606081526020016060815260200160608152602001606081525090565b8280546134cc90614190565b90600052602060002090601f0160209004810192826134ee5760008555613535565b82601f1061350757803560ff1916838001178555613535565b82800160010185558215613535579182015b82811115613534578235825591602001919060010190613519565b5b50905061354291906135cc565b5090565b82805461355290614190565b90600052602060002090601f01602090048101928261357457600085556135bb565b82601f1061358d57805160ff19168380011785556135bb565b828001600101855582156135bb579182015b828111156135ba57825182559160200191906001019061359f565b5b5090506135c891906135cc565b5090565b5b808211156135e55760008160009055506001016135cd565b5090565b6000604051905090565b600080fd5b600080fd5b600080fd5b600080fd5b6000601f19601f8301169050919050565b7f4e487b7100000000000000000000000000000000000000000000000000000000600052604160045260246000fd5b61365082613607565b810181811067ffffffffffffffff8211171561366f5761366e613618565b5b80604052505050565b60006136826135e9565b905061368e8282613647565b919050565b600067ffffffffffffffff8211156136ae576136ad613618565b5b6136b782613607565b9050602081019050919050565b82818337600083830152505050565b60006136e66136e184613693565b613678565b90508281526020810184848401111561370257613701613602565b5b61370d8482856136c4565b509392505050565b600082601f83011261372a576137296135fd565b5b813561373a8482602086016136d3565b91505092915050565b600060208284031215613759576137586135f3565b5b600082013567ffffffffffffffff811115613777576137766135f8565b5b61378384828501613715565b91505092915050565b600081519050919050565b600082825260208201905092915050565b60005b838110156137c65780820151818401526020810190506137ab565b838111156137d5576000848401525b50505050565b60006137e68261378c565b6137f08185613797565b93506138008185602086016137a8565b61380981613607565b840191505092915050565b6000819050919050565b61382781613814565b82525050565b600061018083016000830151848203600086015261384b82826137db565b9150506020830151848203602086015261386582826137db565b9150506040830151848203604086015261387f82826137db565b9150506060830151613894606086018261381e565b5060808301516138a7608086018261381e565b5060a08301516138ba60a086018261381e565b5060c083015184820360c08601526138d282826137db565b91505060e083015184820360e08601526138ec82826137db565b91505061010083015184820361010086015261390882826137db565b91505061012083015184820361012086015261392482826137db565b91505061014083015184820361014086015261394082826137db565b91505061016083015184820361016086015261395c82826137db565b9150508091505092915050565b60006020820190508181036000830152613983818461382d565b905092915050565b600080fd5b600080fd5b60008083601f8401126139ab576139aa6135fd565b5b8235905067ffffffffffffffff8111156139c8576139c761398b565b5b6020830191508360018202830111156139e4576139e3613990565b5b9250929050565b60008083601f840112613a0157613a006135fd565b5b8235905067ffffffffffffffff811115613a1e57613a1d61398b565b5b602083019150836020820283011115613a3a57613a39613990565b5b9250929050565b60008060008060008060608789031215613a5e57613a5d6135f3565b5b600087013567ffffffffffffffff811115613a7c57613a7b6135f8565b5b613a8889828a01613995565b9650965050602087013567ffffffffffffffff811115613aab57613aaa6135f8565b5b613ab789828a016139eb565b9450945050604087013567ffffffffffffffff811115613ada57613ad96135f8565b5b613ae689828a016139eb565b92509250509295509295509295565b600081519050919050565b600082825260208201905092915050565b6000819050602082019050919050565b6000610180830160008301518482036000860152613b3f82826137db565b91505060208301518482036020860152613b5982826137db565b91505060408301518482036040860152613b7382826137db565b9150506060830151613b88606086018261381e565b506080830151613b9b608086018261381e565b5060a0830151613bae60a086018261381e565b5060c083015184820360c0860152613bc682826137db565b91505060e083015184820360e0860152613be082826137db565b915050610100830151848203610100860152613bfc82826137db565b915050610120830151848203610120860152613c1882826137db565b915050610140830151848203610140860152613c3482826137db565b915050610160830151848203610160860152613c5082826137db565b9150508091505092915050565b6000613c698383613b21565b905092915050565b6000602082019050919050565b6000613c8982613af5565b613c938185613b00565b935083602082028501613ca585613b11565b8060005b85811015613ce15784840389528151613cc28582613c5d565b9450613ccd83613c71565b925060208a01995050600181019050613ca9565b50829750879550505050505092915050565b60006020820190508181036000830152613d0d8184613c7e565b905092915050565b613d1e81613814565b82525050565b6000602082019050613d396000830184613d15565b92915050565b600073ffffffffffffffffffffffffffffffffffffffff82169050919050565b6000613d6a82613d3f565b9050919050565b613d7a81613d5f565b8114613d8557600080fd5b50565b600081359050613d9781613d71565b92915050565b60008060408385031215613db457613db36135f3565b5b6000613dc285828601613d88565b925050602083013567ffffffffffffffff811115613de357613de26135f8565b5b613def85828601613715565b9150509250929050565b613e0281613d5f565b82525050565b6000602082019050613e1d6000830184613df9565b92915050565b600060208284031215613e3957613e386135f3565b5b6000613e4784828501613d88565b91505092915050565b600082825260208201905092915050565b6000613e6c8261378c565b613e768185613e50565b9350613e868185602086016137a8565b613e8f81613607565b840191505092915050565b60006020820190508181036000830152613eb48184613e61565b905092915050565b613ec581613814565b8114613ed057600080fd5b50565b600081359050613ee281613ebc565b92915050565b600060208284031215613efe57613efd6135f3565b5b6000613f0c84828501613ed3565b91505092915050565b6000610180820190508181036000830152613f30818f613e61565b90508181036020830152613f44818e613e61565b90508181036040830152613f58818d613e61565b9050613f67606083018c613d15565b613f74608083018b613d15565b613f8160a083018a613d15565b81810360c0830152613f938189613e61565b905081810360e0830152613fa78188613e61565b9050818103610100830152613fbc8187613e61565b9050818103610120830152613fd18186613e61565b9050818103610140830152613fe68185613e61565b9050818103610160830152613ffb8184613e61565b90509d9c50505050505050505050505050565b60008060008060808587031215614028576140276135f3565b5b600085013567ffffffffffffffff811115614046576140456135f8565b5b61405287828801613715565b945050602061406387828801613ed3565b935050604061407487828801613ed3565b925050606085013567ffffffffffffffff811115614095576140946135f8565b5b6140a187828801613715565b91505092959194509250565b600081905092915050565b7f5300000000000000000000000000000000000000000000000000000000000000600082015250565b60006140ee6001836140ad565b91506140f9826140b8565b600182019050919050565b600061410f826140e1565b9150819050919050565b60006141248261378c565b61412e81856140ad565b935061413e8185602086016137a8565b80840191505092915050565b60006141568284614119565b915081905092915050565b7f4e487b7100000000000000000000000000000000000000000000000000000000600052602260045260246000fd5b600060028204905060018216806141a857607f821691505b602082108114156141bc576141bb614161565b5b50919050565b50565b60006141d26000836140ad565b91506141dd826141c2565b600082019050919050565b60006141f3826141c5565b9150819050919050565b60008190508160005260206000209050919050565b6000815461421f81614190565b61422981866140ad565b94506001821660008114614244576001811461425557614288565b60ff19831686528186019350614288565b61425e856141fd565b60005b8381101561428057815481890152600182019150602081019050614261565b838801955050505b50505092915050565b600061429d8284614212565b915081905092915050565b7f596f7520617265206e6f742070617274206f66207465616d2079657420212100600082015250565b60006142de601f83613e50565b91506142e9826142a8565b602082019050919050565b6000602082019050818103600083015261430d816142d1565b9050919050565b7f5374617475730000000000000000000000000000000000000000000000000000600082015250565b600061434a6006836140ad565b915061435582614314565b600682019050919050565b600061436b8261433d565b9150819050919050565b7f4e487b7100000000000000000000000000000000000000000000000000000000600052603260045260246000fd5b600080fd5b600080fd5b600080fd5b600080833560016020038436030381126143d0576143cf6143a4565b5b80840192508235915067ffffffffffffffff8211156143f2576143f16143a9565b5b60208301925060018202360383131561440e5761440d6143ae565b5b509250929050565b600061442283856140ad565b935061442f8385846136c4565b82840190509392505050565b6000614448828486614416565b91508190509392505050565b7f437573746f6d65722046696e616c2044656c6976657279204461746500000000600082015250565b600061448a601c836140ad565b915061449582614454565b601c82019050919050565b60006144ab8261447d565b9150819050919050565b7f426172436f646500000000000000000000000000000000000000000000000000600082015250565b60006144eb6007836140ad565b91506144f6826144b5565b600782019050919050565b600061450c826144de565b9150819050919050565b7f42617463684e6f00000000000000000000000000000000000000000000000000600082015250565b600061454c6007836140ad565b915061455782614516565b600782019050919050565b600061456d8261453f565b9150819050919050565b7f4d6173746572204c6162656c0000000000000000000000000000000000000000600082015250565b60006145ad600c836140ad565b91506145b882614577565b600c82019050919050565b60006145ce826145a0565b9150819050919050565b7f496e766f69636520506174680000000000000000000000000000000000000000600082015250565b600061460e600c836140ad565b9150614619826145d8565b600c82019050919050565b600061462f82614601565b9150819050919050565b7f547261636b696e67204e6f000000000000000000000000000000000000000000600082015250565b600061466f600b836140ad565b915061467a82614639565b600b82019050919050565b600061469082614662565b9150819050919050565b7f4e487b7100000000000000000000000000000000000000000000000000000000600052601160045260246000fd5b60006146d482613814565b91507fffffffffffffffffffffffffffffffffffffffffffffffffffffffffffffffff8214156147075761470661469a565b5b600182019050919050565b600061471d82613814565b915061472883613814565b92508282101561473b5761473a61469a565b5b828203905092915050565b7f534f000000000000000000000000000000000000000000000000000000000000815250565b600061477782614746565b6002820191506147878284614119565b915081905092915050565b600061479d82613814565b91506147a883613814565b9250827fffffffffffffffffffffffffffffffffffffffffffffffffffffffffffffffff038211156147dd576147dc61469a565b5b828201905092915050565b60008160011c9050919050565b6000808291508390505b600185111561483f5780860481111561481b5761481a61469a565b5b600185161561482a5780820291505b8081029050614838856147e8565b94506147ff565b94509492505050565b6000826148585760019050614914565b816148665760009050614914565b816001811461487c5760028114614886576148b5565b6001915050614914565b60ff8411156148985761489761469a565b5b8360020a9150848211156148af576148ae61469a565b5b50614914565b5060208310610133831016604e8410600b84101617156148ea5782820a9050838111156148e5576148e461469a565b5b614914565b6148f784848460016147f5565b9250905081840481111561490e5761490d61469a565b5b81810290505b9392505050565b600061492682613814565b915061493183613814565b925061495e7fffffffffffffffffffffffffffffffffffffffffffffffffffffffffffffffff8484614848565b905092915050565b600061497182613814565b915061497c83613814565b9250817fffffffffffffffffffffffffffffffffffffffffffffffffffffffffffffffff04831182151516156149b5576149b461469a565b5b828202905092915050565b7f4e756c6c206163636f756e7420697320636f6d696e672066726f6d2066726f6e60008201527f742d656e64202121000000000000000000000000000000000000000000000000602082015250565b6000614a1c602883613e50565b9150614a27826149c0565b604082019050919050565b60006020820190508181036000830152614a4b81614a0f565b9050919050565b7f4f776e61626c653a206e6577206f776e657220697320746865207a65726f206160008201527f6464726573730000000000000000000000000000000000000000000000000000602082015250565b6000614aae602683613e50565b9150614ab982614a52565b604082019050919050565b60006020820190508181036000830152614add81614aa1565b9050919050565b7f53616c657320526570726573656e746174697665000000000000000000000000600082015250565b6000614b1a6014836140ad565b9150614b2582614ae4565b601482019050919050565b6000614b3b82614b0d565b9150819050919050565b7f596f7520617265206e6f7420612053616c657320526570202121000000000000600082015250565b6000614b7b601a83613e50565b9150614b8682614b45565b602082019050919050565b60006020820190508181036000830152614baa81614b6e565b9050919050565b7f504f000000000000000000000000000000000000000000000000000000000000815250565b6000614be282614bb1565b600282019150614bf28284614119565b915081905092915050565b7f4e487b7100000000000000000000000000000000000000000000000000000000600052601260045260246000fd5b7f4f776e61626c653a2063616c6c6572206973206e6f7420746865206f776e6572600082015250565b6000614c62602083613e50565b9150614c6d82614c2c565b602082019050919050565b60006020820190508181036000830152614c9181614c55565b905091905056fea2646970667358221220cdc55abe30abd7f83bc335eff3ab6b92d921583b69054d4c90992d33c142807364736f6c634300080c0033","opcodes":"PUSH1 0x80 PUSH1 0x40 MSTORE CALLVALUE DUP1 ISZERO PUSH3 0x11 JUMPI PUSH1 0x0 DUP1 REVERT JUMPDEST POP PUSH3 0x32 PUSH3 0x26 PUSH3 0x4A PUSH1 0x20 SHL PUSH1 0x20 SHR JUMP JUMPDEST PUSH3 0x52 PUSH1 0x20 SHL PUSH1 0x20 SHR JUMP JUMPDEST PUSH2 0x4094 PUSH1 0x1 DUP2 SWAP1 SSTORE POP PUSH2 0x4094 PUSH1 0x2 DUP2 SWAP1 SSTORE POP PUSH3 0x116 JUMP JUMPDEST PUSH1 0x0 CALLER SWAP1 POP SWAP1 JUMP JUMPDEST PUSH1 0x0 DUP1 PUSH1 0x0 SWAP1 SLOAD SWAP1 PUSH2 0x100 EXP SWAP1 DIV PUSH20 0xFFFFFFFFFFFFFFFFFFFFFFFFFFFFFFFFFFFFFFFF AND SWAP1 POP DUP2 PUSH1 0x0 DUP1 PUSH2 0x100 EXP DUP2 SLOAD DUP2 PUSH20 0xFFFFFFFFFFFFFFFFFFFFFFFFFFFFFFFFFFFFFFFF MUL NOT AND SWAP1 DUP4 PUSH20 0xFFFFFFFFFFFFFFFFFFFFFFFFFFFFFFFFFFFFFFFF AND MUL OR SWAP1 SSTORE POP DUP2 PUSH20 0xFFFFFFFFFFFFFFFFFFFFFFFFFFFFFFFFFFFFFFFF AND DUP2 PUSH20 0xFFFFFFFFFFFFFFFFFFFFFFFFFFFFFFFFFFFFFFFF AND PUSH32 0x8BE0079C531659141344CD1FD0A4F28419497F9722A3DAAFE3B4186F6B6457E0 PUSH1 0x40 MLOAD PUSH1 0x40 MLOAD DUP1 SWAP2 SUB SWAP1 LOG3 POP POP JUMP JUMPDEST PUSH2 0x4CCE DUP1 PUSH3 0x126 PUSH1 0x0 CODECOPY PUSH1 0x0 RETURN INVALID PUSH1 0x80 PUSH1 0x40 MSTORE CALLVALUE DUP1 ISZERO PUSH2 0x10 JUMPI PUSH1 0x0 DUP1 REVERT JUMPDEST POP PUSH1 0x4 CALLDATASIZE LT PUSH2 0xEA JUMPI PUSH1 0x0 CALLDATALOAD PUSH1 0xE0 SHR DUP1 PUSH4 0x99374642 GT PUSH2 0x8C JUMPI DUP1 PUSH4 0xE393F263 GT PUSH2 0x66 JUMPI DUP1 PUSH4 0xE393F263 EQ PUSH2 0x256 JUMPI DUP1 PUSH4 0xF2FDE38B EQ PUSH2 0x291 JUMPI DUP1 PUSH4 0xFB0A9A6D EQ PUSH2 0x2AD JUMPI DUP1 PUSH4 0xFDE08174 EQ PUSH2 0x2C9 JUMPI PUSH2 0xEA JUMP JUMPDEST DUP1 PUSH4 0x99374642 EQ PUSH2 0x1CD JUMPI DUP1 PUSH4 0xA85C38EF EQ PUSH2 0x1FD JUMPI DUP1 PUSH4 0xD76D89FB EQ PUSH2 0x238 JUMPI PUSH2 0xEA JUMP JUMPDEST DUP1 PUSH4 0x715018A6 GT PUSH2 0xC8 JUMPI DUP1 PUSH4 0x715018A6 EQ PUSH2 0x159 JUMPI DUP1 PUSH4 0x79CD9055 EQ PUSH2 0x163 JUMPI DUP1 PUSH4 0x7D72AA65 EQ PUSH2 0x193 JUMPI DUP1 PUSH4 0x8DA5CB5B EQ PUSH2 0x1AF JUMPI PUSH2 0xEA JUMP JUMPDEST DUP1 PUSH4 0x4FBB487C EQ PUSH2 0xEF JUMPI DUP1 PUSH4 0x5A553855 EQ PUSH2 0x11F JUMPI DUP1 PUSH4 0x6BC184B4 EQ PUSH2 0x13B JUMPI JUMPDEST PUSH1 0x0 DUP1 REVERT JUMPDEST PUSH2 0x109 PUSH1 0x4 DUP1 CALLDATASIZE SUB DUP2 ADD SWAP1 PUSH2 0x104 SWAP2 SWAP1 PUSH2 0x3743 JUMP JUMPDEST PUSH2 0x2E7 JUMP JUMPDEST PUSH1 0x40 MLOAD PUSH2 0x116 SWAP2 SWAP1 PUSH2 0x3969 JUMP JUMPDEST PUSH1 0x40 MLOAD DUP1 SWAP2 SUB SWAP1 RETURN JUMPDEST PUSH2 0x139 PUSH1 0x4 DUP1 CALLDATASIZE SUB DUP2 ADD SWAP1 PUSH2 0x134 SWAP2 SWAP1 PUSH2 0x3A41 JUMP JUMPDEST PUSH2 0xE34 JUMP JUMPDEST STOP JUMPDEST PUSH2 0x143 PUSH2 0x152A JUMP JUMPDEST PUSH1 0x40 MLOAD PUSH2 0x150 SWAP2 SWAP1 PUSH2 0x3CF3 JUMP JUMPDEST PUSH1 0x40 MLOAD DUP1 SWAP2 SUB SWAP1 RETURN JUMPDEST PUSH2 0x161 PUSH2 0x1B8C JUMP JUMPDEST STOP JUMPDEST PUSH2 0x17D PUSH1 0x4 DUP1 CALLDATASIZE SUB DUP2 ADD SWAP1 PUSH2 0x178 SWAP2 SWAP1 PUSH2 0x3743 JUMP JUMPDEST PUSH2 0x1BA0 JUMP JUMPDEST PUSH1 0x40 MLOAD PUSH2 0x18A SWAP2 SWAP1 PUSH2 0x3D24 JUMP JUMPDEST PUSH1 0x40 MLOAD DUP1 SWAP2 SUB SWAP1 RETURN JUMPDEST PUSH2 0x1AD PUSH1 0x4 DUP1 CALLDATASIZE SUB DUP2 ADD SWAP1 PUSH2 0x1A8 SWAP2 SWAP1 PUSH2 0x3D9D JUMP JUMPDEST PUSH2 0x1C5A JUMP JUMPDEST STOP JUMPDEST PUSH2 0x1B7 PUSH2 0x1D2C JUMP JUMPDEST PUSH1 0x40 MLOAD PUSH2 0x1C4 SWAP2 SWAP1 PUSH2 0x3E08 JUMP JUMPDEST PUSH1 0x40 MLOAD DUP1 SWAP2 SUB SWAP1 RETURN JUMPDEST PUSH2 0x1E7 PUSH1 0x4 DUP1 CALLDATASIZE SUB DUP2 ADD SWAP1 PUSH2 0x1E2 SWAP2 SWAP1 PUSH2 0x3E23 JUMP JUMPDEST PUSH2 0x1D55 JUMP JUMPDEST PUSH1 0x40 MLOAD PUSH2 0x1F4 SWAP2 SWAP1 PUSH2 0x3E9A JUMP JUMPDEST PUSH1 0x40 MLOAD DUP1 SWAP2 SUB SWAP1 RETURN JUMPDEST PUSH2 0x217 PUSH1 0x4 DUP1 CALLDATASIZE SUB DUP2 ADD SWAP1 PUSH2 0x212 SWAP2 SWAP1 PUSH2 0x3EE8 JUMP JUMPDEST PUSH2 0x1DF5 JUMP JUMPDEST PUSH1 0x40 MLOAD PUSH2 0x22F SWAP13 SWAP12 SWAP11 SWAP10 SWAP9 SWAP8 SWAP7 SWAP6 SWAP5 SWAP4 SWAP3 SWAP2 SWAP1 PUSH2 0x3F15 JUMP JUMPDEST PUSH1 0x40 MLOAD DUP1 SWAP2 SUB SWAP1 RETURN JUMPDEST PUSH2 0x240 PUSH2 0x232D JUMP JUMPDEST PUSH1 0x40 MLOAD PUSH2 0x24D SWAP2 SWAP1 PUSH2 0x3E9A JUMP JUMPDEST PUSH1 0x40 MLOAD DUP1 SWAP2 SUB SWAP1 RETURN JUMPDEST PUSH2 0x270 PUSH1 0x4 DUP1 CALLDATASIZE SUB DUP2 ADD SWAP1 PUSH2 0x26B SWAP2 SWAP1 PUSH2 0x3743 JUMP JUMPDEST PUSH2 0x235E JUMP JUMPDEST PUSH1 0x40 MLOAD PUSH2 0x288 SWAP13 SWAP12 SWAP11 SWAP10 SWAP9 SWAP8 SWAP7 SWAP6 SWAP5 SWAP4 SWAP3 SWAP2 SWAP1 PUSH2 0x3F15 JUMP JUMPDEST PUSH1 0x40 MLOAD DUP1 SWAP2 SUB SWAP1 RETURN JUMPDEST PUSH2 0x2AB PUSH1 0x4 DUP1 CALLDATASIZE SUB DUP2 ADD SWAP1 PUSH2 0x2A6 SWAP2 SWAP1 PUSH2 0x3E23 JUMP JUMPDEST PUSH2 0x289C JUMP JUMPDEST STOP JUMPDEST PUSH2 0x2C7 PUSH1 0x4 DUP1 CALLDATASIZE SUB DUP2 ADD SWAP1 PUSH2 0x2C2 SWAP2 SWAP1 PUSH2 0x400E JUMP JUMPDEST PUSH2 0x2920 JUMP JUMPDEST STOP JUMPDEST PUSH2 0x2D1 PUSH2 0x2DD9 JUMP JUMPDEST PUSH1 0x40 MLOAD PUSH2 0x2DE SWAP2 SWAP1 PUSH2 0x3E9A JUMP JUMPDEST PUSH1 0x40 MLOAD DUP1 SWAP2 SUB SWAP1 RETURN JUMPDEST PUSH2 0x2EF PUSH2 0x345F JUMP JUMPDEST PUSH1 0x40 MLOAD PUSH1 0x20 ADD PUSH2 0x2FE SWAP1 PUSH2 0x4104 JUMP JUMPDEST PUSH1 0x40 MLOAD PUSH1 0x20 DUP2 DUP4 SUB SUB DUP2 MSTORE SWAP1 PUSH1 0x40 MSTORE DUP1 MLOAD SWAP1 PUSH1 0x20 ADD KECCAK256 PUSH2 0x31D DUP4 PUSH2 0x2EA8 JUMP JUMPDEST PUSH1 0x40 MLOAD PUSH1 0x20 ADD PUSH2 0x32D SWAP2 SWAP1 PUSH2 0x414A JUMP JUMPDEST PUSH1 0x40 MLOAD PUSH1 0x20 DUP2 DUP4 SUB SUB DUP2 MSTORE SWAP1 PUSH1 0x40 MSTORE DUP1 MLOAD SWAP1 PUSH1 0x20 ADD KECCAK256 EQ ISZERO PUSH2 0x8BA JUMPI PUSH1 0x3 DUP3 PUSH1 0x40 MLOAD PUSH2 0x359 SWAP2 SWAP1 PUSH2 0x414A JUMP JUMPDEST SWAP1 DUP2 MSTORE PUSH1 0x20 ADD PUSH1 0x40 MLOAD DUP1 SWAP2 SUB SWAP1 KECCAK256 PUSH1 0x40 MLOAD DUP1 PUSH2 0x180 ADD PUSH1 0x40 MSTORE SWAP1 DUP2 PUSH1 0x0 DUP3 ADD DUP1 SLOAD PUSH2 0x383 SWAP1 PUSH2 0x4190 JUMP JUMPDEST DUP1 PUSH1 0x1F ADD PUSH1 0x20 DUP1 SWAP2 DIV MUL PUSH1 0x20 ADD PUSH1 0x40 MLOAD SWAP1 DUP2 ADD PUSH1 0x40 MSTORE DUP1 SWAP3 SWAP2 SWAP1 DUP2 DUP2 MSTORE PUSH1 0x20 ADD DUP3 DUP1 SLOAD PUSH2 0x3AF SWAP1 PUSH2 0x4190 JUMP JUMPDEST DUP1 ISZERO PUSH2 0x3FC JUMPI DUP1 PUSH1 0x1F LT PUSH2 0x3D1 JUMPI PUSH2 0x100 DUP1 DUP4 SLOAD DIV MUL DUP4 MSTORE SWAP2 PUSH1 0x20 ADD SWAP2 PUSH2 0x3FC JUMP JUMPDEST DUP3 ADD SWAP2 SWAP1 PUSH1 0x0 MSTORE PUSH1 0x20 PUSH1 0x0 KECCAK256 SWAP1 JUMPDEST DUP2 SLOAD DUP2 MSTORE SWAP1 PUSH1 0x1 ADD SWAP1 PUSH1 0x20 ADD DUP1 DUP4 GT PUSH2 0x3DF JUMPI DUP3 SWAP1 SUB PUSH1 0x1F AND DUP3 ADD SWAP2 JUMPDEST POP POP POP POP POP DUP2 MSTORE PUSH1 0x20 ADD PUSH1 0x1 DUP3 ADD DUP1 SLOAD PUSH2 0x415 SWAP1 PUSH2 0x4190 JUMP JUMPDEST DUP1 PUSH1 0x1F ADD PUSH1 0x20 DUP1 SWAP2 DIV MUL PUSH1 0x20 ADD PUSH1 0x40 MLOAD SWAP1 DUP2 ADD PUSH1 0x40 MSTORE DUP1 SWAP3 SWAP2 SWAP1 DUP2 DUP2 MSTORE PUSH1 0x20 ADD DUP3 DUP1 SLOAD PUSH2 0x441 SWAP1 PUSH2 0x4190 JUMP JUMPDEST DUP1 ISZERO PUSH2 0x48E JUMPI DUP1 PUSH1 0x1F LT PUSH2 0x463 JUMPI PUSH2 0x100 DUP1 DUP4 SLOAD DIV MUL DUP4 MSTORE SWAP2 PUSH1 0x20 ADD SWAP2 PUSH2 0x48E JUMP JUMPDEST DUP3 ADD SWAP2 SWAP1 PUSH1 0x0 MSTORE PUSH1 0x20 PUSH1 0x0 KECCAK256 SWAP1 JUMPDEST DUP2 SLOAD DUP2 MSTORE SWAP1 PUSH1 0x1 ADD SWAP1 PUSH1 0x20 ADD DUP1 DUP4 GT PUSH2 0x471 JUMPI DUP3 SWAP1 SUB PUSH1 0x1F AND DUP3 ADD SWAP2 JUMPDEST POP POP POP POP POP DUP2 MSTORE PUSH1 0x20 ADD PUSH1 0x2 DUP3 ADD DUP1 SLOAD PUSH2 0x4A7 SWAP1 PUSH2 0x4190 JUMP JUMPDEST DUP1 PUSH1 0x1F ADD PUSH1 0x20 DUP1 SWAP2 DIV MUL PUSH1 0x20 ADD PUSH1 0x40 MLOAD SWAP1 DUP2 ADD PUSH1 0x40 MSTORE DUP1 SWAP3 SWAP2 SWAP1 DUP2 DUP2 MSTORE PUSH1 0x20 ADD DUP3 DUP1 SLOAD PUSH2 0x4D3 SWAP1 PUSH2 0x4190 JUMP JUMPDEST DUP1 ISZERO PUSH2 0x520 JUMPI DUP1 PUSH1 0x1F LT PUSH2 0x4F5 JUMPI PUSH2 0x100 DUP1 DUP4 SLOAD DIV MUL DUP4 MSTORE SWAP2 PUSH1 0x20 ADD SWAP2 PUSH2 0x520 JUMP JUMPDEST DUP3 ADD SWAP2 SWAP1 PUSH1 0x0 MSTORE PUSH1 0x20 PUSH1 0x0 KECCAK256 SWAP1 JUMPDEST DUP2 SLOAD DUP2 MSTORE SWAP1 PUSH1 0x1 ADD SWAP1 PUSH1 0x20 ADD DUP1 DUP4 GT PUSH2 0x503 JUMPI DUP3 SWAP1 SUB PUSH1 0x1F AND DUP3 ADD SWAP2 JUMPDEST POP POP POP POP POP DUP2 MSTORE PUSH1 0x20 ADD PUSH1 0x3 DUP3 ADD SLOAD DUP2 MSTORE PUSH1 0x20 ADD PUSH1 0x4 DUP3 ADD SLOAD DUP2 MSTORE PUSH1 0x20 ADD PUSH1 0x5 DUP3 ADD SLOAD DUP2 MSTORE PUSH1 0x20 ADD PUSH1 0x6 DUP3 ADD DUP1 SLOAD PUSH2 0x557 SWAP1 PUSH2 0x4190 JUMP JUMPDEST DUP1 PUSH1 0x1F ADD PUSH1 0x20 DUP1 SWAP2 DIV MUL PUSH1 0x20 ADD PUSH1 0x40 MLOAD SWAP1 DUP2 ADD PUSH1 0x40 MSTORE DUP1 SWAP3 SWAP2 SWAP1 DUP2 DUP2 MSTORE PUSH1 0x20 ADD DUP3 DUP1 SLOAD PUSH2 0x583 SWAP1 PUSH2 0x4190 JUMP JUMPDEST DUP1 ISZERO PUSH2 0x5D0 JUMPI DUP1 PUSH1 0x1F LT PUSH2 0x5A5 JUMPI PUSH2 0x100 DUP1 DUP4 SLOAD DIV MUL DUP4 MSTORE SWAP2 PUSH1 0x20 ADD SWAP2 PUSH2 0x5D0 JUMP JUMPDEST DUP3 ADD SWAP2 SWAP1 PUSH1 0x0 MSTORE PUSH1 0x20 PUSH1 0x0 KECCAK256 SWAP1 JUMPDEST DUP2 SLOAD DUP2 MSTORE SWAP1 PUSH1 0x1 ADD SWAP1 PUSH1 0x20 ADD DUP1 DUP4 GT PUSH2 0x5B3 JUMPI DUP3 SWAP1 SUB PUSH1 0x1F AND DUP3 ADD SWAP2 JUMPDEST POP POP POP POP POP DUP2 MSTORE PUSH1 0x20 ADD PUSH1 0x7 DUP3 ADD DUP1 SLOAD PUSH2 0x5E9 SWAP1 PUSH2 0x4190 JUMP JUMPDEST DUP1 PUSH1 0x1F ADD PUSH1 0x20 DUP1 SWAP2 DIV MUL PUSH1 0x20 ADD PUSH1 0x40 MLOAD SWAP1 DUP2 ADD PUSH1 0x40 MSTORE DUP1 SWAP3 SWAP2 SWAP1 DUP2 DUP2 MSTORE PUSH1 0x20 ADD DUP3 DUP1 SLOAD PUSH2 0x615 SWAP1 PUSH2 0x4190 JUMP JUMPDEST DUP1 ISZERO PUSH2 0x662 JUMPI DUP1 PUSH1 0x1F LT PUSH2 0x637 JUMPI PUSH2 0x100 DUP1 DUP4 SLOAD DIV MUL DUP4 MSTORE SWAP2 PUSH1 0x20 ADD SWAP2 PUSH2 0x662 JUMP JUMPDEST DUP3 ADD SWAP2 SWAP1 PUSH1 0x0 MSTORE PUSH1 0x20 PUSH1 0x0 KECCAK256 SWAP1 JUMPDEST DUP2 SLOAD DUP2 MSTORE SWAP1 PUSH1 0x1 ADD SWAP1 PUSH1 0x20 ADD DUP1 DUP4 GT PUSH2 0x645 JUMPI DUP3 SWAP1 SUB PUSH1 0x1F AND DUP3 ADD SWAP2 JUMPDEST POP POP POP POP POP DUP2 MSTORE PUSH1 0x20 ADD PUSH1 0x8 DUP3 ADD DUP1 SLOAD PUSH2 0x67B SWAP1 PUSH2 0x4190 JUMP JUMPDEST DUP1 PUSH1 0x1F ADD PUSH1 0x20 DUP1 SWAP2 DIV MUL PUSH1 0x20 ADD PUSH1 0x40 MLOAD SWAP1 DUP2 ADD PUSH1 0x40 MSTORE DUP1 SWAP3 SWAP2 SWAP1 DUP2 DUP2 MSTORE PUSH1 0x20 ADD DUP3 DUP1 SLOAD PUSH2 0x6A7 SWAP1 PUSH2 0x4190 JUMP JUMPDEST DUP1 ISZERO PUSH2 0x6F4 JUMPI DUP1 PUSH1 0x1F LT PUSH2 0x6C9 JUMPI PUSH2 0x100 DUP1 DUP4 SLOAD DIV MUL DUP4 MSTORE SWAP2 PUSH1 0x20 ADD SWAP2 PUSH2 0x6F4 JUMP JUMPDEST DUP3 ADD SWAP2 SWAP1 PUSH1 0x0 MSTORE PUSH1 0x20 PUSH1 0x0 KECCAK256 SWAP1 JUMPDEST DUP2 SLOAD DUP2 MSTORE SWAP1 PUSH1 0x1 ADD SWAP1 PUSH1 0x20 ADD DUP1 DUP4 GT PUSH2 0x6D7 JUMPI DUP3 SWAP1 SUB PUSH1 0x1F AND DUP3 ADD SWAP2 JUMPDEST POP POP POP POP POP DUP2 MSTORE PUSH1 0x20 ADD PUSH1 0x9 DUP3 ADD DUP1 SLOAD PUSH2 0x70D SWAP1 PUSH2 0x4190 JUMP JUMPDEST DUP1 PUSH1 0x1F ADD PUSH1 0x20 DUP1 SWAP2 DIV MUL PUSH1 0x20 ADD PUSH1 0x40 MLOAD SWAP1 DUP2 ADD PUSH1 0x40 MSTORE DUP1 SWAP3 SWAP2 SWAP1 DUP2 DUP2 MSTORE PUSH1 0x20 ADD DUP3 DUP1 SLOAD PUSH2 0x739 SWAP1 PUSH2 0x4190 JUMP JUMPDEST DUP1 ISZERO PUSH2 0x786 JUMPI DUP1 PUSH1 0x1F LT PUSH2 0x75B JUMPI PUSH2 0x100 DUP1 DUP4 SLOAD DIV MUL DUP4 MSTORE SWAP2 PUSH1 0x20 ADD SWAP2 PUSH2 0x786 JUMP JUMPDEST DUP3 ADD SWAP2 SWAP1 PUSH1 0x0 MSTORE PUSH1 0x20 PUSH1 0x0 KECCAK256 SWAP1 JUMPDEST DUP2 SLOAD DUP2 MSTORE SWAP1 PUSH1 0x1 ADD SWAP1 PUSH1 0x20 ADD DUP1 DUP4 GT PUSH2 0x769 JUMPI DUP3 SWAP1 SUB PUSH1 0x1F AND DUP3 ADD SWAP2 JUMPDEST POP POP POP POP POP DUP2 MSTORE PUSH1 0x20 ADD PUSH1 0xA DUP3 ADD DUP1 SLOAD PUSH2 0x79F SWAP1 PUSH2 0x4190 JUMP JUMPDEST DUP1 PUSH1 0x1F ADD PUSH1 0x20 DUP1 SWAP2 DIV MUL PUSH1 0x20 ADD PUSH1 0x40 MLOAD SWAP1 DUP2 ADD PUSH1 0x40 MSTORE DUP1 SWAP3 SWAP2 SWAP1 DUP2 DUP2 MSTORE PUSH1 0x20 ADD DUP3 DUP1 SLOAD PUSH2 0x7CB SWAP1 PUSH2 0x4190 JUMP JUMPDEST DUP1 ISZERO PUSH2 0x818 JUMPI DUP1 PUSH1 0x1F LT PUSH2 0x7ED JUMPI PUSH2 0x100 DUP1 DUP4 SLOAD DIV MUL DUP4 MSTORE SWAP2 PUSH1 0x20 ADD SWAP2 PUSH2 0x818 JUMP JUMPDEST DUP3 ADD SWAP2 SWAP1 PUSH1 0x0 MSTORE PUSH1 0x20 PUSH1 0x0 KECCAK256 SWAP1 JUMPDEST DUP2 SLOAD DUP2 MSTORE SWAP1 PUSH1 0x1 ADD SWAP1 PUSH1 0x20 ADD DUP1 DUP4 GT PUSH2 0x7FB JUMPI DUP3 SWAP1 SUB PUSH1 0x1F AND DUP3 ADD SWAP2 JUMPDEST POP POP POP POP POP DUP2 MSTORE PUSH1 0x20 ADD PUSH1 0xB DUP3 ADD DUP1 SLOAD PUSH2 0x831 SWAP1 PUSH2 0x4190 JUMP JUMPDEST DUP1 PUSH1 0x1F ADD PUSH1 0x20 DUP1 SWAP2 DIV MUL PUSH1 0x20 ADD PUSH1 0x40 MLOAD SWAP1 DUP2 ADD PUSH1 0x40 MSTORE DUP1 SWAP3 SWAP2 SWAP1 DUP2 DUP2 MSTORE PUSH1 0x20 ADD DUP3 DUP1 SLOAD PUSH2 0x85D SWAP1 PUSH2 0x4190 JUMP JUMPDEST DUP1 ISZERO PUSH2 0x8AA JUMPI DUP1 PUSH1 0x1F LT PUSH2 0x87F JUMPI PUSH2 0x100 DUP1 DUP4 SLOAD DIV MUL DUP4 MSTORE SWAP2 PUSH1 0x20 ADD SWAP2 PUSH2 0x8AA JUMP JUMPDEST DUP3 ADD SWAP2 SWAP1 PUSH1 0x0 MSTORE PUSH1 0x20 PUSH1 0x0 KECCAK256 SWAP1 JUMPDEST DUP2 SLOAD DUP2 MSTORE SWAP1 PUSH1 0x1 ADD SWAP1 PUSH1 0x20 ADD DUP1 DUP4 GT PUSH2 0x88D JUMPI DUP3 SWAP1 SUB PUSH1 0x1F AND DUP3 ADD SWAP2 JUMPDEST POP POP POP POP POP DUP2 MSTORE POP POP SWAP1 POP PUSH2 0xE2F JUMP JUMPDEST PUSH1 0x3 PUSH2 0x8C5 DUP4 PUSH2 0x2F67 JUMP JUMPDEST PUSH1 0x40 MLOAD PUSH2 0x8D2 SWAP2 SWAP1 PUSH2 0x414A JUMP JUMPDEST SWAP1 DUP2 MSTORE PUSH1 0x20 ADD PUSH1 0x40 MLOAD DUP1 SWAP2 SUB SWAP1 KECCAK256 PUSH1 0x40 MLOAD DUP1 PUSH2 0x180 ADD PUSH1 0x40 MSTORE SWAP1 DUP2 PUSH1 0x0 DUP3 ADD DUP1 SLOAD PUSH2 0x8FC SWAP1 PUSH2 0x4190 JUMP JUMPDEST DUP1 PUSH1 0x1F ADD PUSH1 0x20 DUP1 SWAP2 DIV MUL PUSH1 0x20 ADD PUSH1 0x40 MLOAD SWAP1 DUP2 ADD PUSH1 0x40 MSTORE DUP1 SWAP3 SWAP2 SWAP1 DUP2 DUP2 MSTORE PUSH1 0x20 ADD DUP3 DUP1 SLOAD PUSH2 0x928 SWAP1 PUSH2 0x4190 JUMP JUMPDEST DUP1 ISZERO PUSH2 0x975 JUMPI DUP1 PUSH1 0x1F LT PUSH2 0x94A JUMPI PUSH2 0x100 DUP1 DUP4 SLOAD DIV MUL DUP4 MSTORE SWAP2 PUSH1 0x20 ADD SWAP2 PUSH2 0x975 JUMP JUMPDEST DUP3 ADD SWAP2 SWAP1 PUSH1 0x0 MSTORE PUSH1 0x20 PUSH1 0x0 KECCAK256 SWAP1 JUMPDEST DUP2 SLOAD DUP2 MSTORE SWAP1 PUSH1 0x1 ADD SWAP1 PUSH1 0x20 ADD DUP1 DUP4 GT PUSH2 0x958 JUMPI DUP3 SWAP1 SUB PUSH1 0x1F AND DUP3 ADD SWAP2 JUMPDEST POP POP POP POP POP DUP2 MSTORE PUSH1 0x20 ADD PUSH1 0x1 DUP3 ADD DUP1 SLOAD PUSH2 0x98E SWAP1 PUSH2 0x4190 JUMP JUMPDEST DUP1 PUSH1 0x1F ADD PUSH1 0x20 DUP1 SWAP2 DIV MUL PUSH1 0x20 ADD PUSH1 0x40 MLOAD SWAP1 DUP2 ADD PUSH1 0x40 MSTORE DUP1 SWAP3 SWAP2 SWAP1 DUP2 DUP2 MSTORE PUSH1 0x20 ADD DUP3 DUP1 SLOAD PUSH2 0x9BA SWAP1 PUSH2 0x4190 JUMP JUMPDEST DUP1 ISZERO PUSH2 0xA07 JUMPI DUP1 PUSH1 0x1F LT PUSH2 0x9DC JUMPI PUSH2 0x100 DUP1 DUP4 SLOAD DIV MUL DUP4 MSTORE SWAP2 PUSH1 0x20 ADD SWAP2 PUSH2 0xA07 JUMP JUMPDEST DUP3 ADD SWAP2 SWAP1 PUSH1 0x0 MSTORE PUSH1 0x20 PUSH1 0x0 KECCAK256 SWAP1 JUMPDEST DUP2 SLOAD DUP2 MSTORE SWAP1 PUSH1 0x1 ADD SWAP1 PUSH1 0x20 ADD DUP1 DUP4 GT PUSH2 0x9EA JUMPI DUP3 SWAP1 SUB PUSH1 0x1F AND DUP3 ADD SWAP2 JUMPDEST POP POP POP POP POP DUP2 MSTORE PUSH1 0x20 ADD PUSH1 0x2 DUP3 ADD DUP1 SLOAD PUSH2 0xA20 SWAP1 PUSH2 0x4190 JUMP JUMPDEST DUP1 PUSH1 0x1F ADD PUSH1 0x20 DUP1 SWAP2 DIV MUL PUSH1 0x20 ADD PUSH1 0x40 MLOAD SWAP1 DUP2 ADD PUSH1 0x40 MSTORE DUP1 SWAP3 SWAP2 SWAP1 DUP2 DUP2 MSTORE PUSH1 0x20 ADD DUP3 DUP1 SLOAD PUSH2 0xA4C SWAP1 PUSH2 0x4190 JUMP JUMPDEST DUP1 ISZERO PUSH2 0xA99 JUMPI DUP1 PUSH1 0x1F LT PUSH2 0xA6E JUMPI PUSH2 0x100 DUP1 DUP4 SLOAD DIV MUL DUP4 MSTORE SWAP2 PUSH1 0x20 ADD SWAP2 PUSH2 0xA99 JUMP JUMPDEST DUP3 ADD SWAP2 SWAP1 PUSH1 0x0 MSTORE PUSH1 0x20 PUSH1 0x0 KECCAK256 SWAP1 JUMPDEST DUP2 SLOAD DUP2 MSTORE SWAP1 PUSH1 0x1 ADD SWAP1 PUSH1 0x20 ADD DUP1 DUP4 GT PUSH2 0xA7C JUMPI DUP3 SWAP1 SUB PUSH1 0x1F AND DUP3 ADD SWAP2 JUMPDEST POP POP POP POP POP DUP2 MSTORE PUSH1 0x20 ADD PUSH1 0x3 DUP3 ADD SLOAD DUP2 MSTORE PUSH1 0x20 ADD PUSH1 0x4 DUP3 ADD SLOAD DUP2 MSTORE PUSH1 0x20 ADD PUSH1 0x5 DUP3 ADD SLOAD DUP2 MSTORE PUSH1 0x20 ADD PUSH1 0x6 DUP3 ADD DUP1 SLOAD PUSH2 0xAD0 SWAP1 PUSH2 0x4190 JUMP JUMPDEST DUP1 PUSH1 0x1F ADD PUSH1 0x20 DUP1 SWAP2 DIV MUL PUSH1 0x20 ADD PUSH1 0x40 MLOAD SWAP1 DUP2 ADD PUSH1 0x40 MSTORE DUP1 SWAP3 SWAP2 SWAP1 DUP2 DUP2 MSTORE PUSH1 0x20 ADD DUP3 DUP1 SLOAD PUSH2 0xAFC SWAP1 PUSH2 0x4190 JUMP JUMPDEST DUP1 ISZERO PUSH2 0xB49 JUMPI DUP1 PUSH1 0x1F LT PUSH2 0xB1E JUMPI PUSH2 0x100 DUP1 DUP4 SLOAD DIV MUL DUP4 MSTORE SWAP2 PUSH1 0x20 ADD SWAP2 PUSH2 0xB49 JUMP JUMPDEST DUP3 ADD SWAP2 SWAP1 PUSH1 0x0 MSTORE PUSH1 0x20 PUSH1 0x0 KECCAK256 SWAP1 JUMPDEST DUP2 SLOAD DUP2 MSTORE SWAP1 PUSH1 0x1 ADD SWAP1 PUSH1 0x20 ADD DUP1 DUP4 GT PUSH2 0xB2C JUMPI DUP3 SWAP1 SUB PUSH1 0x1F AND DUP3 ADD SWAP2 JUMPDEST POP POP POP POP POP DUP2 MSTORE PUSH1 0x20 ADD PUSH1 0x7 DUP3 ADD DUP1 SLOAD PUSH2 0xB62 SWAP1 PUSH2 0x4190 JUMP JUMPDEST DUP1 PUSH1 0x1F ADD PUSH1 0x20 DUP1 SWAP2 DIV MUL PUSH1 0x20 ADD PUSH1 0x40 MLOAD SWAP1 DUP2 ADD PUSH1 0x40 MSTORE DUP1 SWAP3 SWAP2 SWAP1 DUP2 DUP2 MSTORE PUSH1 0x20 ADD DUP3 DUP1 SLOAD PUSH2 0xB8E SWAP1 PUSH2 0x4190 JUMP JUMPDEST DUP1 ISZERO PUSH2 0xBDB JUMPI DUP1 PUSH1 0x1F LT PUSH2 0xBB0 JUMPI PUSH2 0x100 DUP1 DUP4 SLOAD DIV MUL DUP4 MSTORE SWAP2 PUSH1 0x20 ADD SWAP2 PUSH2 0xBDB JUMP JUMPDEST DUP3 ADD SWAP2 SWAP1 PUSH1 0x0 MSTORE PUSH1 0x20 PUSH1 0x0 KECCAK256 SWAP1 JUMPDEST DUP2 SLOAD DUP2 MSTORE SWAP1 PUSH1 0x1 ADD SWAP1 PUSH1 0x20 ADD DUP1 DUP4 GT PUSH2 0xBBE JUMPI DUP3 SWAP1 SUB PUSH1 0x1F AND DUP3 ADD SWAP2 JUMPDEST POP POP POP POP POP DUP2 MSTORE PUSH1 0x20 ADD PUSH1 0x8 DUP3 ADD DUP1 SLOAD PUSH2 0xBF4 SWAP1 PUSH2 0x4190 JUMP JUMPDEST DUP1 PUSH1 0x1F ADD PUSH1 0x20 DUP1 SWAP2 DIV MUL PUSH1 0x20 ADD PUSH1 0x40 MLOAD SWAP1 DUP2 ADD PUSH1 0x40 MSTORE DUP1 SWAP3 SWAP2 SWAP1 DUP2 DUP2 MSTORE PUSH1 0x20 ADD DUP3 DUP1 SLOAD PUSH2 0xC20 SWAP1 PUSH2 0x4190 JUMP JUMPDEST DUP1 ISZERO PUSH2 0xC6D JUMPI DUP1 PUSH1 0x1F LT PUSH2 0xC42 JUMPI PUSH2 0x100 DUP1 DUP4 SLOAD DIV MUL DUP4 MSTORE SWAP2 PUSH1 0x20 ADD SWAP2 PUSH2 0xC6D JUMP JUMPDEST DUP3 ADD SWAP2 SWAP1 PUSH1 0x0 MSTORE PUSH1 0x20 PUSH1 0x0 KECCAK256 SWAP1 JUMPDEST DUP2 SLOAD DUP2 MSTORE SWAP1 PUSH1 0x1 ADD SWAP1 PUSH1 0x20 ADD DUP1 DUP4 GT PUSH2 0xC50 JUMPI DUP3 SWAP1 SUB PUSH1 0x1F AND DUP3 ADD SWAP2 JUMPDEST POP POP POP POP POP DUP2 MSTORE PUSH1 0x20 ADD PUSH1 0x9 DUP3 ADD DUP1 SLOAD PUSH2 0xC86 SWAP1 PUSH2 0x4190 JUMP JUMPDEST DUP1 PUSH1 0x1F ADD PUSH1 0x20 DUP1 SWAP2 DIV MUL PUSH1 0x20 ADD PUSH1 0x40 MLOAD SWAP1 DUP2 ADD PUSH1 0x40 MSTORE DUP1 SWAP3 SWAP2 SWAP1 DUP2 DUP2 MSTORE PUSH1 0x20 ADD DUP3 DUP1 SLOAD PUSH2 0xCB2 SWAP1 PUSH2 0x4190 JUMP JUMPDEST DUP1 ISZERO PUSH2 0xCFF JUMPI DUP1 PUSH1 0x1F LT PUSH2 0xCD4 JUMPI PUSH2 0x100 DUP1 DUP4 SLOAD DIV MUL DUP4 MSTORE SWAP2 PUSH1 0x20 ADD SWAP2 PUSH2 0xCFF JUMP JUMPDEST DUP3 ADD SWAP2 SWAP1 PUSH1 0x0 MSTORE PUSH1 0x20 PUSH1 0x0 KECCAK256 SWAP1 JUMPDEST DUP2 SLOAD DUP2 MSTORE SWAP1 PUSH1 0x1 ADD SWAP1 PUSH1 0x20 ADD DUP1 DUP4 GT PUSH2 0xCE2 JUMPI DUP3 SWAP1 SUB PUSH1 0x1F AND DUP3 ADD SWAP2 JUMPDEST POP POP POP POP POP DUP2 MSTORE PUSH1 0x20 ADD PUSH1 0xA DUP3 ADD DUP1 SLOAD PUSH2 0xD18 SWAP1 PUSH2 0x4190 JUMP JUMPDEST DUP1 PUSH1 0x1F ADD PUSH1 0x20 DUP1 SWAP2 DIV MUL PUSH1 0x20 ADD PUSH1 0x40 MLOAD SWAP1 DUP2 ADD PUSH1 0x40 MSTORE DUP1 SWAP3 SWAP2 SWAP1 DUP2 DUP2 MSTORE PUSH1 0x20 ADD DUP3 DUP1 SLOAD PUSH2 0xD44 SWAP1 PUSH2 0x4190 JUMP JUMPDEST DUP1 ISZERO PUSH2 0xD91 JUMPI DUP1 PUSH1 0x1F LT PUSH2 0xD66 JUMPI PUSH2 0x100 DUP1 DUP4 SLOAD DIV MUL DUP4 MSTORE SWAP2 PUSH1 0x20 ADD SWAP2 PUSH2 0xD91 JUMP JUMPDEST DUP3 ADD SWAP2 SWAP1 PUSH1 0x0 MSTORE PUSH1 0x20 PUSH1 0x0 KECCAK256 SWAP1 JUMPDEST DUP2 SLOAD DUP2 MSTORE SWAP1 PUSH1 0x1 ADD SWAP1 PUSH1 0x20 ADD DUP1 DUP4 GT PUSH2 0xD74 JUMPI DUP3 SWAP1 SUB PUSH1 0x1F AND DUP3 ADD SWAP2 JUMPDEST POP POP POP POP POP DUP2 MSTORE PUSH1 0x20 ADD PUSH1 0xB DUP3 ADD DUP1 SLOAD PUSH2 0xDAA SWAP1 PUSH2 0x4190 JUMP JUMPDEST DUP1 PUSH1 0x1F ADD PUSH1 0x20 DUP1 SWAP2 DIV MUL PUSH1 0x20 ADD PUSH1 0x40 MLOAD SWAP1 DUP2 ADD PUSH1 0x40 MSTORE DUP1 SWAP3 SWAP2 SWAP1 DUP2 DUP2 MSTORE PUSH1 0x20 ADD DUP3 DUP1 SLOAD PUSH2 0xDD6 SWAP1 PUSH2 0x4190 JUMP JUMPDEST DUP1 ISZERO PUSH2 0xE23 JUMPI DUP1 PUSH1 0x1F LT PUSH2 0xDF8 JUMPI PUSH2 0x100 DUP1 DUP4 SLOAD DIV MUL DUP4 MSTORE SWAP2 PUSH1 0x20 ADD SWAP2 PUSH2 0xE23 JUMP JUMPDEST DUP3 ADD SWAP2 SWAP1 PUSH1 0x0 MSTORE PUSH1 0x20 PUSH1 0x0 KECCAK256 SWAP1 JUMPDEST DUP2 SLOAD DUP2 MSTORE SWAP1 PUSH1 0x1 ADD SWAP1 PUSH1 0x20 ADD DUP1 DUP4 GT PUSH2 0xE06 JUMPI DUP3 SWAP1 SUB PUSH1 0x1F AND DUP3 ADD SWAP2 JUMPDEST POP POP POP POP POP DUP2 MSTORE POP POP SWAP1 POP JUMPDEST SWAP2 SWAP1 POP JUMP JUMPDEST PUSH1 0x40 MLOAD PUSH1 0x20 ADD PUSH2 0xE43 SWAP1 PUSH2 0x41E8 JUMP JUMPDEST PUSH1 0x40 MLOAD PUSH1 0x20 DUP2 DUP4 SUB SUB DUP2 MSTORE SWAP1 PUSH1 0x40 MSTORE DUP1 MLOAD SWAP1 PUSH1 0x20 ADD KECCAK256 PUSH1 0x5 PUSH1 0x0 CALLER PUSH20 0xFFFFFFFFFFFFFFFFFFFFFFFFFFFFFFFFFFFFFFFF AND PUSH20 0xFFFFFFFFFFFFFFFFFFFFFFFFFFFFFFFFFFFFFFFF AND DUP2 MSTORE PUSH1 0x20 ADD SWAP1 DUP2 MSTORE PUSH1 0x20 ADD PUSH1 0x0 KECCAK256 PUSH1 0x40 MLOAD PUSH1 0x20 ADD PUSH2 0xEA8 SWAP2 SWAP1 PUSH2 0x4291 JUMP JUMPDEST PUSH1 0x40 MLOAD PUSH1 0x20 DUP2 DUP4 SUB SUB DUP2 MSTORE SWAP1 PUSH1 0x40 MSTORE DUP1 MLOAD SWAP1 PUSH1 0x20 ADD KECCAK256 EQ ISZERO PUSH2 0xEFF JUMPI PUSH1 0x40 MLOAD PUSH32 0x8C379A000000000000000000000000000000000000000000000000000000000 DUP2 MSTORE PUSH1 0x4 ADD PUSH2 0xEF6 SWAP1 PUSH2 0x42F4 JUMP JUMPDEST PUSH1 0x40 MLOAD DUP1 SWAP2 SUB SWAP1 REVERT JUMPDEST PUSH1 0x0 JUMPDEST DUP5 DUP5 SWAP1 POP DUP2 LT ISZERO PUSH2 0x1521 JUMPI PUSH1 0x40 MLOAD PUSH1 0x20 ADD PUSH2 0xF1C SWAP1 PUSH2 0x4360 JUMP JUMPDEST PUSH1 0x40 MLOAD PUSH1 0x20 DUP2 DUP4 SUB SUB DUP2 MSTORE SWAP1 PUSH1 0x40 MSTORE DUP1 MLOAD SWAP1 PUSH1 0x20 ADD KECCAK256 DUP6 DUP6 DUP4 DUP2 DUP2 LT PUSH2 0xF45 JUMPI PUSH2 0xF44 PUSH2 0x4375 JUMP JUMPDEST JUMPDEST SWAP1 POP PUSH1 0x20 MUL DUP2 ADD SWAP1 PUSH2 0xF57 SWAP2 SWAP1 PUSH2 0x43B3 JUMP JUMPDEST PUSH1 0x40 MLOAD PUSH1 0x20 ADD PUSH2 0xF68 SWAP3 SWAP2 SWAP1 PUSH2 0x443B JUMP JUMPDEST PUSH1 0x40 MLOAD PUSH1 0x20 DUP2 DUP4 SUB SUB DUP2 MSTORE SWAP1 PUSH1 0x40 MSTORE DUP1 MLOAD SWAP1 PUSH1 0x20 ADD KECCAK256 EQ ISZERO PUSH2 0xFDF JUMPI DUP3 DUP3 DUP3 DUP2 DUP2 LT PUSH2 0xF97 JUMPI PUSH2 0xF96 PUSH2 0x4375 JUMP JUMPDEST JUMPDEST SWAP1 POP PUSH1 0x20 MUL DUP2 ADD SWAP1 PUSH2 0xFA9 SWAP2 SWAP1 PUSH2 0x43B3 JUMP JUMPDEST PUSH1 0x3 DUP10 DUP10 PUSH1 0x40 MLOAD PUSH2 0xFBB SWAP3 SWAP2 SWAP1 PUSH2 0x443B JUMP JUMPDEST SWAP1 DUP2 MSTORE PUSH1 0x20 ADD PUSH1 0x40 MLOAD DUP1 SWAP2 SUB SWAP1 KECCAK256 PUSH1 0x6 ADD SWAP2 SWAP1 PUSH2 0xFD9 SWAP3 SWAP2 SWAP1 PUSH2 0x34C0 JUMP JUMPDEST POP PUSH2 0x150E JUMP JUMPDEST PUSH1 0x40 MLOAD PUSH1 0x20 ADD PUSH2 0xFEE SWAP1 PUSH2 0x44A0 JUMP JUMPDEST PUSH1 0x40 MLOAD PUSH1 0x20 DUP2 DUP4 SUB SUB DUP2 MSTORE SWAP1 PUSH1 0x40 MSTORE DUP1 MLOAD SWAP1 PUSH1 0x20 ADD KECCAK256 DUP6 DUP6 DUP4 DUP2 DUP2 LT PUSH2 0x1017 JUMPI PUSH2 0x1016 PUSH2 0x4375 JUMP JUMPDEST JUMPDEST SWAP1 POP PUSH1 0x20 MUL DUP2 ADD SWAP1 PUSH2 0x1029 SWAP2 SWAP1 PUSH2 0x43B3 JUMP JUMPDEST PUSH1 0x40 MLOAD PUSH1 0x20 ADD PUSH2 0x103A SWAP3 SWAP2 SWAP1 PUSH2 0x443B JUMP JUMPDEST PUSH1 0x40 MLOAD PUSH1 0x20 DUP2 DUP4 SUB SUB DUP2 MSTORE SWAP1 PUSH1 0x40 MSTORE DUP1 MLOAD SWAP1 PUSH1 0x20 ADD KECCAK256 EQ ISZERO PUSH2 0x10F2 JUMPI PUSH2 0x10C6 DUP4 DUP4 DUP4 DUP2 DUP2 LT PUSH2 0x106C JUMPI PUSH2 0x106B PUSH2 0x4375 JUMP JUMPDEST JUMPDEST SWAP1 POP PUSH1 0x20 MUL DUP2 ADD SWAP1 PUSH2 0x107E SWAP2 SWAP1 PUSH2 0x43B3 JUMP JUMPDEST DUP1 DUP1 PUSH1 0x1F ADD PUSH1 0x20 DUP1 SWAP2 DIV MUL PUSH1 0x20 ADD PUSH1 0x40 MLOAD SWAP1 DUP2 ADD PUSH1 0x40 MSTORE DUP1 SWAP4 SWAP3 SWAP2 SWAP1 DUP2 DUP2 MSTORE PUSH1 0x20 ADD DUP4 DUP4 DUP1 DUP3 DUP5 CALLDATACOPY PUSH1 0x0 DUP2 DUP5 ADD MSTORE PUSH1 0x1F NOT PUSH1 0x1F DUP3 ADD AND SWAP1 POP DUP1 DUP4 ADD SWAP3 POP POP POP POP POP POP POP PUSH2 0x1BA0 JUMP JUMPDEST PUSH1 0x3 DUP9 DUP9 PUSH1 0x40 MLOAD PUSH2 0x10D8 SWAP3 SWAP2 SWAP1 PUSH2 0x443B JUMP JUMPDEST SWAP1 DUP2 MSTORE PUSH1 0x20 ADD PUSH1 0x40 MLOAD DUP1 SWAP2 SUB SWAP1 KECCAK256 PUSH1 0x5 ADD DUP2 SWAP1 SSTORE POP PUSH2 0x150D JUMP JUMPDEST PUSH1 0x40 MLOAD PUSH1 0x20 ADD PUSH2 0x1101 SWAP1 PUSH2 0x4501 JUMP JUMPDEST PUSH1 0x40 MLOAD PUSH1 0x20 DUP2 DUP4 SUB SUB DUP2 MSTORE SWAP1 PUSH1 0x40 MSTORE DUP1 MLOAD SWAP1 PUSH1 0x20 ADD KECCAK256 DUP6 DUP6 DUP4 DUP2 DUP2 LT PUSH2 0x112A JUMPI PUSH2 0x1129 PUSH2 0x4375 JUMP JUMPDEST JUMPDEST SWAP1 POP PUSH1 0x20 MUL DUP2 ADD SWAP1 PUSH2 0x113C SWAP2 SWAP1 PUSH2 0x43B3 JUMP JUMPDEST PUSH1 0x40 MLOAD PUSH1 0x20 ADD PUSH2 0x114D SWAP3 SWAP2 SWAP1 PUSH2 0x443B JUMP JUMPDEST PUSH1 0x40 MLOAD PUSH1 0x20 DUP2 DUP4 SUB SUB DUP2 MSTORE SWAP1 PUSH1 0x40 MSTORE DUP1 MLOAD SWAP1 PUSH1 0x20 ADD KECCAK256 EQ ISZERO PUSH2 0x11C4 JUMPI DUP3 DUP3 DUP3 DUP2 DUP2 LT PUSH2 0x117C JUMPI PUSH2 0x117B PUSH2 0x4375 JUMP JUMPDEST JUMPDEST SWAP1 POP PUSH1 0x20 MUL DUP2 ADD SWAP1 PUSH2 0x118E SWAP2 SWAP1 PUSH2 0x43B3 JUMP JUMPDEST PUSH1 0x3 DUP10 DUP10 PUSH1 0x40 MLOAD PUSH2 0x11A0 SWAP3 SWAP2 SWAP1 PUSH2 0x443B JUMP JUMPDEST SWAP1 DUP2 MSTORE PUSH1 0x20 ADD PUSH1 0x40 MLOAD DUP1 SWAP2 SUB SWAP1 KECCAK256 PUSH1 0x7 ADD SWAP2 SWAP1 PUSH2 0x11BE SWAP3 SWAP2 SWAP1 PUSH2 0x34C0 JUMP JUMPDEST POP PUSH2 0x150C JUMP JUMPDEST PUSH1 0x40 MLOAD PUSH1 0x20 ADD PUSH2 0x11D3 SWAP1 PUSH2 0x4562 JUMP JUMPDEST PUSH1 0x40 MLOAD PUSH1 0x20 DUP2 DUP4 SUB SUB DUP2 MSTORE SWAP1 PUSH1 0x40 MSTORE DUP1 MLOAD SWAP1 PUSH1 0x20 ADD KECCAK256 DUP6 DUP6 DUP4 DUP2 DUP2 LT PUSH2 0x11FC JUMPI PUSH2 0x11FB PUSH2 0x4375 JUMP JUMPDEST JUMPDEST SWAP1 POP PUSH1 0x20 MUL DUP2 ADD SWAP1 PUSH2 0x120E SWAP2 SWAP1 PUSH2 0x43B3 JUMP JUMPDEST PUSH1 0x40 MLOAD PUSH1 0x20 ADD PUSH2 0x121F SWAP3 SWAP2 SWAP1 PUSH2 0x443B JUMP JUMPDEST PUSH1 0x40 MLOAD PUSH1 0x20 DUP2 DUP4 SUB SUB DUP2 MSTORE SWAP1 PUSH1 0x40 MSTORE DUP1 MLOAD SWAP1 PUSH1 0x20 ADD KECCAK256 EQ ISZERO PUSH2 0x1296 JUMPI DUP3 DUP3 DUP3 DUP2 DUP2 LT PUSH2 0x124E JUMPI PUSH2 0x124D PUSH2 0x4375 JUMP JUMPDEST JUMPDEST SWAP1 POP PUSH1 0x20 MUL DUP2 ADD SWAP1 PUSH2 0x1260 SWAP2 SWAP1 PUSH2 0x43B3 JUMP JUMPDEST PUSH1 0x3 DUP10 DUP10 PUSH1 0x40 MLOAD PUSH2 0x1272 SWAP3 SWAP2 SWAP1 PUSH2 0x443B JUMP JUMPDEST SWAP1 DUP2 MSTORE PUSH1 0x20 ADD PUSH1 0x40 MLOAD DUP1 SWAP2 SUB SWAP1 KECCAK256 PUSH1 0x8 ADD SWAP2 SWAP1 PUSH2 0x1290 SWAP3 SWAP2 SWAP1 PUSH2 0x34C0 JUMP JUMPDEST POP PUSH2 0x150B JUMP JUMPDEST PUSH1 0x40 MLOAD PUSH1 0x20 ADD PUSH2 0x12A5 SWAP1 PUSH2 0x45C3 JUMP JUMPDEST PUSH1 0x40 MLOAD PUSH1 0x20 DUP2 DUP4 SUB SUB DUP2 MSTORE SWAP1 PUSH1 0x40 MSTORE DUP1 MLOAD SWAP1 PUSH1 0x20 ADD KECCAK256 DUP6 DUP6 DUP4 DUP2 DUP2 LT PUSH2 0x12CE JUMPI PUSH2 0x12CD PUSH2 0x4375 JUMP JUMPDEST JUMPDEST SWAP1 POP PUSH1 0x20 MUL DUP2 ADD SWAP1 PUSH2 0x12E0 SWAP2 SWAP1 PUSH2 0x43B3 JUMP JUMPDEST PUSH1 0x40 MLOAD PUSH1 0x20 ADD PUSH2 0x12F1 SWAP3 SWAP2 SWAP1 PUSH2 0x443B JUMP JUMPDEST PUSH1 0x40 MLOAD PUSH1 0x20 DUP2 DUP4 SUB SUB DUP2 MSTORE SWAP1 PUSH1 0x40 MSTORE DUP1 MLOAD SWAP1 PUSH1 0x20 ADD KECCAK256 EQ ISZERO PUSH2 0x1368 JUMPI DUP3 DUP3 DUP3 DUP2 DUP2 LT PUSH2 0x1320 JUMPI PUSH2 0x131F PUSH2 0x4375 JUMP JUMPDEST JUMPDEST SWAP1 POP PUSH1 0x20 MUL DUP2 ADD SWAP1 PUSH2 0x1332 SWAP2 SWAP1 PUSH2 0x43B3 JUMP JUMPDEST PUSH1 0x3 DUP10 DUP10 PUSH1 0x40 MLOAD PUSH2 0x1344 SWAP3 SWAP2 SWAP1 PUSH2 0x443B JUMP JUMPDEST SWAP1 DUP2 MSTORE PUSH1 0x20 ADD PUSH1 0x40 MLOAD DUP1 SWAP2 SUB SWAP1 KECCAK256 PUSH1 0x9 ADD SWAP2 SWAP1 PUSH2 0x1362 SWAP3 SWAP2 SWAP1 PUSH2 0x34C0 JUMP JUMPDEST POP PUSH2 0x150A JUMP JUMPDEST PUSH1 0x40 MLOAD PUSH1 0x20 ADD PUSH2 0x1377 SWAP1 PUSH2 0x4624 JUMP JUMPDEST PUSH1 0x40 MLOAD PUSH1 0x20 DUP2 DUP4 SUB SUB DUP2 MSTORE SWAP1 PUSH1 0x40 MSTORE DUP1 MLOAD SWAP1 PUSH1 0x20 ADD KECCAK256 DUP6 DUP6 DUP4 DUP2 DUP2 LT PUSH2 0x13A0 JUMPI PUSH2 0x139F PUSH2 0x4375 JUMP JUMPDEST JUMPDEST SWAP1 POP PUSH1 0x20 MUL DUP2 ADD SWAP1 PUSH2 0x13B2 SWAP2 SWAP1 PUSH2 0x43B3 JUMP JUMPDEST PUSH1 0x40 MLOAD PUSH1 0x20 ADD PUSH2 0x13C3 SWAP3 SWAP2 SWAP1 PUSH2 0x443B JUMP JUMPDEST PUSH1 0x40 MLOAD PUSH1 0x20 DUP2 DUP4 SUB SUB DUP2 MSTORE SWAP1 PUSH1 0x40 MSTORE DUP1 MLOAD SWAP1 PUSH1 0x20 ADD KECCAK256 EQ ISZERO PUSH2 0x143A JUMPI DUP3 DUP3 DUP3 DUP2 DUP2 LT PUSH2 0x13F2 JUMPI PUSH2 0x13F1 PUSH2 0x4375 JUMP JUMPDEST JUMPDEST SWAP1 POP PUSH1 0x20 MUL DUP2 ADD SWAP1 PUSH2 0x1404 SWAP2 SWAP1 PUSH2 0x43B3 JUMP JUMPDEST PUSH1 0x3 DUP10 DUP10 PUSH1 0x40 MLOAD PUSH2 0x1416 SWAP3 SWAP2 SWAP1 PUSH2 0x443B JUMP JUMPDEST SWAP1 DUP2 MSTORE PUSH1 0x20 ADD PUSH1 0x40 MLOAD DUP1 SWAP2 SUB SWAP1 KECCAK256 PUSH1 0xA ADD SWAP2 SWAP1 PUSH2 0x1434 SWAP3 SWAP2 SWAP1 PUSH2 0x34C0 JUMP JUMPDEST POP PUSH2 0x1509 JUMP JUMPDEST PUSH1 0x40 MLOAD PUSH1 0x20 ADD PUSH2 0x1449 SWAP1 PUSH2 0x4685 JUMP JUMPDEST PUSH1 0x40 MLOAD PUSH1 0x20 DUP2 DUP4 SUB SUB DUP2 MSTORE SWAP1 PUSH1 0x40 MSTORE DUP1 MLOAD SWAP1 PUSH1 0x20 ADD KECCAK256 DUP6 DUP6 DUP4 DUP2 DUP2 LT PUSH2 0x1472 JUMPI PUSH2 0x1471 PUSH2 0x4375 JUMP JUMPDEST JUMPDEST SWAP1 POP PUSH1 0x20 MUL DUP2 ADD SWAP1 PUSH2 0x1484 SWAP2 SWAP1 PUSH2 0x43B3 JUMP JUMPDEST PUSH1 0x40 MLOAD PUSH1 0x20 ADD PUSH2 0x1495 SWAP3 SWAP2 SWAP1 PUSH2 0x443B JUMP JUMPDEST PUSH1 0x40 MLOAD PUSH1 0x20 DUP2 DUP4 SUB SUB DUP2 MSTORE SWAP1 PUSH1 0x40 MSTORE DUP1 MLOAD SWAP1 PUSH1 0x20 ADD KECCAK256 EQ ISZERO PUSH2 0x1508 JUMPI DUP3 DUP3 DUP3 DUP2 DUP2 LT PUSH2 0x14C4 JUMPI PUSH2 0x14C3 PUSH2 0x4375 JUMP JUMPDEST JUMPDEST SWAP1 POP PUSH1 0x20 MUL DUP2 ADD SWAP1 PUSH2 0x14D6 SWAP2 SWAP1 PUSH2 0x43B3 JUMP JUMPDEST PUSH1 0x3 DUP10 DUP10 PUSH1 0x40 MLOAD PUSH2 0x14E8 SWAP3 SWAP2 SWAP1 PUSH2 0x443B JUMP JUMPDEST SWAP1 DUP2 MSTORE PUSH1 0x20 ADD PUSH1 0x40 MLOAD DUP1 SWAP2 SUB SWAP1 KECCAK256 PUSH1 0xB ADD SWAP2 SWAP1 PUSH2 0x1506 SWAP3 SWAP2 SWAP1 PUSH2 0x34C0 JUMP JUMPDEST POP JUMPDEST JUMPDEST JUMPDEST JUMPDEST JUMPDEST JUMPDEST JUMPDEST DUP1 DUP1 PUSH2 0x1519 SWAP1 PUSH2 0x46C9 JUMP JUMPDEST SWAP2 POP POP PUSH2 0xF02 JUMP JUMPDEST POP POP POP POP POP POP POP JUMP JUMPDEST PUSH1 0x60 PUSH1 0x0 PUSH1 0x1 SLOAD SWAP1 POP PUSH1 0x0 DUP1 PUSH1 0x2 SLOAD PUSH1 0x1 SLOAD PUSH2 0x1546 SWAP2 SWAP1 PUSH2 0x4712 JUMP JUMPDEST PUSH8 0xFFFFFFFFFFFFFFFF DUP2 GT ISZERO PUSH2 0x155F JUMPI PUSH2 0x155E PUSH2 0x3618 JUMP JUMPDEST JUMPDEST PUSH1 0x40 MLOAD SWAP1 DUP1 DUP3 MSTORE DUP1 PUSH1 0x20 MUL PUSH1 0x20 ADD DUP3 ADD PUSH1 0x40 MSTORE DUP1 ISZERO PUSH2 0x1598 JUMPI DUP2 PUSH1 0x20 ADD JUMPDEST PUSH2 0x1585 PUSH2 0x345F JUMP JUMPDEST DUP2 MSTORE PUSH1 0x20 ADD SWAP1 PUSH1 0x1 SWAP1 SUB SWAP1 DUP2 PUSH2 0x157D JUMPI SWAP1 POP JUMPDEST POP SWAP1 POP PUSH1 0x0 PUSH1 0x2 SLOAD SWAP1 POP JUMPDEST DUP4 DUP2 LT ISZERO PUSH2 0x1B82 JUMPI PUSH1 0x0 PUSH1 0x3 PUSH2 0x15B8 DUP4 PUSH2 0x30EA JUMP JUMPDEST PUSH1 0x40 MLOAD PUSH1 0x20 ADD PUSH2 0x15C8 SWAP2 SWAP1 PUSH2 0x476C JUMP JUMPDEST PUSH1 0x40 MLOAD PUSH1 0x20 DUP2 DUP4 SUB SUB DUP2 MSTORE SWAP1 PUSH1 0x40 MSTORE PUSH1 0x40 MLOAD PUSH2 0x15E4 SWAP2 SWAP1 PUSH2 0x414A JUMP JUMPDEST SWAP1 DUP2 MSTORE PUSH1 0x20 ADD PUSH1 0x40 MLOAD DUP1 SWAP2 SUB SWAP1 KECCAK256 SWAP1 POP DUP1 PUSH1 0x40 MLOAD DUP1 PUSH2 0x180 ADD PUSH1 0x40 MSTORE SWAP1 DUP2 PUSH1 0x0 DUP3 ADD DUP1 SLOAD PUSH2 0x1611 SWAP1 PUSH2 0x4190 JUMP JUMPDEST DUP1 PUSH1 0x1F ADD PUSH1 0x20 DUP1 SWAP2 DIV MUL PUSH1 0x20 ADD PUSH1 0x40 MLOAD SWAP1 DUP2 ADD PUSH1 0x40 MSTORE DUP1 SWAP3 SWAP2 SWAP1 DUP2 DUP2 MSTORE PUSH1 0x20 ADD DUP3 DUP1 SLOAD PUSH2 0x163D SWAP1 PUSH2 0x4190 JUMP JUMPDEST DUP1 ISZERO PUSH2 0x168A JUMPI DUP1 PUSH1 0x1F LT PUSH2 0x165F JUMPI PUSH2 0x100 DUP1 DUP4 SLOAD DIV MUL DUP4 MSTORE SWAP2 PUSH1 0x20 ADD SWAP2 PUSH2 0x168A JUMP JUMPDEST DUP3 ADD SWAP2 SWAP1 PUSH1 0x0 MSTORE PUSH1 0x20 PUSH1 0x0 KECCAK256 SWAP1 JUMPDEST DUP2 SLOAD DUP2 MSTORE SWAP1 PUSH1 0x1 ADD SWAP1 PUSH1 0x20 ADD DUP1 DUP4 GT PUSH2 0x166D JUMPI DUP3 SWAP1 SUB PUSH1 0x1F AND DUP3 ADD SWAP2 JUMPDEST POP POP POP POP POP DUP2 MSTORE PUSH1 0x20 ADD PUSH1 0x1 DUP3 ADD DUP1 SLOAD PUSH2 0x16A3 SWAP1 PUSH2 0x4190 JUMP JUMPDEST DUP1 PUSH1 0x1F ADD PUSH1 0x20 DUP1 SWAP2 DIV MUL PUSH1 0x20 ADD PUSH1 0x40 MLOAD SWAP1 DUP2 ADD PUSH1 0x40 MSTORE DUP1 SWAP3 SWAP2 SWAP1 DUP2 DUP2 MSTORE PUSH1 0x20 ADD DUP3 DUP1 SLOAD PUSH2 0x16CF SWAP1 PUSH2 0x4190 JUMP JUMPDEST DUP1 ISZERO PUSH2 0x171C JUMPI DUP1 PUSH1 0x1F LT PUSH2 0x16F1 JUMPI PUSH2 0x100 DUP1 DUP4 SLOAD DIV MUL DUP4 MSTORE SWAP2 PUSH1 0x20 ADD SWAP2 PUSH2 0x171C JUMP JUMPDEST DUP3 ADD SWAP2 SWAP1 PUSH1 0x0 MSTORE PUSH1 0x20 PUSH1 0x0 KECCAK256 SWAP1 JUMPDEST DUP2 SLOAD DUP2 MSTORE SWAP1 PUSH1 0x1 ADD SWAP1 PUSH1 0x20 ADD DUP1 DUP4 GT PUSH2 0x16FF JUMPI DUP3 SWAP1 SUB PUSH1 0x1F AND DUP3 ADD SWAP2 JUMPDEST POP POP POP POP POP DUP2 MSTORE PUSH1 0x20 ADD PUSH1 0x2 DUP3 ADD DUP1 SLOAD PUSH2 0x1735 SWAP1 PUSH2 0x4190 JUMP JUMPDEST DUP1 PUSH1 0x1F ADD PUSH1 0x20 DUP1 SWAP2 DIV MUL PUSH1 0x20 ADD PUSH1 0x40 MLOAD SWAP1 DUP2 ADD PUSH1 0x40 MSTORE DUP1 SWAP3 SWAP2 SWAP1 DUP2 DUP2 MSTORE PUSH1 0x20 ADD DUP3 DUP1 SLOAD PUSH2 0x1761 SWAP1 PUSH2 0x4190 JUMP JUMPDEST DUP1 ISZERO PUSH2 0x17AE JUMPI DUP1 PUSH1 0x1F LT PUSH2 0x1783 JUMPI PUSH2 0x100 DUP1 DUP4 SLOAD DIV MUL DUP4 MSTORE SWAP2 PUSH1 0x20 ADD SWAP2 PUSH2 0x17AE JUMP JUMPDEST DUP3 ADD SWAP2 SWAP1 PUSH1 0x0 MSTORE PUSH1 0x20 PUSH1 0x0 KECCAK256 SWAP1 JUMPDEST DUP2 SLOAD DUP2 MSTORE SWAP1 PUSH1 0x1 ADD SWAP1 PUSH1 0x20 ADD DUP1 DUP4 GT PUSH2 0x1791 JUMPI DUP3 SWAP1 SUB PUSH1 0x1F AND DUP3 ADD SWAP2 JUMPDEST POP POP POP POP POP DUP2 MSTORE PUSH1 0x20 ADD PUSH1 0x3 DUP3 ADD SLOAD DUP2 MSTORE PUSH1 0x20 ADD PUSH1 0x4 DUP3 ADD SLOAD DUP2 MSTORE PUSH1 0x20 ADD PUSH1 0x5 DUP3 ADD SLOAD DUP2 MSTORE PUSH1 0x20 ADD PUSH1 0x6 DUP3 ADD DUP1 SLOAD PUSH2 0x17E5 SWAP1 PUSH2 0x4190 JUMP JUMPDEST DUP1 PUSH1 0x1F ADD PUSH1 0x20 DUP1 SWAP2 DIV MUL PUSH1 0x20 ADD PUSH1 0x40 MLOAD SWAP1 DUP2 ADD PUSH1 0x40 MSTORE DUP1 SWAP3 SWAP2 SWAP1 DUP2 DUP2 MSTORE PUSH1 0x20 ADD DUP3 DUP1 SLOAD PUSH2 0x1811 SWAP1 PUSH2 0x4190 JUMP JUMPDEST DUP1 ISZERO PUSH2 0x185E JUMPI DUP1 PUSH1 0x1F LT PUSH2 0x1833 JUMPI PUSH2 0x100 DUP1 DUP4 SLOAD DIV MUL DUP4 MSTORE SWAP2 PUSH1 0x20 ADD SWAP2 PUSH2 0x185E JUMP JUMPDEST DUP3 ADD SWAP2 SWAP1 PUSH1 0x0 MSTORE PUSH1 0x20 PUSH1 0x0 KECCAK256 SWAP1 JUMPDEST DUP2 SLOAD DUP2 MSTORE SWAP1 PUSH1 0x1 ADD SWAP1 PUSH1 0x20 ADD DUP1 DUP4 GT PUSH2 0x1841 JUMPI DUP3 SWAP1 SUB PUSH1 0x1F AND DUP3 ADD SWAP2 JUMPDEST POP POP POP POP POP DUP2 MSTORE PUSH1 0x20 ADD PUSH1 0x7 DUP3 ADD DUP1 SLOAD PUSH2 0x1877 SWAP1 PUSH2 0x4190 JUMP JUMPDEST DUP1 PUSH1 0x1F ADD PUSH1 0x20 DUP1 SWAP2 DIV MUL PUSH1 0x20 ADD PUSH1 0x40 MLOAD SWAP1 DUP2 ADD PUSH1 0x40 MSTORE DUP1 SWAP3 SWAP2 SWAP1 DUP2 DUP2 MSTORE PUSH1 0x20 ADD DUP3 DUP1 SLOAD PUSH2 0x18A3 SWAP1 PUSH2 0x4190 JUMP JUMPDEST DUP1 ISZERO PUSH2 0x18F0 JUMPI DUP1 PUSH1 0x1F LT PUSH2 0x18C5 JUMPI PUSH2 0x100 DUP1 DUP4 SLOAD DIV MUL DUP4 MSTORE SWAP2 PUSH1 0x20 ADD SWAP2 PUSH2 0x18F0 JUMP JUMPDEST DUP3 ADD SWAP2 SWAP1 PUSH1 0x0 MSTORE PUSH1 0x20 PUSH1 0x0 KECCAK256 SWAP1 JUMPDEST DUP2 SLOAD DUP2 MSTORE SWAP1 PUSH1 0x1 ADD SWAP1 PUSH1 0x20 ADD DUP1 DUP4 GT PUSH2 0x18D3 JUMPI DUP3 SWAP1 SUB PUSH1 0x1F AND DUP3 ADD SWAP2 JUMPDEST POP POP POP POP POP DUP2 MSTORE PUSH1 0x20 ADD PUSH1 0x8 DUP3 ADD DUP1 SLOAD PUSH2 0x1909 SWAP1 PUSH2 0x4190 JUMP JUMPDEST DUP1 PUSH1 0x1F ADD PUSH1 0x20 DUP1 SWAP2 DIV MUL PUSH1 0x20 ADD PUSH1 0x40 MLOAD SWAP1 DUP2 ADD PUSH1 0x40 MSTORE DUP1 SWAP3 SWAP2 SWAP1 DUP2 DUP2 MSTORE PUSH1 0x20 ADD DUP3 DUP1 SLOAD PUSH2 0x1935 SWAP1 PUSH2 0x4190 JUMP JUMPDEST DUP1 ISZERO PUSH2 0x1982 JUMPI DUP1 PUSH1 0x1F LT PUSH2 0x1957 JUMPI PUSH2 0x100 DUP1 DUP4 SLOAD DIV MUL DUP4 MSTORE SWAP2 PUSH1 0x20 ADD SWAP2 PUSH2 0x1982 JUMP JUMPDEST DUP3 ADD SWAP2 SWAP1 PUSH1 0x0 MSTORE PUSH1 0x20 PUSH1 0x0 KECCAK256 SWAP1 JUMPDEST DUP2 SLOAD DUP2 MSTORE SWAP1 PUSH1 0x1 ADD SWAP1 PUSH1 0x20 ADD DUP1 DUP4 GT PUSH2 0x1965 JUMPI DUP3 SWAP1 SUB PUSH1 0x1F AND DUP3 ADD SWAP2 JUMPDEST POP POP POP POP POP DUP2 MSTORE PUSH1 0x20 ADD PUSH1 0x9 DUP3 ADD DUP1 SLOAD PUSH2 0x199B SWAP1 PUSH2 0x4190 JUMP JUMPDEST DUP1 PUSH1 0x1F ADD PUSH1 0x20 DUP1 SWAP2 DIV MUL PUSH1 0x20 ADD PUSH1 0x40 MLOAD SWAP1 DUP2 ADD PUSH1 0x40 MSTORE DUP1 SWAP3 SWAP2 SWAP1 DUP2 DUP2 MSTORE PUSH1 0x20 ADD DUP3 DUP1 SLOAD PUSH2 0x19C7 SWAP1 PUSH2 0x4190 JUMP JUMPDEST DUP1 ISZERO PUSH2 0x1A14 JUMPI DUP1 PUSH1 0x1F LT PUSH2 0x19E9 JUMPI PUSH2 0x100 DUP1 DUP4 SLOAD DIV MUL DUP4 MSTORE SWAP2 PUSH1 0x20 ADD SWAP2 PUSH2 0x1A14 JUMP JUMPDEST DUP3 ADD SWAP2 SWAP1 PUSH1 0x0 MSTORE PUSH1 0x20 PUSH1 0x0 KECCAK256 SWAP1 JUMPDEST DUP2 SLOAD DUP2 MSTORE SWAP1 PUSH1 0x1 ADD SWAP1 PUSH1 0x20 ADD DUP1 DUP4 GT PUSH2 0x19F7 JUMPI DUP3 SWAP1 SUB PUSH1 0x1F AND DUP3 ADD SWAP2 JUMPDEST POP POP POP POP POP DUP2 MSTORE PUSH1 0x20 ADD PUSH1 0xA DUP3 ADD DUP1 SLOAD PUSH2 0x1A2D SWAP1 PUSH2 0x4190 JUMP JUMPDEST DUP1 PUSH1 0x1F ADD PUSH1 0x20 DUP1 SWAP2 DIV MUL PUSH1 0x20 ADD PUSH1 0x40 MLOAD SWAP1 DUP2 ADD PUSH1 0x40 MSTORE DUP1 SWAP3 SWAP2 SWAP1 DUP2 DUP2 MSTORE PUSH1 0x20 ADD DUP3 DUP1 SLOAD PUSH2 0x1A59 SWAP1 PUSH2 0x4190 JUMP JUMPDEST DUP1 ISZERO PUSH2 0x1AA6 JUMPI DUP1 PUSH1 0x1F LT PUSH2 0x1A7B JUMPI PUSH2 0x100 DUP1 DUP4 SLOAD DIV MUL DUP4 MSTORE SWAP2 PUSH1 0x20 ADD SWAP2 PUSH2 0x1AA6 JUMP JUMPDEST DUP3 ADD SWAP2 SWAP1 PUSH1 0x0 MSTORE PUSH1 0x20 PUSH1 0x0 KECCAK256 SWAP1 JUMPDEST DUP2 SLOAD DUP2 MSTORE SWAP1 PUSH1 0x1 ADD SWAP1 PUSH1 0x20 ADD DUP1 DUP4 GT PUSH2 0x1A89 JUMPI DUP3 SWAP1 SUB PUSH1 0x1F AND DUP3 ADD SWAP2 JUMPDEST POP POP POP POP POP DUP2 MSTORE PUSH1 0x20 ADD PUSH1 0xB DUP3 ADD DUP1 SLOAD PUSH2 0x1ABF SWAP1 PUSH2 0x4190 JUMP JUMPDEST DUP1 PUSH1 0x1F ADD PUSH1 0x20 DUP1 SWAP2 DIV MUL PUSH1 0x20 ADD PUSH1 0x40 MLOAD SWAP1 DUP2 ADD PUSH1 0x40 MSTORE DUP1 SWAP3 SWAP2 SWAP1 DUP2 DUP2 MSTORE PUSH1 0x20 ADD DUP3 DUP1 SLOAD PUSH2 0x1AEB SWAP1 PUSH2 0x4190 JUMP JUMPDEST DUP1 ISZERO PUSH2 0x1B38 JUMPI DUP1 PUSH1 0x1F LT PUSH2 0x1B0D JUMPI PUSH2 0x100 DUP1 DUP4 SLOAD DIV MUL DUP4 MSTORE SWAP2 PUSH1 0x20 ADD SWAP2 PUSH2 0x1B38 JUMP JUMPDEST DUP3 ADD SWAP2 SWAP1 PUSH1 0x0 MSTORE PUSH1 0x20 PUSH1 0x0 KECCAK256 SWAP1 JUMPDEST DUP2 SLOAD DUP2 MSTORE SWAP1 PUSH1 0x1 ADD SWAP1 PUSH1 0x20 ADD DUP1 DUP4 GT PUSH2 0x1B1B JUMPI DUP3 SWAP1 SUB PUSH1 0x1F AND DUP3 ADD SWAP2 JUMPDEST POP POP POP POP POP DUP2 MSTORE POP POP DUP4 DUP6 DUP2 MLOAD DUP2 LT PUSH2 0x1B54 JUMPI PUSH2 0x1B53 PUSH2 0x4375 JUMP JUMPDEST JUMPDEST PUSH1 0x20 MUL PUSH1 0x20 ADD ADD DUP2 SWAP1 MSTORE POP PUSH1 0x1 DUP5 PUSH2 0x1B6C SWAP2 SWAP1 PUSH2 0x4792 JUMP JUMPDEST SWAP4 POP POP DUP1 DUP1 PUSH2 0x1B7A SWAP1 PUSH2 0x46C9 JUMP JUMPDEST SWAP2 POP POP PUSH2 0x15A3 JUMP JUMPDEST POP DUP1 SWAP4 POP POP POP POP SWAP1 JUMP JUMPDEST PUSH2 0x1B94 PUSH2 0x31C2 JUMP JUMPDEST PUSH2 0x1B9E PUSH1 0x0 PUSH2 0x3240 JUMP JUMPDEST JUMP JUMPDEST PUSH1 0x0 DUP1 PUSH1 0x0 SWAP1 POP PUSH1 0x0 DUP4 SWAP1 POP PUSH1 0x0 JUMPDEST DUP2 MLOAD DUP2 LT ISZERO PUSH2 0x1C4F JUMPI PUSH1 0x0 DUP2 DUP4 MLOAD PUSH2 0x1BC7 SWAP2 SWAP1 PUSH2 0x4712 JUMP JUMPDEST SWAP1 POP PUSH1 0x0 DUP4 DUP4 DUP2 MLOAD DUP2 LT PUSH2 0x1BDE JUMPI PUSH2 0x1BDD PUSH2 0x4375 JUMP JUMPDEST JUMPDEST PUSH1 0x20 ADD ADD MLOAD PUSH1 0xF8 SHR PUSH1 0xF8 SHL SWAP1 POP PUSH1 0x0 DUP2 PUSH1 0xF8 SHR SWAP1 POP PUSH1 0x0 PUSH1 0x30 DUP3 PUSH1 0xFF AND PUSH2 0x1C05 SWAP2 SWAP1 PUSH2 0x4712 JUMP JUMPDEST SWAP1 POP PUSH1 0x1 DUP5 PUSH2 0x1C14 SWAP2 SWAP1 PUSH2 0x4712 JUMP JUMPDEST PUSH1 0xA PUSH2 0x1C20 SWAP2 SWAP1 PUSH2 0x491B JUMP JUMPDEST DUP2 PUSH2 0x1C2B SWAP2 SWAP1 PUSH2 0x4966 JUMP JUMPDEST DUP8 PUSH2 0x1C36 SWAP2 SWAP1 PUSH2 0x4792 JUMP JUMPDEST SWAP7 POP POP POP POP POP DUP1 DUP1 PUSH2 0x1C47 SWAP1 PUSH2 0x46C9 JUMP JUMPDEST SWAP2 POP POP PUSH2 0x1BAF JUMP JUMPDEST POP DUP2 SWAP3 POP POP POP SWAP2 SWAP1 POP JUMP JUMPDEST PUSH2 0x1C62 PUSH2 0x31C2 JUMP JUMPDEST DUP2 PUSH1 0x0 PUSH20 0xFFFFFFFFFFFFFFFFFFFFFFFFFFFFFFFFFFFFFFFF AND DUP2 PUSH20 0xFFFFFFFFFFFFFFFFFFFFFFFFFFFFFFFFFFFFFFFF AND EQ ISZERO PUSH2 0x1CD3 JUMPI PUSH1 0x40 MLOAD PUSH32 0x8C379A000000000000000000000000000000000000000000000000000000000 DUP2 MSTORE PUSH1 0x4 ADD PUSH2 0x1CCA SWAP1 PUSH2 0x4A32 JUMP JUMPDEST PUSH1 0x40 MLOAD DUP1 SWAP2 SUB SWAP1 REVERT JUMPDEST DUP2 PUSH1 0x5 PUSH1 0x0 DUP6 PUSH20 0xFFFFFFFFFFFFFFFFFFFFFFFFFFFFFFFFFFFFFFFF AND PUSH20 0xFFFFFFFFFFFFFFFFFFFFFFFFFFFFFFFFFFFFFFFF AND DUP2 MSTORE PUSH1 0x20 ADD SWAP1 DUP2 MSTORE PUSH1 0x20 ADD PUSH1 0x0 KECCAK256 SWAP1 DUP1 MLOAD SWAP1 PUSH1 0x20 ADD SWAP1 PUSH2 0x1D26 SWAP3 SWAP2 SWAP1 PUSH2 0x3546 JUMP JUMPDEST POP POP POP POP JUMP JUMPDEST PUSH1 0x0 DUP1 PUSH1 0x0 SWAP1 SLOAD SWAP1 PUSH2 0x100 EXP SWAP1 DIV PUSH20 0xFFFFFFFFFFFFFFFFFFFFFFFFFFFFFFFFFFFFFFFF AND SWAP1 POP SWAP1 JUMP JUMPDEST PUSH1 0x5 PUSH1 0x20 MSTORE DUP1 PUSH1 0x0 MSTORE PUSH1 0x40 PUSH1 0x0 KECCAK256 PUSH1 0x0 SWAP2 POP SWAP1 POP DUP1 SLOAD PUSH2 0x1D74 SWAP1 PUSH2 0x4190 JUMP JUMPDEST DUP1 PUSH1 0x1F ADD PUSH1 0x20 DUP1 SWAP2 DIV MUL PUSH1 0x20 ADD PUSH1 0x40 MLOAD SWAP1 DUP2 ADD PUSH1 0x40 MSTORE DUP1 SWAP3 SWAP2 SWAP1 DUP2 DUP2 MSTORE PUSH1 0x20 ADD DUP3 DUP1 SLOAD PUSH2 0x1DA0 SWAP1 PUSH2 0x4190 JUMP JUMPDEST DUP1 ISZERO PUSH2 0x1DED JUMPI DUP1 PUSH1 0x1F LT PUSH2 0x1DC2 JUMPI PUSH2 0x100 DUP1 DUP4 SLOAD DIV MUL DUP4 MSTORE SWAP2 PUSH1 0x20 ADD SWAP2 PUSH2 0x1DED JUMP JUMPDEST DUP3 ADD SWAP2 SWAP1 PUSH1 0x0 MSTORE PUSH1 0x20 PUSH1 0x0 KECCAK256 SWAP1 JUMPDEST DUP2 SLOAD DUP2 MSTORE SWAP1 PUSH1 0x1 ADD SWAP1 PUSH1 0x20 ADD DUP1 DUP4 GT PUSH2 0x1DD0 JUMPI DUP3 SWAP1 SUB PUSH1 0x1F AND DUP3 ADD SWAP2 JUMPDEST POP POP POP POP POP DUP2 JUMP JUMPDEST PUSH1 0x4 DUP2 DUP2 SLOAD DUP2 LT PUSH2 0x1E05 JUMPI PUSH1 0x0 DUP1 REVERT JUMPDEST SWAP1 PUSH1 0x0 MSTORE PUSH1 0x20 PUSH1 0x0 KECCAK256 SWAP1 PUSH1 0xC MUL ADD PUSH1 0x0 SWAP2 POP SWAP1 POP DUP1 PUSH1 0x0 ADD DUP1 SLOAD PUSH2 0x1E28 SWAP1 PUSH2 0x4190 JUMP JUMPDEST DUP1 PUSH1 0x1F ADD PUSH1 0x20 DUP1 SWAP2 DIV MUL PUSH1 0x20 ADD PUSH1 0x40 MLOAD SWAP1 DUP2 ADD PUSH1 0x40 MSTORE DUP1 SWAP3 SWAP2 SWAP1 DUP2 DUP2 MSTORE PUSH1 0x20 ADD DUP3 DUP1 SLOAD PUSH2 0x1E54 SWAP1 PUSH2 0x4190 JUMP JUMPDEST DUP1 ISZERO PUSH2 0x1EA1 JUMPI DUP1 PUSH1 0x1F LT PUSH2 0x1E76 JUMPI PUSH2 0x100 DUP1 DUP4 SLOAD DIV MUL DUP4 MSTORE SWAP2 PUSH1 0x20 ADD SWAP2 PUSH2 0x1EA1 JUMP JUMPDEST DUP3 ADD SWAP2 SWAP1 PUSH1 0x0 MSTORE PUSH1 0x20 PUSH1 0x0 KECCAK256 SWAP1 JUMPDEST DUP2 SLOAD DUP2 MSTORE SWAP1 PUSH1 0x1 ADD SWAP1 PUSH1 0x20 ADD DUP1 DUP4 GT PUSH2 0x1E84 JUMPI DUP3 SWAP1 SUB PUSH1 0x1F AND DUP3 ADD SWAP2 JUMPDEST POP POP POP POP POP SWAP1 DUP1 PUSH1 0x1 ADD DUP1 SLOAD PUSH2 0x1EB6 SWAP1 PUSH2 0x4190 JUMP JUMPDEST DUP1 PUSH1 0x1F ADD PUSH1 0x20 DUP1 SWAP2 DIV MUL PUSH1 0x20 ADD PUSH1 0x40 MLOAD SWAP1 DUP2 ADD PUSH1 0x40 MSTORE DUP1 SWAP3 SWAP2 SWAP1 DUP2 DUP2 MSTORE PUSH1 0x20 ADD DUP3 DUP1 SLOAD PUSH2 0x1EE2 SWAP1 PUSH2 0x4190 JUMP JUMPDEST DUP1 ISZERO PUSH2 0x1F2F JUMPI DUP1 PUSH1 0x1F LT PUSH2 0x1F04 JUMPI PUSH2 0x100 DUP1 DUP4 SLOAD DIV MUL DUP4 MSTORE SWAP2 PUSH1 0x20 ADD SWAP2 PUSH2 0x1F2F JUMP JUMPDEST DUP3 ADD SWAP2 SWAP1 PUSH1 0x0 MSTORE PUSH1 0x20 PUSH1 0x0 KECCAK256 SWAP1 JUMPDEST DUP2 SLOAD DUP2 MSTORE SWAP1 PUSH1 0x1 ADD SWAP1 PUSH1 0x20 ADD DUP1 DUP4 GT PUSH2 0x1F12 JUMPI DUP3 SWAP1 SUB PUSH1 0x1F AND DUP3 ADD SWAP2 JUMPDEST POP POP POP POP POP SWAP1 DUP1 PUSH1 0x2 ADD DUP1 SLOAD PUSH2 0x1F44 SWAP1 PUSH2 0x4190 JUMP JUMPDEST DUP1 PUSH1 0x1F ADD PUSH1 0x20 DUP1 SWAP2 DIV MUL PUSH1 0x20 ADD PUSH1 0x40 MLOAD SWAP1 DUP2 ADD PUSH1 0x40 MSTORE DUP1 SWAP3 SWAP2 SWAP1 DUP2 DUP2 MSTORE PUSH1 0x20 ADD DUP3 DUP1 SLOAD PUSH2 0x1F70 SWAP1 PUSH2 0x4190 JUMP JUMPDEST DUP1 ISZERO PUSH2 0x1FBD JUMPI DUP1 PUSH1 0x1F LT PUSH2 0x1F92 JUMPI PUSH2 0x100 DUP1 DUP4 SLOAD DIV MUL DUP4 MSTORE SWAP2 PUSH1 0x20 ADD SWAP2 PUSH2 0x1FBD JUMP JUMPDEST DUP3 ADD SWAP2 SWAP1 PUSH1 0x0 MSTORE PUSH1 0x20 PUSH1 0x0 KECCAK256 SWAP1 JUMPDEST DUP2 SLOAD DUP2 MSTORE SWAP1 PUSH1 0x1 ADD SWAP1 PUSH1 0x20 ADD DUP1 DUP4 GT PUSH2 0x1FA0 JUMPI DUP3 SWAP1 SUB PUSH1 0x1F AND DUP3 ADD SWAP2 JUMPDEST POP POP POP POP POP SWAP1 DUP1 PUSH1 0x3 ADD SLOAD SWAP1 DUP1 PUSH1 0x4 ADD SLOAD SWAP1 DUP1 PUSH1 0x5 ADD SLOAD SWAP1 DUP1 PUSH1 0x6 ADD DUP1 SLOAD PUSH2 0x1FE4 SWAP1 PUSH2 0x4190 JUMP JUMPDEST DUP1 PUSH1 0x1F ADD PUSH1 0x20 DUP1 SWAP2 DIV MUL PUSH1 0x20 ADD PUSH1 0x40 MLOAD SWAP1 DUP2 ADD PUSH1 0x40 MSTORE DUP1 SWAP3 SWAP2 SWAP1 DUP2 DUP2 MSTORE PUSH1 0x20 ADD DUP3 DUP1 SLOAD PUSH2 0x2010 SWAP1 PUSH2 0x4190 JUMP JUMPDEST DUP1 ISZERO PUSH2 0x205D JUMPI DUP1 PUSH1 0x1F LT PUSH2 0x2032 JUMPI PUSH2 0x100 DUP1 DUP4 SLOAD DIV MUL DUP4 MSTORE SWAP2 PUSH1 0x20 ADD SWAP2 PUSH2 0x205D JUMP JUMPDEST DUP3 ADD SWAP2 SWAP1 PUSH1 0x0 MSTORE PUSH1 0x20 PUSH1 0x0 KECCAK256 SWAP1 JUMPDEST DUP2 SLOAD DUP2 MSTORE SWAP1 PUSH1 0x1 ADD SWAP1 PUSH1 0x20 ADD DUP1 DUP4 GT PUSH2 0x2040 JUMPI DUP3 SWAP1 SUB PUSH1 0x1F AND DUP3 ADD SWAP2 JUMPDEST POP POP POP POP POP SWAP1 DUP1 PUSH1 0x7 ADD DUP1 SLOAD PUSH2 0x2072 SWAP1 PUSH2 0x4190 JUMP JUMPDEST DUP1 PUSH1 0x1F ADD PUSH1 0x20 DUP1 SWAP2 DIV MUL PUSH1 0x20 ADD PUSH1 0x40 MLOAD SWAP1 DUP2 ADD PUSH1 0x40 MSTORE DUP1 SWAP3 SWAP2 SWAP1 DUP2 DUP2 MSTORE PUSH1 0x20 ADD DUP3 DUP1 SLOAD PUSH2 0x209E SWAP1 PUSH2 0x4190 JUMP JUMPDEST DUP1 ISZERO PUSH2 0x20EB JUMPI DUP1 PUSH1 0x1F LT PUSH2 0x20C0 JUMPI PUSH2 0x100 DUP1 DUP4 SLOAD DIV MUL DUP4 MSTORE SWAP2 PUSH1 0x20 ADD SWAP2 PUSH2 0x20EB JUMP JUMPDEST DUP3 ADD SWAP2 SWAP1 PUSH1 0x0 MSTORE PUSH1 0x20 PUSH1 0x0 KECCAK256 SWAP1 JUMPDEST DUP2 SLOAD DUP2 MSTORE SWAP1 PUSH1 0x1 ADD SWAP1 PUSH1 0x20 ADD DUP1 DUP4 GT PUSH2 0x20CE JUMPI DUP3 SWAP1 SUB PUSH1 0x1F AND DUP3 ADD SWAP2 JUMPDEST POP POP POP POP POP SWAP1 DUP1 PUSH1 0x8 ADD DUP1 SLOAD PUSH2 0x2100 SWAP1 PUSH2 0x4190 JUMP JUMPDEST DUP1 PUSH1 0x1F ADD PUSH1 0x20 DUP1 SWAP2 DIV MUL PUSH1 0x20 ADD PUSH1 0x40 MLOAD SWAP1 DUP2 ADD PUSH1 0x40 MSTORE DUP1 SWAP3 SWAP2 SWAP1 DUP2 DUP2 MSTORE PUSH1 0x20 ADD DUP3 DUP1 SLOAD PUSH2 0x212C SWAP1 PUSH2 0x4190 JUMP JUMPDEST DUP1 ISZERO PUSH2 0x2179 JUMPI DUP1 PUSH1 0x1F LT PUSH2 0x214E JUMPI PUSH2 0x100 DUP1 DUP4 SLOAD DIV MUL DUP4 MSTORE SWAP2 PUSH1 0x20 ADD SWAP2 PUSH2 0x2179 JUMP JUMPDEST DUP3 ADD SWAP2 SWAP1 PUSH1 0x0 MSTORE PUSH1 0x20 PUSH1 0x0 KECCAK256 SWAP1 JUMPDEST DUP2 SLOAD DUP2 MSTORE SWAP1 PUSH1 0x1 ADD SWAP1 PUSH1 0x20 ADD DUP1 DUP4 GT PUSH2 0x215C JUMPI DUP3 SWAP1 SUB PUSH1 0x1F AND DUP3 ADD SWAP2 JUMPDEST POP POP POP POP POP SWAP1 DUP1 PUSH1 0x9 ADD DUP1 SLOAD PUSH2 0x218E SWAP1 PUSH2 0x4190 JUMP JUMPDEST DUP1 PUSH1 0x1F ADD PUSH1 0x20 DUP1 SWAP2 DIV MUL PUSH1 0x20 ADD PUSH1 0x40 MLOAD SWAP1 DUP2 ADD PUSH1 0x40 MSTORE DUP1 SWAP3 SWAP2 SWAP1 DUP2 DUP2 MSTORE PUSH1 0x20 ADD DUP3 DUP1 SLOAD PUSH2 0x21BA SWAP1 PUSH2 0x4190 JUMP JUMPDEST DUP1 ISZERO PUSH2 0x2207 JUMPI DUP1 PUSH1 0x1F LT PUSH2 0x21DC JUMPI PUSH2 0x100 DUP1 DUP4 SLOAD DIV MUL DUP4 MSTORE SWAP2 PUSH1 0x20 ADD SWAP2 PUSH2 0x2207 JUMP JUMPDEST DUP3 ADD SWAP2 SWAP1 PUSH1 0x0 MSTORE PUSH1 0x20 PUSH1 0x0 KECCAK256 SWAP1 JUMPDEST DUP2 SLOAD DUP2 MSTORE SWAP1 PUSH1 0x1 ADD SWAP1 PUSH1 0x20 ADD DUP1 DUP4 GT PUSH2 0x21EA JUMPI DUP3 SWAP1 SUB PUSH1 0x1F AND DUP3 ADD SWAP2 JUMPDEST POP POP POP POP POP SWAP1 DUP1 PUSH1 0xA ADD DUP1 SLOAD PUSH2 0x221C SWAP1 PUSH2 0x4190 JUMP JUMPDEST DUP1 PUSH1 0x1F ADD PUSH1 0x20 DUP1 SWAP2 DIV MUL PUSH1 0x20 ADD PUSH1 0x40 MLOAD SWAP1 DUP2 ADD PUSH1 0x40 MSTORE DUP1 SWAP3 SWAP2 SWAP1 DUP2 DUP2 MSTORE PUSH1 0x20 ADD DUP3 DUP1 SLOAD PUSH2 0x2248 SWAP1 PUSH2 0x4190 JUMP JUMPDEST DUP1 ISZERO PUSH2 0x2295 JUMPI DUP1 PUSH1 0x1F LT PUSH2 0x226A JUMPI PUSH2 0x100 DUP1 DUP4 SLOAD DIV MUL DUP4 MSTORE SWAP2 PUSH1 0x20 ADD SWAP2 PUSH2 0x2295 JUMP JUMPDEST DUP3 ADD SWAP2 SWAP1 PUSH1 0x0 MSTORE PUSH1 0x20 PUSH1 0x0 KECCAK256 SWAP1 JUMPDEST DUP2 SLOAD DUP2 MSTORE SWAP1 PUSH1 0x1 ADD SWAP1 PUSH1 0x20 ADD DUP1 DUP4 GT PUSH2 0x2278 JUMPI DUP3 SWAP1 SUB PUSH1 0x1F AND DUP3 ADD SWAP2 JUMPDEST POP POP POP POP POP SWAP1 DUP1 PUSH1 0xB ADD DUP1 SLOAD PUSH2 0x22AA SWAP1 PUSH2 0x4190 JUMP JUMPDEST DUP1 PUSH1 0x1F ADD PUSH1 0x20 DUP1 SWAP2 DIV MUL PUSH1 0x20 ADD PUSH1 0x40 MLOAD SWAP1 DUP2 ADD PUSH1 0x40 MSTORE DUP1 SWAP3 SWAP2 SWAP1 DUP2 DUP2 MSTORE PUSH1 0x20 ADD DUP3 DUP1 SLOAD PUSH2 0x22D6 SWAP1 PUSH2 0x4190 JUMP JUMPDEST DUP1 ISZERO PUSH2 0x2323 JUMPI DUP1 PUSH1 0x1F LT PUSH2 0x22F8 JUMPI PUSH2 0x100 DUP1 DUP4 SLOAD DIV MUL DUP4 MSTORE SWAP2 PUSH1 0x20 ADD SWAP2 PUSH2 0x2323 JUMP JUMPDEST DUP3 ADD SWAP2 SWAP1 PUSH1 0x0 MSTORE PUSH1 0x20 PUSH1 0x0 KECCAK256 SWAP1 JUMPDEST DUP2 SLOAD DUP2 MSTORE SWAP1 PUSH1 0x1 ADD SWAP1 PUSH1 0x20 ADD DUP1 DUP4 GT PUSH2 0x2306 JUMPI DUP3 SWAP1 SUB PUSH1 0x1F AND DUP3 ADD SWAP2 JUMPDEST POP POP POP POP POP SWAP1 POP DUP13 JUMP JUMPDEST PUSH1 0x60 PUSH2 0x233A PUSH1 0x1 SLOAD PUSH2 0x30EA JUMP JUMPDEST PUSH1 0x40 MLOAD PUSH1 0x20 ADD PUSH2 0x234A SWAP2 SWAP1 PUSH2 0x476C JUMP JUMPDEST PUSH1 0x40 MLOAD PUSH1 0x20 DUP2 DUP4 SUB SUB DUP2 MSTORE SWAP1 PUSH1 0x40 MSTORE SWAP1 POP SWAP1 JUMP JUMPDEST PUSH1 0x3 DUP2 DUP1 MLOAD PUSH1 0x20 DUP2 ADD DUP3 ADD DUP1 MLOAD DUP5 DUP3 MSTORE PUSH1 0x20 DUP4 ADD PUSH1 0x20 DUP6 ADD KECCAK256 DUP2 DUP4 MSTORE DUP1 SWAP6 POP POP POP POP POP POP PUSH1 0x0 SWAP2 POP SWAP1 POP DUP1 PUSH1 0x0 ADD DUP1 SLOAD PUSH2 0x2397 SWAP1 PUSH2 0x4190 JUMP JUMPDEST DUP1 PUSH1 0x1F ADD PUSH1 0x20 DUP1 SWAP2 DIV MUL PUSH1 0x20 ADD PUSH1 0x40 MLOAD SWAP1 DUP2 ADD PUSH1 0x40 MSTORE DUP1 SWAP3 SWAP2 SWAP1 DUP2 DUP2 MSTORE PUSH1 0x20 ADD DUP3 DUP1 SLOAD PUSH2 0x23C3 SWAP1 PUSH2 0x4190 JUMP JUMPDEST DUP1 ISZERO PUSH2 0x2410 JUMPI DUP1 PUSH1 0x1F LT PUSH2 0x23E5 JUMPI PUSH2 0x100 DUP1 DUP4 SLOAD DIV MUL DUP4 MSTORE SWAP2 PUSH1 0x20 ADD SWAP2 PUSH2 0x2410 JUMP JUMPDEST DUP3 ADD SWAP2 SWAP1 PUSH1 0x0 MSTORE PUSH1 0x20 PUSH1 0x0 KECCAK256 SWAP1 JUMPDEST DUP2 SLOAD DUP2 MSTORE SWAP1 PUSH1 0x1 ADD SWAP1 PUSH1 0x20 ADD DUP1 DUP4 GT PUSH2 0x23F3 JUMPI DUP3 SWAP1 SUB PUSH1 0x1F AND DUP3 ADD SWAP2 JUMPDEST POP POP POP POP POP SWAP1 DUP1 PUSH1 0x1 ADD DUP1 SLOAD PUSH2 0x2425 SWAP1 PUSH2 0x4190 JUMP JUMPDEST DUP1 PUSH1 0x1F ADD PUSH1 0x20 DUP1 SWAP2 DIV MUL PUSH1 0x20 ADD PUSH1 0x40 MLOAD SWAP1 DUP2 ADD PUSH1 0x40 MSTORE DUP1 SWAP3 SWAP2 SWAP1 DUP2 DUP2 MSTORE PUSH1 0x20 ADD DUP3 DUP1 SLOAD PUSH2 0x2451 SWAP1 PUSH2 0x4190 JUMP JUMPDEST DUP1 ISZERO PUSH2 0x249E JUMPI DUP1 PUSH1 0x1F LT PUSH2 0x2473 JUMPI PUSH2 0x100 DUP1 DUP4 SLOAD DIV MUL DUP4 MSTORE SWAP2 PUSH1 0x20 ADD SWAP2 PUSH2 0x249E JUMP JUMPDEST DUP3 ADD SWAP2 SWAP1 PUSH1 0x0 MSTORE PUSH1 0x20 PUSH1 0x0 KECCAK256 SWAP1 JUMPDEST DUP2 SLOAD DUP2 MSTORE SWAP1 PUSH1 0x1 ADD SWAP1 PUSH1 0x20 ADD DUP1 DUP4 GT PUSH2 0x2481 JUMPI DUP3 SWAP1 SUB PUSH1 0x1F AND DUP3 ADD SWAP2 JUMPDEST POP POP POP POP POP SWAP1 DUP1 PUSH1 0x2 ADD DUP1 SLOAD PUSH2 0x24B3 SWAP1 PUSH2 0x4190 JUMP JUMPDEST DUP1 PUSH1 0x1F ADD PUSH1 0x20 DUP1 SWAP2 DIV MUL PUSH1 0x20 ADD PUSH1 0x40 MLOAD SWAP1 DUP2 ADD PUSH1 0x40 MSTORE DUP1 SWAP3 SWAP2 SWAP1 DUP2 DUP2 MSTORE PUSH1 0x20 ADD DUP3 DUP1 SLOAD PUSH2 0x24DF SWAP1 PUSH2 0x4190 JUMP JUMPDEST DUP1 ISZERO PUSH2 0x252C JUMPI DUP1 PUSH1 0x1F LT PUSH2 0x2501 JUMPI PUSH2 0x100 DUP1 DUP4 SLOAD DIV MUL DUP4 MSTORE SWAP2 PUSH1 0x20 ADD SWAP2 PUSH2 0x252C JUMP JUMPDEST DUP3 ADD SWAP2 SWAP1 PUSH1 0x0 MSTORE PUSH1 0x20 PUSH1 0x0 KECCAK256 SWAP1 JUMPDEST DUP2 SLOAD DUP2 MSTORE SWAP1 PUSH1 0x1 ADD SWAP1 PUSH1 0x20 ADD DUP1 DUP4 GT PUSH2 0x250F JUMPI DUP3 SWAP1 SUB PUSH1 0x1F AND DUP3 ADD SWAP2 JUMPDEST POP POP POP POP POP SWAP1 DUP1 PUSH1 0x3 ADD SLOAD SWAP1 DUP1 PUSH1 0x4 ADD SLOAD SWAP1 DUP1 PUSH1 0x5 ADD SLOAD SWAP1 DUP1 PUSH1 0x6 ADD DUP1 SLOAD PUSH2 0x2553 SWAP1 PUSH2 0x4190 JUMP JUMPDEST DUP1 PUSH1 0x1F ADD PUSH1 0x20 DUP1 SWAP2 DIV MUL PUSH1 0x20 ADD PUSH1 0x40 MLOAD SWAP1 DUP2 ADD PUSH1 0x40 MSTORE DUP1 SWAP3 SWAP2 SWAP1 DUP2 DUP2 MSTORE PUSH1 0x20 ADD DUP3 DUP1 SLOAD PUSH2 0x257F SWAP1 PUSH2 0x4190 JUMP JUMPDEST DUP1 ISZERO PUSH2 0x25CC JUMPI DUP1 PUSH1 0x1F LT PUSH2 0x25A1 JUMPI PUSH2 0x100 DUP1 DUP4 SLOAD DIV MUL DUP4 MSTORE SWAP2 PUSH1 0x20 ADD SWAP2 PUSH2 0x25CC JUMP JUMPDEST DUP3 ADD SWAP2 SWAP1 PUSH1 0x0 MSTORE PUSH1 0x20 PUSH1 0x0 KECCAK256 SWAP1 JUMPDEST DUP2 SLOAD DUP2 MSTORE SWAP1 PUSH1 0x1 ADD SWAP1 PUSH1 0x20 ADD DUP1 DUP4 GT PUSH2 0x25AF JUMPI DUP3 SWAP1 SUB PUSH1 0x1F AND DUP3 ADD SWAP2 JUMPDEST POP POP POP POP POP SWAP1 DUP1 PUSH1 0x7 ADD DUP1 SLOAD PUSH2 0x25E1 SWAP1 PUSH2 0x4190 JUMP JUMPDEST DUP1 PUSH1 0x1F ADD PUSH1 0x20 DUP1 SWAP2 DIV MUL PUSH1 0x20 ADD PUSH1 0x40 MLOAD SWAP1 DUP2 ADD PUSH1 0x40 MSTORE DUP1 SWAP3 SWAP2 SWAP1 DUP2 DUP2 MSTORE PUSH1 0x20 ADD DUP3 DUP1 SLOAD PUSH2 0x260D SWAP1 PUSH2 0x4190 JUMP JUMPDEST DUP1 ISZERO PUSH2 0x265A JUMPI DUP1 PUSH1 0x1F LT PUSH2 0x262F JUMPI PUSH2 0x100 DUP1 DUP4 SLOAD DIV MUL DUP4 MSTORE SWAP2 PUSH1 0x20 ADD SWAP2 PUSH2 0x265A JUMP JUMPDEST DUP3 ADD SWAP2 SWAP1 PUSH1 0x0 MSTORE PUSH1 0x20 PUSH1 0x0 KECCAK256 SWAP1 JUMPDEST DUP2 SLOAD DUP2 MSTORE SWAP1 PUSH1 0x1 ADD SWAP1 PUSH1 0x20 ADD DUP1 DUP4 GT PUSH2 0x263D JUMPI DUP3 SWAP1 SUB PUSH1 0x1F AND DUP3 ADD SWAP2 JUMPDEST POP POP POP POP POP SWAP1 DUP1 PUSH1 0x8 ADD DUP1 SLOAD PUSH2 0x266F SWAP1 PUSH2 0x4190 JUMP JUMPDEST DUP1 PUSH1 0x1F ADD PUSH1 0x20 DUP1 SWAP2 DIV MUL PUSH1 0x20 ADD PUSH1 0x40 MLOAD SWAP1 DUP2 ADD PUSH1 0x40 MSTORE DUP1 SWAP3 SWAP2 SWAP1 DUP2 DUP2 MSTORE PUSH1 0x20 ADD DUP3 DUP1 SLOAD PUSH2 0x269B SWAP1 PUSH2 0x4190 JUMP JUMPDEST DUP1 ISZERO PUSH2 0x26E8 JUMPI DUP1 PUSH1 0x1F LT PUSH2 0x26BD JUMPI PUSH2 0x100 DUP1 DUP4 SLOAD DIV MUL DUP4 MSTORE SWAP2 PUSH1 0x20 ADD SWAP2 PUSH2 0x26E8 JUMP JUMPDEST DUP3 ADD SWAP2 SWAP1 PUSH1 0x0 MSTORE PUSH1 0x20 PUSH1 0x0 KECCAK256 SWAP1 JUMPDEST DUP2 SLOAD DUP2 MSTORE SWAP1 PUSH1 0x1 ADD SWAP1 PUSH1 0x20 ADD DUP1 DUP4 GT PUSH2 0x26CB JUMPI DUP3 SWAP1 SUB PUSH1 0x1F AND DUP3 ADD SWAP2 JUMPDEST POP POP POP POP POP SWAP1 DUP1 PUSH1 0x9 ADD DUP1 SLOAD PUSH2 0x26FD SWAP1 PUSH2 0x4190 JUMP JUMPDEST DUP1 PUSH1 0x1F ADD PUSH1 0x20 DUP1 SWAP2 DIV MUL PUSH1 0x20 ADD PUSH1 0x40 MLOAD SWAP1 DUP2 ADD PUSH1 0x40 MSTORE DUP1 SWAP3 SWAP2 SWAP1 DUP2 DUP2 MSTORE PUSH1 0x20 ADD DUP3 DUP1 SLOAD PUSH2 0x2729 SWAP1 PUSH2 0x4190 JUMP JUMPDEST DUP1 ISZERO PUSH2 0x2776 JUMPI DUP1 PUSH1 0x1F LT PUSH2 0x274B JUMPI PUSH2 0x100 DUP1 DUP4 SLOAD DIV MUL DUP4 MSTORE SWAP2 PUSH1 0x20 ADD SWAP2 PUSH2 0x2776 JUMP JUMPDEST DUP3 ADD SWAP2 SWAP1 PUSH1 0x0 MSTORE PUSH1 0x20 PUSH1 0x0 KECCAK256 SWAP1 JUMPDEST DUP2 SLOAD DUP2 MSTORE SWAP1 PUSH1 0x1 ADD SWAP1 PUSH1 0x20 ADD DUP1 DUP4 GT PUSH2 0x2759 JUMPI DUP3 SWAP1 SUB PUSH1 0x1F AND DUP3 ADD SWAP2 JUMPDEST POP POP POP POP POP SWAP1 DUP1 PUSH1 0xA ADD DUP1 SLOAD PUSH2 0x278B SWAP1 PUSH2 0x4190 JUMP JUMPDEST DUP1 PUSH1 0x1F ADD PUSH1 0x20 DUP1 SWAP2 DIV MUL PUSH1 0x20 ADD PUSH1 0x40 MLOAD SWAP1 DUP2 ADD PUSH1 0x40 MSTORE DUP1 SWAP3 SWAP2 SWAP1 DUP2 DUP2 MSTORE PUSH1 0x20 ADD DUP3 DUP1 SLOAD PUSH2 0x27B7 SWAP1 PUSH2 0x4190 JUMP JUMPDEST DUP1 ISZERO PUSH2 0x2804 JUMPI DUP1 PUSH1 0x1F LT PUSH2 0x27D9 JUMPI PUSH2 0x100 DUP1 DUP4 SLOAD DIV MUL DUP4 MSTORE SWAP2 PUSH1 0x20 ADD SWAP2 PUSH2 0x2804 JUMP JUMPDEST DUP3 ADD SWAP2 SWAP1 PUSH1 0x0 MSTORE PUSH1 0x20 PUSH1 0x0 KECCAK256 SWAP1 JUMPDEST DUP2 SLOAD DUP2 MSTORE SWAP1 PUSH1 0x1 ADD SWAP1 PUSH1 0x20 ADD DUP1 DUP4 GT PUSH2 0x27E7 JUMPI DUP3 SWAP1 SUB PUSH1 0x1F AND DUP3 ADD SWAP2 JUMPDEST POP POP POP POP POP SWAP1 DUP1 PUSH1 0xB ADD DUP1 SLOAD PUSH2 0x2819 SWAP1 PUSH2 0x4190 JUMP JUMPDEST DUP1 PUSH1 0x1F ADD PUSH1 0x20 DUP1 SWAP2 DIV MUL PUSH1 0x20 ADD PUSH1 0x40 MLOAD SWAP1 DUP2 ADD PUSH1 0x40 MSTORE DUP1 SWAP3 SWAP2 SWAP1 DUP2 DUP2 MSTORE PUSH1 0x20 ADD DUP3 DUP1 SLOAD PUSH2 0x2845 SWAP1 PUSH2 0x4190 JUMP JUMPDEST DUP1 ISZERO PUSH2 0x2892 JUMPI DUP1 PUSH1 0x1F LT PUSH2 0x2867 JUMPI PUSH2 0x100 DUP1 DUP4 SLOAD DIV MUL DUP4 MSTORE SWAP2 PUSH1 0x20 ADD SWAP2 PUSH2 0x2892 JUMP JUMPDEST DUP3 ADD SWAP2 SWAP1 PUSH1 0x0 MSTORE PUSH1 0x20 PUSH1 0x0 KECCAK256 SWAP1 JUMPDEST DUP2 SLOAD DUP2 MSTORE SWAP1 PUSH1 0x1 ADD SWAP1 PUSH1 0x20 ADD DUP1 DUP4 GT PUSH2 0x2875 JUMPI DUP3 SWAP1 SUB PUSH1 0x1F AND DUP3 ADD SWAP2 JUMPDEST POP POP POP POP POP SWAP1 POP DUP13 JUMP JUMPDEST PUSH2 0x28A4 PUSH2 0x31C2 JUMP JUMPDEST PUSH1 0x0 PUSH20 0xFFFFFFFFFFFFFFFFFFFFFFFFFFFFFFFFFFFFFFFF AND DUP2 PUSH20 0xFFFFFFFFFFFFFFFFFFFFFFFFFFFFFFFFFFFFFFFF AND EQ ISZERO PUSH2 0x2914 JUMPI PUSH1 0x40 MLOAD PUSH32 0x8C379A000000000000000000000000000000000000000000000000000000000 DUP2 MSTORE PUSH1 0x4 ADD PUSH2 0x290B SWAP1 PUSH2 0x4AC4 JUMP JUMPDEST PUSH1 0x40 MLOAD DUP1 SWAP2 SUB SWAP1 REVERT JUMPDEST PUSH2 0x291D DUP2 PUSH2 0x3240 JUMP JUMPDEST POP JUMP JUMPDEST PUSH1 0x40 MLOAD PUSH1 0x20 ADD PUSH2 0x292F SWAP1 PUSH2 0x4B30 JUMP JUMPDEST PUSH1 0x40 MLOAD PUSH1 0x20 DUP2 DUP4 SUB SUB DUP2 MSTORE SWAP1 PUSH1 0x40 MSTORE DUP1 MLOAD SWAP1 PUSH1 0x20 ADD KECCAK256 PUSH1 0x5 PUSH1 0x0 CALLER PUSH20 0xFFFFFFFFFFFFFFFFFFFFFFFFFFFFFFFFFFFFFFFF AND PUSH20 0xFFFFFFFFFFFFFFFFFFFFFFFFFFFFFFFFFFFFFFFF AND DUP2 MSTORE PUSH1 0x20 ADD SWAP1 DUP2 MSTORE PUSH1 0x20 ADD PUSH1 0x0 KECCAK256 PUSH1 0x40 MLOAD PUSH1 0x20 ADD PUSH2 0x2994 SWAP2 SWAP1 PUSH2 0x4291 JUMP JUMPDEST PUSH1 0x40 MLOAD PUSH1 0x20 DUP2 DUP4 SUB SUB DUP2 MSTORE SWAP1 PUSH1 0x40 MSTORE DUP1 MLOAD SWAP1 PUSH1 0x20 ADD KECCAK256 EQ PUSH2 0x29EA JUMPI PUSH1 0x40 MLOAD PUSH32 0x8C379A000000000000000000000000000000000000000000000000000000000 DUP2 MSTORE PUSH1 0x4 ADD PUSH2 0x29E1 SWAP1 PUSH2 0x4B91 JUMP JUMPDEST PUSH1 0x40 MLOAD DUP1 SWAP2 SUB SWAP1 REVERT JUMPDEST PUSH1 0x0 PUSH2 0x29F7 PUSH1 0x1 SLOAD PUSH2 0x30EA JUMP JUMPDEST PUSH1 0x40 MLOAD PUSH1 0x20 ADD PUSH2 0x2A07 SWAP2 SWAP1 PUSH2 0x476C JUMP JUMPDEST PUSH1 0x40 MLOAD PUSH1 0x20 DUP2 DUP4 SUB SUB DUP2 MSTORE SWAP1 PUSH1 0x40 MSTORE SWAP1 POP PUSH1 0x0 PUSH1 0x40 MLOAD DUP1 PUSH2 0x180 ADD PUSH1 0x40 MSTORE DUP1 DUP4 DUP2 MSTORE PUSH1 0x20 ADD PUSH2 0x2A37 PUSH1 0x1 SLOAD PUSH2 0x30EA JUMP JUMPDEST PUSH1 0x40 MLOAD PUSH1 0x20 ADD PUSH2 0x2A47 SWAP2 SWAP1 PUSH2 0x4BD7 JUMP JUMPDEST PUSH1 0x40 MLOAD PUSH1 0x20 DUP2 DUP4 SUB SUB DUP2 MSTORE SWAP1 PUSH1 0x40 MSTORE DUP2 MSTORE PUSH1 0x20 ADD DUP8 DUP2 MSTORE PUSH1 0x20 ADD DUP7 DUP2 MSTORE PUSH1 0x20 ADD DUP6 DUP2 MSTORE PUSH1 0x20 ADD PUSH1 0x0 DUP2 MSTORE PUSH1 0x20 ADD DUP5 DUP2 MSTORE PUSH1 0x20 ADD PUSH1 0x40 MLOAD DUP1 PUSH1 0x20 ADD PUSH1 0x40 MSTORE DUP1 PUSH1 0x0 DUP2 MSTORE POP DUP2 MSTORE PUSH1 0x20 ADD PUSH1 0x40 MLOAD DUP1 PUSH1 0x20 ADD PUSH1 0x40 MSTORE DUP1 PUSH1 0x0 DUP2 MSTORE POP DUP2 MSTORE PUSH1 0x20 ADD PUSH1 0x40 MLOAD DUP1 PUSH1 0x20 ADD PUSH1 0x40 MSTORE DUP1 PUSH1 0x0 DUP2 MSTORE POP DUP2 MSTORE PUSH1 0x20 ADD PUSH1 0x40 MLOAD DUP1 PUSH1 0x20 ADD PUSH1 0x40 MSTORE DUP1 PUSH1 0x0 DUP2 MSTORE POP DUP2 MSTORE PUSH1 0x20 ADD PUSH1 0x40 MLOAD DUP1 PUSH1 0x20 ADD PUSH1 0x40 MSTORE DUP1 PUSH1 0x0 DUP2 MSTORE POP DUP2 MSTORE POP SWAP1 POP PUSH1 0x4 DUP2 SWAP1 DUP1 PUSH1 0x1 DUP2 SLOAD ADD DUP1 DUP3 SSTORE DUP1 SWAP2 POP POP PUSH1 0x1 SWAP1 SUB SWAP1 PUSH1 0x0 MSTORE PUSH1 0x20 PUSH1 0x0 KECCAK256 SWAP1 PUSH1 0xC MUL ADD PUSH1 0x0 SWAP1 SWAP2 SWAP1 SWAP2 SWAP1 SWAP2 POP PUSH1 0x0 DUP3 ADD MLOAD DUP2 PUSH1 0x0 ADD SWAP1 DUP1 MLOAD SWAP1 PUSH1 0x20 ADD SWAP1 PUSH2 0x2B2B SWAP3 SWAP2 SWAP1 PUSH2 0x3546 JUMP JUMPDEST POP PUSH1 0x20 DUP3 ADD MLOAD DUP2 PUSH1 0x1 ADD SWAP1 DUP1 MLOAD SWAP1 PUSH1 0x20 ADD SWAP1 PUSH2 0x2B48 SWAP3 SWAP2 SWAP1 PUSH2 0x3546 JUMP JUMPDEST POP PUSH1 0x40 DUP3 ADD MLOAD DUP2 PUSH1 0x2 ADD SWAP1 DUP1 MLOAD SWAP1 PUSH1 0x20 ADD SWAP1 PUSH2 0x2B65 SWAP3 SWAP2 SWAP1 PUSH2 0x3546 JUMP JUMPDEST POP PUSH1 0x60 DUP3 ADD MLOAD DUP2 PUSH1 0x3 ADD SSTORE PUSH1 0x80 DUP3 ADD MLOAD DUP2 PUSH1 0x4 ADD SSTORE PUSH1 0xA0 DUP3 ADD MLOAD DUP2 PUSH1 0x5 ADD SSTORE PUSH1 0xC0 DUP3 ADD MLOAD DUP2 PUSH1 0x6 ADD SWAP1 DUP1 MLOAD SWAP1 PUSH1 0x20 ADD SWAP1 PUSH2 0x2BA0 SWAP3 SWAP2 SWAP1 PUSH2 0x3546 JUMP JUMPDEST POP PUSH1 0xE0 DUP3 ADD MLOAD DUP2 PUSH1 0x7 ADD SWAP1 DUP1 MLOAD SWAP1 PUSH1 0x20 ADD SWAP1 PUSH2 0x2BBD SWAP3 SWAP2 SWAP1 PUSH2 0x3546 JUMP JUMPDEST POP PUSH2 0x100 DUP3 ADD MLOAD DUP2 PUSH1 0x8 ADD SWAP1 DUP1 MLOAD SWAP1 PUSH1 0x20 ADD SWAP1 PUSH2 0x2BDB SWAP3 SWAP2 SWAP1 PUSH2 0x3546 JUMP JUMPDEST POP PUSH2 0x120 DUP3 ADD MLOAD DUP2 PUSH1 0x9 ADD SWAP1 DUP1 MLOAD SWAP1 PUSH1 0x20 ADD SWAP1 PUSH2 0x2BF9 SWAP3 SWAP2 SWAP1 PUSH2 0x3546 JUMP JUMPDEST POP PUSH2 0x140 DUP3 ADD MLOAD DUP2 PUSH1 0xA ADD SWAP1 DUP1 MLOAD SWAP1 PUSH1 0x20 ADD SWAP1 PUSH2 0x2C17 SWAP3 SWAP2 SWAP1 PUSH2 0x3546 JUMP JUMPDEST POP PUSH2 0x160 DUP3 ADD MLOAD DUP2 PUSH1 0xB ADD SWAP1 DUP1 MLOAD SWAP1 PUSH1 0x20 ADD SWAP1 PUSH2 0x2C35 SWAP3 SWAP2 SWAP1 PUSH2 0x3546 JUMP JUMPDEST POP POP POP DUP1 PUSH1 0x3 DUP4 PUSH1 0x40 MLOAD PUSH2 0x2C49 SWAP2 SWAP1 PUSH2 0x414A JUMP JUMPDEST SWAP1 DUP2 MSTORE PUSH1 0x20 ADD PUSH1 0x40 MLOAD DUP1 SWAP2 SUB SWAP1 KECCAK256 PUSH1 0x0 DUP3 ADD MLOAD DUP2 PUSH1 0x0 ADD SWAP1 DUP1 MLOAD SWAP1 PUSH1 0x20 ADD SWAP1 PUSH2 0x2C73 SWAP3 SWAP2 SWAP1 PUSH2 0x3546 JUMP JUMPDEST POP PUSH1 0x20 DUP3 ADD MLOAD DUP2 PUSH1 0x1 ADD SWAP1 DUP1 MLOAD SWAP1 PUSH1 0x20 ADD SWAP1 PUSH2 0x2C90 SWAP3 SWAP2 SWAP1 PUSH2 0x3546 JUMP JUMPDEST POP PUSH1 0x40 DUP3 ADD MLOAD DUP2 PUSH1 0x2 ADD SWAP1 DUP1 MLOAD SWAP1 PUSH1 0x20 ADD SWAP1 PUSH2 0x2CAD SWAP3 SWAP2 SWAP1 PUSH2 0x3546 JUMP JUMPDEST POP PUSH1 0x60 DUP3 ADD MLOAD DUP2 PUSH1 0x3 ADD SSTORE PUSH1 0x80 DUP3 ADD MLOAD DUP2 PUSH1 0x4 ADD SSTORE PUSH1 0xA0 DUP3 ADD MLOAD DUP2 PUSH1 0x5 ADD SSTORE PUSH1 0xC0 DUP3 ADD MLOAD DUP2 PUSH1 0x6 ADD SWAP1 DUP1 MLOAD SWAP1 PUSH1 0x20 ADD SWAP1 PUSH2 0x2CE8 SWAP3 SWAP2 SWAP1 PUSH2 0x3546 JUMP JUMPDEST POP PUSH1 0xE0 DUP3 ADD MLOAD DUP2 PUSH1 0x7 ADD SWAP1 DUP1 MLOAD SWAP1 PUSH1 0x20 ADD SWAP1 PUSH2 0x2D05 SWAP3 SWAP2 SWAP1 PUSH2 0x3546 JUMP JUMPDEST POP PUSH2 0x100 DUP3 ADD MLOAD DUP2 PUSH1 0x8 ADD SWAP1 DUP1 MLOAD SWAP1 PUSH1 0x20 ADD SWAP1 PUSH2 0x2D23 SWAP3 SWAP2 SWAP1 PUSH2 0x3546 JUMP JUMPDEST POP PUSH2 0x120 DUP3 ADD MLOAD DUP2 PUSH1 0x9 ADD SWAP1 DUP1 MLOAD SWAP1 PUSH1 0x20 ADD SWAP1 PUSH2 0x2D41 SWAP3 SWAP2 SWAP1 PUSH2 0x3546 JUMP JUMPDEST POP PUSH2 0x140 DUP3 ADD MLOAD DUP2 PUSH1 0xA ADD SWAP1 DUP1 MLOAD SWAP1 PUSH1 0x20 ADD SWAP1 PUSH2 0x2D5F SWAP3 SWAP2 SWAP1 PUSH2 0x3546 JUMP JUMPDEST POP PUSH2 0x160 DUP3 ADD MLOAD DUP2 PUSH1 0xB ADD SWAP1 DUP1 MLOAD SWAP1 PUSH1 0x20 ADD SWAP1 PUSH2 0x2D7D SWAP3 SWAP2 SWAP1 PUSH2 0x3546 JUMP JUMPDEST POP SWAP1 POP POP PUSH1 0x1 DUP1 PUSH1 0x0 DUP3 DUP3 SLOAD PUSH2 0x2D93 SWAP2 SWAP1 PUSH2 0x4792 JUMP JUMPDEST SWAP3 POP POP DUP2 SWAP1 SSTORE POP PUSH32 0x1B21032942411443543E7923F2DA271066AD99511AA6FFCDA3BB43030B9157D4 DUP3 PUSH1 0x40 MLOAD PUSH2 0x2DC9 SWAP2 SWAP1 PUSH2 0x3E9A JUMP JUMPDEST PUSH1 0x40 MLOAD DUP1 SWAP2 SUB SWAP1 LOG1 POP POP POP POP POP POP JUMP JUMPDEST PUSH1 0x60 PUSH1 0x5 PUSH1 0x0 CALLER PUSH20 0xFFFFFFFFFFFFFFFFFFFFFFFFFFFFFFFFFFFFFFFF AND PUSH20 0xFFFFFFFFFFFFFFFFFFFFFFFFFFFFFFFFFFFFFFFF AND DUP2 MSTORE PUSH1 0x20 ADD SWAP1 DUP2 MSTORE PUSH1 0x20 ADD PUSH1 0x0 KECCAK256 DUP1 SLOAD PUSH2 0x2E25 SWAP1 PUSH2 0x4190 JUMP JUMPDEST DUP1 PUSH1 0x1F ADD PUSH1 0x20 DUP1 SWAP2 DIV MUL PUSH1 0x20 ADD PUSH1 0x40 MLOAD SWAP1 DUP2 ADD PUSH1 0x40 MSTORE DUP1 SWAP3 SWAP2 SWAP1 DUP2 DUP2 MSTORE PUSH1 0x20 ADD DUP3 DUP1 SLOAD PUSH2 0x2E51 SWAP1 PUSH2 0x4190 JUMP JUMPDEST DUP1 ISZERO PUSH2 0x2E9E JUMPI DUP1 PUSH1 0x1F LT PUSH2 0x2E73 JUMPI PUSH2 0x100 DUP1 DUP4 SLOAD DIV MUL DUP4 MSTORE SWAP2 PUSH1 0x20 ADD SWAP2 PUSH2 0x2E9E JUMP JUMPDEST DUP3 ADD SWAP2 SWAP1 PUSH1 0x0 MSTORE PUSH1 0x20 PUSH1 0x0 KECCAK256 SWAP1 JUMPDEST DUP2 SLOAD DUP2 MSTORE SWAP1 PUSH1 0x1 ADD SWAP1 PUSH1 0x20 ADD DUP1 DUP4 GT PUSH2 0x2E81 JUMPI DUP3 SWAP1 SUB PUSH1 0x1F AND DUP3 ADD SWAP2 JUMPDEST POP POP POP POP POP SWAP1 POP SWAP1 JUMP JUMPDEST PUSH1 0x60 PUSH1 0x0 PUSH1 0x1 PUSH8 0xFFFFFFFFFFFFFFFF DUP2 GT ISZERO PUSH2 0x2EC7 JUMPI PUSH2 0x2EC6 PUSH2 0x3618 JUMP JUMPDEST JUMPDEST PUSH1 0x40 MLOAD SWAP1 DUP1 DUP3 MSTORE DUP1 PUSH1 0x1F ADD PUSH1 0x1F NOT AND PUSH1 0x20 ADD DUP3 ADD PUSH1 0x40 MSTORE DUP1 ISZERO PUSH2 0x2EF9 JUMPI DUP2 PUSH1 0x20 ADD PUSH1 0x1 DUP3 MUL DUP1 CALLDATASIZE DUP4 CALLDATACOPY DUP1 DUP3 ADD SWAP2 POP POP SWAP1 POP JUMPDEST POP SWAP1 POP DUP3 PUSH1 0x0 DUP2 MLOAD DUP2 LT PUSH2 0x2F10 JUMPI PUSH2 0x2F0F PUSH2 0x4375 JUMP JUMPDEST JUMPDEST PUSH1 0x20 ADD ADD MLOAD PUSH1 0xF8 SHR PUSH1 0xF8 SHL DUP2 PUSH1 0x0 DUP2 MLOAD DUP2 LT PUSH2 0x2F2F JUMPI PUSH2 0x2F2E PUSH2 0x4375 JUMP JUMPDEST JUMPDEST PUSH1 0x20 ADD ADD SWAP1 PUSH31 0xFFFFFFFFFFFFFFFFFFFFFFFFFFFFFFFFFFFFFFFFFFFFFFFFFFFFFFFFFFFFFF NOT AND SWAP1 DUP2 PUSH1 0x0 BYTE SWAP1 MSTORE8 POP DUP1 SWAP2 POP POP SWAP2 SWAP1 POP JUMP JUMPDEST PUSH1 0x60 PUSH1 0x0 DUP3 SWAP1 POP PUSH1 0x0 DUP2 MLOAD PUSH8 0xFFFFFFFFFFFFFFFF DUP2 GT ISZERO PUSH2 0x2F8B JUMPI PUSH2 0x2F8A PUSH2 0x3618 JUMP JUMPDEST JUMPDEST PUSH1 0x40 MLOAD SWAP1 DUP1 DUP3 MSTORE DUP1 PUSH1 0x1F ADD PUSH1 0x1F NOT AND PUSH1 0x20 ADD DUP3 ADD PUSH1 0x40 MSTORE DUP1 ISZERO PUSH2 0x2FBD JUMPI DUP2 PUSH1 0x20 ADD PUSH1 0x1 DUP3 MUL DUP1 CALLDATASIZE DUP4 CALLDATACOPY DUP1 DUP3 ADD SWAP2 POP POP SWAP1 POP JUMPDEST POP SWAP1 POP PUSH1 0x0 JUMPDEST DUP3 MLOAD DUP2 LT ISZERO PUSH2 0x30DF JUMPI DUP3 DUP2 DUP2 MLOAD DUP2 LT PUSH2 0x2FDF JUMPI PUSH2 0x2FDE PUSH2 0x4375 JUMP JUMPDEST JUMPDEST PUSH1 0x20 ADD ADD MLOAD PUSH1 0xF8 SHR PUSH1 0xF8 SHL DUP3 DUP3 DUP2 MLOAD DUP2 LT PUSH2 0x2FFD JUMPI PUSH2 0x2FFC PUSH2 0x4375 JUMP JUMPDEST JUMPDEST PUSH1 0x20 ADD ADD SWAP1 PUSH31 0xFFFFFFFFFFFFFFFFFFFFFFFFFFFFFFFFFFFFFFFFFFFFFFFFFFFFFFFFFFFFFF NOT AND SWAP1 DUP2 PUSH1 0x0 BYTE SWAP1 MSTORE8 POP PUSH1 0x0 DUP2 EQ ISZERO PUSH2 0x30CC JUMPI PUSH1 0x40 MLOAD DUP1 PUSH1 0x40 ADD PUSH1 0x40 MSTORE DUP1 PUSH1 0x1 DUP2 MSTORE PUSH1 0x20 ADD PUSH32 0x5300000000000000000000000000000000000000000000000000000000000000 DUP2 MSTORE POP PUSH1 0x0 DUP2 MLOAD DUP2 LT PUSH2 0x307E JUMPI PUSH2 0x307D PUSH2 0x4375 JUMP JUMPDEST JUMPDEST PUSH1 0x20 ADD ADD MLOAD PUSH1 0xF8 SHR PUSH1 0xF8 SHL DUP3 DUP3 DUP2 MLOAD DUP2 LT PUSH2 0x309C JUMPI PUSH2 0x309B PUSH2 0x4375 JUMP JUMPDEST JUMPDEST PUSH1 0x20 ADD ADD SWAP1 PUSH31 0xFFFFFFFFFFFFFFFFFFFFFFFFFFFFFFFFFFFFFFFFFFFFFFFFFFFFFFFFFFFFFF NOT AND SWAP1 DUP2 PUSH1 0x0 BYTE SWAP1 MSTORE8 POP JUMPDEST DUP1 DUP1 PUSH2 0x30D7 SWAP1 PUSH2 0x46C9 JUMP JUMPDEST SWAP2 POP POP PUSH2 0x2FC3 JUMP JUMPDEST POP DUP1 SWAP3 POP POP POP SWAP2 SWAP1 POP JUMP JUMPDEST PUSH1 0x60 PUSH1 0x0 PUSH1 0x1 PUSH2 0x30F9 DUP5 PUSH2 0x3304 JUMP JUMPDEST ADD SWAP1 POP PUSH1 0x0 DUP2 PUSH8 0xFFFFFFFFFFFFFFFF DUP2 GT ISZERO PUSH2 0x3118 JUMPI PUSH2 0x3117 PUSH2 0x3618 JUMP JUMPDEST JUMPDEST PUSH1 0x40 MLOAD SWAP1 DUP1 DUP3 MSTORE DUP1 PUSH1 0x1F ADD PUSH1 0x1F NOT AND PUSH1 0x20 ADD DUP3 ADD PUSH1 0x40 MSTORE DUP1 ISZERO PUSH2 0x314A JUMPI DUP2 PUSH1 0x20 ADD PUSH1 0x1 DUP3 MUL DUP1 CALLDATASIZE DUP4 CALLDATACOPY DUP1 DUP3 ADD SWAP2 POP POP SWAP1 POP JUMPDEST POP SWAP1 POP PUSH1 0x0 DUP3 PUSH1 0x20 ADD DUP3 ADD SWAP1 POP JUMPDEST PUSH1 0x1 ISZERO PUSH2 0x31B7 JUMPI DUP1 DUP1 PUSH1 0x1 SWAP1 SUB SWAP2 POP POP PUSH32 0x3031323334353637383961626364656600000000000000000000000000000000 PUSH1 0xA DUP7 MOD BYTE DUP2 MSTORE8 PUSH1 0xA DUP6 DUP2 PUSH2 0x31A1 JUMPI PUSH2 0x31A0 PUSH2 0x4BFD JUMP JUMPDEST JUMPDEST DIV SWAP5 POP PUSH1 0x0 DUP6 EQ ISZERO PUSH2 0x31B2 JUMPI PUSH2 0x31B7 JUMP JUMPDEST PUSH2 0x3158 JUMP JUMPDEST DUP2 SWAP4 POP POP POP POP SWAP2 SWAP1 POP JUMP JUMPDEST PUSH2 0x31CA PUSH2 0x3457 JUMP JUMPDEST PUSH20 0xFFFFFFFFFFFFFFFFFFFFFFFFFFFFFFFFFFFFFFFF AND PUSH2 0x31E8 PUSH2 0x1D2C JUMP JUMPDEST PUSH20 0xFFFFFFFFFFFFFFFFFFFFFFFFFFFFFFFFFFFFFFFF AND EQ PUSH2 0x323E JUMPI PUSH1 0x40 MLOAD PUSH32 0x8C379A000000000000000000000000000000000000000000000000000000000 DUP2 MSTORE PUSH1 0x4 ADD PUSH2 0x3235 SWAP1 PUSH2 0x4C78 JUMP JUMPDEST PUSH1 0x40 MLOAD DUP1 SWAP2 SUB SWAP1 REVERT JUMPDEST JUMP JUMPDEST PUSH1 0x0 DUP1 PUSH1 0x0 SWAP1 SLOAD SWAP1 PUSH2 0x100 EXP SWAP1 DIV PUSH20 0xFFFFFFFFFFFFFFFFFFFFFFFFFFFFFFFFFFFFFFFF AND SWAP1 POP DUP2 PUSH1 0x0 DUP1 PUSH2 0x100 EXP DUP2 SLOAD DUP2 PUSH20 0xFFFFFFFFFFFFFFFFFFFFFFFFFFFFFFFFFFFFFFFF MUL NOT AND SWAP1 DUP4 PUSH20 0xFFFFFFFFFFFFFFFFFFFFFFFFFFFFFFFFFFFFFFFF AND MUL OR SWAP1 SSTORE POP DUP2 PUSH20 0xFFFFFFFFFFFFFFFFFFFFFFFFFFFFFFFFFFFFFFFF AND DUP2 PUSH20 0xFFFFFFFFFFFFFFFFFFFFFFFFFFFFFFFFFFFFFFFF AND PUSH32 0x8BE0079C531659141344CD1FD0A4F28419497F9722A3DAAFE3B4186F6B6457E0 PUSH1 0x40 MLOAD PUSH1 0x40 MLOAD DUP1 SWAP2 SUB SWAP1 LOG3 POP POP JUMP JUMPDEST PUSH1 0x0 DUP1 PUSH1 0x0 SWAP1 POP PUSH27 0x184F03E93FF9F4DAA797ED6E38ED64BF6A1F010000000000000000 DUP4 LT PUSH2 0x3362 JUMPI PUSH27 0x184F03E93FF9F4DAA797ED6E38ED64BF6A1F010000000000000000 DUP4 DUP2 PUSH2 0x3358 JUMPI PUSH2 0x3357 PUSH2 0x4BFD JUMP JUMPDEST JUMPDEST DIV SWAP3 POP PUSH1 0x40 DUP2 ADD SWAP1 POP JUMPDEST PUSH14 0x4EE2D6D415B85ACEF8100000000 DUP4 LT PUSH2 0x339F JUMPI PUSH14 0x4EE2D6D415B85ACEF8100000000 DUP4 DUP2 PUSH2 0x3395 JUMPI PUSH2 0x3394 PUSH2 0x4BFD JUMP JUMPDEST JUMPDEST DIV SWAP3 POP PUSH1 0x20 DUP2 ADD SWAP1 POP JUMPDEST PUSH7 0x2386F26FC10000 DUP4 LT PUSH2 0x33CE JUMPI PUSH7 0x2386F26FC10000 DUP4 DUP2 PUSH2 0x33C4 JUMPI PUSH2 0x33C3 PUSH2 0x4BFD JUMP JUMPDEST JUMPDEST DIV SWAP3 POP PUSH1 0x10 DUP2 ADD SWAP1 POP JUMPDEST PUSH4 0x5F5E100 DUP4 LT PUSH2 0x33F7 JUMPI PUSH4 0x5F5E100 DUP4 DUP2 PUSH2 0x33ED JUMPI PUSH2 0x33EC PUSH2 0x4BFD JUMP JUMPDEST JUMPDEST DIV SWAP3 POP PUSH1 0x8 DUP2 ADD SWAP1 POP JUMPDEST PUSH2 0x2710 DUP4 LT PUSH2 0x341C JUMPI PUSH2 0x2710 DUP4 DUP2 PUSH2 0x3412 JUMPI PUSH2 0x3411 PUSH2 0x4BFD JUMP JUMPDEST JUMPDEST DIV SWAP3 POP PUSH1 0x4 DUP2 ADD SWAP1 POP JUMPDEST PUSH1 0x64 DUP4 LT PUSH2 0x343F JUMPI PUSH1 0x64 DUP4 DUP2 PUSH2 0x3435 JUMPI PUSH2 0x3434 PUSH2 0x4BFD JUMP JUMPDEST JUMPDEST DIV SWAP3 POP PUSH1 0x2 DUP2 ADD SWAP1 POP JUMPDEST PUSH1 0xA DUP4 LT PUSH2 0x344E JUMPI PUSH1 0x1 DUP2 ADD SWAP1 POP JUMPDEST DUP1 SWAP2 POP POP SWAP2 SWAP1 POP JUMP JUMPDEST PUSH1 0x0 CALLER SWAP1 POP SWAP1 JUMP JUMPDEST PUSH1 0x40 MLOAD DUP1 PUSH2 0x180 ADD PUSH1 0x40 MSTORE DUP1 PUSH1 0x60 DUP2 MSTORE PUSH1 0x20 ADD PUSH1 0x60 DUP2 MSTORE PUSH1 0x20 ADD PUSH1 0x60 DUP2 MSTORE PUSH1 0x20 ADD PUSH1 0x0 DUP2 MSTORE PUSH1 0x20 ADD PUSH1 0x0 DUP2 MSTORE PUSH1 0x20 ADD PUSH1 0x0 DUP2 MSTORE PUSH1 0x20 ADD PUSH1 0x60 DUP2 MSTORE PUSH1 0x20 ADD PUSH1 0x60 DUP2 MSTORE PUSH1 0x20 ADD PUSH1 0x60 DUP2 MSTORE PUSH1 0x20 ADD PUSH1 0x60 DUP2 MSTORE PUSH1 0x20 ADD PUSH1 0x60 DUP2 MSTORE PUSH1 0x20 ADD PUSH1 0x60 DUP2 MSTORE POP SWAP1 JUMP JUMPDEST DUP3 DUP1 SLOAD PUSH2 0x34CC SWAP1 PUSH2 0x4190 JUMP JUMPDEST SWAP1 PUSH1 0x0 MSTORE PUSH1 0x20 PUSH1 0x0 KECCAK256 SWAP1 PUSH1 0x1F ADD PUSH1 0x20 SWAP1 DIV DUP2 ADD SWAP3 DUP3 PUSH2 0x34EE JUMPI PUSH1 0x0 DUP6 SSTORE PUSH2 0x3535 JUMP JUMPDEST DUP3 PUSH1 0x1F LT PUSH2 0x3507 JUMPI DUP1 CALLDATALOAD PUSH1 0xFF NOT AND DUP4 DUP1 ADD OR DUP6 SSTORE PUSH2 0x3535 JUMP JUMPDEST DUP3 DUP1 ADD PUSH1 0x1 ADD DUP6 SSTORE DUP3 ISZERO PUSH2 0x3535 JUMPI SWAP2 DUP3 ADD JUMPDEST DUP3 DUP2 GT ISZERO PUSH2 0x3534 JUMPI DUP3 CALLDATALOAD DUP3 SSTORE SWAP2 PUSH1 0x20 ADD SWAP2 SWAP1 PUSH1 0x1 ADD SWAP1 PUSH2 0x3519 JUMP JUMPDEST JUMPDEST POP SWAP1 POP PUSH2 0x3542 SWAP2 SWAP1 PUSH2 0x35CC JUMP JUMPDEST POP SWAP1 JUMP JUMPDEST DUP3 DUP1 SLOAD PUSH2 0x3552 SWAP1 PUSH2 0x4190 JUMP JUMPDEST SWAP1 PUSH1 0x0 MSTORE PUSH1 0x20 PUSH1 0x0 KECCAK256 SWAP1 PUSH1 0x1F ADD PUSH1 0x20 SWAP1 DIV DUP2 ADD SWAP3 DUP3 PUSH2 0x3574 JUMPI PUSH1 0x0 DUP6 SSTORE PUSH2 0x35BB JUMP JUMPDEST DUP3 PUSH1 0x1F LT PUSH2 0x358D JUMPI DUP1 MLOAD PUSH1 0xFF NOT AND DUP4 DUP1 ADD OR DUP6 SSTORE PUSH2 0x35BB JUMP JUMPDEST DUP3 DUP1 ADD PUSH1 0x1 ADD DUP6 SSTORE DUP3 ISZERO PUSH2 0x35BB JUMPI SWAP2 DUP3 ADD JUMPDEST DUP3 DUP2 GT ISZERO PUSH2 0x35BA JUMPI DUP3 MLOAD DUP3 SSTORE SWAP2 PUSH1 0x20 ADD SWAP2 SWAP1 PUSH1 0x1 ADD SWAP1 PUSH2 0x359F JUMP JUMPDEST JUMPDEST POP SWAP1 POP PUSH2 0x35C8 SWAP2 SWAP1 PUSH2 0x35CC JUMP JUMPDEST POP SWAP1 JUMP JUMPDEST JUMPDEST DUP1 DUP3 GT ISZERO PUSH2 0x35E5 JUMPI PUSH1 0x0 DUP2 PUSH1 0x0 SWAP1 SSTORE POP PUSH1 0x1 ADD PUSH2 0x35CD JUMP JUMPDEST POP SWAP1 JUMP JUMPDEST PUSH1 0x0 PUSH1 0x40 MLOAD SWAP1 POP SWAP1 JUMP JUMPDEST PUSH1 0x0 DUP1 REVERT JUMPDEST PUSH1 0x0 DUP1 REVERT JUMPDEST PUSH1 0x0 DUP1 REVERT JUMPDEST PUSH1 0x0 DUP1 REVERT JUMPDEST PUSH1 0x0 PUSH1 0x1F NOT PUSH1 0x1F DUP4 ADD AND SWAP1 POP SWAP2 SWAP1 POP JUMP JUMPDEST PUSH32 0x4E487B7100000000000000000000000000000000000000000000000000000000 PUSH1 0x0 MSTORE PUSH1 0x41 PUSH1 0x4 MSTORE PUSH1 0x24 PUSH1 0x0 REVERT JUMPDEST PUSH2 0x3650 DUP3 PUSH2 0x3607 JUMP JUMPDEST DUP2 ADD DUP2 DUP2 LT PUSH8 0xFFFFFFFFFFFFFFFF DUP3 GT OR ISZERO PUSH2 0x366F JUMPI PUSH2 0x366E PUSH2 0x3618 JUMP JUMPDEST JUMPDEST DUP1 PUSH1 0x40 MSTORE POP POP POP JUMP JUMPDEST PUSH1 0x0 PUSH2 0x3682 PUSH2 0x35E9 JUMP JUMPDEST SWAP1 POP PUSH2 0x368E DUP3 DUP3 PUSH2 0x3647 JUMP JUMPDEST SWAP2 SWAP1 POP JUMP JUMPDEST PUSH1 0x0 PUSH8 0xFFFFFFFFFFFFFFFF DUP3 GT ISZERO PUSH2 0x36AE JUMPI PUSH2 0x36AD PUSH2 0x3618 JUMP JUMPDEST JUMPDEST PUSH2 0x36B7 DUP3 PUSH2 0x3607 JUMP JUMPDEST SWAP1 POP PUSH1 0x20 DUP2 ADD SWAP1 POP SWAP2 SWAP1 POP JUMP JUMPDEST DUP3 DUP2 DUP4 CALLDATACOPY PUSH1 0x0 DUP4 DUP4 ADD MSTORE POP POP POP JUMP JUMPDEST PUSH1 0x0 PUSH2 0x36E6 PUSH2 0x36E1 DUP5 PUSH2 0x3693 JUMP JUMPDEST PUSH2 0x3678 JUMP JUMPDEST SWAP1 POP DUP3 DUP2 MSTORE PUSH1 0x20 DUP2 ADD DUP5 DUP5 DUP5 ADD GT ISZERO PUSH2 0x3702 JUMPI PUSH2 0x3701 PUSH2 0x3602 JUMP JUMPDEST JUMPDEST PUSH2 0x370D DUP5 DUP3 DUP6 PUSH2 0x36C4 JUMP JUMPDEST POP SWAP4 SWAP3 POP POP POP JUMP JUMPDEST PUSH1 0x0 DUP3 PUSH1 0x1F DUP4 ADD SLT PUSH2 0x372A JUMPI PUSH2 0x3729 PUSH2 0x35FD JUMP JUMPDEST JUMPDEST DUP2 CALLDATALOAD PUSH2 0x373A DUP5 DUP3 PUSH1 0x20 DUP7 ADD PUSH2 0x36D3 JUMP JUMPDEST SWAP2 POP POP SWAP3 SWAP2 POP POP JUMP JUMPDEST PUSH1 0x0 PUSH1 0x20 DUP3 DUP5 SUB SLT ISZERO PUSH2 0x3759 JUMPI PUSH2 0x3758 PUSH2 0x35F3 JUMP JUMPDEST JUMPDEST PUSH1 0x0 DUP3 ADD CALLDATALOAD PUSH8 0xFFFFFFFFFFFFFFFF DUP2 GT ISZERO PUSH2 0x3777 JUMPI PUSH2 0x3776 PUSH2 0x35F8 JUMP JUMPDEST JUMPDEST PUSH2 0x3783 DUP5 DUP3 DUP6 ADD PUSH2 0x3715 JUMP JUMPDEST SWAP2 POP POP SWAP3 SWAP2 POP POP JUMP JUMPDEST PUSH1 0x0 DUP2 MLOAD SWAP1 POP SWAP2 SWAP1 POP JUMP JUMPDEST PUSH1 0x0 DUP3 DUP3 MSTORE PUSH1 0x20 DUP3 ADD SWAP1 POP SWAP3 SWAP2 POP POP JUMP JUMPDEST PUSH1 0x0 JUMPDEST DUP4 DUP2 LT ISZERO PUSH2 0x37C6 JUMPI DUP1 DUP3 ADD MLOAD DUP2 DUP5 ADD MSTORE PUSH1 0x20 DUP2 ADD SWAP1 POP PUSH2 0x37AB JUMP JUMPDEST DUP4 DUP2 GT ISZERO PUSH2 0x37D5 JUMPI PUSH1 0x0 DUP5 DUP5 ADD MSTORE JUMPDEST POP POP POP POP JUMP JUMPDEST PUSH1 0x0 PUSH2 0x37E6 DUP3 PUSH2 0x378C JUMP JUMPDEST PUSH2 0x37F0 DUP2 DUP6 PUSH2 0x3797 JUMP JUMPDEST SWAP4 POP PUSH2 0x3800 DUP2 DUP6 PUSH1 0x20 DUP7 ADD PUSH2 0x37A8 JUMP JUMPDEST PUSH2 0x3809 DUP2 PUSH2 0x3607 JUMP JUMPDEST DUP5 ADD SWAP2 POP POP SWAP3 SWAP2 POP POP JUMP JUMPDEST PUSH1 0x0 DUP2 SWAP1 POP SWAP2 SWAP1 POP JUMP JUMPDEST PUSH2 0x3827 DUP2 PUSH2 0x3814 JUMP JUMPDEST DUP3 MSTORE POP POP JUMP JUMPDEST PUSH1 0x0 PUSH2 0x180 DUP4 ADD PUSH1 0x0 DUP4 ADD MLOAD DUP5 DUP3 SUB PUSH1 0x0 DUP7 ADD MSTORE PUSH2 0x384B DUP3 DUP3 PUSH2 0x37DB JUMP JUMPDEST SWAP2 POP POP PUSH1 0x20 DUP4 ADD MLOAD DUP5 DUP3 SUB PUSH1 0x20 DUP7 ADD MSTORE PUSH2 0x3865 DUP3 DUP3 PUSH2 0x37DB JUMP JUMPDEST SWAP2 POP POP PUSH1 0x40 DUP4 ADD MLOAD DUP5 DUP3 SUB PUSH1 0x40 DUP7 ADD MSTORE PUSH2 0x387F DUP3 DUP3 PUSH2 0x37DB JUMP JUMPDEST SWAP2 POP POP PUSH1 0x60 DUP4 ADD MLOAD PUSH2 0x3894 PUSH1 0x60 DUP7 ADD DUP3 PUSH2 0x381E JUMP JUMPDEST POP PUSH1 0x80 DUP4 ADD MLOAD PUSH2 0x38A7 PUSH1 0x80 DUP7 ADD DUP3 PUSH2 0x381E JUMP JUMPDEST POP PUSH1 0xA0 DUP4 ADD MLOAD PUSH2 0x38BA PUSH1 0xA0 DUP7 ADD DUP3 PUSH2 0x381E JUMP JUMPDEST POP PUSH1 0xC0 DUP4 ADD MLOAD DUP5 DUP3 SUB PUSH1 0xC0 DUP7 ADD MSTORE PUSH2 0x38D2 DUP3 DUP3 PUSH2 0x37DB JUMP JUMPDEST SWAP2 POP POP PUSH1 0xE0 DUP4 ADD MLOAD DUP5 DUP3 SUB PUSH1 0xE0 DUP7 ADD MSTORE PUSH2 0x38EC DUP3 DUP3 PUSH2 0x37DB JUMP JUMPDEST SWAP2 POP POP PUSH2 0x100 DUP4 ADD MLOAD DUP5 DUP3 SUB PUSH2 0x100 DUP7 ADD MSTORE PUSH2 0x3908 DUP3 DUP3 PUSH2 0x37DB JUMP JUMPDEST SWAP2 POP POP PUSH2 0x120 DUP4 ADD MLOAD DUP5 DUP3 SUB PUSH2 0x120 DUP7 ADD MSTORE PUSH2 0x3924 DUP3 DUP3 PUSH2 0x37DB JUMP JUMPDEST SWAP2 POP POP PUSH2 0x140 DUP4 ADD MLOAD DUP5 DUP3 SUB PUSH2 0x140 DUP7 ADD MSTORE PUSH2 0x3940 DUP3 DUP3 PUSH2 0x37DB JUMP JUMPDEST SWAP2 POP POP PUSH2 0x160 DUP4 ADD MLOAD DUP5 DUP3 SUB PUSH2 0x160 DUP7 ADD MSTORE PUSH2 0x395C DUP3 DUP3 PUSH2 0x37DB JUMP JUMPDEST SWAP2 POP POP DUP1 SWAP2 POP POP SWAP3 SWAP2 POP POP JUMP JUMPDEST PUSH1 0x0 PUSH1 0x20 DUP3 ADD SWAP1 POP DUP2 DUP2 SUB PUSH1 0x0 DUP4 ADD MSTORE PUSH2 0x3983 DUP2 DUP5 PUSH2 0x382D JUMP JUMPDEST SWAP1 POP SWAP3 SWAP2 POP POP JUMP JUMPDEST PUSH1 0x0 DUP1 REVERT JUMPDEST PUSH1 0x0 DUP1 REVERT JUMPDEST PUSH1 0x0 DUP1 DUP4 PUSH1 0x1F DUP5 ADD SLT PUSH2 0x39AB JUMPI PUSH2 0x39AA PUSH2 0x35FD JUMP JUMPDEST JUMPDEST DUP3 CALLDATALOAD SWAP1 POP PUSH8 0xFFFFFFFFFFFFFFFF DUP2 GT ISZERO PUSH2 0x39C8 JUMPI PUSH2 0x39C7 PUSH2 0x398B JUMP JUMPDEST JUMPDEST PUSH1 0x20 DUP4 ADD SWAP2 POP DUP4 PUSH1 0x1 DUP3 MUL DUP4 ADD GT ISZERO PUSH2 0x39E4 JUMPI PUSH2 0x39E3 PUSH2 0x3990 JUMP JUMPDEST JUMPDEST SWAP3 POP SWAP3 SWAP1 POP JUMP JUMPDEST PUSH1 0x0 DUP1 DUP4 PUSH1 0x1F DUP5 ADD SLT PUSH2 0x3A01 JUMPI PUSH2 0x3A00 PUSH2 0x35FD JUMP JUMPDEST JUMPDEST DUP3 CALLDATALOAD SWAP1 POP PUSH8 0xFFFFFFFFFFFFFFFF DUP2 GT ISZERO PUSH2 0x3A1E JUMPI PUSH2 0x3A1D PUSH2 0x398B JUMP JUMPDEST JUMPDEST PUSH1 0x20 DUP4 ADD SWAP2 POP DUP4 PUSH1 0x20 DUP3 MUL DUP4 ADD GT ISZERO PUSH2 0x3A3A JUMPI PUSH2 0x3A39 PUSH2 0x3990 JUMP JUMPDEST JUMPDEST SWAP3 POP SWAP3 SWAP1 POP JUMP JUMPDEST PUSH1 0x0 DUP1 PUSH1 0x0 DUP1 PUSH1 0x0 DUP1 PUSH1 0x60 DUP8 DUP10 SUB SLT ISZERO PUSH2 0x3A5E JUMPI PUSH2 0x3A5D PUSH2 0x35F3 JUMP JUMPDEST JUMPDEST PUSH1 0x0 DUP8 ADD CALLDATALOAD PUSH8 0xFFFFFFFFFFFFFFFF DUP2 GT ISZERO PUSH2 0x3A7C JUMPI PUSH2 0x3A7B PUSH2 0x35F8 JUMP JUMPDEST JUMPDEST PUSH2 0x3A88 DUP10 DUP3 DUP11 ADD PUSH2 0x3995 JUMP JUMPDEST SWAP7 POP SWAP7 POP POP PUSH1 0x20 DUP8 ADD CALLDATALOAD PUSH8 0xFFFFFFFFFFFFFFFF DUP2 GT ISZERO PUSH2 0x3AAB JUMPI PUSH2 0x3AAA PUSH2 0x35F8 JUMP JUMPDEST JUMPDEST PUSH2 0x3AB7 DUP10 DUP3 DUP11 ADD PUSH2 0x39EB JUMP JUMPDEST SWAP5 POP SWAP5 POP POP PUSH1 0x40 DUP8 ADD CALLDATALOAD PUSH8 0xFFFFFFFFFFFFFFFF DUP2 GT ISZERO PUSH2 0x3ADA JUMPI PUSH2 0x3AD9 PUSH2 0x35F8 JUMP JUMPDEST JUMPDEST PUSH2 0x3AE6 DUP10 DUP3 DUP11 ADD PUSH2 0x39EB JUMP JUMPDEST SWAP3 POP SWAP3 POP POP SWAP3 SWAP6 POP SWAP3 SWAP6 POP SWAP3 SWAP6 JUMP JUMPDEST PUSH1 0x0 DUP2 MLOAD SWAP1 POP SWAP2 SWAP1 POP JUMP JUMPDEST PUSH1 0x0 DUP3 DUP3 MSTORE PUSH1 0x20 DUP3 ADD SWAP1 POP SWAP3 SWAP2 POP POP JUMP JUMPDEST PUSH1 0x0 DUP2 SWAP1 POP PUSH1 0x20 DUP3 ADD SWAP1 POP SWAP2 SWAP1 POP JUMP JUMPDEST PUSH1 0x0 PUSH2 0x180 DUP4 ADD PUSH1 0x0 DUP4 ADD MLOAD DUP5 DUP3 SUB PUSH1 0x0 DUP7 ADD MSTORE PUSH2 0x3B3F DUP3 DUP3 PUSH2 0x37DB JUMP JUMPDEST SWAP2 POP POP PUSH1 0x20 DUP4 ADD MLOAD DUP5 DUP3 SUB PUSH1 0x20 DUP7 ADD MSTORE PUSH2 0x3B59 DUP3 DUP3 PUSH2 0x37DB JUMP JUMPDEST SWAP2 POP POP PUSH1 0x40 DUP4 ADD MLOAD DUP5 DUP3 SUB PUSH1 0x40 DUP7 ADD MSTORE PUSH2 0x3B73 DUP3 DUP3 PUSH2 0x37DB JUMP JUMPDEST SWAP2 POP POP PUSH1 0x60 DUP4 ADD MLOAD PUSH2 0x3B88 PUSH1 0x60 DUP7 ADD DUP3 PUSH2 0x381E JUMP JUMPDEST POP PUSH1 0x80 DUP4 ADD MLOAD PUSH2 0x3B9B PUSH1 0x80 DUP7 ADD DUP3 PUSH2 0x381E JUMP JUMPDEST POP PUSH1 0xA0 DUP4 ADD MLOAD PUSH2 0x3BAE PUSH1 0xA0 DUP7 ADD DUP3 PUSH2 0x381E JUMP JUMPDEST POP PUSH1 0xC0 DUP4 ADD MLOAD DUP5 DUP3 SUB PUSH1 0xC0 DUP7 ADD MSTORE PUSH2 0x3BC6 DUP3 DUP3 PUSH2 0x37DB JUMP JUMPDEST SWAP2 POP POP PUSH1 0xE0 DUP4 ADD MLOAD DUP5 DUP3 SUB PUSH1 0xE0 DUP7 ADD MSTORE PUSH2 0x3BE0 DUP3 DUP3 PUSH2 0x37DB JUMP JUMPDEST SWAP2 POP POP PUSH2 0x100 DUP4 ADD MLOAD DUP5 DUP3 SUB PUSH2 0x100 DUP7 ADD MSTORE PUSH2 0x3BFC DUP3 DUP3 PUSH2 0x37DB JUMP JUMPDEST SWAP2 POP POP PUSH2 0x120 DUP4 ADD MLOAD DUP5 DUP3 SUB PUSH2 0x120 DUP7 ADD MSTORE PUSH2 0x3C18 DUP3 DUP3 PUSH2 0x37DB JUMP JUMPDEST SWAP2 POP POP PUSH2 0x140 DUP4 ADD MLOAD DUP5 DUP3 SUB PUSH2 0x140 DUP7 ADD MSTORE PUSH2 0x3C34 DUP3 DUP3 PUSH2 0x37DB JUMP JUMPDEST SWAP2 POP POP PUSH2 0x160 DUP4 ADD MLOAD DUP5 DUP3 SUB PUSH2 0x160 DUP7 ADD MSTORE PUSH2 0x3C50 DUP3 DUP3 PUSH2 0x37DB JUMP JUMPDEST SWAP2 POP POP DUP1 SWAP2 POP POP SWAP3 SWAP2 POP POP JUMP JUMPDEST PUSH1 0x0 PUSH2 0x3C69 DUP4 DUP4 PUSH2 0x3B21 JUMP JUMPDEST SWAP1 POP SWAP3 SWAP2 POP POP JUMP JUMPDEST PUSH1 0x0 PUSH1 0x20 DUP3 ADD SWAP1 POP SWAP2 SWAP1 POP JUMP JUMPDEST PUSH1 0x0 PUSH2 0x3C89 DUP3 PUSH2 0x3AF5 JUMP JUMPDEST PUSH2 0x3C93 DUP2 DUP6 PUSH2 0x3B00 JUMP JUMPDEST SWAP4 POP DUP4 PUSH1 0x20 DUP3 MUL DUP6 ADD PUSH2 0x3CA5 DUP6 PUSH2 0x3B11 JUMP JUMPDEST DUP1 PUSH1 0x0 JUMPDEST DUP6 DUP2 LT ISZERO PUSH2 0x3CE1 JUMPI DUP5 DUP5 SUB DUP10 MSTORE DUP2 MLOAD PUSH2 0x3CC2 DUP6 DUP3 PUSH2 0x3C5D JUMP JUMPDEST SWAP5 POP PUSH2 0x3CCD DUP4 PUSH2 0x3C71 JUMP JUMPDEST SWAP3 POP PUSH1 0x20 DUP11 ADD SWAP10 POP POP PUSH1 0x1 DUP2 ADD SWAP1 POP PUSH2 0x3CA9 JUMP JUMPDEST POP DUP3 SWAP8 POP DUP8 SWAP6 POP POP POP POP POP POP SWAP3 SWAP2 POP POP JUMP JUMPDEST PUSH1 0x0 PUSH1 0x20 DUP3 ADD SWAP1 POP DUP2 DUP2 SUB PUSH1 0x0 DUP4 ADD MSTORE PUSH2 0x3D0D DUP2 DUP5 PUSH2 0x3C7E JUMP JUMPDEST SWAP1 POP SWAP3 SWAP2 POP POP JUMP JUMPDEST PUSH2 0x3D1E DUP2 PUSH2 0x3814 JUMP JUMPDEST DUP3 MSTORE POP POP JUMP JUMPDEST PUSH1 0x0 PUSH1 0x20 DUP3 ADD SWAP1 POP PUSH2 0x3D39 PUSH1 0x0 DUP4 ADD DUP5 PUSH2 0x3D15 JUMP JUMPDEST SWAP3 SWAP2 POP POP JUMP JUMPDEST PUSH1 0x0 PUSH20 0xFFFFFFFFFFFFFFFFFFFFFFFFFFFFFFFFFFFFFFFF DUP3 AND SWAP1 POP SWAP2 SWAP1 POP JUMP JUMPDEST PUSH1 0x0 PUSH2 0x3D6A DUP3 PUSH2 0x3D3F JUMP JUMPDEST SWAP1 POP SWAP2 SWAP1 POP JUMP JUMPDEST PUSH2 0x3D7A DUP2 PUSH2 0x3D5F JUMP JUMPDEST DUP2 EQ PUSH2 0x3D85 JUMPI PUSH1 0x0 DUP1 REVERT JUMPDEST POP JUMP JUMPDEST PUSH1 0x0 DUP2 CALLDATALOAD SWAP1 POP PUSH2 0x3D97 DUP2 PUSH2 0x3D71 JUMP JUMPDEST SWAP3 SWAP2 POP POP JUMP JUMPDEST PUSH1 0x0 DUP1 PUSH1 0x40 DUP4 DUP6 SUB SLT ISZERO PUSH2 0x3DB4 JUMPI PUSH2 0x3DB3 PUSH2 0x35F3 JUMP JUMPDEST JUMPDEST PUSH1 0x0 PUSH2 0x3DC2 DUP6 DUP3 DUP7 ADD PUSH2 0x3D88 JUMP JUMPDEST SWAP3 POP POP PUSH1 0x20 DUP4 ADD CALLDATALOAD PUSH8 0xFFFFFFFFFFFFFFFF DUP2 GT ISZERO PUSH2 0x3DE3 JUMPI PUSH2 0x3DE2 PUSH2 0x35F8 JUMP JUMPDEST JUMPDEST PUSH2 0x3DEF DUP6 DUP3 DUP7 ADD PUSH2 0x3715 JUMP JUMPDEST SWAP2 POP POP SWAP3 POP SWAP3 SWAP1 POP JUMP JUMPDEST PUSH2 0x3E02 DUP2 PUSH2 0x3D5F JUMP JUMPDEST DUP3 MSTORE POP POP JUMP JUMPDEST PUSH1 0x0 PUSH1 0x20 DUP3 ADD SWAP1 POP PUSH2 0x3E1D PUSH1 0x0 DUP4 ADD DUP5 PUSH2 0x3DF9 JUMP JUMPDEST SWAP3 SWAP2 POP POP JUMP JUMPDEST PUSH1 0x0 PUSH1 0x20 DUP3 DUP5 SUB SLT ISZERO PUSH2 0x3E39 JUMPI PUSH2 0x3E38 PUSH2 0x35F3 JUMP JUMPDEST JUMPDEST PUSH1 0x0 PUSH2 0x3E47 DUP5 DUP3 DUP6 ADD PUSH2 0x3D88 JUMP JUMPDEST SWAP2 POP POP SWAP3 SWAP2 POP POP JUMP JUMPDEST PUSH1 0x0 DUP3 DUP3 MSTORE PUSH1 0x20 DUP3 ADD SWAP1 POP SWAP3 SWAP2 POP POP JUMP JUMPDEST PUSH1 0x0 PUSH2 0x3E6C DUP3 PUSH2 0x378C JUMP JUMPDEST PUSH2 0x3E76 DUP2 DUP6 PUSH2 0x3E50 JUMP JUMPDEST SWAP4 POP PUSH2 0x3E86 DUP2 DUP6 PUSH1 0x20 DUP7 ADD PUSH2 0x37A8 JUMP JUMPDEST PUSH2 0x3E8F DUP2 PUSH2 0x3607 JUMP JUMPDEST DUP5 ADD SWAP2 POP POP SWAP3 SWAP2 POP POP JUMP JUMPDEST PUSH1 0x0 PUSH1 0x20 DUP3 ADD SWAP1 POP DUP2 DUP2 SUB PUSH1 0x0 DUP4 ADD MSTORE PUSH2 0x3EB4 DUP2 DUP5 PUSH2 0x3E61 JUMP JUMPDEST SWAP1 POP SWAP3 SWAP2 POP POP JUMP JUMPDEST PUSH2 0x3EC5 DUP2 PUSH2 0x3814 JUMP JUMPDEST DUP2 EQ PUSH2 0x3ED0 JUMPI PUSH1 0x0 DUP1 REVERT JUMPDEST POP JUMP JUMPDEST PUSH1 0x0 DUP2 CALLDATALOAD SWAP1 POP PUSH2 0x3EE2 DUP2 PUSH2 0x3EBC JUMP JUMPDEST SWAP3 SWAP2 POP POP JUMP JUMPDEST PUSH1 0x0 PUSH1 0x20 DUP3 DUP5 SUB SLT ISZERO PUSH2 0x3EFE JUMPI PUSH2 0x3EFD PUSH2 0x35F3 JUMP JUMPDEST JUMPDEST PUSH1 0x0 PUSH2 0x3F0C DUP5 DUP3 DUP6 ADD PUSH2 0x3ED3 JUMP JUMPDEST SWAP2 POP POP SWAP3 SWAP2 POP POP JUMP JUMPDEST PUSH1 0x0 PUSH2 0x180 DUP3 ADD SWAP1 POP DUP2 DUP2 SUB PUSH1 0x0 DUP4 ADD MSTORE PUSH2 0x3F30 DUP2 DUP16 PUSH2 0x3E61 JUMP JUMPDEST SWAP1 POP DUP2 DUP2 SUB PUSH1 0x20 DUP4 ADD MSTORE PUSH2 0x3F44 DUP2 DUP15 PUSH2 0x3E61 JUMP JUMPDEST SWAP1 POP DUP2 DUP2 SUB PUSH1 0x40 DUP4 ADD MSTORE PUSH2 0x3F58 DUP2 DUP14 PUSH2 0x3E61 JUMP JUMPDEST SWAP1 POP PUSH2 0x3F67 PUSH1 0x60 DUP4 ADD DUP13 PUSH2 0x3D15 JUMP JUMPDEST PUSH2 0x3F74 PUSH1 0x80 DUP4 ADD DUP12 PUSH2 0x3D15 JUMP JUMPDEST PUSH2 0x3F81 PUSH1 0xA0 DUP4 ADD DUP11 PUSH2 0x3D15 JUMP JUMPDEST DUP2 DUP2 SUB PUSH1 0xC0 DUP4 ADD MSTORE PUSH2 0x3F93 DUP2 DUP10 PUSH2 0x3E61 JUMP JUMPDEST SWAP1 POP DUP2 DUP2 SUB PUSH1 0xE0 DUP4 ADD MSTORE PUSH2 0x3FA7 DUP2 DUP9 PUSH2 0x3E61 JUMP JUMPDEST SWAP1 POP DUP2 DUP2 SUB PUSH2 0x100 DUP4 ADD MSTORE PUSH2 0x3FBC DUP2 DUP8 PUSH2 0x3E61 JUMP JUMPDEST SWAP1 POP DUP2 DUP2 SUB PUSH2 0x120 DUP4 ADD MSTORE PUSH2 0x3FD1 DUP2 DUP7 PUSH2 0x3E61 JUMP JUMPDEST SWAP1 POP DUP2 DUP2 SUB PUSH2 0x140 DUP4 ADD MSTORE PUSH2 0x3FE6 DUP2 DUP6 PUSH2 0x3E61 JUMP JUMPDEST SWAP1 POP DUP2 DUP2 SUB PUSH2 0x160 DUP4 ADD MSTORE PUSH2 0x3FFB DUP2 DUP5 PUSH2 0x3E61 JUMP JUMPDEST SWAP1 POP SWAP14 SWAP13 POP POP POP POP POP POP POP POP POP POP POP POP POP JUMP JUMPDEST PUSH1 0x0 DUP1 PUSH1 0x0 DUP1 PUSH1 0x80 DUP6 DUP8 SUB SLT ISZERO PUSH2 0x4028 JUMPI PUSH2 0x4027 PUSH2 0x35F3 JUMP JUMPDEST JUMPDEST PUSH1 0x0 DUP6 ADD CALLDATALOAD PUSH8 0xFFFFFFFFFFFFFFFF DUP2 GT ISZERO PUSH2 0x4046 JUMPI PUSH2 0x4045 PUSH2 0x35F8 JUMP JUMPDEST JUMPDEST PUSH2 0x4052 DUP8 DUP3 DUP9 ADD PUSH2 0x3715 JUMP JUMPDEST SWAP5 POP POP PUSH1 0x20 PUSH2 0x4063 DUP8 DUP3 DUP9 ADD PUSH2 0x3ED3 JUMP JUMPDEST SWAP4 POP POP PUSH1 0x40 PUSH2 0x4074 DUP8 DUP3 DUP9 ADD PUSH2 0x3ED3 JUMP JUMPDEST SWAP3 POP POP PUSH1 0x60 DUP6 ADD CALLDATALOAD PUSH8 0xFFFFFFFFFFFFFFFF DUP2 GT ISZERO PUSH2 0x4095 JUMPI PUSH2 0x4094 PUSH2 0x35F8 JUMP JUMPDEST JUMPDEST PUSH2 0x40A1 DUP8 DUP3 DUP9 ADD PUSH2 0x3715 JUMP JUMPDEST SWAP2 POP POP SWAP3 SWAP6 SWAP2 SWAP5 POP SWAP3 POP JUMP JUMPDEST PUSH1 0x0 DUP2 SWAP1 POP SWAP3 SWAP2 POP POP JUMP JUMPDEST PUSH32 0x5300000000000000000000000000000000000000000000000000000000000000 PUSH1 0x0 DUP3 ADD MSTORE POP JUMP JUMPDEST PUSH1 0x0 PUSH2 0x40EE PUSH1 0x1 DUP4 PUSH2 0x40AD JUMP JUMPDEST SWAP2 POP PUSH2 0x40F9 DUP3 PUSH2 0x40B8 JUMP JUMPDEST PUSH1 0x1 DUP3 ADD SWAP1 POP SWAP2 SWAP1 POP JUMP JUMPDEST PUSH1 0x0 PUSH2 0x410F DUP3 PUSH2 0x40E1 JUMP JUMPDEST SWAP2 POP DUP2 SWAP1 POP SWAP2 SWAP1 POP JUMP JUMPDEST PUSH1 0x0 PUSH2 0x4124 DUP3 PUSH2 0x378C JUMP JUMPDEST PUSH2 0x412E DUP2 DUP6 PUSH2 0x40AD JUMP JUMPDEST SWAP4 POP PUSH2 0x413E DUP2 DUP6 PUSH1 0x20 DUP7 ADD PUSH2 0x37A8 JUMP JUMPDEST DUP1 DUP5 ADD SWAP2 POP POP SWAP3 SWAP2 POP POP JUMP JUMPDEST PUSH1 0x0 PUSH2 0x4156 DUP3 DUP5 PUSH2 0x4119 JUMP JUMPDEST SWAP2 POP DUP2 SWAP1 POP SWAP3 SWAP2 POP POP JUMP JUMPDEST PUSH32 0x4E487B7100000000000000000000000000000000000000000000000000000000 PUSH1 0x0 MSTORE PUSH1 0x22 PUSH1 0x4 MSTORE PUSH1 0x24 PUSH1 0x0 REVERT JUMPDEST PUSH1 0x0 PUSH1 0x2 DUP3 DIV SWAP1 POP PUSH1 0x1 DUP3 AND DUP1 PUSH2 0x41A8 JUMPI PUSH1 0x7F DUP3 AND SWAP2 POP JUMPDEST PUSH1 0x20 DUP3 LT DUP2 EQ ISZERO PUSH2 0x41BC JUMPI PUSH2 0x41BB PUSH2 0x4161 JUMP JUMPDEST JUMPDEST POP SWAP2 SWAP1 POP JUMP JUMPDEST POP JUMP JUMPDEST PUSH1 0x0 PUSH2 0x41D2 PUSH1 0x0 DUP4 PUSH2 0x40AD JUMP JUMPDEST SWAP2 POP PUSH2 0x41DD DUP3 PUSH2 0x41C2 JUMP JUMPDEST PUSH1 0x0 DUP3 ADD SWAP1 POP SWAP2 SWAP1 POP JUMP JUMPDEST PUSH1 0x0 PUSH2 0x41F3 DUP3 PUSH2 0x41C5 JUMP JUMPDEST SWAP2 POP DUP2 SWAP1 POP SWAP2 SWAP1 POP JUMP JUMPDEST PUSH1 0x0 DUP2 SWAP1 POP DUP2 PUSH1 0x0 MSTORE PUSH1 0x20 PUSH1 0x0 KECCAK256 SWAP1 POP SWAP2 SWAP1 POP JUMP JUMPDEST PUSH1 0x0 DUP2 SLOAD PUSH2 0x421F DUP2 PUSH2 0x4190 JUMP JUMPDEST PUSH2 0x4229 DUP2 DUP7 PUSH2 0x40AD JUMP JUMPDEST SWAP5 POP PUSH1 0x1 DUP3 AND PUSH1 0x0 DUP2 EQ PUSH2 0x4244 JUMPI PUSH1 0x1 DUP2 EQ PUSH2 0x4255 JUMPI PUSH2 0x4288 JUMP JUMPDEST PUSH1 0xFF NOT DUP4 AND DUP7 MSTORE DUP2 DUP7 ADD SWAP4 POP PUSH2 0x4288 JUMP JUMPDEST PUSH2 0x425E DUP6 PUSH2 0x41FD JUMP JUMPDEST PUSH1 0x0 JUMPDEST DUP4 DUP2 LT ISZERO PUSH2 0x4280 JUMPI DUP2 SLOAD DUP2 DUP10 ADD MSTORE PUSH1 0x1 DUP3 ADD SWAP2 POP PUSH1 0x20 DUP2 ADD SWAP1 POP PUSH2 0x4261 JUMP JUMPDEST DUP4 DUP9 ADD SWAP6 POP POP POP JUMPDEST POP POP POP SWAP3 SWAP2 POP POP JUMP JUMPDEST PUSH1 0x0 PUSH2 0x429D DUP3 DUP5 PUSH2 0x4212 JUMP JUMPDEST SWAP2 POP DUP2 SWAP1 POP SWAP3 SWAP2 POP POP JUMP JUMPDEST PUSH32 0x596F7520617265206E6F742070617274206F66207465616D2079657420212100 PUSH1 0x0 DUP3 ADD MSTORE POP JUMP JUMPDEST PUSH1 0x0 PUSH2 0x42DE PUSH1 0x1F DUP4 PUSH2 0x3E50 JUMP JUMPDEST SWAP2 POP PUSH2 0x42E9 DUP3 PUSH2 0x42A8 JUMP JUMPDEST PUSH1 0x20 DUP3 ADD SWAP1 POP SWAP2 SWAP1 POP JUMP JUMPDEST PUSH1 0x0 PUSH1 0x20 DUP3 ADD SWAP1 POP DUP2 DUP2 SUB PUSH1 0x0 DUP4 ADD MSTORE PUSH2 0x430D DUP2 PUSH2 0x42D1 JUMP JUMPDEST SWAP1 POP SWAP2 SWAP1 POP JUMP JUMPDEST PUSH32 0x5374617475730000000000000000000000000000000000000000000000000000 PUSH1 0x0 DUP3 ADD MSTORE POP JUMP JUMPDEST PUSH1 0x0 PUSH2 0x434A PUSH1 0x6 DUP4 PUSH2 0x40AD JUMP JUMPDEST SWAP2 POP PUSH2 0x4355 DUP3 PUSH2 0x4314 JUMP JUMPDEST PUSH1 0x6 DUP3 ADD SWAP1 POP SWAP2 SWAP1 POP JUMP JUMPDEST PUSH1 0x0 PUSH2 0x436B DUP3 PUSH2 0x433D JUMP JUMPDEST SWAP2 POP DUP2 SWAP1 POP SWAP2 SWAP1 POP JUMP JUMPDEST PUSH32 0x4E487B7100000000000000000000000000000000000000000000000000000000 PUSH1 0x0 MSTORE PUSH1 0x32 PUSH1 0x4 MSTORE PUSH1 0x24 PUSH1 0x0 REVERT JUMPDEST PUSH1 0x0 DUP1 REVERT JUMPDEST PUSH1 0x0 DUP1 REVERT JUMPDEST PUSH1 0x0 DUP1 REVERT JUMPDEST PUSH1 0x0 DUP1 DUP4 CALLDATALOAD PUSH1 0x1 PUSH1 0x20 SUB DUP5 CALLDATASIZE SUB SUB DUP2 SLT PUSH2 0x43D0 JUMPI PUSH2 0x43CF PUSH2 0x43A4 JUMP JUMPDEST JUMPDEST DUP1 DUP5 ADD SWAP3 POP DUP3 CALLDATALOAD SWAP2 POP PUSH8 0xFFFFFFFFFFFFFFFF DUP3 GT ISZERO PUSH2 0x43F2 JUMPI PUSH2 0x43F1 PUSH2 0x43A9 JUMP JUMPDEST JUMPDEST PUSH1 0x20 DUP4 ADD SWAP3 POP PUSH1 0x1 DUP3 MUL CALLDATASIZE SUB DUP4 SGT ISZERO PUSH2 0x440E JUMPI PUSH2 0x440D PUSH2 0x43AE JUMP JUMPDEST JUMPDEST POP SWAP3 POP SWAP3 SWAP1 POP JUMP JUMPDEST PUSH1 0x0 PUSH2 0x4422 DUP4 DUP6 PUSH2 0x40AD JUMP JUMPDEST SWAP4 POP PUSH2 0x442F DUP4 DUP6 DUP5 PUSH2 0x36C4 JUMP JUMPDEST DUP3 DUP5 ADD SWAP1 POP SWAP4 SWAP3 POP POP POP JUMP JUMPDEST PUSH1 0x0 PUSH2 0x4448 DUP3 DUP5 DUP7 PUSH2 0x4416 JUMP JUMPDEST SWAP2 POP DUP2 SWAP1 POP SWAP4 SWAP3 POP POP POP JUMP JUMPDEST PUSH32 0x437573746F6D65722046696E616C2044656C6976657279204461746500000000 PUSH1 0x0 DUP3 ADD MSTORE POP JUMP JUMPDEST PUSH1 0x0 PUSH2 0x448A PUSH1 0x1C DUP4 PUSH2 0x40AD JUMP JUMPDEST SWAP2 POP PUSH2 0x4495 DUP3 PUSH2 0x4454 JUMP JUMPDEST PUSH1 0x1C DUP3 ADD SWAP1 POP SWAP2 SWAP1 POP JUMP JUMPDEST PUSH1 0x0 PUSH2 0x44AB DUP3 PUSH2 0x447D JUMP JUMPDEST SWAP2 POP DUP2 SWAP1 POP SWAP2 SWAP1 POP JUMP JUMPDEST PUSH32 0x426172436F646500000000000000000000000000000000000000000000000000 PUSH1 0x0 DUP3 ADD MSTORE POP JUMP JUMPDEST PUSH1 0x0 PUSH2 0x44EB PUSH1 0x7 DUP4 PUSH2 0x40AD JUMP JUMPDEST SWAP2 POP PUSH2 0x44F6 DUP3 PUSH2 0x44B5 JUMP JUMPDEST PUSH1 0x7 DUP3 ADD SWAP1 POP SWAP2 SWAP1 POP JUMP JUMPDEST PUSH1 0x0 PUSH2 0x450C DUP3 PUSH2 0x44DE JUMP JUMPDEST SWAP2 POP DUP2 SWAP1 POP SWAP2 SWAP1 POP JUMP JUMPDEST PUSH32 0x42617463684E6F00000000000000000000000000000000000000000000000000 PUSH1 0x0 DUP3 ADD MSTORE POP JUMP JUMPDEST PUSH1 0x0 PUSH2 0x454C PUSH1 0x7 DUP4 PUSH2 0x40AD JUMP JUMPDEST SWAP2 POP PUSH2 0x4557 DUP3 PUSH2 0x4516 JUMP JUMPDEST PUSH1 0x7 DUP3 ADD SWAP1 POP SWAP2 SWAP1 POP JUMP JUMPDEST PUSH1 0x0 PUSH2 0x456D DUP3 PUSH2 0x453F JUMP JUMPDEST SWAP2 POP DUP2 SWAP1 POP SWAP2 SWAP1 POP JUMP JUMPDEST PUSH32 0x4D6173746572204C6162656C0000000000000000000000000000000000000000 PUSH1 0x0 DUP3 ADD MSTORE POP JUMP JUMPDEST PUSH1 0x0 PUSH2 0x45AD PUSH1 0xC DUP4 PUSH2 0x40AD JUMP JUMPDEST SWAP2 POP PUSH2 0x45B8 DUP3 PUSH2 0x4577 JUMP JUMPDEST PUSH1 0xC DUP3 ADD SWAP1 POP SWAP2 SWAP1 POP JUMP JUMPDEST PUSH1 0x0 PUSH2 0x45CE DUP3 PUSH2 0x45A0 JUMP JUMPDEST SWAP2 POP DUP2 SWAP1 POP SWAP2 SWAP1 POP JUMP JUMPDEST PUSH32 0x496E766F69636520506174680000000000000000000000000000000000000000 PUSH1 0x0 DUP3 ADD MSTORE POP JUMP JUMPDEST PUSH1 0x0 PUSH2 0x460E PUSH1 0xC DUP4 PUSH2 0x40AD JUMP JUMPDEST SWAP2 POP PUSH2 0x4619 DUP3 PUSH2 0x45D8 JUMP JUMPDEST PUSH1 0xC DUP3 ADD SWAP1 POP SWAP2 SWAP1 POP JUMP JUMPDEST PUSH1 0x0 PUSH2 0x462F DUP3 PUSH2 0x4601 JUMP JUMPDEST SWAP2 POP DUP2 SWAP1 POP SWAP2 SWAP1 POP JUMP JUMPDEST PUSH32 0x547261636B696E67204E6F000000000000000000000000000000000000000000 PUSH1 0x0 DUP3 ADD MSTORE POP JUMP JUMPDEST PUSH1 0x0 PUSH2 0x466F PUSH1 0xB DUP4 PUSH2 0x40AD JUMP JUMPDEST SWAP2 POP PUSH2 0x467A DUP3 PUSH2 0x4639 JUMP JUMPDEST PUSH1 0xB DUP3 ADD SWAP1 POP SWAP2 SWAP1 POP JUMP JUMPDEST PUSH1 0x0 PUSH2 0x4690 DUP3 PUSH2 0x4662 JUMP JUMPDEST SWAP2 POP DUP2 SWAP1 POP SWAP2 SWAP1 POP JUMP JUMPDEST PUSH32 0x4E487B7100000000000000000000000000000000000000000000000000000000 PUSH1 0x0 MSTORE PUSH1 0x11 PUSH1 0x4 MSTORE PUSH1 0x24 PUSH1 0x0 REVERT JUMPDEST PUSH1 0x0 PUSH2 0x46D4 DUP3 PUSH2 0x3814 JUMP JUMPDEST SWAP2 POP PUSH32 0xFFFFFFFFFFFFFFFFFFFFFFFFFFFFFFFFFFFFFFFFFFFFFFFFFFFFFFFFFFFFFFFF DUP3 EQ ISZERO PUSH2 0x4707 JUMPI PUSH2 0x4706 PUSH2 0x469A JUMP JUMPDEST JUMPDEST PUSH1 0x1 DUP3 ADD SWAP1 POP SWAP2 SWAP1 POP JUMP JUMPDEST PUSH1 0x0 PUSH2 0x471D DUP3 PUSH2 0x3814 JUMP JUMPDEST SWAP2 POP PUSH2 0x4728 DUP4 PUSH2 0x3814 JUMP JUMPDEST SWAP3 POP DUP3 DUP3 LT ISZERO PUSH2 0x473B JUMPI PUSH2 0x473A PUSH2 0x469A JUMP JUMPDEST JUMPDEST DUP3 DUP3 SUB SWAP1 POP SWAP3 SWAP2 POP POP JUMP JUMPDEST PUSH32 0x534F000000000000000000000000000000000000000000000000000000000000 DUP2 MSTORE POP JUMP JUMPDEST PUSH1 0x0 PUSH2 0x4777 DUP3 PUSH2 0x4746 JUMP JUMPDEST PUSH1 0x2 DUP3 ADD SWAP2 POP PUSH2 0x4787 DUP3 DUP5 PUSH2 0x4119 JUMP JUMPDEST SWAP2 POP DUP2 SWAP1 POP SWAP3 SWAP2 POP POP JUMP JUMPDEST PUSH1 0x0 PUSH2 0x479D DUP3 PUSH2 0x3814 JUMP JUMPDEST SWAP2 POP PUSH2 0x47A8 DUP4 PUSH2 0x3814 JUMP JUMPDEST SWAP3 POP DUP3 PUSH32 0xFFFFFFFFFFFFFFFFFFFFFFFFFFFFFFFFFFFFFFFFFFFFFFFFFFFFFFFFFFFFFFFF SUB DUP3 GT ISZERO PUSH2 0x47DD JUMPI PUSH2 0x47DC PUSH2 0x469A JUMP JUMPDEST JUMPDEST DUP3 DUP3 ADD SWAP1 POP SWAP3 SWAP2 POP POP JUMP JUMPDEST PUSH1 0x0 DUP2 PUSH1 0x1 SHR SWAP1 POP SWAP2 SWAP1 POP JUMP JUMPDEST PUSH1 0x0 DUP1 DUP3 SWAP2 POP DUP4 SWAP1 POP JUMPDEST PUSH1 0x1 DUP6 GT ISZERO PUSH2 0x483F JUMPI DUP1 DUP7 DIV DUP2 GT ISZERO PUSH2 0x481B JUMPI PUSH2 0x481A PUSH2 0x469A JUMP JUMPDEST JUMPDEST PUSH1 0x1 DUP6 AND ISZERO PUSH2 0x482A JUMPI DUP1 DUP3 MUL SWAP2 POP JUMPDEST DUP1 DUP2 MUL SWAP1 POP PUSH2 0x4838 DUP6 PUSH2 0x47E8 JUMP JUMPDEST SWAP5 POP PUSH2 0x47FF JUMP JUMPDEST SWAP5 POP SWAP5 SWAP3 POP POP POP JUMP JUMPDEST PUSH1 0x0 DUP3 PUSH2 0x4858 JUMPI PUSH1 0x1 SWAP1 POP PUSH2 0x4914 JUMP JUMPDEST DUP2 PUSH2 0x4866 JUMPI PUSH1 0x0 SWAP1 POP PUSH2 0x4914 JUMP JUMPDEST DUP2 PUSH1 0x1 DUP2 EQ PUSH2 0x487C JUMPI PUSH1 0x2 DUP2 EQ PUSH2 0x4886 JUMPI PUSH2 0x48B5 JUMP JUMPDEST PUSH1 0x1 SWAP2 POP POP PUSH2 0x4914 JUMP JUMPDEST PUSH1 0xFF DUP5 GT ISZERO PUSH2 0x4898 JUMPI PUSH2 0x4897 PUSH2 0x469A JUMP JUMPDEST JUMPDEST DUP4 PUSH1 0x2 EXP SWAP2 POP DUP5 DUP3 GT ISZERO PUSH2 0x48AF JUMPI PUSH2 0x48AE PUSH2 0x469A JUMP JUMPDEST JUMPDEST POP PUSH2 0x4914 JUMP JUMPDEST POP PUSH1 0x20 DUP4 LT PUSH2 0x133 DUP4 LT AND PUSH1 0x4E DUP5 LT PUSH1 0xB DUP5 LT AND OR ISZERO PUSH2 0x48EA JUMPI DUP3 DUP3 EXP SWAP1 POP DUP4 DUP2 GT ISZERO PUSH2 0x48E5 JUMPI PUSH2 0x48E4 PUSH2 0x469A JUMP JUMPDEST JUMPDEST PUSH2 0x4914 JUMP JUMPDEST PUSH2 0x48F7 DUP5 DUP5 DUP5 PUSH1 0x1 PUSH2 0x47F5 JUMP JUMPDEST SWAP3 POP SWAP1 POP DUP2 DUP5 DIV DUP2 GT ISZERO PUSH2 0x490E JUMPI PUSH2 0x490D PUSH2 0x469A JUMP JUMPDEST JUMPDEST DUP2 DUP2 MUL SWAP1 POP JUMPDEST SWAP4 SWAP3 POP POP POP JUMP JUMPDEST PUSH1 0x0 PUSH2 0x4926 DUP3 PUSH2 0x3814 JUMP JUMPDEST SWAP2 POP PUSH2 0x4931 DUP4 PUSH2 0x3814 JUMP JUMPDEST SWAP3 POP PUSH2 0x495E PUSH32 0xFFFFFFFFFFFFFFFFFFFFFFFFFFFFFFFFFFFFFFFFFFFFFFFFFFFFFFFFFFFFFFFF DUP5 DUP5 PUSH2 0x4848 JUMP JUMPDEST SWAP1 POP SWAP3 SWAP2 POP POP JUMP JUMPDEST PUSH1 0x0 PUSH2 0x4971 DUP3 PUSH2 0x3814 JUMP JUMPDEST SWAP2 POP PUSH2 0x497C DUP4 PUSH2 0x3814 JUMP JUMPDEST SWAP3 POP DUP2 PUSH32 0xFFFFFFFFFFFFFFFFFFFFFFFFFFFFFFFFFFFFFFFFFFFFFFFFFFFFFFFFFFFFFFFF DIV DUP4 GT DUP3 ISZERO ISZERO AND ISZERO PUSH2 0x49B5 JUMPI PUSH2 0x49B4 PUSH2 0x469A JUMP JUMPDEST JUMPDEST DUP3 DUP3 MUL SWAP1 POP SWAP3 SWAP2 POP POP JUMP JUMPDEST PUSH32 0x4E756C6C206163636F756E7420697320636F6D696E672066726F6D2066726F6E PUSH1 0x0 DUP3 ADD MSTORE PUSH32 0x742D656E64202121000000000000000000000000000000000000000000000000 PUSH1 0x20 DUP3 ADD MSTORE POP JUMP JUMPDEST PUSH1 0x0 PUSH2 0x4A1C PUSH1 0x28 DUP4 PUSH2 0x3E50 JUMP JUMPDEST SWAP2 POP PUSH2 0x4A27 DUP3 PUSH2 0x49C0 JUMP JUMPDEST PUSH1 0x40 DUP3 ADD SWAP1 POP SWAP2 SWAP1 POP JUMP JUMPDEST PUSH1 0x0 PUSH1 0x20 DUP3 ADD SWAP1 POP DUP2 DUP2 SUB PUSH1 0x0 DUP4 ADD MSTORE PUSH2 0x4A4B DUP2 PUSH2 0x4A0F JUMP JUMPDEST SWAP1 POP SWAP2 SWAP1 POP JUMP JUMPDEST PUSH32 0x4F776E61626C653A206E6577206F776E657220697320746865207A65726F2061 PUSH1 0x0 DUP3 ADD MSTORE PUSH32 0x6464726573730000000000000000000000000000000000000000000000000000 PUSH1 0x20 DUP3 ADD MSTORE POP JUMP JUMPDEST PUSH1 0x0 PUSH2 0x4AAE PUSH1 0x26 DUP4 PUSH2 0x3E50 JUMP JUMPDEST SWAP2 POP PUSH2 0x4AB9 DUP3 PUSH2 0x4A52 JUMP JUMPDEST PUSH1 0x40 DUP3 ADD SWAP1 POP SWAP2 SWAP1 POP JUMP JUMPDEST PUSH1 0x0 PUSH1 0x20 DUP3 ADD SWAP1 POP DUP2 DUP2 SUB PUSH1 0x0 DUP4 ADD MSTORE PUSH2 0x4ADD DUP2 PUSH2 0x4AA1 JUMP JUMPDEST SWAP1 POP SWAP2 SWAP1 POP JUMP JUMPDEST PUSH32 0x53616C657320526570726573656E746174697665000000000000000000000000 PUSH1 0x0 DUP3 ADD MSTORE POP JUMP JUMPDEST PUSH1 0x0 PUSH2 0x4B1A PUSH1 0x14 DUP4 PUSH2 0x40AD JUMP JUMPDEST SWAP2 POP PUSH2 0x4B25 DUP3 PUSH2 0x4AE4 JUMP JUMPDEST PUSH1 0x14 DUP3 ADD SWAP1 POP SWAP2 SWAP1 POP JUMP JUMPDEST PUSH1 0x0 PUSH2 0x4B3B DUP3 PUSH2 0x4B0D JUMP JUMPDEST SWAP2 POP DUP2 SWAP1 POP SWAP2 SWAP1 POP JUMP JUMPDEST PUSH32 0x596F7520617265206E6F7420612053616C657320526570202121000000000000 PUSH1 0x0 DUP3 ADD MSTORE POP JUMP JUMPDEST PUSH1 0x0 PUSH2 0x4B7B PUSH1 0x1A DUP4 PUSH2 0x3E50 JUMP JUMPDEST SWAP2 POP PUSH2 0x4B86 DUP3 PUSH2 0x4B45 JUMP JUMPDEST PUSH1 0x20 DUP3 ADD SWAP1 POP SWAP2 SWAP1 POP JUMP JUMPDEST PUSH1 0x0 PUSH1 0x20 DUP3 ADD SWAP1 POP DUP2 DUP2 SUB PUSH1 0x0 DUP4 ADD MSTORE PUSH2 0x4BAA DUP2 PUSH2 0x4B6E JUMP JUMPDEST SWAP1 POP SWAP2 SWAP1 POP JUMP JUMPDEST PUSH32 0x504F000000000000000000000000000000000000000000000000000000000000 DUP2 MSTORE POP JUMP JUMPDEST PUSH1 0x0 PUSH2 0x4BE2 DUP3 PUSH2 0x4BB1 JUMP JUMPDEST PUSH1 0x2 DUP3 ADD SWAP2 POP PUSH2 0x4BF2 DUP3 DUP5 PUSH2 0x4119 JUMP JUMPDEST SWAP2 POP DUP2 SWAP1 POP SWAP3 SWAP2 POP POP JUMP JUMPDEST PUSH32 0x4E487B7100000000000000000000000000000000000000000000000000000000 PUSH1 0x0 MSTORE PUSH1 0x12 PUSH1 0x4 MSTORE PUSH1 0x24 PUSH1 0x0 REVERT JUMPDEST PUSH32 0x4F776E61626C653A2063616C6C6572206973206E6F7420746865206F776E6572 PUSH1 0x0 DUP3 ADD MSTORE POP JUMP JUMPDEST PUSH1 0x0 PUSH2 0x4C62 PUSH1 0x20 DUP4 PUSH2 0x3E50 JUMP JUMPDEST SWAP2 POP PUSH2 0x4C6D DUP3 PUSH2 0x4C2C JUMP JUMPDEST PUSH1 0x20 DUP3 ADD SWAP1 POP SWAP2 SWAP1 POP JUMP JUMPDEST PUSH1 0x0 PUSH1 0x20 DUP3 ADD SWAP1 POP DUP2 DUP2 SUB PUSH1 0x0 DUP4 ADD MSTORE PUSH2 0x4C91 DUP2 PUSH2 0x4C55 JUMP JUMPDEST SWAP1 POP SWAP2 SWAP1 POP JUMP INVALID LOG2 PUSH5 0x6970667358 0x22 SLT KECCAK256 0xCD 0xC5 GAS 0xBE ADDRESS 0xAB 0xD7 0xF8 EXTCODESIZE 0xC3 CALLDATALOAD 0xEF RETURN 0xAB PUSH12 0x92D921583B69054D4C90992D CALLER 0xC1 TIMESTAMP DUP1 PUSH20 0x64736F6C634300080C0033000000000000000000 "},"methodIdentifiers":{"addRole(address,string)":"7d72aa65","createOrder(string,uint256,uint256,string)":"fb0a9a6d","getAllOrderDetails()":"6bc184b4","getOrderDetails(string)":"4fbb487c","getRole()":"fde08174","getcurrentSOId()":"d76d89fb","orderData(string)":"e393f263","orders(uint256)":"a85c38ef","owner()":"8da5cb5b","renounceOwnership()":"715018a6","roles(address)":"99374642","st2num(string)":"79cd9055","transferOwnership(address)":"f2fde38b","update(string,string[],string[])":"5a553855"}},"storageLayout":{"storage":[{"astId":7,"contract":"contracts/SupplyChain.sol:SupplyChain","label":"_owner","offset":0,"slot":"0","type":"t_address"},{"astId":1182,"contract":"contracts/SupplyChain.sol:SupplyChain","label":"so_ID","offset":0,"slot":"1","type":"t_uint256"},{"astId":1184,"contract":"contracts/SupplyChain.sol:SupplyChain","label":"start_so_ID","offset":0,"slot":"2","type":"t_uint256"},{"astId":1214,"contract":"contracts/SupplyChain.sol:SupplyChain","label":"orderData","offset":0,"slot":"3","type":"t_mapping(t_string_memory_ptr,t_struct(Order)1209_storage)"},{"astId":1218,"contract":"contracts/SupplyChain.sol:SupplyChain","label":"orders","offset":0,"slot":"4","type":"t_array(t_struct(Order)1209_storage)dyn_storage"},{"astId":1222,"contract":"contracts/SupplyChain.sol:SupplyChain","label":"roles","offset":0,"slot":"5","type":"t_mapping(t_address,t_string_storage)"}],"types":{"t_address":{"encoding":"inplace","label":"address","numberOfBytes":"20"},"t_array(t_struct(Order)1209_storage)dyn_storage":{"base":"t_struct(Order)1209_storage","encoding":"dynamic_array","label":"struct SupplyChain.Order[]","numberOfBytes":"32"},"t_mapping(t_address,t_string_storage)":{"encoding":"mapping","key":"t_address","label":"mapping(address => string)","numberOfBytes":"32","value":"t_string_storage"},"t_mapping(t_string_memory_ptr,t_struct(Order)1209_storage)":{"encoding":"mapping","key":"t_string_memory_ptr","label":"mapping(string => struct SupplyChain.Order)","numberOfBytes":"32","value":"t_struct(Order)1209_storage"},"t_string_memory_ptr":{"encoding":"bytes","label":"string","numberOfBytes":"32"},"t_string_storage":{"encoding":"bytes","label":"string","numberOfBytes":"32"},"t_struct(Order)1209_storage":{"encoding":"inplace","label":"struct SupplyChain.Order","members":[{"astId":1186,"contract":"contracts/SupplyChain.sol:SupplyChain","label":"SoID","offset":0,"slot":"0","type":"t_string_storage"},{"astId":1188,"contract":"contracts/SupplyChain.sol:SupplyChain","label":"PoID","offset":0,"slot":"1","type":"t_string_storage"},{"astId":1190,"contract":"contracts/SupplyChain.sol:SupplyChain","label":"prodName","offset":0,"slot":"2","type":"t_string_storage"},{"astId":1192,"contract":"contracts/SupplyChain.sol:SupplyChain","label":"qty","offset":0,"slot":"3","type":"t_uint256"},{"astId":1194,"contract":"contracts/SupplyChain.sol:SupplyChain","label":"orderValue","offset":0,"slot":"4","type":"t_uint256"},{"astId":1196,"contract":"contracts/SupplyChain.sol:SupplyChain","label":"customerFinalDeliveryDate","offset":0,"slot":"5","type":"t_uint256"},{"astId":1198,"contract":"contracts/SupplyChain.sol:SupplyChain","label":"status","offset":0,"slot":"6","type":"t_string_storage"},{"astId":1200,"contract":"contracts/SupplyChain.sol:SupplyChain","label":"barCode","offset":0,"slot":"7","type":"t_string_storage"},{"astId":1202,"contract":"contracts/SupplyChain.sol:SupplyChain","label":"batchNo","offset":0,"slot":"8","type":"t_string_storage"},{"astId":1204,"contract":"contracts/SupplyChain.sol:SupplyChain","label":"masterLabel","offset":0,"slot":"9","type":"t_string_storage"},{"astId":1206,"contract":"contracts/SupplyChain.sol:SupplyChain","label":"invoicePath","offset":0,"slot":"10","type":"t_string_storage"},{"astId":1208,"contract":"contracts/SupplyChain.sol:SupplyChain","label":"trackingNo","offset":0,"slot":"11","type":"t_string_storage"}],"numberOfBytes":"384"},"t_uint256":{"encoding":"inplace","label":"uint256","numberOfBytes":"32"}}}}}}