{"contracts/SupplyChain.sol":{"SupplyChain":{"abi":[{"inputs":[{"internalType":"uint256","name":"gatekeeperNetwork","type":"uint256"}],"stateMutability":"nonpayable","type":"constructor"},{"inputs":[{"internalType":"address","name":"gatewayToken","type":"address"}],"name":"IsGated__InvalidGatewayToken","type":"error"},{"anonymous":false,"inputs":[{"indexed":false,"internalType":"string","name":"_soId","type":"string"}],"name":"GetSoID","type":"event"},{"anonymous":false,"inputs":[{"indexed":true,"internalType":"address","name":"previousOwner","type":"address"},{"indexed":true,"internalType":"address","name":"newOwner","type":"address"}],"name":"OwnershipTransferred","type":"event"},{"inputs":[{"internalType":"address","name":"_account","type":"address"},{"internalType":"string","name":"role","type":"string"}],"name":"addRole","outputs":[],"stateMutability":"nonpayable","type":"function"},{"inputs":[{"internalType":"string","name":"_prodName","type":"string"},{"internalType":"uint256","name":"_qty","type":"uint256"},{"internalType":"uint256","name":"_ordrVal","type":"uint256"},{"internalType":"string","name":"_status","type":"string"}],"name":"createOrder","outputs":[],"stateMutability":"nonpayable","type":"function"},{"inputs":[],"name":"getAllOrderDetails","outputs":[{"components":[{"internalType":"string","name":"SoID","type":"string"},{"internalType":"string","name":"PoID","type":"string"},{"internalType":"string","name":"prodName","type":"string"},{"internalType":"uint256","name":"qty","type":"uint256"},{"internalType":"uint256","name":"orderValue","type":"uint256"},{"internalType":"uint256","name":"customerFinalDeliveryDate","type":"uint256"},{"internalType":"string","name":"status","type":"string"},{"internalType":"string","name":"barCode","type":"string"},{"internalType":"string","name":"batchNo","type":"string"},{"internalType":"string","name":"masterLabel","type":"string"},{"internalType":"string","name":"invoicePath","type":"string"},{"internalType":"string","name":"trackingNo","type":"string"}],"internalType":"struct SupplyChain.Order[]","name":"","type":"tuple[]"}],"stateMutability":"view","type":"function"},{"inputs":[{"internalType":"string","name":"_soOrPo","type":"string"}],"name":"getOrderDetails","outputs":[{"components":[{"internalType":"string","name":"SoID","type":"string"},{"internalType":"string","name":"PoID","type":"string"},{"internalType":"string","name":"prodName","type":"string"},{"internalType":"uint256","name":"qty","type":"uint256"},{"internalType":"uint256","name":"orderValue","type":"uint256"},{"internalType":"uint256","name":"customerFinalDeliveryDate","type":"uint256"},{"internalType":"string","name":"status","type":"string"},{"internalType":"string","name":"barCode","type":"string"},{"internalType":"string","name":"batchNo","type":"string"},{"internalType":"string","name":"masterLabel","type":"string"},{"internalType":"string","name":"invoicePath","type":"string"},{"internalType":"string","name":"trackingNo","type":"string"}],"internalType":"struct SupplyChain.Order","name":"","type":"tuple"}],"stateMutability":"view","type":"function"},{"inputs":[],"name":"getRole","outputs":[{"internalType":"string","name":"","type":"string"}],"stateMutability":"view","type":"function"},{"inputs":[{"internalType":"string","name":"","type":"string"}],"name":"orderData","outputs":[{"internalType":"string","name":"SoID","type":"string"},{"internalType":"string","name":"PoID","type":"string"},{"internalType":"string","name":"prodName","type":"string"},{"internalType":"uint256","name":"qty","type":"uint256"},{"internalType":"uint256","name":"orderValue","type":"uint256"},{"internalType":"uint256","name":"customerFinalDeliveryDate","type":"uint256"},{"internalType":"string","name":"status","type":"string"},{"internalType":"string","name":"barCode","type":"string"},{"internalType":"string","name":"batchNo","type":"string"},{"internalType":"string","name":"masterLabel","type":"string"},{"internalType":"string","name":"invoicePath","type":"string"},{"internalType":"string","name":"trackingNo","type":"string"}],"stateMutability":"view","type":"function"},{"inputs":[{"internalType":"uint256","name":"","type":"uint256"}],"name":"orders","outputs":[{"internalType":"string","name":"SoID","type":"string"},{"internalType":"string","name":"PoID","type":"string"},{"internalType":"string","name":"prodName","type":"string"},{"internalType":"uint256","name":"qty","type":"uint256"},{"internalType":"uint256","name":"orderValue","type":"uint256"},{"internalType":"uint256","name":"customerFinalDeliveryDate","type":"uint256"},{"internalType":"string","name":"status","type":"string"},{"internalType":"string","name":"barCode","type":"string"},{"internalType":"string","name":"batchNo","type":"string"},{"internalType":"string","name":"masterLabel","type":"string"},{"internalType":"string","name":"invoicePath","type":"string"},{"internalType":"string","name":"trackingNo","type":"string"}],"stateMutability":"view","type":"function"},{"inputs":[],"name":"owner","outputs":[{"internalType":"address","name":"","type":"address"}],"stateMutability":"view","type":"function"},{"inputs":[],"name":"renounceOwnership","outputs":[],"stateMutability":"nonpayable","type":"function"},{"inputs":[{"internalType":"address","name":"","type":"address"}],"name":"roles","outputs":[{"internalType":"string","name":"","type":"string"}],"stateMutability":"view","type":"function"},{"inputs":[{"internalType":"string","name":"numString","type":"string"}],"name":"st2num","outputs":[{"internalType":"uint256","name":"","type":"uint256"}],"stateMutability":"pure","type":"function"},{"inputs":[{"internalType":"address","name":"newOwner","type":"address"}],"name":"transferOwnership","outputs":[],"stateMutability":"nonpayable","type":"function"},{"inputs":[{"internalType":"string","name":"_so","type":"string"},{"internalType":"string[]","name":"colName","type":"string[]"},{"internalType":"string[]","name":"_value","type":"string[]"}],"name":"update","outputs":[],"stateMutability":"nonpayable","type":"function"}],"evm":{"bytecode":{"linkReferences":{},"object":"60806040523480156200001157600080fd5b5060405162004e8338038062004e838339818101604052810190620000379190620001dc565b73f65b6396df6b7e2d8a6270e3ab6c7bb08baef22e816200006d62000061620000d060201b60201c565b620000d860201b60201c565b81600160006101000a81548173ffffffffffffffffffffffffffffffffffffffff021916908373ffffffffffffffffffffffffffffffffffffffff160217905550806002819055505050614094600381905550614094600481905550506200020e565b600033905090565b60008060009054906101000a900473ffffffffffffffffffffffffffffffffffffffff169050816000806101000a81548173ffffffffffffffffffffffffffffffffffffffff021916908373ffffffffffffffffffffffffffffffffffffffff1602179055508173ffffffffffffffffffffffffffffffffffffffff168173ffffffffffffffffffffffffffffffffffffffff167f8be0079c531659141344cd1fd0a4f28419497f9722a3daafe3b4186f6b6457e060405160405180910390a35050565b600080fd5b6000819050919050565b620001b681620001a1565b8114620001c257600080fd5b50565b600081519050620001d681620001ab565b92915050565b600060208284031215620001f557620001f46200019c565b5b60006200020584828501620001c5565b91505092915050565b614c65806200021e6000396000f3fe608060405234801561001057600080fd5b50600436106100cf5760003560e01c80638da5cb5b1161008c578063e393f26311610066578063e393f2631461021d578063f2fde38b14610258578063fb0a9a6d14610274578063fde0817414610290576100cf565b80638da5cb5b1461019457806399374642146101b2578063a85c38ef146101e2576100cf565b80634fbb487c146100d45780635a553855146101045780636bc184b414610120578063715018a61461013e57806379cd9055146101485780637d72aa6514610178575b600080fd5b6100ee60048036038101906100e991906136da565b6102ae565b6040516100fb9190613900565b60405180910390f35b61011e600480360381019061011991906139d8565b610dfb565b005b6101286114f1565b6040516101359190613c8a565b60405180910390f35b610146611b53565b005b610162600480360381019061015d91906136da565b611b67565b60405161016f9190613cbb565b60405180910390f35b610192600480360381019061018d9190613d34565b611c21565b005b61019c611cf3565b6040516101a99190613d9f565b60405180910390f35b6101cc60048036038101906101c79190613dba565b611d1c565b6040516101d99190613e31565b60405180910390f35b6101fc60048036038101906101f79190613e7f565b611dbc565b6040516102149c9b9a99989796959493929190613eac565b60405180910390f35b610237600480360381019061023291906136da565b6122f4565b60405161024f9c9b9a99989796959493929190613eac565b60405180910390f35b610272600480360381019061026d9190613dba565b612832565b005b61028e60048036038101906102899190613fa5565b6128b6565b005b610298612d70565b6040516102a59190613e31565b60405180910390f35b6102b66133f6565b6040516020016102c59061409b565b604051602081830303815290604052805190602001206102e483612e3f565b6040516020016102f491906140e1565b6040516020818303038152906040528051906020012014156108815760058260405161032091906140e1565b90815260200160405180910390206040518061018001604052908160008201805461034a90614127565b80601f016020809104026020016040519081016040528092919081815260200182805461037690614127565b80156103c35780601f10610398576101008083540402835291602001916103c3565b820191906000526020600020905b8154815290600101906020018083116103a657829003601f168201915b505050505081526020016001820180546103dc90614127565b80601f016020809104026020016040519081016040528092919081815260200182805461040890614127565b80156104555780601f1061042a57610100808354040283529160200191610455565b820191906000526020600020905b81548152906001019060200180831161043857829003601f168201915b5050505050815260200160028201805461046e90614127565b80601f016020809104026020016040519081016040528092919081815260200182805461049a90614127565b80156104e75780601f106104bc576101008083540402835291602001916104e7565b820191906000526020600020905b8154815290600101906020018083116104ca57829003601f168201915b5050505050815260200160038201548152602001600482015481526020016005820154815260200160068201805461051e90614127565b80601f016020809104026020016040519081016040528092919081815260200182805461054a90614127565b80156105975780601f1061056c57610100808354040283529160200191610597565b820191906000526020600020905b81548152906001019060200180831161057a57829003601f168201915b505050505081526020016007820180546105b090614127565b80601f01602080910402602001604051908101604052809291908181526020018280546105dc90614127565b80156106295780601f106105fe57610100808354040283529160200191610629565b820191906000526020600020905b81548152906001019060200180831161060c57829003601f168201915b5050505050815260200160088201805461064290614127565b80601f016020809104026020016040519081016040528092919081815260200182805461066e90614127565b80156106bb5780601f10610690576101008083540402835291602001916106bb565b820191906000526020600020905b81548152906001019060200180831161069e57829003601f168201915b505050505081526020016009820180546106d490614127565b80601f016020809104026020016040519081016040528092919081815260200182805461070090614127565b801561074d5780601f106107225761010080835404028352916020019161074d565b820191906000526020600020905b81548152906001019060200180831161073057829003601f168201915b50505050508152602001600a8201805461076690614127565b80601f016020809104026020016040519081016040528092919081815260200182805461079290614127565b80156107df5780601f106107b4576101008083540402835291602001916107df565b820191906000526020600020905b8154815290600101906020018083116107c257829003601f168201915b50505050508152602001600b820180546107f890614127565b80601f016020809104026020016040519081016040528092919081815260200182805461082490614127565b80156108715780601f1061084657610100808354040283529160200191610871565b820191906000526020600020905b81548152906001019060200180831161085457829003601f168201915b5050505050815250509050610df6565b600561088c83612efe565b60405161089991906140e1565b9081526020016040518091039020604051806101800160405290816000820180546108c390614127565b80601f01602080910402602001604051908101604052809291908181526020018280546108ef90614127565b801561093c5780601f106109115761010080835404028352916020019161093c565b820191906000526020600020905b81548152906001019060200180831161091f57829003601f168201915b5050505050815260200160018201805461095590614127565b80601f016020809104026020016040519081016040528092919081815260200182805461098190614127565b80156109ce5780601f106109a3576101008083540402835291602001916109ce565b820191906000526020600020905b8154815290600101906020018083116109b157829003601f168201915b505050505081526020016002820180546109e790614127565b80601f0160208091040260200160405190810160405280929190818152602001828054610a1390614127565b8015610a605780601f10610a3557610100808354040283529160200191610a60565b820191906000526020600020905b815481529060010190602001808311610a4357829003601f168201915b50505050508152602001600382015481526020016004820154815260200160058201548152602001600682018054610a9790614127565b80601f0160208091040260200160405190810160405280929190818152602001828054610ac390614127565b8015610b105780601f10610ae557610100808354040283529160200191610b10565b820191906000526020600020905b815481529060010190602001808311610af357829003601f168201915b50505050508152602001600782018054610b2990614127565b80601f0160208091040260200160405190810160405280929190818152602001828054610b5590614127565b8015610ba25780601f10610b7757610100808354040283529160200191610ba2565b820191906000526020600020905b815481529060010190602001808311610b8557829003601f168201915b50505050508152602001600882018054610bbb90614127565b80601f0160208091040260200160405190810160405280929190818152602001828054610be790614127565b8015610c345780601f10610c0957610100808354040283529160200191610c34565b820191906000526020600020905b815481529060010190602001808311610c1757829003601f168201915b50505050508152602001600982018054610c4d90614127565b80601f0160208091040260200160405190810160405280929190818152602001828054610c7990614127565b8015610cc65780601f10610c9b57610100808354040283529160200191610cc6565b820191906000526020600020905b815481529060010190602001808311610ca957829003601f168201915b50505050508152602001600a82018054610cdf90614127565b80601f0160208091040260200160405190810160405280929190818152602001828054610d0b90614127565b8015610d585780601f10610d2d57610100808354040283529160200191610d58565b820191906000526020600020905b815481529060010190602001808311610d3b57829003601f168201915b50505050508152602001600b82018054610d7190614127565b80601f0160208091040260200160405190810160405280929190818152602001828054610d9d90614127565b8015610dea5780601f10610dbf57610100808354040283529160200191610dea565b820191906000526020600020905b815481529060010190602001808311610dcd57829003601f168201915b50505050508152505090505b919050565b604051602001610e0a9061417f565b60405160208183030381529060405280519060200120600760003373ffffffffffffffffffffffffffffffffffffffff1673ffffffffffffffffffffffffffffffffffffffff168152602001908152602001600020604051602001610e6f9190614228565b604051602081830303815290604052805190602001201415610ec6576040517f08c379a0000000000000000000000000000000000000000000000000000000008152600401610ebd9061428b565b60405180910390fd5b60005b848490508110156114e857604051602001610ee3906142f7565b60405160208183030381529060405280519060200120858583818110610f0c57610f0b61430c565b5b9050602002810190610f1e919061434a565b604051602001610f2f9291906143d2565b604051602081830303815290604052805190602001201415610fa657828282818110610f5e57610f5d61430c565b5b9050602002810190610f70919061434a565b60058989604051610f829291906143d2565b90815260200160405180910390206006019190610fa0929190613457565b506114d5565b604051602001610fb590614437565b60405160208183030381529060405280519060200120858583818110610fde57610fdd61430c565b5b9050602002810190610ff0919061434a565b6040516020016110019291906143d2565b6040516020818303038152906040528051906020012014156110b95761108d8383838181106110335761103261430c565b5b9050602002810190611045919061434a565b8080601f016020809104026020016040519081016040528093929190818152602001838380828437600081840152601f19601f82011690508083019250505050505050611b67565b6005888860405161109f9291906143d2565b9081526020016040518091039020600501819055506114d4565b6040516020016110c890614498565b604051602081830303815290604052805190602001208585838181106110f1576110f061430c565b5b9050602002810190611103919061434a565b6040516020016111149291906143d2565b60405160208183030381529060405280519060200120141561118b578282828181106111435761114261430c565b5b9050602002810190611155919061434a565b600589896040516111679291906143d2565b90815260200160405180910390206007019190611185929190613457565b506114d3565b60405160200161119a906144f9565b604051602081830303815290604052805190602001208585838181106111c3576111c261430c565b5b90506020028101906111d5919061434a565b6040516020016111e69291906143d2565b60405160208183030381529060405280519060200120141561125d578282828181106112155761121461430c565b5b9050602002810190611227919061434a565b600589896040516112399291906143d2565b90815260200160405180910390206008019190611257929190613457565b506114d2565b60405160200161126c9061455a565b604051602081830303815290604052805190602001208585838181106112955761129461430c565b5b90506020028101906112a7919061434a565b6040516020016112b89291906143d2565b60405160208183030381529060405280519060200120141561132f578282828181106112e7576112e661430c565b5b90506020028101906112f9919061434a565b6005898960405161130b9291906143d2565b90815260200160405180910390206009019190611329929190613457565b506114d1565b60405160200161133e906145bb565b604051602081830303815290604052805190602001208585838181106113675761136661430c565b5b9050602002810190611379919061434a565b60405160200161138a9291906143d2565b604051602081830303815290604052805190602001201415611401578282828181106113b9576113b861430c565b5b90506020028101906113cb919061434a565b600589896040516113dd9291906143d2565b9081526020016040518091039020600a0191906113fb929190613457565b506114d0565b6040516020016114109061461c565b604051602081830303815290604052805190602001208585838181106114395761143861430c565b5b905060200281019061144b919061434a565b60405160200161145c9291906143d2565b6040516020818303038152906040528051906020012014156114cf5782828281811061148b5761148a61430c565b5b905060200281019061149d919061434a565b600589896040516114af9291906143d2565b9081526020016040518091039020600b0191906114cd929190613457565b505b5b5b5b5b5b5b80806114e090614660565b915050610ec9565b50505050505050565b60606000600354905060008060045460035461150d91906146a9565b67ffffffffffffffff811115611526576115256135af565b5b60405190808252806020026020018201604052801561155f57816020015b61154c6133f6565b8152602001906001900390816115445790505b509050600060045490505b83811015611b49576000600561157f83613081565b60405160200161158f9190614703565b6040516020818303038152906040526040516115ab91906140e1565b9081526020016040518091039020905080604051806101800160405290816000820180546115d890614127565b80601f016020809104026020016040519081016040528092919081815260200182805461160490614127565b80156116515780601f1061162657610100808354040283529160200191611651565b820191906000526020600020905b81548152906001019060200180831161163457829003601f168201915b5050505050815260200160018201805461166a90614127565b80601f016020809104026020016040519081016040528092919081815260200182805461169690614127565b80156116e35780601f106116b8576101008083540402835291602001916116e3565b820191906000526020600020905b8154815290600101906020018083116116c657829003601f168201915b505050505081526020016002820180546116fc90614127565b80601f016020809104026020016040519081016040528092919081815260200182805461172890614127565b80156117755780601f1061174a57610100808354040283529160200191611775565b820191906000526020600020905b81548152906001019060200180831161175857829003601f168201915b505050505081526020016003820154815260200160048201548152602001600582015481526020016006820180546117ac90614127565b80601f01602080910402602001604051908101604052809291908181526020018280546117d890614127565b80156118255780601f106117fa57610100808354040283529160200191611825565b820191906000526020600020905b81548152906001019060200180831161180857829003601f168201915b5050505050815260200160078201805461183e90614127565b80601f016020809104026020016040519081016040528092919081815260200182805461186a90614127565b80156118b75780601f1061188c576101008083540402835291602001916118b7565b820191906000526020600020905b81548152906001019060200180831161189a57829003601f168201915b505050505081526020016008820180546118d090614127565b80601f01602080910402602001604051908101604052809291908181526020018280546118fc90614127565b80156119495780601f1061191e57610100808354040283529160200191611949565b820191906000526020600020905b81548152906001019060200180831161192c57829003601f168201915b5050505050815260200160098201805461196290614127565b80601f016020809104026020016040519081016040528092919081815260200182805461198e90614127565b80156119db5780601f106119b0576101008083540402835291602001916119db565b820191906000526020600020905b8154815290600101906020018083116119be57829003601f168201915b50505050508152602001600a820180546119f490614127565b80601f0160208091040260200160405190810160405280929190818152602001828054611a2090614127565b8015611a6d5780601f10611a4257610100808354040283529160200191611a6d565b820191906000526020600020905b815481529060010190602001808311611a5057829003601f168201915b50505050508152602001600b82018054611a8690614127565b80601f0160208091040260200160405190810160405280929190818152602001828054611ab290614127565b8015611aff5780601f10611ad457610100808354040283529160200191611aff565b820191906000526020600020905b815481529060010190602001808311611ae257829003601f168201915b505050505081525050838581518110611b1b57611b1a61430c565b5b6020026020010181905250600184611b339190614729565b9350508080611b4190614660565b91505061156a565b5080935050505090565b611b5b613159565b611b6560006131d7565b565b60008060009050600083905060005b8151811015611c16576000818351611b8e91906146a9565b90506000838381518110611ba557611ba461430c565b5b602001015160f81c60f81b905060008160f81c9050600060308260ff16611bcc91906146a9565b9050600184611bdb91906146a9565b600a611be791906148b2565b81611bf291906148fd565b87611bfd9190614729565b9650505050508080611c0e90614660565b915050611b76565b508192505050919050565b611c29613159565b81600073ffffffffffffffffffffffffffffffffffffffff168173ffffffffffffffffffffffffffffffffffffffff161415611c9a576040517f08c379a0000000000000000000000000000000000000000000000000000000008152600401611c91906149c9565b60405180910390fd5b81600760008573ffffffffffffffffffffffffffffffffffffffff1673ffffffffffffffffffffffffffffffffffffffff1681526020019081526020016000209080519060200190611ced9291906134dd565b50505050565b60008060009054906101000a900473ffffffffffffffffffffffffffffffffffffffff16905090565b60076020528060005260406000206000915090508054611d3b90614127565b80601f0160208091040260200160405190810160405280929190818152602001828054611d6790614127565b8015611db45780601f10611d8957610100808354040283529160200191611db4565b820191906000526020600020905b815481529060010190602001808311611d9757829003601f168201915b505050505081565b60068181548110611dcc57600080fd5b90600052602060002090600c0201600091509050806000018054611def90614127565b80601f0160208091040260200160405190810160405280929190818152602001828054611e1b90614127565b8015611e685780601f10611e3d57610100808354040283529160200191611e68565b820191906000526020600020905b815481529060010190602001808311611e4b57829003601f168201915b505050505090806001018054611e7d90614127565b80601f0160208091040260200160405190810160405280929190818152602001828054611ea990614127565b8015611ef65780601f10611ecb57610100808354040283529160200191611ef6565b820191906000526020600020905b815481529060010190602001808311611ed957829003601f168201915b505050505090806002018054611f0b90614127565b80601f0160208091040260200160405190810160405280929190818152602001828054611f3790614127565b8015611f845780601f10611f5957610100808354040283529160200191611f84565b820191906000526020600020905b815481529060010190602001808311611f6757829003601f168201915b505050505090806003015490806004015490806005015490806006018054611fab90614127565b80601f0160208091040260200160405190810160405280929190818152602001828054611fd790614127565b80156120245780601f10611ff957610100808354040283529160200191612024565b820191906000526020600020905b81548152906001019060200180831161200757829003601f168201915b50505050509080600701805461203990614127565b80601f016020809104026020016040519081016040528092919081815260200182805461206590614127565b80156120b25780601f10612087576101008083540402835291602001916120b2565b820191906000526020600020905b81548152906001019060200180831161209557829003601f168201915b5050505050908060080180546120c790614127565b80601f01602080910402602001604051908101604052809291908181526020018280546120f390614127565b80156121405780601f1061211557610100808354040283529160200191612140565b820191906000526020600020905b81548152906001019060200180831161212357829003601f168201915b50505050509080600901805461215590614127565b80601f016020809104026020016040519081016040528092919081815260200182805461218190614127565b80156121ce5780601f106121a3576101008083540402835291602001916121ce565b820191906000526020600020905b8154815290600101906020018083116121b157829003601f168201915b50505050509080600a0180546121e390614127565b80601f016020809104026020016040519081016040528092919081815260200182805461220f90614127565b801561225c5780601f106122315761010080835404028352916020019161225c565b820191906000526020600020905b81548152906001019060200180831161223f57829003601f168201915b50505050509080600b01805461227190614127565b80601f016020809104026020016040519081016040528092919081815260200182805461229d90614127565b80156122ea5780601f106122bf576101008083540402835291602001916122ea565b820191906000526020600020905b8154815290600101906020018083116122cd57829003601f168201915b505050505090508c565b60058180516020810182018051848252602083016020850120818352809550505050505060009150905080600001805461232d90614127565b80601f016020809104026020016040519081016040528092919081815260200182805461235990614127565b80156123a65780601f1061237b576101008083540402835291602001916123a6565b820191906000526020600020905b81548152906001019060200180831161238957829003601f168201915b5050505050908060010180546123bb90614127565b80601f01602080910402602001604051908101604052809291908181526020018280546123e790614127565b80156124345780601f1061240957610100808354040283529160200191612434565b820191906000526020600020905b81548152906001019060200180831161241757829003601f168201915b50505050509080600201805461244990614127565b80601f016020809104026020016040519081016040528092919081815260200182805461247590614127565b80156124c25780601f10612497576101008083540402835291602001916124c2565b820191906000526020600020905b8154815290600101906020018083116124a557829003601f168201915b5050505050908060030154908060040154908060050154908060060180546124e990614127565b80601f016020809104026020016040519081016040528092919081815260200182805461251590614127565b80156125625780601f1061253757610100808354040283529160200191612562565b820191906000526020600020905b81548152906001019060200180831161254557829003601f168201915b50505050509080600701805461257790614127565b80601f01602080910402602001604051908101604052809291908181526020018280546125a390614127565b80156125f05780601f106125c5576101008083540402835291602001916125f0565b820191906000526020600020905b8154815290600101906020018083116125d357829003601f168201915b50505050509080600801805461260590614127565b80601f016020809104026020016040519081016040528092919081815260200182805461263190614127565b801561267e5780601f106126535761010080835404028352916020019161267e565b820191906000526020600020905b81548152906001019060200180831161266157829003601f168201915b50505050509080600901805461269390614127565b80601f01602080910402602001604051908101604052809291908181526020018280546126bf90614127565b801561270c5780601f106126e15761010080835404028352916020019161270c565b820191906000526020600020905b8154815290600101906020018083116126ef57829003601f168201915b50505050509080600a01805461272190614127565b80601f016020809104026020016040519081016040528092919081815260200182805461274d90614127565b801561279a5780601f1061276f5761010080835404028352916020019161279a565b820191906000526020600020905b81548152906001019060200180831161277d57829003601f168201915b50505050509080600b0180546127af90614127565b80601f01602080910402602001604051908101604052809291908181526020018280546127db90614127565b80156128285780601f106127fd57610100808354040283529160200191612828565b820191906000526020600020905b81548152906001019060200180831161280b57829003601f168201915b505050505090508c565b61283a613159565b600073ffffffffffffffffffffffffffffffffffffffff168173ffffffffffffffffffffffffffffffffffffffff1614156128aa576040517f08c379a00000000000000000000000000000000000000000000000000000000081526004016128a190614a5b565b60405180910390fd5b6128b3816131d7565b50565b6040516020016128c590614ac7565b60405160208183030381529060405280519060200120600760003373ffffffffffffffffffffffffffffffffffffffff1673ffffffffffffffffffffffffffffffffffffffff16815260200190815260200160002060405160200161292a9190614228565b6040516020818303038152906040528051906020012014612980576040517f08c379a000000000000000000000000000000000000000000000000000000000815260040161297790614b28565b60405180910390fd5b600061298d600354613081565b60405160200161299d9190614703565b604051602081830303815290604052905060006040518061018001604052808381526020016129cd600354613081565b6040516020016129dd9190614b6e565b60405160208183030381529060405281526020018781526020018681526020018581526020016000815260200184815260200160405180602001604052806000815250815260200160405180602001604052806000815250815260200160405180602001604052806000815250815260200160405180602001604052806000815250815260200160405180602001604052806000815250815250905060068190806001815401808255809150506001900390600052602060002090600c02016000909190919091506000820151816000019080519060200190612ac19291906134dd565b506020820151816001019080519060200190612ade9291906134dd565b506040820151816002019080519060200190612afb9291906134dd565b50606082015181600301556080820151816004015560a0820151816005015560c0820151816006019080519060200190612b369291906134dd565b5060e0820151816007019080519060200190612b539291906134dd565b50610100820151816008019080519060200190612b719291906134dd565b50610120820151816009019080519060200190612b8f9291906134dd565b5061014082015181600a019080519060200190612bad9291906134dd565b5061016082015181600b019080519060200190612bcb9291906134dd565b50505080600583604051612bdf91906140e1565b90815260200160405180910390206000820151816000019080519060200190612c099291906134dd565b506020820151816001019080519060200190612c269291906134dd565b506040820151816002019080519060200190612c439291906134dd565b50606082015181600301556080820151816004015560a0820151816005015560c0820151816006019080519060200190612c7e9291906134dd565b5060e0820151816007019080519060200190612c9b9291906134dd565b50610100820151816008019080519060200190612cb99291906134dd565b50610120820151816009019080519060200190612cd79291906134dd565b5061014082015181600a019080519060200190612cf59291906134dd565b5061016082015181600b019080519060200190612d139291906134dd565b50905050600160036000828254612d2a9190614729565b925050819055507f1b21032942411443543e7923f2da271066ad99511aa6ffcda3bb43030b9157d482604051612d609190613e31565b60405180910390a1505050505050565b6060600760003373ffffffffffffffffffffffffffffffffffffffff1673ffffffffffffffffffffffffffffffffffffffff1681526020019081526020016000208054612dbc90614127565b80601f0160208091040260200160405190810160405280929190818152602001828054612de890614127565b8015612e355780601f10612e0a57610100808354040283529160200191612e35565b820191906000526020600020905b815481529060010190602001808311612e1857829003601f168201915b5050505050905090565b60606000600167ffffffffffffffff811115612e5e57612e5d6135af565b5b6040519080825280601f01601f191660200182016040528015612e905781602001600182028036833780820191505090505b50905082600081518110612ea757612ea661430c565b5b602001015160f81c60f81b81600081518110612ec657612ec561430c565b5b60200101907effffffffffffffffffffffffffffffffffffffffffffffffffffffffffffff1916908160001a90535080915050919050565b606060008290506000815167ffffffffffffffff811115612f2257612f216135af565b5b6040519080825280601f01601f191660200182016040528015612f545781602001600182028036833780820191505090505b50905060005b825181101561307657828181518110612f7657612f7561430c565b5b602001015160f81c60f81b828281518110612f9457612f9361430c565b5b60200101907effffffffffffffffffffffffffffffffffffffffffffffffffffffffffffff1916908160001a9053506000811415613063576040518060400160405280600181526020017f53000000000000000000000000000000000000000000000000000000000000008152506000815181106130155761301461430c565b5b602001015160f81c60f81b8282815181106130335761303261430c565b5b60200101907effffffffffffffffffffffffffffffffffffffffffffffffffffffffffffff1916908160001a9053505b808061306e90614660565b915050612f5a565b508092505050919050565b6060600060016130908461329b565b01905060008167ffffffffffffffff8111156130af576130ae6135af565b5b6040519080825280601f01601f1916602001820160405280156130e15781602001600182028036833780820191505090505b509050600082602001820190505b60011561314e578080600190039150507f3031323334353637383961626364656600000000000000000000000000000000600a86061a8153600a858161313857613137614b94565b5b04945060008514156131495761314e565b6130ef565b819350505050919050565b6131616133ee565b73ffffffffffffffffffffffffffffffffffffffff1661317f611cf3565b73ffffffffffffffffffffffffffffffffffffffff16146131d5576040517f08c379a00000000000000000000000000000000000000000000000000000000081526004016131cc90614c0f565b60405180910390fd5b565b60008060009054906101000a900473ffffffffffffffffffffffffffffffffffffffff169050816000806101000a81548173ffffffffffffffffffffffffffffffffffffffff021916908373ffffffffffffffffffffffffffffffffffffffff1602179055508173ffffffffffffffffffffffffffffffffffffffff168173ffffffffffffffffffffffffffffffffffffffff167f8be0079c531659141344cd1fd0a4f28419497f9722a3daafe3b4186f6b6457e060405160405180910390a35050565b600080600090507a184f03e93ff9f4daa797ed6e38ed64bf6a1f01000000000000000083106132f9577a184f03e93ff9f4daa797ed6e38ed64bf6a1f01000000000000000083816132ef576132ee614b94565b5b0492506040810190505b6d04ee2d6d415b85acef81000000008310613336576d04ee2d6d415b85acef8100000000838161332c5761332b614b94565b5b0492506020810190505b662386f26fc10000831061336557662386f26fc10000838161335b5761335a614b94565b5b0492506010810190505b6305f5e100831061338e576305f5e100838161338457613383614b94565b5b0492506008810190505b61271083106133b35761271083816133a9576133a8614b94565b5b0492506004810190505b606483106133d657606483816133cc576133cb614b94565b5b0492506002810190505b600a83106133e5576001810190505b80915050919050565b600033905090565b6040518061018001604052806060815260200160608152602001606081526020016000815260200160008152602001600081526020016060815260200160608152602001606081526020016060815260200160608152602001606081525090565b82805461346390614127565b90600052602060002090601f01602090048101928261348557600085556134cc565b82601f1061349e57803560ff19168380011785556134cc565b828001600101855582156134cc579182015b828111156134cb5782358255916020019190600101906134b0565b5b5090506134d99190613563565b5090565b8280546134e990614127565b90600052602060002090601f01602090048101928261350b5760008555613552565b82601f1061352457805160ff1916838001178555613552565b82800160010185558215613552579182015b82811115613551578251825591602001919060010190613536565b5b50905061355f9190613563565b5090565b5b8082111561357c576000816000905550600101613564565b5090565b6000604051905090565b600080fd5b600080fd5b600080fd5b600080fd5b6000601f19601f8301169050919050565b7f4e487b7100000000000000000000000000000000000000000000000000000000600052604160045260246000fd5b6135e78261359e565b810181811067ffffffffffffffff82111715613606576136056135af565b5b80604052505050565b6000613619613580565b905061362582826135de565b919050565b600067ffffffffffffffff821115613645576136446135af565b5b61364e8261359e565b9050602081019050919050565b82818337600083830152505050565b600061367d6136788461362a565b61360f565b90508281526020810184848401111561369957613698613599565b5b6136a484828561365b565b509392505050565b600082601f8301126136c1576136c0613594565b5b81356136d184826020860161366a565b91505092915050565b6000602082840312156136f0576136ef61358a565b5b600082013567ffffffffffffffff81111561370e5761370d61358f565b5b61371a848285016136ac565b91505092915050565b600081519050919050565b600082825260208201905092915050565b60005b8381101561375d578082015181840152602081019050613742565b8381111561376c576000848401525b50505050565b600061377d82613723565b613787818561372e565b935061379781856020860161373f565b6137a08161359e565b840191505092915050565b6000819050919050565b6137be816137ab565b82525050565b60006101808301600083015184820360008601526137e28282613772565b915050602083015184820360208601526137fc8282613772565b915050604083015184820360408601526138168282613772565b915050606083015161382b60608601826137b5565b50608083015161383e60808601826137b5565b5060a083015161385160a08601826137b5565b5060c083015184820360c08601526138698282613772565b91505060e083015184820360e08601526138838282613772565b91505061010083015184820361010086015261389f8282613772565b9150506101208301518482036101208601526138bb8282613772565b9150506101408301518482036101408601526138d78282613772565b9150506101608301518482036101608601526138f38282613772565b9150508091505092915050565b6000602082019050818103600083015261391a81846137c4565b905092915050565b600080fd5b600080fd5b60008083601f84011261394257613941613594565b5b8235905067ffffffffffffffff81111561395f5761395e613922565b5b60208301915083600182028301111561397b5761397a613927565b5b9250929050565b60008083601f84011261399857613997613594565b5b8235905067ffffffffffffffff8111156139b5576139b4613922565b5b6020830191508360208202830111156139d1576139d0613927565b5b9250929050565b600080600080600080606087890312156139f5576139f461358a565b5b600087013567ffffffffffffffff811115613a1357613a1261358f565b5b613a1f89828a0161392c565b9650965050602087013567ffffffffffffffff811115613a4257613a4161358f565b5b613a4e89828a01613982565b9450945050604087013567ffffffffffffffff811115613a7157613a7061358f565b5b613a7d89828a01613982565b92509250509295509295509295565b600081519050919050565b600082825260208201905092915050565b6000819050602082019050919050565b6000610180830160008301518482036000860152613ad68282613772565b91505060208301518482036020860152613af08282613772565b91505060408301518482036040860152613b0a8282613772565b9150506060830151613b1f60608601826137b5565b506080830151613b3260808601826137b5565b5060a0830151613b4560a08601826137b5565b5060c083015184820360c0860152613b5d8282613772565b91505060e083015184820360e0860152613b778282613772565b915050610100830151848203610100860152613b938282613772565b915050610120830151848203610120860152613baf8282613772565b915050610140830151848203610140860152613bcb8282613772565b915050610160830151848203610160860152613be78282613772565b9150508091505092915050565b6000613c008383613ab8565b905092915050565b6000602082019050919050565b6000613c2082613a8c565b613c2a8185613a97565b935083602082028501613c3c85613aa8565b8060005b85811015613c785784840389528151613c598582613bf4565b9450613c6483613c08565b925060208a01995050600181019050613c40565b50829750879550505050505092915050565b60006020820190508181036000830152613ca48184613c15565b905092915050565b613cb5816137ab565b82525050565b6000602082019050613cd06000830184613cac565b92915050565b600073ffffffffffffffffffffffffffffffffffffffff82169050919050565b6000613d0182613cd6565b9050919050565b613d1181613cf6565b8114613d1c57600080fd5b50565b600081359050613d2e81613d08565b92915050565b60008060408385031215613d4b57613d4a61358a565b5b6000613d5985828601613d1f565b925050602083013567ffffffffffffffff811115613d7a57613d7961358f565b5b613d86858286016136ac565b9150509250929050565b613d9981613cf6565b82525050565b6000602082019050613db46000830184613d90565b92915050565b600060208284031215613dd057613dcf61358a565b5b6000613dde84828501613d1f565b91505092915050565b600082825260208201905092915050565b6000613e0382613723565b613e0d8185613de7565b9350613e1d81856020860161373f565b613e268161359e565b840191505092915050565b60006020820190508181036000830152613e4b8184613df8565b905092915050565b613e5c816137ab565b8114613e6757600080fd5b50565b600081359050613e7981613e53565b92915050565b600060208284031215613e9557613e9461358a565b5b6000613ea384828501613e6a565b91505092915050565b6000610180820190508181036000830152613ec7818f613df8565b90508181036020830152613edb818e613df8565b90508181036040830152613eef818d613df8565b9050613efe606083018c613cac565b613f0b608083018b613cac565b613f1860a083018a613cac565b81810360c0830152613f2a8189613df8565b905081810360e0830152613f3e8188613df8565b9050818103610100830152613f538187613df8565b9050818103610120830152613f688186613df8565b9050818103610140830152613f7d8185613df8565b9050818103610160830152613f928184613df8565b90509d9c50505050505050505050505050565b60008060008060808587031215613fbf57613fbe61358a565b5b600085013567ffffffffffffffff811115613fdd57613fdc61358f565b5b613fe9878288016136ac565b9450506020613ffa87828801613e6a565b935050604061400b87828801613e6a565b925050606085013567ffffffffffffffff81111561402c5761402b61358f565b5b614038878288016136ac565b91505092959194509250565b600081905092915050565b7f5300000000000000000000000000000000000000000000000000000000000000600082015250565b6000614085600183614044565b91506140908261404f565b600182019050919050565b60006140a682614078565b9150819050919050565b60006140bb82613723565b6140c58185614044565b93506140d581856020860161373f565b80840191505092915050565b60006140ed82846140b0565b915081905092915050565b7f4e487b7100000000000000000000000000000000000000000000000000000000600052602260045260246000fd5b6000600282049050600182168061413f57607f821691505b60208210811415614153576141526140f8565b5b50919050565b50565b6000614169600083614044565b915061417482614159565b600082019050919050565b600061418a8261415c565b9150819050919050565b60008190508160005260206000209050919050565b600081546141b681614127565b6141c08186614044565b945060018216600081146141db57600181146141ec5761421f565b60ff1983168652818601935061421f565b6141f585614194565b60005b83811015614217578154818901526001820191506020810190506141f8565b838801955050505b50505092915050565b600061423482846141a9565b915081905092915050565b7f596f7520617265206e6f742070617274206f66207465616d2079657420212100600082015250565b6000614275601f83613de7565b91506142808261423f565b602082019050919050565b600060208201905081810360008301526142a481614268565b9050919050565b7f5374617475730000000000000000000000000000000000000000000000000000600082015250565b60006142e1600683614044565b91506142ec826142ab565b600682019050919050565b6000614302826142d4565b9150819050919050565b7f4e487b7100000000000000000000000000000000000000000000000000000000600052603260045260246000fd5b600080fd5b600080fd5b600080fd5b600080833560016020038436030381126143675761436661433b565b5b80840192508235915067ffffffffffffffff82111561438957614388614340565b5b6020830192506001820236038313156143a5576143a4614345565b5b509250929050565b60006143b98385614044565b93506143c683858461365b565b82840190509392505050565b60006143df8284866143ad565b91508190509392505050565b7f437573746f6d65722046696e616c2044656c6976657279204461746500000000600082015250565b6000614421601c83614044565b915061442c826143eb565b601c82019050919050565b600061444282614414565b9150819050919050565b7f426172436f646500000000000000000000000000000000000000000000000000600082015250565b6000614482600783614044565b915061448d8261444c565b600782019050919050565b60006144a382614475565b9150819050919050565b7f42617463684e6f00000000000000000000000000000000000000000000000000600082015250565b60006144e3600783614044565b91506144ee826144ad565b600782019050919050565b6000614504826144d6565b9150819050919050565b7f4d6173746572204c6162656c0000000000000000000000000000000000000000600082015250565b6000614544600c83614044565b915061454f8261450e565b600c82019050919050565b600061456582614537565b9150819050919050565b7f496e766f69636520506174680000000000000000000000000000000000000000600082015250565b60006145a5600c83614044565b91506145b08261456f565b600c82019050919050565b60006145c682614598565b9150819050919050565b7f547261636b696e67204e6f000000000000000000000000000000000000000000600082015250565b6000614606600b83614044565b9150614611826145d0565b600b82019050919050565b6000614627826145f9565b9150819050919050565b7f4e487b7100000000000000000000000000000000000000000000000000000000600052601160045260246000fd5b600061466b826137ab565b91507fffffffffffffffffffffffffffffffffffffffffffffffffffffffffffffffff82141561469e5761469d614631565b5b600182019050919050565b60006146b4826137ab565b91506146bf836137ab565b9250828210156146d2576146d1614631565b5b828203905092915050565b7f534f000000000000000000000000000000000000000000000000000000000000815250565b600061470e826146dd565b60028201915061471e82846140b0565b915081905092915050565b6000614734826137ab565b915061473f836137ab565b9250827fffffffffffffffffffffffffffffffffffffffffffffffffffffffffffffffff0382111561477457614773614631565b5b828201905092915050565b60008160011c9050919050565b6000808291508390505b60018511156147d6578086048111156147b2576147b1614631565b5b60018516156147c15780820291505b80810290506147cf8561477f565b9450614796565b94509492505050565b6000826147ef57600190506148ab565b816147fd57600090506148ab565b8160018114614813576002811461481d5761484c565b60019150506148ab565b60ff84111561482f5761482e614631565b5b8360020a91508482111561484657614845614631565b5b506148ab565b5060208310610133831016604e8410600b84101617156148815782820a90508381111561487c5761487b614631565b5b6148ab565b61488e848484600161478c565b925090508184048111156148a5576148a4614631565b5b81810290505b9392505050565b60006148bd826137ab565b91506148c8836137ab565b92506148f57fffffffffffffffffffffffffffffffffffffffffffffffffffffffffffffffff84846147df565b905092915050565b6000614908826137ab565b9150614913836137ab565b9250817fffffffffffffffffffffffffffffffffffffffffffffffffffffffffffffffff048311821515161561494c5761494b614631565b5b828202905092915050565b7f4e756c6c206163636f756e7420697320636f6d696e672066726f6d2066726f6e60008201527f742d656e64202121000000000000000000000000000000000000000000000000602082015250565b60006149b3602883613de7565b91506149be82614957565b604082019050919050565b600060208201905081810360008301526149e2816149a6565b9050919050565b7f4f776e61626c653a206e6577206f776e657220697320746865207a65726f206160008201527f6464726573730000000000000000000000000000000000000000000000000000602082015250565b6000614a45602683613de7565b9150614a50826149e9565b604082019050919050565b60006020820190508181036000830152614a7481614a38565b9050919050565b7f53616c657320526570726573656e746174697665000000000000000000000000600082015250565b6000614ab1601483614044565b9150614abc82614a7b565b601482019050919050565b6000614ad282614aa4565b9150819050919050565b7f596f7520617265206e6f7420612053616c657320526570202121000000000000600082015250565b6000614b12601a83613de7565b9150614b1d82614adc565b602082019050919050565b60006020820190508181036000830152614b4181614b05565b9050919050565b7f504f000000000000000000000000000000000000000000000000000000000000815250565b6000614b7982614b48565b600282019150614b8982846140b0565b915081905092915050565b7f4e487b7100000000000000000000000000000000000000000000000000000000600052601260045260246000fd5b7f4f776e61626c653a2063616c6c6572206973206e6f7420746865206f776e6572600082015250565b6000614bf9602083613de7565b9150614c0482614bc3565b602082019050919050565b60006020820190508181036000830152614c2881614bec565b905091905056fea26469706673582212206d89036654058d31b8bec06ca56359dfc168aa0c5ce66513a5eae6a230d7af2964736f6c634300080c0033","opcodes":"PUSH1 0x80 PUSH1 0x40 MSTORE CALLVALUE DUP1 ISZERO PUSH3 0x11 JUMPI PUSH1 0x0 DUP1 REVERT JUMPDEST POP PUSH1 0x40 MLOAD PUSH3 0x4E83 CODESIZE SUB DUP1 PUSH3 0x4E83 DUP4 CODECOPY DUP2 DUP2 ADD PUSH1 0x40 MSTORE DUP2 ADD SWAP1 PUSH3 0x37 SWAP2 SWAP1 PUSH3 0x1DC JUMP JUMPDEST PUSH20 0xF65B6396DF6B7E2D8A6270E3AB6C7BB08BAEF22E DUP2 PUSH3 0x6D PUSH3 0x61 PUSH3 0xD0 PUSH1 0x20 SHL PUSH1 0x20 SHR JUMP JUMPDEST PUSH3 0xD8 PUSH1 0x20 SHL PUSH1 0x20 SHR JUMP JUMPDEST DUP2 PUSH1 0x1 PUSH1 0x0 PUSH2 0x100 EXP DUP2 SLOAD DUP2 PUSH20 0xFFFFFFFFFFFFFFFFFFFFFFFFFFFFFFFFFFFFFFFF MUL NOT AND SWAP1 DUP4 PUSH20 0xFFFFFFFFFFFFFFFFFFFFFFFFFFFFFFFFFFFFFFFF AND MUL OR SWAP1 SSTORE POP DUP1 PUSH1 0x2 DUP2 SWAP1 SSTORE POP POP POP PUSH2 0x4094 PUSH1 0x3 DUP2 SWAP1 SSTORE POP PUSH2 0x4094 PUSH1 0x4 DUP2 SWAP1 SSTORE POP POP PUSH3 0x20E JUMP JUMPDEST PUSH1 0x0 CALLER SWAP1 POP SWAP1 JUMP JUMPDEST PUSH1 0x0 DUP1 PUSH1 0x0 SWAP1 SLOAD SWAP1 PUSH2 0x100 EXP SWAP1 DIV PUSH20 0xFFFFFFFFFFFFFFFFFFFFFFFFFFFFFFFFFFFFFFFF AND SWAP1 POP DUP2 PUSH1 0x0 DUP1 PUSH2 0x100 EXP DUP2 SLOAD DUP2 PUSH20 0xFFFFFFFFFFFFFFFFFFFFFFFFFFFFFFFFFFFFFFFF MUL NOT AND SWAP1 DUP4 PUSH20 0xFFFFFFFFFFFFFFFFFFFFFFFFFFFFFFFFFFFFFFFF AND MUL OR SWAP1 SSTORE POP DUP2 PUSH20 0xFFFFFFFFFFFFFFFFFFFFFFFFFFFFFFFFFFFFFFFF AND DUP2 PUSH20 0xFFFFFFFFFFFFFFFFFFFFFFFFFFFFFFFFFFFFFFFF AND PUSH32 0x8BE0079C531659141344CD1FD0A4F28419497F9722A3DAAFE3B4186F6B6457E0 PUSH1 0x40 MLOAD PUSH1 0x40 MLOAD DUP1 SWAP2 SUB SWAP1 LOG3 POP POP JUMP JUMPDEST PUSH1 0x0 DUP1 REVERT JUMPDEST PUSH1 0x0 DUP2 SWAP1 POP SWAP2 SWAP1 POP JUMP JUMPDEST PUSH3 0x1B6 DUP2 PUSH3 0x1A1 JUMP JUMPDEST DUP2 EQ PUSH3 0x1C2 JUMPI PUSH1 0x0 DUP1 REVERT JUMPDEST POP JUMP JUMPDEST PUSH1 0x0 DUP2 MLOAD SWAP1 POP PUSH3 0x1D6 DUP2 PUSH3 0x1AB JUMP JUMPDEST SWAP3 SWAP2 POP POP JUMP JUMPDEST PUSH1 0x0 PUSH1 0x20 DUP3 DUP5 SUB SLT ISZERO PUSH3 0x1F5 JUMPI PUSH3 0x1F4 PUSH3 0x19C JUMP JUMPDEST JUMPDEST PUSH1 0x0 PUSH3 0x205 DUP5 DUP3 DUP6 ADD PUSH3 0x1C5 JUMP JUMPDEST SWAP2 POP POP SWAP3 SWAP2 POP POP JUMP JUMPDEST PUSH2 0x4C65 DUP1 PUSH3 0x21E PUSH1 0x0 CODECOPY PUSH1 0x0 RETURN INVALID PUSH1 0x80 PUSH1 0x40 MSTORE CALLVALUE DUP1 ISZERO PUSH2 0x10 JUMPI PUSH1 0x0 DUP1 REVERT JUMPDEST POP PUSH1 0x4 CALLDATASIZE LT PUSH2 0xCF JUMPI PUSH1 0x0 CALLDATALOAD PUSH1 0xE0 SHR DUP1 PUSH4 0x8DA5CB5B GT PUSH2 0x8C JUMPI DUP1 PUSH4 0xE393F263 GT PUSH2 0x66 JUMPI DUP1 PUSH4 0xE393F263 EQ PUSH2 0x21D JUMPI DUP1 PUSH4 0xF2FDE38B EQ PUSH2 0x258 JUMPI DUP1 PUSH4 0xFB0A9A6D EQ PUSH2 0x274 JUMPI DUP1 PUSH4 0xFDE08174 EQ PUSH2 0x290 JUMPI PUSH2 0xCF JUMP JUMPDEST DUP1 PUSH4 0x8DA5CB5B EQ PUSH2 0x194 JUMPI DUP1 PUSH4 0x99374642 EQ PUSH2 0x1B2 JUMPI DUP1 PUSH4 0xA85C38EF EQ PUSH2 0x1E2 JUMPI PUSH2 0xCF JUMP JUMPDEST DUP1 PUSH4 0x4FBB487C EQ PUSH2 0xD4 JUMPI DUP1 PUSH4 0x5A553855 EQ PUSH2 0x104 JUMPI DUP1 PUSH4 0x6BC184B4 EQ PUSH2 0x120 JUMPI DUP1 PUSH4 0x715018A6 EQ PUSH2 0x13E JUMPI DUP1 PUSH4 0x79CD9055 EQ PUSH2 0x148 JUMPI DUP1 PUSH4 0x7D72AA65 EQ PUSH2 0x178 JUMPI JUMPDEST PUSH1 0x0 DUP1 REVERT JUMPDEST PUSH2 0xEE PUSH1 0x4 DUP1 CALLDATASIZE SUB DUP2 ADD SWAP1 PUSH2 0xE9 SWAP2 SWAP1 PUSH2 0x36DA JUMP JUMPDEST PUSH2 0x2AE JUMP JUMPDEST PUSH1 0x40 MLOAD PUSH2 0xFB SWAP2 SWAP1 PUSH2 0x3900 JUMP JUMPDEST PUSH1 0x40 MLOAD DUP1 SWAP2 SUB SWAP1 RETURN JUMPDEST PUSH2 0x11E PUSH1 0x4 DUP1 CALLDATASIZE SUB DUP2 ADD SWAP1 PUSH2 0x119 SWAP2 SWAP1 PUSH2 0x39D8 JUMP JUMPDEST PUSH2 0xDFB JUMP JUMPDEST STOP JUMPDEST PUSH2 0x128 PUSH2 0x14F1 JUMP JUMPDEST PUSH1 0x40 MLOAD PUSH2 0x135 SWAP2 SWAP1 PUSH2 0x3C8A JUMP JUMPDEST PUSH1 0x40 MLOAD DUP1 SWAP2 SUB SWAP1 RETURN JUMPDEST PUSH2 0x146 PUSH2 0x1B53 JUMP JUMPDEST STOP JUMPDEST PUSH2 0x162 PUSH1 0x4 DUP1 CALLDATASIZE SUB DUP2 ADD SWAP1 PUSH2 0x15D SWAP2 SWAP1 PUSH2 0x36DA JUMP JUMPDEST PUSH2 0x1B67 JUMP JUMPDEST PUSH1 0x40 MLOAD PUSH2 0x16F SWAP2 SWAP1 PUSH2 0x3CBB JUMP JUMPDEST PUSH1 0x40 MLOAD DUP1 SWAP2 SUB SWAP1 RETURN JUMPDEST PUSH2 0x192 PUSH1 0x4 DUP1 CALLDATASIZE SUB DUP2 ADD SWAP1 PUSH2 0x18D SWAP2 SWAP1 PUSH2 0x3D34 JUMP JUMPDEST PUSH2 0x1C21 JUMP JUMPDEST STOP JUMPDEST PUSH2 0x19C PUSH2 0x1CF3 JUMP JUMPDEST PUSH1 0x40 MLOAD PUSH2 0x1A9 SWAP2 SWAP1 PUSH2 0x3D9F JUMP JUMPDEST PUSH1 0x40 MLOAD DUP1 SWAP2 SUB SWAP1 RETURN JUMPDEST PUSH2 0x1CC PUSH1 0x4 DUP1 CALLDATASIZE SUB DUP2 ADD SWAP1 PUSH2 0x1C7 SWAP2 SWAP1 PUSH2 0x3DBA JUMP JUMPDEST PUSH2 0x1D1C JUMP JUMPDEST PUSH1 0x40 MLOAD PUSH2 0x1D9 SWAP2 SWAP1 PUSH2 0x3E31 JUMP JUMPDEST PUSH1 0x40 MLOAD DUP1 SWAP2 SUB SWAP1 RETURN JUMPDEST PUSH2 0x1FC PUSH1 0x4 DUP1 CALLDATASIZE SUB DUP2 ADD SWAP1 PUSH2 0x1F7 SWAP2 SWAP1 PUSH2 0x3E7F JUMP JUMPDEST PUSH2 0x1DBC JUMP JUMPDEST PUSH1 0x40 MLOAD PUSH2 0x214 SWAP13 SWAP12 SWAP11 SWAP10 SWAP9 SWAP8 SWAP7 SWAP6 SWAP5 SWAP4 SWAP3 SWAP2 SWAP1 PUSH2 0x3EAC JUMP JUMPDEST PUSH1 0x40 MLOAD DUP1 SWAP2 SUB SWAP1 RETURN JUMPDEST PUSH2 0x237 PUSH1 0x4 DUP1 CALLDATASIZE SUB DUP2 ADD SWAP1 PUSH2 0x232 SWAP2 SWAP1 PUSH2 0x36DA JUMP JUMPDEST PUSH2 0x22F4 JUMP JUMPDEST PUSH1 0x40 MLOAD PUSH2 0x24F SWAP13 SWAP12 SWAP11 SWAP10 SWAP9 SWAP8 SWAP7 SWAP6 SWAP5 SWAP4 SWAP3 SWAP2 SWAP1 PUSH2 0x3EAC JUMP JUMPDEST PUSH1 0x40 MLOAD DUP1 SWAP2 SUB SWAP1 RETURN JUMPDEST PUSH2 0x272 PUSH1 0x4 DUP1 CALLDATASIZE SUB DUP2 ADD SWAP1 PUSH2 0x26D SWAP2 SWAP1 PUSH2 0x3DBA JUMP JUMPDEST PUSH2 0x2832 JUMP JUMPDEST STOP JUMPDEST PUSH2 0x28E PUSH1 0x4 DUP1 CALLDATASIZE SUB DUP2 ADD SWAP1 PUSH2 0x289 SWAP2 SWAP1 PUSH2 0x3FA5 JUMP JUMPDEST PUSH2 0x28B6 JUMP JUMPDEST STOP JUMPDEST PUSH2 0x298 PUSH2 0x2D70 JUMP JUMPDEST PUSH1 0x40 MLOAD PUSH2 0x2A5 SWAP2 SWAP1 PUSH2 0x3E31 JUMP JUMPDEST PUSH1 0x40 MLOAD DUP1 SWAP2 SUB SWAP1 RETURN JUMPDEST PUSH2 0x2B6 PUSH2 0x33F6 JUMP JUMPDEST PUSH1 0x40 MLOAD PUSH1 0x20 ADD PUSH2 0x2C5 SWAP1 PUSH2 0x409B JUMP JUMPDEST PUSH1 0x40 MLOAD PUSH1 0x20 DUP2 DUP4 SUB SUB DUP2 MSTORE SWAP1 PUSH1 0x40 MSTORE DUP1 MLOAD SWAP1 PUSH1 0x20 ADD KECCAK256 PUSH2 0x2E4 DUP4 PUSH2 0x2E3F JUMP JUMPDEST PUSH1 0x40 MLOAD PUSH1 0x20 ADD PUSH2 0x2F4 SWAP2 SWAP1 PUSH2 0x40E1 JUMP JUMPDEST PUSH1 0x40 MLOAD PUSH1 0x20 DUP2 DUP4 SUB SUB DUP2 MSTORE SWAP1 PUSH1 0x40 MSTORE DUP1 MLOAD SWAP1 PUSH1 0x20 ADD KECCAK256 EQ ISZERO PUSH2 0x881 JUMPI PUSH1 0x5 DUP3 PUSH1 0x40 MLOAD PUSH2 0x320 SWAP2 SWAP1 PUSH2 0x40E1 JUMP JUMPDEST SWAP1 DUP2 MSTORE PUSH1 0x20 ADD PUSH1 0x40 MLOAD DUP1 SWAP2 SUB SWAP1 KECCAK256 PUSH1 0x40 MLOAD DUP1 PUSH2 0x180 ADD PUSH1 0x40 MSTORE SWAP1 DUP2 PUSH1 0x0 DUP3 ADD DUP1 SLOAD PUSH2 0x34A SWAP1 PUSH2 0x4127 JUMP JUMPDEST DUP1 PUSH1 0x1F ADD PUSH1 0x20 DUP1 SWAP2 DIV MUL PUSH1 0x20 ADD PUSH1 0x40 MLOAD SWAP1 DUP2 ADD PUSH1 0x40 MSTORE DUP1 SWAP3 SWAP2 SWAP1 DUP2 DUP2 MSTORE PUSH1 0x20 ADD DUP3 DUP1 SLOAD PUSH2 0x376 SWAP1 PUSH2 0x4127 JUMP JUMPDEST DUP1 ISZERO PUSH2 0x3C3 JUMPI DUP1 PUSH1 0x1F LT PUSH2 0x398 JUMPI PUSH2 0x100 DUP1 DUP4 SLOAD DIV MUL DUP4 MSTORE SWAP2 PUSH1 0x20 ADD SWAP2 PUSH2 0x3C3 JUMP JUMPDEST DUP3 ADD SWAP2 SWAP1 PUSH1 0x0 MSTORE PUSH1 0x20 PUSH1 0x0 KECCAK256 SWAP1 JUMPDEST DUP2 SLOAD DUP2 MSTORE SWAP1 PUSH1 0x1 ADD SWAP1 PUSH1 0x20 ADD DUP1 DUP4 GT PUSH2 0x3A6 JUMPI DUP3 SWAP1 SUB PUSH1 0x1F AND DUP3 ADD SWAP2 JUMPDEST POP POP POP POP POP DUP2 MSTORE PUSH1 0x20 ADD PUSH1 0x1 DUP3 ADD DUP1 SLOAD PUSH2 0x3DC SWAP1 PUSH2 0x4127 JUMP JUMPDEST DUP1 PUSH1 0x1F ADD PUSH1 0x20 DUP1 SWAP2 DIV MUL PUSH1 0x20 ADD PUSH1 0x40 MLOAD SWAP1 DUP2 ADD PUSH1 0x40 MSTORE DUP1 SWAP3 SWAP2 SWAP1 DUP2 DUP2 MSTORE PUSH1 0x20 ADD DUP3 DUP1 SLOAD PUSH2 0x408 SWAP1 PUSH2 0x4127 JUMP JUMPDEST DUP1 ISZERO PUSH2 0x455 JUMPI DUP1 PUSH1 0x1F LT PUSH2 0x42A JUMPI PUSH2 0x100 DUP1 DUP4 SLOAD DIV MUL DUP4 MSTORE SWAP2 PUSH1 0x20 ADD SWAP2 PUSH2 0x455 JUMP JUMPDEST DUP3 ADD SWAP2 SWAP1 PUSH1 0x0 MSTORE PUSH1 0x20 PUSH1 0x0 KECCAK256 SWAP1 JUMPDEST DUP2 SLOAD DUP2 MSTORE SWAP1 PUSH1 0x1 ADD SWAP1 PUSH1 0x20 ADD DUP1 DUP4 GT PUSH2 0x438 JUMPI DUP3 SWAP1 SUB PUSH1 0x1F AND DUP3 ADD SWAP2 JUMPDEST POP POP POP POP POP DUP2 MSTORE PUSH1 0x20 ADD PUSH1 0x2 DUP3 ADD DUP1 SLOAD PUSH2 0x46E SWAP1 PUSH2 0x4127 JUMP JUMPDEST DUP1 PUSH1 0x1F ADD PUSH1 0x20 DUP1 SWAP2 DIV MUL PUSH1 0x20 ADD PUSH1 0x40 MLOAD SWAP1 DUP2 ADD PUSH1 0x40 MSTORE DUP1 SWAP3 SWAP2 SWAP1 DUP2 DUP2 MSTORE PUSH1 0x20 ADD DUP3 DUP1 SLOAD PUSH2 0x49A SWAP1 PUSH2 0x4127 JUMP JUMPDEST DUP1 ISZERO PUSH2 0x4E7 JUMPI DUP1 PUSH1 0x1F LT PUSH2 0x4BC JUMPI PUSH2 0x100 DUP1 DUP4 SLOAD DIV MUL DUP4 MSTORE SWAP2 PUSH1 0x20 ADD SWAP2 PUSH2 0x4E7 JUMP JUMPDEST DUP3 ADD SWAP2 SWAP1 PUSH1 0x0 MSTORE PUSH1 0x20 PUSH1 0x0 KECCAK256 SWAP1 JUMPDEST DUP2 SLOAD DUP2 MSTORE SWAP1 PUSH1 0x1 ADD SWAP1 PUSH1 0x20 ADD DUP1 DUP4 GT PUSH2 0x4CA JUMPI DUP3 SWAP1 SUB PUSH1 0x1F AND DUP3 ADD SWAP2 JUMPDEST POP POP POP POP POP DUP2 MSTORE PUSH1 0x20 ADD PUSH1 0x3 DUP3 ADD SLOAD DUP2 MSTORE PUSH1 0x20 ADD PUSH1 0x4 DUP3 ADD SLOAD DUP2 MSTORE PUSH1 0x20 ADD PUSH1 0x5 DUP3 ADD SLOAD DUP2 MSTORE PUSH1 0x20 ADD PUSH1 0x6 DUP3 ADD DUP1 SLOAD PUSH2 0x51E SWAP1 PUSH2 0x4127 JUMP JUMPDEST DUP1 PUSH1 0x1F ADD PUSH1 0x20 DUP1 SWAP2 DIV MUL PUSH1 0x20 ADD PUSH1 0x40 MLOAD SWAP1 DUP2 ADD PUSH1 0x40 MSTORE DUP1 SWAP3 SWAP2 SWAP1 DUP2 DUP2 MSTORE PUSH1 0x20 ADD DUP3 DUP1 SLOAD PUSH2 0x54A SWAP1 PUSH2 0x4127 JUMP JUMPDEST DUP1 ISZERO PUSH2 0x597 JUMPI DUP1 PUSH1 0x1F LT PUSH2 0x56C JUMPI PUSH2 0x100 DUP1 DUP4 SLOAD DIV MUL DUP4 MSTORE SWAP2 PUSH1 0x20 ADD SWAP2 PUSH2 0x597 JUMP JUMPDEST DUP3 ADD SWAP2 SWAP1 PUSH1 0x0 MSTORE PUSH1 0x20 PUSH1 0x0 KECCAK256 SWAP1 JUMPDEST DUP2 SLOAD DUP2 MSTORE SWAP1 PUSH1 0x1 ADD SWAP1 PUSH1 0x20 ADD DUP1 DUP4 GT PUSH2 0x57A JUMPI DUP3 SWAP1 SUB PUSH1 0x1F AND DUP3 ADD SWAP2 JUMPDEST POP POP POP POP POP DUP2 MSTORE PUSH1 0x20 ADD PUSH1 0x7 DUP3 ADD DUP1 SLOAD PUSH2 0x5B0 SWAP1 PUSH2 0x4127 JUMP JUMPDEST DUP1 PUSH1 0x1F ADD PUSH1 0x20 DUP1 SWAP2 DIV MUL PUSH1 0x20 ADD PUSH1 0x40 MLOAD SWAP1 DUP2 ADD PUSH1 0x40 MSTORE DUP1 SWAP3 SWAP2 SWAP1 DUP2 DUP2 MSTORE PUSH1 0x20 ADD DUP3 DUP1 SLOAD PUSH2 0x5DC SWAP1 PUSH2 0x4127 JUMP JUMPDEST DUP1 ISZERO PUSH2 0x629 JUMPI DUP1 PUSH1 0x1F LT PUSH2 0x5FE JUMPI PUSH2 0x100 DUP1 DUP4 SLOAD DIV MUL DUP4 MSTORE SWAP2 PUSH1 0x20 ADD SWAP2 PUSH2 0x629 JUMP JUMPDEST DUP3 ADD SWAP2 SWAP1 PUSH1 0x0 MSTORE PUSH1 0x20 PUSH1 0x0 KECCAK256 SWAP1 JUMPDEST DUP2 SLOAD DUP2 MSTORE SWAP1 PUSH1 0x1 ADD SWAP1 PUSH1 0x20 ADD DUP1 DUP4 GT PUSH2 0x60C JUMPI DUP3 SWAP1 SUB PUSH1 0x1F AND DUP3 ADD SWAP2 JUMPDEST POP POP POP POP POP DUP2 MSTORE PUSH1 0x20 ADD PUSH1 0x8 DUP3 ADD DUP1 SLOAD PUSH2 0x642 SWAP1 PUSH2 0x4127 JUMP JUMPDEST DUP1 PUSH1 0x1F ADD PUSH1 0x20 DUP1 SWAP2 DIV MUL PUSH1 0x20 ADD PUSH1 0x40 MLOAD SWAP1 DUP2 ADD PUSH1 0x40 MSTORE DUP1 SWAP3 SWAP2 SWAP1 DUP2 DUP2 MSTORE PUSH1 0x20 ADD DUP3 DUP1 SLOAD PUSH2 0x66E SWAP1 PUSH2 0x4127 JUMP JUMPDEST DUP1 ISZERO PUSH2 0x6BB JUMPI DUP1 PUSH1 0x1F LT PUSH2 0x690 JUMPI PUSH2 0x100 DUP1 DUP4 SLOAD DIV MUL DUP4 MSTORE SWAP2 PUSH1 0x20 ADD SWAP2 PUSH2 0x6BB JUMP JUMPDEST DUP3 ADD SWAP2 SWAP1 PUSH1 0x0 MSTORE PUSH1 0x20 PUSH1 0x0 KECCAK256 SWAP1 JUMPDEST DUP2 SLOAD DUP2 MSTORE SWAP1 PUSH1 0x1 ADD SWAP1 PUSH1 0x20 ADD DUP1 DUP4 GT PUSH2 0x69E JUMPI DUP3 SWAP1 SUB PUSH1 0x1F AND DUP3 ADD SWAP2 JUMPDEST POP POP POP POP POP DUP2 MSTORE PUSH1 0x20 ADD PUSH1 0x9 DUP3 ADD DUP1 SLOAD PUSH2 0x6D4 SWAP1 PUSH2 0x4127 JUMP JUMPDEST DUP1 PUSH1 0x1F ADD PUSH1 0x20 DUP1 SWAP2 DIV MUL PUSH1 0x20 ADD PUSH1 0x40 MLOAD SWAP1 DUP2 ADD PUSH1 0x40 MSTORE DUP1 SWAP3 SWAP2 SWAP1 DUP2 DUP2 MSTORE PUSH1 0x20 ADD DUP3 DUP1 SLOAD PUSH2 0x700 SWAP1 PUSH2 0x4127 JUMP JUMPDEST DUP1 ISZERO PUSH2 0x74D JUMPI DUP1 PUSH1 0x1F LT PUSH2 0x722 JUMPI PUSH2 0x100 DUP1 DUP4 SLOAD DIV MUL DUP4 MSTORE SWAP2 PUSH1 0x20 ADD SWAP2 PUSH2 0x74D JUMP JUMPDEST DUP3 ADD SWAP2 SWAP1 PUSH1 0x0 MSTORE PUSH1 0x20 PUSH1 0x0 KECCAK256 SWAP1 JUMPDEST DUP2 SLOAD DUP2 MSTORE SWAP1 PUSH1 0x1 ADD SWAP1 PUSH1 0x20 ADD DUP1 DUP4 GT PUSH2 0x730 JUMPI DUP3 SWAP1 SUB PUSH1 0x1F AND DUP3 ADD SWAP2 JUMPDEST POP POP POP POP POP DUP2 MSTORE PUSH1 0x20 ADD PUSH1 0xA DUP3 ADD DUP1 SLOAD PUSH2 0x766 SWAP1 PUSH2 0x4127 JUMP JUMPDEST DUP1 PUSH1 0x1F ADD PUSH1 0x20 DUP1 SWAP2 DIV MUL PUSH1 0x20 ADD PUSH1 0x40 MLOAD SWAP1 DUP2 ADD PUSH1 0x40 MSTORE DUP1 SWAP3 SWAP2 SWAP1 DUP2 DUP2 MSTORE PUSH1 0x20 ADD DUP3 DUP1 SLOAD PUSH2 0x792 SWAP1 PUSH2 0x4127 JUMP JUMPDEST DUP1 ISZERO PUSH2 0x7DF JUMPI DUP1 PUSH1 0x1F LT PUSH2 0x7B4 JUMPI PUSH2 0x100 DUP1 DUP4 SLOAD DIV MUL DUP4 MSTORE SWAP2 PUSH1 0x20 ADD SWAP2 PUSH2 0x7DF JUMP JUMPDEST DUP3 ADD SWAP2 SWAP1 PUSH1 0x0 MSTORE PUSH1 0x20 PUSH1 0x0 KECCAK256 SWAP1 JUMPDEST DUP2 SLOAD DUP2 MSTORE SWAP1 PUSH1 0x1 ADD SWAP1 PUSH1 0x20 ADD DUP1 DUP4 GT PUSH2 0x7C2 JUMPI DUP3 SWAP1 SUB PUSH1 0x1F AND DUP3 ADD SWAP2 JUMPDEST POP POP POP POP POP DUP2 MSTORE PUSH1 0x20 ADD PUSH1 0xB DUP3 ADD DUP1 SLOAD PUSH2 0x7F8 SWAP1 PUSH2 0x4127 JUMP JUMPDEST DUP1 PUSH1 0x1F ADD PUSH1 0x20 DUP1 SWAP2 DIV MUL PUSH1 0x20 ADD PUSH1 0x40 MLOAD SWAP1 DUP2 ADD PUSH1 0x40 MSTORE DUP1 SWAP3 SWAP2 SWAP1 DUP2 DUP2 MSTORE PUSH1 0x20 ADD DUP3 DUP1 SLOAD PUSH2 0x824 SWAP1 PUSH2 0x4127 JUMP JUMPDEST DUP1 ISZERO PUSH2 0x871 JUMPI DUP1 PUSH1 0x1F LT PUSH2 0x846 JUMPI PUSH2 0x100 DUP1 DUP4 SLOAD DIV MUL DUP4 MSTORE SWAP2 PUSH1 0x20 ADD SWAP2 PUSH2 0x871 JUMP JUMPDEST DUP3 ADD SWAP2 SWAP1 PUSH1 0x0 MSTORE PUSH1 0x20 PUSH1 0x0 KECCAK256 SWAP1 JUMPDEST DUP2 SLOAD DUP2 MSTORE SWAP1 PUSH1 0x1 ADD SWAP1 PUSH1 0x20 ADD DUP1 DUP4 GT PUSH2 0x854 JUMPI DUP3 SWAP1 SUB PUSH1 0x1F AND DUP3 ADD SWAP2 JUMPDEST POP POP POP POP POP DUP2 MSTORE POP POP SWAP1 POP PUSH2 0xDF6 JUMP JUMPDEST PUSH1 0x5 PUSH2 0x88C DUP4 PUSH2 0x2EFE JUMP JUMPDEST PUSH1 0x40 MLOAD PUSH2 0x899 SWAP2 SWAP1 PUSH2 0x40E1 JUMP JUMPDEST SWAP1 DUP2 MSTORE PUSH1 0x20 ADD PUSH1 0x40 MLOAD DUP1 SWAP2 SUB SWAP1 KECCAK256 PUSH1 0x40 MLOAD DUP1 PUSH2 0x180 ADD PUSH1 0x40 MSTORE SWAP1 DUP2 PUSH1 0x0 DUP3 ADD DUP1 SLOAD PUSH2 0x8C3 SWAP1 PUSH2 0x4127 JUMP JUMPDEST DUP1 PUSH1 0x1F ADD PUSH1 0x20 DUP1 SWAP2 DIV MUL PUSH1 0x20 ADD PUSH1 0x40 MLOAD SWAP1 DUP2 ADD PUSH1 0x40 MSTORE DUP1 SWAP3 SWAP2 SWAP1 DUP2 DUP2 MSTORE PUSH1 0x20 ADD DUP3 DUP1 SLOAD PUSH2 0x8EF SWAP1 PUSH2 0x4127 JUMP JUMPDEST DUP1 ISZERO PUSH2 0x93C JUMPI DUP1 PUSH1 0x1F LT PUSH2 0x911 JUMPI PUSH2 0x100 DUP1 DUP4 SLOAD DIV MUL DUP4 MSTORE SWAP2 PUSH1 0x20 ADD SWAP2 PUSH2 0x93C JUMP JUMPDEST DUP3 ADD SWAP2 SWAP1 PUSH1 0x0 MSTORE PUSH1 0x20 PUSH1 0x0 KECCAK256 SWAP1 JUMPDEST DUP2 SLOAD DUP2 MSTORE SWAP1 PUSH1 0x1 ADD SWAP1 PUSH1 0x20 ADD DUP1 DUP4 GT PUSH2 0x91F JUMPI DUP3 SWAP1 SUB PUSH1 0x1F AND DUP3 ADD SWAP2 JUMPDEST POP POP POP POP POP DUP2 MSTORE PUSH1 0x20 ADD PUSH1 0x1 DUP3 ADD DUP1 SLOAD PUSH2 0x955 SWAP1 PUSH2 0x4127 JUMP JUMPDEST DUP1 PUSH1 0x1F ADD PUSH1 0x20 DUP1 SWAP2 DIV MUL PUSH1 0x20 ADD PUSH1 0x40 MLOAD SWAP1 DUP2 ADD PUSH1 0x40 MSTORE DUP1 SWAP3 SWAP2 SWAP1 DUP2 DUP2 MSTORE PUSH1 0x20 ADD DUP3 DUP1 SLOAD PUSH2 0x981 SWAP1 PUSH2 0x4127 JUMP JUMPDEST DUP1 ISZERO PUSH2 0x9CE JUMPI DUP1 PUSH1 0x1F LT PUSH2 0x9A3 JUMPI PUSH2 0x100 DUP1 DUP4 SLOAD DIV MUL DUP4 MSTORE SWAP2 PUSH1 0x20 ADD SWAP2 PUSH2 0x9CE JUMP JUMPDEST DUP3 ADD SWAP2 SWAP1 PUSH1 0x0 MSTORE PUSH1 0x20 PUSH1 0x0 KECCAK256 SWAP1 JUMPDEST DUP2 SLOAD DUP2 MSTORE SWAP1 PUSH1 0x1 ADD SWAP1 PUSH1 0x20 ADD DUP1 DUP4 GT PUSH2 0x9B1 JUMPI DUP3 SWAP1 SUB PUSH1 0x1F AND DUP3 ADD SWAP2 JUMPDEST POP POP POP POP POP DUP2 MSTORE PUSH1 0x20 ADD PUSH1 0x2 DUP3 ADD DUP1 SLOAD PUSH2 0x9E7 SWAP1 PUSH2 0x4127 JUMP JUMPDEST DUP1 PUSH1 0x1F ADD PUSH1 0x20 DUP1 SWAP2 DIV MUL PUSH1 0x20 ADD PUSH1 0x40 MLOAD SWAP1 DUP2 ADD PUSH1 0x40 MSTORE DUP1 SWAP3 SWAP2 SWAP1 DUP2 DUP2 MSTORE PUSH1 0x20 ADD DUP3 DUP1 SLOAD PUSH2 0xA13 SWAP1 PUSH2 0x4127 JUMP JUMPDEST DUP1 ISZERO PUSH2 0xA60 JUMPI DUP1 PUSH1 0x1F LT PUSH2 0xA35 JUMPI PUSH2 0x100 DUP1 DUP4 SLOAD DIV MUL DUP4 MSTORE SWAP2 PUSH1 0x20 ADD SWAP2 PUSH2 0xA60 JUMP JUMPDEST DUP3 ADD SWAP2 SWAP1 PUSH1 0x0 MSTORE PUSH1 0x20 PUSH1 0x0 KECCAK256 SWAP1 JUMPDEST DUP2 SLOAD DUP2 MSTORE SWAP1 PUSH1 0x1 ADD SWAP1 PUSH1 0x20 ADD DUP1 DUP4 GT PUSH2 0xA43 JUMPI DUP3 SWAP1 SUB PUSH1 0x1F AND DUP3 ADD SWAP2 JUMPDEST POP POP POP POP POP DUP2 MSTORE PUSH1 0x20 ADD PUSH1 0x3 DUP3 ADD SLOAD DUP2 MSTORE PUSH1 0x20 ADD PUSH1 0x4 DUP3 ADD SLOAD DUP2 MSTORE PUSH1 0x20 ADD PUSH1 0x5 DUP3 ADD SLOAD DUP2 MSTORE PUSH1 0x20 ADD PUSH1 0x6 DUP3 ADD DUP1 SLOAD PUSH2 0xA97 SWAP1 PUSH2 0x4127 JUMP JUMPDEST DUP1 PUSH1 0x1F ADD PUSH1 0x20 DUP1 SWAP2 DIV MUL PUSH1 0x20 ADD PUSH1 0x40 MLOAD SWAP1 DUP2 ADD PUSH1 0x40 MSTORE DUP1 SWAP3 SWAP2 SWAP1 DUP2 DUP2 MSTORE PUSH1 0x20 ADD DUP3 DUP1 SLOAD PUSH2 0xAC3 SWAP1 PUSH2 0x4127 JUMP JUMPDEST DUP1 ISZERO PUSH2 0xB10 JUMPI DUP1 PUSH1 0x1F LT PUSH2 0xAE5 JUMPI PUSH2 0x100 DUP1 DUP4 SLOAD DIV MUL DUP4 MSTORE SWAP2 PUSH1 0x20 ADD SWAP2 PUSH2 0xB10 JUMP JUMPDEST DUP3 ADD SWAP2 SWAP1 PUSH1 0x0 MSTORE PUSH1 0x20 PUSH1 0x0 KECCAK256 SWAP1 JUMPDEST DUP2 SLOAD DUP2 MSTORE SWAP1 PUSH1 0x1 ADD SWAP1 PUSH1 0x20 ADD DUP1 DUP4 GT PUSH2 0xAF3 JUMPI DUP3 SWAP1 SUB PUSH1 0x1F AND DUP3 ADD SWAP2 JUMPDEST POP POP POP POP POP DUP2 MSTORE PUSH1 0x20 ADD PUSH1 0x7 DUP3 ADD DUP1 SLOAD PUSH2 0xB29 SWAP1 PUSH2 0x4127 JUMP JUMPDEST DUP1 PUSH1 0x1F ADD PUSH1 0x20 DUP1 SWAP2 DIV MUL PUSH1 0x20 ADD PUSH1 0x40 MLOAD SWAP1 DUP2 ADD PUSH1 0x40 MSTORE DUP1 SWAP3 SWAP2 SWAP1 DUP2 DUP2 MSTORE PUSH1 0x20 ADD DUP3 DUP1 SLOAD PUSH2 0xB55 SWAP1 PUSH2 0x4127 JUMP JUMPDEST DUP1 ISZERO PUSH2 0xBA2 JUMPI DUP1 PUSH1 0x1F LT PUSH2 0xB77 JUMPI PUSH2 0x100 DUP1 DUP4 SLOAD DIV MUL DUP4 MSTORE SWAP2 PUSH1 0x20 ADD SWAP2 PUSH2 0xBA2 JUMP JUMPDEST DUP3 ADD SWAP2 SWAP1 PUSH1 0x0 MSTORE PUSH1 0x20 PUSH1 0x0 KECCAK256 SWAP1 JUMPDEST DUP2 SLOAD DUP2 MSTORE SWAP1 PUSH1 0x1 ADD SWAP1 PUSH1 0x20 ADD DUP1 DUP4 GT PUSH2 0xB85 JUMPI DUP3 SWAP1 SUB PUSH1 0x1F AND DUP3 ADD SWAP2 JUMPDEST POP POP POP POP POP DUP2 MSTORE PUSH1 0x20 ADD PUSH1 0x8 DUP3 ADD DUP1 SLOAD PUSH2 0xBBB SWAP1 PUSH2 0x4127 JUMP JUMPDEST DUP1 PUSH1 0x1F ADD PUSH1 0x20 DUP1 SWAP2 DIV MUL PUSH1 0x20 ADD PUSH1 0x40 MLOAD SWAP1 DUP2 ADD PUSH1 0x40 MSTORE DUP1 SWAP3 SWAP2 SWAP1 DUP2 DUP2 MSTORE PUSH1 0x20 ADD DUP3 DUP1 SLOAD PUSH2 0xBE7 SWAP1 PUSH2 0x4127 JUMP JUMPDEST DUP1 ISZERO PUSH2 0xC34 JUMPI DUP1 PUSH1 0x1F LT PUSH2 0xC09 JUMPI PUSH2 0x100 DUP1 DUP4 SLOAD DIV MUL DUP4 MSTORE SWAP2 PUSH1 0x20 ADD SWAP2 PUSH2 0xC34 JUMP JUMPDEST DUP3 ADD SWAP2 SWAP1 PUSH1 0x0 MSTORE PUSH1 0x20 PUSH1 0x0 KECCAK256 SWAP1 JUMPDEST DUP2 SLOAD DUP2 MSTORE SWAP1 PUSH1 0x1 ADD SWAP1 PUSH1 0x20 ADD DUP1 DUP4 GT PUSH2 0xC17 JUMPI DUP3 SWAP1 SUB PUSH1 0x1F AND DUP3 ADD SWAP2 JUMPDEST POP POP POP POP POP DUP2 MSTORE PUSH1 0x20 ADD PUSH1 0x9 DUP3 ADD DUP1 SLOAD PUSH2 0xC4D SWAP1 PUSH2 0x4127 JUMP JUMPDEST DUP1 PUSH1 0x1F ADD PUSH1 0x20 DUP1 SWAP2 DIV MUL PUSH1 0x20 ADD PUSH1 0x40 MLOAD SWAP1 DUP2 ADD PUSH1 0x40 MSTORE DUP1 SWAP3 SWAP2 SWAP1 DUP2 DUP2 MSTORE PUSH1 0x20 ADD DUP3 DUP1 SLOAD PUSH2 0xC79 SWAP1 PUSH2 0x4127 JUMP JUMPDEST DUP1 ISZERO PUSH2 0xCC6 JUMPI DUP1 PUSH1 0x1F LT PUSH2 0xC9B JUMPI PUSH2 0x100 DUP1 DUP4 SLOAD DIV MUL DUP4 MSTORE SWAP2 PUSH1 0x20 ADD SWAP2 PUSH2 0xCC6 JUMP JUMPDEST DUP3 ADD SWAP2 SWAP1 PUSH1 0x0 MSTORE PUSH1 0x20 PUSH1 0x0 KECCAK256 SWAP1 JUMPDEST DUP2 SLOAD DUP2 MSTORE SWAP1 PUSH1 0x1 ADD SWAP1 PUSH1 0x20 ADD DUP1 DUP4 GT PUSH2 0xCA9 JUMPI DUP3 SWAP1 SUB PUSH1 0x1F AND DUP3 ADD SWAP2 JUMPDEST POP POP POP POP POP DUP2 MSTORE PUSH1 0x20 ADD PUSH1 0xA DUP3 ADD DUP1 SLOAD PUSH2 0xCDF SWAP1 PUSH2 0x4127 JUMP JUMPDEST DUP1 PUSH1 0x1F ADD PUSH1 0x20 DUP1 SWAP2 DIV MUL PUSH1 0x20 ADD PUSH1 0x40 MLOAD SWAP1 DUP2 ADD PUSH1 0x40 MSTORE DUP1 SWAP3 SWAP2 SWAP1 DUP2 DUP2 MSTORE PUSH1 0x20 ADD DUP3 DUP1 SLOAD PUSH2 0xD0B SWAP1 PUSH2 0x4127 JUMP JUMPDEST DUP1 ISZERO PUSH2 0xD58 JUMPI DUP1 PUSH1 0x1F LT PUSH2 0xD2D JUMPI PUSH2 0x100 DUP1 DUP4 SLOAD DIV MUL DUP4 MSTORE SWAP2 PUSH1 0x20 ADD SWAP2 PUSH2 0xD58 JUMP JUMPDEST DUP3 ADD SWAP2 SWAP1 PUSH1 0x0 MSTORE PUSH1 0x20 PUSH1 0x0 KECCAK256 SWAP1 JUMPDEST DUP2 SLOAD DUP2 MSTORE SWAP1 PUSH1 0x1 ADD SWAP1 PUSH1 0x20 ADD DUP1 DUP4 GT PUSH2 0xD3B JUMPI DUP3 SWAP1 SUB PUSH1 0x1F AND DUP3 ADD SWAP2 JUMPDEST POP POP POP POP POP DUP2 MSTORE PUSH1 0x20 ADD PUSH1 0xB DUP3 ADD DUP1 SLOAD PUSH2 0xD71 SWAP1 PUSH2 0x4127 JUMP JUMPDEST DUP1 PUSH1 0x1F ADD PUSH1 0x20 DUP1 SWAP2 DIV MUL PUSH1 0x20 ADD PUSH1 0x40 MLOAD SWAP1 DUP2 ADD PUSH1 0x40 MSTORE DUP1 SWAP3 SWAP2 SWAP1 DUP2 DUP2 MSTORE PUSH1 0x20 ADD DUP3 DUP1 SLOAD PUSH2 0xD9D SWAP1 PUSH2 0x4127 JUMP JUMPDEST DUP1 ISZERO PUSH2 0xDEA JUMPI DUP1 PUSH1 0x1F LT PUSH2 0xDBF JUMPI PUSH2 0x100 DUP1 DUP4 SLOAD DIV MUL DUP4 MSTORE SWAP2 PUSH1 0x20 ADD SWAP2 PUSH2 0xDEA JUMP JUMPDEST DUP3 ADD SWAP2 SWAP1 PUSH1 0x0 MSTORE PUSH1 0x20 PUSH1 0x0 KECCAK256 SWAP1 JUMPDEST DUP2 SLOAD DUP2 MSTORE SWAP1 PUSH1 0x1 ADD SWAP1 PUSH1 0x20 ADD DUP1 DUP4 GT PUSH2 0xDCD JUMPI DUP3 SWAP1 SUB PUSH1 0x1F AND DUP3 ADD SWAP2 JUMPDEST POP POP POP POP POP DUP2 MSTORE POP POP SWAP1 POP JUMPDEST SWAP2 SWAP1 POP JUMP JUMPDEST PUSH1 0x40 MLOAD PUSH1 0x20 ADD PUSH2 0xE0A SWAP1 PUSH2 0x417F JUMP JUMPDEST PUSH1 0x40 MLOAD PUSH1 0x20 DUP2 DUP4 SUB SUB DUP2 MSTORE SWAP1 PUSH1 0x40 MSTORE DUP1 MLOAD SWAP1 PUSH1 0x20 ADD KECCAK256 PUSH1 0x7 PUSH1 0x0 CALLER PUSH20 0xFFFFFFFFFFFFFFFFFFFFFFFFFFFFFFFFFFFFFFFF AND PUSH20 0xFFFFFFFFFFFFFFFFFFFFFFFFFFFFFFFFFFFFFFFF AND DUP2 MSTORE PUSH1 0x20 ADD SWAP1 DUP2 MSTORE PUSH1 0x20 ADD PUSH1 0x0 KECCAK256 PUSH1 0x40 MLOAD PUSH1 0x20 ADD PUSH2 0xE6F SWAP2 SWAP1 PUSH2 0x4228 JUMP JUMPDEST PUSH1 0x40 MLOAD PUSH1 0x20 DUP2 DUP4 SUB SUB DUP2 MSTORE SWAP1 PUSH1 0x40 MSTORE DUP1 MLOAD SWAP1 PUSH1 0x20 ADD KECCAK256 EQ ISZERO PUSH2 0xEC6 JUMPI PUSH1 0x40 MLOAD PUSH32 0x8C379A000000000000000000000000000000000000000000000000000000000 DUP2 MSTORE PUSH1 0x4 ADD PUSH2 0xEBD SWAP1 PUSH2 0x428B JUMP JUMPDEST PUSH1 0x40 MLOAD DUP1 SWAP2 SUB SWAP1 REVERT JUMPDEST PUSH1 0x0 JUMPDEST DUP5 DUP5 SWAP1 POP DUP2 LT ISZERO PUSH2 0x14E8 JUMPI PUSH1 0x40 MLOAD PUSH1 0x20 ADD PUSH2 0xEE3 SWAP1 PUSH2 0x42F7 JUMP JUMPDEST PUSH1 0x40 MLOAD PUSH1 0x20 DUP2 DUP4 SUB SUB DUP2 MSTORE SWAP1 PUSH1 0x40 MSTORE DUP1 MLOAD SWAP1 PUSH1 0x20 ADD KECCAK256 DUP6 DUP6 DUP4 DUP2 DUP2 LT PUSH2 0xF0C JUMPI PUSH2 0xF0B PUSH2 0x430C JUMP JUMPDEST JUMPDEST SWAP1 POP PUSH1 0x20 MUL DUP2 ADD SWAP1 PUSH2 0xF1E SWAP2 SWAP1 PUSH2 0x434A JUMP JUMPDEST PUSH1 0x40 MLOAD PUSH1 0x20 ADD PUSH2 0xF2F SWAP3 SWAP2 SWAP1 PUSH2 0x43D2 JUMP JUMPDEST PUSH1 0x40 MLOAD PUSH1 0x20 DUP2 DUP4 SUB SUB DUP2 MSTORE SWAP1 PUSH1 0x40 MSTORE DUP1 MLOAD SWAP1 PUSH1 0x20 ADD KECCAK256 EQ ISZERO PUSH2 0xFA6 JUMPI DUP3 DUP3 DUP3 DUP2 DUP2 LT PUSH2 0xF5E JUMPI PUSH2 0xF5D PUSH2 0x430C JUMP JUMPDEST JUMPDEST SWAP1 POP PUSH1 0x20 MUL DUP2 ADD SWAP1 PUSH2 0xF70 SWAP2 SWAP1 PUSH2 0x434A JUMP JUMPDEST PUSH1 0x5 DUP10 DUP10 PUSH1 0x40 MLOAD PUSH2 0xF82 SWAP3 SWAP2 SWAP1 PUSH2 0x43D2 JUMP JUMPDEST SWAP1 DUP2 MSTORE PUSH1 0x20 ADD PUSH1 0x40 MLOAD DUP1 SWAP2 SUB SWAP1 KECCAK256 PUSH1 0x6 ADD SWAP2 SWAP1 PUSH2 0xFA0 SWAP3 SWAP2 SWAP1 PUSH2 0x3457 JUMP JUMPDEST POP PUSH2 0x14D5 JUMP JUMPDEST PUSH1 0x40 MLOAD PUSH1 0x20 ADD PUSH2 0xFB5 SWAP1 PUSH2 0x4437 JUMP JUMPDEST PUSH1 0x40 MLOAD PUSH1 0x20 DUP2 DUP4 SUB SUB DUP2 MSTORE SWAP1 PUSH1 0x40 MSTORE DUP1 MLOAD SWAP1 PUSH1 0x20 ADD KECCAK256 DUP6 DUP6 DUP4 DUP2 DUP2 LT PUSH2 0xFDE JUMPI PUSH2 0xFDD PUSH2 0x430C JUMP JUMPDEST JUMPDEST SWAP1 POP PUSH1 0x20 MUL DUP2 ADD SWAP1 PUSH2 0xFF0 SWAP2 SWAP1 PUSH2 0x434A JUMP JUMPDEST PUSH1 0x40 MLOAD PUSH1 0x20 ADD PUSH2 0x1001 SWAP3 SWAP2 SWAP1 PUSH2 0x43D2 JUMP JUMPDEST PUSH1 0x40 MLOAD PUSH1 0x20 DUP2 DUP4 SUB SUB DUP2 MSTORE SWAP1 PUSH1 0x40 MSTORE DUP1 MLOAD SWAP1 PUSH1 0x20 ADD KECCAK256 EQ ISZERO PUSH2 0x10B9 JUMPI PUSH2 0x108D DUP4 DUP4 DUP4 DUP2 DUP2 LT PUSH2 0x1033 JUMPI PUSH2 0x1032 PUSH2 0x430C JUMP JUMPDEST JUMPDEST SWAP1 POP PUSH1 0x20 MUL DUP2 ADD SWAP1 PUSH2 0x1045 SWAP2 SWAP1 PUSH2 0x434A JUMP JUMPDEST DUP1 DUP1 PUSH1 0x1F ADD PUSH1 0x20 DUP1 SWAP2 DIV MUL PUSH1 0x20 ADD PUSH1 0x40 MLOAD SWAP1 DUP2 ADD PUSH1 0x40 MSTORE DUP1 SWAP4 SWAP3 SWAP2 SWAP1 DUP2 DUP2 MSTORE PUSH1 0x20 ADD DUP4 DUP4 DUP1 DUP3 DUP5 CALLDATACOPY PUSH1 0x0 DUP2 DUP5 ADD MSTORE PUSH1 0x1F NOT PUSH1 0x1F DUP3 ADD AND SWAP1 POP DUP1 DUP4 ADD SWAP3 POP POP POP POP POP POP POP PUSH2 0x1B67 JUMP JUMPDEST PUSH1 0x5 DUP9 DUP9 PUSH1 0x40 MLOAD PUSH2 0x109F SWAP3 SWAP2 SWAP1 PUSH2 0x43D2 JUMP JUMPDEST SWAP1 DUP2 MSTORE PUSH1 0x20 ADD PUSH1 0x40 MLOAD DUP1 SWAP2 SUB SWAP1 KECCAK256 PUSH1 0x5 ADD DUP2 SWAP1 SSTORE POP PUSH2 0x14D4 JUMP JUMPDEST PUSH1 0x40 MLOAD PUSH1 0x20 ADD PUSH2 0x10C8 SWAP1 PUSH2 0x4498 JUMP JUMPDEST PUSH1 0x40 MLOAD PUSH1 0x20 DUP2 DUP4 SUB SUB DUP2 MSTORE SWAP1 PUSH1 0x40 MSTORE DUP1 MLOAD SWAP1 PUSH1 0x20 ADD KECCAK256 DUP6 DUP6 DUP4 DUP2 DUP2 LT PUSH2 0x10F1 JUMPI PUSH2 0x10F0 PUSH2 0x430C JUMP JUMPDEST JUMPDEST SWAP1 POP PUSH1 0x20 MUL DUP2 ADD SWAP1 PUSH2 0x1103 SWAP2 SWAP1 PUSH2 0x434A JUMP JUMPDEST PUSH1 0x40 MLOAD PUSH1 0x20 ADD PUSH2 0x1114 SWAP3 SWAP2 SWAP1 PUSH2 0x43D2 JUMP JUMPDEST PUSH1 0x40 MLOAD PUSH1 0x20 DUP2 DUP4 SUB SUB DUP2 MSTORE SWAP1 PUSH1 0x40 MSTORE DUP1 MLOAD SWAP1 PUSH1 0x20 ADD KECCAK256 EQ ISZERO PUSH2 0x118B JUMPI DUP3 DUP3 DUP3 DUP2 DUP2 LT PUSH2 0x1143 JUMPI PUSH2 0x1142 PUSH2 0x430C JUMP JUMPDEST JUMPDEST SWAP1 POP PUSH1 0x20 MUL DUP2 ADD SWAP1 PUSH2 0x1155 SWAP2 SWAP1 PUSH2 0x434A JUMP JUMPDEST PUSH1 0x5 DUP10 DUP10 PUSH1 0x40 MLOAD PUSH2 0x1167 SWAP3 SWAP2 SWAP1 PUSH2 0x43D2 JUMP JUMPDEST SWAP1 DUP2 MSTORE PUSH1 0x20 ADD PUSH1 0x40 MLOAD DUP1 SWAP2 SUB SWAP1 KECCAK256 PUSH1 0x7 ADD SWAP2 SWAP1 PUSH2 0x1185 SWAP3 SWAP2 SWAP1 PUSH2 0x3457 JUMP JUMPDEST POP PUSH2 0x14D3 JUMP JUMPDEST PUSH1 0x40 MLOAD PUSH1 0x20 ADD PUSH2 0x119A SWAP1 PUSH2 0x44F9 JUMP JUMPDEST PUSH1 0x40 MLOAD PUSH1 0x20 DUP2 DUP4 SUB SUB DUP2 MSTORE SWAP1 PUSH1 0x40 MSTORE DUP1 MLOAD SWAP1 PUSH1 0x20 ADD KECCAK256 DUP6 DUP6 DUP4 DUP2 DUP2 LT PUSH2 0x11C3 JUMPI PUSH2 0x11C2 PUSH2 0x430C JUMP JUMPDEST JUMPDEST SWAP1 POP PUSH1 0x20 MUL DUP2 ADD SWAP1 PUSH2 0x11D5 SWAP2 SWAP1 PUSH2 0x434A JUMP JUMPDEST PUSH1 0x40 MLOAD PUSH1 0x20 ADD PUSH2 0x11E6 SWAP3 SWAP2 SWAP1 PUSH2 0x43D2 JUMP JUMPDEST PUSH1 0x40 MLOAD PUSH1 0x20 DUP2 DUP4 SUB SUB DUP2 MSTORE SWAP1 PUSH1 0x40 MSTORE DUP1 MLOAD SWAP1 PUSH1 0x20 ADD KECCAK256 EQ ISZERO PUSH2 0x125D JUMPI DUP3 DUP3 DUP3 DUP2 DUP2 LT PUSH2 0x1215 JUMPI PUSH2 0x1214 PUSH2 0x430C JUMP JUMPDEST JUMPDEST SWAP1 POP PUSH1 0x20 MUL DUP2 ADD SWAP1 PUSH2 0x1227 SWAP2 SWAP1 PUSH2 0x434A JUMP JUMPDEST PUSH1 0x5 DUP10 DUP10 PUSH1 0x40 MLOAD PUSH2 0x1239 SWAP3 SWAP2 SWAP1 PUSH2 0x43D2 JUMP JUMPDEST SWAP1 DUP2 MSTORE PUSH1 0x20 ADD PUSH1 0x40 MLOAD DUP1 SWAP2 SUB SWAP1 KECCAK256 PUSH1 0x8 ADD SWAP2 SWAP1 PUSH2 0x1257 SWAP3 SWAP2 SWAP1 PUSH2 0x3457 JUMP JUMPDEST POP PUSH2 0x14D2 JUMP JUMPDEST PUSH1 0x40 MLOAD PUSH1 0x20 ADD PUSH2 0x126C SWAP1 PUSH2 0x455A JUMP JUMPDEST PUSH1 0x40 MLOAD PUSH1 0x20 DUP2 DUP4 SUB SUB DUP2 MSTORE SWAP1 PUSH1 0x40 MSTORE DUP1 MLOAD SWAP1 PUSH1 0x20 ADD KECCAK256 DUP6 DUP6 DUP4 DUP2 DUP2 LT PUSH2 0x1295 JUMPI PUSH2 0x1294 PUSH2 0x430C JUMP JUMPDEST JUMPDEST SWAP1 POP PUSH1 0x20 MUL DUP2 ADD SWAP1 PUSH2 0x12A7 SWAP2 SWAP1 PUSH2 0x434A JUMP JUMPDEST PUSH1 0x40 MLOAD PUSH1 0x20 ADD PUSH2 0x12B8 SWAP3 SWAP2 SWAP1 PUSH2 0x43D2 JUMP JUMPDEST PUSH1 0x40 MLOAD PUSH1 0x20 DUP2 DUP4 SUB SUB DUP2 MSTORE SWAP1 PUSH1 0x40 MSTORE DUP1 MLOAD SWAP1 PUSH1 0x20 ADD KECCAK256 EQ ISZERO PUSH2 0x132F JUMPI DUP3 DUP3 DUP3 DUP2 DUP2 LT PUSH2 0x12E7 JUMPI PUSH2 0x12E6 PUSH2 0x430C JUMP JUMPDEST JUMPDEST SWAP1 POP PUSH1 0x20 MUL DUP2 ADD SWAP1 PUSH2 0x12F9 SWAP2 SWAP1 PUSH2 0x434A JUMP JUMPDEST PUSH1 0x5 DUP10 DUP10 PUSH1 0x40 MLOAD PUSH2 0x130B SWAP3 SWAP2 SWAP1 PUSH2 0x43D2 JUMP JUMPDEST SWAP1 DUP2 MSTORE PUSH1 0x20 ADD PUSH1 0x40 MLOAD DUP1 SWAP2 SUB SWAP1 KECCAK256 PUSH1 0x9 ADD SWAP2 SWAP1 PUSH2 0x1329 SWAP3 SWAP2 SWAP1 PUSH2 0x3457 JUMP JUMPDEST POP PUSH2 0x14D1 JUMP JUMPDEST PUSH1 0x40 MLOAD PUSH1 0x20 ADD PUSH2 0x133E SWAP1 PUSH2 0x45BB JUMP JUMPDEST PUSH1 0x40 MLOAD PUSH1 0x20 DUP2 DUP4 SUB SUB DUP2 MSTORE SWAP1 PUSH1 0x40 MSTORE DUP1 MLOAD SWAP1 PUSH1 0x20 ADD KECCAK256 DUP6 DUP6 DUP4 DUP2 DUP2 LT PUSH2 0x1367 JUMPI PUSH2 0x1366 PUSH2 0x430C JUMP JUMPDEST JUMPDEST SWAP1 POP PUSH1 0x20 MUL DUP2 ADD SWAP1 PUSH2 0x1379 SWAP2 SWAP1 PUSH2 0x434A JUMP JUMPDEST PUSH1 0x40 MLOAD PUSH1 0x20 ADD PUSH2 0x138A SWAP3 SWAP2 SWAP1 PUSH2 0x43D2 JUMP JUMPDEST PUSH1 0x40 MLOAD PUSH1 0x20 DUP2 DUP4 SUB SUB DUP2 MSTORE SWAP1 PUSH1 0x40 MSTORE DUP1 MLOAD SWAP1 PUSH1 0x20 ADD KECCAK256 EQ ISZERO PUSH2 0x1401 JUMPI DUP3 DUP3 DUP3 DUP2 DUP2 LT PUSH2 0x13B9 JUMPI PUSH2 0x13B8 PUSH2 0x430C JUMP JUMPDEST JUMPDEST SWAP1 POP PUSH1 0x20 MUL DUP2 ADD SWAP1 PUSH2 0x13CB SWAP2 SWAP1 PUSH2 0x434A JUMP JUMPDEST PUSH1 0x5 DUP10 DUP10 PUSH1 0x40 MLOAD PUSH2 0x13DD SWAP3 SWAP2 SWAP1 PUSH2 0x43D2 JUMP JUMPDEST SWAP1 DUP2 MSTORE PUSH1 0x20 ADD PUSH1 0x40 MLOAD DUP1 SWAP2 SUB SWAP1 KECCAK256 PUSH1 0xA ADD SWAP2 SWAP1 PUSH2 0x13FB SWAP3 SWAP2 SWAP1 PUSH2 0x3457 JUMP JUMPDEST POP PUSH2 0x14D0 JUMP JUMPDEST PUSH1 0x40 MLOAD PUSH1 0x20 ADD PUSH2 0x1410 SWAP1 PUSH2 0x461C JUMP JUMPDEST PUSH1 0x40 MLOAD PUSH1 0x20 DUP2 DUP4 SUB SUB DUP2 MSTORE SWAP1 PUSH1 0x40 MSTORE DUP1 MLOAD SWAP1 PUSH1 0x20 ADD KECCAK256 DUP6 DUP6 DUP4 DUP2 DUP2 LT PUSH2 0x1439 JUMPI PUSH2 0x1438 PUSH2 0x430C JUMP JUMPDEST JUMPDEST SWAP1 POP PUSH1 0x20 MUL DUP2 ADD SWAP1 PUSH2 0x144B SWAP2 SWAP1 PUSH2 0x434A JUMP JUMPDEST PUSH1 0x40 MLOAD PUSH1 0x20 ADD PUSH2 0x145C SWAP3 SWAP2 SWAP1 PUSH2 0x43D2 JUMP JUMPDEST PUSH1 0x40 MLOAD PUSH1 0x20 DUP2 DUP4 SUB SUB DUP2 MSTORE SWAP1 PUSH1 0x40 MSTORE DUP1 MLOAD SWAP1 PUSH1 0x20 ADD KECCAK256 EQ ISZERO PUSH2 0x14CF JUMPI DUP3 DUP3 DUP3 DUP2 DUP2 LT PUSH2 0x148B JUMPI PUSH2 0x148A PUSH2 0x430C JUMP JUMPDEST JUMPDEST SWAP1 POP PUSH1 0x20 MUL DUP2 ADD SWAP1 PUSH2 0x149D SWAP2 SWAP1 PUSH2 0x434A JUMP JUMPDEST PUSH1 0x5 DUP10 DUP10 PUSH1 0x40 MLOAD PUSH2 0x14AF SWAP3 SWAP2 SWAP1 PUSH2 0x43D2 JUMP JUMPDEST SWAP1 DUP2 MSTORE PUSH1 0x20 ADD PUSH1 0x40 MLOAD DUP1 SWAP2 SUB SWAP1 KECCAK256 PUSH1 0xB ADD SWAP2 SWAP1 PUSH2 0x14CD SWAP3 SWAP2 SWAP1 PUSH2 0x3457 JUMP JUMPDEST POP JUMPDEST JUMPDEST JUMPDEST JUMPDEST JUMPDEST JUMPDEST JUMPDEST DUP1 DUP1 PUSH2 0x14E0 SWAP1 PUSH2 0x4660 JUMP JUMPDEST SWAP2 POP POP PUSH2 0xEC9 JUMP JUMPDEST POP POP POP POP POP POP POP JUMP JUMPDEST PUSH1 0x60 PUSH1 0x0 PUSH1 0x3 SLOAD SWAP1 POP PUSH1 0x0 DUP1 PUSH1 0x4 SLOAD PUSH1 0x3 SLOAD PUSH2 0x150D SWAP2 SWAP1 PUSH2 0x46A9 JUMP JUMPDEST PUSH8 0xFFFFFFFFFFFFFFFF DUP2 GT ISZERO PUSH2 0x1526 JUMPI PUSH2 0x1525 PUSH2 0x35AF JUMP JUMPDEST JUMPDEST PUSH1 0x40 MLOAD SWAP1 DUP1 DUP3 MSTORE DUP1 PUSH1 0x20 MUL PUSH1 0x20 ADD DUP3 ADD PUSH1 0x40 MSTORE DUP1 ISZERO PUSH2 0x155F JUMPI DUP2 PUSH1 0x20 ADD JUMPDEST PUSH2 0x154C PUSH2 0x33F6 JUMP JUMPDEST DUP2 MSTORE PUSH1 0x20 ADD SWAP1 PUSH1 0x1 SWAP1 SUB SWAP1 DUP2 PUSH2 0x1544 JUMPI SWAP1 POP JUMPDEST POP SWAP1 POP PUSH1 0x0 PUSH1 0x4 SLOAD SWAP1 POP JUMPDEST DUP4 DUP2 LT ISZERO PUSH2 0x1B49 JUMPI PUSH1 0x0 PUSH1 0x5 PUSH2 0x157F DUP4 PUSH2 0x3081 JUMP JUMPDEST PUSH1 0x40 MLOAD PUSH1 0x20 ADD PUSH2 0x158F SWAP2 SWAP1 PUSH2 0x4703 JUMP JUMPDEST PUSH1 0x40 MLOAD PUSH1 0x20 DUP2 DUP4 SUB SUB DUP2 MSTORE SWAP1 PUSH1 0x40 MSTORE PUSH1 0x40 MLOAD PUSH2 0x15AB SWAP2 SWAP1 PUSH2 0x40E1 JUMP JUMPDEST SWAP1 DUP2 MSTORE PUSH1 0x20 ADD PUSH1 0x40 MLOAD DUP1 SWAP2 SUB SWAP1 KECCAK256 SWAP1 POP DUP1 PUSH1 0x40 MLOAD DUP1 PUSH2 0x180 ADD PUSH1 0x40 MSTORE SWAP1 DUP2 PUSH1 0x0 DUP3 ADD DUP1 SLOAD PUSH2 0x15D8 SWAP1 PUSH2 0x4127 JUMP JUMPDEST DUP1 PUSH1 0x1F ADD PUSH1 0x20 DUP1 SWAP2 DIV MUL PUSH1 0x20 ADD PUSH1 0x40 MLOAD SWAP1 DUP2 ADD PUSH1 0x40 MSTORE DUP1 SWAP3 SWAP2 SWAP1 DUP2 DUP2 MSTORE PUSH1 0x20 ADD DUP3 DUP1 SLOAD PUSH2 0x1604 SWAP1 PUSH2 0x4127 JUMP JUMPDEST DUP1 ISZERO PUSH2 0x1651 JUMPI DUP1 PUSH1 0x1F LT PUSH2 0x1626 JUMPI PUSH2 0x100 DUP1 DUP4 SLOAD DIV MUL DUP4 MSTORE SWAP2 PUSH1 0x20 ADD SWAP2 PUSH2 0x1651 JUMP JUMPDEST DUP3 ADD SWAP2 SWAP1 PUSH1 0x0 MSTORE PUSH1 0x20 PUSH1 0x0 KECCAK256 SWAP1 JUMPDEST DUP2 SLOAD DUP2 MSTORE SWAP1 PUSH1 0x1 ADD SWAP1 PUSH1 0x20 ADD DUP1 DUP4 GT PUSH2 0x1634 JUMPI DUP3 SWAP1 SUB PUSH1 0x1F AND DUP3 ADD SWAP2 JUMPDEST POP POP POP POP POP DUP2 MSTORE PUSH1 0x20 ADD PUSH1 0x1 DUP3 ADD DUP1 SLOAD PUSH2 0x166A SWAP1 PUSH2 0x4127 JUMP JUMPDEST DUP1 PUSH1 0x1F ADD PUSH1 0x20 DUP1 SWAP2 DIV MUL PUSH1 0x20 ADD PUSH1 0x40 MLOAD SWAP1 DUP2 ADD PUSH1 0x40 MSTORE DUP1 SWAP3 SWAP2 SWAP1 DUP2 DUP2 MSTORE PUSH1 0x20 ADD DUP3 DUP1 SLOAD PUSH2 0x1696 SWAP1 PUSH2 0x4127 JUMP JUMPDEST DUP1 ISZERO PUSH2 0x16E3 JUMPI DUP1 PUSH1 0x1F LT PUSH2 0x16B8 JUMPI PUSH2 0x100 DUP1 DUP4 SLOAD DIV MUL DUP4 MSTORE SWAP2 PUSH1 0x20 ADD SWAP2 PUSH2 0x16E3 JUMP JUMPDEST DUP3 ADD SWAP2 SWAP1 PUSH1 0x0 MSTORE PUSH1 0x20 PUSH1 0x0 KECCAK256 SWAP1 JUMPDEST DUP2 SLOAD DUP2 MSTORE SWAP1 PUSH1 0x1 ADD SWAP1 PUSH1 0x20 ADD DUP1 DUP4 GT PUSH2 0x16C6 JUMPI DUP3 SWAP1 SUB PUSH1 0x1F AND DUP3 ADD SWAP2 JUMPDEST POP POP POP POP POP DUP2 MSTORE PUSH1 0x20 ADD PUSH1 0x2 DUP3 ADD DUP1 SLOAD PUSH2 0x16FC SWAP1 PUSH2 0x4127 JUMP JUMPDEST DUP1 PUSH1 0x1F ADD PUSH1 0x20 DUP1 SWAP2 DIV MUL PUSH1 0x20 ADD PUSH1 0x40 MLOAD SWAP1 DUP2 ADD PUSH1 0x40 MSTORE DUP1 SWAP3 SWAP2 SWAP1 DUP2 DUP2 MSTORE PUSH1 0x20 ADD DUP3 DUP1 SLOAD PUSH2 0x1728 SWAP1 PUSH2 0x4127 JUMP JUMPDEST DUP1 ISZERO PUSH2 0x1775 JUMPI DUP1 PUSH1 0x1F LT PUSH2 0x174A JUMPI PUSH2 0x100 DUP1 DUP4 SLOAD DIV MUL DUP4 MSTORE SWAP2 PUSH1 0x20 ADD SWAP2 PUSH2 0x1775 JUMP JUMPDEST DUP3 ADD SWAP2 SWAP1 PUSH1 0x0 MSTORE PUSH1 0x20 PUSH1 0x0 KECCAK256 SWAP1 JUMPDEST DUP2 SLOAD DUP2 MSTORE SWAP1 PUSH1 0x1 ADD SWAP1 PUSH1 0x20 ADD DUP1 DUP4 GT PUSH2 0x1758 JUMPI DUP3 SWAP1 SUB PUSH1 0x1F AND DUP3 ADD SWAP2 JUMPDEST POP POP POP POP POP DUP2 MSTORE PUSH1 0x20 ADD PUSH1 0x3 DUP3 ADD SLOAD DUP2 MSTORE PUSH1 0x20 ADD PUSH1 0x4 DUP3 ADD SLOAD DUP2 MSTORE PUSH1 0x20 ADD PUSH1 0x5 DUP3 ADD SLOAD DUP2 MSTORE PUSH1 0x20 ADD PUSH1 0x6 DUP3 ADD DUP1 SLOAD PUSH2 0x17AC SWAP1 PUSH2 0x4127 JUMP JUMPDEST DUP1 PUSH1 0x1F ADD PUSH1 0x20 DUP1 SWAP2 DIV MUL PUSH1 0x20 ADD PUSH1 0x40 MLOAD SWAP1 DUP2 ADD PUSH1 0x40 MSTORE DUP1 SWAP3 SWAP2 SWAP1 DUP2 DUP2 MSTORE PUSH1 0x20 ADD DUP3 DUP1 SLOAD PUSH2 0x17D8 SWAP1 PUSH2 0x4127 JUMP JUMPDEST DUP1 ISZERO PUSH2 0x1825 JUMPI DUP1 PUSH1 0x1F LT PUSH2 0x17FA JUMPI PUSH2 0x100 DUP1 DUP4 SLOAD DIV MUL DUP4 MSTORE SWAP2 PUSH1 0x20 ADD SWAP2 PUSH2 0x1825 JUMP JUMPDEST DUP3 ADD SWAP2 SWAP1 PUSH1 0x0 MSTORE PUSH1 0x20 PUSH1 0x0 KECCAK256 SWAP1 JUMPDEST DUP2 SLOAD DUP2 MSTORE SWAP1 PUSH1 0x1 ADD SWAP1 PUSH1 0x20 ADD DUP1 DUP4 GT PUSH2 0x1808 JUMPI DUP3 SWAP1 SUB PUSH1 0x1F AND DUP3 ADD SWAP2 JUMPDEST POP POP POP POP POP DUP2 MSTORE PUSH1 0x20 ADD PUSH1 0x7 DUP3 ADD DUP1 SLOAD PUSH2 0x183E SWAP1 PUSH2 0x4127 JUMP JUMPDEST DUP1 PUSH1 0x1F ADD PUSH1 0x20 DUP1 SWAP2 DIV MUL PUSH1 0x20 ADD PUSH1 0x40 MLOAD SWAP1 DUP2 ADD PUSH1 0x40 MSTORE DUP1 SWAP3 SWAP2 SWAP1 DUP2 DUP2 MSTORE PUSH1 0x20 ADD DUP3 DUP1 SLOAD PUSH2 0x186A SWAP1 PUSH2 0x4127 JUMP JUMPDEST DUP1 ISZERO PUSH2 0x18B7 JUMPI DUP1 PUSH1 0x1F LT PUSH2 0x188C JUMPI PUSH2 0x100 DUP1 DUP4 SLOAD DIV MUL DUP4 MSTORE SWAP2 PUSH1 0x20 ADD SWAP2 PUSH2 0x18B7 JUMP JUMPDEST DUP3 ADD SWAP2 SWAP1 PUSH1 0x0 MSTORE PUSH1 0x20 PUSH1 0x0 KECCAK256 SWAP1 JUMPDEST DUP2 SLOAD DUP2 MSTORE SWAP1 PUSH1 0x1 ADD SWAP1 PUSH1 0x20 ADD DUP1 DUP4 GT PUSH2 0x189A JUMPI DUP3 SWAP1 SUB PUSH1 0x1F AND DUP3 ADD SWAP2 JUMPDEST POP POP POP POP POP DUP2 MSTORE PUSH1 0x20 ADD PUSH1 0x8 DUP3 ADD DUP1 SLOAD PUSH2 0x18D0 SWAP1 PUSH2 0x4127 JUMP JUMPDEST DUP1 PUSH1 0x1F ADD PUSH1 0x20 DUP1 SWAP2 DIV MUL PUSH1 0x20 ADD PUSH1 0x40 MLOAD SWAP1 DUP2 ADD PUSH1 0x40 MSTORE DUP1 SWAP3 SWAP2 SWAP1 DUP2 DUP2 MSTORE PUSH1 0x20 ADD DUP3 DUP1 SLOAD PUSH2 0x18FC SWAP1 PUSH2 0x4127 JUMP JUMPDEST DUP1 ISZERO PUSH2 0x1949 JUMPI DUP1 PUSH1 0x1F LT PUSH2 0x191E JUMPI PUSH2 0x100 DUP1 DUP4 SLOAD DIV MUL DUP4 MSTORE SWAP2 PUSH1 0x20 ADD SWAP2 PUSH2 0x1949 JUMP JUMPDEST DUP3 ADD SWAP2 SWAP1 PUSH1 0x0 MSTORE PUSH1 0x20 PUSH1 0x0 KECCAK256 SWAP1 JUMPDEST DUP2 SLOAD DUP2 MSTORE SWAP1 PUSH1 0x1 ADD SWAP1 PUSH1 0x20 ADD DUP1 DUP4 GT PUSH2 0x192C JUMPI DUP3 SWAP1 SUB PUSH1 0x1F AND DUP3 ADD SWAP2 JUMPDEST POP POP POP POP POP DUP2 MSTORE PUSH1 0x20 ADD PUSH1 0x9 DUP3 ADD DUP1 SLOAD PUSH2 0x1962 SWAP1 PUSH2 0x4127 JUMP JUMPDEST DUP1 PUSH1 0x1F ADD PUSH1 0x20 DUP1 SWAP2 DIV MUL PUSH1 0x20 ADD PUSH1 0x40 MLOAD SWAP1 DUP2 ADD PUSH1 0x40 MSTORE DUP1 SWAP3 SWAP2 SWAP1 DUP2 DUP2 MSTORE PUSH1 0x20 ADD DUP3 DUP1 SLOAD PUSH2 0x198E SWAP1 PUSH2 0x4127 JUMP JUMPDEST DUP1 ISZERO PUSH2 0x19DB JUMPI DUP1 PUSH1 0x1F LT PUSH2 0x19B0 JUMPI PUSH2 0x100 DUP1 DUP4 SLOAD DIV MUL DUP4 MSTORE SWAP2 PUSH1 0x20 ADD SWAP2 PUSH2 0x19DB JUMP JUMPDEST DUP3 ADD SWAP2 SWAP1 PUSH1 0x0 MSTORE PUSH1 0x20 PUSH1 0x0 KECCAK256 SWAP1 JUMPDEST DUP2 SLOAD DUP2 MSTORE SWAP1 PUSH1 0x1 ADD SWAP1 PUSH1 0x20 ADD DUP1 DUP4 GT PUSH2 0x19BE JUMPI DUP3 SWAP1 SUB PUSH1 0x1F AND DUP3 ADD SWAP2 JUMPDEST POP POP POP POP POP DUP2 MSTORE PUSH1 0x20 ADD PUSH1 0xA DUP3 ADD DUP1 SLOAD PUSH2 0x19F4 SWAP1 PUSH2 0x4127 JUMP JUMPDEST DUP1 PUSH1 0x1F ADD PUSH1 0x20 DUP1 SWAP2 DIV MUL PUSH1 0x20 ADD PUSH1 0x40 MLOAD SWAP1 DUP2 ADD PUSH1 0x40 MSTORE DUP1 SWAP3 SWAP2 SWAP1 DUP2 DUP2 MSTORE PUSH1 0x20 ADD DUP3 DUP1 SLOAD PUSH2 0x1A20 SWAP1 PUSH2 0x4127 JUMP JUMPDEST DUP1 ISZERO PUSH2 0x1A6D JUMPI DUP1 PUSH1 0x1F LT PUSH2 0x1A42 JUMPI PUSH2 0x100 DUP1 DUP4 SLOAD DIV MUL DUP4 MSTORE SWAP2 PUSH1 0x20 ADD SWAP2 PUSH2 0x1A6D JUMP JUMPDEST DUP3 ADD SWAP2 SWAP1 PUSH1 0x0 MSTORE PUSH1 0x20 PUSH1 0x0 KECCAK256 SWAP1 JUMPDEST DUP2 SLOAD DUP2 MSTORE SWAP1 PUSH1 0x1 ADD SWAP1 PUSH1 0x20 ADD DUP1 DUP4 GT PUSH2 0x1A50 JUMPI DUP3 SWAP1 SUB PUSH1 0x1F AND DUP3 ADD SWAP2 JUMPDEST POP POP POP POP POP DUP2 MSTORE PUSH1 0x20 ADD PUSH1 0xB DUP3 ADD DUP1 SLOAD PUSH2 0x1A86 SWAP1 PUSH2 0x4127 JUMP JUMPDEST DUP1 PUSH1 0x1F ADD PUSH1 0x20 DUP1 SWAP2 DIV MUL PUSH1 0x20 ADD PUSH1 0x40 MLOAD SWAP1 DUP2 ADD PUSH1 0x40 MSTORE DUP1 SWAP3 SWAP2 SWAP1 DUP2 DUP2 MSTORE PUSH1 0x20 ADD DUP3 DUP1 SLOAD PUSH2 0x1AB2 SWAP1 PUSH2 0x4127 JUMP JUMPDEST DUP1 ISZERO PUSH2 0x1AFF JUMPI DUP1 PUSH1 0x1F LT PUSH2 0x1AD4 JUMPI PUSH2 0x100 DUP1 DUP4 SLOAD DIV MUL DUP4 MSTORE SWAP2 PUSH1 0x20 ADD SWAP2 PUSH2 0x1AFF JUMP JUMPDEST DUP3 ADD SWAP2 SWAP1 PUSH1 0x0 MSTORE PUSH1 0x20 PUSH1 0x0 KECCAK256 SWAP1 JUMPDEST DUP2 SLOAD DUP2 MSTORE SWAP1 PUSH1 0x1 ADD SWAP1 PUSH1 0x20 ADD DUP1 DUP4 GT PUSH2 0x1AE2 JUMPI DUP3 SWAP1 SUB PUSH1 0x1F AND DUP3 ADD SWAP2 JUMPDEST POP POP POP POP POP DUP2 MSTORE POP POP DUP4 DUP6 DUP2 MLOAD DUP2 LT PUSH2 0x1B1B JUMPI PUSH2 0x1B1A PUSH2 0x430C JUMP JUMPDEST JUMPDEST PUSH1 0x20 MUL PUSH1 0x20 ADD ADD DUP2 SWAP1 MSTORE POP PUSH1 0x1 DUP5 PUSH2 0x1B33 SWAP2 SWAP1 PUSH2 0x4729 JUMP JUMPDEST SWAP4 POP POP DUP1 DUP1 PUSH2 0x1B41 SWAP1 PUSH2 0x4660 JUMP JUMPDEST SWAP2 POP POP PUSH2 0x156A JUMP JUMPDEST POP DUP1 SWAP4 POP POP POP POP SWAP1 JUMP JUMPDEST PUSH2 0x1B5B PUSH2 0x3159 JUMP JUMPDEST PUSH2 0x1B65 PUSH1 0x0 PUSH2 0x31D7 JUMP JUMPDEST JUMP JUMPDEST PUSH1 0x0 DUP1 PUSH1 0x0 SWAP1 POP PUSH1 0x0 DUP4 SWAP1 POP PUSH1 0x0 JUMPDEST DUP2 MLOAD DUP2 LT ISZERO PUSH2 0x1C16 JUMPI PUSH1 0x0 DUP2 DUP4 MLOAD PUSH2 0x1B8E SWAP2 SWAP1 PUSH2 0x46A9 JUMP JUMPDEST SWAP1 POP PUSH1 0x0 DUP4 DUP4 DUP2 MLOAD DUP2 LT PUSH2 0x1BA5 JUMPI PUSH2 0x1BA4 PUSH2 0x430C JUMP JUMPDEST JUMPDEST PUSH1 0x20 ADD ADD MLOAD PUSH1 0xF8 SHR PUSH1 0xF8 SHL SWAP1 POP PUSH1 0x0 DUP2 PUSH1 0xF8 SHR SWAP1 POP PUSH1 0x0 PUSH1 0x30 DUP3 PUSH1 0xFF AND PUSH2 0x1BCC SWAP2 SWAP1 PUSH2 0x46A9 JUMP JUMPDEST SWAP1 POP PUSH1 0x1 DUP5 PUSH2 0x1BDB SWAP2 SWAP1 PUSH2 0x46A9 JUMP JUMPDEST PUSH1 0xA PUSH2 0x1BE7 SWAP2 SWAP1 PUSH2 0x48B2 JUMP JUMPDEST DUP2 PUSH2 0x1BF2 SWAP2 SWAP1 PUSH2 0x48FD JUMP JUMPDEST DUP8 PUSH2 0x1BFD SWAP2 SWAP1 PUSH2 0x4729 JUMP JUMPDEST SWAP7 POP POP POP POP POP DUP1 DUP1 PUSH2 0x1C0E SWAP1 PUSH2 0x4660 JUMP JUMPDEST SWAP2 POP POP PUSH2 0x1B76 JUMP JUMPDEST POP DUP2 SWAP3 POP POP POP SWAP2 SWAP1 POP JUMP JUMPDEST PUSH2 0x1C29 PUSH2 0x3159 JUMP JUMPDEST DUP2 PUSH1 0x0 PUSH20 0xFFFFFFFFFFFFFFFFFFFFFFFFFFFFFFFFFFFFFFFF AND DUP2 PUSH20 0xFFFFFFFFFFFFFFFFFFFFFFFFFFFFFFFFFFFFFFFF AND EQ ISZERO PUSH2 0x1C9A JUMPI PUSH1 0x40 MLOAD PUSH32 0x8C379A000000000000000000000000000000000000000000000000000000000 DUP2 MSTORE PUSH1 0x4 ADD PUSH2 0x1C91 SWAP1 PUSH2 0x49C9 JUMP JUMPDEST PUSH1 0x40 MLOAD DUP1 SWAP2 SUB SWAP1 REVERT JUMPDEST DUP2 PUSH1 0x7 PUSH1 0x0 DUP6 PUSH20 0xFFFFFFFFFFFFFFFFFFFFFFFFFFFFFFFFFFFFFFFF AND PUSH20 0xFFFFFFFFFFFFFFFFFFFFFFFFFFFFFFFFFFFFFFFF AND DUP2 MSTORE PUSH1 0x20 ADD SWAP1 DUP2 MSTORE PUSH1 0x20 ADD PUSH1 0x0 KECCAK256 SWAP1 DUP1 MLOAD SWAP1 PUSH1 0x20 ADD SWAP1 PUSH2 0x1CED SWAP3 SWAP2 SWAP1 PUSH2 0x34DD JUMP JUMPDEST POP POP POP POP JUMP JUMPDEST PUSH1 0x0 DUP1 PUSH1 0x0 SWAP1 SLOAD SWAP1 PUSH2 0x100 EXP SWAP1 DIV PUSH20 0xFFFFFFFFFFFFFFFFFFFFFFFFFFFFFFFFFFFFFFFF AND SWAP1 POP SWAP1 JUMP JUMPDEST PUSH1 0x7 PUSH1 0x20 MSTORE DUP1 PUSH1 0x0 MSTORE PUSH1 0x40 PUSH1 0x0 KECCAK256 PUSH1 0x0 SWAP2 POP SWAP1 POP DUP1 SLOAD PUSH2 0x1D3B SWAP1 PUSH2 0x4127 JUMP JUMPDEST DUP1 PUSH1 0x1F ADD PUSH1 0x20 DUP1 SWAP2 DIV MUL PUSH1 0x20 ADD PUSH1 0x40 MLOAD SWAP1 DUP2 ADD PUSH1 0x40 MSTORE DUP1 SWAP3 SWAP2 SWAP1 DUP2 DUP2 MSTORE PUSH1 0x20 ADD DUP3 DUP1 SLOAD PUSH2 0x1D67 SWAP1 PUSH2 0x4127 JUMP JUMPDEST DUP1 ISZERO PUSH2 0x1DB4 JUMPI DUP1 PUSH1 0x1F LT PUSH2 0x1D89 JUMPI PUSH2 0x100 DUP1 DUP4 SLOAD DIV MUL DUP4 MSTORE SWAP2 PUSH1 0x20 ADD SWAP2 PUSH2 0x1DB4 JUMP JUMPDEST DUP3 ADD SWAP2 SWAP1 PUSH1 0x0 MSTORE PUSH1 0x20 PUSH1 0x0 KECCAK256 SWAP1 JUMPDEST DUP2 SLOAD DUP2 MSTORE SWAP1 PUSH1 0x1 ADD SWAP1 PUSH1 0x20 ADD DUP1 DUP4 GT PUSH2 0x1D97 JUMPI DUP3 SWAP1 SUB PUSH1 0x1F AND DUP3 ADD SWAP2 JUMPDEST POP POP POP POP POP DUP2 JUMP JUMPDEST PUSH1 0x6 DUP2 DUP2 SLOAD DUP2 LT PUSH2 0x1DCC JUMPI PUSH1 0x0 DUP1 REVERT JUMPDEST SWAP1 PUSH1 0x0 MSTORE PUSH1 0x20 PUSH1 0x0 KECCAK256 SWAP1 PUSH1 0xC MUL ADD PUSH1 0x0 SWAP2 POP SWAP1 POP DUP1 PUSH1 0x0 ADD DUP1 SLOAD PUSH2 0x1DEF SWAP1 PUSH2 0x4127 JUMP JUMPDEST DUP1 PUSH1 0x1F ADD PUSH1 0x20 DUP1 SWAP2 DIV MUL PUSH1 0x20 ADD PUSH1 0x40 MLOAD SWAP1 DUP2 ADD PUSH1 0x40 MSTORE DUP1 SWAP3 SWAP2 SWAP1 DUP2 DUP2 MSTORE PUSH1 0x20 ADD DUP3 DUP1 SLOAD PUSH2 0x1E1B SWAP1 PUSH2 0x4127 JUMP JUMPDEST DUP1 ISZERO PUSH2 0x1E68 JUMPI DUP1 PUSH1 0x1F LT PUSH2 0x1E3D JUMPI PUSH2 0x100 DUP1 DUP4 SLOAD DIV MUL DUP4 MSTORE SWAP2 PUSH1 0x20 ADD SWAP2 PUSH2 0x1E68 JUMP JUMPDEST DUP3 ADD SWAP2 SWAP1 PUSH1 0x0 MSTORE PUSH1 0x20 PUSH1 0x0 KECCAK256 SWAP1 JUMPDEST DUP2 SLOAD DUP2 MSTORE SWAP1 PUSH1 0x1 ADD SWAP1 PUSH1 0x20 ADD DUP1 DUP4 GT PUSH2 0x1E4B JUMPI DUP3 SWAP1 SUB PUSH1 0x1F AND DUP3 ADD SWAP2 JUMPDEST POP POP POP POP POP SWAP1 DUP1 PUSH1 0x1 ADD DUP1 SLOAD PUSH2 0x1E7D SWAP1 PUSH2 0x4127 JUMP JUMPDEST DUP1 PUSH1 0x1F ADD PUSH1 0x20 DUP1 SWAP2 DIV MUL PUSH1 0x20 ADD PUSH1 0x40 MLOAD SWAP1 DUP2 ADD PUSH1 0x40 MSTORE DUP1 SWAP3 SWAP2 SWAP1 DUP2 DUP2 MSTORE PUSH1 0x20 ADD DUP3 DUP1 SLOAD PUSH2 0x1EA9 SWAP1 PUSH2 0x4127 JUMP JUMPDEST DUP1 ISZERO PUSH2 0x1EF6 JUMPI DUP1 PUSH1 0x1F LT PUSH2 0x1ECB JUMPI PUSH2 0x100 DUP1 DUP4 SLOAD DIV MUL DUP4 MSTORE SWAP2 PUSH1 0x20 ADD SWAP2 PUSH2 0x1EF6 JUMP JUMPDEST DUP3 ADD SWAP2 SWAP1 PUSH1 0x0 MSTORE PUSH1 0x20 PUSH1 0x0 KECCAK256 SWAP1 JUMPDEST DUP2 SLOAD DUP2 MSTORE SWAP1 PUSH1 0x1 ADD SWAP1 PUSH1 0x20 ADD DUP1 DUP4 GT PUSH2 0x1ED9 JUMPI DUP3 SWAP1 SUB PUSH1 0x1F AND DUP3 ADD SWAP2 JUMPDEST POP POP POP POP POP SWAP1 DUP1 PUSH1 0x2 ADD DUP1 SLOAD PUSH2 0x1F0B SWAP1 PUSH2 0x4127 JUMP JUMPDEST DUP1 PUSH1 0x1F ADD PUSH1 0x20 DUP1 SWAP2 DIV MUL PUSH1 0x20 ADD PUSH1 0x40 MLOAD SWAP1 DUP2 ADD PUSH1 0x40 MSTORE DUP1 SWAP3 SWAP2 SWAP1 DUP2 DUP2 MSTORE PUSH1 0x20 ADD DUP3 DUP1 SLOAD PUSH2 0x1F37 SWAP1 PUSH2 0x4127 JUMP JUMPDEST DUP1 ISZERO PUSH2 0x1F84 JUMPI DUP1 PUSH1 0x1F LT PUSH2 0x1F59 JUMPI PUSH2 0x100 DUP1 DUP4 SLOAD DIV MUL DUP4 MSTORE SWAP2 PUSH1 0x20 ADD SWAP2 PUSH2 0x1F84 JUMP JUMPDEST DUP3 ADD SWAP2 SWAP1 PUSH1 0x0 MSTORE PUSH1 0x20 PUSH1 0x0 KECCAK256 SWAP1 JUMPDEST DUP2 SLOAD DUP2 MSTORE SWAP1 PUSH1 0x1 ADD SWAP1 PUSH1 0x20 ADD DUP1 DUP4 GT PUSH2 0x1F67 JUMPI DUP3 SWAP1 SUB PUSH1 0x1F AND DUP3 ADD SWAP2 JUMPDEST POP POP POP POP POP SWAP1 DUP1 PUSH1 0x3 ADD SLOAD SWAP1 DUP1 PUSH1 0x4 ADD SLOAD SWAP1 DUP1 PUSH1 0x5 ADD SLOAD SWAP1 DUP1 PUSH1 0x6 ADD DUP1 SLOAD PUSH2 0x1FAB SWAP1 PUSH2 0x4127 JUMP JUMPDEST DUP1 PUSH1 0x1F ADD PUSH1 0x20 DUP1 SWAP2 DIV MUL PUSH1 0x20 ADD PUSH1 0x40 MLOAD SWAP1 DUP2 ADD PUSH1 0x40 MSTORE DUP1 SWAP3 SWAP2 SWAP1 DUP2 DUP2 MSTORE PUSH1 0x20 ADD DUP3 DUP1 SLOAD PUSH2 0x1FD7 SWAP1 PUSH2 0x4127 JUMP JUMPDEST DUP1 ISZERO PUSH2 0x2024 JUMPI DUP1 PUSH1 0x1F LT PUSH2 0x1FF9 JUMPI PUSH2 0x100 DUP1 DUP4 SLOAD DIV MUL DUP4 MSTORE SWAP2 PUSH1 0x20 ADD SWAP2 PUSH2 0x2024 JUMP JUMPDEST DUP3 ADD SWAP2 SWAP1 PUSH1 0x0 MSTORE PUSH1 0x20 PUSH1 0x0 KECCAK256 SWAP1 JUMPDEST DUP2 SLOAD DUP2 MSTORE SWAP1 PUSH1 0x1 ADD SWAP1 PUSH1 0x20 ADD DUP1 DUP4 GT PUSH2 0x2007 JUMPI DUP3 SWAP1 SUB PUSH1 0x1F AND DUP3 ADD SWAP2 JUMPDEST POP POP POP POP POP SWAP1 DUP1 PUSH1 0x7 ADD DUP1 SLOAD PUSH2 0x2039 SWAP1 PUSH2 0x4127 JUMP JUMPDEST DUP1 PUSH1 0x1F ADD PUSH1 0x20 DUP1 SWAP2 DIV MUL PUSH1 0x20 ADD PUSH1 0x40 MLOAD SWAP1 DUP2 ADD PUSH1 0x40 MSTORE DUP1 SWAP3 SWAP2 SWAP1 DUP2 DUP2 MSTORE PUSH1 0x20 ADD DUP3 DUP1 SLOAD PUSH2 0x2065 SWAP1 PUSH2 0x4127 JUMP JUMPDEST DUP1 ISZERO PUSH2 0x20B2 JUMPI DUP1 PUSH1 0x1F LT PUSH2 0x2087 JUMPI PUSH2 0x100 DUP1 DUP4 SLOAD DIV MUL DUP4 MSTORE SWAP2 PUSH1 0x20 ADD SWAP2 PUSH2 0x20B2 JUMP JUMPDEST DUP3 ADD SWAP2 SWAP1 PUSH1 0x0 MSTORE PUSH1 0x20 PUSH1 0x0 KECCAK256 SWAP1 JUMPDEST DUP2 SLOAD DUP2 MSTORE SWAP1 PUSH1 0x1 ADD SWAP1 PUSH1 0x20 ADD DUP1 DUP4 GT PUSH2 0x2095 JUMPI DUP3 SWAP1 SUB PUSH1 0x1F AND DUP3 ADD SWAP2 JUMPDEST POP POP POP POP POP SWAP1 DUP1 PUSH1 0x8 ADD DUP1 SLOAD PUSH2 0x20C7 SWAP1 PUSH2 0x4127 JUMP JUMPDEST DUP1 PUSH1 0x1F ADD PUSH1 0x20 DUP1 SWAP2 DIV MUL PUSH1 0x20 ADD PUSH1 0x40 MLOAD SWAP1 DUP2 ADD PUSH1 0x40 MSTORE DUP1 SWAP3 SWAP2 SWAP1 DUP2 DUP2 MSTORE PUSH1 0x20 ADD DUP3 DUP1 SLOAD PUSH2 0x20F3 SWAP1 PUSH2 0x4127 JUMP JUMPDEST DUP1 ISZERO PUSH2 0x2140 JUMPI DUP1 PUSH1 0x1F LT PUSH2 0x2115 JUMPI PUSH2 0x100 DUP1 DUP4 SLOAD DIV MUL DUP4 MSTORE SWAP2 PUSH1 0x20 ADD SWAP2 PUSH2 0x2140 JUMP JUMPDEST DUP3 ADD SWAP2 SWAP1 PUSH1 0x0 MSTORE PUSH1 0x20 PUSH1 0x0 KECCAK256 SWAP1 JUMPDEST DUP2 SLOAD DUP2 MSTORE SWAP1 PUSH1 0x1 ADD SWAP1 PUSH1 0x20 ADD DUP1 DUP4 GT PUSH2 0x2123 JUMPI DUP3 SWAP1 SUB PUSH1 0x1F AND DUP3 ADD SWAP2 JUMPDEST POP POP POP POP POP SWAP1 DUP1 PUSH1 0x9 ADD DUP1 SLOAD PUSH2 0x2155 SWAP1 PUSH2 0x4127 JUMP JUMPDEST DUP1 PUSH1 0x1F ADD PUSH1 0x20 DUP1 SWAP2 DIV MUL PUSH1 0x20 ADD PUSH1 0x40 MLOAD SWAP1 DUP2 ADD PUSH1 0x40 MSTORE DUP1 SWAP3 SWAP2 SWAP1 DUP2 DUP2 MSTORE PUSH1 0x20 ADD DUP3 DUP1 SLOAD PUSH2 0x2181 SWAP1 PUSH2 0x4127 JUMP JUMPDEST DUP1 ISZERO PUSH2 0x21CE JUMPI DUP1 PUSH1 0x1F LT PUSH2 0x21A3 JUMPI PUSH2 0x100 DUP1 DUP4 SLOAD DIV MUL DUP4 MSTORE SWAP2 PUSH1 0x20 ADD SWAP2 PUSH2 0x21CE JUMP JUMPDEST DUP3 ADD SWAP2 SWAP1 PUSH1 0x0 MSTORE PUSH1 0x20 PUSH1 0x0 KECCAK256 SWAP1 JUMPDEST DUP2 SLOAD DUP2 MSTORE SWAP1 PUSH1 0x1 ADD SWAP1 PUSH1 0x20 ADD DUP1 DUP4 GT PUSH2 0x21B1 JUMPI DUP3 SWAP1 SUB PUSH1 0x1F AND DUP3 ADD SWAP2 JUMPDEST POP POP POP POP POP SWAP1 DUP1 PUSH1 0xA ADD DUP1 SLOAD PUSH2 0x21E3 SWAP1 PUSH2 0x4127 JUMP JUMPDEST DUP1 PUSH1 0x1F ADD PUSH1 0x20 DUP1 SWAP2 DIV MUL PUSH1 0x20 ADD PUSH1 0x40 MLOAD SWAP1 DUP2 ADD PUSH1 0x40 MSTORE DUP1 SWAP3 SWAP2 SWAP1 DUP2 DUP2 MSTORE PUSH1 0x20 ADD DUP3 DUP1 SLOAD PUSH2 0x220F SWAP1 PUSH2 0x4127 JUMP JUMPDEST DUP1 ISZERO PUSH2 0x225C JUMPI DUP1 PUSH1 0x1F LT PUSH2 0x2231 JUMPI PUSH2 0x100 DUP1 DUP4 SLOAD DIV MUL DUP4 MSTORE SWAP2 PUSH1 0x20 ADD SWAP2 PUSH2 0x225C JUMP JUMPDEST DUP3 ADD SWAP2 SWAP1 PUSH1 0x0 MSTORE PUSH1 0x20 PUSH1 0x0 KECCAK256 SWAP1 JUMPDEST DUP2 SLOAD DUP2 MSTORE SWAP1 PUSH1 0x1 ADD SWAP1 PUSH1 0x20 ADD DUP1 DUP4 GT PUSH2 0x223F JUMPI DUP3 SWAP1 SUB PUSH1 0x1F AND DUP3 ADD SWAP2 JUMPDEST POP POP POP POP POP SWAP1 DUP1 PUSH1 0xB ADD DUP1 SLOAD PUSH2 0x2271 SWAP1 PUSH2 0x4127 JUMP JUMPDEST DUP1 PUSH1 0x1F ADD PUSH1 0x20 DUP1 SWAP2 DIV MUL PUSH1 0x20 ADD PUSH1 0x40 MLOAD SWAP1 DUP2 ADD PUSH1 0x40 MSTORE DUP1 SWAP3 SWAP2 SWAP1 DUP2 DUP2 MSTORE PUSH1 0x20 ADD DUP3 DUP1 SLOAD PUSH2 0x229D SWAP1 PUSH2 0x4127 JUMP JUMPDEST DUP1 ISZERO PUSH2 0x22EA JUMPI DUP1 PUSH1 0x1F LT PUSH2 0x22BF JUMPI PUSH2 0x100 DUP1 DUP4 SLOAD DIV MUL DUP4 MSTORE SWAP2 PUSH1 0x20 ADD SWAP2 PUSH2 0x22EA JUMP JUMPDEST DUP3 ADD SWAP2 SWAP1 PUSH1 0x0 MSTORE PUSH1 0x20 PUSH1 0x0 KECCAK256 SWAP1 JUMPDEST DUP2 SLOAD DUP2 MSTORE SWAP1 PUSH1 0x1 ADD SWAP1 PUSH1 0x20 ADD DUP1 DUP4 GT PUSH2 0x22CD JUMPI DUP3 SWAP1 SUB PUSH1 0x1F AND DUP3 ADD SWAP2 JUMPDEST POP POP POP POP POP SWAP1 POP DUP13 JUMP JUMPDEST PUSH1 0x5 DUP2 DUP1 MLOAD PUSH1 0x20 DUP2 ADD DUP3 ADD DUP1 MLOAD DUP5 DUP3 MSTORE PUSH1 0x20 DUP4 ADD PUSH1 0x20 DUP6 ADD KECCAK256 DUP2 DUP4 MSTORE DUP1 SWAP6 POP POP POP POP POP POP PUSH1 0x0 SWAP2 POP SWAP1 POP DUP1 PUSH1 0x0 ADD DUP1 SLOAD PUSH2 0x232D SWAP1 PUSH2 0x4127 JUMP JUMPDEST DUP1 PUSH1 0x1F ADD PUSH1 0x20 DUP1 SWAP2 DIV MUL PUSH1 0x20 ADD PUSH1 0x40 MLOAD SWAP1 DUP2 ADD PUSH1 0x40 MSTORE DUP1 SWAP3 SWAP2 SWAP1 DUP2 DUP2 MSTORE PUSH1 0x20 ADD DUP3 DUP1 SLOAD PUSH2 0x2359 SWAP1 PUSH2 0x4127 JUMP JUMPDEST DUP1 ISZERO PUSH2 0x23A6 JUMPI DUP1 PUSH1 0x1F LT PUSH2 0x237B JUMPI PUSH2 0x100 DUP1 DUP4 SLOAD DIV MUL DUP4 MSTORE SWAP2 PUSH1 0x20 ADD SWAP2 PUSH2 0x23A6 JUMP JUMPDEST DUP3 ADD SWAP2 SWAP1 PUSH1 0x0 MSTORE PUSH1 0x20 PUSH1 0x0 KECCAK256 SWAP1 JUMPDEST DUP2 SLOAD DUP2 MSTORE SWAP1 PUSH1 0x1 ADD SWAP1 PUSH1 0x20 ADD DUP1 DUP4 GT PUSH2 0x2389 JUMPI DUP3 SWAP1 SUB PUSH1 0x1F AND DUP3 ADD SWAP2 JUMPDEST POP POP POP POP POP SWAP1 DUP1 PUSH1 0x1 ADD DUP1 SLOAD PUSH2 0x23BB SWAP1 PUSH2 0x4127 JUMP JUMPDEST DUP1 PUSH1 0x1F ADD PUSH1 0x20 DUP1 SWAP2 DIV MUL PUSH1 0x20 ADD PUSH1 0x40 MLOAD SWAP1 DUP2 ADD PUSH1 0x40 MSTORE DUP1 SWAP3 SWAP2 SWAP1 DUP2 DUP2 MSTORE PUSH1 0x20 ADD DUP3 DUP1 SLOAD PUSH2 0x23E7 SWAP1 PUSH2 0x4127 JUMP JUMPDEST DUP1 ISZERO PUSH2 0x2434 JUMPI DUP1 PUSH1 0x1F LT PUSH2 0x2409 JUMPI PUSH2 0x100 DUP1 DUP4 SLOAD DIV MUL DUP4 MSTORE SWAP2 PUSH1 0x20 ADD SWAP2 PUSH2 0x2434 JUMP JUMPDEST DUP3 ADD SWAP2 SWAP1 PUSH1 0x0 MSTORE PUSH1 0x20 PUSH1 0x0 KECCAK256 SWAP1 JUMPDEST DUP2 SLOAD DUP2 MSTORE SWAP1 PUSH1 0x1 ADD SWAP1 PUSH1 0x20 ADD DUP1 DUP4 GT PUSH2 0x2417 JUMPI DUP3 SWAP1 SUB PUSH1 0x1F AND DUP3 ADD SWAP2 JUMPDEST POP POP POP POP POP SWAP1 DUP1 PUSH1 0x2 ADD DUP1 SLOAD PUSH2 0x2449 SWAP1 PUSH2 0x4127 JUMP JUMPDEST DUP1 PUSH1 0x1F ADD PUSH1 0x20 DUP1 SWAP2 DIV MUL PUSH1 0x20 ADD PUSH1 0x40 MLOAD SWAP1 DUP2 ADD PUSH1 0x40 MSTORE DUP1 SWAP3 SWAP2 SWAP1 DUP2 DUP2 MSTORE PUSH1 0x20 ADD DUP3 DUP1 SLOAD PUSH2 0x2475 SWAP1 PUSH2 0x4127 JUMP JUMPDEST DUP1 ISZERO PUSH2 0x24C2 JUMPI DUP1 PUSH1 0x1F LT PUSH2 0x2497 JUMPI PUSH2 0x100 DUP1 DUP4 SLOAD DIV MUL DUP4 MSTORE SWAP2 PUSH1 0x20 ADD SWAP2 PUSH2 0x24C2 JUMP JUMPDEST DUP3 ADD SWAP2 SWAP1 PUSH1 0x0 MSTORE PUSH1 0x20 PUSH1 0x0 KECCAK256 SWAP1 JUMPDEST DUP2 SLOAD DUP2 MSTORE SWAP1 PUSH1 0x1 ADD SWAP1 PUSH1 0x20 ADD DUP1 DUP4 GT PUSH2 0x24A5 JUMPI DUP3 SWAP1 SUB PUSH1 0x1F AND DUP3 ADD SWAP2 JUMPDEST POP POP POP POP POP SWAP1 DUP1 PUSH1 0x3 ADD SLOAD SWAP1 DUP1 PUSH1 0x4 ADD SLOAD SWAP1 DUP1 PUSH1 0x5 ADD SLOAD SWAP1 DUP1 PUSH1 0x6 ADD DUP1 SLOAD PUSH2 0x24E9 SWAP1 PUSH2 0x4127 JUMP JUMPDEST DUP1 PUSH1 0x1F ADD PUSH1 0x20 DUP1 SWAP2 DIV MUL PUSH1 0x20 ADD PUSH1 0x40 MLOAD SWAP1 DUP2 ADD PUSH1 0x40 MSTORE DUP1 SWAP3 SWAP2 SWAP1 DUP2 DUP2 MSTORE PUSH1 0x20 ADD DUP3 DUP1 SLOAD PUSH2 0x2515 SWAP1 PUSH2 0x4127 JUMP JUMPDEST DUP1 ISZERO PUSH2 0x2562 JUMPI DUP1 PUSH1 0x1F LT PUSH2 0x2537 JUMPI PUSH2 0x100 DUP1 DUP4 SLOAD DIV MUL DUP4 MSTORE SWAP2 PUSH1 0x20 ADD SWAP2 PUSH2 0x2562 JUMP JUMPDEST DUP3 ADD SWAP2 SWAP1 PUSH1 0x0 MSTORE PUSH1 0x20 PUSH1 0x0 KECCAK256 SWAP1 JUMPDEST DUP2 SLOAD DUP2 MSTORE SWAP1 PUSH1 0x1 ADD SWAP1 PUSH1 0x20 ADD DUP1 DUP4 GT PUSH2 0x2545 JUMPI DUP3 SWAP1 SUB PUSH1 0x1F AND DUP3 ADD SWAP2 JUMPDEST POP POP POP POP POP SWAP1 DUP1 PUSH1 0x7 ADD DUP1 SLOAD PUSH2 0x2577 SWAP1 PUSH2 0x4127 JUMP JUMPDEST DUP1 PUSH1 0x1F ADD PUSH1 0x20 DUP1 SWAP2 DIV MUL PUSH1 0x20 ADD PUSH1 0x40 MLOAD SWAP1 DUP2 ADD PUSH1 0x40 MSTORE DUP1 SWAP3 SWAP2 SWAP1 DUP2 DUP2 MSTORE PUSH1 0x20 ADD DUP3 DUP1 SLOAD PUSH2 0x25A3 SWAP1 PUSH2 0x4127 JUMP JUMPDEST DUP1 ISZERO PUSH2 0x25F0 JUMPI DUP1 PUSH1 0x1F LT PUSH2 0x25C5 JUMPI PUSH2 0x100 DUP1 DUP4 SLOAD DIV MUL DUP4 MSTORE SWAP2 PUSH1 0x20 ADD SWAP2 PUSH2 0x25F0 JUMP JUMPDEST DUP3 ADD SWAP2 SWAP1 PUSH1 0x0 MSTORE PUSH1 0x20 PUSH1 0x0 KECCAK256 SWAP1 JUMPDEST DUP2 SLOAD DUP2 MSTORE SWAP1 PUSH1 0x1 ADD SWAP1 PUSH1 0x20 ADD DUP1 DUP4 GT PUSH2 0x25D3 JUMPI DUP3 SWAP1 SUB PUSH1 0x1F AND DUP3 ADD SWAP2 JUMPDEST POP POP POP POP POP SWAP1 DUP1 PUSH1 0x8 ADD DUP1 SLOAD PUSH2 0x2605 SWAP1 PUSH2 0x4127 JUMP JUMPDEST DUP1 PUSH1 0x1F ADD PUSH1 0x20 DUP1 SWAP2 DIV MUL PUSH1 0x20 ADD PUSH1 0x40 MLOAD SWAP1 DUP2 ADD PUSH1 0x40 MSTORE DUP1 SWAP3 SWAP2 SWAP1 DUP2 DUP2 MSTORE PUSH1 0x20 ADD DUP3 DUP1 SLOAD PUSH2 0x2631 SWAP1 PUSH2 0x4127 JUMP JUMPDEST DUP1 ISZERO PUSH2 0x267E JUMPI DUP1 PUSH1 0x1F LT PUSH2 0x2653 JUMPI PUSH2 0x100 DUP1 DUP4 SLOAD DIV MUL DUP4 MSTORE SWAP2 PUSH1 0x20 ADD SWAP2 PUSH2 0x267E JUMP JUMPDEST DUP3 ADD SWAP2 SWAP1 PUSH1 0x0 MSTORE PUSH1 0x20 PUSH1 0x0 KECCAK256 SWAP1 JUMPDEST DUP2 SLOAD DUP2 MSTORE SWAP1 PUSH1 0x1 ADD SWAP1 PUSH1 0x20 ADD DUP1 DUP4 GT PUSH2 0x2661 JUMPI DUP3 SWAP1 SUB PUSH1 0x1F AND DUP3 ADD SWAP2 JUMPDEST POP POP POP POP POP SWAP1 DUP1 PUSH1 0x9 ADD DUP1 SLOAD PUSH2 0x2693 SWAP1 PUSH2 0x4127 JUMP JUMPDEST DUP1 PUSH1 0x1F ADD PUSH1 0x20 DUP1 SWAP2 DIV MUL PUSH1 0x20 ADD PUSH1 0x40 MLOAD SWAP1 DUP2 ADD PUSH1 0x40 MSTORE DUP1 SWAP3 SWAP2 SWAP1 DUP2 DUP2 MSTORE PUSH1 0x20 ADD DUP3 DUP1 SLOAD PUSH2 0x26BF SWAP1 PUSH2 0x4127 JUMP JUMPDEST DUP1 ISZERO PUSH2 0x270C JUMPI DUP1 PUSH1 0x1F LT PUSH2 0x26E1 JUMPI PUSH2 0x100 DUP1 DUP4 SLOAD DIV MUL DUP4 MSTORE SWAP2 PUSH1 0x20 ADD SWAP2 PUSH2 0x270C JUMP JUMPDEST DUP3 ADD SWAP2 SWAP1 PUSH1 0x0 MSTORE PUSH1 0x20 PUSH1 0x0 KECCAK256 SWAP1 JUMPDEST DUP2 SLOAD DUP2 MSTORE SWAP1 PUSH1 0x1 ADD SWAP1 PUSH1 0x20 ADD DUP1 DUP4 GT PUSH2 0x26EF JUMPI DUP3 SWAP1 SUB PUSH1 0x1F AND DUP3 ADD SWAP2 JUMPDEST POP POP POP POP POP SWAP1 DUP1 PUSH1 0xA ADD DUP1 SLOAD PUSH2 0x2721 SWAP1 PUSH2 0x4127 JUMP JUMPDEST DUP1 PUSH1 0x1F ADD PUSH1 0x20 DUP1 SWAP2 DIV MUL PUSH1 0x20 ADD PUSH1 0x40 MLOAD SWAP1 DUP2 ADD PUSH1 0x40 MSTORE DUP1 SWAP3 SWAP2 SWAP1 DUP2 DUP2 MSTORE PUSH1 0x20 ADD DUP3 DUP1 SLOAD PUSH2 0x274D SWAP1 PUSH2 0x4127 JUMP JUMPDEST DUP1 ISZERO PUSH2 0x279A JUMPI DUP1 PUSH1 0x1F LT PUSH2 0x276F JUMPI PUSH2 0x100 DUP1 DUP4 SLOAD DIV MUL DUP4 MSTORE SWAP2 PUSH1 0x20 ADD SWAP2 PUSH2 0x279A JUMP JUMPDEST DUP3 ADD SWAP2 SWAP1 PUSH1 0x0 MSTORE PUSH1 0x20 PUSH1 0x0 KECCAK256 SWAP1 JUMPDEST DUP2 SLOAD DUP2 MSTORE SWAP1 PUSH1 0x1 ADD SWAP1 PUSH1 0x20 ADD DUP1 DUP4 GT PUSH2 0x277D JUMPI DUP3 SWAP1 SUB PUSH1 0x1F AND DUP3 ADD SWAP2 JUMPDEST POP POP POP POP POP SWAP1 DUP1 PUSH1 0xB ADD DUP1 SLOAD PUSH2 0x27AF SWAP1 PUSH2 0x4127 JUMP JUMPDEST DUP1 PUSH1 0x1F ADD PUSH1 0x20 DUP1 SWAP2 DIV MUL PUSH1 0x20 ADD PUSH1 0x40 MLOAD SWAP1 DUP2 ADD PUSH1 0x40 MSTORE DUP1 SWAP3 SWAP2 SWAP1 DUP2 DUP2 MSTORE PUSH1 0x20 ADD DUP3 DUP1 SLOAD PUSH2 0x27DB SWAP1 PUSH2 0x4127 JUMP JUMPDEST DUP1 ISZERO PUSH2 0x2828 JUMPI DUP1 PUSH1 0x1F LT PUSH2 0x27FD JUMPI PUSH2 0x100 DUP1 DUP4 SLOAD DIV MUL DUP4 MSTORE SWAP2 PUSH1 0x20 ADD SWAP2 PUSH2 0x2828 JUMP JUMPDEST DUP3 ADD SWAP2 SWAP1 PUSH1 0x0 MSTORE PUSH1 0x20 PUSH1 0x0 KECCAK256 SWAP1 JUMPDEST DUP2 SLOAD DUP2 MSTORE SWAP1 PUSH1 0x1 ADD SWAP1 PUSH1 0x20 ADD DUP1 DUP4 GT PUSH2 0x280B JUMPI DUP3 SWAP1 SUB PUSH1 0x1F AND DUP3 ADD SWAP2 JUMPDEST POP POP POP POP POP SWAP1 POP DUP13 JUMP JUMPDEST PUSH2 0x283A PUSH2 0x3159 JUMP JUMPDEST PUSH1 0x0 PUSH20 0xFFFFFFFFFFFFFFFFFFFFFFFFFFFFFFFFFFFFFFFF AND DUP2 PUSH20 0xFFFFFFFFFFFFFFFFFFFFFFFFFFFFFFFFFFFFFFFF AND EQ ISZERO PUSH2 0x28AA JUMPI PUSH1 0x40 MLOAD PUSH32 0x8C379A000000000000000000000000000000000000000000000000000000000 DUP2 MSTORE PUSH1 0x4 ADD PUSH2 0x28A1 SWAP1 PUSH2 0x4A5B JUMP JUMPDEST PUSH1 0x40 MLOAD DUP1 SWAP2 SUB SWAP1 REVERT JUMPDEST PUSH2 0x28B3 DUP2 PUSH2 0x31D7 JUMP JUMPDEST POP JUMP JUMPDEST PUSH1 0x40 MLOAD PUSH1 0x20 ADD PUSH2 0x28C5 SWAP1 PUSH2 0x4AC7 JUMP JUMPDEST PUSH1 0x40 MLOAD PUSH1 0x20 DUP2 DUP4 SUB SUB DUP2 MSTORE SWAP1 PUSH1 0x40 MSTORE DUP1 MLOAD SWAP1 PUSH1 0x20 ADD KECCAK256 PUSH1 0x7 PUSH1 0x0 CALLER PUSH20 0xFFFFFFFFFFFFFFFFFFFFFFFFFFFFFFFFFFFFFFFF AND PUSH20 0xFFFFFFFFFFFFFFFFFFFFFFFFFFFFFFFFFFFFFFFF AND DUP2 MSTORE PUSH1 0x20 ADD SWAP1 DUP2 MSTORE PUSH1 0x20 ADD PUSH1 0x0 KECCAK256 PUSH1 0x40 MLOAD PUSH1 0x20 ADD PUSH2 0x292A SWAP2 SWAP1 PUSH2 0x4228 JUMP JUMPDEST PUSH1 0x40 MLOAD PUSH1 0x20 DUP2 DUP4 SUB SUB DUP2 MSTORE SWAP1 PUSH1 0x40 MSTORE DUP1 MLOAD SWAP1 PUSH1 0x20 ADD KECCAK256 EQ PUSH2 0x2980 JUMPI PUSH1 0x40 MLOAD PUSH32 0x8C379A000000000000000000000000000000000000000000000000000000000 DUP2 MSTORE PUSH1 0x4 ADD PUSH2 0x2977 SWAP1 PUSH2 0x4B28 JUMP JUMPDEST PUSH1 0x40 MLOAD DUP1 SWAP2 SUB SWAP1 REVERT JUMPDEST PUSH1 0x0 PUSH2 0x298D PUSH1 0x3 SLOAD PUSH2 0x3081 JUMP JUMPDEST PUSH1 0x40 MLOAD PUSH1 0x20 ADD PUSH2 0x299D SWAP2 SWAP1 PUSH2 0x4703 JUMP JUMPDEST PUSH1 0x40 MLOAD PUSH1 0x20 DUP2 DUP4 SUB SUB DUP2 MSTORE SWAP1 PUSH1 0x40 MSTORE SWAP1 POP PUSH1 0x0 PUSH1 0x40 MLOAD DUP1 PUSH2 0x180 ADD PUSH1 0x40 MSTORE DUP1 DUP4 DUP2 MSTORE PUSH1 0x20 ADD PUSH2 0x29CD PUSH1 0x3 SLOAD PUSH2 0x3081 JUMP JUMPDEST PUSH1 0x40 MLOAD PUSH1 0x20 ADD PUSH2 0x29DD SWAP2 SWAP1 PUSH2 0x4B6E JUMP JUMPDEST PUSH1 0x40 MLOAD PUSH1 0x20 DUP2 DUP4 SUB SUB DUP2 MSTORE SWAP1 PUSH1 0x40 MSTORE DUP2 MSTORE PUSH1 0x20 ADD DUP8 DUP2 MSTORE PUSH1 0x20 ADD DUP7 DUP2 MSTORE PUSH1 0x20 ADD DUP6 DUP2 MSTORE PUSH1 0x20 ADD PUSH1 0x0 DUP2 MSTORE PUSH1 0x20 ADD DUP5 DUP2 MSTORE PUSH1 0x20 ADD PUSH1 0x40 MLOAD DUP1 PUSH1 0x20 ADD PUSH1 0x40 MSTORE DUP1 PUSH1 0x0 DUP2 MSTORE POP DUP2 MSTORE PUSH1 0x20 ADD PUSH1 0x40 MLOAD DUP1 PUSH1 0x20 ADD PUSH1 0x40 MSTORE DUP1 PUSH1 0x0 DUP2 MSTORE POP DUP2 MSTORE PUSH1 0x20 ADD PUSH1 0x40 MLOAD DUP1 PUSH1 0x20 ADD PUSH1 0x40 MSTORE DUP1 PUSH1 0x0 DUP2 MSTORE POP DUP2 MSTORE PUSH1 0x20 ADD PUSH1 0x40 MLOAD DUP1 PUSH1 0x20 ADD PUSH1 0x40 MSTORE DUP1 PUSH1 0x0 DUP2 MSTORE POP DUP2 MSTORE PUSH1 0x20 ADD PUSH1 0x40 MLOAD DUP1 PUSH1 0x20 ADD PUSH1 0x40 MSTORE DUP1 PUSH1 0x0 DUP2 MSTORE POP DUP2 MSTORE POP SWAP1 POP PUSH1 0x6 DUP2 SWAP1 DUP1 PUSH1 0x1 DUP2 SLOAD ADD DUP1 DUP3 SSTORE DUP1 SWAP2 POP POP PUSH1 0x1 SWAP1 SUB SWAP1 PUSH1 0x0 MSTORE PUSH1 0x20 PUSH1 0x0 KECCAK256 SWAP1 PUSH1 0xC MUL ADD PUSH1 0x0 SWAP1 SWAP2 SWAP1 SWAP2 SWAP1 SWAP2 POP PUSH1 0x0 DUP3 ADD MLOAD DUP2 PUSH1 0x0 ADD SWAP1 DUP1 MLOAD SWAP1 PUSH1 0x20 ADD SWAP1 PUSH2 0x2AC1 SWAP3 SWAP2 SWAP1 PUSH2 0x34DD JUMP JUMPDEST POP PUSH1 0x20 DUP3 ADD MLOAD DUP2 PUSH1 0x1 ADD SWAP1 DUP1 MLOAD SWAP1 PUSH1 0x20 ADD SWAP1 PUSH2 0x2ADE SWAP3 SWAP2 SWAP1 PUSH2 0x34DD JUMP JUMPDEST POP PUSH1 0x40 DUP3 ADD MLOAD DUP2 PUSH1 0x2 ADD SWAP1 DUP1 MLOAD SWAP1 PUSH1 0x20 ADD SWAP1 PUSH2 0x2AFB SWAP3 SWAP2 SWAP1 PUSH2 0x34DD JUMP JUMPDEST POP PUSH1 0x60 DUP3 ADD MLOAD DUP2 PUSH1 0x3 ADD SSTORE PUSH1 0x80 DUP3 ADD MLOAD DUP2 PUSH1 0x4 ADD SSTORE PUSH1 0xA0 DUP3 ADD MLOAD DUP2 PUSH1 0x5 ADD SSTORE PUSH1 0xC0 DUP3 ADD MLOAD DUP2 PUSH1 0x6 ADD SWAP1 DUP1 MLOAD SWAP1 PUSH1 0x20 ADD SWAP1 PUSH2 0x2B36 SWAP3 SWAP2 SWAP1 PUSH2 0x34DD JUMP JUMPDEST POP PUSH1 0xE0 DUP3 ADD MLOAD DUP2 PUSH1 0x7 ADD SWAP1 DUP1 MLOAD SWAP1 PUSH1 0x20 ADD SWAP1 PUSH2 0x2B53 SWAP3 SWAP2 SWAP1 PUSH2 0x34DD JUMP JUMPDEST POP PUSH2 0x100 DUP3 ADD MLOAD DUP2 PUSH1 0x8 ADD SWAP1 DUP1 MLOAD SWAP1 PUSH1 0x20 ADD SWAP1 PUSH2 0x2B71 SWAP3 SWAP2 SWAP1 PUSH2 0x34DD JUMP JUMPDEST POP PUSH2 0x120 DUP3 ADD MLOAD DUP2 PUSH1 0x9 ADD SWAP1 DUP1 MLOAD SWAP1 PUSH1 0x20 ADD SWAP1 PUSH2 0x2B8F SWAP3 SWAP2 SWAP1 PUSH2 0x34DD JUMP JUMPDEST POP PUSH2 0x140 DUP3 ADD MLOAD DUP2 PUSH1 0xA ADD SWAP1 DUP1 MLOAD SWAP1 PUSH1 0x20 ADD SWAP1 PUSH2 0x2BAD SWAP3 SWAP2 SWAP1 PUSH2 0x34DD JUMP JUMPDEST POP PUSH2 0x160 DUP3 ADD MLOAD DUP2 PUSH1 0xB ADD SWAP1 DUP1 MLOAD SWAP1 PUSH1 0x20 ADD SWAP1 PUSH2 0x2BCB SWAP3 SWAP2 SWAP1 PUSH2 0x34DD JUMP JUMPDEST POP POP POP DUP1 PUSH1 0x5 DUP4 PUSH1 0x40 MLOAD PUSH2 0x2BDF SWAP2 SWAP1 PUSH2 0x40E1 JUMP JUMPDEST SWAP1 DUP2 MSTORE PUSH1 0x20 ADD PUSH1 0x40 MLOAD DUP1 SWAP2 SUB SWAP1 KECCAK256 PUSH1 0x0 DUP3 ADD MLOAD DUP2 PUSH1 0x0 ADD SWAP1 DUP1 MLOAD SWAP1 PUSH1 0x20 ADD SWAP1 PUSH2 0x2C09 SWAP3 SWAP2 SWAP1 PUSH2 0x34DD JUMP JUMPDEST POP PUSH1 0x20 DUP3 ADD MLOAD DUP2 PUSH1 0x1 ADD SWAP1 DUP1 MLOAD SWAP1 PUSH1 0x20 ADD SWAP1 PUSH2 0x2C26 SWAP3 SWAP2 SWAP1 PUSH2 0x34DD JUMP JUMPDEST POP PUSH1 0x40 DUP3 ADD MLOAD DUP2 PUSH1 0x2 ADD SWAP1 DUP1 MLOAD SWAP1 PUSH1 0x20 ADD SWAP1 PUSH2 0x2C43 SWAP3 SWAP2 SWAP1 PUSH2 0x34DD JUMP JUMPDEST POP PUSH1 0x60 DUP3 ADD MLOAD DUP2 PUSH1 0x3 ADD SSTORE PUSH1 0x80 DUP3 ADD MLOAD DUP2 PUSH1 0x4 ADD SSTORE PUSH1 0xA0 DUP3 ADD MLOAD DUP2 PUSH1 0x5 ADD SSTORE PUSH1 0xC0 DUP3 ADD MLOAD DUP2 PUSH1 0x6 ADD SWAP1 DUP1 MLOAD SWAP1 PUSH1 0x20 ADD SWAP1 PUSH2 0x2C7E SWAP3 SWAP2 SWAP1 PUSH2 0x34DD JUMP JUMPDEST POP PUSH1 0xE0 DUP3 ADD MLOAD DUP2 PUSH1 0x7 ADD SWAP1 DUP1 MLOAD SWAP1 PUSH1 0x20 ADD SWAP1 PUSH2 0x2C9B SWAP3 SWAP2 SWAP1 PUSH2 0x34DD JUMP JUMPDEST POP PUSH2 0x100 DUP3 ADD MLOAD DUP2 PUSH1 0x8 ADD SWAP1 DUP1 MLOAD SWAP1 PUSH1 0x20 ADD SWAP1 PUSH2 0x2CB9 SWAP3 SWAP2 SWAP1 PUSH2 0x34DD JUMP JUMPDEST POP PUSH2 0x120 DUP3 ADD MLOAD DUP2 PUSH1 0x9 ADD SWAP1 DUP1 MLOAD SWAP1 PUSH1 0x20 ADD SWAP1 PUSH2 0x2CD7 SWAP3 SWAP2 SWAP1 PUSH2 0x34DD JUMP JUMPDEST POP PUSH2 0x140 DUP3 ADD MLOAD DUP2 PUSH1 0xA ADD SWAP1 DUP1 MLOAD SWAP1 PUSH1 0x20 ADD SWAP1 PUSH2 0x2CF5 SWAP3 SWAP2 SWAP1 PUSH2 0x34DD JUMP JUMPDEST POP PUSH2 0x160 DUP3 ADD MLOAD DUP2 PUSH1 0xB ADD SWAP1 DUP1 MLOAD SWAP1 PUSH1 0x20 ADD SWAP1 PUSH2 0x2D13 SWAP3 SWAP2 SWAP1 PUSH2 0x34DD JUMP JUMPDEST POP SWAP1 POP POP PUSH1 0x1 PUSH1 0x3 PUSH1 0x0 DUP3 DUP3 SLOAD PUSH2 0x2D2A SWAP2 SWAP1 PUSH2 0x4729 JUMP JUMPDEST SWAP3 POP POP DUP2 SWAP1 SSTORE POP PUSH32 0x1B21032942411443543E7923F2DA271066AD99511AA6FFCDA3BB43030B9157D4 DUP3 PUSH1 0x40 MLOAD PUSH2 0x2D60 SWAP2 SWAP1 PUSH2 0x3E31 JUMP JUMPDEST PUSH1 0x40 MLOAD DUP1 SWAP2 SUB SWAP1 LOG1 POP POP POP POP POP POP JUMP JUMPDEST PUSH1 0x60 PUSH1 0x7 PUSH1 0x0 CALLER PUSH20 0xFFFFFFFFFFFFFFFFFFFFFFFFFFFFFFFFFFFFFFFF AND PUSH20 0xFFFFFFFFFFFFFFFFFFFFFFFFFFFFFFFFFFFFFFFF AND DUP2 MSTORE PUSH1 0x20 ADD SWAP1 DUP2 MSTORE PUSH1 0x20 ADD PUSH1 0x0 KECCAK256 DUP1 SLOAD PUSH2 0x2DBC SWAP1 PUSH2 0x4127 JUMP JUMPDEST DUP1 PUSH1 0x1F ADD PUSH1 0x20 DUP1 SWAP2 DIV MUL PUSH1 0x20 ADD PUSH1 0x40 MLOAD SWAP1 DUP2 ADD PUSH1 0x40 MSTORE DUP1 SWAP3 SWAP2 SWAP1 DUP2 DUP2 MSTORE PUSH1 0x20 ADD DUP3 DUP1 SLOAD PUSH2 0x2DE8 SWAP1 PUSH2 0x4127 JUMP JUMPDEST DUP1 ISZERO PUSH2 0x2E35 JUMPI DUP1 PUSH1 0x1F LT PUSH2 0x2E0A JUMPI PUSH2 0x100 DUP1 DUP4 SLOAD DIV MUL DUP4 MSTORE SWAP2 PUSH1 0x20 ADD SWAP2 PUSH2 0x2E35 JUMP JUMPDEST DUP3 ADD SWAP2 SWAP1 PUSH1 0x0 MSTORE PUSH1 0x20 PUSH1 0x0 KECCAK256 SWAP1 JUMPDEST DUP2 SLOAD DUP2 MSTORE SWAP1 PUSH1 0x1 ADD SWAP1 PUSH1 0x20 ADD DUP1 DUP4 GT PUSH2 0x2E18 JUMPI DUP3 SWAP1 SUB PUSH1 0x1F AND DUP3 ADD SWAP2 JUMPDEST POP POP POP POP POP SWAP1 POP SWAP1 JUMP JUMPDEST PUSH1 0x60 PUSH1 0x0 PUSH1 0x1 PUSH8 0xFFFFFFFFFFFFFFFF DUP2 GT ISZERO PUSH2 0x2E5E JUMPI PUSH2 0x2E5D PUSH2 0x35AF JUMP JUMPDEST JUMPDEST PUSH1 0x40 MLOAD SWAP1 DUP1 DUP3 MSTORE DUP1 PUSH1 0x1F ADD PUSH1 0x1F NOT AND PUSH1 0x20 ADD DUP3 ADD PUSH1 0x40 MSTORE DUP1 ISZERO PUSH2 0x2E90 JUMPI DUP2 PUSH1 0x20 ADD PUSH1 0x1 DUP3 MUL DUP1 CALLDATASIZE DUP4 CALLDATACOPY DUP1 DUP3 ADD SWAP2 POP POP SWAP1 POP JUMPDEST POP SWAP1 POP DUP3 PUSH1 0x0 DUP2 MLOAD DUP2 LT PUSH2 0x2EA7 JUMPI PUSH2 0x2EA6 PUSH2 0x430C JUMP JUMPDEST JUMPDEST PUSH1 0x20 ADD ADD MLOAD PUSH1 0xF8 SHR PUSH1 0xF8 SHL DUP2 PUSH1 0x0 DUP2 MLOAD DUP2 LT PUSH2 0x2EC6 JUMPI PUSH2 0x2EC5 PUSH2 0x430C JUMP JUMPDEST JUMPDEST PUSH1 0x20 ADD ADD SWAP1 PUSH31 0xFFFFFFFFFFFFFFFFFFFFFFFFFFFFFFFFFFFFFFFFFFFFFFFFFFFFFFFFFFFFFF NOT AND SWAP1 DUP2 PUSH1 0x0 BYTE SWAP1 MSTORE8 POP DUP1 SWAP2 POP POP SWAP2 SWAP1 POP JUMP JUMPDEST PUSH1 0x60 PUSH1 0x0 DUP3 SWAP1 POP PUSH1 0x0 DUP2 MLOAD PUSH8 0xFFFFFFFFFFFFFFFF DUP2 GT ISZERO PUSH2 0x2F22 JUMPI PUSH2 0x2F21 PUSH2 0x35AF JUMP JUMPDEST JUMPDEST PUSH1 0x40 MLOAD SWAP1 DUP1 DUP3 MSTORE DUP1 PUSH1 0x1F ADD PUSH1 0x1F NOT AND PUSH1 0x20 ADD DUP3 ADD PUSH1 0x40 MSTORE DUP1 ISZERO PUSH2 0x2F54 JUMPI DUP2 PUSH1 0x20 ADD PUSH1 0x1 DUP3 MUL DUP1 CALLDATASIZE DUP4 CALLDATACOPY DUP1 DUP3 ADD SWAP2 POP POP SWAP1 POP JUMPDEST POP SWAP1 POP PUSH1 0x0 JUMPDEST DUP3 MLOAD DUP2 LT ISZERO PUSH2 0x3076 JUMPI DUP3 DUP2 DUP2 MLOAD DUP2 LT PUSH2 0x2F76 JUMPI PUSH2 0x2F75 PUSH2 0x430C JUMP JUMPDEST JUMPDEST PUSH1 0x20 ADD ADD MLOAD PUSH1 0xF8 SHR PUSH1 0xF8 SHL DUP3 DUP3 DUP2 MLOAD DUP2 LT PUSH2 0x2F94 JUMPI PUSH2 0x2F93 PUSH2 0x430C JUMP JUMPDEST JUMPDEST PUSH1 0x20 ADD ADD SWAP1 PUSH31 0xFFFFFFFFFFFFFFFFFFFFFFFFFFFFFFFFFFFFFFFFFFFFFFFFFFFFFFFFFFFFFF NOT AND SWAP1 DUP2 PUSH1 0x0 BYTE SWAP1 MSTORE8 POP PUSH1 0x0 DUP2 EQ ISZERO PUSH2 0x3063 JUMPI PUSH1 0x40 MLOAD DUP1 PUSH1 0x40 ADD PUSH1 0x40 MSTORE DUP1 PUSH1 0x1 DUP2 MSTORE PUSH1 0x20 ADD PUSH32 0x5300000000000000000000000000000000000000000000000000000000000000 DUP2 MSTORE POP PUSH1 0x0 DUP2 MLOAD DUP2 LT PUSH2 0x3015 JUMPI PUSH2 0x3014 PUSH2 0x430C JUMP JUMPDEST JUMPDEST PUSH1 0x20 ADD ADD MLOAD PUSH1 0xF8 SHR PUSH1 0xF8 SHL DUP3 DUP3 DUP2 MLOAD DUP2 LT PUSH2 0x3033 JUMPI PUSH2 0x3032 PUSH2 0x430C JUMP JUMPDEST JUMPDEST PUSH1 0x20 ADD ADD SWAP1 PUSH31 0xFFFFFFFFFFFFFFFFFFFFFFFFFFFFFFFFFFFFFFFFFFFFFFFFFFFFFFFFFFFFFF NOT AND SWAP1 DUP2 PUSH1 0x0 BYTE SWAP1 MSTORE8 POP JUMPDEST DUP1 DUP1 PUSH2 0x306E SWAP1 PUSH2 0x4660 JUMP JUMPDEST SWAP2 POP POP PUSH2 0x2F5A JUMP JUMPDEST POP DUP1 SWAP3 POP POP POP SWAP2 SWAP1 POP JUMP JUMPDEST PUSH1 0x60 PUSH1 0x0 PUSH1 0x1 PUSH2 0x3090 DUP5 PUSH2 0x329B JUMP JUMPDEST ADD SWAP1 POP PUSH1 0x0 DUP2 PUSH8 0xFFFFFFFFFFFFFFFF DUP2 GT ISZERO PUSH2 0x30AF JUMPI PUSH2 0x30AE PUSH2 0x35AF JUMP JUMPDEST JUMPDEST PUSH1 0x40 MLOAD SWAP1 DUP1 DUP3 MSTORE DUP1 PUSH1 0x1F ADD PUSH1 0x1F NOT AND PUSH1 0x20 ADD DUP3 ADD PUSH1 0x40 MSTORE DUP1 ISZERO PUSH2 0x30E1 JUMPI DUP2 PUSH1 0x20 ADD PUSH1 0x1 DUP3 MUL DUP1 CALLDATASIZE DUP4 CALLDATACOPY DUP1 DUP3 ADD SWAP2 POP POP SWAP1 POP JUMPDEST POP SWAP1 POP PUSH1 0x0 DUP3 PUSH1 0x20 ADD DUP3 ADD SWAP1 POP JUMPDEST PUSH1 0x1 ISZERO PUSH2 0x314E JUMPI DUP1 DUP1 PUSH1 0x1 SWAP1 SUB SWAP2 POP POP PUSH32 0x3031323334353637383961626364656600000000000000000000000000000000 PUSH1 0xA DUP7 MOD BYTE DUP2 MSTORE8 PUSH1 0xA DUP6 DUP2 PUSH2 0x3138 JUMPI PUSH2 0x3137 PUSH2 0x4B94 JUMP JUMPDEST JUMPDEST DIV SWAP5 POP PUSH1 0x0 DUP6 EQ ISZERO PUSH2 0x3149 JUMPI PUSH2 0x314E JUMP JUMPDEST PUSH2 0x30EF JUMP JUMPDEST DUP2 SWAP4 POP POP POP POP SWAP2 SWAP1 POP JUMP JUMPDEST PUSH2 0x3161 PUSH2 0x33EE JUMP JUMPDEST PUSH20 0xFFFFFFFFFFFFFFFFFFFFFFFFFFFFFFFFFFFFFFFF AND PUSH2 0x317F PUSH2 0x1CF3 JUMP JUMPDEST PUSH20 0xFFFFFFFFFFFFFFFFFFFFFFFFFFFFFFFFFFFFFFFF AND EQ PUSH2 0x31D5 JUMPI PUSH1 0x40 MLOAD PUSH32 0x8C379A000000000000000000000000000000000000000000000000000000000 DUP2 MSTORE PUSH1 0x4 ADD PUSH2 0x31CC SWAP1 PUSH2 0x4C0F JUMP JUMPDEST PUSH1 0x40 MLOAD DUP1 SWAP2 SUB SWAP1 REVERT JUMPDEST JUMP JUMPDEST PUSH1 0x0 DUP1 PUSH1 0x0 SWAP1 SLOAD SWAP1 PUSH2 0x100 EXP SWAP1 DIV PUSH20 0xFFFFFFFFFFFFFFFFFFFFFFFFFFFFFFFFFFFFFFFF AND SWAP1 POP DUP2 PUSH1 0x0 DUP1 PUSH2 0x100 EXP DUP2 SLOAD DUP2 PUSH20 0xFFFFFFFFFFFFFFFFFFFFFFFFFFFFFFFFFFFFFFFF MUL NOT AND SWAP1 DUP4 PUSH20 0xFFFFFFFFFFFFFFFFFFFFFFFFFFFFFFFFFFFFFFFF AND MUL OR SWAP1 SSTORE POP DUP2 PUSH20 0xFFFFFFFFFFFFFFFFFFFFFFFFFFFFFFFFFFFFFFFF AND DUP2 PUSH20 0xFFFFFFFFFFFFFFFFFFFFFFFFFFFFFFFFFFFFFFFF AND PUSH32 0x8BE0079C531659141344CD1FD0A4F28419497F9722A3DAAFE3B4186F6B6457E0 PUSH1 0x40 MLOAD PUSH1 0x40 MLOAD DUP1 SWAP2 SUB SWAP1 LOG3 POP POP JUMP JUMPDEST PUSH1 0x0 DUP1 PUSH1 0x0 SWAP1 POP PUSH27 0x184F03E93FF9F4DAA797ED6E38ED64BF6A1F010000000000000000 DUP4 LT PUSH2 0x32F9 JUMPI PUSH27 0x184F03E93FF9F4DAA797ED6E38ED64BF6A1F010000000000000000 DUP4 DUP2 PUSH2 0x32EF JUMPI PUSH2 0x32EE PUSH2 0x4B94 JUMP JUMPDEST JUMPDEST DIV SWAP3 POP PUSH1 0x40 DUP2 ADD SWAP1 POP JUMPDEST PUSH14 0x4EE2D6D415B85ACEF8100000000 DUP4 LT PUSH2 0x3336 JUMPI PUSH14 0x4EE2D6D415B85ACEF8100000000 DUP4 DUP2 PUSH2 0x332C JUMPI PUSH2 0x332B PUSH2 0x4B94 JUMP JUMPDEST JUMPDEST DIV SWAP3 POP PUSH1 0x20 DUP2 ADD SWAP1 POP JUMPDEST PUSH7 0x2386F26FC10000 DUP4 LT PUSH2 0x3365 JUMPI PUSH7 0x2386F26FC10000 DUP4 DUP2 PUSH2 0x335B JUMPI PUSH2 0x335A PUSH2 0x4B94 JUMP JUMPDEST JUMPDEST DIV SWAP3 POP PUSH1 0x10 DUP2 ADD SWAP1 POP JUMPDEST PUSH4 0x5F5E100 DUP4 LT PUSH2 0x338E JUMPI PUSH4 0x5F5E100 DUP4 DUP2 PUSH2 0x3384 JUMPI PUSH2 0x3383 PUSH2 0x4B94 JUMP JUMPDEST JUMPDEST DIV SWAP3 POP PUSH1 0x8 DUP2 ADD SWAP1 POP JUMPDEST PUSH2 0x2710 DUP4 LT PUSH2 0x33B3 JUMPI PUSH2 0x2710 DUP4 DUP2 PUSH2 0x33A9 JUMPI PUSH2 0x33A8 PUSH2 0x4B94 JUMP JUMPDEST JUMPDEST DIV SWAP3 POP PUSH1 0x4 DUP2 ADD SWAP1 POP JUMPDEST PUSH1 0x64 DUP4 LT PUSH2 0x33D6 JUMPI PUSH1 0x64 DUP4 DUP2 PUSH2 0x33CC JUMPI PUSH2 0x33CB PUSH2 0x4B94 JUMP JUMPDEST JUMPDEST DIV SWAP3 POP PUSH1 0x2 DUP2 ADD SWAP1 POP JUMPDEST PUSH1 0xA DUP4 LT PUSH2 0x33E5 JUMPI PUSH1 0x1 DUP2 ADD SWAP1 POP JUMPDEST DUP1 SWAP2 POP POP SWAP2 SWAP1 POP JUMP JUMPDEST PUSH1 0x0 CALLER SWAP1 POP SWAP1 JUMP JUMPDEST PUSH1 0x40 MLOAD DUP1 PUSH2 0x180 ADD PUSH1 0x40 MSTORE DUP1 PUSH1 0x60 DUP2 MSTORE PUSH1 0x20 ADD PUSH1 0x60 DUP2 MSTORE PUSH1 0x20 ADD PUSH1 0x60 DUP2 MSTORE PUSH1 0x20 ADD PUSH1 0x0 DUP2 MSTORE PUSH1 0x20 ADD PUSH1 0x0 DUP2 MSTORE PUSH1 0x20 ADD PUSH1 0x0 DUP2 MSTORE PUSH1 0x20 ADD PUSH1 0x60 DUP2 MSTORE PUSH1 0x20 ADD PUSH1 0x60 DUP2 MSTORE PUSH1 0x20 ADD PUSH1 0x60 DUP2 MSTORE PUSH1 0x20 ADD PUSH1 0x60 DUP2 MSTORE PUSH1 0x20 ADD PUSH1 0x60 DUP2 MSTORE PUSH1 0x20 ADD PUSH1 0x60 DUP2 MSTORE POP SWAP1 JUMP JUMPDEST DUP3 DUP1 SLOAD PUSH2 0x3463 SWAP1 PUSH2 0x4127 JUMP JUMPDEST SWAP1 PUSH1 0x0 MSTORE PUSH1 0x20 PUSH1 0x0 KECCAK256 SWAP1 PUSH1 0x1F ADD PUSH1 0x20 SWAP1 DIV DUP2 ADD SWAP3 DUP3 PUSH2 0x3485 JUMPI PUSH1 0x0 DUP6 SSTORE PUSH2 0x34CC JUMP JUMPDEST DUP3 PUSH1 0x1F LT PUSH2 0x349E JUMPI DUP1 CALLDATALOAD PUSH1 0xFF NOT AND DUP4 DUP1 ADD OR DUP6 SSTORE PUSH2 0x34CC JUMP JUMPDEST DUP3 DUP1 ADD PUSH1 0x1 ADD DUP6 SSTORE DUP3 ISZERO PUSH2 0x34CC JUMPI SWAP2 DUP3 ADD JUMPDEST DUP3 DUP2 GT ISZERO PUSH2 0x34CB JUMPI DUP3 CALLDATALOAD DUP3 SSTORE SWAP2 PUSH1 0x20 ADD SWAP2 SWAP1 PUSH1 0x1 ADD SWAP1 PUSH2 0x34B0 JUMP JUMPDEST JUMPDEST POP SWAP1 POP PUSH2 0x34D9 SWAP2 SWAP1 PUSH2 0x3563 JUMP JUMPDEST POP SWAP1 JUMP JUMPDEST DUP3 DUP1 SLOAD PUSH2 0x34E9 SWAP1 PUSH2 0x4127 JUMP JUMPDEST SWAP1 PUSH1 0x0 MSTORE PUSH1 0x20 PUSH1 0x0 KECCAK256 SWAP1 PUSH1 0x1F ADD PUSH1 0x20 SWAP1 DIV DUP2 ADD SWAP3 DUP3 PUSH2 0x350B JUMPI PUSH1 0x0 DUP6 SSTORE PUSH2 0x3552 JUMP JUMPDEST DUP3 PUSH1 0x1F LT PUSH2 0x3524 JUMPI DUP1 MLOAD PUSH1 0xFF NOT AND DUP4 DUP1 ADD OR DUP6 SSTORE PUSH2 0x3552 JUMP JUMPDEST DUP3 DUP1 ADD PUSH1 0x1 ADD DUP6 SSTORE DUP3 ISZERO PUSH2 0x3552 JUMPI SWAP2 DUP3 ADD JUMPDEST DUP3 DUP2 GT ISZERO PUSH2 0x3551 JUMPI DUP3 MLOAD DUP3 SSTORE SWAP2 PUSH1 0x20 ADD SWAP2 SWAP1 PUSH1 0x1 ADD SWAP1 PUSH2 0x3536 JUMP JUMPDEST JUMPDEST POP SWAP1 POP PUSH2 0x355F SWAP2 SWAP1 PUSH2 0x3563 JUMP JUMPDEST POP SWAP1 JUMP JUMPDEST JUMPDEST DUP1 DUP3 GT ISZERO PUSH2 0x357C JUMPI PUSH1 0x0 DUP2 PUSH1 0x0 SWAP1 SSTORE POP PUSH1 0x1 ADD PUSH2 0x3564 JUMP JUMPDEST POP SWAP1 JUMP JUMPDEST PUSH1 0x0 PUSH1 0x40 MLOAD SWAP1 POP SWAP1 JUMP JUMPDEST PUSH1 0x0 DUP1 REVERT JUMPDEST PUSH1 0x0 DUP1 REVERT JUMPDEST PUSH1 0x0 DUP1 REVERT JUMPDEST PUSH1 0x0 DUP1 REVERT JUMPDEST PUSH1 0x0 PUSH1 0x1F NOT PUSH1 0x1F DUP4 ADD AND SWAP1 POP SWAP2 SWAP1 POP JUMP JUMPDEST PUSH32 0x4E487B7100000000000000000000000000000000000000000000000000000000 PUSH1 0x0 MSTORE PUSH1 0x41 PUSH1 0x4 MSTORE PUSH1 0x24 PUSH1 0x0 REVERT JUMPDEST PUSH2 0x35E7 DUP3 PUSH2 0x359E JUMP JUMPDEST DUP2 ADD DUP2 DUP2 LT PUSH8 0xFFFFFFFFFFFFFFFF DUP3 GT OR ISZERO PUSH2 0x3606 JUMPI PUSH2 0x3605 PUSH2 0x35AF JUMP JUMPDEST JUMPDEST DUP1 PUSH1 0x40 MSTORE POP POP POP JUMP JUMPDEST PUSH1 0x0 PUSH2 0x3619 PUSH2 0x3580 JUMP JUMPDEST SWAP1 POP PUSH2 0x3625 DUP3 DUP3 PUSH2 0x35DE JUMP JUMPDEST SWAP2 SWAP1 POP JUMP JUMPDEST PUSH1 0x0 PUSH8 0xFFFFFFFFFFFFFFFF DUP3 GT ISZERO PUSH2 0x3645 JUMPI PUSH2 0x3644 PUSH2 0x35AF JUMP JUMPDEST JUMPDEST PUSH2 0x364E DUP3 PUSH2 0x359E JUMP JUMPDEST SWAP1 POP PUSH1 0x20 DUP2 ADD SWAP1 POP SWAP2 SWAP1 POP JUMP JUMPDEST DUP3 DUP2 DUP4 CALLDATACOPY PUSH1 0x0 DUP4 DUP4 ADD MSTORE POP POP POP JUMP JUMPDEST PUSH1 0x0 PUSH2 0x367D PUSH2 0x3678 DUP5 PUSH2 0x362A JUMP JUMPDEST PUSH2 0x360F JUMP JUMPDEST SWAP1 POP DUP3 DUP2 MSTORE PUSH1 0x20 DUP2 ADD DUP5 DUP5 DUP5 ADD GT ISZERO PUSH2 0x3699 JUMPI PUSH2 0x3698 PUSH2 0x3599 JUMP JUMPDEST JUMPDEST PUSH2 0x36A4 DUP5 DUP3 DUP6 PUSH2 0x365B JUMP JUMPDEST POP SWAP4 SWAP3 POP POP POP JUMP JUMPDEST PUSH1 0x0 DUP3 PUSH1 0x1F DUP4 ADD SLT PUSH2 0x36C1 JUMPI PUSH2 0x36C0 PUSH2 0x3594 JUMP JUMPDEST JUMPDEST DUP2 CALLDATALOAD PUSH2 0x36D1 DUP5 DUP3 PUSH1 0x20 DUP7 ADD PUSH2 0x366A JUMP JUMPDEST SWAP2 POP POP SWAP3 SWAP2 POP POP JUMP JUMPDEST PUSH1 0x0 PUSH1 0x20 DUP3 DUP5 SUB SLT ISZERO PUSH2 0x36F0 JUMPI PUSH2 0x36EF PUSH2 0x358A JUMP JUMPDEST JUMPDEST PUSH1 0x0 DUP3 ADD CALLDATALOAD PUSH8 0xFFFFFFFFFFFFFFFF DUP2 GT ISZERO PUSH2 0x370E JUMPI PUSH2 0x370D PUSH2 0x358F JUMP JUMPDEST JUMPDEST PUSH2 0x371A DUP5 DUP3 DUP6 ADD PUSH2 0x36AC JUMP JUMPDEST SWAP2 POP POP SWAP3 SWAP2 POP POP JUMP JUMPDEST PUSH1 0x0 DUP2 MLOAD SWAP1 POP SWAP2 SWAP1 POP JUMP JUMPDEST PUSH1 0x0 DUP3 DUP3 MSTORE PUSH1 0x20 DUP3 ADD SWAP1 POP SWAP3 SWAP2 POP POP JUMP JUMPDEST PUSH1 0x0 JUMPDEST DUP4 DUP2 LT ISZERO PUSH2 0x375D JUMPI DUP1 DUP3 ADD MLOAD DUP2 DUP5 ADD MSTORE PUSH1 0x20 DUP2 ADD SWAP1 POP PUSH2 0x3742 JUMP JUMPDEST DUP4 DUP2 GT ISZERO PUSH2 0x376C JUMPI PUSH1 0x0 DUP5 DUP5 ADD MSTORE JUMPDEST POP POP POP POP JUMP JUMPDEST PUSH1 0x0 PUSH2 0x377D DUP3 PUSH2 0x3723 JUMP JUMPDEST PUSH2 0x3787 DUP2 DUP6 PUSH2 0x372E JUMP JUMPDEST SWAP4 POP PUSH2 0x3797 DUP2 DUP6 PUSH1 0x20 DUP7 ADD PUSH2 0x373F JUMP JUMPDEST PUSH2 0x37A0 DUP2 PUSH2 0x359E JUMP JUMPDEST DUP5 ADD SWAP2 POP POP SWAP3 SWAP2 POP POP JUMP JUMPDEST PUSH1 0x0 DUP2 SWAP1 POP SWAP2 SWAP1 POP JUMP JUMPDEST PUSH2 0x37BE DUP2 PUSH2 0x37AB JUMP JUMPDEST DUP3 MSTORE POP POP JUMP JUMPDEST PUSH1 0x0 PUSH2 0x180 DUP4 ADD PUSH1 0x0 DUP4 ADD MLOAD DUP5 DUP3 SUB PUSH1 0x0 DUP7 ADD MSTORE PUSH2 0x37E2 DUP3 DUP3 PUSH2 0x3772 JUMP JUMPDEST SWAP2 POP POP PUSH1 0x20 DUP4 ADD MLOAD DUP5 DUP3 SUB PUSH1 0x20 DUP7 ADD MSTORE PUSH2 0x37FC DUP3 DUP3 PUSH2 0x3772 JUMP JUMPDEST SWAP2 POP POP PUSH1 0x40 DUP4 ADD MLOAD DUP5 DUP3 SUB PUSH1 0x40 DUP7 ADD MSTORE PUSH2 0x3816 DUP3 DUP3 PUSH2 0x3772 JUMP JUMPDEST SWAP2 POP POP PUSH1 0x60 DUP4 ADD MLOAD PUSH2 0x382B PUSH1 0x60 DUP7 ADD DUP3 PUSH2 0x37B5 JUMP JUMPDEST POP PUSH1 0x80 DUP4 ADD MLOAD PUSH2 0x383E PUSH1 0x80 DUP7 ADD DUP3 PUSH2 0x37B5 JUMP JUMPDEST POP PUSH1 0xA0 DUP4 ADD MLOAD PUSH2 0x3851 PUSH1 0xA0 DUP7 ADD DUP3 PUSH2 0x37B5 JUMP JUMPDEST POP PUSH1 0xC0 DUP4 ADD MLOAD DUP5 DUP3 SUB PUSH1 0xC0 DUP7 ADD MSTORE PUSH2 0x3869 DUP3 DUP3 PUSH2 0x3772 JUMP JUMPDEST SWAP2 POP POP PUSH1 0xE0 DUP4 ADD MLOAD DUP5 DUP3 SUB PUSH1 0xE0 DUP7 ADD MSTORE PUSH2 0x3883 DUP3 DUP3 PUSH2 0x3772 JUMP JUMPDEST SWAP2 POP POP PUSH2 0x100 DUP4 ADD MLOAD DUP5 DUP3 SUB PUSH2 0x100 DUP7 ADD MSTORE PUSH2 0x389F DUP3 DUP3 PUSH2 0x3772 JUMP JUMPDEST SWAP2 POP POP PUSH2 0x120 DUP4 ADD MLOAD DUP5 DUP3 SUB PUSH2 0x120 DUP7 ADD MSTORE PUSH2 0x38BB DUP3 DUP3 PUSH2 0x3772 JUMP JUMPDEST SWAP2 POP POP PUSH2 0x140 DUP4 ADD MLOAD DUP5 DUP3 SUB PUSH2 0x140 DUP7 ADD MSTORE PUSH2 0x38D7 DUP3 DUP3 PUSH2 0x3772 JUMP JUMPDEST SWAP2 POP POP PUSH2 0x160 DUP4 ADD MLOAD DUP5 DUP3 SUB PUSH2 0x160 DUP7 ADD MSTORE PUSH2 0x38F3 DUP3 DUP3 PUSH2 0x3772 JUMP JUMPDEST SWAP2 POP POP DUP1 SWAP2 POP POP SWAP3 SWAP2 POP POP JUMP JUMPDEST PUSH1 0x0 PUSH1 0x20 DUP3 ADD SWAP1 POP DUP2 DUP2 SUB PUSH1 0x0 DUP4 ADD MSTORE PUSH2 0x391A DUP2 DUP5 PUSH2 0x37C4 JUMP JUMPDEST SWAP1 POP SWAP3 SWAP2 POP POP JUMP JUMPDEST PUSH1 0x0 DUP1 REVERT JUMPDEST PUSH1 0x0 DUP1 REVERT JUMPDEST PUSH1 0x0 DUP1 DUP4 PUSH1 0x1F DUP5 ADD SLT PUSH2 0x3942 JUMPI PUSH2 0x3941 PUSH2 0x3594 JUMP JUMPDEST JUMPDEST DUP3 CALLDATALOAD SWAP1 POP PUSH8 0xFFFFFFFFFFFFFFFF DUP2 GT ISZERO PUSH2 0x395F JUMPI PUSH2 0x395E PUSH2 0x3922 JUMP JUMPDEST JUMPDEST PUSH1 0x20 DUP4 ADD SWAP2 POP DUP4 PUSH1 0x1 DUP3 MUL DUP4 ADD GT ISZERO PUSH2 0x397B JUMPI PUSH2 0x397A PUSH2 0x3927 JUMP JUMPDEST JUMPDEST SWAP3 POP SWAP3 SWAP1 POP JUMP JUMPDEST PUSH1 0x0 DUP1 DUP4 PUSH1 0x1F DUP5 ADD SLT PUSH2 0x3998 JUMPI PUSH2 0x3997 PUSH2 0x3594 JUMP JUMPDEST JUMPDEST DUP3 CALLDATALOAD SWAP1 POP PUSH8 0xFFFFFFFFFFFFFFFF DUP2 GT ISZERO PUSH2 0x39B5 JUMPI PUSH2 0x39B4 PUSH2 0x3922 JUMP JUMPDEST JUMPDEST PUSH1 0x20 DUP4 ADD SWAP2 POP DUP4 PUSH1 0x20 DUP3 MUL DUP4 ADD GT ISZERO PUSH2 0x39D1 JUMPI PUSH2 0x39D0 PUSH2 0x3927 JUMP JUMPDEST JUMPDEST SWAP3 POP SWAP3 SWAP1 POP JUMP JUMPDEST PUSH1 0x0 DUP1 PUSH1 0x0 DUP1 PUSH1 0x0 DUP1 PUSH1 0x60 DUP8 DUP10 SUB SLT ISZERO PUSH2 0x39F5 JUMPI PUSH2 0x39F4 PUSH2 0x358A JUMP JUMPDEST JUMPDEST PUSH1 0x0 DUP8 ADD CALLDATALOAD PUSH8 0xFFFFFFFFFFFFFFFF DUP2 GT ISZERO PUSH2 0x3A13 JUMPI PUSH2 0x3A12 PUSH2 0x358F JUMP JUMPDEST JUMPDEST PUSH2 0x3A1F DUP10 DUP3 DUP11 ADD PUSH2 0x392C JUMP JUMPDEST SWAP7 POP SWAP7 POP POP PUSH1 0x20 DUP8 ADD CALLDATALOAD PUSH8 0xFFFFFFFFFFFFFFFF DUP2 GT ISZERO PUSH2 0x3A42 JUMPI PUSH2 0x3A41 PUSH2 0x358F JUMP JUMPDEST JUMPDEST PUSH2 0x3A4E DUP10 DUP3 DUP11 ADD PUSH2 0x3982 JUMP JUMPDEST SWAP5 POP SWAP5 POP POP PUSH1 0x40 DUP8 ADD CALLDATALOAD PUSH8 0xFFFFFFFFFFFFFFFF DUP2 GT ISZERO PUSH2 0x3A71 JUMPI PUSH2 0x3A70 PUSH2 0x358F JUMP JUMPDEST JUMPDEST PUSH2 0x3A7D DUP10 DUP3 DUP11 ADD PUSH2 0x3982 JUMP JUMPDEST SWAP3 POP SWAP3 POP POP SWAP3 SWAP6 POP SWAP3 SWAP6 POP SWAP3 SWAP6 JUMP JUMPDEST PUSH1 0x0 DUP2 MLOAD SWAP1 POP SWAP2 SWAP1 POP JUMP JUMPDEST PUSH1 0x0 DUP3 DUP3 MSTORE PUSH1 0x20 DUP3 ADD SWAP1 POP SWAP3 SWAP2 POP POP JUMP JUMPDEST PUSH1 0x0 DUP2 SWAP1 POP PUSH1 0x20 DUP3 ADD SWAP1 POP SWAP2 SWAP1 POP JUMP JUMPDEST PUSH1 0x0 PUSH2 0x180 DUP4 ADD PUSH1 0x0 DUP4 ADD MLOAD DUP5 DUP3 SUB PUSH1 0x0 DUP7 ADD MSTORE PUSH2 0x3AD6 DUP3 DUP3 PUSH2 0x3772 JUMP JUMPDEST SWAP2 POP POP PUSH1 0x20 DUP4 ADD MLOAD DUP5 DUP3 SUB PUSH1 0x20 DUP7 ADD MSTORE PUSH2 0x3AF0 DUP3 DUP3 PUSH2 0x3772 JUMP JUMPDEST SWAP2 POP POP PUSH1 0x40 DUP4 ADD MLOAD DUP5 DUP3 SUB PUSH1 0x40 DUP7 ADD MSTORE PUSH2 0x3B0A DUP3 DUP3 PUSH2 0x3772 JUMP JUMPDEST SWAP2 POP POP PUSH1 0x60 DUP4 ADD MLOAD PUSH2 0x3B1F PUSH1 0x60 DUP7 ADD DUP3 PUSH2 0x37B5 JUMP JUMPDEST POP PUSH1 0x80 DUP4 ADD MLOAD PUSH2 0x3B32 PUSH1 0x80 DUP7 ADD DUP3 PUSH2 0x37B5 JUMP JUMPDEST POP PUSH1 0xA0 DUP4 ADD MLOAD PUSH2 0x3B45 PUSH1 0xA0 DUP7 ADD DUP3 PUSH2 0x37B5 JUMP JUMPDEST POP PUSH1 0xC0 DUP4 ADD MLOAD DUP5 DUP3 SUB PUSH1 0xC0 DUP7 ADD MSTORE PUSH2 0x3B5D DUP3 DUP3 PUSH2 0x3772 JUMP JUMPDEST SWAP2 POP POP PUSH1 0xE0 DUP4 ADD MLOAD DUP5 DUP3 SUB PUSH1 0xE0 DUP7 ADD MSTORE PUSH2 0x3B77 DUP3 DUP3 PUSH2 0x3772 JUMP JUMPDEST SWAP2 POP POP PUSH2 0x100 DUP4 ADD MLOAD DUP5 DUP3 SUB PUSH2 0x100 DUP7 ADD MSTORE PUSH2 0x3B93 DUP3 DUP3 PUSH2 0x3772 JUMP JUMPDEST SWAP2 POP POP PUSH2 0x120 DUP4 ADD MLOAD DUP5 DUP3 SUB PUSH2 0x120 DUP7 ADD MSTORE PUSH2 0x3BAF DUP3 DUP3 PUSH2 0x3772 JUMP JUMPDEST SWAP2 POP POP PUSH2 0x140 DUP4 ADD MLOAD DUP5 DUP3 SUB PUSH2 0x140 DUP7 ADD MSTORE PUSH2 0x3BCB DUP3 DUP3 PUSH2 0x3772 JUMP JUMPDEST SWAP2 POP POP PUSH2 0x160 DUP4 ADD MLOAD DUP5 DUP3 SUB PUSH2 0x160 DUP7 ADD MSTORE PUSH2 0x3BE7 DUP3 DUP3 PUSH2 0x3772 JUMP JUMPDEST SWAP2 POP POP DUP1 SWAP2 POP POP SWAP3 SWAP2 POP POP JUMP JUMPDEST PUSH1 0x0 PUSH2 0x3C00 DUP4 DUP4 PUSH2 0x3AB8 JUMP JUMPDEST SWAP1 POP SWAP3 SWAP2 POP POP JUMP JUMPDEST PUSH1 0x0 PUSH1 0x20 DUP3 ADD SWAP1 POP SWAP2 SWAP1 POP JUMP JUMPDEST PUSH1 0x0 PUSH2 0x3C20 DUP3 PUSH2 0x3A8C JUMP JUMPDEST PUSH2 0x3C2A DUP2 DUP6 PUSH2 0x3A97 JUMP JUMPDEST SWAP4 POP DUP4 PUSH1 0x20 DUP3 MUL DUP6 ADD PUSH2 0x3C3C DUP6 PUSH2 0x3AA8 JUMP JUMPDEST DUP1 PUSH1 0x0 JUMPDEST DUP6 DUP2 LT ISZERO PUSH2 0x3C78 JUMPI DUP5 DUP5 SUB DUP10 MSTORE DUP2 MLOAD PUSH2 0x3C59 DUP6 DUP3 PUSH2 0x3BF4 JUMP JUMPDEST SWAP5 POP PUSH2 0x3C64 DUP4 PUSH2 0x3C08 JUMP JUMPDEST SWAP3 POP PUSH1 0x20 DUP11 ADD SWAP10 POP POP PUSH1 0x1 DUP2 ADD SWAP1 POP PUSH2 0x3C40 JUMP JUMPDEST POP DUP3 SWAP8 POP DUP8 SWAP6 POP POP POP POP POP POP SWAP3 SWAP2 POP POP JUMP JUMPDEST PUSH1 0x0 PUSH1 0x20 DUP3 ADD SWAP1 POP DUP2 DUP2 SUB PUSH1 0x0 DUP4 ADD MSTORE PUSH2 0x3CA4 DUP2 DUP5 PUSH2 0x3C15 JUMP JUMPDEST SWAP1 POP SWAP3 SWAP2 POP POP JUMP JUMPDEST PUSH2 0x3CB5 DUP2 PUSH2 0x37AB JUMP JUMPDEST DUP3 MSTORE POP POP JUMP JUMPDEST PUSH1 0x0 PUSH1 0x20 DUP3 ADD SWAP1 POP PUSH2 0x3CD0 PUSH1 0x0 DUP4 ADD DUP5 PUSH2 0x3CAC JUMP JUMPDEST SWAP3 SWAP2 POP POP JUMP JUMPDEST PUSH1 0x0 PUSH20 0xFFFFFFFFFFFFFFFFFFFFFFFFFFFFFFFFFFFFFFFF DUP3 AND SWAP1 POP SWAP2 SWAP1 POP JUMP JUMPDEST PUSH1 0x0 PUSH2 0x3D01 DUP3 PUSH2 0x3CD6 JUMP JUMPDEST SWAP1 POP SWAP2 SWAP1 POP JUMP JUMPDEST PUSH2 0x3D11 DUP2 PUSH2 0x3CF6 JUMP JUMPDEST DUP2 EQ PUSH2 0x3D1C JUMPI PUSH1 0x0 DUP1 REVERT JUMPDEST POP JUMP JUMPDEST PUSH1 0x0 DUP2 CALLDATALOAD SWAP1 POP PUSH2 0x3D2E DUP2 PUSH2 0x3D08 JUMP JUMPDEST SWAP3 SWAP2 POP POP JUMP JUMPDEST PUSH1 0x0 DUP1 PUSH1 0x40 DUP4 DUP6 SUB SLT ISZERO PUSH2 0x3D4B JUMPI PUSH2 0x3D4A PUSH2 0x358A JUMP JUMPDEST JUMPDEST PUSH1 0x0 PUSH2 0x3D59 DUP6 DUP3 DUP7 ADD PUSH2 0x3D1F JUMP JUMPDEST SWAP3 POP POP PUSH1 0x20 DUP4 ADD CALLDATALOAD PUSH8 0xFFFFFFFFFFFFFFFF DUP2 GT ISZERO PUSH2 0x3D7A JUMPI PUSH2 0x3D79 PUSH2 0x358F JUMP JUMPDEST JUMPDEST PUSH2 0x3D86 DUP6 DUP3 DUP7 ADD PUSH2 0x36AC JUMP JUMPDEST SWAP2 POP POP SWAP3 POP SWAP3 SWAP1 POP JUMP JUMPDEST PUSH2 0x3D99 DUP2 PUSH2 0x3CF6 JUMP JUMPDEST DUP3 MSTORE POP POP JUMP JUMPDEST PUSH1 0x0 PUSH1 0x20 DUP3 ADD SWAP1 POP PUSH2 0x3DB4 PUSH1 0x0 DUP4 ADD DUP5 PUSH2 0x3D90 JUMP JUMPDEST SWAP3 SWAP2 POP POP JUMP JUMPDEST PUSH1 0x0 PUSH1 0x20 DUP3 DUP5 SUB SLT ISZERO PUSH2 0x3DD0 JUMPI PUSH2 0x3DCF PUSH2 0x358A JUMP JUMPDEST JUMPDEST PUSH1 0x0 PUSH2 0x3DDE DUP5 DUP3 DUP6 ADD PUSH2 0x3D1F JUMP JUMPDEST SWAP2 POP POP SWAP3 SWAP2 POP POP JUMP JUMPDEST PUSH1 0x0 DUP3 DUP3 MSTORE PUSH1 0x20 DUP3 ADD SWAP1 POP SWAP3 SWAP2 POP POP JUMP JUMPDEST PUSH1 0x0 PUSH2 0x3E03 DUP3 PUSH2 0x3723 JUMP JUMPDEST PUSH2 0x3E0D DUP2 DUP6 PUSH2 0x3DE7 JUMP JUMPDEST SWAP4 POP PUSH2 0x3E1D DUP2 DUP6 PUSH1 0x20 DUP7 ADD PUSH2 0x373F JUMP JUMPDEST PUSH2 0x3E26 DUP2 PUSH2 0x359E JUMP JUMPDEST DUP5 ADD SWAP2 POP POP SWAP3 SWAP2 POP POP JUMP JUMPDEST PUSH1 0x0 PUSH1 0x20 DUP3 ADD SWAP1 POP DUP2 DUP2 SUB PUSH1 0x0 DUP4 ADD MSTORE PUSH2 0x3E4B DUP2 DUP5 PUSH2 0x3DF8 JUMP JUMPDEST SWAP1 POP SWAP3 SWAP2 POP POP JUMP JUMPDEST PUSH2 0x3E5C DUP2 PUSH2 0x37AB JUMP JUMPDEST DUP2 EQ PUSH2 0x3E67 JUMPI PUSH1 0x0 DUP1 REVERT JUMPDEST POP JUMP JUMPDEST PUSH1 0x0 DUP2 CALLDATALOAD SWAP1 POP PUSH2 0x3E79 DUP2 PUSH2 0x3E53 JUMP JUMPDEST SWAP3 SWAP2 POP POP JUMP JUMPDEST PUSH1 0x0 PUSH1 0x20 DUP3 DUP5 SUB SLT ISZERO PUSH2 0x3E95 JUMPI PUSH2 0x3E94 PUSH2 0x358A JUMP JUMPDEST JUMPDEST PUSH1 0x0 PUSH2 0x3EA3 DUP5 DUP3 DUP6 ADD PUSH2 0x3E6A JUMP JUMPDEST SWAP2 POP POP SWAP3 SWAP2 POP POP JUMP JUMPDEST PUSH1 0x0 PUSH2 0x180 DUP3 ADD SWAP1 POP DUP2 DUP2 SUB PUSH1 0x0 DUP4 ADD MSTORE PUSH2 0x3EC7 DUP2 DUP16 PUSH2 0x3DF8 JUMP JUMPDEST SWAP1 POP DUP2 DUP2 SUB PUSH1 0x20 DUP4 ADD MSTORE PUSH2 0x3EDB DUP2 DUP15 PUSH2 0x3DF8 JUMP JUMPDEST SWAP1 POP DUP2 DUP2 SUB PUSH1 0x40 DUP4 ADD MSTORE PUSH2 0x3EEF DUP2 DUP14 PUSH2 0x3DF8 JUMP JUMPDEST SWAP1 POP PUSH2 0x3EFE PUSH1 0x60 DUP4 ADD DUP13 PUSH2 0x3CAC JUMP JUMPDEST PUSH2 0x3F0B PUSH1 0x80 DUP4 ADD DUP12 PUSH2 0x3CAC JUMP JUMPDEST PUSH2 0x3F18 PUSH1 0xA0 DUP4 ADD DUP11 PUSH2 0x3CAC JUMP JUMPDEST DUP2 DUP2 SUB PUSH1 0xC0 DUP4 ADD MSTORE PUSH2 0x3F2A DUP2 DUP10 PUSH2 0x3DF8 JUMP JUMPDEST SWAP1 POP DUP2 DUP2 SUB PUSH1 0xE0 DUP4 ADD MSTORE PUSH2 0x3F3E DUP2 DUP9 PUSH2 0x3DF8 JUMP JUMPDEST SWAP1 POP DUP2 DUP2 SUB PUSH2 0x100 DUP4 ADD MSTORE PUSH2 0x3F53 DUP2 DUP8 PUSH2 0x3DF8 JUMP JUMPDEST SWAP1 POP DUP2 DUP2 SUB PUSH2 0x120 DUP4 ADD MSTORE PUSH2 0x3F68 DUP2 DUP7 PUSH2 0x3DF8 JUMP JUMPDEST SWAP1 POP DUP2 DUP2 SUB PUSH2 0x140 DUP4 ADD MSTORE PUSH2 0x3F7D DUP2 DUP6 PUSH2 0x3DF8 JUMP JUMPDEST SWAP1 POP DUP2 DUP2 SUB PUSH2 0x160 DUP4 ADD MSTORE PUSH2 0x3F92 DUP2 DUP5 PUSH2 0x3DF8 JUMP JUMPDEST SWAP1 POP SWAP14 SWAP13 POP POP POP POP POP POP POP POP POP POP POP POP POP JUMP JUMPDEST PUSH1 0x0 DUP1 PUSH1 0x0 DUP1 PUSH1 0x80 DUP6 DUP8 SUB SLT ISZERO PUSH2 0x3FBF JUMPI PUSH2 0x3FBE PUSH2 0x358A JUMP JUMPDEST JUMPDEST PUSH1 0x0 DUP6 ADD CALLDATALOAD PUSH8 0xFFFFFFFFFFFFFFFF DUP2 GT ISZERO PUSH2 0x3FDD JUMPI PUSH2 0x3FDC PUSH2 0x358F JUMP JUMPDEST JUMPDEST PUSH2 0x3FE9 DUP8 DUP3 DUP9 ADD PUSH2 0x36AC JUMP JUMPDEST SWAP5 POP POP PUSH1 0x20 PUSH2 0x3FFA DUP8 DUP3 DUP9 ADD PUSH2 0x3E6A JUMP JUMPDEST SWAP4 POP POP PUSH1 0x40 PUSH2 0x400B DUP8 DUP3 DUP9 ADD PUSH2 0x3E6A JUMP JUMPDEST SWAP3 POP POP PUSH1 0x60 DUP6 ADD CALLDATALOAD PUSH8 0xFFFFFFFFFFFFFFFF DUP2 GT ISZERO PUSH2 0x402C JUMPI PUSH2 0x402B PUSH2 0x358F JUMP JUMPDEST JUMPDEST PUSH2 0x4038 DUP8 DUP3 DUP9 ADD PUSH2 0x36AC JUMP JUMPDEST SWAP2 POP POP SWAP3 SWAP6 SWAP2 SWAP5 POP SWAP3 POP JUMP JUMPDEST PUSH1 0x0 DUP2 SWAP1 POP SWAP3 SWAP2 POP POP JUMP JUMPDEST PUSH32 0x5300000000000000000000000000000000000000000000000000000000000000 PUSH1 0x0 DUP3 ADD MSTORE POP JUMP JUMPDEST PUSH1 0x0 PUSH2 0x4085 PUSH1 0x1 DUP4 PUSH2 0x4044 JUMP JUMPDEST SWAP2 POP PUSH2 0x4090 DUP3 PUSH2 0x404F JUMP JUMPDEST PUSH1 0x1 DUP3 ADD SWAP1 POP SWAP2 SWAP1 POP JUMP JUMPDEST PUSH1 0x0 PUSH2 0x40A6 DUP3 PUSH2 0x4078 JUMP JUMPDEST SWAP2 POP DUP2 SWAP1 POP SWAP2 SWAP1 POP JUMP JUMPDEST PUSH1 0x0 PUSH2 0x40BB DUP3 PUSH2 0x3723 JUMP JUMPDEST PUSH2 0x40C5 DUP2 DUP6 PUSH2 0x4044 JUMP JUMPDEST SWAP4 POP PUSH2 0x40D5 DUP2 DUP6 PUSH1 0x20 DUP7 ADD PUSH2 0x373F JUMP JUMPDEST DUP1 DUP5 ADD SWAP2 POP POP SWAP3 SWAP2 POP POP JUMP JUMPDEST PUSH1 0x0 PUSH2 0x40ED DUP3 DUP5 PUSH2 0x40B0 JUMP JUMPDEST SWAP2 POP DUP2 SWAP1 POP SWAP3 SWAP2 POP POP JUMP JUMPDEST PUSH32 0x4E487B7100000000000000000000000000000000000000000000000000000000 PUSH1 0x0 MSTORE PUSH1 0x22 PUSH1 0x4 MSTORE PUSH1 0x24 PUSH1 0x0 REVERT JUMPDEST PUSH1 0x0 PUSH1 0x2 DUP3 DIV SWAP1 POP PUSH1 0x1 DUP3 AND DUP1 PUSH2 0x413F JUMPI PUSH1 0x7F DUP3 AND SWAP2 POP JUMPDEST PUSH1 0x20 DUP3 LT DUP2 EQ ISZERO PUSH2 0x4153 JUMPI PUSH2 0x4152 PUSH2 0x40F8 JUMP JUMPDEST JUMPDEST POP SWAP2 SWAP1 POP JUMP JUMPDEST POP JUMP JUMPDEST PUSH1 0x0 PUSH2 0x4169 PUSH1 0x0 DUP4 PUSH2 0x4044 JUMP JUMPDEST SWAP2 POP PUSH2 0x4174 DUP3 PUSH2 0x4159 JUMP JUMPDEST PUSH1 0x0 DUP3 ADD SWAP1 POP SWAP2 SWAP1 POP JUMP JUMPDEST PUSH1 0x0 PUSH2 0x418A DUP3 PUSH2 0x415C JUMP JUMPDEST SWAP2 POP DUP2 SWAP1 POP SWAP2 SWAP1 POP JUMP JUMPDEST PUSH1 0x0 DUP2 SWAP1 POP DUP2 PUSH1 0x0 MSTORE PUSH1 0x20 PUSH1 0x0 KECCAK256 SWAP1 POP SWAP2 SWAP1 POP JUMP JUMPDEST PUSH1 0x0 DUP2 SLOAD PUSH2 0x41B6 DUP2 PUSH2 0x4127 JUMP JUMPDEST PUSH2 0x41C0 DUP2 DUP7 PUSH2 0x4044 JUMP JUMPDEST SWAP5 POP PUSH1 0x1 DUP3 AND PUSH1 0x0 DUP2 EQ PUSH2 0x41DB JUMPI PUSH1 0x1 DUP2 EQ PUSH2 0x41EC JUMPI PUSH2 0x421F JUMP JUMPDEST PUSH1 0xFF NOT DUP4 AND DUP7 MSTORE DUP2 DUP7 ADD SWAP4 POP PUSH2 0x421F JUMP JUMPDEST PUSH2 0x41F5 DUP6 PUSH2 0x4194 JUMP JUMPDEST PUSH1 0x0 JUMPDEST DUP4 DUP2 LT ISZERO PUSH2 0x4217 JUMPI DUP2 SLOAD DUP2 DUP10 ADD MSTORE PUSH1 0x1 DUP3 ADD SWAP2 POP PUSH1 0x20 DUP2 ADD SWAP1 POP PUSH2 0x41F8 JUMP JUMPDEST DUP4 DUP9 ADD SWAP6 POP POP POP JUMPDEST POP POP POP SWAP3 SWAP2 POP POP JUMP JUMPDEST PUSH1 0x0 PUSH2 0x4234 DUP3 DUP5 PUSH2 0x41A9 JUMP JUMPDEST SWAP2 POP DUP2 SWAP1 POP SWAP3 SWAP2 POP POP JUMP JUMPDEST PUSH32 0x596F7520617265206E6F742070617274206F66207465616D2079657420212100 PUSH1 0x0 DUP3 ADD MSTORE POP JUMP JUMPDEST PUSH1 0x0 PUSH2 0x4275 PUSH1 0x1F DUP4 PUSH2 0x3DE7 JUMP JUMPDEST SWAP2 POP PUSH2 0x4280 DUP3 PUSH2 0x423F JUMP JUMPDEST PUSH1 0x20 DUP3 ADD SWAP1 POP SWAP2 SWAP1 POP JUMP JUMPDEST PUSH1 0x0 PUSH1 0x20 DUP3 ADD SWAP1 POP DUP2 DUP2 SUB PUSH1 0x0 DUP4 ADD MSTORE PUSH2 0x42A4 DUP2 PUSH2 0x4268 JUMP JUMPDEST SWAP1 POP SWAP2 SWAP1 POP JUMP JUMPDEST PUSH32 0x5374617475730000000000000000000000000000000000000000000000000000 PUSH1 0x0 DUP3 ADD MSTORE POP JUMP JUMPDEST PUSH1 0x0 PUSH2 0x42E1 PUSH1 0x6 DUP4 PUSH2 0x4044 JUMP JUMPDEST SWAP2 POP PUSH2 0x42EC DUP3 PUSH2 0x42AB JUMP JUMPDEST PUSH1 0x6 DUP3 ADD SWAP1 POP SWAP2 SWAP1 POP JUMP JUMPDEST PUSH1 0x0 PUSH2 0x4302 DUP3 PUSH2 0x42D4 JUMP JUMPDEST SWAP2 POP DUP2 SWAP1 POP SWAP2 SWAP1 POP JUMP JUMPDEST PUSH32 0x4E487B7100000000000000000000000000000000000000000000000000000000 PUSH1 0x0 MSTORE PUSH1 0x32 PUSH1 0x4 MSTORE PUSH1 0x24 PUSH1 0x0 REVERT JUMPDEST PUSH1 0x0 DUP1 REVERT JUMPDEST PUSH1 0x0 DUP1 REVERT JUMPDEST PUSH1 0x0 DUP1 REVERT JUMPDEST PUSH1 0x0 DUP1 DUP4 CALLDATALOAD PUSH1 0x1 PUSH1 0x20 SUB DUP5 CALLDATASIZE SUB SUB DUP2 SLT PUSH2 0x4367 JUMPI PUSH2 0x4366 PUSH2 0x433B JUMP JUMPDEST JUMPDEST DUP1 DUP5 ADD SWAP3 POP DUP3 CALLDATALOAD SWAP2 POP PUSH8 0xFFFFFFFFFFFFFFFF DUP3 GT ISZERO PUSH2 0x4389 JUMPI PUSH2 0x4388 PUSH2 0x4340 JUMP JUMPDEST JUMPDEST PUSH1 0x20 DUP4 ADD SWAP3 POP PUSH1 0x1 DUP3 MUL CALLDATASIZE SUB DUP4 SGT ISZERO PUSH2 0x43A5 JUMPI PUSH2 0x43A4 PUSH2 0x4345 JUMP JUMPDEST JUMPDEST POP SWAP3 POP SWAP3 SWAP1 POP JUMP JUMPDEST PUSH1 0x0 PUSH2 0x43B9 DUP4 DUP6 PUSH2 0x4044 JUMP JUMPDEST SWAP4 POP PUSH2 0x43C6 DUP4 DUP6 DUP5 PUSH2 0x365B JUMP JUMPDEST DUP3 DUP5 ADD SWAP1 POP SWAP4 SWAP3 POP POP POP JUMP JUMPDEST PUSH1 0x0 PUSH2 0x43DF DUP3 DUP5 DUP7 PUSH2 0x43AD JUMP JUMPDEST SWAP2 POP DUP2 SWAP1 POP SWAP4 SWAP3 POP POP POP JUMP JUMPDEST PUSH32 0x437573746F6D65722046696E616C2044656C6976657279204461746500000000 PUSH1 0x0 DUP3 ADD MSTORE POP JUMP JUMPDEST PUSH1 0x0 PUSH2 0x4421 PUSH1 0x1C DUP4 PUSH2 0x4044 JUMP JUMPDEST SWAP2 POP PUSH2 0x442C DUP3 PUSH2 0x43EB JUMP JUMPDEST PUSH1 0x1C DUP3 ADD SWAP1 POP SWAP2 SWAP1 POP JUMP JUMPDEST PUSH1 0x0 PUSH2 0x4442 DUP3 PUSH2 0x4414 JUMP JUMPDEST SWAP2 POP DUP2 SWAP1 POP SWAP2 SWAP1 POP JUMP JUMPDEST PUSH32 0x426172436F646500000000000000000000000000000000000000000000000000 PUSH1 0x0 DUP3 ADD MSTORE POP JUMP JUMPDEST PUSH1 0x0 PUSH2 0x4482 PUSH1 0x7 DUP4 PUSH2 0x4044 JUMP JUMPDEST SWAP2 POP PUSH2 0x448D DUP3 PUSH2 0x444C JUMP JUMPDEST PUSH1 0x7 DUP3 ADD SWAP1 POP SWAP2 SWAP1 POP JUMP JUMPDEST PUSH1 0x0 PUSH2 0x44A3 DUP3 PUSH2 0x4475 JUMP JUMPDEST SWAP2 POP DUP2 SWAP1 POP SWAP2 SWAP1 POP JUMP JUMPDEST PUSH32 0x42617463684E6F00000000000000000000000000000000000000000000000000 PUSH1 0x0 DUP3 ADD MSTORE POP JUMP JUMPDEST PUSH1 0x0 PUSH2 0x44E3 PUSH1 0x7 DUP4 PUSH2 0x4044 JUMP JUMPDEST SWAP2 POP PUSH2 0x44EE DUP3 PUSH2 0x44AD JUMP JUMPDEST PUSH1 0x7 DUP3 ADD SWAP1 POP SWAP2 SWAP1 POP JUMP JUMPDEST PUSH1 0x0 PUSH2 0x4504 DUP3 PUSH2 0x44D6 JUMP JUMPDEST SWAP2 POP DUP2 SWAP1 POP SWAP2 SWAP1 POP JUMP JUMPDEST PUSH32 0x4D6173746572204C6162656C0000000000000000000000000000000000000000 PUSH1 0x0 DUP3 ADD MSTORE POP JUMP JUMPDEST PUSH1 0x0 PUSH2 0x4544 PUSH1 0xC DUP4 PUSH2 0x4044 JUMP JUMPDEST SWAP2 POP PUSH2 0x454F DUP3 PUSH2 0x450E JUMP JUMPDEST PUSH1 0xC DUP3 ADD SWAP1 POP SWAP2 SWAP1 POP JUMP JUMPDEST PUSH1 0x0 PUSH2 0x4565 DUP3 PUSH2 0x4537 JUMP JUMPDEST SWAP2 POP DUP2 SWAP1 POP SWAP2 SWAP1 POP JUMP JUMPDEST PUSH32 0x496E766F69636520506174680000000000000000000000000000000000000000 PUSH1 0x0 DUP3 ADD MSTORE POP JUMP JUMPDEST PUSH1 0x0 PUSH2 0x45A5 PUSH1 0xC DUP4 PUSH2 0x4044 JUMP JUMPDEST SWAP2 POP PUSH2 0x45B0 DUP3 PUSH2 0x456F JUMP JUMPDEST PUSH1 0xC DUP3 ADD SWAP1 POP SWAP2 SWAP1 POP JUMP JUMPDEST PUSH1 0x0 PUSH2 0x45C6 DUP3 PUSH2 0x4598 JUMP JUMPDEST SWAP2 POP DUP2 SWAP1 POP SWAP2 SWAP1 POP JUMP JUMPDEST PUSH32 0x547261636B696E67204E6F000000000000000000000000000000000000000000 PUSH1 0x0 DUP3 ADD MSTORE POP JUMP JUMPDEST PUSH1 0x0 PUSH2 0x4606 PUSH1 0xB DUP4 PUSH2 0x4044 JUMP JUMPDEST SWAP2 POP PUSH2 0x4611 DUP3 PUSH2 0x45D0 JUMP JUMPDEST PUSH1 0xB DUP3 ADD SWAP1 POP SWAP2 SWAP1 POP JUMP JUMPDEST PUSH1 0x0 PUSH2 0x4627 DUP3 PUSH2 0x45F9 JUMP JUMPDEST SWAP2 POP DUP2 SWAP1 POP SWAP2 SWAP1 POP JUMP JUMPDEST PUSH32 0x4E487B7100000000000000000000000000000000000000000000000000000000 PUSH1 0x0 MSTORE PUSH1 0x11 PUSH1 0x4 MSTORE PUSH1 0x24 PUSH1 0x0 REVERT JUMPDEST PUSH1 0x0 PUSH2 0x466B DUP3 PUSH2 0x37AB JUMP JUMPDEST SWAP2 POP PUSH32 0xFFFFFFFFFFFFFFFFFFFFFFFFFFFFFFFFFFFFFFFFFFFFFFFFFFFFFFFFFFFFFFFF DUP3 EQ ISZERO PUSH2 0x469E JUMPI PUSH2 0x469D PUSH2 0x4631 JUMP JUMPDEST JUMPDEST PUSH1 0x1 DUP3 ADD SWAP1 POP SWAP2 SWAP1 POP JUMP JUMPDEST PUSH1 0x0 PUSH2 0x46B4 DUP3 PUSH2 0x37AB JUMP JUMPDEST SWAP2 POP PUSH2 0x46BF DUP4 PUSH2 0x37AB JUMP JUMPDEST SWAP3 POP DUP3 DUP3 LT ISZERO PUSH2 0x46D2 JUMPI PUSH2 0x46D1 PUSH2 0x4631 JUMP JUMPDEST JUMPDEST DUP3 DUP3 SUB SWAP1 POP SWAP3 SWAP2 POP POP JUMP JUMPDEST PUSH32 0x534F000000000000000000000000000000000000000000000000000000000000 DUP2 MSTORE POP JUMP JUMPDEST PUSH1 0x0 PUSH2 0x470E DUP3 PUSH2 0x46DD JUMP JUMPDEST PUSH1 0x2 DUP3 ADD SWAP2 POP PUSH2 0x471E DUP3 DUP5 PUSH2 0x40B0 JUMP JUMPDEST SWAP2 POP DUP2 SWAP1 POP SWAP3 SWAP2 POP POP JUMP JUMPDEST PUSH1 0x0 PUSH2 0x4734 DUP3 PUSH2 0x37AB JUMP JUMPDEST SWAP2 POP PUSH2 0x473F DUP4 PUSH2 0x37AB JUMP JUMPDEST SWAP3 POP DUP3 PUSH32 0xFFFFFFFFFFFFFFFFFFFFFFFFFFFFFFFFFFFFFFFFFFFFFFFFFFFFFFFFFFFFFFFF SUB DUP3 GT ISZERO PUSH2 0x4774 JUMPI PUSH2 0x4773 PUSH2 0x4631 JUMP JUMPDEST JUMPDEST DUP3 DUP3 ADD SWAP1 POP SWAP3 SWAP2 POP POP JUMP JUMPDEST PUSH1 0x0 DUP2 PUSH1 0x1 SHR SWAP1 POP SWAP2 SWAP1 POP JUMP JUMPDEST PUSH1 0x0 DUP1 DUP3 SWAP2 POP DUP4 SWAP1 POP JUMPDEST PUSH1 0x1 DUP6 GT ISZERO PUSH2 0x47D6 JUMPI DUP1 DUP7 DIV DUP2 GT ISZERO PUSH2 0x47B2 JUMPI PUSH2 0x47B1 PUSH2 0x4631 JUMP JUMPDEST JUMPDEST PUSH1 0x1 DUP6 AND ISZERO PUSH2 0x47C1 JUMPI DUP1 DUP3 MUL SWAP2 POP JUMPDEST DUP1 DUP2 MUL SWAP1 POP PUSH2 0x47CF DUP6 PUSH2 0x477F JUMP JUMPDEST SWAP5 POP PUSH2 0x4796 JUMP JUMPDEST SWAP5 POP SWAP5 SWAP3 POP POP POP JUMP JUMPDEST PUSH1 0x0 DUP3 PUSH2 0x47EF JUMPI PUSH1 0x1 SWAP1 POP PUSH2 0x48AB JUMP JUMPDEST DUP2 PUSH2 0x47FD JUMPI PUSH1 0x0 SWAP1 POP PUSH2 0x48AB JUMP JUMPDEST DUP2 PUSH1 0x1 DUP2 EQ PUSH2 0x4813 JUMPI PUSH1 0x2 DUP2 EQ PUSH2 0x481D JUMPI PUSH2 0x484C JUMP JUMPDEST PUSH1 0x1 SWAP2 POP POP PUSH2 0x48AB JUMP JUMPDEST PUSH1 0xFF DUP5 GT ISZERO PUSH2 0x482F JUMPI PUSH2 0x482E PUSH2 0x4631 JUMP JUMPDEST JUMPDEST DUP4 PUSH1 0x2 EXP SWAP2 POP DUP5 DUP3 GT ISZERO PUSH2 0x4846 JUMPI PUSH2 0x4845 PUSH2 0x4631 JUMP JUMPDEST JUMPDEST POP PUSH2 0x48AB JUMP JUMPDEST POP PUSH1 0x20 DUP4 LT PUSH2 0x133 DUP4 LT AND PUSH1 0x4E DUP5 LT PUSH1 0xB DUP5 LT AND OR ISZERO PUSH2 0x4881 JUMPI DUP3 DUP3 EXP SWAP1 POP DUP4 DUP2 GT ISZERO PUSH2 0x487C JUMPI PUSH2 0x487B PUSH2 0x4631 JUMP JUMPDEST JUMPDEST PUSH2 0x48AB JUMP JUMPDEST PUSH2 0x488E DUP5 DUP5 DUP5 PUSH1 0x1 PUSH2 0x478C JUMP JUMPDEST SWAP3 POP SWAP1 POP DUP2 DUP5 DIV DUP2 GT ISZERO PUSH2 0x48A5 JUMPI PUSH2 0x48A4 PUSH2 0x4631 JUMP JUMPDEST JUMPDEST DUP2 DUP2 MUL SWAP1 POP JUMPDEST SWAP4 SWAP3 POP POP POP JUMP JUMPDEST PUSH1 0x0 PUSH2 0x48BD DUP3 PUSH2 0x37AB JUMP JUMPDEST SWAP2 POP PUSH2 0x48C8 DUP4 PUSH2 0x37AB JUMP JUMPDEST SWAP3 POP PUSH2 0x48F5 PUSH32 0xFFFFFFFFFFFFFFFFFFFFFFFFFFFFFFFFFFFFFFFFFFFFFFFFFFFFFFFFFFFFFFFF DUP5 DUP5 PUSH2 0x47DF JUMP JUMPDEST SWAP1 POP SWAP3 SWAP2 POP POP JUMP JUMPDEST PUSH1 0x0 PUSH2 0x4908 DUP3 PUSH2 0x37AB JUMP JUMPDEST SWAP2 POP PUSH2 0x4913 DUP4 PUSH2 0x37AB JUMP JUMPDEST SWAP3 POP DUP2 PUSH32 0xFFFFFFFFFFFFFFFFFFFFFFFFFFFFFFFFFFFFFFFFFFFFFFFFFFFFFFFFFFFFFFFF DIV DUP4 GT DUP3 ISZERO ISZERO AND ISZERO PUSH2 0x494C JUMPI PUSH2 0x494B PUSH2 0x4631 JUMP JUMPDEST JUMPDEST DUP3 DUP3 MUL SWAP1 POP SWAP3 SWAP2 POP POP JUMP JUMPDEST PUSH32 0x4E756C6C206163636F756E7420697320636F6D696E672066726F6D2066726F6E PUSH1 0x0 DUP3 ADD MSTORE PUSH32 0x742D656E64202121000000000000000000000000000000000000000000000000 PUSH1 0x20 DUP3 ADD MSTORE POP JUMP JUMPDEST PUSH1 0x0 PUSH2 0x49B3 PUSH1 0x28 DUP4 PUSH2 0x3DE7 JUMP JUMPDEST SWAP2 POP PUSH2 0x49BE DUP3 PUSH2 0x4957 JUMP JUMPDEST PUSH1 0x40 DUP3 ADD SWAP1 POP SWAP2 SWAP1 POP JUMP JUMPDEST PUSH1 0x0 PUSH1 0x20 DUP3 ADD SWAP1 POP DUP2 DUP2 SUB PUSH1 0x0 DUP4 ADD MSTORE PUSH2 0x49E2 DUP2 PUSH2 0x49A6 JUMP JUMPDEST SWAP1 POP SWAP2 SWAP1 POP JUMP JUMPDEST PUSH32 0x4F776E61626C653A206E6577206F776E657220697320746865207A65726F2061 PUSH1 0x0 DUP3 ADD MSTORE PUSH32 0x6464726573730000000000000000000000000000000000000000000000000000 PUSH1 0x20 DUP3 ADD MSTORE POP JUMP JUMPDEST PUSH1 0x0 PUSH2 0x4A45 PUSH1 0x26 DUP4 PUSH2 0x3DE7 JUMP JUMPDEST SWAP2 POP PUSH2 0x4A50 DUP3 PUSH2 0x49E9 JUMP JUMPDEST PUSH1 0x40 DUP3 ADD SWAP1 POP SWAP2 SWAP1 POP JUMP JUMPDEST PUSH1 0x0 PUSH1 0x20 DUP3 ADD SWAP1 POP DUP2 DUP2 SUB PUSH1 0x0 DUP4 ADD MSTORE PUSH2 0x4A74 DUP2 PUSH2 0x4A38 JUMP JUMPDEST SWAP1 POP SWAP2 SWAP1 POP JUMP JUMPDEST PUSH32 0x53616C657320526570726573656E746174697665000000000000000000000000 PUSH1 0x0 DUP3 ADD MSTORE POP JUMP JUMPDEST PUSH1 0x0 PUSH2 0x4AB1 PUSH1 0x14 DUP4 PUSH2 0x4044 JUMP JUMPDEST SWAP2 POP PUSH2 0x4ABC DUP3 PUSH2 0x4A7B JUMP JUMPDEST PUSH1 0x14 DUP3 ADD SWAP1 POP SWAP2 SWAP1 POP JUMP JUMPDEST PUSH1 0x0 PUSH2 0x4AD2 DUP3 PUSH2 0x4AA4 JUMP JUMPDEST SWAP2 POP DUP2 SWAP1 POP SWAP2 SWAP1 POP JUMP JUMPDEST PUSH32 0x596F7520617265206E6F7420612053616C657320526570202121000000000000 PUSH1 0x0 DUP3 ADD MSTORE POP JUMP JUMPDEST PUSH1 0x0 PUSH2 0x4B12 PUSH1 0x1A DUP4 PUSH2 0x3DE7 JUMP JUMPDEST SWAP2 POP PUSH2 0x4B1D DUP3 PUSH2 0x4ADC JUMP JUMPDEST PUSH1 0x20 DUP3 ADD SWAP1 POP SWAP2 SWAP1 POP JUMP JUMPDEST PUSH1 0x0 PUSH1 0x20 DUP3 ADD SWAP1 POP DUP2 DUP2 SUB PUSH1 0x0 DUP4 ADD MSTORE PUSH2 0x4B41 DUP2 PUSH2 0x4B05 JUMP JUMPDEST SWAP1 POP SWAP2 SWAP1 POP JUMP JUMPDEST PUSH32 0x504F000000000000000000000000000000000000000000000000000000000000 DUP2 MSTORE POP JUMP JUMPDEST PUSH1 0x0 PUSH2 0x4B79 DUP3 PUSH2 0x4B48 JUMP JUMPDEST PUSH1 0x2 DUP3 ADD SWAP2 POP PUSH2 0x4B89 DUP3 DUP5 PUSH2 0x40B0 JUMP JUMPDEST SWAP2 POP DUP2 SWAP1 POP SWAP3 SWAP2 POP POP JUMP JUMPDEST PUSH32 0x4E487B7100000000000000000000000000000000000000000000000000000000 PUSH1 0x0 MSTORE PUSH1 0x12 PUSH1 0x4 MSTORE PUSH1 0x24 PUSH1 0x0 REVERT JUMPDEST PUSH32 0x4F776E61626C653A2063616C6C6572206973206E6F7420746865206F776E6572 PUSH1 0x0 DUP3 ADD MSTORE POP JUMP JUMPDEST PUSH1 0x0 PUSH2 0x4BF9 PUSH1 0x20 DUP4 PUSH2 0x3DE7 JUMP JUMPDEST SWAP2 POP PUSH2 0x4C04 DUP3 PUSH2 0x4BC3 JUMP JUMPDEST PUSH1 0x20 DUP3 ADD SWAP1 POP SWAP2 SWAP1 POP JUMP JUMPDEST PUSH1 0x0 PUSH1 0x20 DUP3 ADD SWAP1 POP DUP2 DUP2 SUB PUSH1 0x0 DUP4 ADD MSTORE PUSH2 0x4C28 DUP2 PUSH2 0x4BEC JUMP JUMPDEST SWAP1 POP SWAP2 SWAP1 POP JUMP INVALID LOG2 PUSH5 0x6970667358 0x22 SLT KECCAK256 PUSH14 0x89036654058D31B8BEC06CA56359 0xDF 0xC1 PUSH9 0xAA0C5CE66513A5EAE6 LOG2 ADDRESS 0xD7 0xAF 0x29 PUSH5 0x736F6C6343 STOP ADDMOD 0xC STOP CALLER "},"methodIdentifiers":{"addRole(address,string)":"7d72aa65","createOrder(string,uint256,uint256,string)":"fb0a9a6d","getAllOrderDetails()":"6bc184b4","getOrderDetails(string)":"4fbb487c","getRole()":"fde08174","orderData(string)":"e393f263","orders(uint256)":"a85c38ef","owner()":"8da5cb5b","renounceOwnership()":"715018a6","roles(address)":"99374642","st2num(string)":"79cd9055","transferOwnership(address)":"f2fde38b","update(string,string[],string[])":"5a553855"}},"storageLayout":{"storage":[{"astId":82,"contract":"contracts/SupplyChain.sol:SupplyChain","label":"_owner","offset":0,"slot":"0","type":"t_address"},{"astId":5,"contract":"contracts/SupplyChain.sol:SupplyChain","label":"_gatewayTokenContract","offset":0,"slot":"1","type":"t_address"},{"astId":7,"contract":"contracts/SupplyChain.sol:SupplyChain","label":"_gatekeeperNetwork","offset":0,"slot":"2","type":"t_uint256"},{"astId":1260,"contract":"contracts/SupplyChain.sol:SupplyChain","label":"so_ID","offset":0,"slot":"3","type":"t_uint256"},{"astId":1262,"contract":"contracts/SupplyChain.sol:SupplyChain","label":"start_so_ID","offset":0,"slot":"4","type":"t_uint256"},{"astId":1292,"contract":"contracts/SupplyChain.sol:SupplyChain","label":"orderData","offset":0,"slot":"5","type":"t_mapping(t_string_memory_ptr,t_struct(Order)1287_storage)"},{"astId":1296,"contract":"contracts/SupplyChain.sol:SupplyChain","label":"orders","offset":0,"slot":"6","type":"t_array(t_struct(Order)1287_storage)dyn_storage"},{"astId":1300,"contract":"contracts/SupplyChain.sol:SupplyChain","label":"roles","offset":0,"slot":"7","type":"t_mapping(t_address,t_string_storage)"}],"types":{"t_address":{"encoding":"inplace","label":"address","numberOfBytes":"20"},"t_array(t_struct(Order)1287_storage)dyn_storage":{"base":"t_struct(Order)1287_storage","encoding":"dynamic_array","label":"struct SupplyChain.Order[]","numberOfBytes":"32"},"t_mapping(t_address,t_string_storage)":{"encoding":"mapping","key":"t_address","label":"mapping(address => string)","numberOfBytes":"32","value":"t_string_storage"},"t_mapping(t_string_memory_ptr,t_struct(Order)1287_storage)":{"encoding":"mapping","key":"t_string_memory_ptr","label":"mapping(string => struct SupplyChain.Order)","numberOfBytes":"32","value":"t_struct(Order)1287_storage"},"t_string_memory_ptr":{"encoding":"bytes","label":"string","numberOfBytes":"32"},"t_string_storage":{"encoding":"bytes","label":"string","numberOfBytes":"32"},"t_struct(Order)1287_storage":{"encoding":"inplace","label":"struct SupplyChain.Order","members":[{"astId":1264,"contract":"contracts/SupplyChain.sol:SupplyChain","label":"SoID","offset":0,"slot":"0","type":"t_string_storage"},{"astId":1266,"contract":"contracts/SupplyChain.sol:SupplyChain","label":"PoID","offset":0,"slot":"1","type":"t_string_storage"},{"astId":1268,"contract":"contracts/SupplyChain.sol:SupplyChain","label":"prodName","offset":0,"slot":"2","type":"t_string_storage"},{"astId":1270,"contract":"contracts/SupplyChain.sol:SupplyChain","label":"qty","offset":0,"slot":"3","type":"t_uint256"},{"astId":1272,"contract":"contracts/SupplyChain.sol:SupplyChain","label":"orderValue","offset":0,"slot":"4","type":"t_uint256"},{"astId":1274,"contract":"contracts/SupplyChain.sol:SupplyChain","label":"customerFinalDeliveryDate","offset":0,"slot":"5","type":"t_uint256"},{"astId":1276,"contract":"contracts/SupplyChain.sol:SupplyChain","label":"status","offset":0,"slot":"6","type":"t_string_storage"},{"astId":1278,"contract":"contracts/SupplyChain.sol:SupplyChain","label":"barCode","offset":0,"slot":"7","type":"t_string_storage"},{"astId":1280,"contract":"contracts/SupplyChain.sol:SupplyChain","label":"batchNo","offset":0,"slot":"8","type":"t_string_storage"},{"astId":1282,"contract":"contracts/SupplyChain.sol:SupplyChain","label":"masterLabel","offset":0,"slot":"9","type":"t_string_storage"},{"astId":1284,"contract":"contracts/SupplyChain.sol:SupplyChain","label":"invoicePath","offset":0,"slot":"10","type":"t_string_storage"},{"astId":1286,"contract":"contracts/SupplyChain.sol:SupplyChain","label":"trackingNo","offset":0,"slot":"11","type":"t_string_storage"}],"numberOfBytes":"384"},"t_uint256":{"encoding":"inplace","label":"uint256","numberOfBytes":"32"}}}}}}